:100000000C94A2010C94E9010C94E9010C94E9010F
:100010000C94E9010C94E9010C94E9010C94E901B8
:100020000C94E9010C94E9010C9462210C943622A1
:100030000C9413190C94E9010C94E9010C94E90156
:100040000C94E9010C94E9010C94E9010C94E90188
:100050000C94E9010C946A190C94E9010C94E901DF
:100060000C94E9010C94E9010C94E9010C94E90168
:100070000C94E9010C94E9010C94E9010C94E90158
:100080000C94E9010C94E9010C94E9010C94E90148
:100090000C94E9010C94E9010C94E9010C94E90138
:1000A0000C94E9010C94E9010C94E90129002B005E
:1000B000E100E000015301000100010001000153D3
:1000C00000000000000000002A2B280000000000B3
:1000D00000000000000000000000002900000000F7
:1000E0002C1E3420212224342627252E362D373865
:1000F000271E1F202122232425263333362E37386E
:100100001F0405060708090A0B0C0D0E0F1011122B
:10011000131415161718191A1B1C1D2F3130232DF7
:10012000350405060708090A0B0C0D0E0F101112F5
:10013000131415161718191A1B1C1D2F3130354CA6
:1001400000000000000000000000000000000000AF
:10015000000000007E0F00D4FFFFFFC70000007802
:1001600004033000000026035B00310078003400F7
:100170005D0020002B002000310020004D006100B8
:10018000630072006F0070006100640000002403CF
:10019000410072007200610079002000500065008B
:1001A00072006900700068006500720061006C00F8
:1001B000730000000403090409025B00030100A0AE
:1001C000FA090400000103010100092111010001E5
:1001D0002240000705810308000A09040100020308
:1001E00000000009211101000122220007058203FD
:1001F0002000010705030320000109040200010398
:1002000000000009211101000122BC000705840340
:1002100020000A12011001000000085241464F015F
:1002200000010203010660FF0961A10109621500D6
:1002300026FF009520750881020963150026FF003E
:10024000952075089102C005010902A101850209E6
:1002500001A100050919012905150025019505755C
:1002600001810295017503810105010930093115EC
:1002700081257F95027508810609381581257F95AE
:100280000175088106050C0A38021581257F950144
:1002900075088106C0C005010980A1018503190107
:1002A0002AB700150126B700950175108100C00519
:1002B0000C0901A101850419012AA002150126A03B
:1002C00002950175108100C005010906A10185058F
:1002D000050719E029E71500250195087501810238
:1002E0000507190029EF1500250195F07501810218
:1002F00005081901290595057501910295017503F8
:100300009101C005010906A101050719E029E715BA
:100310000025019508750181029501750881010587
:1003200007190029FF150026FF00950675088100B2
:1003300005081901290595057501910295017503B7
:100340009101C00011241FBECFEFDAE0DEBFCDBFA8
:1003500004B603FE27C08091640290916502A091CB
:100360006602B09167028730904BA740B04BD1F442
:100370001092640210926502109266021092670257
:1003800014BE84B7877F84BF0FB6F894A895809178
:100390006000886180936000109260000FBEE0E012
:1003A000F8E3099511E0A0E0B1E0E8E3F9E402C068
:1003B00005900D92AC39B107D9F722E0ACE9B1E074
:1003C00001C01D92A436B207E1F70E94271E0C94CB
:1003D0005F240C9400000C944C06811106C08AEF37
:1003E000611101C089EF0C948A0E0895CF93DF93B9
:1003F0009C013A9521153F4168F5EC01CC27D1705D
:10040000DC01AA27B270AC01442754709C0122275A
:10041000387094FF11C080E1CD2B09F480E0AB2B44
:1004200009F08062452B09F08064232B09F0806875
:10043000FB01DF91CF91099481E0CD2B09F480E09D
:10044000AB2B09F08260452B09F08460232B81F3EC
:100450008860EECFDF91CF910895CF93DF93EC01C9
:10046000805E9109089720F063E071E1209711F414
:100470006DE97EE0CE010E94F6018C2FDF91CF91D5
:100480000C940D0ECF93DF93EC010E945B0ECE0116
:10049000805E9109089720F06AE071E1209711F4DD
:1004A00064EA7EE0CE01DF91CF910C94F601CF9308
:1004B000DF93EC010E942D02CE01DF91CF910C94CD
:1004C000420281E0089581E008950C94630208954A
:1004D0000C9467021F93CF93DF9300D000D00F924C
:1004E000CDB7DEB749835A836B833091AE018981E2
:1004F0009A8131111DC06623B9F02223A9F00E9410
:100500001716182F682F89819A810E94C01569815A
:100510007A81812F0F900F900F900F900F90DF91A5
:10052000CF911F910C943E090E94EE15182FEFCF2A
:100530000E94171669817A81EDCFFC01262F408138
:1005400051816281738184810C946A02CF93DF931D
:10055000EC0160E00E949D02BE01DF91CF910C94FE
:100560006802FF920F931F93CF93DF93E82FF0E081
:10057000E054FF4FF490C82FC695C695C695D0E0BD
:10058000FE01E05BFE4F0491877010E0082E02C070
:10059000159507950A94E2F701701127C05CDE4FAC
:1005A000FE01C491D0E002C0D595C7958A95E2F7C7
:1005B000C170DD270115110519F081EE0E940D0EA5
:1005C000209719F086EE0E940D0E8F2D0E948A0E44
:1005D000CD2B19F086EE0E945B0E012B41F081EECF
:1005E000DF91CF911F910F91FF900C945B0EDF91E3
:1005F000CF911F910F91FF900895EF92FF920F936B
:100600001F93CF93DF93EC01162F0AE08881882394
:1006100009F454C0813009F04EC08981813099F4C9
:100620007E0122E0E20EF11C8A810E948A0EE7011F
:100630002196812F815050F3EFE9FFE03197F1F7D8
:1006400000C00000F7CF823041F47E0182E0E80E66
:10065000F11C8A810E940D0EEACF833041F47E01A5
:10066000E2E0EE0EF11C8A810E945B0EE0CF843046
:1006700011F02196DDCF2A81229690E080E0AE0134
:100680004F5F5F4F2053330B2A30310548F00197FD
:1006900078F2EFE9FFE03197F1F700C00000F7CF03
:1006A000089FB001099F700D1124C901860F971F83
:1006B0002981EA01E4CF0E94B102BACFDF91CF9144
:1006C0001F910F91FF90EF90089560E00C94FD0250
:1006D0008F929F92AF92BF92CF92DF92EF92FF9252
:1006E0000F931F936B017C0181E090E0A0E0B0E0EC
:1006F0004C015D0104C0880C991CAA1CBB1C4A95C6
:10070000D2F7B501A4014C015D0104C0880C991C0D
:10071000AA1CBB1C2A95D2F7482959296A297B298A
:1007200004C0880F991FAA1FBB1F0A95D2F78A0120
:100730009B010C211D212E213F210417150726079F
:10074000370789F48C299D29AE29BF29BC01CD0129
:100750001F910F91FF90EF90DF90CF90BF90AF90DF
:100760009F908F90089580959095A095B0958C213D
:100770009D21AE21BF21EACF0F93382F262F609104
:10078000EC017091ED018091EE019091EF01042F49
:10079000432F0E9468030F910C94FE140E94A1192C
:1007A0000E946417811102C00E9401180E941C0A55
:1007B0000C94EB010C944E06282F2F7041F0822FE1
:1007C00090E02A3010F44D9608950697089587E238
:1007D00090E0089508950C94EA0381E008950C9444
:1007E000ED03CF93C82F0E94EB038C2FCF910C9475
:1007F000EF0308950E9427110E94F9032FEF84E36D
:100800009CE0215080409040E1F700C000000C9433
:100810008E190F931F93CF93DF93EC0161E00E9439
:100820009D028C01BE010E949A07882389F1BE01B6
:10083000C8010E946502882359F1BE01C8010E94C7
:10084000930A882329F1BE01C8010E943C0B88232A
:10085000F9F0BE01C8010E948E0B8823C9F0BE01C9
:10086000C8010E94B10C882399F08A81882339F04D
:1008700001158CE5180751F00E3D1C4579F0CE01AD
:10088000DF91CF911F910F910C9461020E94FA03A6
:1008900080E0DF91CF911F910F9108950E94011880
:1008A000F7CF90E080E008950895FC01EE0FFF1F60
:1008B000E05AFE4F859194910895CF93DF930E9463
:1008C0003E090E947205EC01811520E5920708F0AF
:1008D00042C0811530E4930708F0BDC0883E910501
:1008E00028F5803E910508F09DC0883A910588F46E
:1008F000853A910508F08FC08130910509F492C0C6
:10090000009709F48FC0049708F08CC0D0E0C0E0D5
:1009100089C08F3B910508F489C0805C9109C03C77
:10092000D105A0F30E945504EC017CC081159042D2
:1009300050F4C11581E0D80708F074C0C03FD1055C
:1009400028F3D0656FC0C11590E3D90708F079C0CE
:10095000CE019F70E7CF811525E5920758F58115E7
:1009600034E5930708F0A6C0811542E5940750F4DA
:10097000C11581E5D80708F471C0DC2FCC27C16F01
:10098000D06A50C0982F969596959E012370332774
:10099000C115D34508F07FC0C1E0D0E002C0CC0F44
:1009A000DD1F2A95E2F720E2929FC0011124C82B97
:1009B000D92B6FC0C11589E5D807A8F4C11598E5F2
:1009C000D90708F07CC0C11526E5D20708F09ECFF4
:1009D0008C2F0E940906C82FD0E0DC2FCC27CC2713
:1009E000DF71D0621FC0C1153AE5D30708F46CC0AF
:1009F000CE0190568115904208F088CF8D2F8F71CF
:100A00000E94090690E0982F882788279F719C01F3
:100A10002C2BE901E6CFC55AD0E0CD5BDE4FC88173
:100A2000D0E0D064CE01DF91CF910895C85AD0E0D4
:100A3000CC0FDD1FCB5EDE4F0990D881C02DD46472
:100A4000F1CFCE019927D3FF03C0EC01D86CEACFD8
:100A5000EC01D06CE7CFDF70D06AE4CFCE01E4E0E8
:100A600096958795EA95E1F783702C2F2695269524
:100A7000237090E2299F90011124382B8C2F8370D2
:100A8000C1E0D0E002C0CC0FDD1F8A95E2F7C22B97
:100A9000D32BDC68C7CFC1E0D0E002C0CC0FDD1F94
:100AA0002A95E2F730E2939FC0011124C82BD92B7D
:100AB000DA68B8CFD82FCC27C46FD06AB3CFDC2F79
:100AC000CC27C06FD06AAECF8C2F8F700E940906E2
:100AD00034E0D695C7953A95E1F7CF709C2FEC019D
:100AE000D069A0CF82389105B1F1B0F4813391057E
:100AF00009F475C048F48932910509F469C08A3255
:100B0000910509F473C008958533910509F459C01E
:100B10008933910501F10895833E9105A9F138F4D7
:100B2000803E9105F9F0823E910549F10895863E97
:100B30009105A9F1873E9105C9F1843E910519F50A
:100B40002091560221FF1FC08091550284FD14C0E0
:100B500087EE90E00895209155022370A1F080EE79
:100B600090E008952091550220FD47C03091560233
:100B700030FF09C024FF44C090E080E004C0209111
:100B8000550222FDF7CF08952091550222FD3BC06A
:100B90003091560230FDE3CF24FFF5CFEDCF209109
:100BA000550223FFF0CF24FDE7CFD2CF209155028D
:100BB00023FD2CC03091560231FFEECF84EE90E041
:100BC00008952091550225FFDECF89E290E0089537
:100BD0002091550225FFD7CF85E390E0089520911D
:100BE000550226FFD0CF8AE290E008952091550269
:100BF00026FFC9CF81E390E0089589E390E008954E
:100C000083EE90E0089582EE90E0089586EE90E005
:100C100008959091550292FF06C0282F2871283020
:100C2000F9F4877F846093FF06C0282F287128314C
:100C3000F1F4877E84612091560220FF06C0382F90
:100C400038713830D9F4877F816021FF06C0282FA2
:100C500028712831D1F4877E816194FD877E0895C3
:100C6000282F24712430F9F68B7F8860DCCF282F61
:100C70002471243101F78B7E8861DDCF382F3171EB
:100C8000313019F78E7F8860E0CF282F2171213114
:100C900021F78E7E8861E1CF089508950C944D066A
:100CA000E82FF0E0E55BFD4F808108950895A6E40C
:100CB000B1E041E050E08D918F3F91F0E82FE29557
:100CC000EF70F0E061A18F709A0101C0220F8A9548
:100CD000EAF7922F9095962391A382A1822B82A36B
:100CE00081E0AB34B80739F710924A0210924B02F8
:100CF00081E00E94B9060C94CE03CF93A6E4B1E044
:100D000050E040E030E061E070E02D912F3FA9F02D
:100D1000E22FE295EF70F0E080A190E02F7002C02A
:100D2000959587952A95E2F780FD21C0CB01042E89
:100D300001C0880F0A94EAF7382B4F5F5F4F4530A8
:100D4000510519F780914A02C0E0831719F03093DA
:100D50004A02C1E02C2F41E06BE472E08AE492E0A9
:100D60000E94BA060E94DA038C2FCF91089580E08A
:100D7000E3CF0895FF920F931F93CF93DF93F82E45
:100D8000092F162FD72FC42F222349F081E08093FB
:100D90009E010E94431990939D0180939C01809134
:100DA0009E018823A1F080919C0190919D010E9459
:100DB0005B19069760F0EF2DF02FA12FBD2FCE0FFE
:100DC000DF2FD11DEC17FD0741F410929E01DF913A
:100DD000CF911F910F91FF90089581918D93F2CF44
:100DE0000C94ED018098889A8198899A8FB18170CE
:100DF000799905C090E0892B8093A101089592E034
:100E0000FACFE091A101EE0FEE0FE093A1014FB1F7
:100E1000842F81704FB141FB222720F941FF02C08E
:100E200022E030E0822BE82BE093A101EF70F0E0AC
:100E3000E55BFE4F80819091A001890F8093A00116
:100E400084304CF080919F018F5F80939F0160E020
:100E500080E00E94F0068091A0018D3F4CF48091CB
:100E60009F01815080939F0161E080E00E94F00625
:100E70008091A001837887FF03C081508C6F8F5FC2
:100E80008093A001089582E290E00E941D248132A7
:100E900089F483E290E00E941D24853059F484E2B5
:100EA00090E00E941D2491E0803209F090E0892FAB
:100EB0008170089580E0FCCFCF93C82F6FEF811130
:100EC00061E282E290E00E942B246FEFC11165E0A5
:100ED00083E290E00E942B246FEFC11160E284E274
:100EE00090E0CF910C942B2480E00E945C070C943E
:100EF0005E17089585E290E00E941D24682F70E03F
:100F000090E080E0089585E290E00C942B240E940C
:100F100079070E94430781110CC060E070E0CB01AB
:100F20000E9483070E94C9080E94A00981E00C94D6
:100F30005C070895CF93FB01C281CC2309F19C018A
:100F400022513F452031310520F582510E94B009E0
:100F5000C0E08C2FCF91089581E00E94241543E0DA
:100F600062E081E00E94BC03F3CF81E00E9445155E
:100F700043E062E081E00E94BC03EBCF82E0F6CF69
:100F80008031FFE59F0789F381319F45B9F3C1E0C7
:100F9000E0CF8031EFE59E07F9F281319F45C9F638
:100FA00082E0DBCF2FEFFC01208308951F93CF93C6
:100FB000DF93EC01162FE881E150E33108F050C0D7
:100FC000F0E0EF59FB4D0C94FC23198289E08A83F1
:100FD0000FC08981823099F08330A1F08130B1F463
:100FE0000E944F190E9402246A837B838C839D8315
:100FF000612FCE01DF91CF911F910C941B1D0E9498
:101000007A07F0CF80E00E945006E1CF612FCE0139
:101010000E94D207EDCF89818230C1F76A817B813E
:101020008C819D810E9402240E948307E1CF4B8125
:101030006A8189810E949B089827892798279D8328
:101040008C83D6CF2C813D813227232732274B81B9
:101050006A8189810E94B408CBCF0E94C908C8CF99
:101060008FEF8883C5CF0E944B098983C1CF0E942F
:101070004D099827892798279A838983B9CF6B814F
:1010800070E089819A81AE014C5F5F4F9827892774
:1010900098270E945009ACCF6B8170E089819A81BA
:1010A000AE014C5F5F4F9827892798270E947609E9
:1010B0009FCF0E94A0099CCF0E948A08D6CF6B8147
:1010C00070E089819A81AE014C5F5F4F9827892734
:1010D00098270E94F0088CCF6B8170E089819A81FB
:1010E000AE014C5F5F4F9827892798270E9415090A
:1010F0007FCF0E9474077CCF0E941B1D2FEF81EED3
:1011000094E0215080409040E1F700C000000E9430
:101110008E196ECF82E008959AE050E0440F551F7B
:10112000699F400D511D1124899F400D511D1124AF
:10113000CA01869608950F931F93CF93DF930E9461
:101140008C088C010E941D24C82FD0E0DC2FCC27F6
:10115000C80101960E941D249E01282BC901DF9120
:10116000CF911F910F9108950F931F93CF93DF930A
:10117000122F032F0E948C08EC01602F0E942B2459
:10118000612FCE010196DF91CF911F910F910C94A9
:101190002B240F931F93CF930CEA10E0C0E0F801CB
:1011A000259134914C2F60E080E00E94B4080E5FDE
:1011B0001F4FCF5FC53099F706EB10E0C0E0F80194
:1011C000259134914C2F60E081E00E94B4080E5FBD
:1011D0001F4FCF5FC53099F7CF911F910F910895A1
:1011E000EF92FF920F931F93CF93DF93EC018A014D
:1011F0007C01E60EF71ECE018696CE15DF0539F48A
:10120000DF91CF911F910F91FF90EF900895C4311E
:10121000D10540F40E941D24F80180830F5F1F4F09
:101220002196E9CFF8011082F9CFCF92DF92EF92A9
:10123000FF920F931F93CF93DF937C016A018C0180
:10124000060F171FEC01CE018696C017D10749F48F
:10125000DF91CF911F910F91FF90EF90DF90CF9092
:101260000895C431D10540F4FE01EE19FF09EC0DDB
:10127000FD1D60810E942B242196E5CF462F8230F0
:1012800038F4711105C0653018F460E00C949B08C7
:1012900090E080E0089580E1089586EC93E0089561
:1012A000EF92FF920F931F93CF93DF93EC018A018C
:1012B0007C01E60EF71ECE01CA96CE15DF0539F485
:1012C000DF91CF911F910F91FF90EF900895C63C51
:1012D00023E0D20740F40E941D24F80180830F5FB1
:1012E0001F4F2196E8CFF8011082F9CFCF92DF92FD
:1012F000EF92FF920F931F93CF93DF937C016A01CC
:101300008C01060F171FEC01CE01CA96C017D1073A
:1013100049F4DF91CF911F910F91FF90EF90DF90F3
:10132000CF900895C63C23E0D20740F4FE01EE19A9
:10133000FF09EC0DFD1D60810E942B242196E4CF56
:10134000CF93DF93CAE3D0E060E0CE010E942B246C
:101350002196C11584E0D807B9F7DF91CF910895A0
:10136000DF92EF92FF920F931F93CF93DF9300D002
:1013700000D0CDB7DEB7F82E8FE08F1540F08FEF9D
:1013800093E00E941D240AE310E08823C1F00F902F
:101390000F900F900F90DF91CF911F910F91FF90C1
:1013A000EF90DF900895011584E0180781F3C801DC
:1013B0000E941D24811101C0FA940F5F1F4FF1108C
:1013C000F2CF19821A821B821C82DD24D394780109
:1013D0008FEFE81AF80AC8010E941D2489831A8237
:1013E0008823A9F29FEF980F933078F48A83D982EB
:1013F0000E5F1F4FC7010E941D248B83882339F283
:10140000CE0101960E946503E2CF8701F9CFCF9309
:10141000DF93EC0197FF0CC0FB018281882341F030
:101420000E94320ACE019F770E94760A0E945E0ACD
:1014300081E0DF91CF9108958CE090E00E941D241F
:1014400090E0B0E0A0E080934C0290934D02A09316
:101450004E02B0934F02089560914C028CE090E0F0
:101460000C942B240E94AC16809350020E94BF164D
:1014700080914C02813089F0882359F0823091F0BC
:101480008430B9F08FE39CE90197F1F700C00000C8
:10149000089582EE0E940D0EF5CF88E193E00E9440
:1014A0005702F0CF82EE0E940D0E87E50E948A0E51
:1014B000E9CF86EE0E948A0E88E1F8CF80914C0237
:1014C000813071F0882341F0823031F0843061F056
:1014D000809150020C94BC1682EE0E945B0EF8CFF5
:1014E0008CE20E948A0EF4CF88E2FBCF0F931F9309
:1014F000CF93DF938C01CCE0D0E0C8010C2E02C06A
:10150000969587950A94E2F78F700E94DC030E94FB
:101510008A0E2497CC3F8FEFD80779F7DF91CF91D0
:101520001F910F9108950F931F93CF93DF93EC01B9
:101530008B01FB018281882361F00E94AC16CE01F1
:10154000815E9C458530910520F480934C020E9479
:101550002C0AB801CE01DF91CF911F910F910C940D
:10156000070AAF92BF92CF92DF92EF92FF920F9352
:101570001F93CF93DF937C015B01C42FD22FFC011B
:1015800082818823F9F04093A4010E94431990932B
:10159000A3018093A20180E28C0F883008F061C023
:1015A000C77081E001C0880FCA95EAF7DF91CF913B
:1015B0001F910F91FF90EF90DF90CF90BF90AF9071
:1015C0000C949D0E1091A401141340C08091A201AF
:1015D0009091A3010E945B196C01B701C5010E94A3
:1015E0009D13C816D90690F5C0E2CD0F1D17B9F0AE
:1015F00080E2810F883040F4177081E001C0880FCD
:101600001A95EAF70E94A40EC83048F481E09D2F95
:10161000977001C0880F9A95EAF70E949D0E802F5F
:101620000E948A0EC830E8F4D77081E001C0880FAC
:10163000DA95EAF7DF91CF911F910F91FF90EF902C
:10164000DF90CF90BF90AF900C94A40E80E28C0FEF
:10165000883038F4C77081E001C0880FCA95EAF776
:10166000E9CFDF91CF911F910F91FF90EF90DF9025
:10167000CF90BF90AF9008950F939C01CB01233F73
:101680004CE5340759F1A8F4283DFCE53F0701F18A
:10169000293D4CE53407D1F1273D3C4591F406E264
:1016A00021EE41EE67ED7CE50E94B10A80E00F91EA
:1016B0000895253FFCE53F07E9F0B0F0263F3C45A3
:1016C000F9F0FC018281882339F11092A401EFCF57
:1016D00007E225EE45EE68ED7CE5E6CF06E221EE79
:1016E00040EE63EF7CE5E0CF07E225EE44EE64EFE9
:1016F0007CE5DACF06E221EE42EE65EF7CE5D4CF61
:1017000007E225EE46EE66EF7CE5CECF08E221E06B
:1017100045EE69ED7CE5C8CF81E0C9CFCF93DF937B
:10172000EC01FB018281882309F419C1C230FCE578
:10173000DF07C0F1C6319CE5D90730F09E012A5F72
:101740003C452930310570F50E9477179093560279
:1017500080935502C031ECE5DE0709F4CFC008F0F4
:101760005BC0C8308CE5D80709F4B6C088F5C43032
:10177000ECE5DE0709F4A8C0C0F4C2308CE5D80758
:1017800009F49CC0809155028260C330DC4509F4A5
:1017900098C080915502909156020E9485170E9430
:1017A000271180E0DF91CF910895809155028061EB
:1017B000C630ECE5DE0709F484C0809155028860EC
:1017C000C730DC4508F47DC080915502806279C045
:1017D000CC308CE5D80709F489C070F480915502AB
:1017E0008C60CA30ECE5DE0709F46BC008F478C001
:1017F000809155028E7F65C0CE308CE5D80709F404
:1018000079C0809155028B7FCF30DC4508F459C0F8
:10181000809155028F7E55C0CB3FECE5DE0709F481
:1018200057C030F5C3318CE5D80709F46FC078F4A0
:10183000C131ECE5DE0709F465C0C231DC4509F0D1
:10184000A8CF0E942711809155028F773AC0C531E9
:101850008CE5D80709F462C008F476C0809156027E
:101860008160CA3FDC4509F094CF8093560291CF46
:10187000CF3FFCE5DF0709F44DC088F480915602A4
:101880008D7FCD3F9CE5D90781F3809156028E7FF5
:10189000CE3FDC4550F3809156028360E6CFC130E5
:1018A000FDE5DF0709F459C008F444C080E0C23008
:1018B000DD4509F06ECF0E9403186BCF8091550271
:1018C00081608093550265CF809155028460F9CF85
:1018D000809156028260C9CF809155028064F1CF19
:1018E0000E942711809155028068EBCF80915502AC
:1018F0008D7FE7CF80915502877FE3CF809155029E
:101900008F7DDFCF809155028F7BDBCF8091550299
:10191000837FD7CF809156028C7FA7CF80915502CD
:1019200082FB992790F921E0922790FB82F990FBA6
:1019300083F9C7CF80915602982F909591708E7F32
:10194000892B90FB81F991CF0E942711909155022C
:10195000892F97FB87F98058B4CF81E0ACCF81E025
:1019600021CFCF93DF93EB0186319C4511F50E9487
:10197000AC169A81992399F08A7A91E009F490E063
:101980009093A501811109C089E20E9487160E94E7
:10199000FB1680E0DF91CF91089585E3F6CF80912B
:1019A000A501811104C089E20E948E16F0CF85E363
:1019B000FBCF81E0EFCF9093AB018093AA01089514
:1019C000E091AA01F091AB01309721F00190F081F4
:1019D000E02D099480E00895E091AA01F091AB0117
:1019E000309799F020911401222359F0209155024B
:1019F00027FF07C0DC012C9111962C93119725E04D
:101A00002C930280F381E02D09940895E091AA01BE
:101A1000F091AB01309739F022E0DC012C93048087
:101A2000F581E02D099408952091A8013091A90134
:101A30002817390771F09093A9018093A801E091CC
:101A4000AA01F091AB01309721F00680F781E02DDB
:101A5000099408952091A6013091A701281739070C
:101A600071F09093A7018093A601E091AA01F091F3
:101A7000AB01309721F00084F185E02D09940895A1
:101A800085B7806885BF85B7806885BF089508954C
:101A900008950C94470D08950C944B0D0E94400D31
:101AA0000E94480D0C94490D81E008950C94540D4A
:101AB0000E943A190E9457060E9487070E94B8198F
:101AC0000E94F2060C944C0D0F931F93CF93DF935B
:101AD000CDB7DEB72A970FB6F894DEBF0FBECDBFE5
:101AE0000E947D060E94560D882309F44BC080E0B9
:101AF0000E945006082F1091AD01181709F442C03A
:101B00008091190281FD0E945606912F902780E056
:101B100011E0292F212391F18E831F82012381E07F
:101B200009F480E088870E9443198160782F9A87A2
:101B300089874E815F8168858A850E94DE0D80914C
:101B4000AD0118271093AD010E9401070E94631B8D
:101B50000E94E00C9091AC01891729F10E94E00CE1
:101B60008093AC012A960FB6F894DEBF0FBECDBFAE
:101B7000DF91CF911F910F910C94F1038F5F110FA3
:101B8000853039F68FEF89838A831B820E9443193F
:101B90008160782F9D838C8349815A816B818D81EF
:101BA0000E94DE0DD1CF2A960FB6F894DEBF0FBE8D
:101BB000CDBFDF91CF911F910F910895CF93DF9308
:101BC000CDB7DEB72B970FB6F894DEBF0FBECDBFF3
:101BD0004F83588769877A878B871E821D8285E0AD
:101BE000FE013796DE01119601900D928A95E1F77C
:101BF00049815A816B817C818D819E812B960FB6A4
:101C0000F894DEBF0FBECDBFDF91CF910C94A0132F
:101C1000FC01808191810C945916CF93C82F8823A1
:101C200009F447C08CEF8C0F813AA0F46C2F80919F
:101C30000001909101010E941C18882329F08C2F2B
:101C40000E948E160E94FB168C2F0E948716CF9141
:101C50000C94FB1680E28C0F883048F4C77081E04A
:101C600001C0880FCA95EAF70E94AF16F0CFEBE5E6
:101C7000EC0FE33040F4F0E0E757FE4F808190E056
:101C8000CF910C94140DE8E5EC0FE73150F4F0E03F
:101C9000EE0FFF1FE55AFE4F80819181CF910C948A
:101CA0002A0DC03F30F08C2F0E945D1ACF910C940A
:101CB000481BCF910895882361F19CEF980F913ACA
:101CC00020F40E948E160C94FB1690E2980F983028
:101CD00050F4877091E001C0990F8A95EAF7892F37
:101CE0000E94B516F0CF9BE5980F933020F490E05A
:101CF00080E00C94140D98E5980F973120F490E053
:101D000080E00C942A0D803F20F00E94C51A0C94AC
:101D1000481B0895CF93C82F0E940D0EC93349F474
:101D20002FEF87EE93E0215080409040E1F700C014
:101D300000008C2FCF910C945B0E882321F00E9421
:101D4000AF160C94FB160895882321F00E94B51657
:101D50000C94FB160895BF92CF92DF92EF92FF9200
:101D60000F931F93CF93DF936C01D62FC72FFC01E6
:101D7000058102950F70128111110E94CF160E94E9
:101D8000A516E82E882391F01123D1F08C2F807FA7
:101D9000803421F080E28D0F883090F082E00E9444
:101DA00046170E94A51691E0E82EE926BC2EB294B3
:101DB0009FE0B922EB2DF0E0EC58FB4D0C94FC2396
:101DC000E12CF4CF0C2F0F70C07F11F00295007F33
:101DD0001123A9F0002359F080E28D0F883010F014
:101DE000D11109C0802F0E94AF160E94FB168D2FC3
:101DF0000E940D0E14C0802F0E94C216F6CF8D2FA8
:101E00000E945B0E002359F080E28D0F883010F0A5
:101E1000D1112CC0802F0E94B5160E94FB162B2DCD
:101E20002850330B2430310520F40E94E00C0E942E
:101E3000F103EE2009F49EC10E94A11680FD9AC113
:101E4000F60112820E949B160E942415C6010E9470
:101E5000DB100E949B16DF91CF911F910F91FF9095
:101E6000EF90DF90CF90BF900C944515802F0E948B
:101E7000C816D3CFFC2FFF70FF2EC07FC03219F0E1
:101E8000F29480EFF822DD2369F0D13049F111237B
:101E900091F1002351F1F601858180FFA8CF8F7069
:101EA000858323C0112381F0011106C00E94E21630
:101EB0008F290E949D0EB3CF0130C1F70E94E21618
:101EC0008F290E94E816ABCF011106C00E94F116BF
:101ED0008F2D0E94A40EA3CF013009F4A0CFF6CF1E
:101EE000112329F0063008F09ACF8F2DE2CF05306C
:101EF00008F095CFEDCF002359F3D93349F4FFEF24
:101F000027EE33E0F15020403040E1F700C0000000
:101F10008D2F0E945B0E83CF8C2F869586958370C4
:101F200069F0813009F07BCF8D2F9C2F93701111B8
:101F300002C090E080E00E942A0D71CF8D2F9C2F6F
:101F40009370111102C090E080E00E94140D67CFE1
:101F50008D2F112329F00E945D1A0E94481B5FCF2C
:101F60000E94C51AFACF8C2F837009F041C011115D
:101F700056CF4D2F429546954770440F440F0D2F75
:101F80000F7010E030E020E0042E04C0000F111F9D
:101F9000221F331F0A94D2F760E070E0CB01D4FF18
:101FA0000FC06FE070E080E090E004C0660F771F24
:101FB000881F991F4A95D2F76095709580959095E6
:101FC000C695C695C370602B712B822B932BC230A4
:101FD00049F058F4C13019F00E94D61420CF0E9465
:101FE000C4141DCF0E94E8141ACF0E94C21417CF48
:101FF0008695112311F08C2F8170882309F40FCF5F
:102000004D2F429546954770440F440F0D2F0F708A
:1020100010E030E020E0042E04C0000F111F221F4A
:10202000331F0A94D2F760E070E0CB01D4FF0FC0F9
:102030006FE070E080E090E004C0660F771F881FBB
:10204000991F4A95D2F76095709580959095C695A1
:10205000C695C370602B712B822B932BC23049F035
:1020600058F4C13019F00E949B15D9CE0E948915F1
:10207000D6CE0E94AD15D3CE0E94FE14D0CECF7026
:10208000112329F08C2F0E9424158D2F12CF8D2F14
:102090000E94A40E8C2F0E944515C1CED23F89F11B
:1020A00060F4D03FC9F0D13F29F1112309F442C0B7
:1020B00001119DCE8C2F8F7121C0D33F39F1D43FB8
:1020C000A1F7112369F1CF718C2F0E94241563E0D1
:1020D0008C2F0E943117A3CE112341F0053008F058
:1020E0009ECE8C2F8F710E94681599CE063008F015
:1020F00096CEF7CF8C2F8F71112369F20E94241591
:102100008ECE8C2F8F711123C9F3C5CF112329F0E7
:102110008C2F8F710E940F1582CE0E940A157FCEE0
:1021200081E00E944617023008F479CE82E00E94D6
:10213000461775CE002359F0D93309F0E9CE8FEF59
:1021400097EEE3E081509040E040E1F7DFCE8C2F46
:102150008F71A1CF4C2F4F706D2FC6010E9451047B
:102160000E943A145CCE4C2F4F706D2FC6010E9416
:10217000540455CEDF91CF911F910F91FF90EF90B6
:10218000DF90CF90BF9008950F931F93CF93DF936D
:10219000EC01688179818A810E9463168C010E941A
:1021A000BF150E94C114B801CE01DF91CF911F91DC
:1021B0000F910C94AB0ECF93DF93EC018B819C813C
:1021C000892B29F08881998189238F3F59F4DF91E8
:1021D000CF910895CE010E94C410CE01DF91CF911E
:1021E0000C94A602CE010E9409048111F3CF0E9433
:1021F000A516882361F38A81882349F382E0DF9161
:10220000CF910C944617882321F00E94C2160C949B
:10221000FB160895882321F00E94C8160C94FB1623
:1022200008950E94CF160E94DF160E94FB160E949E
:102230006F1C0E94481B90E080E00E94140D90E00B
:1022400080E00C942A0D0E9495160C9411110E94A6
:10225000BF160C942311E92FE295EF70E250EE3097
:1022600070F4F0E0EC57FB4D0C94FC23803F19F028
:1022700020F4883E20F481E00895843FE1F380E07B
:102280000895883EC0F3813FD1F7F5CF93FB8827AF
:1022900080F908950E9459160C942B11CF93DF9367
:1022A00000D000D00F92CDB7DEB70F900F900F90F7
:1022B0000F900F90DF91CF910895CF93DF9300D0CF
:1022C00000D000D0CDB7DEB726960FB6F894DEBFAB
:1022D0000FBECDBFDF91CF9108951F93CF93DF93B2
:1022E000C091AF0116E08091B0018C1304C0DF9162
:1022F000CF911F910895D0E01C9FF0011D9FF00D1C
:102300001124EF54FE4F4081518162817381848199
:1023100095810E945D112196C770E5CF4091E10142
:102320005091E2016091E3017091E4018091E50137
:102330009091E6010C945D111F93CF93DF938091F0
:10234000E601807FA9F48091E301882389F08091E0
:10235000AF01C091B0016091E1017091E201A091E3
:10236000E401B091E501D62FD72316E0C81304C0CD
:10237000DF91CF911F91089590E0109711F0DF3F0A
:1023800019F401968770F2CF189F9001199F300DB4
:102390001124F901EF54FE4F41814713F2CF4081E0
:1023A0004613EFCF42814111ECCF438154814A1B48
:1023B0005B0B483C510528F78091E6018F708061E6
:1023C0008093E601F901EA54FE4F80818F708061AD
:1023D000808381EE91E00E94DB10DF91CF911F910D
:1023E0000C946D11AF92BF92CF92DF92EF92FF9259
:1023F0000F931F93CF93DF93CDB7DEB761970FB6DF
:10240000F894DEBF0FBECDBF8C0185E0F801DE0180
:102410001D9601900D928A95E1F7F8014081518156
:10242000E28081EEC82E81E0D82E6091E4017091A7
:10243000E5016115710509F461C19091E1012091F7
:10244000E201892F82238F3F09F458C1A380B48011
:10245000F090E301F501E61BF70BFF2009F4FCC047
:102460008091E601382F307FE83CF10508F0B2C0DA
:10247000311179C0FE2C251323C0941321C0E11023
:102480001FC08F7080618093E6010E948E11C6018B
:102490000E94DB108091E601F80185838F2D619603
:1024A0000FB6F894DEBF0FBECDBFDF91CF911F9165
:1024B0000F91FF90EF90DF90CF90BF90AF90089575
:1024C000AB2829F0842F85238F3F09F033C180E0AA
:1024D000F82FF170DF2E80FF3CC08091AF0120917A
:1024E000B00136E0821315C04D875E878D859E85CD
:1024F0000E945916292F22952F702230F0F0243097
:1025000018F59F70F1F0F8019581907FD1F4D12CEE
:102510001EC090E0389FF001399FF00D1124EF5458
:10252000FE4F6181651306C06081641303C0628140
:102530006E110FC001968770D5CF9F7011F0882360
:1025400031F3805E883018F3C8010E94DB10FD2C47
:10255000A5CFEE2009F4A2CF8091E601816080939F
:10256000E601F12C9BCF251306C0941304C0F8019B
:10257000EE2009F48DC04D875E878D859E850E9473
:102580004A11882319F1EE2009F18091E601803289
:1025900070F02091E1013091E20138872F83198694
:1025A000BB86AA868C87CE0107960E94DB1086E048
:1025B000F801A1EEB1E001900D928A95E1F70E9439
:1025C0009C110E948E11FF24F39468CFC8010E94D1
:1025D000DB10F9CF311113C07A2DB98AA88A6E2D7C
:1025E00089890E944E1181EE91E00E94DB1086E005
:1025F000F60111928A95E9F70E948E11B2CF251348
:102600000FC094130DC0E1100BC0F8018583C80101
:102610000E94DB1086E0F60111928A95E9F73ECF21
:102620004D875E878D859E850E944A11882371F2B1
:10263000EE2061F28091E601803208F4B8CF20915B
:10264000E1013091E2013A8329831B82BD82AC8291
:102650008E83CE010196A9CFE83CF10508F041C078
:10266000FE2CEE2009F4B2CF25132AC0941328C003
:102670008091E60180FD1BC0982F907FC1F0F8018A
:102680008583903F31F0982F907F905F8F70892BDA
:102690008583C8010E94DB1086E0F801A1EEB1E05D
:1026A00001900D928A95E1F70E948E11F7CE86E097
:1026B000F801A1EEB1E001900D928A95E1F7EECE1E
:1026C0004D875E878D859E850E944A1181116FCF4F
:1026D0008091E60181608093E601C8010E94DB10D1
:1026E000DDCE7A2DB98AA88A6E2D89890E944E1175
:1026F00086E0F60111928A95E9F7D6CFEE2009F42B
:1027000065CF4D875E878D859E850E944A11F82E84
:10271000882309F45BCF86E0F801A1EEB1E00190D7
:102720000D928A95E1F781EE91E00E94080E0E94D9
:102730009C11BACF81E08E25CBCE88EC90E0089535
:102740001F93CF93DF93CDB7DEB72C970FB6F894D6
:10275000DEBF0FBECDBF4F83588769877A878B87CF
:102760009C87CE0107960E94F211882369F08A8522
:102770009B85892B39F04F815885842F85238F3F86
:1027800009F071C016E05FC086E0FE013796DE01F9
:10279000119601900D928A95E1F78A859B85892B88
:1027A00089F38F81988589238F3F61F32091B00150
:1027B00030E0C9010196877099274091AF01481711
:1027C000190671F40E9427111092B0011092AF0106
:1027D00086E0E1EEF1E0DF011D928A95E9F7D2CFC4
:1027E00096E0929FD001939FB00D1124AF54BE4F3D
:1027F000FE01319601900D929A95E1F78093B00118
:102800000E946D11BFCF819FC00111248F549E4F34
:102810000E94F2118823E9F0E091AF011E9FF001C0
:102820001124EF54FE4F4081518162817381848174
:1028300095810E945D118091AF0190E001968770B3
:1028400099278093AF018091AF019091B0018913D6
:10285000DACF2C960FB6F894DEBF0FBECDBFDF9156
:10286000CF911F91089569857A858B859C850E94FB
:102870005D1188CFEF92FF920F931F93CF93DF9359
:102880008C01892B81F0F12CEE24E394E801219650
:10289000F8018491843770F4843008F05FC081308F
:1028A000B1F08230A1F1DF91CF911F910F91FF9094
:1028B000EF900895853709F44CC008F43DC09CE7BB
:1028C000980F903780F78F770E945B0E49C00E5F9C
:1028D0001F4FFE01849190E2980F983060F487704A
:1028E000FE2D01C0FF0F8A95EAF78F2F0E94D216A6
:1028F0000E94FB1602C00E940D0E8F2D815030F2F7
:10290000EFE9FFE03197F1F700C00000F7CF0E5F6D
:102910001F4FFE01849190E2980F983050F4877019
:10292000FE2D01C0FF0F8A95EAF78F2F0E94D8165F
:10293000DFCF0E945B0EE1CF0E5F1F4FFE01C491FF
:10294000C150D8F28FE99FE00197F1F700C0000075
:10295000F7CF0E5F1F4FFE01F490CFCF0E940D0EF8
:102960008E01CBCF08950C94B2140E94B3146093DF
:10297000F0017093F1018093F2019093F3010C94B4
:10298000111108950C94B5140F931F930091F00149
:102990001091F1012091F2013091F301602B712B24
:1029A000822B932B1F910F910C94B5140F931F93AF
:1029B0000091F0011091F1012091F2013091F301A9
:1029C00060237123822393231F910F910C94B514DC
:1029D0000F931F930091F0011091F1012091F201EA
:1029E0003091F30160277127822793271F910F9160
:1029F0000C94B5140C94B2140C94FA140E94FC14A8
:102A00006093EC017093ED018093EE019093EF01E0
:102A10000C94111160E070E0CB010C94FE140F9344
:102A20001F9341E050E060E070E08A019B0104C028
:102A3000000F111F221F331F8A95D2F7C901B80159
:102A40001F910F910C94FE140F931F9341E050E0DF
:102A500060E070E004C0440F551F661F771F8A9521
:102A6000D2F78091EC019091ED01A091EE01B0912F
:102A7000EF018A019B01082B192B2A2B3B2BC90143
:102A8000B8011F910F910C94FE140F931F9341E016
:102A900050E060E070E004C0440F551F661F771FD0
:102AA0008A95D2F7CB01BA01609570958095909583
:102AB0000091EC011091ED012091EE013091EF01B8
:102AC00060237123822393231F910F910C94FE1492
:102AD0000F931F9341E050E060E070E004C0440FAA
:102AE000551F661F771F8A95D2F78091EC01909150
:102AF000ED01A091EE01B091EF018A019B01082741
:102B000019272A273B27C901B8011F910F910C945F
:102B1000FE140F931F930091EC011091ED01209191
:102B2000EE013091EF01602B712B822B932B1F91C3
:102B30000F910C94FE140F931F930091EC011091D0
:102B4000ED012091EE013091EF016023712382238A
:102B500093231F910F910C94FE140F931F930091D8
:102B6000EC011091ED012091EE013091EF01602711
:102B70007127822793271F910F910C94FE140895BB
:102B8000E92FEE0FEE0F9E0F890F982F977041E0FF
:102B900001C0440F9A95EAF786958695869595E04B
:102BA000899FF0011124E951FE4F30E020E070E0F0
:102BB0005191DF011197CB01022E02C096958795A6
:102BC0000A94E2F7817081958527842385278C9369
:102BD0002F5F3F4F2530310559F70895E92FEE0F4C
:102BE000EE0F9E0F890F982F977086958695869584
:102BF00025E0829FF0011124E951FE4F50E040E0B2
:102C000080E0219130E0092E02C0369527950A9484
:102C1000E2F721703327042E01C0220F0A94EAF74D
:102C2000822B4F5F5F4F4530510559F70895BF9292
:102C3000CF92DF92EF92FF920F931F93CF93DF9388
:102C40008C01C090EC01D090ED01E090EE01F0908D
:102C5000EF018091F0019091F101A091F201B0910A
:102C6000F301C82AD92AEA2AFB2ACFE1D0E0BC2EF8
:102C7000D701C6010C2E04C0B695A79597958795E8
:102C80000A94D2F780FD0EC0219788F7B12C8B2DC6
:102C9000DF91CF911F910F91FF90EF90DF90CF9038
:102CA000BF900895B8018C2F0E945D04019761F3D5
:102CB000EECFCF93DF93EC010E941716BE01DF9198
:102CC000CF910C945D041F93CF93DF93EB01909110
:102CD000AE01992331F0CB01DF91CF911F910C947C
:102CE0005916882379F0CB010E941716182F682FE8
:102CF000CE010E94C015BE01812FDF91CF911F919F
:102D00000C945D04CB010E94EE15182FF4CF682FB0
:102D100080910001909101010C949C18682F809182
:102D20000001909101010C94A718809100019091ED
:102D300001010C94B2188091F401859585958595D3
:102D400008958091F401877008959091F40197702F
:102D500081E009F480E0089580911802089590912F
:102D60001802892B8093180208958095909118027B
:102D70009823909318020895809318020895109252
:102D80001802089590911702892B809317020895D5
:102D900080959091170298239093170208951092AE
:102DA0001702089590911602892B809316020895B8
:102DB0008095909116029823909316020895109290
:102DC000160208958091F501089508950C94E51672
:102DD0009091F501981721F08093F5010C94E61677
:102DE00008958091F501882329F01092F50180E083
:102DF0000C94E6160895E0910001F0910101809194
:102E000018028083E0910001F0910101808190918E
:102E10001702892B8083E0910001F09101018081EC
:102E200090911602892B80839091F501992381F06E
:102E3000E0910001F09101018081892B80838091D4
:102E40000001909101010E94081881110E94F11661
:102E500080910001909101010C94EC0C08950C9468
:102E60002E1798E0899F90011124622B6093F40142
:102E70000E9424158091F4018595859585950C9483
:102E80002F171092F40180E00C942F179091F40109
:102E9000809589238093F401282F277071F4282FBF
:102EA000082E000C330B9217130639F08595859583
:102EB00085950E9445150C94411708956FEF7FEF9B
:102EC00090E080E00C94492490E080E00E9425246A
:102ED00021E08C3E9E4F09F020E0822F089582E091
:102EE00090E00C941D2483E090E00C941D24CF937B
:102EF00084E090E00E941D24C82F81E290E00E94AF
:102F00001D24982F8C2FCF910895CF93C92F682F10
:102F100084E090E00E942B246C2F81E290E0CF911E
:102F20000C942B24AB01BC018FE090E00C943D2469
:102F3000AB01BC0183E190E00C943D2460E070E0C3
:102F4000CB010C94981760E070E0CB010E949217BF
:102F50000C949E176CEE7EEF90E080E00E94492476
:102F600060E082E090E00E942B2460E083E090E04B
:102F70000E942B241092F0011092F1011092F201A4
:102F80001092F30160E084E090E00E942B2460E066
:102F900081E290E00E942B2460E085E090E00E94B6
:102FA0002B2460E086E090E00E942B246FEF87E006
:102FB00090E00E942B2440E050E0BA0188E090E0CD
:102FC0000E943D2460E08DE090E00E942B2440E0D0
:102FD00050E0BA0188E190E00E943D2460E087E182
:102FE00090E00E942B2440E050E0BA018CE190E098
:102FF0000E943D2460E080E290E00E942B240C942B
:10300000A3170C94AA17682F8EE090E00C942B2441
:10301000FC01329680911401882321F080915502A1
:103020009EE187FF96E080E0915008F40895219199
:103030002223D1F38F5FF8CF662301F12091140191
:103040002223F1F02091550227FF1AC0462F469502
:10305000469546954E3190F4677021E030E002C00D
:10306000220F331F6A95E2F7840F911DFC018281C4
:1030700090E02823392381E0232B69F480E0089530
:10308000FC01329608962191261721F0E817F907DE
:10309000D1F7F4CF81E008959C01FC0132969FEFB7
:1030A00080E04191461751F09F3F19F4411101C052
:1030B000982F8F5F8630A9F79F3F09F40895290F55
:1030C000311D97FD3A95F90162830895FC0132960E
:1030D00008962191261303C0DF0111971C92E8176F
:1030E000F907B9F70895E62FE695E695E695EE31EE
:1030F00068F4E80FF92FF11D677021E030E001C09E
:10310000220F6A95EAF78281822B82830895E62F47
:10311000E695E695E695EE3170F4E80FF92FF11D8E
:10312000677021E030E001C0220F6A95EAF7209530
:10313000828128232283089520911401222329F0DB
:103140002091550227FD0C9473180C944C18209173
:103150001401222329F02091550227FD0C94871891
:103160000C946618FC01329680911401882351F06A
:103170008091550287FF06C08EE1DF011D928A957E
:10318000E9F7089586E0F9CF089508950C94C518DD
:103190000E94C61880915B02843049F110921A0295
:1031A00088E190E020E40FB6F894A8958093600041
:1031B0000FBE2093600080E00E94F1030E94C618B9
:1031C00083B7817F846083BF83B7816083BF789436
:1031D000889583B78E7F83BF0FB6F894A8958091AA
:1031E0006000886180936000109260000FBE0895B7
:1031F00008950E94C4180E947D060E94F81880E07D
:103200000E94500691E0811101C090E0892F08953D
:1032100008950C9408190E9427110E94E00C0E9446
:10322000F1030C9409191F921FB61F9211248F935A
:103230009F93AF93BF9380911A02811113C0809125
:10324000510290915202A0915302B09154024196C2
:10325000A11DB11D8093510290935202A09353027D
:10326000B0935402BF91AF919F918F911F901FBE59
:103270001F90189582E084BD93E095BD9AEF97BDAD
:1032800080936E0008952FB7F89480915102909129
:103290005202A0915302B09154022FBF08952FB74C
:1032A000F894609151027091520280915302909172
:1032B00054022FBF08959C014FB7F894809151029A
:1032C00090915202A0915302B09154024FBF821BC1
:1032D000930B089578941F921FB61F9211248F9319
:1032E0009F93AF93BF938091510290915202A0910E
:1032F0005302B09154020196A11DB11D8093510259
:1033000090935202A0935302B0935402BF91AF9195
:103310009F918F911F901FBE1F90189587E797E789
:10332000909301088093000888E19AE00FB6F89422
:10333000A895809360000FBE90936000FFCF0C941F
:1033400074070E947D062FEF86E791E021508040B0
:103350009040E1F700C000000E947D0680E00E94DE
:10336000500680FF04C00E949F190C948E19089586
:103370000E946417811102C00E9401180E946F17F9
:10338000809319020E9477179093560280935502FA
:103390000E947317682F70E090E080E00E94C214D2
:1033A0006091EC017091ED018091EE019091EF013F
:1033B0000C94FC148091210280FF12C060910701DF
:1033C00085E0689FB001112475956795759567959F
:1033D00060387105A8F561157105A1F1862F089572
:1033E00081FF09C06091070185E0689FB001112449
:1033F00075956795EDCF6091070182FD0AC08091B8
:1034000020028823D1F0909106016091070189176D
:1034100028F085E0689FB0011124DACF869FB001C3
:10342000112485E0869F9001879F300D1124692F1C
:1034300070E0C9010E94E823CBCF65E070E0CECFF9
:103440008FE7089581E008958091210280FF0CC0EC
:103450006091030170E075956795759567956115A5
:10346000710549F1862F089581FF06C0609103011F
:1034700070E075956795F3CF6091030182FD0BC0F5
:1034800090911F029923A1F06091020180910301A4
:10349000961738F0682F70E06038710500F38FE7F9
:1034A0000895899FC001112470E00E94E823F4CFA1
:1034B00061E070E0D7CF81E00895803F31F40E9451
:1034C000DA198195809325020895813F19F40E94AD
:1034D000DA19F8CF823F31F40E94DA19819580938E
:1034E00024020895833F19F40E94DA19F8CF893F26
:1034F00029F40E94241A8093260208958A3F21F419
:103500000E94241A8195F7CF8B3F31F40E94241A30
:1035100081958093270208958C3F19F40E94241A04
:10352000F8CF843F31F4809123028160809323029D
:103530000895853F21F4809123028260F7CF863F72
:1035400021F4809123028460F1CF873F21F48091A0
:1035500023028860EBCF883F21F4809123028061B1
:10356000E5CF8D3F31F4809121028160809321026B
:1035700008958E3F21F4809121028260F7CF8F3F22
:10358000B9F7809121028460F1CF90912402803FAD
:1035900059F48091250287FF0DC0109225029111E8
:1035A0000BC01092200208C0813F81F48091250257
:1035B00018169CF3992381F080912602909127029E
:1035C000892B09F064C010921F020895823F49F4CC
:1035D00097FFF0CF10922402809125028111ECCF49
:1035E000E0CF833F19F41916ACF3E4CF2091260203
:1035F000893F29F41216F4F610922602DBCF8A3F97
:1036000019F427FFD7CFF8CF209127028B3F29F459
:1036100027FFD0CF10922702CDCF8C3F19F412167E
:10362000CCF3C8CF843F31F4809123028E7F809306
:103630002302C0CF853F21F4809123028D7FF7CFF5
:10364000863F21F4809123028B7FF1CF873F21F4C5
:1036500080912302877FEBCF883F21F48091230262
:103660008F7EE5CF8D3F31F4809121028E7F809354
:103670002102A0CF8E3F21F4809121028D7FF7CFD0
:103680008F3F09F097CF809121028B7FF0CF089573
:103690000E9443199C019091240280912502982B4D
:1036A00021F030931E0220931D02909126028091FA
:1036B0002702982B21F030931C0220931B0282E2F8
:1036C00092E00C94060DEF92FF920F931F93CF930D
:1036D000DF9300D000D000D0CDB7DEB786E0E2E2C5
:1036E000F2E0DE01119601900D928A95E1F7E090EB
:1036F0002402F090250200912602109127021092D8
:1037000024021092250210922602109227028E2D7A
:103710008F2991F080911D0290911E020E945B19E9
:10372000AC0190912002992309F43FC080910801D7
:103730008417150608F447C0802F812B91F08091E3
:103740001B0290911C020E945B19AC0190911F0218
:10375000992309F477C0809104018417150608F4B1
:103760007FC08091240290912502892B909126029E
:10377000892B90912702892B11F00E94481B86E02B
:10378000FE013196A2E2B2E001900D928A95E1F736
:1037900026960FB6F894DEBF0FBECDBFDF91CF9156
:1037A0001F910F91FF90EF900895209109018AE0F9
:1037B000289F900111242417350708F0BDCF9F5F83
:1037C0009093200202C09F3FD1F7EE2059F00E9453
:1037D000DA199FEF1E140CF491E0899F802D1124BB
:1037E00080932402FF2059F00E94DA199FEF1F14E2
:1037F0000CF491E0899F802D112480932502309153
:103800002402332309F498CF20912502222309F4BE
:1038100093CF45EB3403C0011124992359F09093C1
:10382000240245EB240390011124332339F0309313
:10383000250282CF81E080932402F3CF81E0809340
:1038400025027ACF209105018AE0289F900111245A
:103850002417350708F085CF9F5F90931F0202C0A1
:103860009F3FD1F7002359F00E94241A9FEF1016B2
:103870000CF491E0899F802D11248093260211235E
:1038800059F00E94241A9FEF11160CF491E0899FC1
:10389000802D11248093270230912602332309F4CE
:1038A00060CF20912702222309F45BCF45EB34033C
:1038B000C0011124992359F09093260245EB24036B
:1038C00090011124332339F0309327024ACF81E04D
:1038D00080932602F3CF81E08093270242CF86E0D7
:1038E000E2E2F2E0DF011D928A95E9F710922002F0
:1038F00010921F02109221020895809148020895AB
:10390000CF93DF9300D00F92CDB7DEB790915B02DB
:10391000943011F589837B836A839093E9008FEF5C
:103920009091E800815095FD06C095ED9A95F1F7CC
:1039300000008111F5CF8091E80085FF0DC050E0B7
:1039400040E063E070E0CE0101960E94081F809184
:10395000E8008E778093E8000F900F900F90DF9132
:10396000CF910895BC0184E00C94801CBC0183E0DD
:103970000C94801C9C0184E08093E9009FEF80916F
:10398000E800915085FD06C085ED8A95F1F70000AD
:103990009111F5CF8091E80085FF0CC050E040E028
:1039A00066E070E0C9010E94081F8091E8008E77F0
:1039B0008093E8000895CF93DF93EC018091140188
:1039C0008823B1F18091550287FF32C060E284E024
:1039D0008093E9008FEF9091E800815095FD06C03B
:1039E00095ED9A95F1F700008111F5CF8091E800EF
:1039F00085FF1BC08091140170E050E040E0811110
:103A000004C050E040E068E070E0CE010E94081F72
:103A10008091E8008E778093E80080E2FE01A8E2C2
:103A2000B2E001900D928A95E1F7DF91CF91089570
:103A300068E081E0CDCFCF93FC01603221F5809129
:103A40005B02843001F5C091E900CF702091EC0059
:103A5000922F917020FD90E8C92B82E08093E900BD
:103A60008091E80080FF0CC050E040E060E270E030
:103A7000CF010E94081F8091E8008E778093E800B4
:103A8000CF70C093E900CF91089580915A028111BF
:103A900009C00E94E7200E9444218091E2008460D6
:103AA0008093E200089510925A02089508950895AF
:103AB0000C940B1942E061EC81E00E94632042E229
:103AC00061EC84E00E94632042E261EC82E00E94AB
:103AD000632042E260EC83E00C94632080915D02FD
:103AE000833009F461C030F48130D1F1823009F4BF
:103AF0009DC008958A3009F489C08B3009F46FC0E5
:103B0000893009F050C080915C02813209F04BC0CD
:103B10008091600290916102009719F0029709F07C
:103B200042C08091E800877F8093E8008091E800A0
:103B300082FF35C09091F3008091F200029729F442
:103B40008091F1008B7F813021F48091F10080938E
:103B500048028091E8008B778093E8000C949720CE
:103B600080915C02813AF9F48091E800877F80932C
:103B7000E8008091600290916102892B61F460E21B
:103B800088E292E070E00E94A61F8091E8008B77A7
:103B90008093E800089560E090E080E0F3CF8091AA
:103BA0005B028111C3CF089580915C02813AD9F7FD
:103BB0008091600290916102892BA9F78091E800C1
:103BC000877F8093E8008091E80080FFFCCF8091A0
:103BD00014018093F1008091E8008E77BDCF809131
:103BE0005C02813201F78091600290916102892B21
:103BF000D1F68091E800877F8093E8000E949720AB
:103C000080915E02809314010C94271180915C02D4
:103C1000813249F68091E800877F8093E8000E9416
:103C2000972080915F0280934902089580915C0201
:103C3000813A09F0B8CF8091E800877F8093E8004F
:103C40008091E80080FFFCCF80914902C2CFCDB7C0
:103C5000DEB7A0970FB6F894DEBF0FBECDBF84B716
:103C6000877F84BF0FB6F894A89580916000886123
:103C700080936000109260000FBE80E890E00FB665
:103C8000F89480936100909361000FBE0E944E0DE6
:103C90000E94E7200E9444218091E200846080938A
:103CA000E20078940E94CD230E94580D8AE091E0B2
:103CB0000E94DB0C13E080915B02853039F10E9499
:103CC000640D80915B028430B1F71093E90080911C
:103CD000E80082FFF0CF8091E80090E085FF09C006
:103CE00050E040E060E270E0CE0101960E94571F74
:103CF00091E08091E8008B778093E8009923D9F2D6
:103D000060E2CE0101960E94D607D5CF0E94C81866
:103D100080915902882379F20E94F918882359F278
:103D20000E94F21EC8CF0C94951E292F33272330F2
:103D3000310521F168F42130310509F449C0223000
:103D4000310509F44AC090E080E030E020E029C06D
:103D50002132310581F122323105A9F76330710535
:103D600090F7FB01EE0FFF1FE157FE4F20813181DD
:103D700064577E4FFB01808190E013C0992781300A
:103D8000910599F0009741F08230910589F00397F1
:103D9000D1F6E0E6F1E002C0E4EBF1E0849190E0DE
:103DA0009F01FA01318320830895EEE8F1E0F6CF18
:103DB000E6E6F1E0F3CF6330710528F6660F771F72
:103DC000FB01EB56FE4F2081318189E090E0E9CF85
:103DD00082E190E023E132E0E4CF8BE590E028EB54
:103DE00031E0DFCF80E189BD82E189BD09B400FE09
:103DF000FDCF8091D8008F7D8093D8008091E00026
:103E000082608093E0008091E00081FDFCCF089506
:103E1000AF92BF92CF92DF92FF920F931F93CF93F7
:103E2000DF936C01EB018A010E94B620F82E81110C
:103E300023C00115110539F0F80180819181C81B5B
:103E4000D90BC80ED91EB12CA12C2097A9F08091B6
:103E5000E80085FD22C08091E8008E778093E8001D
:103E600001151105A1F0F80180819181A80EB91EFC
:103E7000B182A08285E0F82E8F2DDF91CF911F9126
:103E80000F91FF90DF90CF90BF90AF9008950E9468
:103E9000B6208823D1F2F82EEFCFF60181916F0181
:103EA0008093F1002197FFEFAF1ABF0ACECFAF92F8
:103EB000BF92CF92DF92FF920F931F93CF93DF9326
:103EC0006C01EB018A010E94B620F82E811123C0FB
:103ED0000115110539F0F80180819181C81BD90BBA
:103EE000C80ED91EB12CA12C2097A9F08091E80012
:103EF00085FD22C08091E8008B778093E800011552
:103F00001105A1F0F80180819181A80EB91EB1823E
:103F1000A08285E0F82E8F2DDF91CF911F910F9118
:103F2000FF90DF90CF90BF90AF9008950E94B62091
:103F30008823D1F2F82EEFCF8091F100F601819322
:103F40006F012197FFEFAF1ABF0ACECFFC0180911E
:103F500062029091630286179707A0F061157105C0
:103F600029F49091E8009E779093E80090E0611525
:103F7000710551F4911108C08091E80082FF34C0AE
:103F800080E00895BC01F2CF80915B028823C1F1EB
:103F90008530C1F18091E80083FD30C08091E80058
:103FA00082FDEACF8091E80080FFE1CF8091F300AD
:103FB0002091F200382F6115710519F02830310574
:103FC00058F091E02830310509F090E02091E800A8
:103FD0002E772093E800CBCF81918093F100615040
:103FE00071092F5F3F4FE7CF80915B02882341F03B
:103FF000853041F08091E80083FFBECF81E00895D5
:1040000082E0089583E00895FC018091620290911E
:10401000630286179707A0F06115710529F4809156
:10402000E8008E778093E80090E06115710551F407
:10403000911108C08091E80082FF35C080E00895AA
:10404000BC01F2CF80915B028823C9F18530C9F1B0
:104050008091E80083FD31C08091E80082FDEACFC5
:104060008091E80080FFE1CF8091F3002091F20081
:10407000382F6115710519F02830310558F091E09D
:104080002830310509F090E08091E8008E77809328
:10409000E800CBCF84918093F10031966150710993
:1040A0002F5F3F4FE6CF80915B02882341F0853040
:1040B00041F08091E80083FFBDCF81E0089582E068
:1040C000089583E00895982F973028F08F7080939B
:1040D000E90081E008959093E900242F762F50E0C5
:1040E000981731F07091EC002091ED005091F000A4
:1040F00021FD02C09F5FE8CF3091EB003E7F3093FF
:10410000EB003091ED003D7F3093ED003091EB00FE
:1041100031603093EB007093EC002093ED005093EE
:10412000F0002091EE0027FDE5CF80E0089580911A
:104130005C0287FF13C08091E80082FF06C0809177
:10414000E8008B778093E80004C080915B028111C6
:10415000F2CF089580915B028823D9F38091E80023
:1041600080FFF8CF8091E8008E77ECCF2091E400BB
:104170003091E50095E6A9012091EC00822F817035
:1041800020FF06C08091E80080FF06C080E008950F
:104190002091E80022FD1AC080915B02882389F0FB
:1041A000853089F08091EB0085FD0FC02091E400FF
:1041B0003091E50042175307F9F29150E1F684E09F
:1041C000089582E0089583E0089581E008950E94B3
:1041D00055210E945D21E0EEF0E0808181608083C6
:1041E000E8EDF0E080818F77808319BCA7EDB0E027
:1041F0008C918E7F8C9380818F7E808310925A0267
:1042000008950F931F93CF93DF930E9455210E942F
:104210005D21C8EDD0E088818F77888388818068B0
:10422000888388818F7D888319BC10925B021092ED
:104230005702109259021092580200EE10E0F80155
:1042400080818B7F808388818160888342E060E009
:1042500080E00E946320E1EEF0E080818E7F808329
:10426000E2EEF0E0808181608083808188608083DD
:10427000F80180818E7F8083888180618883DF91CF
:10428000CF911F910F910895E8EDF0E080818F7E2E
:104290008083E7EDF0E080818160808384E082BFED
:1042A00081E080935A020C940121E8EDF0E08081D6
:1042B0008E7F80831092E20008951092DA001092AF
:1042C000E10008951F920F920FB60F9211242F93C1
:1042D0003F934F935F936F937F938F939F93AF938E
:1042E000BF93EF93FF938091E10082FF0BC0809119
:1042F000E20082FF07C08091E1008B7F8093E100A4
:104300000E94CC238091DA0080FF19C08091D800F0
:1043100080FF15C08091DA008E7F8093DA00809153
:10432000D90080FF96C080E189BD82E189BD09B4D2
:1043300000FEFDCF81E080935B020E94451D8091CD
:10434000E10080FF19C08091E20080FF15C08091DC
:10435000E2008E7F8093E2008091E2008061809392
:10436000E2008091D80080628093D80019BC85E07B
:1043700080935B020E94571D8091E10084FF2BC057
:104380008091E20084FF27C080E189BD82E189BD80
:1043900089B5982F917080FFFBCF8091D8008F7DD9
:1043A0008093D8008091E1008F7E8093E10080911E
:1043B000E2008F7E8093E2008091E2008160809332
:1043C000E20080915702882309F449C084E0809379
:1043D0005B020E94581D8091E10083FF29C08091FB
:1043E000E20083FF25C08091E100877F8093E10098
:1043F00082E080935B02109257028091E1008E7FF1
:104400008093E1008091E2008E7F8093E2008091B2
:10441000E20080618093E20042E060E080E00E9480
:1044200063208091F00088608093F0000E94561D08
:10443000FF91EF91BF91AF919F918F917F916F917C
:104440005F914F913F912F910F900FBE0F901F9052
:10445000189519BC10925B020E94531D70CF809179
:10446000E30087FD93E090935B02B3CF1F920F921E
:104470000FB60F9211242F933F934F935F936F9337
:104480007F938F939F93AF93BF93CF93DF93EF93DC
:10449000FF93D091E900DF708091EC00C82FC170CC
:1044A00080FDC0E81092E9008091F000877F809342
:1044B000F00078940E947A221092E9008091F00036
:1044C00088608093F000CD2BCF70C093E900FF91FE
:1044D000EF91DF91CF91BF91AF919F918F917F919C
:1044E0006F915F914F913F912F910F900FBE0F9061
:1044F0001F9018951F93CF93DF93CDB7DEB7AA9780
:104500000FB6F894DEBF0FBECDBF8CE592E02091D0
:10451000F100FC012193CF01F2E084369F07B9F747
:104520000E946E1D8091E80083FF1EC180915C0295
:1045300090915D029A3008F017C1E92FF0E0EE5635
:10454000FB4D0C94FC23803899F0823809F00CC1A3
:10455000809160028F70873008F006C18093E90077
:104560008091EB0085FB882780F91092E90006C056
:104570008091580290915902911182609091E800C7
:10458000977F9093E8008093F1001092F100809162
:10459000E8008E77E5C0882309F4D3C0823009F0A3
:1045A000E3C080915E028111D6C0809160028F705D
:1045B0002FEF280F263008F0D7C08093E900209114
:1045C000EB0020FFC8C0933031F48091EB00806293
:1045D0008093EB00C0C09091EB0090619093EB0052
:1045E00021E030E001C0220F8A95EAF72093EA002B
:1045F0001092EA008091EB008860EACF8111B4C08C
:1046000010915E021F778091E3008078812B809368
:10461000E3008091E800877F8093E8000E94972064
:104620008091E80080FFFCCF8091E3008068809358
:10463000E30082E0111183E080935B0295C0805813
:10464000823008F091C080915E0290915F028C3DB3
:1046500023E09207A1F583E08A838AE289834FB73A
:10466000F894DE01139620E03EE051E2E32FF0E003
:1046700050935700E49120FF03C0E295EF703F5F35
:10468000EF708E2F90E0EA30C0F0C7968D939D9327
:104690002F5F243159F74FBF8091E800877F8093C7
:1046A000E8006AE270E0CE0101960E94A61F8091A8
:1046B000E8008B778093E80057C0C096E7CF609101
:1046C000600270916102AE014F5F5F4F0E94931EC6
:1046D000BC01892B09F448C09091E800977F909322
:1046E000E80089819A810E940420E1CF8038E1F5B9
:1046F0008091E800877F8093E80080915702809343
:10470000F10045CF811130C090915E02923060F58A
:104710008091E800877F8093E800909357020E9481
:10472000972080915702882311F084E005C0809182
:10473000E30087FDFACF81E080935B020E945A1D5F
:1047400013C080915E02813079F481E0933009F0EA
:1047500080E0809359021092E9008091E800877F01
:104760008093E8000E9497208091E80083FF0AC0B0
:104770008091E800877F8093E8008091EB00806261
:104780008093EB00AA960FB6F894DEBF0FBECDBFA4
:10479000DF91CF911F9108950895CF9380915B028F
:1047A0008823A1F0C091E900CF709091EC00892F8F
:1047B000817090FD80E8C82B1092E9008091E8009C
:1047C00083FD0E947A22CF70C093E900CF910895B3
:1047D00097FB072E16F4009407D077FD09D00E94AE
:1047E000092407FC05D03EF4909581959F4F0895CC
:1047F000709561957F4F0895EE0FFF1F0590F4911E
:10480000E02D099469279627692778278727782735
:104810000895AA1BBB1B51E107C0AA1FBB1FA61707
:10482000B70710F0A61BB70B881F991F5A95A9F759
:1048300080959095BC01CD010895F999FECF92BD68
:1048400081BDF89A992780B50895A8E1B0E042E0CB
:1048500050E00C945124262FF999FECF92BD81BDD2
:10486000F89A019700B4021639F01FBA20BD0FB6AE
:10487000F894FA9AF99A0FBE08950396272F0E948A
:104880002C240E942B24252F0E942C24242F0C94AE
:104890002C240196272F0E942C240C942B24DC011D
:1048A000CB01FC01F999FECF06C0F2BDE1BDF89A3B
:1048B000319600B40D9241505040B8F70895F894E5
:1048C000FFCFE507E9070B08170822082D08300875
:1048D0003008300879087C08330837083F084C084E
:1048E00059085C085F086C08E20EE20E3A0F3A0FB6
:1048F0008C0FA80F0F0F0F0FB30F3F104E104E105D
:10490000AA100F0F0F0FB310361136113F113F11C0
:1049100041113F113F113F113611361146113F1120
:104920003F114611A322CB22B423CB22B423FE2273
:084930001F23B4237623822328
:10493800F6012808641E140A321E7D1CDB1CBA1CF2
:10494800B61CB21C01E200E900EA00B500B600B7E7
:1049580000CD008301CC008A019201940121022339
:104968000224022502260227022A02B300B4006F9D
:10497800007000818283673796F5F700FF01000118
:104988000000FFFF0000010001FF00E200E900EA6B
:1049980000B500B600B700CD008301CC008A0192B3
:1049A8000194012102230224022502260227022A59
:1049B80002B300B4006F0070008182834022BC0300
:0C49C8000325024702CA01E301030200BC
:00000001FF
