:100000000C941A040C9452040C9452040C94520450
:100010000C9452040C9452040C9452040C94520408
:100020000C9452040C9452040C94902B0C944C2B72
:100030000C948D2C0C9452040C9452040C94520485
:100040000C9452040C9452040C9452040C945204D8
:100050000C9452040C94692C0C9452040C94520489
:100060000C9452040C9452040C9452040C945204B8
:100070000C9452040C9452040C9452040C945204A8
:100080000C9452040C9452040C9452040C94520498
:100090000C9452040C9452040C9452040C94520488
:1000A0000C9452040C9452040C94520405010980DF
:1000B000A101850319012AB700150126B700950192
:1000C00075108100C0050C0901A101850419012AE0
:1000D000A002150126A002950175108100C005013E
:1000E0000906A1018506050719E029E71500250184
:1000F0009508750181020507190029EF15002501F2
:1001000095F075018102050819012905950575010C
:100110009102950175039101C00660FF0961A1017B
:100120000962150026FF00952075088102096315F4
:100130000026FF00952075089102C005010906A15F
:1001400001050719E029E7150025019508750181CA
:10015000029501750881010507190029FF15002680
:10016000FF00950675088100050819012905950508
:1001700075019102950175039101C0000000000016
:10018000000000000000000000000000000000006F
:100190000000000000000000000000000000007EE1
:1001A0000F00D4FFFFFFC700000078000000000030
:1001B0000000002A2B2800000000000000000000C2
:1001C00000000000000029000000002C1E34202147
:1001D0002224342627252E362D3738271E1F20218E
:1001E00022232425263333362E37381F04050607ED
:1001F00008090A0B0C0D0E0F101112131415161707
:1002000018191A1B1C1D2F3130232D350405060724
:1002100008090A0B0C0D0E0F1011121314151617E6
:1002200018191A1B1C1D2F3130354CFD377A585ABE
:10023000000004E6D6B44602002101160000007456
:100240002FE5A3E00831023B5D003D8889C65436A6
:10025000C3174FE4FC5457B62529ADCB459BD308B3
:10026000DA8AB9AE857A15C72DFD1DC3E0B91F1412
:10027000388EE7CCAAD926A94FE07711345CDA474B
:10028000BBDB8C53358C8ECC77676E88B1D163AE77
:10029000BEB1A6319EE6873B70AE0805A3E09C2E5A
:1002A0003E14B839E09304E1029FF2F54501A92814
:1002B000445B60A38AB44A975D6F56D0DB517C697A
:1002C0007DBEE82DFF96ED08465D7BF73D2CD34AB9
:1002D0004D7722F8C4E1F7323E7ED911FB8B81EBDA
:1002E000767CB69B72002F6996489DCC1A98A659C9
:1002F0006F7A8B792F52F20C0A0546B70F2941F914
:10030000261CD7FE4F8433922F0E96CF1C04E6C9CD
:10031000FDC27673AF6A730E18A9C4C40D420857A4
:100320001CD4EC412CC824BAECADF43E411D4D6503
:10033000057E69B61193285D1BE181F9270B7DB716
:1003400007A2336524F75320E3B2D2FEDD227FD724
:10035000C12173AA36B7A81DC9F3EF228C801729D3
:1003600064D13F4764A8AA13AD36E66D6192C9C750
:10037000FBC7F6BF87D320CA400EA322E619F67D3D
:100380008201F323F7B6639FE62E66F0105409D876
:10039000349E30A8C9D05CCB3889305A0E0E192F44
:1003A0007704DEF46684F254BDA388BB2F915727EF
:1003B0001C2BDFA667C874F816F719466329379512
:1003C00005CC6F68F270E648B33A6FA62105CFD22C
:1003D000992557287DB9CD9376C7ABE17CD35BF7E0
:1003E00067BAB71BFB12CCAA3C1EC908B5E148EBA3
:1003F0007DC2BB509D71462390AB3B45E73AB69911
:100400001CE30F780F9EB24C223CA22C2139F06ADB
:1004100022699F91438598EF6D11687E47B8BB288C
:10042000E89F10E0049CC1315282EBF5CB3F522D86
:10043000C38BC69EFEE5503B9AF1FFE5A17CCBDE67
:100440004D071C06B66D6D9C3C9E76BE3AD967770B
:1004500033D0AA4D5A0C4E2C232564451F1F55F549
:100460009FB416F6DE01E8F10D88FCE78B2D1C45E4
:10047000DAE031FBF43118F25643F40297DD4CD147
:100480009D422874270000B28764BAF99A4829006F
:1004900001D704B2100000EB7BB392B1C467FB023A
:1004A0000000000004595A290020001F001E0021EE
:1004B00000220023002400250026002E002D002706
:1004C000002A002B0014001A000800150017001C59
:1004D0000018000C00120013002F0030003100390A
:1004E0000004001600070009000A000B000D000EB2
:1004F000000F003300340028004C00E10000001D14
:10050000001B00060019000500110010003600371E
:10051000003800E5000151E000E300E2002C00009B
:100520000000000000000000000000E600E70001FD
:1005300051E40035003C003B003A003D003E003FE6
:10054000004000410042004500440043004C003997
:1005500000010052000100010001000100010049FA
:100560000001004600470048000100010050005112
:10057000004F000100010001000100010001004ADC
:10058000004B000100010001000100010001000119
:100590000001000100AA00A900A8004D004E0001C2
:1005A0000001000100010001000100000000000046
:1005B0000000000000000001000100010001000136
:1005C0000001000100010001000100010001000123
:1005D0000001000100010001000100010001000113
:1005E0000001000100010001000100010001000103
:1005F00000010001000100010001000100010001F3
:1006000000010001000100010001000100010001E2
:1006100000010001000100010001000100010001D2
:1006200000010001000100010001000100010001C2
:1006300000010001000100000000000000000000B7
:1006400000000001000100010001000100010001A3
:100650000001000100010001000100010001000192
:100660000001000100010001000100010001000182
:100670000001000100010001000100010001000172
:100680000001000100010001000100010001000162
:100690000001000100010001000100010001000152
:1006A0000001000100010001000100010001000142
:1006B0000001000100010001000100010001000132
:1006C0000001000000000000000000000000000128
:1006D00000010001000100010001004004E10C14D0
:1006E0000D0000020002003C04E10C140D000003A8
:1006F0000001004104E10C140D000004000200267A
:1007000004E10C140DA807050001004204E10C14DB
:100710000D0000060002002804E10C140D00000783
:100720000002003E04E10C140D000008000100432B
:1007300004E10C140D0000120002004404E10C144A
:100740000D0000130002004604E10C140D0000141B
:100750000001004804E10C140D0000150000000029
:100760000025073D15000009025B00030100A0FA07
:100770000904000001030101000921110100012207
:10078000400007058103080001090401000203007D
:100790000000092111010001222200070582032027
:1007A0000001070503032000010904020001030002
:1007B0000000092111010001226D000705840320BA
:1007C0000001120100020000000882650D06010010
:1007D000010203011C037600690061006C003A000D
:1007E00066003600340063003200620033006300AC
:1007F00000002403770069006C00620061002E0095
:100800007400650063006800200057005400360043
:1008100030002D00440000001603770069006C00D2
:10082000620061002E007400650063006800000033
:100830000403090411241FBECFEFDAE0DEBFCDBFF1
:1008400004B603FE18C08091400590914105A09127
:100850004205B09143058730904BA740B04B59F407
:1008600010924005109241051092420510924305E6
:10087000E0E0F8E3099511E0A0E0B1E0ECE5F8E68E
:1008800002C005900D92A037B107D9F725E0A0E787
:10089000B1E001C01D92A034B207E1F70E94B42C70
:1008A0000C9401340C940000E8EDF0E080818E7F20
:1008B00080831092E2001092DA001092E100A0EE24
:1008C000B0E08C9181608C9380818F77808319BC9C
:1008D000A7EDB0E08C918E7F8C9380818F7E80839A
:1008E00010920F0508952091E4003091E50095E6FF
:1008F000A9012091EC00822F817020FF06C0809119
:10090000E80080FF06C080E008952091E80022FD05
:100910001AC080913D05882389F0853089F0809147
:10092000EB0085FD0FC02091E4003091E5004217F7
:100930005307F9F29150E1F684E0089582E00895BA
:1009400083E0089581E00895EF92FF920F931F9343
:10095000CF937C018B010E947304C82F811117C0B3
:100960008091E80085FD0BC08091E8008E77809330
:10097000E8000E947304882399F3C82F08C0F70188
:1009800081917F018093F1000150110949F78C2F6B
:10099000CF911F910F91FF90EF900895CF93FC019D
:1009A00080913D05843001F5C091E900CF70209120
:1009B000EC00922F917020FD90E8C92B82E080938B
:1009C000E9008091E80080FF0CC050E040E060E268
:1009D00070E0CF010E94A4048091E8008E7780939C
:1009E000E800CF70C093E900CF910895809135055C
:1009F00087FF13C08091E80082FF06C08091E80065
:100A00008B778093E80004C080913D058111F2CF7F
:100A1000089580913D058823D9F38091E80080FFF7
:100A2000F8CF8091E8008E77ECCF982F9093E90073
:100A3000242F762F50E0891731F07091EC0020912F
:100A4000ED005091F00021FD07C09F5F973071F7D6
:100A50008093E90081E008953091EB003E7F309370
:100A6000EB003091ED003D7F3093ED003091EB00D5
:100A700031603093EB007093EC002093ED005093C5
:100A8000F0002091EE0027FDE0CF80E00895CF92A6
:100A9000DF92EF92FF920F931F93CF93DF93C8EDF6
:100AA000D0E088818F7E8883E7EDF0E080818160EF
:100AB000808384E082BF81E080930F0588818E7FF0
:100AC000888302EE10E0F80110821092DA0081EEC5
:100AD000C82ED12CF601108288818F778883888177
:100AE0008068888388818F7D888319BC10923D053A
:100AF00010923405109233051092320590EEE92ED3
:100B0000F12CF70180818B7F8083888181608883CD
:100B100042E060E080E00E941505F60180818E7F52
:100B20008083F801808181608083808188608083F8
:100B3000F70180818E7F8083888180618883DF9147
:100B4000CF911F910F91FF90EF90DF90CF9008957C
:100B5000FC0180913B0590913C0586179707A0F01A
:100B60006115710529F49091E8009E779093E80053
:100B700090E06115710551F4911108C08091E80071
:100B800082FF34C080E00895BC01F2CF80913D0522
:100B90008823C1F18530C1F18091E80083FD30C028
:100BA0008091E80082FDEACF8091E80080FFE1CFEC
:100BB0008091F3002091F200382F6115710519F032
:100BC0002830310558F091E02830310509F090E0E7
:100BD0002091E8002E772093E800CBCF819180937D
:100BE000F100615071092F5F3F4FE7CF80913D05C4
:100BF000882341F0853041F08091E80083FFBECF2B
:100C000081E0089582E0089583E0089508950895AD
:100C10008091110508959C014FB7F89480910605C5
:100C200090910705A0910805B09109054FBF821B5F
:100C3000930B08952FB7F8946091060570910705FE
:100C400080910805909109052FBF08952FB7F8945A
:100C50008091060590910705A0910805B0910905BE
:100C60002FBF0895209103053091040528173907F7
:100C700071F09093040580930305E0910105F091D4
:100C80000205309721F00084F185E02D0994089544
:100C90002091FF04309100052817390771F09093D7
:100CA00000058093FF04E0910105F0910205309763
:100CB00021F00680F781E02D09940895E091010567
:100CC000F0910205309721F00190F081E02D099418
:100CD00080E00895CF93DF93EC0140911B04509185
:100CE0001C0460911D0470911E042FB7F89480912C
:100CF000060590910705A0910805B09109052FBF41
:100D0000841B950BA60BB70B843F9140A105B10541
:100D100018F580911B0490911C04A0911D04B091C2
:100D20001E048093170490931804A0931904B093A1
:100D30001A0484EF91E0A0E0B0E080931304909354
:100D40001404A0931504B0931604D0932304C09305
:100D50002204DF91CF9108950E941A066093170430
:100D6000709318048093190490931A0482E390E01E
:100D7000A0E0B0E0E2CFFC018481862351F49281AF
:100D80009923B9F06923808583FF05C081E0611153
:100D90000FC080E00895892F8F7092959F70982BD7
:100DA000862F8F7062956F70682B81E09613F1CF5C
:100DB000089581E0FDCF452B39F0682381E06F3F36
:100DC00009F080E08170089581E0FCCFDC01609142
:100DD0000F0480911004962F891301C00895292FC4
:100DE00030E0F901EE0FFF1FE95FFB4F40815181B9
:100DF0004A175B07A1F487E08A9FA0018B9F500DE3
:100E0000112441535C4F81E0FA0184839613E6CFAD
:100E10002F5F3F4F2370332720930F0408952F5FD8
:100E20003F4F922F9370D8CF10926C0310926B03A8
:100E3000EFECF3E08581811102C0148216823796AF
:100E400084E0E730F807B1F70895AF92BF92CF92F0
:100E5000DF92EF92FF920F931F93CF93DF938FEF69
:100E60009FEF4430510508F468C040910A0541FBEA
:100E7000882780F990E0880F991F42FB002700F92E
:100E800010E0000F111F000F111F802B912B40FB52
:100E9000CC24C0F8D12C8C299D2943FB222720F992
:100EA000C22FE0E0DE2F53E0CC0FDD1F5A95E1F7B3
:100EB0008C2B9D2B44FBAA27A0F9B0E0E4E0AA0FFD
:100EC000BB1FEA95E1F78A2B9B2B45FBEE27E0F948
:100ED000F0E0A5E0EE0FFF1FAA95E1F78E2B9F2B08
:100EE00046FB222720F930E0B6E0220F331FBA95E7
:100EF000E1F7822B932B47FB222720F930E0369530
:100F0000322F222737952795822B932B20910B0583
:100F1000322F3170F32EF92A26952170B22EBB0C98
:100F2000A82EBF28C501BB0CAA0BBB0BFB018083FD
:100F30009183A283B38390E080E0DF91CF911F91F2
:100F40000F91FF90EF90DF90CF90BF90AF900895FA
:100F500080912604909127049093100180930F01B3
:100F6000089581152CE5920741F4209140033091BA
:100F70004103232B11F490E080E0089580E0089570
:100F8000F894E82FE295EF70F0E031A1282F2F7050
:100F900081E090E001C0880F2A95EAF7982F90959C
:100FA000932391A392A1892B82A378940895909181
:100FB0000A0592FF06C0282F28712830F9F4877F90
:100FC000846093FF06C0282F28712831F1F4877EB2
:100FD000846120910B0520FF06C0382F387138300E
:100FE000D9F4877F816021FF06C0282F287128311E
:100FF000D1F4877E816194FD877E0895282F247126
:101000002430F9F68B7F8860DCCF282F24712431BF
:1010100001F78B7E8861DDCF382F3171313019F7C0
:101020008E7F8860E0CF282F2171213121F78E7EBD
:101030008861E1CFCF93DF93EC0182389105A9F16C
:10104000D8F58133910509F496C048F589329105A8
:1010500009F48AC08A9709F495C0C11522E5D20720
:1010600008F0B6C0C11531E5D30708F026C1C83E67
:10107000D10508F09CC0C03ED10560F5C83AD10545
:1010800008F087C0C53AD10508F0EFC0C130D105DE
:1010900009F12097F9F0C430D105E0F440C0853360
:1010A000910509F45AC0C997C1F680910A05837069
:1010B00089F0C0EED0E00EC0833E910599F170F446
:1010C000803E910501F1823E910539F680910A0535
:1010D00082FD21C0CE01DF91CF910895863E91051A
:1010E00061F1873E910571F1843E910509F0B5CF1C
:1010F00080910B0581FFEECF80910A05C7EED0E00D
:1011000084FD0DC0E7CF80910A0580FD07C1909155
:101110000B0590FFDFCFC3EED0E084FFDBCFD0E044
:10112000C0E0D8CF80910A0582FDFBC090910B05ED
:1011300090FDBFCF84FFCECFF2CF80910A0583FD13
:10114000DDCFC8CF80910A0583FDEEC090910B05DD
:1011500091FFF0CFC4EED0E0BDCF80910A0585FFAE
:10116000B9CFC9E2D0E0B6CF80910A0585FFB2CFF2
:10117000C5E3D0E0AFCF80910A0586FFABCFCAE2CE
:10118000D0E0A8CF80910A0586FFA4CFC1E3D0E0CC
:10119000A1CFCF3BD10518F6C85AD0E0CC0FDD1F48
:1011A000C15EDE4F0990D881C02DD46493CFC115A4
:1011B00040E5D40708F064C0C11580E4D80708F002
:1011C0005CC0CE019A9581159F4108F483CFA7CFCB
:1011D000C11536E5D30718F5C11545E5D40708F064
:1011E00084C0C11584E5D80708F07AC09C2F969575
:1011F00096959E0123703327C115D34508F462C02C
:10120000C1E0D0E002C0CC0FDD1F2A95E2F730E24A
:10121000939FC0011124C82BD92BDA685BCFC1156D
:101220008AE5D80778F4C11599E5D90708F068C0B0
:10123000C11528E5D20708F472CFDC2FCC27C06F88
:10124000D06A48CFCE0190568115904208F067CF02
:101250008D2F8F710E94D70790E0982F88278827BD
:101260009F719C012C2BE90149C0C55AD0E0C45E96
:10127000DE4FC881D0E0D0642DCFDF70D06A2ACF96
:10128000CE01E4E096958795EA95E1F783702C2FDF
:1012900026952695237040E2249F90011124382B37
:1012A0008C2F8370C1E0D0E002C0CC0FDD1F8A9587
:1012B000E2F7C22BD32BDC680DCFDC2FCC27C16F1C
:1012C000D06A08CFC1E0D0E002C0CC0FDD1F2A9564
:1012D000E2F720E2929FC0011124C82BD92BEBCF5B
:1012E000DC2FCC27C46FD06AF5CE8C2F0E94D70795
:1012F000C82FD0E0DC2FCC27CC27DF71D062EACE1C
:101300008C2F8F700E94D70734E0D695C7953A95F9
:10131000E1F7CF709C2FEC01D069DCCEC9E3D0E0BF
:10132000D9CEC2EED0E0D6CEC6EED0E0D3CE8091FC
:101330002202882331F01092220210922102109290
:1013400020020895CF93C82F80910B0582FD0CC019
:10135000809122028C1741F00E9426069093210270
:1013600080932002C0932202CF910895809590919E
:101370003F05982390933F050895809590914603EB
:10138000982390934603089590914603892B809368
:10139000460308951092FF011092FE011092FD0184
:1013A00008958091280490912904892B89F00E9446
:1013B00026062091200230912102AC01421B530BE2
:1013C00081E020912804309129044217530708F442
:1013D00080E0817008958091FC0181111092FC01E0
:1013E0000895909113019923D1F090910A0597FFE8
:1013F00016C0E82FE695E695E695EE31E0F4F0E0CC
:10140000EE58FE4F282F277081E090E001C0880F32
:101410002A95EAF780959281892382830895E4E7EB
:10142000F1E09191891303C0DF0111971C9291E0C3
:10143000EA37F907B1F70895909113019923C1F0A4
:1014400090910A0597FF14C0E82FE695E695E6957A
:10145000EE31F8F4F0E0EE58FE4F877021E030E016
:1014600001C0220F8A95EAF78281822B8283089538
:10147000A4E7B1E0EFEF90E02D91821751F0EF3F3C
:1014800019F4211101C0E92F9F5F9630A9F7EF3FB2
:1014900009F408950E2E000CFF0BEE58FE4FE6CF18
:1014A0002091FB019091BA01291302C080E00895B8
:1014B00030E0F90153E0EE0FFF1F5A95E1F7E554D4
:1014C000FE4F5181561306C05081581303C05281FC
:1014D000541304C02F5F3F4F2770E6CF81E008957B
:1014E0008091FB019091BA01981301C008958F5F1C
:1014F0008770FACF9E3F49F1E82F2EE0929FE00DD2
:1015000011249E2F9770E695E695E69583E0E89F77
:10151000F0011124E956FE4F50E040E080E02191B7
:1015200030E0092E02C0369527950A94E2F7217023
:101530003327042E01C0220F0A94EAF7822B4F5F53
:101540005F4F4330510559F7089580E008959E3F5D
:1015500069F1E82F2EE0929FE00D11248E2F877005
:1015600041E001C0440F8A95EAF7E695E695E695D5
:1015700083E0E89FF0011124E956FE4F30E020E0BF
:1015800070E05191DF011197CB01022E02C09695B8
:1015900087950A94E2F781708195852784238527B2
:1015A0008C932F5F3F4F2330310559F70895929563
:1015B0009F70963091F058F4925F9F70923058F47B
:1015C000803F19F030F4883E30F481E008959A5F4E
:1015D000F4CF843FD1F380E00895883EB0F3813F9B
:1015E000D1F7F3CF81FF02C0899A089589980895B1
:1015F0009C013A9521153F4150F5FC01EE27F17011
:10160000BC0166277270AC01442754709C012227EC
:10161000387094FF0EC080E1EF2B09F480E0672B57
:1016200009F08062452B09F08064232B89F08068E3
:10163000089581E0EF2B09F480E0672B09F08260C8
:10164000452B09F08460232B19F08860089580E011
:10165000089580930C0570930E0560930D0580919D
:101660003D058430F9F48093E9008FEF9091E80014
:10167000815095FD06C095ED9A95F1F70000811116
:10168000F5CF8091E80085FF0DC050E040E063E0B9
:1016900070E08CE095E00E94A4048091E8008E77D1
:1016A0008093E8000895BC0184E00C94290BBC01F0
:1016B00083E00C94290BCF93DF93EC01809113010D
:1016C0008823B1F180910A0587FF32C060E284E08F
:1016D0008093E9008FEF9091E800815095FD06C05E
:1016E00095ED9A95F1F700008111F5CF8091E80012
:1016F00085FF1BC08091130170E050E040E0811134
:1017000004C050E040E068E070E0CE010E94A40414
:101710008091E8008E778093E80080E2FE01A2E1EC
:10172000B5E001900D928A95E1F7DF91CF91089590
:1017300068E081E0CDCF81E08093E00080E280939B
:10174000D8001092C9008FE19EE40197F1F700C024
:10175000000087E090EBDC01809340059093410509
:10176000A0934205B093430588E19CE00FB6F8943E
:10177000A895809360000FBE90936000FFCF019703
:1017800008F40895EFE9FFE03197F1F700C0000099
:10179000F6CF0F931F93CF93DF9306E214E0C7E5D4
:1017A000D2E0CE010E94B733F80181938F012196D8
:1017B000CB37F2E0DF07A9F7C1EED6E0FE01859155
:1017C0009491009711F0FC0109952C96F7E0C13730
:1017D000DF07A1F7DF91CF911F910F9108950F932C
:1017E0001F93CF93DF93843030F5653020F54E3072
:1017F00010F5C42FD0E0CC0FDD1F2CE1629FC00D8F
:10180000D11D11243CE8839FC00DD11D1124CE01B0
:1018100087960E94B733082F10E0102F0027CE01C3
:1018200088960E94B7339801282BC901DF91CF9188
:101830001F910F91089590E080E0F8CF462F2091FE
:10184000440330914503232B91F47E3F39F46E3FDE
:1018500071F480914203909143030895843038F4E9
:10186000753028F46E3018F4672F0C94EF0B90E06D
:1018700080E00895CF92DF92FF920F931F93CF9352
:10188000DF936C0100913E0580912302082BC7E095
:10189000D0E010E0FC2EC8010C2E02C09595879573
:1018A0000A94E2F780FD0CC02197A0F7F12C8F2D50
:1018B000DF91CF911F910F91FF90DF90CF9008950E
:1018C000B6018C2F0E941E0C0E941A08019761F32A
:1018D000EECFCF93DF93EC010E943A0CBE010E9441
:1018E0001E0CDF91CF910C941A08FC018681978120
:1018F000009721F00E941A080C94D70A80819181E8
:101900000E94690CF9CF1F93CF93DF9300D000D0D2
:101910000F92CDB7DEB749835A8389819A816623B6
:10192000B9F02223A9F00E943A0C182F682F898160
:101930009A810E94A70A69817A81812F0F900F9066
:101940000F900F900F90DF91CF911F910C941E0C70
:101950000E947A0A182FEFCFFC01262F86819781EB
:10196000009739F4408151816281738184810C94A4
:10197000830C089583E290E00E94B7338E3489F49B
:1019800084E290E00E94B733873259F485E290E018
:101990000E94B73391E0803409F090E0892F817084
:1019A000089580E0FCCFCF9384E090E00E94B733AD
:1019B000C82F82E290E00E94B733982F8C2FCF91EE
:1019C0000895DB01FC0132962591349142175307AB
:1019D00058F0FC01349665917491A901CD010E94E3
:1019E000973390E080E008958FEF9FEF08950F9375
:1019F0001F93CF93DF9306E214E0C7E5D2E0CE0158
:101A00000E94B733F80161918F01681719F0CE0178
:101A10000E94C5332196CB37F2E0DF0781F7DF91D3
:101A2000CF911F910F910895DA019C012E5F3F4FD6
:101A3000F90145915491F90125913491A217B30709
:101A400058F0FC013496859194910E9497330E943E
:101A5000F70C90E080E008958FEF9FEF0895CF930B
:101A6000DF93CBE6D3E060E0CE010E94C533219640
:101A7000C11584E0D807B9F7DF91CF9108950F938E
:101A80001F93CF93DF938901843048F5653038F593
:101A90004E3028F521153C4531F42091400330911A
:101AA0004103232BE1F0C42FD0E0CC0FDD1F9CE1DC
:101AB000699FC00DD11D11249CE8899FC00DD11DC7
:101AC0001124612FCE0187960E94C533602FCE016D
:101AD0008896DF91CF911F910F910C94C533DF91C0
:101AE000CF911F910F910895CF93C82F6FEF811160
:101AF0006EE483E290E00E94C5336FEFC11167E2AC
:101B000084E290E00E94C5336FEFC11160E485E28A
:101B100090E0CF910C94C533CF93C92F682F84E008
:101B200090E00E94C5336C2F82E290E0CF910C943C
:101B3000C5339B01883070F49AE0899FB00111246D
:101B400065587D4F4AE050E0C9010E94A73390E0FC
:101B500080E008958FEF9FEF08958F929F92AF924C
:101B6000BF92CF92DF92EF92FF920F931F93CF938A
:101B7000DF93CDB7DEB72A970FB6F894DEBF0FBE5E
:101B8000CDBF0FE414E0F12CE12C86EAC82E8AE2E6
:101B9000D82E90EDA92E9AE2B92E2FE0822E2AE2BD
:101BA000922EF801D182C082B382A2829582848271
:101BB000F58AE48ABE016F5F7F4F8E2D0E94990DDA
:101BC000892B29F489859A85F801938B828BFFEF05
:101BD000EF1AFF0A0A5E1F4F88E0E816F10409F7C2
:101BE0002A960FB6F894DEBF0FBECDBFDF91CF911E
:101BF0001F910F91FF90EF90DF90CF90BF90AF902B
:101C00009F908F9008958F929F92AF92BF92CF92A4
:101C1000DF92EF92FF920F931F93CF93DF93CDB795
:101C2000DEB72A970FB6F894DEBF0FBECDBF08EC23
:101C300012E086EBC82E82E0D82E9BE1E92E93E0DD
:101C4000F92E27E0922E35EBA32E32E0B32E882416
:101C50008394D6010D931D936D014AE050E0B701C6
:101C6000CE0101960E94A733F8013896DF01892D35
:101C70001D928A95E9F789819A81D80111969C93E2
:101C80008E938F8112968C9312978D8113968C93DD
:101C90001397888514968C931497898515968C9341
:101CA00015978B819C8117969C938E931697189607
:101CB0001C9218978A8587FF4BC01E961C921E9215
:101CC0001D9780FF03C0D80118968C9281FF04C035
:101CD000F80190859260908782FF07C0D80118961E
:101CE0009C911897946018969C9383FF04C0F80108
:101CF00090859860908784FF07C0D80118969C91C2
:101D00001897906118969C9385FF04C0F801808510
:101D100080628087015F1F4FFAE0EF0EF11C8BE6B7
:101D2000E81683E0F80609F094CF2A960FB6F894E7
:101D3000DEBF0FBECDBFDF91CF911F910F91FF90FE
:101D4000EF90DF90CF90BF90AF909F908F900895CD
:101D5000F801B686A586B5CFCF92DF92EF92FF92BB
:101D60000F931F93CF93DF93CDB7DEB72A970FB6AC
:101D7000F894DEBF0FBECDBFE5E6F2E080E5DF01FF
:101D80001D928A95E9F7EFECF3E088E3DF011D92FD
:101D90008A95E9F785E6C82E82E0D82E7F010BEC04
:101DA00012E0F701D182C0824AE050E0B801CE01D2
:101DB00001960E94A73388E0FE013196D60101907A
:101DC0000D928A95E1F789859A85D70113969C93A0
:101DD0008E931297BAE0CB0ED11CE7E0EE0EF11C09
:101DE000065F1F4F0B31F3E01F07D9F62A960FB697
:101DF000F894DEBF0FBECDBFDF91CF911F910F9141
:101E0000FF90EF90DF90CF9008954F925F926F9286
:101E10007F928F929F92AF92BF92CF92DF92EF927A
:101E2000FF920F931F93CF93DF93CDB7DEB72A971F
:101E30000FB6F894DEBF0FBECDBF8E010F5F1F4FF0
:101E40008AE0F80111928A95E9F79DE4E92E91E084
:101E5000F92E680122E5422E21E0522E6624639479
:101E6000712C40E6842E41E0942EF70181917F0190
:101E70008F3F09F445C0F894E82FE295EF70F0E049
:101E800021A18F70A30102C0440F551F8A95E2F76C
:101E9000CA01922F982B91A392A18095892382A3A6
:101EA000789400C0E2E5F1E021E030E0B12CA12C13
:101EB00041914F3F09F47EC0A42FA295AF70B0E0CE
:101EC00090968C9190E04F7002C0959587954A95B9
:101ED000E2F780FD6FC0C901A82AB92A220F331F7B
:101EE0008E169F0629F7F701319780818F3F11F0F9
:101EF0000E94C00750EA5A95F1F7F601B182A0821C
:101F0000F2E0CF0ED11C4E145F0409F0AECF4AE0D0
:101F100050E0B80187E292E00E948A33FF24F394F4
:101F2000009709F4F12C892B09F447C08AE0F801E5
:101F3000A7E2B2E001900D928A95E1F781E08093EB
:101F400026020E9426069093250280932402809107
:101F50002402909125020E940B06059790F1809132
:101F600027029091280290934A028093490280911F
:101F7000290290912A0290934C0280934B02809107
:101F80002B0290912C0290934E0280934D028091EF
:101F90002D0290912E029093500280934F028091D7
:101FA0002F0290913002909352028093510210922E
:101FB000260207C090E080E08FCF80912602811139
:101FC000C6CF8F2D2A960FB6F894DEBF0FBECDBFB9
:101FD000DF91CF911F910F91FF90EF90DF90CF9005
:101FE000BF90AF909F908F907F906F905F904F9039
:101FF0000895CF938091460390913F05892B80935C
:10200000720180912202882329F180912804909105
:102010002904892B29F00E94D10981110E94970976
:102020008091720190912202892B8093720180919C
:102030001301882309F446C080910A0587FF42C036
:102040008EE1E4E7F1E090E0815008F03DC09111AD
:102050000E949709C0911F04C09580917201C82306
:1020600080912004C82BC093720140E250E060E0F0
:1020700072E082E791E00E948A33892B59F180E275
:10208000E2E7F1E0A0E0B2E001900D928A95E1F77D
:10209000E0910105F09102053097E1F08091130184
:1020A000882349F080910A0587FF05C0C09373011A
:1020B00086E0809372010280F381E02D82E791E057
:1020C000CF91099486E0BDCF2191222309F4BCCFA2
:1020D0009F5FBACFCF910895EF92FF920F931F9316
:1020E000CF93DF93EC018A85811134C0EB80FC80B3
:1020F00087E5F81A26E12E9DC0012F9D900D112431
:10210000DC01A15BBB4F1496ED91FC9115973097C4
:1021100031F054966D917C918B5A9B4F099586E1D5
:102120008E9D80018F9D100D1124015B1B4FF801C6
:1021300087810E94BD09F80180850E94B6090E942E
:10214000F90F188219861B861E821D8210924E047A
:1021500010924D04DF91CF911F910F91FF90EF905E
:102160000895CF93DF93EC018989811118C081E034
:10217000898B8F810E94C40980913F059885892BA6
:1021800080933F050E94F90FEA81FB81309739F077
:102190006C897D89CE010696DF91CF910994DF91FC
:1021A000CF91089580911101877F8093110182E082
:1021B0000E94B6098091110184FF06C08F7E809332
:1021C000110182E00E94C4098091110185FF06C0BF
:1021D0008F7D8093110180E20E94C4090C94F90F55
:1021E00090E080E00E94480690E080E00E94320685
:1021F00010923F050C94F90F80933E050C94F0105B
:1022000080913E05982F9670963019F488600C9452
:10221000FC10877FFCCF21E030E001C0220F8A95BF
:10222000EAF7209580913E0582230C94FC10909152
:10223000FF01809589238093FF01282F277091F457
:10224000282F082E000C330B9217130659F090918B
:102250000B0592FD07C08595859585950E940B110C
:102260000C94CA09089590910B0592FB222720F93E
:10227000281769F080FB92F990930B0580910A056D
:1022800090910B050E948C0D82E00C94171108951B
:1022900021E030E001C0220F8A95EAF780913E05E7
:1022A000822B0C94FC1090910B0592FD10C098E0CD
:1022B000899F90011124622B6093FF010E944811B5
:1022C0000E9426069093FE018093FD0108950C94D0
:1022D0004811809323020C94F010109246038091D1
:1022E0001301E4E7F1E0882359F080910A0587FFA4
:1022F00007C08EE1DF011D928A95E9F70C94F0107A
:1023000086E0F8CF1F93CF93DF93CDB7DEB7AA97C0
:102310000FB6F894DEBF0FBECDBF85E395E02091E8
:10232000F100DC012D93CD01B5E08D339B07B9F7AA
:1023300080913605833009F472C0B8F4813009F415
:1023400049C0823009F4B3C08091E80083FF96C28F
:1023500080913505909136059A3008F08FC2E92FAB
:10236000F0E0ED5FFB4C0C9474338A3009F48EC0BE
:102370008B3009F471C0893039F78091350581328D
:1023800019F78091390590913A05009711F002975D
:10239000D9F68091E800877F8093E8008091E8007B
:1023A00082FF38C09091F3008091F200029731F4DF
:1023B0008091F100813011F0863021F48091F1009C
:1023C000809311058091E8008B778093E8000E944C
:1023D000F604BACF80913505813A09F0B5CF8091E6
:1023E000E800877F8093E8008091390590913A0555
:1023F000892B61F460E282E195E070E00E94A8051B
:102400008091E8008B778093E8009ECF60E090E0B9
:1024100080E0F3CF80913D058111C0CF95CF8091B1
:102420003505813A09F090CF8091390590913A05B0
:10243000892B09F089CF8091E800877F8093E8009D
:102440008091E80080FFFCCF809113018093F10020
:102450008091E8008E77B9CF80913505813209F0FF
:1024600073CF8091390590913A05892B09F06CCF93
:102470008091E800877F8093E8000E94F6048091B5
:102480003705809313010E946D115ECF8091350551
:10249000813209F059CF8091E800877F8093E8006E
:1024A0000E94F60480913805809310054DCF8091ED
:1024B0003505813A09F048CF8091E800877F809305
:1024C000E8008091E80080FFFCCF80911005BECF2E
:1024D000803899F0823809F0D1C1809139058F7028
:1024E000873008F0CBC18093E9008091EB0085FB39
:1024F000882780F91092E90006C0809132059091FA
:102500003305911182609091E800977F9093E800E5
:102510008093F1001092F1008091E8008E77AAC1BB
:10252000882309F498C1823009F0A8C18091370549
:1025300081119BC1809139058F702FEF280F2630B4
:1025400008F09CC18093E9002091EB0020FF8DC131
:10255000933031F48091EB0080628093EB0085C171
:102560009091EB0090619093EB0021E030E001C08E
:10257000220F8A95EAF72093EA001092EA008091F0
:10258000EB008860EACF811179C1109137051F7780
:102590008091E3008078812B8093E3008091E800B4
:1025A000877F8093E8000E94F6048091E80080FF16
:1025B000FCCF8091E30080688093E30082E01111FA
:1025C00083E080933D055AC18058823008F056C19F
:1025D00020913705309138052C3DE3E03E07A1F509
:1025E00083E08A838AE289834FB7F894DE011396E9
:1025F00020E03EE051E2E32FF0E050935700E491F9
:1026000020FF03C0E295EF703F5FEF708E2F90E0E8
:10261000EA30C0F0C7968D939D932F5F243159F710
:102620004FBF8091E800877F8093E8006AE270E006
:10263000CE0101960E94A8058091E8008B778093D7
:10264000E8001CC1C096E7CF8091390590913A050A
:10265000432F55274330510509F44AC078F54130DE
:10266000510509F485C08BE590E0E7E6F7E04230DC
:10267000510509F003C12091E800277F2093E8006D
:1026800020913B0530913C058217930708F49C018B
:1026900040E02115310509F070C041116EC08091F4
:1026A000E80082FDC9CF80913D05882329F285305D
:1026B00019F28091E80083FFF2CFBECF413251057D
:1026C00009F447C04232510509F0D8C08330910562
:1026D00008F0D4C0FC01EE0FFF1FED59FE4F019032
:1026E000F081E02D805A9E4FDC018C9190E01DC05E
:1026F000332721303105E9F02115310579F02230F9
:102700003105F9F02330310509F0B8C0E4EDF7E008
:10271000E4918E2F90E0E4EDF7E007C0E0E3F8E00D
:10272000E4918E2F90E0E0E3F8E0009709F4A6C072
:10273000A2CFE8E1F8E0E4918E2F90E0E8E1F8E044
:10274000F4CFE2EFF7E0E4918E2F90E0E2EFF7E0D4
:10275000ECCF8330910508F091C0880F991FFC01E0
:10276000E759FE4F0190F081E02D89E090E083CFA2
:1027700082E190E0E2ECF7E07ECF80913D05882396
:1027800009F45ACF853009F457CF8091E80083FDD2
:1027900053CF8091E80082FD82CF8091E80080FFD6
:1027A00078CF9091F3008091F2002115310519F056
:1027B0008830910550F041E0089709F040E08091A1
:1027C000E8008E778093E80064CF44914093F10055
:1027D0003196215031090196E8CF803809F04EC07A
:1027E0008091E800877F8093E80080913405809392
:1027F000F10092CE811142C0109137051230F0F5F0
:102800008091E800877F8093E800109334050E9450
:10281000F604112311F084E005C08091E30087FDE8
:10282000FACF81E080933D0542E061EC81E00E94B7
:10283000150542E261EC84E00E94150542E261EC7C
:1028400082E00E94150542E260EC83E00E941505DB
:1028500080913D0513C080913705813079F481E086
:10286000933009F080E0809333051092E900809165
:10287000E800877F8093E8000E94F6048091E800DA
:1028800083FF0AC08091E800877F8093E8008091F1
:10289000EB0080628093EB00AA960FB6F894DEBF3F
:1028A0000FBECDBFDF91CF911F910895E6E2F4E016
:1028B000128E138E8FEA90E09183808385E0848F5F
:1028C00028E833E13383228322E330E0378B268B01
:1028D00028EC30E0318F208F158E2AE030E0378FE2
:1028E000268F20E530E031A320A382A30E94F70CBD
:1028F0000E946D1110920B0510920A0590E080E085
:102900000E948C0D0C94C90B7F928F929F92AF9274
:10291000BF92CF92DF92EF92FF920F931F93CF93CC
:10292000DF93CDB7DEB76E970FB6F894DEBF0FBE5C
:10293000CDBFA0904003B090410381E090E0909320
:1029400041038093400387EAC82E84E0D82E00E03C
:10295000760110E015C0F40125913491472D612FC7
:10296000802F0E943F0D82E0880E911C7394EEE050
:102970007E12F1CFFCE1EF0EF11C1F5F153019F054
:102980004701712CE8CF0F5F8CE8C80ED11C0430D2
:10299000F9F60E9456141A8219821C821B821E822A
:1029A0001D8218861F8288EC90E09A8789870BE742
:1029B00012E04AE050E0B801CE0101960E94E933EE
:1029C000065F1F4F0B3CE2E01E0799F77E01FBE01C
:1029D000EF0EF11C8AE0F70111928A95E9F74AE0BF
:1029E00050E0B801C7010E94E933065F1F4F0B3169
:1029F000F3E01F07A1F77E0185E1E80EF11C8AE0F4
:102A0000F70111928A95E9F78FEF9FEF9A8F898FDF
:102A100087E08E8F4AE050E0B801C7010E94E93399
:102A2000065F1F4F0B36F3E01F07A1F7B09241037B
:102A3000A09240036E960FB6F894DEBF0FBECDBFD6
:102A4000DF91CF911F910F91FF90EF90DF90CF908A
:102A5000BF90AF909F908F907F90089580E00E94EC
:102A6000740D60E086E290E00E94C5330E948414F9
:102A70000E942F0D81E00C94740DCF92DF92EF92A3
:102A8000FF928FEF9FEF4430510508F46AC0FB01BD
:102A9000C080D180E280F3800E946D1180910A0590
:102AA000C0FA80F9B701A6017695679557954795C5
:102AB00040FB81F9B701A60122E07695679557950D
:102AC00047952A95D1F740FB82F9B701A60133E07B
:102AD00076956795579547953A95D1F740FB83F9D9
:102AE000B701A601E4E07695679557954795EA9575
:102AF000D1F740FB84F9B701A601F5E0769567951B
:102B000057954795FA95D1F740FB85F9B701A6018E
:102B1000A6E07695679557954795AA95D1F740FB1E
:102B200086F9B701A601B7E0769567955795479561
:102B3000BA95D1F740FB87F980930A0580910B0580
:102B4000D0FA80F9D1FACC24C0F8C0FA81F9809388
:102B50000B0580910A0590910B050E948C0D90E069
:102B600080E0FF90EF90DF90CF900895882321F0D0
:102B70000E94B6090C94F90F0895882339F09091BA
:102B80003F05982B90933F050C94F90F08958823E7
:102B900021F00E94BD090C94F90F0895882321F0BB
:102BA0000E94C4090C94F90F0895882309F44BC0BE
:102BB000823871F40E945E0681FF45C089E30E945D
:102BC0001C0A0E94F90F89E30E94F1090C94F90F85
:102BD000833859F40E945E0680FF35C083E50E9469
:102BE0001C0A0E94F90F83E5EFCF843859F40E9444
:102BF0005E0682FF28C087E40E941C0A0E94F90F2B
:102C000087E4E2CF9CEF980F913AF0F290E2980FB0
:102C1000983050F4877091E001C0990F8A95EAF7D7
:102C2000892F0E94BD09D2CF9BE5980F933020F4E5
:102C300090E080E00C944806885A873120F490E0B8
:102C400080E00C9432060895FF920F931F93CF9368
:102C5000DF93F82E0091240410912504011511052D
:102C600009F449C0109223041092220410921F0408
:102C700010922004D8011696CD91DC919E013A95D0
:102C800021153F4108F4D07ED1E0C11101C0D0E050
:102C9000D8011996ED91FC911A97309731F01B9657
:102CA0006D917C9180E00995D823DD2339F08CEF7C
:102CB0008C0F813A38F58C2F0E94F109FF2099F092
:102CC000E0912404F0912504808584FD0CC080915E
:102CD0002104882341F0808191819C012150310998
:102CE000253A3D45A8F00E94F90F10922504109254
:102CF000240410922104C801DF91CF911F910F91FC
:102D0000FF9008950E94F90F8C2F0E94D515D6CF01
:102D10000E946A06E8CFCF93DF93EC010E94D5159D
:102D2000CE010E94F80A9E01205E3109283031054B
:102D300010F0CD2B21F4DF91CF910C94C715DF91CA
:102D4000CF910C94B615CF93C82F882309F4A2C055
:102D50008238C1F40E945E0681FD9CC089E30E9416
:102D60001C0A0E94F90F2FEF81EE94E02150804061
:102D70009040E1F700C0000089E30E94F109CF9183
:102D80000C94F90F8338A1F40E945E0680FD82C086
:102D900083E50E941C0A0E94F90F2FEF81EE94E058
:102DA000215080409040E1F700C0000083E5E5CF6E
:102DB0008438A1F40E945E0682FD6CC087E40E9404
:102DC0001C0A0E94F90F2FEF81EE94E02150804001
:102DD0009040E1F700C0000087E4CFCF8CEF8C0F6C
:102DE000813A88F580911301882301F180910A05C9
:102DF00087FF1CC0EC2FE695E695E695F0E0EE58CF
:102E0000FE4F828190E04C2F477021E030E002C0FD
:102E1000220F331F4A95E2F782239323892B79F0FF
:102E20008C2F0E94F1090E94F90F09C0E4E7F1E03C
:102E30008191C817A9F321E0EA37F207C9F78C2F6F
:102E40000E941C0A9CCF80E28C0F883048F4C77027
:102E500081E001C0880FCA95EAF70E94C4098FCFAC
:102E6000EBE5EC0FE33040F4F0E0E45EFE4F8081F0
:102E700090E0CF910C944806C85AC73158F4EC2F13
:102E8000F0E0EE0FFF1FE15EFE4F80819181CF9158
:102E90000C943206CF9108951F93CF93DF93182F90
:102EA000C0914604D0914704893321F0C091440475
:102EB000D0914504812F0E94A316209731F4812FD1
:102EC000DF91CF911F910C94D5158FE99FE0019769
:102ED000F1F700C000002197F0CF0F931F93CF931D
:102EE000DF93C42FD22FFC0182818823A1F040936D
:102EF0004C040E94260690934B0480934A04C770AA
:102F000081E001C0880FCA95EAF7DF91CF911F9148
:102F10000F910C94CE1510914C04141339C080916C
:102F20004A0490914B040E940B0620913E0430917C
:102F30003F048217930760F5C0E2CD0F1D17B9F06B
:102F400080E2810F883040F4177081E001C0880F63
:102F50001A95EAF70E94C715C83048F481E09D2F02
:102F6000977001C0880F9A95EAF70E94CE15802FBE
:102F70000E944C17C83098F4D77081E001C0880FC8
:102F8000DA95EAF7DF91CF911F910F910C94C71555
:102F9000C77081E001C0880FCA95EAF7F3CFDF91CF
:102FA000CF911F910F910895AF92BF92CF92DF9270
:102FB000EF92FF920F931F93CF93DF93EC018AE080
:102FC000A82E2881222309F48CC02130C9F59981CB
:102FD0008A81913021F422960E944C1705C09230CC
:102FE00029F422960E94A3162196EBCF933021F468
:102FF00022960E94D515F8CF943011F02196F4CF87
:10300000229630E020E0AE014F5F5F4F8053990B76
:103010008A30910550F02150310930F38FE99FE05B
:103020000197F1F700C00000F6CFA29EB001A39E69
:10303000700D11249C01260F371F8981EA01E3CF0F
:10304000E22FF0E0E555FE4FB490822F86958695ED
:10305000869590E0FC01E556FE4FE4902770F12C38
:10306000022E02C0F594E7940A94E2F731E0E322DD
:10307000FF24FC01E557FE4FC490D12C022E02C064
:10308000D594C7940A94E2F731E0C322DD24FC0111
:10309000E558FE4F049110E002C0159507952A955A
:1030A000E2F701701127E114F10419F081EE0E949A
:1030B000A316C114D10419F086EE0E94A3168B2D1D
:1030C0000E944C17CD2819F086EE0E94D515EF28E6
:1030D00019F081EE0E94D515012B09F485CF8CE201
:1030E0007BCFDF91CF911F910F91FF90EF90DF90F9
:1030F000CF90BF90AF900895CF93DF93EC010E94E3
:10310000F80A9E01205E31092830310510F0209721
:1031100039F40E94CE158C2FDF91CF910C94A31619
:103120000E94BD15F8CF662329F020913F0522604B
:1031300020933F059C013056211540E2340720F0D2
:10314000305E2115304108F499270C947C18DF92E9
:10315000EF92FF920F931F93CF93DF937C018B012C
:10316000D42E8091110182FF8CC0C0916903D0914F
:103170006A03CE15DF0521F0E114F10409F081C0E6
:10318000809111018B7F8093110181FD73C080912B
:10319000670390916803A801481B590B81E02091B7
:1031A0000F01309110014217530708F480E081703D
:1031B000F82E80911101F0FA81F980931101FE013E
:1031C00083E0F695E7958A95E1F7EE71FF27E95BD5
:1031D000FC4F20813181AE014F70552781E090E096
:1031E00002C0880F991F4A95E2F7FF2009F444C0F6
:1031F000822B932B918380838091460381FF08C0AB
:103200008091110180618093110182E00E94BD09CB
:103210008091460385FF08C08091110180628093F0
:10322000110180E20E94BD096F2DCE010E9493180A
:10323000DD2031F08091410485FF02C086FF3BC054
:1032400080914404909145040E94BF0B80916903D2
:1032500090916A039C013056211540E2340720F01A
:10326000305E2115304108F499270E948B160E9488
:10327000D2101DC081E09BCF80959095822393232F
:10328000B9CFC701992797013056211540E234077D
:1032900028F0305E2115304108F0C7010E948B16DE
:1032A0008091690390916A038E159F0501F3109335
:1032B000680300936703DF91CF911F910F91FF90F7
:1032C000EF90DF90089569EE7EEF90E080E00E943D
:1032D000E33360E082E090E00E94C53360E083E089
:1032E00090E00E94C5331092230260E084E090E0F9
:1032F0000E94C53360E082E290E00E94C53360E046
:1033000085E090E00E94C53360E086E090E00E9496
:10331000C5336FEF87E090E00E94C53340E050E096
:10332000BA0188E090E00E94D73360E08DE090E041
:103330000E94C53340E050E0BA0188E190E00E946D
:10334000D73360E087E190E00E94C53340E050E071
:10335000BA018CE190E00E94D73370E060E080E237
:1033600090E00E94E33340E050E0BA0188E190E051
:103370000E94D73380E00E94740D0E942E1540E019
:1033800050E0BA018FE090E00E94D73340E050E077
:10339000BA0183E190E00C94D7332F923F924F9281
:1033A0005F926F927F928F929F92AF92BF92CF92D5
:1033B000DF92EF92FF920F931F93CF93DF9300D092
:1033C00000D000D00F92CDB7DEB77C01DC011396A0
:1033D0004D915C91149711966C9111978C910E946C
:1033E000DB068111CBC061E0C7010E94AC0C8C01EF
:1033F000F7018281811161C0D70112968C918111F0
:103400009BC00031FFE51F0709F473C101312FE5AF
:10341000120709F472C16801E7E5DE1AFFEFCF1663
:10342000D10409F060F56BE572E08C2D0E94990DD6
:10343000892B29F586E18C9DF0018D9DF00D1124DD
:10344000E15BFB4F8681813009F059C180915B02BD
:1034500090915C02892B99F080915D0290915E02BF
:10346000892B69F080915F02909160022091610246
:1034700030916202822B932B892B09F44AC1F70108
:103480005280552009F457C10F35FDE51F0709F497
:103490004EC100362DE5120751F00E353DE51307FC
:1034A00009F049C180910001882309F440C11092BC
:1034B000000180E00E94241651C080910D0190917E
:1034C0000E01019609F498CFEFE4CE2EE4E0DE2E53
:1034D000B12CA12C9924939480910D0190910E010F
:1034E0008A159B050CF488CFF60186818823E9F0C4
:1034F000818592850817190739F480914D049091C0
:103500004E040817190789F0D6011F969C921F9741
:103510001C961C930E931B97C6010E94B110C60106
:1035200006960E946C1010923F05BFEFAB1ABB0AC3
:10353000E6E1CE0ED11CD0CFC80182519F45409705
:1035400010F00C94DC228FEF93E00E94B7337EEEF4
:10355000D72ED00E0BE613E08823A9F18091FF014E
:10356000877061F0D70112968C91882339F0809191
:103570000B0582FD03C082E00E94171127960FB64B
:10358000F894DEBF0FBECDBFDF91CF911F910F9199
:10359000FF90EF90DF90CF90BF90AF909F908F9073
:1035A0007F906F905F904F903F902F9008950115FE
:1035B000F4E01F0799F2C8010E94B733811101C0DE
:1035C000DA940F5F1F4FD110F2CF19821A821B823B
:1035D0001C8299249A9468012FEFC21AD20AC8015A
:1035E0000E94B73389831A82882309F4B7CF8130C8
:1035F00009F073C0580132E0A30EB11CC6010E944D
:10360000B733C82E8A83882309F4A8CFC5010E9446
:10361000B733D82E8FEF8C0D833068F4580143E018
:10362000A40EB11CDB82DD2021F0CE0101960E94A8
:10363000D4178501D0CF8BEF8C0D833030F5C801C6
:103640000396DB825C01DD20A1F3580154E0A50E56
:10365000B11C0E94B7338C83882359F38B819C81E2
:103660008130AFEF9A0710F0982F8827B6E0CB167D
:1036700031F0E7E0CE1631F00E94962ADACF0E94B0
:10368000662AD7CF0E94E029D4CFF4E0CF12D1CF61
:10369000580124E0A20EB11CC80103960E94B73362
:1036A000DD2009F45BCF882309F458CF8150990BB2
:1036B000989E9001999E300D11244D2D4150550B2F
:1036C000CA01820F931F019708F4B3CFAFE9BFE09F
:1036D0001197F1F700C00000F6CFCE0101960E94CD
:1036E000D4175601A6CF81E00E9448110E94001114
:1036F00035CF81E00E940B11F9CF82E0FBCF823001
:1037000009F0BDCE80915F0290916002892B09F48F
:10371000B6CE26E12C9DC0012D9D900D1124815B1C
:103720009B4FDC0150961C920E94B110A8CE81E004
:103730008093000113CF80910001882309F464C6AF
:10374000480140EE841A9108409022028091FC01C9
:10375000482A80914603482A58E08516910408F0CB
:1037600086C098012770332781E090E001C0880F60
:103770002A95EAF7552009F477C0482AD7018D9198
:103780009C910E947A0A21E030E0390102C0660C67
:10379000771C8A95E2F7E0912404F0912504FF83D9
:1037A000EE8320909201309093011D822D81E22FB3
:1037B000F0E0EE0FFF1FEA54FD4FC080D180C1142E
:1037C000D10409F4E4C6411005C0D60112968C91CB
:1037D000811187C0F601838190E086219721892B92
:1037E00009F47FC08085982F977009F487E0F8E08E
:1037F0008F16910408F055C0552009F44EC08695E7
:103800008170882309F46DC0D601AD90BC900A1573
:103810001B0519F4552009F464C0EE81FF81CE1612
:10382000DF0609F45EC0D6011D96ED91FC9130973C
:1038300021F08081882309F454C0642DC6010E94C0
:10384000BB06882309F44DC00A151B0509F0F1C613
:103850000115110509F4F2C65110F2C6A214B30401
:1038600009F03FC0512CECC68095482287CF5520E7
:1038700009F476C610939301009392010E941A06F0
:1038800060931B0470931C0480931D0490931E048A
:10389000109223041092220471CF82FB882780F9B2
:1038A000B0CF5520F1F08170ACCF0E94D515E6C69F
:1038B0000497813A910548F48A2D0E941C0A5520EC
:1038C00009F4A2C50E94F90F49CE0E94F90F8FE3B7
:1038D0009CE90197F1F700C000008A2D0E94A31611
:1038E000EECF9D819F5F9D8361CFFC01208131815F
:1038F0000217130709F081C5511081C510922104E8
:1039000080E057C6882309F4CEC5FA01818988234F
:1039100009F4C9C5C5018B5A9B4F0E946C10C3C5E1
:1039200080911101816080931101EBC5809111019B
:103930008E7F809311010E94D210E3C58091110106
:103940008F7E013E110531F0053E1105C9F48091CD
:1039500011018F7D809311018091110180FFE0C5DD
:10396000D70112968C910832110528F50E311105F8
:1039700008F074C00430110580F58111CDC5D0C5A3
:10398000C8019056811540E2940720F0905E8115A1
:10399000904110F78091110182FFC2C580914304CC
:1039A00081FDBEC52CE332E040E0B60190E080E04E
:1039B0000E94A718B5C50933110558F40D32110539
:1039C00018F40B321105C9F69091410492FDD5CF40
:1039D00008C004361105C1F3D0CF9091410494FD85
:1039E000CCCF882309F4A1C0909146038091220294
:1039F000282F292B322F3D7FB1F110926A031092AC
:103A000069033091410431FD2EC0F80143E0F69581
:103A1000E7954A95E1F7EE71FF27E95BFC4F9801C6
:103A20002F70332781E090E002C0880F991F2A95FC
:103A3000E2F78095909520813181822393239183B1
:103A4000808360E0C8010E949318809122028D7FDC
:103A50000E94A20982E00E94171180CD909141043A
:103A600093FD8BCFBECF38E0F701ACE3B2E001901D
:103A70000D923A95E1F710923E0210924002109298
:103A80003F02A0906903B0906A030A151B05B1F5C7
:103A90003091410435FF32C04091110141FB99241E
:103AA00090F841FF02C036FF29C040916703509152
:103AB0006803B601641B750B40913E0450913F04AE
:103AC00064177507D8F491FF08C0809111018061D7
:103AD0008093110182E00E94BD098091460385FF19
:103AE00008C08091110180628093110180E20E94E0
:103AF000BD09692DC5010E94931830CD9091110127
:103B000021FB91F9909311018D7F0E94A2091093DE
:103B10006A0300936903D0926803C092670380919F
:103B2000110184608093110195CF970140E0B601A7
:103B3000C8010E94A71812CD053F4CE5140709F4EF
:103B400062C008F45AC0063F8CE5180709F461C04A
:103B5000D70112963C91332309F43BC510924C04D3
:103B60000330BDE51B0708F060C00A3FECE51E0707
:103B700030F4C80182509C45449708F060C00E9410
:103B8000D30C90930B0580930A0501313CE5130794
:103B900009F465C108F0E2C009305CE5150709F4D5
:103BA0004CC108F0AFC005309CE5190709F43DC1D0
:103BB00008F095C00330BCE51B0709F42CC108F0E0
:103BC00030C180910A05816002301C4509F426C18C
:103BD00080910A0590910B050E948C0D0E946D1139
:103BE000BDCC07E225EE45EE68ED7CE5B4C406E207
:103BF00021EE40EE63EF7CE5AEC407E225EE44EE35
:103C000064EF7CE5A8C406E221EE42EE65EF7CE5B8
:103C1000A2C407E225EE46EE66EF7CE59CC408E20E
:103C200021E045EE69ED7CE596C40136FDE51F0710
:103C300009F4A5CF053A2DE5120709F4A0CF063106
:103C40008CE5180709F4C9C40A358DE5180709F48D
:103C50005CC108F038C10115ACE51A0709F445C18B
:103C60000E3D1C4509F44EC1F701868197810097EE
:103C700009F44FC10E941A08182F092FF701C280BA
:103C8000D580D2943FE0D3228091FF018770C1F0AC
:103C9000AC2CCC20B1F0892F807F803421F080E2E1
:103CA000810F883068F080910B0582FD09C082E0A9
:103CB0000E9417118091FF018770AA24A39481119B
:103CC000A12C902E92942FE09222FBE0F91508F49B
:103CD000ADC1E92DF0E0E35FFB4C0C9474338091AF
:103CE0000A05806207302CE5120709F497C080911D
:103CF0000A05806108301C4508F490C080910A05CF
:103D000080648CC080910A058B7F0D304CE51407D0
:103D100009F484C080F40B308CE5180709F493C0D3
:103D200080910A058C600C301C4508F477C08091A6
:103D30000A058D7F73C080910A058F7E0F30ACE538
:103D40001A0709F46BC080910A05877F00311C4572
:103D500008F464C080910A058F7D60C00D3FECE5DA
:103D60001E0709F478C050F505312CE5120709F457
:103D700080C098F480910A05837F03314CE51407D5
:103D800009F44CC008F46FC00E946D1190910A05AF
:103D9000892F97FB87F9805841C00B3F8CE51807A6
:103DA00009F447C008F053C080910B0581600A3FB9
:103DB0001C4509F00DCF80930B050ACF0130BDE5FE
:103DC0001B0709F462C0B8F480910B058C7F0F3F8C
:103DD000FCE51F0781F380910B05836001151D45EC
:103DE00050F380910B05982F909591708E7F892BC1
:103DF00090FB81F9E0CF01363DE5130709F44BC094
:103E0000053A4DE5140709F44DC002301D4509F08F
:103E1000DFCE60E03BC080910A05826080930A0596
:103E2000D7CE80910A058460F9CF80910A05886019
:103E3000F5CF80910B058260BECF0E946D118091FD
:103E40000A058068EBCF80910A058E7FE7CF8091CD
:103E50000B058E7FB0CF80910B058D7FACCF80910D
:103E60000A058F7BDBCF0E946D1180910A058F7749
:103E7000D5CF80910A0582FB992790F921E09227FE
:103E800090FB82F990FB83F9C9CF61E08EE090E06E
:103E90000E94C5339DCE90910A05892F8F7E94FF95
:103EA0008061BCCF90910A05892F8E7F90FF816041
:103EB000B5CF80919401811104C089E20E94F1097B
:103EC00001CD85E3FBCF0B35EDE51E0701F10C3588
:103ED0001D4509F0C9CE80910B0582FB882780F92A
:103EE00091E089270E943311BFCE0E946D112FEF00
:103EF00034E34CE0215030404040E1F700C0000086
:103F00000E949B0B0E94631929CB81E0EBCF80E0DC
:103F1000E9CF828100811181882369F0C8010E9464
:103F20003A0CD82E682FC8010E94A70AB8018D2D1F
:103F30000E941E0C9FCEC8010E947A0AD82EF6CF8E
:103F4000202F2F70B22E802F807F19F0B29490EF27
:103F5000B922CC20A9F0BB2059F080E2810F883033
:103F600010F0111107C08B2D0E94C4090E94F90F97
:103F7000812F5AC080913F05B82AB0923F05F6CFF5
:103F8000812F0E94D515BB2009F450C080E2810F1B
:103F9000883010F0111104C08B2D0E94BD0903C0A0
:103FA0008B2D0E94B6090E94F90F40C0302F3F7040
:103FB000B32E802F807F803219F0B29480EFB82228
:103FC000112321F1113009F4A6C0CC2009F4AFC0AF
:103FD000DD2009F47FC020E0D7014C9111965C915F
:103FE000119712966C91129713967C9113971496D1
:103FF0008C910E94830C8091430481FDB9CFF7011D
:10400000858180FFB5CF8F70858364C080910B055B
:1040100082FF42C0CC20D1F1BB2029F08B2D0E9421
:10402000C4090E94F90F80E00E94A316A92DA85090
:10403000BB0B149720F40E945E060E94F20A812FA7
:10404000902F0E94D70A8111B9C110929601109247
:104050009501AA20B1F08091FF0180FD12C0D70127
:1040600012961C928595859585950E944811C701E9
:104070000E94CD198091FF018595859585950E94B7
:104080000B1160E0C7010E94AC0C78CA80E00E946E
:10409000D515BB2059F280CFCC2001F1D11004C03E
:1040A000809122028B2917C041E0D41206C0809172
:1040B00022028B290E94A209B9CF8091420482304A
:1040C00078F3D812EDCF0E9497098091FC01B812C5
:1040D000B092FC018B2D0E94CE15A8CFD11006C046
:1040E0000E9497098B2D0E94C715A0CF8091420492
:1040F00051E0D5120BC0823008F498CF809146036E
:104100008B2109F493CF0E94EB09EACF823040F370
:10411000D812E6CF8BCF80914804CC2021F08D15AA
:1041200008F484CFD7CFD81608F080CFDBCFDD20BE
:10413000C9F28091460490914704193321F080918F
:104140004404909145040E94BF0B812F0E94D51515
:104150006DCF802F86958695837069F0813009F048
:1041600065CF812F902F9370C11002C090E080E046
:104170000E9432065BCF812F902F9370C11002C036
:1041800090E080E00E94480651CF802F837091F527
:10419000C1104CCF412F429546954770440F440FB4
:1041A000812F8F70042E01C0880F0A94EAF7212F07
:1041B000207114FF07C02FE030E001C0220F4A95A4
:1041C000EAF72095302F369536953370323069F006
:1041D00050F440912302313029F0822B84230E9435
:1041E000691124CF842B822BFACF282B80912302B4
:1041F0008227F5CF8695CC2011F0802F81708823FF
:1042000009F414CF412F429546954770440F440F4F
:10421000812F8F70042E01C0880F0A94EAF7212F96
:10422000207114FF07C02FE030E001C0220F4A9533
:10423000EAF72095302F369536953370323069F095
:1042400050F440913E05313029F0822B84230E94A6
:10425000FC10ECCE842B822BFACF282B80913E05CC
:104260008227F5CFF02FFF70BF2ECC2029F08F2FA3
:104270000E944811812F2FCF812F0E94C7158B2DAF
:104280000E940B11D3CE123F89F160F4103FB9F0B8
:10429000113F81F0CC2009F48CC0D11069CE802F61
:1042A0008F7128C0133F49F1143FA1F780910B058E
:1042B00082FF2FC0802F8F71CC2011F31BC0809103
:1042C0004804CC2079F0D81608F0B0CE202F2F71FA
:1042D00081E090E001C0880F2A95EAF790913E05B1
:1042E0008927B5CF8D1508F4A1CEF0CF802F8F711F
:1042F000C110C6CF0E94481199CE80E0CC2009F4AD
:10430000A6CF81E0902F9F7101C0880F9A95EAF7A0
:104310009ECF809142048230A0F18091FC01CC209C
:10432000F1F00E94BD098091FF018770843041F453
:104330000E94CA09802F8F710E940B11A12C76CE8A
:1043400080914204D816D0F7202F2F71B22E822FE1
:104350000E94481163E08B2D0E945311EFCF0E9401
:10436000C40980914204D81640F00E94CA090E94F4
:10437000EB0964E0802F8F71EFCF81E00E9417116D
:10438000DDCFCC2059F0302F3F71B32E832F0E9408
:10439000481163E08B2D0E94531148CE81E00E94AA
:1043A000171141E04D1508F041CE82E00E9417112F
:1043B0003DCED110BECE802F8F7162CFCC2019F0B0
:1043C000D11043CE46CED11040CE20E0F70140813F
:1043D00051816281738184810E94830C80914304A6
:1043E00083FF33CE8091950190919601029709F059
:1043F0002CCE812F0E944C1728CE552029F0DC01AD
:1044000018968C9185FF7CCAC80197558F3F9105FE
:1044100011F008F048C020910D0130910E012817CD
:10442000390724F490930E0180930D01F701228146
:1044300036E1389F5001399FB00C1124A501415B32
:104440005B4F6A01DA0150962C9350979281169631
:104450008C911697992309F455CA1A961C930E93BA
:1044600019978F5F16968C930E942606F601968701
:10447000858780912202878380913F059091460332
:10448000892B80870190F081E02D309741F0D60193
:1044900054966D917C91C5018B5A9B4F0995109351
:1044A0004E0400934D048091410480FF39C00E9466
:1044B00026066C01D70112968C91882309F43ECA16
:1044C0008091110182FF08C02CE332E040E0B60188
:1044D00090E080E00E94A7180B31BCE51B0709F4AF
:1044E0001FCA0C31ECE51E0709F420CA9091110196
:1044F000892F8E7F90FF81600A31FCE51F0709F448
:1045000018CAC8019056811520E2920728F0905EE3
:104510008115904108F020CA10926A031092690335
:10452000033FBCE51B0709F462CB08F005CB083D4F
:10453000FCE51F0709F455CB093D2CE5120709F4EA
:104540006ECB073D3CE5130709F002CB06E221EEF6
:1045500041EE67ED7CE5C7010E946D170C94AE1A21
:1045600080919201909193010817190781F410929C
:1045700093011092920110921B0410921C0410924D
:104580001D0410921E0410922304109222048091A4
:10459000240490912504009709F436CFA8E08A16E8
:1045A000910408F0A2C9642D0E94BB0681112CCF92
:1045B00081E00E94241628CF00313FE5130709F45B
:1045C00092C801314FE5140711F00C943F1A82E0B4
:1045D0008BC806311C4509F047CB80914603982FC4
:1045E0009A7A2091400420FF04C0482F447409F0B7
:1045F00090E021FF04C0482F417109F090E022FFB4
:1046000004C0482F487809F090E023FF03C082726D
:1046100009F090E0332309F44CCC81E0911101C002
:1046200080E08093940189E2911185E30E941C0A45
:1046300049C9A114B10409F011C9512CB12CA12C04
:1046400080E00E942416D0922504C092240481E0C8
:1046500080932104F601858180931F0451100EC0C0
:10466000AB2861F0F601808191819C0124503109D1
:10467000213A310508F019C90E94F109D6011696B0
:10468000AD90BC90C5019A9581159F4110F4E0EE64
:10469000BE2277247394C5010197853A9D4508F0A1
:1046A000712CD6011996ED91FC911A97309731F043
:1046B0001B966D917C9181E009957822772079F0A5
:1046C000F601868197810E94F80A80932004C50133
:1046D000F8E08F16910408F0EBC80E946A060E9469
:1046E000F90FEDC8CF92DF92EF92FF920F931F93D5
:1046F000CF93DF938091B701807F31F48091B40133
:10470000C091FB0181110BC0DF91CF911F910F91DF
:10471000FF90EF90DF90CF9008952196C770809121
:10472000BA018C1789F3F090B201E090B301C09008
:10473000B501D090B601A6016E2D8F2D0E94DB062B
:10474000D0E08111EACF8E0183E0000F111F8A951E
:10475000E1F7F801E554FE4F81818E11DECF8081B3
:104760008F11DBCF82818111D8CFE380F480EC18E8
:10477000FD0860E082EB91E00E94AC0C80913E0469
:1047800090913F04E816F90640F68091B7018F70CA
:1047900080618093B701F801E054FE4F80818F70F3
:1047A0008061808382EB91E00E94CD19DF91CF91EF
:1047B0001F910F91FF90EF90DF90CF900C94700AB3
:1047C0003F924F925F926F927F928F929F92AF92A1
:1047D000BF92CF92DF92EF92FF920F931F93CF93EE
:1047E000DF93CDB7DEB765970FB6F894DEBF0FBE87
:1047F000CDBF8C0185E0F801DE01519601900D924C
:104800008A95E1F7D8014C9011965C901197129619
:10481000EC9012971396CD90DC9060E082EB91E0E3
:104820000E94AC0C82EBA82E81E0B82E8090B501DE
:104830009090B601A4016091B3018091B2010E94F1
:10484000DB068111CAC1F090B401F601E819F9093B
:104850004F0160E0FF2009F46DC1C5010E94AC0C5E
:1048600060903E0470903F043090B7018614970426
:1048700008F013C14091B5015091B601B090B2015A
:10488000A090B301832D807F6A2D09F0ADC08B2DE0
:104890000E94DB06FE2C81113BC0D80111968C9141
:1048A00011978A1135C08C918B1132C02091B801BB
:1048B0003091B90116968D919C912817390741F5D1
:1048C000E11026C0832D8F7080618093B70182EB49
:1048D00091E00E94CD198091B701F80185838F2D59
:1048E00065960FB6F894DEBF0FBECDBFDF91CF91B6
:1048F0001F910F91FF90EF90DF90CF90BF90AF90FE
:104900009F908F907F906F905F904F903F90089511
:10491000F4EF6F16F1E07F0620F48091430480FFEE
:1049200021C0A601652D842D0E94DB06811118C0CF
:1049300081E08E2580FF16C04E2D652D842D0E94AE
:10494000500A882379F082EB91E00E94CD1988E02B
:10495000E2EBF1E0DF011D928A95E9F7F12CBFCF80
:1049600080E0E8CFA601652D842D0E94DB06811131
:1049700024C081E08E25B82FB170CB2E80FF2BC0D4
:104980004E2D652D842D0E94500AD82E811123C0F2
:10499000498A5A8A89899A890E94690C292F229505
:1049A0002F70223060F0243088F49F7061F0F8019D
:1049B0009581907F41F4FD2C92CF80E0DCCF9F70F9
:1049C00011F08823C1F3805E8830A8F3C8010E94EB
:1049D000CD19DC2CF0CFEE2009F481CF8091B70106
:1049E00081608093B701BACF8B2D0E94DB068111C5
:1049F00024C0D80111968C9111978A111EC08C91F8
:104A00008B111BC02091B8013091B90116968D9180
:104A10009C9117972817390781F4E1100EC015965D
:104A20003C92C8010E94CD1988E0F801A2EBB1E0E8
:104A300001900D928A95E1F752CFC8010E94750C42
:104A4000882339F1EE2029F18091B7018032A0F05E
:104A50002091B2013091B3013A8729871B86DD8608
:104A6000CC868E878091B8019091B901988B8F8701
:104A7000CE0109960E94CD1988E0F801A2EBB1E0C1
:104A800001900D928A95E1F70E947223FF24F3941E
:104A900026CFC8010E94CD19F9CF832D807F09F45C
:104AA00052CF9090B2018090B3014091B5015091E6
:104AB000B601682D892D0E94DB0681111CC0F8010A
:104AC0008181881118C08081891115C02091B80199
:104AD0003091B901868197812817390761F4E11077
:104AE0000AC03582C8010E94CD1988E0D5011D9207
:104AF0008A95E9F7F4CEC8010E94750C882349F223
:104B0000EE2039F28091B701803208F4B5CF2091C0
:104B1000B2013091B3013A8329831B82DD82CC82BA
:104B20008E838091B8019091B90198878F83CE01CF
:104B30000196A0CF82EB91E00E94AC0C80913E04E4
:104B400090913F048816990680F6FE2CEE2009F419
:104B5000A0CFE090B201D090B3014091B501509147
:104B6000B6016D2D8E2D0E94DB06811128C0F80143
:104B700081818D1124C080818E1121C02091B801C6
:104B80003091B9018681978128173907C1F4809146
:104B9000430482FD49CF9091B70190FD45CF907FAE
:104BA00009F442CF8091B7018583903F09F439CF52
:104BB000982F907F905F8F70892B858332CFC801AB
:104BC0000E94750C811158CF8091B701816080934C
:104BD000B701C8010E94CD1982CEEE2009F459CF49
:104BE000C8010E94750CF82E882309F452CF88E082
:104BF000F801A2EBB1E001900D928A95E1F7809166
:104C0000B2019091B3010E94690C0E94722367CE99
:104C1000CF93DF93CDB7DEB760970FB6F894DEBFC2
:104C20000FBECDBF29873A874B875C876D877E870C
:104C30008F87988BCE0109960E94E02381112FC0A7
:104C400088E0FE013996DE01119601900D928A9559
:104C5000E1F74C855D856A8589850E94DB068111B7
:104C60001EC0A091BA01B0E0CD01019687709927CE
:104C70002091FB012817190609F193E0AA0FBB1F29
:104C80009A95E1F7A554BE4F98E0FE013196019048
:104C90000D929A95E1F78093BA010E94700A809173
:104CA000FB019091BA01891317C060960FB6F89472
:104CB000DEBF0FBECDBFDF91CF9108950E946D1171
:104CC0001092BA011092FB0188E0E2EBF1E0DF0103
:104CD0001D928A95E9F7E3CFB8E08B9FC0011124BC
:104CE00085549E4F0E94E0238823F9F28091FB01B6
:104CF00090E00196877099278093FB01D0CFEF92C7
:104D0000FF920F931F93CF93DF9380916E038823BD
:104D100061F0C0916D038CE0F82E80916E03C8178E
:104D200058F010926E0310926D03DF91CF911F9196
:104D30000F91FF90EF900895EE24E394EC0EE09233
:104D40006D030C2F10E0CF9DE0011124C159DC4F01
:104D50004B815C81698188810E94DB0681111DC0C5
:104D60008E819F81892B21F488859985019651F444
:104D7000288139814A815B816C817D818E819F810F
:104D80000E940826F09EF001F19EF00D1124E159D9
:104D9000FC4F1482138210923F05CE2DBECF10928D
:104DA0001204109211041092120180911004809349
:104DB0000F040E9414070C947F263F924F925F923B
:104DC0006F927F928F929F92AF92BF92CF92DF921B
:104DD000EF92FF920F931F93CF93DF93C0910F0435
:104DE00097E0892E01E010E02CE0322E3EEF932E6A
:104DF00044244394809110048C1315C00E947F2694
:104E0000DF91CF911F910F91FF90EF90DF90CF90A6
:104E1000BF90AF909F908F907F906F905F904F90DA
:104E20003F900C941407D0E0FE01EE0FFF1FE95FE6
:104E3000FB4F80819181889ED001899EB00D112405
:104E4000A153BC4F14962C911497211157C0509028
:104E50006E03EFE6F3E030E020E0712C5D012515F4
:104E600008F04AC0E284F384D501CD90DC906FEF66
:104E70007FEF612C462D50E0DA01AA0FBB1FAC0D6D
:104E8000BD1D0D90BC91A02D109731F0EA16FB06C8
:104E900009F4BA016394EECF6F3F7607A1F1D80110
:104EA00002C0AA0FBB1F6A95E2F77A2AB80102C0B6
:104EB000660F771F6A94E2F7AB01415051097416EF
:104EC0001506F9F4329EF001339EF00D1124E159DC
:104ED000FC4F889ED001899EB00D1124A153BC4F78
:104EE00012962D913C91139737832683908291825D
:104EF0009187808715964C920E94E6062196C37092
:104F000079CF148213822F5F3F4F3C96A8CF2F9208
:104F10003F924F925F926F927F928F929F92AF9249
:104F2000BF92CF92DF92EF92FF920F931F93CF9396
:104F3000DF93CDB7DEB769970FB6F894DEBF0FBE2B
:104F4000CDBF942F498B252F5A8B6B8B7C8B8D8BF0
:104F50004C895D89622F892F0E94DB06811109C06F
:104F6000809195019091960101969093960180937E
:104F700095018B89811110923F051D861E861F8623
:104F8000188A85E0FE017196DE01199601900D9256
:104F90008A95E1F780910B0582FD1EC0809128045F
:104FA00090912904892BC1F00E9426062091FD01D1
:104FB0003091FE01821B930B20912804309129042B
:104FC0008217930720F08091FF0182FFF5C10E94B4
:104FD000D10981110E9497094C855D856A85898573
:104FE0000E94DB06811111C061E0CE0109960E948A
:104FF000AC0C6C018B8527EFC2162CE5D20681F430
:10500000882321F181E08093120129853A854B851F
:105010005C856D857E858F8598890E940826C5C030
:1050200038EFC3163CE5D30629F4882379F00E94B3
:10503000CF26EBCF49EFC4164CE5D40639F48823CC
:1050400029F0809112018111F2CFDCCF0FEC13E037
:10505000512CB12CA12C22242394312C2EEF422E42
:10506000F8014081518188248A94982C20E0822F75
:1050700090E0FC01EE0FFF1FE40FF51F60817181CE
:105080006115710531F0C616D70609F44C012F5F82
:10509000EECFF12CFFEF8F169F0609F448C0F80100
:1050A0004481F09012018F2D411180E0F82FF170B2
:1050B000FF2EF801E58086819B85992309F40CC1B8
:1050C000FF2009F409C160903C0470903D04E11098
:1050D00012C0A10101C0440F8A94EAF7842B868391
:1050E00080916B0390916C038615970520F4709264
:1050F0006C0360926B03C10102C0880F991F2A954F
:10510000E2F70197F80126812817190681F48091AA
:10511000110490911204009709F460C00E940B06DC
:105120006816790608F05AC021E0F80124835F2848
:10513000FFEFAF1ABF0A095F1F4F28E0A216B104A4
:1051400009F08ECF8B85882309F421C1552009F4FD
:105150001EC10E9426069093120480931104809130
:105160006E03883010F591E0980F90936E0398E0ED
:10517000FE013996DE01119601900D929A95E1F7A4
:105180003CE0839FC001112481599C4F28E0FE011F
:105190003196DC0101900D922A95E1F72FEF3FEF58
:1051A000FC0131872087D386C28669960FB6F894B2
:1051B000DEBF0FBECDBFDF91CF911F910F91FF904A
:1051C000EF90DF90CF90BF90AF909F908F907F90A7
:1051D0006F905F904F903F902F90089580910F04B3
:1051E00050911004982FF0E0E0E0851314C09093E4
:1051F0000F04E017F10709F49ACF90E0FC01EE0FDD
:10520000FF1FE95FFB4FB182A0820196837099274F
:10521000809310048CCF682E712CF301EE0FFF1FCA
:10522000E95FFB4F2081318147E0429FD001439FDE
:10523000B00D1124A153BC4F6D917C911197798FC2
:10524000688F40E020E030E0E32FF0E0EE0FFF1F3A
:10525000688D798DE60FF71F80809180811491040D
:10526000E1F0F8010190F081E02DFF8BEE8B20E062
:1052700005C08616970609F44F2D2F5FE22FF0E048
:10528000EE0FFF1F6E897F89E60FF71F6081718126
:105290006115710571F73F5FD7CF4423D1F0F80155
:1052A000231708F0FD0121E024830E171F0721F4C6
:1052B00090930F04F42E3BCF981305C0AE17BF0791
:1052C00011F49F5F937093012F5F3F4F822F837084
:1052D0008CCFF0E0E0E0F7CF90E0E1101FC0B1012B
:1052E00002C0660F771F2A95E2F79B012150310912
:1052F0008217930731F4442309F447C0C5010E9483
:10530000E606C10101C0880F8A94EAF7982F9095AC
:10531000F801868189238683FE2C09CF9C01082C05
:1053200002C0359527950A94E2F7A90141705527E7
:10533000BC016150710986239723892B11F5452BF8
:1053400001F1F80182819381892BC1F01B821C82BB
:105350001D821E8249824A820E9426068160582F41
:105360009D838C83F801828193818F839887298123
:105370003A814B816D817E810E940826F801158259
:10538000C0CFF22FF170EF2EBCCFEF2CBACF90919F
:105390000F0480911004981731F00E94DD265520EB
:1053A00009F433CE02CF0E947F261092120410928D
:1053B00011040E941407F3CF82E00E94171107CE58
:1053C000CF93DF9300D000D00F92CDB7DEB790938C
:1053D000430380934203811520E2920748F40F9023
:1053E0000F900F900F900F90DF91CF910C948B1630
:1053F0008EEF89838A831B820E9426068160782F24
:105400009D838C8349815A816B818D810F900F9090
:105410000F900F900F90DF91CF910C9487270F93EF
:105420001F93CF93DF938C01EB016BE572E08C2F20
:105430000E94990D892BA1F4809144049091450418
:105440000E94BF0BDD27CD5ADD4F8881F801108205
:105450001882833009F148F4813059F0823081F0AC
:10546000DF91CF911F910F9108958430D1F0853055
:10547000B9F780915B0290915C02009789F306C0B6
:1054800080915D0290915E02009799F3DF91CF9138
:105490001F910F910C94E02980915F02909160021E
:1054A000F3CF8091610290916202009779F7209189
:1054B0005B0230915C0280915D0290915E02211549
:1054C0003105D9F2009711F7C901E0CFCF93DF93EF
:1054D00000D000D00F92CDB7DEB7909343038093F6
:1054E0004203811520E2920748F40F900F900F902D
:1054F0000F900F90DF91CF910C947C188EEF8983E1
:105500008A8381E08B830E9426068160782F9D83A9
:105510008C8349815A816B818D810F900F900F9000
:105520000F900F90DF91CF910C948727CF93DF934B
:10553000EC010E94662A80914404909145040E94E7
:10554000BF0BCE01DF91CF910C94E0290F931F93F5
:10555000CF93DF938C01862F6BE572E00E94990D4B
:10556000892BC9F4C0915B02D0915C02209799F01D
:10557000F8018081833069F4CE010E94962ACE0121
:105580000E94962ACE01DF91CF911F910F910C942A
:10559000962A8430B8F7DF91CF911F910F9108952B
:1055A0000F931F93CF93DF938C01EB016BE572E0B8
:1055B0008C2F0E94990D892B09F064C0FE01FF27F2
:1055C000D8018C91ED5AFD4F8130D9F419969C91F8
:1055D0001997992311F080830CC01A969C919923F6
:1055E000D1F382E0808380915D0290915E0200970A
:1055F000D9F480915B0290915C02009709F442C05B
:1056000013C08230E9F519968C91199781112DC03C
:105610001A968C9181110EC083E0808380915F0285
:1056200090916002009719F1DF91CF911F910F9136
:105630000C94662A84E080838091610290916202DA
:10564000009791F780915B0290915C020097F9F0CE
:105650000E94962A80915D0290915E02009721F748
:1056600080915B0290915C02DFCF85E08083809126
:105670005B0290915C02009729F00E94962AF0CF7D
:1056800086E08083DF91CF911F910F9108958091E3
:105690005D0290915E02B1CF1F920F920FB60F92F2
:1056A00011242F933F934F935F936F937F938F9327
:1056B0009F93AF93BF93CF93DF93EF93FF93D091DB
:1056C000E900DF708091EC00C82FC17080FDC0E858
:1056D0001092E9008091F000877F8093F000789429
:1056E0000E9482111092E9008091F00088608093FE
:1056F000F000CD2BCF70C093E900FF91EF91DF91C7
:10570000CF91BF91AF919F918F917F916F915F9159
:105710004F913F912F910F900FBE0F901F901895B2
:105720001F920F920FB60F9211242F933F934F9316
:105730005F936F937F938F939F93AF93BF93EF93F9
:10574000FF938091E10082FF09C08091E20082FF17
:1057500005C08091E1008B7F8093E1008091DA00A9
:1057600080FF24C08091D80080FF20C08091DA00A3
:105770008E7F8093DA008091D90080FF9DC080E108
:1057800089BD82E189BD09B400FEFDCF81E080932F
:105790003D0580910F05811109C00E9454040E94AB
:1057A00047058091E20084608093E2008091E100EF
:1057B00080FF17C08091E20080FF13C08091E2005B
:1057C0008E7F8093E2008091E20080618093E2000E
:1057D0008091D80080628093D80019BC85E08093C6
:1057E0003D058091E10084FF2BC08091E20084FFA1
:1057F00027C080E189BD82E189BD89B5982F91706C
:1058000080FFFBCF8091D8008F7D8093D80080915E
:10581000E1008F7E8093E1008091E2008F7E809393
:10582000E2008091E20081608093E2008091340583
:10583000882309F447C084E080933D0580913D05AD
:105840008091E10083FF27C08091E20083FF23C0A5
:105850008091E100877F8093E10082E080933D05A5
:10586000109234058091E1008E7F8093E100809159
:10587000E2008E7F8093E2008091E200806180935D
:10588000E20042E060E080E00E9415058091F000B7
:1058900088608093F000FF91EF91BF91AF919F914D
:1058A0008F917F916F915F914F913F912F910F90C9
:1058B0000FBE0F901F90189519BC10923D051092C5
:1058C0000F0574CF8091E30087FD93E090933D0531
:1058D000B5CF78941F921FB61F9211248F939F9378
:1058E000AF93BF938091060590910705A09108059D
:1058F000B09109050196A11DB11D809306059093F5
:105900000705A0930805B0930905BF91AF919F913A
:105910008F911F901FBE1F9018951F921FB61F9248
:1059200011248F939F93AF93BF93809105058111AD
:1059300013C08091060590910705A0910805B091CC
:1059400009054196A11DB11D809306059093070599
:10595000A0930805B0930905BF91AF919F918F91D6
:105960001F901FBE1F901895CDB7DEB7E4970FB6F6
:10597000F894DEBF0FBECDBF84B7877F84BF0FB65C
:10598000F894A895809160008861809360001092DF
:1059900060000FBE80E890E00FB6F894809361003D
:1059A000909361000FBE85B7806885BF85B780681A
:1059B00085BF8EEB97E090937101809370010E94F8
:1059C000AD0D0E94AC0E0E94030E0E94C90B819A7D
:1059D0000E9454040E9447058091E20084608093F5
:1059E000E200789480913D058823A1F01091E900B0
:1059F0001F709091EC00892F817090FD80E8182B2A
:105A00001092E9008091E80083FD0E9482111F70CE
:105A10001093E90082E084BD93E095BD9AEF97BDB5
:105A200080936E000E94BA0C811102C00E942E1554
:105A30000DE411E0D8018D918D018F3F11F00E948E
:105A4000C007B1E002351B07A9F702E511E0F80134
:105A500081918F018F3F11F00E94C007F1E0003665
:105A60001F07A9F78AE0E9E4F2E0DF01282F1D9281
:105A70002A95E9F7E7E2F2E0DF011D928A95E9F75E
:105A800090E080E00E94BF33893E9E4F21F40E9447
:105A9000BA0C811102C00E94631982E090E00E945A
:105AA000B733809331020E94D30C90930B058093FF
:105AB0000A050E94050FEFE3FCE93197F1F700C0FA
:105AC00000000E94050F8091490280FF08C06FEF1F
:105AD0007FEF90E080E00E94E3330E949B0B83E025
