:100000000C9485020C94CC020C94CC020C94CC027F
:100010000C94CC020C94CC020C94CC020C94CC0228
:100020000C94CC020C94CC020C9474200C944821B7
:100030000C94CD1A0C94CC020C94CC020C94CC02EF
:100040000C94CC020C94CC020C94CC020C94CC02F8
:100050000C94CC020C94241B0C94CC020C94CC0277
:100060000C94CC020C94CC020C94CC020C94CC02D8
:100070000C94CC020C94CC020C94CC020C94CC02C8
:100080000C94CC020C94CC020C94CC020C94CC02B8
:100090000C94CC020C94CC020C94CC020C94CC02A8
:1000A0000C94CC020C94CC020C94CC0229002000BD
:1000B0001F001E002100220023002400250026002E
:1000C0002E002D0027002A002B0014001A00080023
:1000D000150017001C0018000C00120013002F0060
:1000E00030003100390004001600070009000A0042
:1000F0000B000D000E000F003300340028004C00F0
:10010000E10000001D001B000600190005001100A1
:100110001000360037003800E5000151E000E30030
:10012000E2002C00000000000000000000000000C1
:10013000E600E7000151E40035003C003B003A00D6
:100140003D003E003F0040004100420045004400A9
:1001500043004C0039000100520001000100010081
:10016000010001004900010046004700480001006D
:100170000100500051004F0001000100010001008A
:10018000010001004A004B000100010001000100D4
:1001900001000100010001000100AA00A900A8005F
:1001A0004D004E00010001000100010001000100AE
:1001B000000000000000000000000000010001003D
:1001C0000100010001000100010001000100010027
:1001D0000100010001000100010001000100010017
:1001E0000100010001000100010001000100010007
:1001F00001000100010001000100010001000100F7
:1002000001000100010001000100010001000100E6
:1002100001000100010001000100010001000100D6
:1002200001000100010001000100010001000100C6
:1002300001000100010001000100010000000000B8
:1002400000000000000000000100010001000100AA
:100250000100010001000100010001000100010096
:100260000100010001000100010001000100010086
:100270000100010001000100010001000100010076
:100280000100010001000100010001000100010066
:100290000100010001000100010001000100010056
:1002A0000100010001000100010001000100010046
:1002B0000100010001000100010001000100010036
:1002C000010001000100010000000000000000002A
:1002D000000000000100010001000100000000001A
:1002E000000000002A2B2800000000000000000091
:1002F0000000000000000029000000002C1E342037
:10030000212224342627252E362D3738271E1F205C
:100310002122232425263333362E37381F040506A1
:100320000708090A0B0C0D0E0F10111213141516E5
:100330001718191A1B1C1D2F3130232D35040506E3
:100340000708090A0B0C0D0E0F10111213141516C5
:100350001718191A1B1C1D2F3130354C00000000D6
:10036000000000000000000000000000000000008D
:10037000000000000000000000000000000000007D
:100380007E0F00D4FFFFFFC7000000782403770032
:1003900069006C00620061002E007400650063005B
:1003A0006800200057005400360030002D00440043
:1003B00000001603770069006C00620061002E00E7
:1003C000740065006300680000000403090409026A
:1003D0005B00030100A0FA09040000010301010011
:1003E00009211101000122400007058103080001D5
:1003F000090401000203000000092111010001228B
:1004000022000705820320000107050303200001E5
:10041000090402000103000000092111010001226A
:100420006D00070584032000011201100100000087
:100430000882650D060100010200010660FF0961E6
:10044000A1010962150026FF0095207508810209A7
:1004500063150026FF00952075089102C00501096B
:1004600080A101850319012AB700150126B700955F
:100470000175108100C0050C0901A1018504190155
:100480002AA002150126A002950175108100C00561
:10049000010906A1018505050719E029E7150025D1
:1004A000019508750181020507190029EF1500253E
:1004B0000195F07501810205081901290595057559
:1004C000019102950175039101C005010906A10181
:1004D000050719E029E71500250195087501810236
:1004E0009501750881010507190029FF150026FFF0
:1004F00000950675088100050819012905950575FF
:10050000019102950175039101C011241FBECFEF27
:10051000DAE0DEBFCDBF04B603FE27C080919F02A4
:100520009091A002A091A102B091A2028730904BBD
:10053000A740B04BD1F410929F021092A0021092EB
:10054000A1021092A20214BE84B7877F84BF0FB6A7
:10055000F894A89580916000886180936000109263
:1005600060000FBEE0E0F8E3099511E0A0E0B1E023
:10057000EAE8F9E402C005900D92A839B107D9F76D
:1005800022E0A8E9B1E001C01D92AF39B207E1F75E
:100590000E94321D0C9488240C940000819A0C94C3
:1005A000660ECF93C82F0E94C704882319F0C1FF9D
:1005B00004C0899A81E0CF9108958998FBCF81E0AA
:1005C000089581E008950C94E10208950C94E502E9
:1005D0001F93CF93DF9300D000D00F92CDB7DEB73B
:1005E00049835A836B833091BD0189819A8131118E
:1005F0001DC06623B9F02223A9F00E94C717182F47
:10060000682F89819A810E94731769817A81812F6D
:100610000F900F900F900F900F90DF91CF911F913F
:100620000C941F0B0E949F17182FEFCF0E94C71723
:1006300069817A81EDCFFC01262F40815181628151
:10064000738184810C94E802CF93DF93EC0160E026
:100650000E941B03BE01DF91CF910C94E6028F92A2
:100660009F92AF92BF92CF92DF92EF92FF920F9341
:100670001F936B017C0181E090E0A0E0B0E04C01B1
:100680005D0104C0880C991CAA1CBB1C4A95D2F7BA
:10069000B501A4014C015D0104C0880C991CAA1C81
:1006A000BB1C2A95D2F7482959296A297B2904C0FD
:1006B000880F991FAA1FBB1F0A95D2F78A019B01B9
:1006C0000C211D212E213F2104171507260737076E
:1006D00089F48C299D29AE29BF29BC01CD011F9128
:1006E0000F91FF90EF90DF90CF90BF90AF909F90D1
:1006F0008F90089580959095A095B0958C219D211F
:10070000AE21BF21EACF0F93382F262F609123020D
:10071000709124028091250290912602042F432F8C
:100720000E942F030F910C94B1160E94731B0E941C
:100730001319811102C00E94B7190C94C4060C94BD
:10074000C70608950E94DD120E94A1032FEF84E3E3
:100750009CE0215080409040E1F700C000000C94E4
:10076000481B0F931F93CF93DF93EC0161E00E942E
:100770001B038C01BE010E946709882359F1BE0149
:10078000C8010E94E302882329F1BE01C8010E942A
:10079000560C8823F9F0BE01C8010E94A80C8823DA
:1007A000C9F0BE01C8010E94CB0D882399F08A814F
:1007B000882339F001158CE5180751F00E3D1C45D2
:1007C00079F0CE01DF91CF911F910F910C94DF0250
:1007D0000E94A20380E0DF91CF911F910F910895B5
:1007E0000E94B719F7CFDF92EF92FF920F931F93FA
:1007F000CF93DF93E82FF0E0E452FD4FD490282F01
:1008000026952695269530E0F901E458FC4F049191
:10081000877010E0082E02C0159507950A94E2F73C
:1008200001701127F901E459FC4FE490F12C082ED6
:1008300002C0F594E7940A94E2F791E0E922FF24DC
:10084000F901E45AFC4FC491D0E002C0D595C79598
:100850008A95E2F7C170DD270115110519F081EEC7
:100860000E947B0FE114F10419F086EE0E947B0FC9
:100870008D2D0E946B10EF2819F086EE0E94051056
:10088000012B19F081EE0E940510CD2B51F08CE266
:10089000DF91CF911F910F91FF90EF90DF900C941B
:1008A0006B10DF91CF911F910F91FF90EF90DF9030
:1008B0000895EF92FF920F931F93CF93DF93EC0174
:1008C000162F0AE08881882309F454C0813009F08A
:1008D0004EC08981813099F47E0122E0E20EF11C44
:1008E0008A810E946B10E7012196812F815050F37D
:1008F000EFE9FFE03197F1F700C00000F7CF823059
:1009000041F47E0182E0E80EF11C8A810E947B0F97
:10091000EACF833041F47E01E2E0EE0EF11C8A81E1
:100920000E940510E0CF843011F02196DDCF2A819E
:10093000229690E080E0AE014F5F5F4F2053330B73
:100940002A30310548F0019778F2EFE9FFE031975E
:10095000F1F700C00000F7CF089FB001099F700DAC
:100960001124C901860F971F2981EA01E4CF0E9453
:10097000F303BACFDF91CF911F910F91FF90EF90CA
:10098000089560E00C94590408950C94C40481E027
:100990000895CF93C82F0E94C5048C2FCF910C943B
:1009A000D10290E080E008950895FC01EE0FFF1F52
:1009B000E457FC4F859194910895CF93DF930E9463
:1009C0001F0B0E94E905EC01811520E5920708F054
:1009D00041C0811530E4930708F0B4C0803E910512
:1009E00018F5803C910508F09DC0883A910570F497
:1009F000853A910508F08EC081309105F9F0009795
:100A0000E9F00497D8F4D0E0C0E018C08F3B91051E
:100A1000D0F7C85AD0E0CC0FDD1FCD5EDE4F099075
:100A2000D881C02DD4640AC08115904258F4C115F4
:100A300081E0D80718F4C83ED10528F7CE01DF9130
:100A4000CF910895C11590E3D90708F071C0CE0188
:100A50009F706AC0811525E5920758F5811534E528
:100A6000930708F09EC0811542E5940750F4C11524
:100A700081E5D80708F469C0DC2FCC27C16FD06AA4
:100A8000DDCF982F969596959E0123703327C1153B
:100A9000D34508F077C0C1E0D0E002C0CC0FDD1F25
:100AA0002A95E2F720E2929FC0011124C82BD92B8E
:100AB00067C0C11589E5D807A8F4C11598E5D9071D
:100AC00008F074C0C11526E5D20708F09CCF8C2F22
:100AD0000E948006C82FD0E0DC2FCC27CC27DF7106
:100AE000D062ACCFC1153AE5D30708F464C0CE019B
:100AF00090568115904208F086CF8D2F8F710E94FD
:100B0000800690E0982F882788279F719C012C2BC6
:100B1000E901E6CFC55AD0E0CF5BDE4FC881D0E017
:100B2000D0648CCF805C91090E94D504EC0186CF03
:100B3000CE019927D3FF03C0EC01D86C7FCFEC0125
:100B4000D06C7CCFDF70D06A79CFCE01E4E096958F
:100B50008795EA95E1F783702C2F269526952370CB
:100B600090E2299F90011124382B8C2F8370C1E0D3
:100B7000D0E002C0CC0FDD1F8A95E2F7C22BD32B49
:100B8000DC685CCFC1E0D0E002C0CC0FDD1F2A954D
:100B9000E2F730E2939FC0011124C82BD92BDA6809
:100BA0004DCFD82FCC27C46FD06A48CFDC2FCC27AD
:100BB000C06FD06A43CF8C2F8F700E94800634E0C4
:100BC000D695C7953A95E1F7CF709C2FEC01D06987
:100BD00035CF82389105B1F1B0F48133910509F434
:100BE00075C048F48932910509F469C08A329105CB
:100BF00009F473C008958533910509F459C0893308
:100C0000910501F10895833E9105A9F138F4803EE4
:100C10009105F9F0823E910549F10895863E9105CE
:100C2000A9F1873E9105C9F1843E910519F52091FE
:100C30008D0221FF1FC080918C0284FD14C087EEBD
:100C400090E0089520918C022370A1F080EE90E056
:100C5000089520918C0220FD47C030918D0230FF15
:100C600009C024FF44C090E080E004C020918C02C1
:100C700022FDF7CF089520918C0222FD3BC03091D8
:100C80008D0230FDE3CF24FFF5CFEDCF20918C0214
:100C900023FFF0CF24FDE7CFD2CF20918C0223FD9C
:100CA0002CC030918D0231FFEECF84EE90E008959C
:100CB00020918C0225FFDECF89E290E008952091FB
:100CC0008C0225FFD7CF85E390E0089520918C0218
:100CD00026FFD0CF8AE290E0089520918C0226FF73
:100CE000C9CF81E390E0089589E390E0089583EE11
:100CF00090E0089582EE90E0089586EE90E00895E9
:100D000090918C0292FF06C0282F28712830F9F4A8
:100D1000877F846093FF06C0282F28712831F1F463
:100D2000877E846120918D0220FF06C0382F3871A4
:100D30003830D9F4877F816021FF06C0282F2871C1
:100D40002831D1F4877E816194FD877E0895282F14
:100D500024712430F9F68B7F8860DCCF282F247132
:100D6000243101F78B7E8861DDCF382F317131302E
:100D700019F78E7F8860E0CF282F2171213121F76C
:100D80008E7E8861E1CF08950C94C30608950C947B
:100D9000C606E82FF0E0EE0FFF1FE258FD4F8081FE
:100DA00091810895089580EA8A95F1F7089500C029
:100DB00008950C94D306F894E82FE295EF70F0E0D4
:100DC00031A1282F2F7081E090E001C0880F2A9573
:100DD000EAF7982F9095932391A392A1892B82A350
:100DE000789408950F931F93CF93DF9386EC0E941E
:100DF000DB0680EF0E94DB0684EF0E94DB0686EFB5
:100E00000E94DB0687EF0E94DB06C4E4D1E002E526
:100E100011E089910E94DB060C171D07D1F7109293
:100E200075021092740210927F0210927E0210924C
:100E30007702109276021092810210928002109234
:100E4000790210927802109283021092820210921C
:100E50007B0210927A021092850210928402109204
:100E60007D0210927C02109287021092860285E029
:100E70000E94C407DF91CF911F910F910C949503AD
:100E8000AF92BF92CF92DF92EF92FF920F931F9398
:100E9000CF93DF9302E511E0C4E7D2E0C12CD12C5F
:100EA000EE24E394F12CF80181918F01F894E82F5E
:100EB000E295EF70F0E021A18F70A70102C0440F0E
:100EC000551F8A95E2F7CA01922F982B91A392A100
:100ED0008095892382A378940E94D706E4E4F1E008
:100EE00030E020E0B12CA12C4191A42FA295AF704D
:100EF000B0E090968C9190E04F7002C095958795E8
:100F00004A95E2F780FD3BC0C701022E02C0880F60
:100F1000991F0A94E2F7A82AB92A2F5F3F4F2E3073
:100F2000310511F7F801319780810E94DB0654E00A
:100F3000C5120E94D90688819981A816B90611F1B7
:100F4000B982A88281E0D82AC394229685E0C8128B
:100F5000AACF2D2D45E06EE772E084E792E00E9473
:100F6000CB080E949F038D2DDF91CF911F910F9190
:100F7000FF90EF90DF90CF90BF90AF90089590E0FA
:100F800080E0C9CF80E0DFCFCF93C82F2EE0829FD3
:100F9000C00111240E941B2380939E0190939F0106
:100FA0009C0180E04BEF8C1302C0CF910895F901B2
:100FB0009EE041939150E9F78F5F225F3F4FF3CF5F
:100FC0002F923F924F925F926F927F928F929F9259
:100FD000AF92BF92CF92DF92EF92FF920F931F9347
:100FE000CF93DF9300D000D0CDB7DEB7742E109230
:100FF0009D0100919E0110919F011A830983FB01BD
:10100000612C30E0E22EF12C88248394912C5BEF4C
:10101000A52EB12C371119C060929D010F900F9031
:101020000F900F90DF91CF911F910F91FF90EF9054
:10103000DF90CF90BF90AF909F908F907F906F90F8
:101040005F904F903F902F90089549815A815C8323
:101050004B8370E060E0AB81BC811D91BC83AB83AE
:101060001B3F69F1412F50E02117C0F18701041B9C
:10107000150BA8011A01550F44085508B5E02B16A9
:1010800031044104510488F14B815C814150510984
:101090000BEFDA010C93C080D180DC010D911C9123
:1010A0000C251D25A401062E02C0440F551F0A94CD
:1010B000E2F7402351234C255D25518340836F5F28
:1010C0007F4F6E30710539F609811A81025F1F4F1B
:1010D0001A8309833F5F329602969CCFD501A41BE9
:1010E000B50BAD014E0D5F1DC5CF66246394E7CFF0
:1010F0008F929F92AF92BF92CF92DF92EF92FF9228
:101100000F931F93CF93DF93A0919E01B0919F0106
:1011100030919D016C01FB0190E0AA24A394B12CB5
:101120008BEF94130FC030939D01DF91CF911F91EE
:101130000F91FF90EF90DF90CF90BF90AF909F9076
:101140008F900895E601099119916E016191719155
:1011500048018626972670E060E07501062E02C0E1
:10116000EE0CFF1C0A94E2F7E820F9208D01060F2F
:10117000171FE801EF2869F058815B3F11F42883BD
:1011800031E06F5F7F4F6E30710539F71E969F5FBC
:10119000C8CF8883F6CFDF92EF92FF920F931F9311
:1011A000CF93DF93EC018B01E42ED22E0E94FD1A27
:1011B00060919B0170919C0190939C0180939B0195
:1011C00020919A0130E0261B370B820F931F6BEFA3
:1011D00070E00E94FA22F82E80939A0180919D017E
:1011E000882331F02F2D4E2DB801CE010E94E0074B
:1011F000DD2069F02F2D4E2DB801CE01DF91CF916A
:101200001F910F91FF90EF90DF900C947808DF9181
:10121000CF911F910F91FF90EF90DF90089582E2A0
:1012200090E00E944624813289F483E290E00E949B
:101230004624803159F484E290E00E94462491E0F3
:10124000803109F090E0892F8170089580E0FCCF13
:10125000CF93C82F6FEF811161E282E290E00E948C
:101260005424C1110CC0CFEF6C2F83E290E00E9498
:1012700054246C2F84E290E0CF910C945424C0E16C
:10128000F3CF80E00E9428090C940D19089585E29F
:1012900090E00E944624682F70E090E080E008957E
:1012A00085E290E00C9454240E9446090E940F09A4
:1012B00081110CC060E070E0CB010E9450090E94D7
:1012C000970A0E94830B81E00C9428090895CF931C
:1012D000FB01C281CC2309F19C0122513F45203101
:1012E000310520F582510E94930BC0E08C2FCF91E5
:1012F000089581E00E94D71643E062E081E00E94F9
:101300008303F3CF81E00E94F81643E062E081E0BE
:101310000E948303EBCF82E0F6CF8031FFE59F0789
:1013200089F381319F45B9F3C1E0E0CF8031EFE52A
:101330009E07F9F281319F45C9F682E0DBCF2FEF9E
:10134000FC0120830895EF92FF920F931F93CF9398
:10135000DF93EC01062FE881E150E33108F05EC035
:10136000F0E0E657FB4D0C940E23198289E08A8346
:10137000602FCE01DF91CF911F910F91FF90EF90E1
:101380000C94271C8981823069F0833071F08130A0
:10139000D9F40E94091B0E9414236A837B838C83E7
:1013A0009D83E6CF0E944709F6CF7E0110E0812F92
:1013B0000E94C906F701928383831F5FF2E0EF0E5C
:1013C000F11C1530A1F7D4CF602FCE010E949F09E8
:1013D000CFCF89818230C1F76A817B818C819D81E9
:1013E0000E9414230E945009C3CF4B816A818981D6
:1013F0000E94690A9827892798279D838C83B8CFF4
:101400002C813D813227232732274B816A818981B4
:101410000E94820AADCF0E94970AAACF8FEF8883DD
:10142000A7CF0E942C0B8983A3CF0E942E0B982755
:10143000892798279A8389839BCF6B8170E0898164
:101440009A81AE014C5F5F4F9827892798270E94A9
:10145000310B8ECF6B8170E089819A81AE014C5F38
:101460005F4F9827892798270E94580B81CF0E94A9
:10147000830B7ECF0E94570AD6CF6B8170E08981A3
:101480009A81AE014C5F5F4F9827892798270E9469
:10149000CF0A6ECF6B8170E089819A81AE014C5F7B
:1014A0005F4F9827892798270E94F50A61CF84E02B
:1014B000089550E0440F551F9CE1699F400D511D58
:1014C00011249CE8899F400D511D1124CA01869664
:1014D00008950F931F93CF93DF930E94590A8C01B5
:1014E0000E944624C82FD0E0DC2FCC27C8010196EB
:1014F0000E9446249E01282BC901DF91CF911F91A4
:101500000F9108950F931F93CF93DF93122F032F03
:101510000E94590AEC01602F0E945424612FCE01D1
:101520000196DF91CF911F910F910C945424AF92AB
:10153000BF92CF92DF92EF92FF921F93CF93DF93F0
:101540008CEAC82E80E0D82ED0E07601C0E014C02E
:10155000F50125913491412F6C2F8D2F0E94820A25
:1015600082E0A80EB11C1F5F1E3091F78CE1E80EDF
:10157000F11CCF5FC53019F0570110E0E9CFDF5FF4
:101580008CE8C80ED11CD43001F7DF91CF911F91A8
:10159000FF90EF90DF90CF90BF90AF900895EF92C3
:1015A000FF920F931F93CF93DF93EC018A017C018D
:1015B000E60EF71ECE018696CE15DF0539F4DF91D3
:1015C000CF911F910F91FF90EF900895C03322E0CB
:1015D000D20740F40E944624F80180830F5F1F4F1A
:1015E0002196E8CFF8011082F9CFCF92DF92EF92E7
:1015F000FF920F931F93CF93DF937C016A018C01BD
:10160000060F171FEC01CE018696C017D10749F4CB
:10161000DF91CF911F910F91FF90EF90DF90CF90CE
:101620000895C03322E0D20740F4FE01EE19FF090D
:10163000EC0DFD1D60810E9454242196E4CF462FBD
:10164000843038F4753028F46E3018F4672F0C9419
:10165000690A90E080E0089580E108958AEA91E0C7
:101660000895EF92FF920F931F93CF93DF93EC01B6
:101670008A017C01E60EF71ECE018A5A9D4FCE15D7
:10168000DF0539F4DF91CF911F910F91FF90EF901B
:101690000895CA3A21E0D20740F40E944624F80196
:1016A00080830F5F1F4F2196E7CFF8011082F9CF9B
:1016B000CF92DF92EF92FF920F931F93CF93DF931E
:1016C0007C016A018C01060F171FEC01CE018A5ABA
:1016D0009D4FC017D10749F4DF91CF911F910F9112
:1016E000FF90EF90DF90CF900895CA3A21E0D207A3
:1016F00040F4FE01EE19FF09EC0DFD1D60810E9412
:1017000054242196E3CFCF93DF93C6E5D2E060E087
:10171000CE010E9454242196C11584E0D807B9F760
:10172000DF91CF910895DF92EF92FF920F931F9375
:10173000CF93DF9300D000D0CDB7DEB7F82E8FE087
:101740008F1540F08FEF93E00E94462406E512E0EB
:101750008823C1F00F900F900F900F90DF91CF91E1
:101760001F910F91FF90EF90DF900895011584E095
:10177000180781F3C8010E944624811101C0FA9420
:101780000F5F1F4FF110F2CF19821A821B821C8249
:10179000DD24D39478018FEFE81AF80AC8010E947B
:1017A000462489831A828823A9F29FEF980F9330E9
:1017B00078F48A83D9820E5F1F4FC7010E944624A6
:1017C0008B83882339F2CE0101960E94C104E2CFB7
:1017D0008701F9CF0F931F93CF93DF93C42FD22F9D
:1017E000FC0182818823C9F04093A2010E94FD1A66
:1017F0009093A1018093A00180E28C0F883008F0C3
:1018000050C0C77081E001C0880FCA95EAF7DF9128
:10181000CF911F910F910C9473101091A20114138A
:1018200035C08091A0019091A1010E94151B883CB8
:10183000910560F5C0E2CD0F1D17B9F080E2810F70
:10184000883040F4177081E001C0880F1A95EAF7DC
:101850000E947A10C83048F481E09D2F977001C033
:10186000880F9A95EAF70E947310802F0E946B10E0
:10187000C830B8F4D77081E001C0880FDA95EAF774
:10188000DF91CF911F910F910C947A1080E28C0F11
:10189000883038F4C77081E001C0880FCA95EAF734
:1018A000EFCFDF91CF911F910F9108950F939C017E
:1018B000CB01233F4CE5340759F1A8F4283DFCE562
:1018C0003F0701F1293D4CE53407D1F1273D3C4567
:1018D00091F406E221EE41EE67ED7CE50E94EA0B11
:1018E00080E00F910895253FFCE53F07E9F0B0F057
:1018F000263F3C45F9F0FC018281882339F11092A2
:10190000A201EFCF07E225EE45EE68ED7CE5E6CFDC
:1019100006E221EE40EE63EF7CE5E0CF07E225EE44
:1019200044EE64EF7CE5DACF06E221EE42EE65EFAD
:101930007CE5D4CF07E225EE46EE66EF7CE5CECF20
:1019400008E221E045EE69ED7CE5C8CF81E0C9CF32
:10195000CF93DF93EC01FB018281882309F419C145
:10196000C230FCE5DF07C0F1C6319CE5D90730F095
:101970009E012A5F3C452930310570F50E942619E9
:1019800090938D0280938C02C031ECE5DE0709F460
:10199000CFC008F05BC0C8308CE5D80709F4B6C0EA
:1019A00088F5C430ECE5DE0709F4A8C0C0F4C23005
:1019B0008CE5D80709F49CC080918C028260C3300A
:1019C000DC4509F498C080918C0290918D020E94B0
:1019D00034190E94DD1280E0DF91CF91089580914B
:1019E0008C028061C630ECE5DE0709F484C080918A
:1019F0008C028860C730DC4508F47DC080918C0281
:101A0000806279C0CC308CE5D80709F489C070F4C5
:101A100080918C028C60CA30ECE5DE0709F46BC063
:101A200008F478C080918C028E7F65C0CE308CE542
:101A3000D80709F479C080918C028B7FCF30DC45C8
:101A400008F459C080918C028F7E55C0CB3FECE5E5
:101A5000DE0709F457C030F5C3318CE5D80709F427
:101A60006FC078F4C131ECE5DE0709F465C0C2311E
:101A7000DC4509F0A8CF0E94DD1280918C028F779F
:101A80003AC0C5318CE5D80709F462C008F476C0C5
:101A900080918D028160CA3FDC4509F094CF80932C
:101AA0008D0291CFCF3FFCE5DF0709F44DC088F4EC
:101AB00080918D028D7FCD3F9CE5D90781F3809188
:101AC0008D028E7FCE3FDC4550F380918D02836086
:101AD000E6CFC130FDE5DF0709F459C008F444C082
:101AE00080E0C230DD4509F06ECF0E94B9196BCF9E
:101AF00080918C02816080938C0265CF80918C02F2
:101B00008460F9CF80918D028260C9CF80918C0270
:101B10008064F1CF0E94DD1280918C028068EBCF4F
:101B200080918C028D7FE7CF80918C02877FE3CFFD
:101B300080918C028F7DDFCF80918C028F7BDBCFF9
:101B400080918C02837FD7CF80918D028C7FA7CF2D
:101B500080918C0282FB992790F921E0922790FBDB
:101B600082F990FB83F9C7CF80918D02982F9095D1
:101B700091708E7F892B90FB81F991CF0E94DD12AD
:101B800090918C02892F97FB87F98058B4CF81E020
:101B9000ACCF81E021CFCF93DF93EB0186319C4521
:101BA00011F50E945C189A81992399F08A7A91E044
:101BB00009F490E09093A301811109C089E20E9489
:101BC00037180E94A81880E0DF91CF91089585E32F
:101BD000F6CF8091A301811104C089E20E943E18D2
:101BE000F0CF85E3FBCF81E0EFCF9093A901809305
:101BF000A8010895E091A801F091A901309721F082
:101C00000190F081E02D099480E00895E091A80111
:101C1000F091A901309799F020911201222359F0F7
:101C200020918C0227FF07C0DC012C9111962C9388
:101C3000119725E02C930280F381E02D09940895FB
:101C40002091A6013091A7012817390771F09093D0
:101C5000A7018093A601E091A801F091A901309716
:101C600021F00680F781E02D099408952091A401C8
:101C70003091A5012817390771F09093A501809341
:101C8000A401E091A801F091A901309721F000840E
:101C9000F185E02D099408950E94091B6093B90114
:101CA0007093BA018093BB019093BC016093B5011E
:101CB0007093B6018093B7019093B801089585B7EA
:101CC000806885BF85B7806885BF089508950895A9
:101CD00008950C94680E0E945F0E8BE099E10E94BB
:101CE0006C1B0E94670E0C94CE0281E008950C9448
:101CF000750E089508950E94F41A0E94F2060E943B
:101D000054090E94871BECE8F2E0808180688083A0
:101D100080918C0290918D020E9434190C94690E6E
:101D20007F928F929F92AF92BF92CF92DF92EF926B
:101D3000FF920F931F93CF93DF93CDB7DEB72A9710
:101D40000FB6F894DEBF0FBECDBF0E94790E0E9481
:101D50007A0E0E94400781110E944C0E2BEAE22E5F
:101D600021E0F22E10E000E0812F0E94C9064C0114
:101D7000F701A080B180A816B906D1F18091500278
:101D800081FD0E94D206A824B924712CCC24C394CE
:101D9000D12CC5018C219D21892B21F10E94770E28
:101DA0008823B1F07E821F8321E0C4018C219D2114
:101DB000892B09F420E028870E94FD1A8160782F82
:101DC0009A8789874E815F8168858A850E94440F42
:101DD000F701808191818C259D25918380830F5F00
:101DE0000C30F8F47394CC0CDD1CFEE07F12D1CFE4
:101DF0001F5F82E0E80EF11C153009F0B5CF01112C
:101E000010C08FEF89838A831B820E94FD1A816034
:101E1000782F9D838C8349815A816B818D810E94AB
:101E2000440F0E94FA0D9091AA018917C9F00E94EF
:101E3000FA0D8093AA012A960FB6F894DEBF0FBE62
:101E4000CDBFDF91CF911F910F91FF90EF90DF9069
:101E5000CF90BF90AF909F908F907F900C94C904CB
:101E60002A960FB6F894DEBF0FBECDBFDF91CF919B
:101E70001F910F91FF90EF90DF90CF90BF90AF90A8
:101E80009F908F907F900895DF92EF92FF920F9333
:101E90001F93CF93DF93CDB7DEB72B970FB6F89490
:101EA000DEBF0FBECDBF7A878B87F42E052F162F8E
:101EB000E72ED82E61110E947C181E821D827E2D75
:101EC000EC82DD824F2D502F612F8D2D9E812B9620
:101ED0000FB6F894DEBF0FBECDBFDF91CF911F913B
:101EE0000F91FF90EF90DF900C945315FC018081CF
:101EF00091810C940918CF93C82F882309F483C0CB
:101F00008238C1F40E94FA0D81FD7DC089E30E94F0
:101F100037180E94A8182FEF81EE94E021508040DE
:101F20009040E1F700C0000089E30E943E18CF9185
:101F30000C94A8188338A1F40E94FA0D80FD63C0A8
:101F400083E50E9437180E94A8182FEF81EE94E0D5
:101F5000215080409040E1F700C0000083E5E5CFCC
:101F60008438A1F40E94FA0D82FD4DC087E40E94DE
:101F700037180E94A8182FEF81EE94E0215080407E
:101F80009040E1F700C0000087E4CFCF8CEF8C0FCA
:101F9000813A90F46C2F80910601909107010E9484
:101FA000D219882329F08C2F0E943E180E94A8186D
:101FB0008C2F0E943718BBCF80E28C0F883048F4FA
:101FC000C77081E001C0880FCA95EAF70E945F18C8
:101FD000AECFEBE5EC0FE33040F4F0E0EB57FE4F13
:101FE000808190E0CF910C94200EC85AC73158F4EC
:101FF000EC2FF0E0EE0FFF1FE95AFE4F8081918138
:10200000CF910C94360ECF910895882309F44BC0DC
:10201000823871F40E94FA0D81FF45C089E30E9465
:1020200037180E94A81889E30E943E180C94A8183B
:10203000833859F40E94FA0D80FF35C083E50E9471
:1020400037180E94A81883E5EFCF843859F40E940E
:10205000FA0D82FF28C087E40E9437180E94A81852
:1020600087E4E2CF9CEF980F913AF0F290E2980F5C
:10207000983050F4877091E001C0990F8A95EAF783
:10208000892F0E946518D2CF9BE5980F933020F4DA
:1020900090E080E00C94200E885A873120F490E084
:1020A00080E00C94360E08951F93CF93DF93182F82
:1020B000EB010E947B0F209731F4812FDF91CF91AC
:1020C0001F910C9405108FE99FE00197F1F700C074
:1020D00000002197F0CF70E060E0893311F460E5F3
:1020E00070E00C945410882321F00E945F180C9427
:1020F000A8180895882321F00E9465180C94A81848
:102100000895BF92CF92DF92EF92FF920F931F93A9
:10211000CF93DF936C01D62FC72FFC01128105816D
:1021200002950F700E945518E82E8823A1F0E12E29
:10213000112389F08C2F807F803429F080E28D0F6D
:10214000E12C883040F082E00E94F3180E9455187C
:1021500091E0E82EE926BC2EB2949FE0B922EB2D47
:10216000F0E0E356FB4D0C940E230C2F0F70C07F54
:1021700011F00295007F1123A9F0002359F080E2AD
:102180008D0F883010F0D11109C0802F0E945F1888
:102190000E94A8188D2F0E947B0F14C0802F0E94D0
:1021A0006F18F6CF8D2F0E940510002359F080E2A2
:1021B0008D0F883010F0D1112CC0802F0E9465182F
:1021C0000E94A8182B2D2850330B2430310520F401
:1021D0000E94FA0D0E94C904EE2009F493C10E94E6
:1021E000511880FD8FC1F60112820E944B180E9487
:1021F000D716C6010E94A3120E944B18DF91CF91FF
:102200001F910F91FF90EF90DF90CF90BF900C94B3
:10221000F816802F0E947518D3CFFC2FFF70FF2E69
:10222000C07FC03219F0F29480EFF822DD2369F00C
:10223000D13049F1112391F1002351F1F60185814B
:1022400080FFA8CF8F70858323C0112381F00111F7
:1022500006C00E948F188F290E947310B3CF0130DF
:10226000C1F70E948F188F290E949518ABCF0111DA
:1022700006C00E949E188F2D0E947A10A3CF0130B5
:1022800009F4A0CFF6CF112329F0063008F09ACF39
:102290008F2DE2CF053008F095CFEDCF002359F315
:1022A000D93349F4FFEF27EE33E0F15020403040BE
:1022B000E1F700C000008D2F0E94051083CF8C2F06
:1022C00086958695837069F0813009F07BCF8D2FDC
:1022D0009C2F9370111102C090E080E00E94360E96
:1022E00071CF8D2F9C2F9370111102C090E080E070
:1022F0000E94200E67CF8C2F837009F041C011110E
:1023000061CF4D2F429546954770440F440F0D2FD6
:102310000F7010E030E020E0042E04C0000F111F09
:10232000221F331F0A94D2F760E070E0CB01D4FF84
:102330000FC06FE070E080E090E004C0660F771F90
:10234000881F991F4A95D2F7609570958095909552
:10235000C695C695C370602B712B822B932BC23010
:1023600049F058F4C13019F00E9489162BCF0E9411
:10237000771628CF0E949B1625CF0E94751622CF74
:102380008695112311F08C2F8170882309F41ACFC0
:102390004D2F429546954770440F440F0D2F0F70F7
:1023A00010E030E020E0042E04C0000F111F221FB7
:1023B000331F0A94D2F760E070E0CB01D4FF0FC066
:1023C0006FE070E080E090E004C0660F771F881F28
:1023D000991F4A95D2F76095709580959095C6950E
:1023E000C695C370602B712B822B932BC23049F0A2
:1023F00058F4C13019F00E944E17E4CE0E943C17E9
:10240000E1CE0E946017DECE0E94B116DBCECF7007
:10241000112329F08C2F0E94D7168D2F1DCF8D2FC1
:102420000E947A108C2F0E94F816CCCED23F89F1F0
:1024300060F4D03FC9F0D13F29F1112309F442C023
:102440000111A8CE8C2F8F7121C0D33F39F1D43F19
:10245000A1F7112369F1CF718C2F0E94D71663E089
:102460008C2F0E94DE18AECE112341F0053008F00B
:10247000A9CE8C2F8F710E941B17A4CE063008F0B6
:10248000A1CEF7CF8C2F8F71112369F20E94D7163E
:1024900099CE8C2F8F711123C9F3C5CF112329F049
:1024A0008C2F8F710E94C2168DCE0E94BD168ACECF
:1024B00081E00E94F318023008F484CE82E00E948A
:1024C000F31880CE002359F0D93309F0F4CE8FEF02
:1024D00097EEE3E081509040E040E1F7EACE8C2FA8
:1024E0008F71A1CF4C2F4F706D2FC6010E94D10468
:1024F0000E94ED1567CE4C2F4F706D2FC6010E94C4
:10250000D40460CEDF91CF911F910F91FF90EF9097
:10251000DF90CF90BF9008950F931F93CF93DF93D9
:10252000EC01688179818A810E9413188C010E94D4
:1025300072170E947416B801CE01DF91CF911F91DE
:102540000F910C948110CF93DF93EC018B819C81D0
:10255000892B29F08881998189238F3F59F4DF9154
:10256000CF910895CE010E948C12CE01DF91CF91C0
:102570000C942403CE010E94B1038111F3CF0E9479
:102580005518882361F38A81882349F382E0DF911B
:10259000CF910C94F31890E080E00E94200E90E020
:1025A00080E00E94360E0E947C180E948C180C94C9
:1025B000A8180E9445180C94CB120E946C180C9419
:1025C000D912E92FE295EF70E250EE3070F4F0E0AE
:1025D000E355FB4D0C940E23803F19F020F4883E08
:1025E00020F481E00895843FE1F380E00895883E7F
:1025F000C0F3813FD1F7F5CF93FB882780F9089589
:102600000E9409180C94E112CF93DF9300D000D000
:102610000F92CDB7DEB70F900F900F900F900F90E5
:10262000DF91CF910895CF93DF9300D000D000D0F9
:10263000CDB7DEB726960FB6F894DEBF0FBECDBF7E
:10264000DF91CF9108951F93CF93DF93C091BE0187
:1026500016E08091BF018C1304C0DF91CF911F91D0
:102660000895D0E01C9FF0011D9FF00D1124E0544F
:10267000FE4F4081518162817381848195810E94E6
:1026800013132196C770E5CF4091F0015091F101ED
:102690006091F2017091F3018091F4019091F50144
:1026A0000C9413131F93CF93DF938091F501807FD8
:1026B000A9F48091F201882389F08091BE01C09134
:1026C000BF016091F0017091F101A091F301B0910F
:1026D000F401D62FD72316E0C81304C0DF91CF91A1
:1026E0001F91089590E0109711F0DF3F19F40196C3
:1026F0008770F2CF189F9001199F300D1124F901B6
:10270000E054FE4F41814713F2CF40814613EFCF93
:1027100042814111ECCF438154814A1B5B0B483C01
:10272000510528F78091F5018F7080618093F50144
:10273000F901EB53FE4F80818F708061808380EFC1
:1027400091E00E94A312DF91CF911F910C9423136B
:10275000AF92BF92CF92DF92EF92FF920F931F93AF
:10276000CF93DF93CDB7DEB761970FB6F894DEBF96
:102770000FBECDBF8C0185E0F801DE011D960190F2
:102780000D928A95E1F7F80140815181E28080EF56
:10279000C82E81E0D82E6091F3017091F40161158B
:1027A000710509F461C19091F0012091F101892F27
:1027B00082238F3F09F458C1A380B480F090F201C6
:1027C000F501E61BF70BFF2009F4FCC08091F50131
:1027D000382F307FE83CF10508F0B2C0311179C0E4
:1027E000FE2C251323C0941321C0E1101FC08F704D
:1027F00080618093F5010E944413C6010E94A312D8
:102800008091F501F80185838F2D61960FB6F894BC
:10281000DEBF0FBECDBFDF91CF911F910F91FF9013
:10282000EF90DF90CF90BF90AF900895AB2829F044
:10283000842F85238F3F09F033C180E0F82FF1709A
:10284000DF2E80FF3CC08091BE012091BF0136E0A9
:10285000821315C04D875E878D859E850E9409185D
:10286000292F22952F702230F0F0243018F59F7018
:10287000F1F0F8019581907FD1F4D12C1EC090E049
:10288000389FF001399FF00D1124E054FE4F618113
:10289000651306C06081641303C062816E110FC0AE
:1028A00001968770D5CF9F7011F0882331F3805E39
:1028B000883018F3C8010E94A312FD2CA5CFEE208A
:1028C00009F4A2CF8091F50181608093F501F12C8C
:1028D0009BCF251306C0941304C0F801EE2009F421
:1028E0008DC04D875E878D859E850E94001388234D
:1028F00019F1EE2009F18091F501803270F02091FC
:10290000F0013091F10138872F831986BB86AA86A2
:102910008C87CE0107960E94A31286E0F801A0EFF3
:10292000B1E001900D928A95E1F70E9452130E9446
:102930004413FF24F39468CFC8010E94A312F9CF77
:10294000311113C07A2DB98AA88A6E2D89890E9407
:10295000041380EF91E00E94A31286E0F601119229
:102960008A95E9F70E944413B2CF25130FC0941340
:102970000DC0E1100BC0F8018583C8010E94A312AD
:1029800086E0F60111928A95E9F73ECF4D875E8782
:102990008D859E850E940013882371F2EE2061F2DE
:1029A0008091F501803208F4B8CF2091F001309188
:1029B000F1013A8329831B82BD82AC828E83CE01D2
:1029C0000196A9CFE83CF10508F041C0FE2CEE20AD
:1029D00009F4B2CF25132AC0941328C08091F501C1
:1029E00080FD1BC0982F907FC1F0F8018583903F38
:1029F00031F0982F907F905F8F70892B8583C8016D
:102A00000E94A31286E0F801A0EFB1E001900D92C0
:102A10008A95E1F70E944413F7CE86E0F801A0EF13
:102A2000B1E001900D928A95E1F7EECE4D875E8779
:102A30008D859E850E94001381116FCF8091F501D5
:102A400081608093F501C8010E94A312DDCE7A2D2A
:102A5000B98AA88A6E2D89890E94041386E0F6013E
:102A600011928A95E9F7D6CFEE2009F465CF4D870C
:102A70005E878D859E850E940013F82E882309F4B9
:102A80005BCF86E0F801A0EFB1E001900D928A954E
:102A9000E1F780EF91E00E94760F0E945213BACFC7
:102AA00081E08E25CBCE1F93CF93DF93CDB7DEB7DA
:102AB0002C970FB6F894DEBF0FBECDBF4F8358875B
:102AC00069877A878B879C87CE0107960E94A81317
:102AD000882369F08A859B85892B39F04F81588539
:102AE000842F85238F3F09F071C016E05FC086E018
:102AF000FE013796DE01119601900D928A95E1F75D
:102B00008A859B85892B89F38F81988589238F3FBF
:102B100061F32091BF0130E0C901019687709927C8
:102B20004091BE014817190671F40E94DD121092FF
:102B3000BF011092BE0186E0E0EFF1E0DF011D92DF
:102B40008A95E9F7D2CF96E0929FD001939FB00D7E
:102B50001124A054BE4FFE01319601900D929A951A
:102B6000E1F78093BF010E942313BFCF819FC00173
:102B7000112480549E4F0E94A8138823E9F0E0910D
:102B8000BE011E9FF0011124E054FE4F408151818F
:102B900062817381848195810E9413138091BE01AB
:102BA00090E00196877099278093BE018091BE01C5
:102BB0009091BF018913DACF2C960FB6F894DEBF3F
:102BC0000FBECDBFDF91CF911F91089569857A85A2
:102BD0008B859C850E94131388CFEF92FF920F93F1
:102BE0001F93CF93DF938C01892B81F0F12CEE247E
:102BF000E394E8012196F8018491843770F48430DD
:102C000008F05FC08130B1F08230A1F1DF91CF9147
:102C10001F910F91FF90EF900895853709F44CC0F4
:102C200008F43DC09CE7980F903780F78F770E949B
:102C3000051049C00E5F1F4FFE01849190E2980F6E
:102C4000983060F48770FE2D01C0FF0F8A95EAF777
:102C50008F2F0E947F180E94A81802C00E947B0F2D
:102C60008F2D815030F2EFE9FFE03197F1F700C08E
:102C70000000F7CF0E5F1F4FFE01849190E2980F86
:102C8000983050F48770FE2D01C0FF0F8A95EAF747
:102C90008F2F0E948518DFCF0E940510E1CF0E5FB5
:102CA0001F4FFE01C491C150D8F28FE99FE00197F8
:102CB000F1F700C00000F7CF0E5F1F4FFE01F49048
:102CC000CFCF0E947B0F8E01CBCF08950C94651659
:102CD0000E9466166093270270932802809329024F
:102CE00090932A020C94CB1208950C9468160F93BB
:102CF0001F93009127021091280220912902309100
:102D00002A02602B712B822B932B1F910F910C9415
:102D100068160F931F9300912702109128022091AB
:102D2000290230912A0260237123822393231F9169
:102D30000F910C9468160F931F9300912702109126
:102D400028022091290230912A02602771278227C8
:102D500093271F910F910C9468160C9465160C9490
:102D6000AD160E94AF1660932302709324028093E5
:102D70002502909326020C94CB1260E070E0CB0108
:102D80000C94B1160F931F9341E050E060E070E0A7
:102D90008A019B0104C0000F111F221F331F8A9557
:102DA000D2F7C901B8011F910F910C94B1160F937E
:102DB0001F9341E050E060E070E004C0440F551FF5
:102DC000661F771F8A95D2F7809123029091240283
:102DD000A0912502B09126028A019B01082B192B94
:102DE0002A2B3B2BC901B8011F910F910C94B116EE
:102DF0000F931F9341E050E060E070E004C0440F87
:102E0000551F661F771F8A95D2F7CB01BA016095CF
:102E10007095809590950091230210912402209145
:102E200025023091260260237123822393231F9170
:102E30000F910C94B1160F931F9341E050E060E0A6
:102E400070E004C0440F551F661F771F8A95D2F7A4
:102E50008091230290912402A0912502B091260234
:102E60008A019B01082719272A273B27C901B80196
:102E70001F910F910C94B1160F931F930091230291
:102E8000109124022091250230912602602B712B93
:102E9000822B932B1F910F910C94B1160F931F93BC
:102EA00000912302109124022091250230912602E4
:102EB00060237123822393231F910F910C94B116E9
:102EC0000F931F9300912302109124022091250259
:102ED0003091260260277127822793271F910F9137
:102EE0000C94B11608952EE0929F800D1124982F16
:102EF000977041E001C0440F9A95EAF78695869550
:102F0000869595E0899FF0011124EA50FE4F90E0EC
:102F100080E070E05191DF0111979B01082E02C003
:102F2000369527950A94E2F72170219525272423C9
:102F300025272C9301968530910561F708952EE0A1
:102F4000929F800D1124982F97708695869586956F
:102F500025E0829FF0011124EA50FE4F50E040E04E
:102F600080E0219130E0092E02C0369527950A9421
:102F7000E2F721703327042E01C0220F0A94EAF7EA
:102F8000822B4F5F5F4F4530510559F70895BF922F
:102F9000CF92DF92EF92FF920F931F93CF93DF9325
:102FA0008C01C0902302D0902402E0902502F09082
:102FB00026028091270290912802A0912902B091C7
:102FC0002A02C82AD92AEA2AFB2ACFE1D0E0BC2E5D
:102FD000D701C6010C2E04C0B695A7959795879585
:102FE0000A94D2F780FD0EC0219788F7B12C8B2D63
:102FF000DF91CF911F910F91FF90EF90DF90CF90D5
:10300000BF900895B8018C2F0E94DD04019761F3F1
:10301000EECFCF93DF93EC010E94C717BE01DF9183
:10302000CF910C94DD041F93CF93DF93EB0190912C
:10303000BD01992331F0CB01DF91CF911F910C9409
:103040000918882379F0CB010E94C717182F682F21
:10305000CE010E947317BE01812FDF91CF911F9186
:103060000C94DD04CB010E949F17182FF4CF682F1A
:1030700080910601909107010C94521A682F80915B
:103080000601909107010C945D1A809106019091C0
:1030900007010C94681A80912B028595859585957A
:1030A000089580912B028770089590912B0297705C
:1030B00081E009F480E0089580914F020895909195
:1030C0004F02892B80934F020895809590914F0273
:1030D000982390934F02089510924F020895909173
:1030E0004E02892B80934E020895809590914E0256
:1030F000982390934E02089510924E020895909155
:103100004D02892B80934D020895809590914D0238
:10311000982390934D02089510924D020895809146
:103120002C02089508950C94921890912C029817EF
:1031300021F080932C020C949318089580912C0216
:10314000882329F010922C0280E00C9493180895A3
:10315000E0910601F091070180914F028083E09198
:103160000601F0910701808190914E02892B8083A6
:10317000E0910601F0910701808190914D02892B29
:10318000808390912C02992381F0E0910601F091C7
:1031900007018081892B808380910601909107012E
:1031A0000E94BE1981110E949E1880910601909183
:1031B00007010C94060E08950C94DB1898E0899F83
:1031C00090011124622B60932B020E94D7168091EC
:1031D0002B028595859585950C94DC1810922B0211
:1031E00080E00C94DC1890912B02809589238093C9
:1031F0002B02282F277071F4282F082E000C330B78
:103200009217130639F08595859585950E94F816D5
:103210000C94EE18089580E008956FEF7FEF90E032
:1032200080E00C94722490E080E00E944E2421E023
:103230008B3E9E4F09F020E0822F089582E090E0BF
:103240000C94462483E090E00C944624CF9384E0D1
:1032500090E00E944624C82F81E290E00E9446241C
:10326000982F8C2FCF910895CF93C92F682F84E08A
:1032700090E00E9454246C2F81E290E0CF910C9456
:103280005424AB01BC018FE090E00C946624AB01A8
:10329000BC0183E190E00C94662460E070E0CB0117
:1032A0000C94471960E070E0CB010E9441190C9426
:1032B0004D196BEE7EEF90E080E00E94722460E09A
:1032C00082E090E00E94542460E083E090E00E945D
:1032D0005424109227021092280210922902109270
:1032E0002A0260E084E090E00E94542460E081E2E1
:1032F00090E00E94542460E085E090E00E94542415
:1033000060E086E090E00E9454246FEF87E090E058
:103310000E94542440E050E0BA0188E090E00E940E
:10332000662460E08DE090E00E94542440E050E08C
:10333000BA0188E190E00E94662460E087E190E0B5
:103340000E94542440E050E0BA018CE190E00E94D9
:10335000662460E080E290E00E94542440E050E067
:10336000BA0188E190E00E9466240C9452190C94F2
:103370005919682F8EE090E00C945424FC01329689
:1033800080911201882321F080918C029EE187FFB9
:1033900096E080E0915008F4089521912223D1F322
:1033A0008F5FF8CF662301F1209112012223F1F003
:1033B00020918C0227FF1AC0462F469546954695C8
:1033C0004E3190F4677021E030E002C0220F331FCD
:1033D0006A95E2F7840F911DFC01828190E0282319
:1033E000392381E0232B69F480E00895FC013296B3
:1033F00008962191261721F0E817F907D1F7F4CFA5
:1034000081E008959C01FC0132969FEF80E041919C
:10341000461751F09F3F19F4411101C0982F8F5F5B
:103420008630A9F79F3F09F40895290F311D97FDB4
:103430003A95F90162830895FC013296089621912C
:10344000261303C0DF0111971C92E817F907B9F79B
:103450000895E62FE695E695E695EE3168F4E80FD7
:10346000F92FF11D677021E030E001C0220F6A954D
:10347000EAF78281822B82830895E62FE695E6950E
:10348000E695EE3170F4E80FF92FF11D677021E039
:1034900030E001C0220F6A95EAF720958281282347
:1034A0002283089520911201222329F020918C0279
:1034B00027FD0C94291A0C94021A20911201222340
:1034C00029F020918C0227FD0C943D1A0C941C1AB3
:1034D000FC01329680911201882351F080918C0278
:1034E00087FF06C08EE1DF011D928A95E9F70895F6
:1034F00086E0F9CF089508950C947B1A809192028A
:10350000843049F10E947C1A80E00E94C904109224
:10351000510288E190E020E40FB6F894A8958093DA
:1035200060000FBE2093600083B7817F846083BFFB
:1035300083B7816083BF7894889583B78E7F83BF7C
:103540000FB6F894A8958091600088618093600020
:10355000109260000FBE08950895CF930E947A1ACA
:103560000E9440070E94AC1AC0E08C2F0E94C9063E
:10357000892B31F4CF5FC530C1F780E0CF9108953A
:1035800081E0FCCF08950C94C21A0E94DD120E94C3
:10359000FA0D0E94C9040C94C31A1F921FB61F9201
:1035A00011248F939F93AF93BF9380915102811108
:1035B00013C08091880290918902A0918A02B091F3
:1035C0008B024196A11DB11D8093880290938902C0
:1035D000A0938A02B0938B02BF91AF919F918F917C
:1035E0001F901FBE1F90189582E084BD93E095BD8B
:1035F0009AEF97BD80936E0008952FB7F89480914D
:10360000880290918902A0918A02B0918B022FBF0B
:1036100008952FB7F8946091880270918902809183
:103620008A0290918B022FBF08959C014FB7F894A6
:103630008091880290918902A0918A02B0918B02B8
:103640004FBF821B930B089578941F921FB61F9251
:1036500011248F939F93AF93BF9380918802909191
:103660008902A0918A02B0918B020196A11DB11D21
:103670008093880290938902A0938A02B0938B0270
:10368000BF91AF919F918F911F901FBE1F90189572
:1036900081E08093E00080E28093D8001092C9001E
:1036A0008FE19EE40197F1F700C0000087E090EB06
:1036B000DC0180939F029093A002A093A102B0939B
:1036C000A20288E19CE00FB6F894A8958093600070
:1036D0000FBE90936000FFCF909399018093980163
:1036E00008950C9441090E9440078FE39CE90197DB
:1036F000F1F700C000000E94400780E00E94C90668
:1037000080FF04C00E94711B0C94481B08950E9406
:103710001319811102C00E94B7190E941E198093CB
:1037200050020E94261990938D0280938C020E9471
:103730002219682F70E090E080E00E947516609179
:1037400023027091240280912502909126020C940C
:10375000AF168091720208950895CF93DF9300D041
:103760000F92CDB7DEB790919202943011F5898314
:103770007B836A839093E9008FEF9091E8008150FA
:1037800095FD06C095ED9A95F1F700008111F5CFF2
:103790008091E80085FF0DC050E040E063E070E0FC
:1037A000CE0101960E941A1E8091E8008E778093C8
:1037B000E8000F900F900F90DF91CF910895BC011A
:1037C00084E00C94AD1BBC0183E00C94AD1BCF9343
:1037D000DF93EC01809112018823B1F180918C027A
:1037E00087FF32C060E284E08093E9008FEF909120
:1037F000E800815095FD06C095ED9A95F1F700001F
:103800008111F5CF8091E80085FF1BC080911201E6
:1038100070E050E040E0811104C050E040E068E01A
:1038200070E0CE010E941A1E8091E8008E7780938E
:10383000E80080E2FE01A2E5B2E001900D928A95D7
:10384000E1F7DF91CF91089568E081E0CDCFCF938C
:10385000FC01603221F580919202843001F5C09123
:10386000E900CF702091EC00922F917020FD90E83C
:10387000C92B82E08093E9008091E80080FF0CC0B2
:1038800050E040E060E270E0CF010E941A1E80919B
:10389000E8008E778093E800CF70C093E900CF9165
:1038A000089580919102811109C00E94F91F0E9420
:1038B00056208091E20084608093E2000895109287
:1038C0009102089508950895089542E061EC81E021
:1038D0000E94751F42E261EC84E00E94751F42E283
:1038E00061EC82E00E94751F42E260EC83E00C9480
:1038F000751F80919402833009F461C030F48130E7
:10390000D1F1823009F49DC008958A3009F489C04C
:103910008B3009F46FC0893009F050C08091930258
:10392000813209F04BC080919702909198020097E4
:1039300019F0029709F042C08091E800877F8093D8
:10394000E8008091E80082FF35C09091F3008091FB
:10395000F200029729F48091F1008B7F813021F4ED
:103960008091F100809372028091E8008B778093C0
:10397000E8000C94A91F80919302813AF9F4809198
:10398000E800877F8093E8008091970290919802E9
:10399000892B61F460E282E592E070E00E94B81E3B
:1039A0008091E8008B778093E800089560E090E0D4
:1039B00080E0F3CF809192028111C3CF089580916E
:1039C0009302813AD9F78091970290919802892BBE
:1039D000A9F78091E800877F8093E8008091E80054
:1039E00080FFFCCF809112018093F1008091E8006C
:1039F0008E77BDCF80919302813201F7809197023B
:103A000090919802892BD1F68091E800877F80936E
:103A1000E8000E94A91F80919502809312010C94E6
:103A2000DD1280919302813249F68091E800877F10
:103A30008093E8000E94A91F8091960280937302F0
:103A4000089580919302813A09F0B8CF8091E800FF
:103A5000877F8093E8008091E80080FFFCCF809111
:103A60007302C2CFCDB7DEB7A0970FB6F894DEBF12
:103A70000FBECDBF84B7877F84BF0FB6F894A895DB
:103A800080916000886180936000109260000FBE9A
:103A900080E890E00FB6F894809361009093610005
:103AA0000FBE0E946B0E0E94F91F0E94562080914B
:103AB000E20084608093E20078940E94DF220E94FA
:103AC0007B0E88E091E00E94F50D13E08091920258
:103AD0008530C9F00E94900E809192028430D1F01E
:103AE0000E94790E0E947A0EF1CF0E947E1A809178
:103AF0009002882341F00E94AD1A882321F00E9491
:103B0000041E0E94DD1280919202853071F30E94A2
:103B1000C51AE0CF1093E9008091E80082FFE0CF62
:103B20008091E80090E085FF09C050E040E060E24D
:103B300070E0CE0101960E94691E91E08091E8003C
:103B40008B778093E800992359F260E2CE010196C9
:103B50000E94A309C5CF0C94AD1D292F3327233014
:103B6000310521F168F42130310509F443C02230D8
:103B7000310509F444C090E080E030E020E026C048
:103B80002132310551F122323105A9F76330710537
:103B900090F7FB01EE0FFF1FE557FE4F20813181AB
:103BA00068577E4FFB01808190E010C099278130DB
:103BB000910581F0009729F00297E9F6ECE8F3E02F
:103BC00002C0EAECF3E0849190E09F01FA013183B6
:103BD00020830895E2EBF3E0F6CF6330710558F6E9
:103BE000660F771FFB01EF56FE4F2081318189E080
:103BF00090E0ECCF82E190E029E234E0E7CF8BE582
:103C000090E02EEC33E0E2CF80E189BD82E189BD16
:103C100009B400FEFDCF8091D8008F7D8093D8003D
:103C20008091E00082608093E0008091E00081FD5F
:103C3000FCCF0895AF92BF92CF92DF92FF920F9385
:103C40001F93CF93DF936C01EB018A010E94C81F81
:103C5000F82E811123C00115110539F0F80180817A
:103C60009181C81BD90BC80ED91EB12CA12C20974D
:103C7000A9F08091E80085FD22C08091E8008E7750
:103C80008093E80001151105A1F0F8018081918170
:103C9000A80EB91EB182A08285E0F82E8F2DDF918B
:103CA000CF911F910F91FF90DF90CF90BF90AF9079
:103CB00008950E94C81F8823D1F2F82EEFCFF60195
:103CC00081916F018093F1002197FFEFAF1ABF0A36
:103CD000CECFAF92BF92CF92DF92FF920F931F93FE
:103CE000CF93DF936C01EB018A010E94C81FF82E6D
:103CF000811123C00115110539F0F80180819181EE
:103D0000C81BD90BC80ED91EB12CA12C2097A9F025
:103D10008091E80085FD22C08091E8008B77809338
:103D2000E80001151105A1F0F80180819181A80E2C
:103D3000B91EB182A08285E0F82E8F2DDF91CF9140
:103D40001F910F91FF90DF90CF90BF90AF9008959B
:103D50000E94C81F8823D1F2F82EEFCF8091F10086
:103D6000F60181936F012197FFEFAF1ABF0ACECF03
:103D7000FC018091990290919A0286179707A0F012
:103D80006115710529F49091E8009E779093E80001
:103D900090E06115710551F4911108C08091E8001F
:103DA00082FF34C080E00895BC01F2CF809192027E
:103DB0008823C1F18530C1F18091E80083FD30C0D6
:103DC0008091E80082FDEACF8091E80080FFE1CF9A
:103DD0008091F3002091F200382F6115710519F0E0
:103DE0002830310558F091E02830310509F090E095
:103DF0002091E8002E772093E800CBCF819180932B
:103E0000F100615071092F5F3F4FE7CF809192021F
:103E1000882341F0853041F08091E80083FFBECFD8
:103E200081E0089582E0089583E00895FC01809187
:103E3000990290919A0286179707A0F06115710573
:103E400029F48091E8008E778093E80090E0611576
:103E5000710551F4911108C08091E80082FF35C0CE
:103E600080E00895BC01F2CF809192028823C9F1CD
:103E70008530C9F18091E80083FD31C08091E80070
:103E800082FDEACF8091E80080FFE1CF8091F300CE
:103E90002091F200382F6115710519F02830310595
:103EA00058F091E02830310509F090E08091E80069
:103EB0008E778093E800CBCF84918093F100319688
:103EC000615071092F5F3F4FE6CF809192028823A6
:103ED00041F0853041F08091E80083FFBDCF81E063
:103EE000089582E0089583E00895982F973028F090
:103EF0008F708093E90081E008959093E900242F6A
:103F0000762F50E0981731F07091EC002091ED0081
:103F10005091F00021FD02C09F5FE8CF3091EB008F
:103F20003E7F3093EB003091ED003D7F3093ED000C
:103F30003091EB0031603093EB007093EC002093F4
:103F4000ED005093F0002091EE0027FDE5CF80E0DA
:103F500008958091930287FF13C08091E80082FF4B
:103F600006C08091E8008B778093E80004C08091C0
:103F700092028111F2CF0895809192028823D9F3A1
:103F80008091E80080FFF8CF8091E8008E77ECCF39
:103F90002091E4003091E50095E6A9012091EC0024
:103FA000822F817020FF06C08091E80080FF06C04C
:103FB00080E008952091E80022FD1AC080919202CD
:103FC000882389F0853089F08091EB0085FD0FC052
:103FD0002091E4003091E50042175307F9F2915027
:103FE000E1F684E0089582E0089583E0089581E099
:103FF00008950E9467200E946F20E0EEF0E080812B
:1040000081608083E8EDF0E080818F77808319BC48
:10401000A7EDB0E08C918E7F8C9380818F7E808322
:104020001092910208950F931F93CF93DF930E94F4
:1040300067200E946F20C8EDD0E088818F77888349
:1040400088818068888388818F7D888319BC1092DD
:10405000920210928E021092900210928F0200EE45
:1040600010E0F80180818B7F808388818160888364
:1040700042E060E080E00E94751FE1EEF0E08081A8
:104080008E7F8083E2EEF0E080818160808380819A
:1040900088608083F80180818E7F80838881806141
:1040A0008883DF91CF911F910F910895E8EDF0E0A3
:1040B00080818F7E8083E7EDF0E080818160808366
:1040C00084E082BF81E0809391020C941320E8ED9C
:1040D000F0E080818E7F80831092E200089510923C
:1040E000DA001092E10008951F920F920FB60F921E
:1040F00011242F933F934F935F936F937F938F93ED
:104100009F93AF93BF93EF93FF938091E10082FF62
:104110000BC08091E20082FF07C08091E1008B7F9D
:104120008093E1000E94DE228091DA0080FF19C0B6
:104130008091D80080FF15C08091DA008E7F809337
:10414000DA008091D90080FF96C080E189BD82E1CC
:1041500089BD09B400FEFDCF81E0809392020E94E8
:10416000511C8091E10080FF19C08091E20080FF26
:1041700015C08091E2008E7F8093E2008091E20082
:1041800080618093E2008091D80080628093D800A3
:1041900019BC85E0809392020E94631C8091E1002B
:1041A00084FF2BC08091E20084FF27C080E189BD9D
:1041B00082E189BD89B5982F917080FFFBCF8091F6
:1041C000D8008F7D8093D8008091E1008F7E80930E
:1041D000E1008091E2008F7E8093E2008091E20016
:1041E00081608093E20080918E02882309F449C0A7
:1041F00084E0809392020E94641C8091E10083FF1E
:1042000029C08091E20083FF25C08091E100877F73
:104210008093E10082E08093920210928E0280915E
:10422000E1008E7F8093E1008091E2008E7F809399
:10423000E2008091E20080618093E20042E060E071
:1042400080E00E94751F8091F00088608093F000EC
:104250000E94621CFF91EF91BF91AF919F918F914E
:104260007F916F915F914F913F912F910F900FBE72
:104270000F901F90189519BC109292020E945F1C1B
:1042800070CF8091E30087FD93E090939202B3CFCB
:104290001F920F920FB60F9211242F933F934F93BB
:1042A0005F936F937F938F939F93AF93BF93CF93BE
:1042B000DF93EF93FF93D091E900DF708091EC00E2
:1042C000C82FC17080FDC0E81092E9008091F00015
:1042D000877F8093F00078940E948C211092E900EF
:1042E0008091F00088608093F000CD2BCF70C09358
:1042F000E900FF91EF91DF91CF91BF91AF919F9135
:104300008F917F916F915F914F913F912F910F907E
:104310000FBE0F901F9018951F93CF93DF93CDB7CB
:10432000DEB7AA970FB6F894DEBF0FBECDBF83E904
:1043300092E02091F100FC012193CF01F2E08B3952
:104340009F07B9F70E94791C8091E80083FF1EC186
:1043500080919302909194029A3008F017C1E92F4E
:10436000F0E0E554FB4D0C940E23803899F0823830
:1043700009F00CC1809197028F70873008F006C158
:104380008093E9008091EB0085FB882780F91092EB
:10439000E90006C080918F02909190029111826095
:1043A0009091E800977F9093E8008093F10010923D
:1043B000F1008091E8008E77E5C0882309F4D3C02E
:1043C000823009F0E3C0809195028111D6C08091BE
:1043D00097028F702FEF280F263008F0D7C08093F8
:1043E000E9002091EB0020FFC8C0933031F48091A8
:1043F000EB0080628093EB00C0C09091EB00906175
:104400009093EB0021E030E001C0220F8A95EAF79B
:104410002093EA001092EA008091EB008860EACFD6
:104420008111B4C0109195021F778091E3008078CC
:10443000812B8093E3008091E800877F8093E800E0
:104440000E94A91F8091E80080FFFCCF8091E300CB
:1044500080688093E30082E0111183E080939202F0
:1044600095C08058823008F091C08091950290915B
:1044700096028C3D23E09207A1F583E08A838AE2CD
:1044800089834FB7F894DE01139620E03EE051E2B5
:10449000E32FF0E050935700E49120FF03C0E29532
:1044A000EF703F5FEF708E2F90E0EA30C0F0C7965C
:1044B0008D939D932F5F243159F74FBF8091E80072
:1044C000877F8093E8006AE270E0CE0101960E9447
:1044D000B81E8091E8008B778093E80057C0C096A3
:1044E000E7CF6091970270919802AE014F5F5F4FE6
:1044F0000E94AB1DBC01892B09F448C09091E800D3
:10450000977F9093E80089819A810E94161FE1CFDE
:104510008038E1F58091E800877F8093E800809102
:104520008E028093F10045CF811130C090919502A9
:10453000923060F58091E800877F8093E800909347
:104540008E020E94A91F80918E02882311F084E0C0
:1045500005C08091E30087FDFACF81E0809392024D
:104560000E94651C13C080919502813079F481E02E
:10457000933009F080E0809390021092E9008091DE
:10458000E800877F8093E8000E94A91F8091E800DF
:1045900083FF0AC08091E800877F8093E8008091C4
:1045A000EB0080628093EB00AA960FB6F894DEBF12
:1045B0000FBECDBFDF91CF911F9108950895CF9386
:1045C000809192028823A1F0C091E900CF70909170
:1045D000EC00892F817090FD80E8C82B1092E900D3
:1045E0008091E80083FD0E948C21CF70C093E90088
:1045F000CF910895AA1BBB1B51E107C0AA1FBB1F87
:10460000A617B70710F0A61BB70B881F991F5A955E
:10461000A9F780959095BC01CD010895EE0FFF1F7D
:104620000590F491E02D099469279627692778274A
:104630008727782708950F931F93CF93DF938230B6
:10464000910510F482E090E0E0919D02F0919E02CD
:1046500030E020E0B0E0A0E0309799F4211531057A
:1046600009F447C0281B390B24303105C0F58A8175
:104670009B816115710571F1FB0193838283FE01BA
:1046800011C0408151810281138148175907F8F008
:104690004817590799F4109761F012960C931297E6
:1046A00013961C933296CF01DF91CF911F910F91FA
:1046B000089500939D0210939E02F4CF21153105B9
:1046C00019F04217530718F49A01BD01EF01DF01F9
:1046D000F801C2CF90939E0280939D02D0CFFE013D
:1046E000E20FF31F8193919322503109398328837C
:1046F000DACF20919B0230919C02232B41F4209130
:1047000002013091030130939C0220939B0220917F
:104710000001309101012115310541F42DB73EB75B
:104720004091040150910501241B350B40919B02DF
:1047300050919C024217530708F0B5CF241B350B4C
:104740002817390708F4AFCFBC016E5F7F4F2617DB
:10475000370708F4A8CF640F751F70939C0260930D
:104760009B02FA01819391939ECFCF93DF930097A1
:10477000E9F0FC01329713821282C0919D02D09120
:104780009E02DE0130E020E02097A1F420813181FB
:10479000820F931F20919B0230919C0228173907AA
:1047A00009F067C0F0939C02E0939B02DF91CF91E8
:1047B0000895DA01AE17BF0708F040C012964D9178
:1047C0005C9113979D014115510599F7D9011396F5
:1047D000FC93EE9312974D915D91A40FB51FEA17CC
:1047E000FB0779F4808191810296840F951FD9018E
:1047F00011969C938E938281938113969C938E93B2
:104800001297B0E0A0E08A819B810097B9F5FE0184
:1048100081919191E80FF91F80919B0290919C02E8
:104820008E179F0719F6109761F510929E0210924D
:104830009D02D0939C02C0939B02B8CFB383A28306
:1048400040815181840F951FA817B90771F44E5FFD
:104850005F4F8D919C911197480F591F5183408351
:1048600012968D919C91938382832115310509F0D5
:10487000ADCFF0939E02E0939D0298CFDE01EC0154
:10488000C2CF13961C921E921297D3CFF999FECFE6
:1048900092BD81BDF89A992780B50895A8E1B0E04E
:1048A00042E050E00C947A24262FF999FECF92BD75
:1048B00081BDF89A019700B4021639F01FBA20BDE5
:1048C0000FB6F894FA9AF99A0FBE08950396272F17
:1048D0000E9455240E945424252F0E945524242FE1
:1048E0000C9455240196272F0E9455240C9454248F
:1048F000DC01CB01FC01F999FECF06C0F2BDE1BDA0
:10490000F89A319600B40D9241505040B8F708958E
:10491000F894FFCFB509C209E909F509000A0B0AA5
:104920000E0A0E0A0E0A0E0A0E0A110A150A1D0AAE
:104930002A0A370A3A0A3D0A4A0AB510B5100D117B
:104940000D115F11E210E210E2107B110712161236
:1049500016127212E210E2107B12EC12EC12F51237
:10496000F512F712F512F512F512EC12EC12FC1218
:10497000F512F512FC12B521DD21C622DD21C62279
:0A49800010223122C6228822942260
:10498A000000A30220002D02A91BE71BAC1BE31B9E
:10499A00DF1B01E200E900EA00B500B600B700CD6E
:1049AA00008301CC008A019201940121022302248E
:1049BA00022502260227022A02B300B4006F007001
:1049CA0000818283F59593923730336766363534A2
:1049DA009796C6F0F4F6F7E200E900EA00B500B6E9
:1049EA0000B700CD008301CC008A01920194012115
:1049FA0002230224022502260227022A02B300B455
:104A0A00006F00700081828340226DCA043B045DFE
:084A1A0004E003F90319040094
:00000001FF
