:100000000C94A4010C94C1010C94C1010C94C10185
:100010000C94C1010C94C1010C94C1010C94C10158
:100020000C94C1010C94C1010C94F0200C94C421D7
:100030000C94331B0C94C1010C94C1010C94C101AC
:100040000C94C1010C94C1010C94C1010C94C10128
:100050000C94C1010C94B91B0C94C1010C94C10106
:100060000C94C1010C94C1010C94C1010C94C10108
:100070000C94C1010C94C1010C94C1010C94C101F8
:100080000C94C1010C94C1010C94C1010C94C101E8
:100090000C94C1010C94C1010C94C1010C94C101D8
:1000A0000C94C1010C94C1010C94C101AC00AE00D0
:1000B000AB00A8000153AC00AE00AB00A800015398
:1000C00000000000000000002A2B280000000000B3
:1000D00000000000000000000000002900000000F7
:1000E0002C1E3420212224342627252E362D373865
:1000F000271E1F202122232425263333362E37386E
:100100001F0405060708090A0B0C0D0E0F1011122B
:10011000131415161718191A1B1C1D2F3130232DF7
:10012000350405060708090A0B0C0D0E0F101112F5
:10013000131415161718191A1B1C1D2F3130354CA6
:1001400000000000000000000000000000000000AF
:10015000000000000000000000000000000000009F
:10016000000000007E0F00D4FFFFFFC700000078F2
:1001700026035B003100780034005D0020002B0076
:100180002000310020004D006100630072006F000C
:1001900070006100640000002403410072007200DE
:1001A0006100790020005000650072006900700055
:1001B00068006500720061006C00730000000403B9
:1001C000090409025B00030100A0FA090400000110
:1001D00003010100092111010001224000070581EE
:1001E00003080001090401000203000000092111B5
:1001F00001000122220007058203200001070503F8
:10020000032000010904020001030000000921117C
:1002100001000122B600070584032000011201003D
:1002200002000000085241464F0100010200010691
:1002300060FF0961A1010962150026FF0095207584
:100240000881020963150026FF00952075089102B8
:10025000C005010902A10185020901A100050919D2
:10026000012908150025019508750181020501097C
:100270003009311581257F950275088106093815E9
:1002800081257F950175088106050C0A38021581C4
:10029000257F950175088106C0C005010980A1016F
:1002A000850319012AB700150126B70095017510BD
:1002B0008100C0050C0901A101850419012AA002D1
:1002C000150126A002950175108100C005010906DF
:1002D000A1018506050719E029E715002501950804
:1002E000750181020507190029EF1500250195F018
:1002F000750181020508190129059505750191020D
:10030000950175039101C005010906A101050719B1
:10031000E029E71500250195087501810295017511
:100320000881010507190029FF150026FF00950621
:1003300075088100050819012905950575019102C7
:10034000950175039101C00011241FBECFEFDAE0C3
:10035000DEBFCDBF11E0A0E0B1E0EAE4F8E402C006
:1003600005900D92A03AB107D9F722E0A0EAB1E0DA
:1003700001C01D92A339B207E1F70E9417110C9436
:10038000FA230C940000811106C089EA611101C0B2
:100390008AEA0E940E0581E008959C013A95211594
:1003A0003F4150F5FC01EE27F170BC0166277270E9
:1003B000AC01442754709C012227387094FF0EC072
:1003C00080E1EF2B09F480E0672B09F08062452B78
:1003D00009F08064232B89F08068089581E0EF2B79
:1003E00009F480E0672B09F08260452B09F08460F6
:1003F000232B19F08860089580E00895CF93DF9350
:10040000EB010E94CD01FE01DF91CF910994CF93C2
:10041000DF93EC01805E9109089720F068E677E0B1
:10042000209711F466E175E0CE010E94FE018C2F49
:10043000DF91CF910C947A04CF93DF93EC010E946B
:10044000C804CE01805E9109089720F06FE677E03E
:10045000209711F46DE175E0CE01DF91CF910C94FE
:10046000FE01CF93DF93EC010E940702C933D1054F
:1004700049F42FEF87EE93E0215080409040E1F760
:1004800000C00000CE01DF91CF910C941C0281E0EE
:10049000089581E008950C94490208950C944D024A
:1004A0001F93CF93DF9300D000D00F92CDB7DEB76C
:1004B00049835A836B833091A30189819A813111D9
:1004C0001DC06623B9F02223A9F00E948808182FC6
:1004D000682F89819A810E94310869817A81812FF0
:1004E0000F900F900F900F900F90DF91CF911F9171
:1004F0000C94C4170E945F08182FEFCF0E94880841
:1005000069817A81EDCFFC01262F40815181628182
:10051000738184810C94500281E00895CF93DF931E
:10052000EC0160E00E948302BE01DF91CF910C9448
:100530004E02E1E0F0E0DF0102C0AA0FBB1F6A95A6
:10054000E2F7BD01DF0102C0AA0FBB1F4A95E2F727
:100550006A2B01C0EE0F2A95EAF7962F982396137F
:1005600002C08E2B0895E0958E230895242F462FE8
:10057000682F8091A7010E9499020C94EE070C94B9
:100580004C100C944F1008950E948A070E94C302D9
:100590002FEF84E39CE0215080409040E1F700C0C1
:1005A00000000C94DD1B0F931F93CF93DF938C01FE
:1005B00061E00E948302EC01B8010E9406148823C6
:1005C00009F441C0B801CE010E944B028823D9F141
:1005D000B801CE010E94B5158823A9F1B801CE015A
:1005E0000E948619882379F1B801CE010E94D315A3
:1005F000882349F1B801CE010E94F018882319F12F
:10060000F8018281882361F0CA35FDE5DF0721F119
:1006100070F4C115ECE5DE07A1F0CE3DDC45C9F074
:10062000C801DF91CF911F910F910C944702CB35F8
:100630008DE5D807A1F0CC35DD4591F70E94AB0CD4
:10064000EFCF0E94C40280E0DF91CF911F910F9104
:1006500008950E94640DF7CF0E94B40CE1CF0E9470
:10066000B70CDECF0E941D1B0C9425040E942804A9
:100670000C94211BDF92EF92FF920F931F93CF9365
:10068000DF93E82FF0E0E054FF4FD490282F269519
:100690002695269530E0F901E05AFE4F04918770C7
:1006A00010E0082E02C0159507950A94E2F7017034
:1006B0001127F901E05BFE4FE490F12C082E02C0F7
:1006C000F594E7940A94E2F791E0E922FF24F90116
:1006D000E05CFE4FC491D0E002C0D595C7958A95E5
:1006E000E2F7C170DD270115110519F081EE0E94B6
:1006F0007A04E114F10419F086EE0E947A048D2D3B
:100700000E940E05EF2819F086EE0E94C804012B06
:1007100019F081EE0E94C804CD2B51F08CE2DF91DC
:10072000CF911F910F91FF90EF90DF900C940E05E9
:10073000DF91CF911F910F91FF90EF90DF9008957F
:10074000EF92FF920F931F93CF93DF93EC01162F3D
:100750000AE08881882309F454C0813009F04EC032
:100760008981813099F47E0122E0E20EF11C8A81B8
:100770000E940E05E7012196812F815050F3EFE989
:10078000FFE03197F1F700C00000F7CF823041F46D
:100790007E0182E0E80EF11C8A810E947A04EACF91
:1007A000833041F47E01E2E0EE0EF11C8A810E946A
:1007B000C804E0CF843011F02196DDCF2A81229643
:1007C00090E080E0AE014F5F5F4F2053330B2A3043
:1007D000310548F0019778F2EFE9FFE03197F1F742
:1007E00000C00000F7CF089FB001099F700D1124D1
:1007F000C901860F971F2981EA01E4CF0E943A03BD
:10080000BACFDF91CF911F910F91FF90EF90089594
:1008100060E00C94A003982F9F709A50963018F0C7
:10082000805D0C943A03895AFCCF08950C9415040A
:1008300081E008950C9418040895CF93C82F0E9466
:1008400016048C2FCF910C941A0480E00C941D0494
:100850000E94E2190C941D040E94E2199091A201D9
:10086000981721F08093A2010C941D040895CF9352
:10087000DF93CDB7DEB72B970FB6F894DEBF0FBE70
:10088000CDBF4F83588769877A878B8761110E9414
:10089000F90B1E821D8285E0FE013796DE0111965E
:1008A00001900D928A95E1F78C819D81892B89F4C5
:1008B00049815A816B817C818D819E810E94170BB9
:1008C0002B960FB6F894DEBF0FBECDBFDF91CF9150
:1008D000089589819A8189238F3F51F3CE01019632
:1008E0000E948C028111E4CFEBCFFC0180819181C9
:1008F0000C94B508CF93C82F882309F447C08CEF18
:100900008C0F813AA0F46C2F809102019091030129
:100910000E94591A882329F08C2F0E94B80B0E943C
:10092000190C8C2F0E94B10BCF910C94190C80E202
:100930008C0F883048F4C77081E001C0880FCA95D9
:10094000EAF70E94D90BF0CFEBE5EC0FE33040F46F
:10095000F0E0E95BFE4F808190E0CF910C94191A92
:10096000E8E5EC0FE73150F4F0E0EE0FFF1FE75E33
:10097000FE4F80819181CF910C942F1AC03F30F0AF
:100980008C2F0E949B11CF910C946E12CF910895E1
:10099000882361F19CEF980F913A20F40E94B80BE4
:1009A0000C94190C90E2980F983050F4877091E0F5
:1009B00001C0990F8A95EAF7892F0E94DF0BF0CFCB
:1009C0009BE5980F933020F490E080E00C94191A86
:1009D00098E5980F973120F490E080E00C942F1A5E
:1009E000803F20F00E94F5110C946E1208951F9321
:1009F000CF93DF93182FEB010E947A04209731F4F4
:100A0000812FDF91CF911F910C94C8048FE99FE053
:100A10000197F1F700C000002197F0CF70E060E08F
:100A2000893311F460E570E00C94F704882321F019
:100A30000E94D90B0C94190C0895882321F00E9470
:100A4000DF0B0C94190C0895BF92CF92DF92EF92B6
:100A5000FF920F931F93CF93DF936C01D62FC72F75
:100A6000FC011281F580F2949FE0F9220E94CF0BE5
:100A7000E82E8823B9F0E12E1123A1F08C2F807F7E
:100A8000803421F080E28D0F8830D0F080917802A0
:100A900082FD16C082E00E947A0C0E94CF0B91E08A
:100AA000E82EE926BC2EB2948FE0B822FBE0FB15BD
:100AB00008F468C0EB2DF0E0E450FC4D0C948A2360
:100AC000E12CF0CF0C2F0F70C07F11F00295007F4A
:100AD000112399F0002359F080E28D0F883010F037
:100AE000D11107C0802F0E94D90B0E94190C8D2FA5
:100AF00041C0802F0E94EC0BF8CF8D2F0E94C804BC
:100B0000002309F43FC080E28D0F883010F0D1112E
:100B100004C0802F0E94DF0B03C0802F0E94F20BC5
:100B20000E94190C2FC00C2F0F70C07FC03211F023
:100B30000295007FDD2381F0D13009F469C01123D3
:100B400009F473C0FF2009F469C0F601858180FFB4
:100B5000CECF8F70858362C08091780282FF38C0CB
:100B6000112359F0002329F0802F0E94D90B0E94F5
:100B7000190C80E00E947A0405C080E00E94C8043D
:100B80000111C7CFEB2DE850FF0B349720F40E94E2
:100B9000E2190E941D04EE2009F44DC10E94CB0B06
:100BA00080FD49C1F60112820E94C50B0E94FF0719
:100BB000C6010E943C070E94C50BDF91CF911F9197
:100BC0000F91FF90EF90DF90CF90BF900C940A08A8
:100BD000112389F0F11006C00E94FC0B802B0E94AB
:100BE0001605D0CF21E0F212F7CF0E94FC0B802B2C
:100BF0000E94020CC7CFF11006C00E940F0C802F7C
:100C00000E941D05BFCF31E0F31609F4BBCFF5CF2D
:100C1000112331F085E08F1508F4B4CF802FDFCF9A
:100C200094E09F1508F4AECFEACFFF2041F3D9330B
:100C300049F4FFEF27EE33E0F15020403040E1F778
:100C400000C000008D2F0E94C8049CCF8C2F869579
:100C50008695837069F0813009F094CF8D2F9C2F99
:100C60009370111102C090E080E00E942F1A8ACF89
:100C70008D2F9C2F9370111102C090E080E00E9494
:100C8000191A80CF8D2F112329F00E949B110E94E9
:100C90006E1278CF0E94F511FACF8C2F837079F500
:100CA000111170CF4D2F429546954770440F440F58
:100CB0008D2F8F70042E01C0880F0A94EAF72D2F14
:100CC0002071D4FF07C02FE030E001C0220F4A9509
:100CD000EAF72095C695C695C370822BC23049F0BD
:100CE00058F4C13019F00E94E0074CCF0E94DB0796
:100CF00049CF0E94E50746CF0E94D90743CF86958A
:100D0000112311F08C2F8170882309F43BCF4D2FD4
:100D1000429546954770440F440F8D2F8F70042ED7
:100D200001C0880F0A94EAF72D2F2071D4FF07C065
:100D30002FE030E001C0220F4A95EAF72095C695D2
:100D4000C695C370822BC23049F058F4C13019F0F7
:100D50000E94260817CF0E94210814CF0E942B085A
:100D600011CF0E94EE070ECFCF70112329F08C2FE8
:100D70000E94FF078D2F33CF8D2F0E941D058C2FD2
:100D80000E940A08FFCED23F51F160F4D03FB9F083
:100D9000D13F81F0112309F449C0F110A8CE8C2F66
:100DA0008F7121C0D33F11F1D43FA1F78091780218
:100DB00082FF26C08C2F8F71112311F314C01123D1
:100DC00049F084E08F1508F4DDCE8C2F8F710E94DE
:100DD0001608D8CE95E09F1508F4D4CEF6CF8C2F08
:100DE0008F711111CDCF0E94FF07CCCE112329F0B6
:100DF0008C2F8F710E94F707C5CE0E94F407C2CED8
:100E0000112349F0CF718C2F0E94FF0763E08C2FD4
:100E10000E945F0CB7CE81E00E947A0CE1E0EF15F2
:100E200008F0B0CE82E00E947A0CACCEF110FFCE7A
:100E30008C2F8F71A5CFDF91CF911F910F91FF90D4
:100E4000EF90DF90CF90BF9008950F931F93CF93B3
:100E5000DF93EC01688179818A810E94BF088C014F
:100E60000E9430080E94D807B801CE01DF91CF91CF
:100E70001F910F910C942405CF93DF93EC018B818C
:100E80009C81892B29F08881998189238F3F59F48E
:100E9000DF91CF910895CE010E942507CE01DF9109
:100EA000CF910C948E02CE010E94D3028111F3CF18
:100EB0000E94CF0B882361F38A81882349F38091B4
:100EC000780282FDE5CF82E0DF91CF910C947A0C1D
:100ED000882321F00E94EC0B0C94190C08958823B0
:100EE00021F00E94F20B0C94190C089590E080E020
:100EF0000E94191A90E080E00E942F1A0E94F90BBC
:100F00000E94190C0E9495130C946E120E94BF0B44
:100F10000C9476070E94E90B0C94860792959F70BB
:100F2000963091F058F4925F9F70923058F4803F61
:100F300019F030F4883E30F481E008959A5FF4CFE0
:100F4000843FD1F380E00895883EB0F3813FD1F72C
:100F5000F3CFFC01808191810E94B5080C948E072B
:100F6000CF93DF9300D000D00F92CDB7DEB70F90B4
:100F70000F900F900F900F90DF91CF910895CF9326
:100F8000DF9300D000D000D0CDB7DEB726960FB6E5
:100F9000F894DEBF0FBECDBFDF91CF9108950895C5
:100FA0000C94CF070E94D0078093A8010C94760779
:100FB00008950C94D2079091A801892B0C94D20724
:100FC0009091A80189230C94D2079091A8018927B8
:100FD0000C94D2070C94CF070C94EA070E94EC07FC
:100FE0008093A7010C94760780E00C94EE0791E0C3
:100FF00001C0990F8A95EAF7892F0C94EE0721E03A
:1010000030E001C0220F8A95EAF78091A701822B78
:101010000C94EE0721E030E001C0220F8A95EAF738
:1010200020958091A70182230C94EE0721E030E007
:1010300001C0220F8A95EAF78091A70182270C94BC
:10104000EE079091A701892B0C94EE079091A701D0
:1010500089230C94EE079091A70189270C94EE0741
:101060000895E92FEE0FEE0F9E0F890F982F9770BE
:1010700041E001C0440F9A95EAF7869586958695DA
:1010800093E0899FF0011124EC55FE4F30E020E001
:1010900070E05191DF011197CB01022E02C09695AD
:1010A00087950A94E2F781708195852784238527A7
:1010B0008C932F5F3F4F2330310559F70895E92F67
:1010C000EE0FEE0F9E0F890F982F977086958695DD
:1010D000869523E0829FF0011124EC55FE4F50E0ED
:1010E00040E080E0219130E0092E02C0369527953E
:1010F0000A94E2F721703327042E01C0220F0A94CC
:10110000EAF7822B4F5F5F4F4330510559F708953F
:10111000CF92DF92FF920F931F93CF93DF936C01D7
:101120000091A7018091A801082BC7E0D0E010E052
:10113000FC2EC8010C2E02C0959587950A94E2F703
:1011400080FD0CC02197A0F7F12C8F2DDF91CF915E
:101150001F910F91FF90DF90CF900895B6018C2FD3
:101160000E94360F019771F3F0CFCF93DF93EC011C
:101170000E948808BE01DF91CF910C94360F1F9317
:10118000CF93DF93EB019091A301992331F0CB0131
:10119000DF91CF911F910C94B508882379F0CB0192
:1011A0000E948808182F682FCE010E943108BE01C6
:1011B000812FDF91CF911F910C94360FCB010E94AC
:1011C0005F08182FF4CF1F93CF93DF93C091A9012D
:1011D00016E08091AA018C1304C0DF91CF911F917A
:1011E0000895D0E01C9FF0011D9FF00D1124E555DE
:1011F000FE4F4081518162817381848195810E947B
:10120000BF072196C770E5CF4091DB015091DC010B
:101210006091DD017091DE018091DF019091E0012C
:101220000C94BF07FF920F931F93CF93DF9380918E
:10123000E001807FD1F48091DD018823B1F08091BD
:10124000A9011091AA016091DB017091DC01A091CC
:10125000DE01B091DF01062F0723C0910001D0917C
:10126000010196E0F92E181306C0DF91CF911F916E
:101270000F91FF90089590E0109711F00F3F19F42F
:1012800001968770F0CFF89E9001F99E300D1124E1
:10129000F901E555FE4F41814713F2CF40814613D6
:1012A000EFCF42814111ECCF438154814A1B5B0B4C
:1012B0004C175D0728F78091E0018F708061809363
:1012C000E001F901E055FE4F80818F7080618083DD
:1012D0008BED91E00E943C07DF91CF911F910F9120
:1012E000FF900C94E308AF92BF92CF92DF92EF92FF
:1012F000FF920F931F93CF93DF93CDB7DEB7619724
:101300000FB6F894DEBF0FBECDBF8C0185E0F801AB
:10131000DE011D9601900D928A95E1F7F801E280B9
:101320008BEDC82E81E0D82E6091DE017091DF0137
:101330006115710509F45FC19091DB012091DC0119
:10134000892F82238F3F09F456C140815181A380A8
:10135000B480F090DD01F501E61BF70BBF01E091D1
:101360000001F0910101FF2009F4F6C08091E00135
:10137000382F307F6E177F0708F0AFC0311179C06A
:10138000FE2C251323C0941321C0E1101FC08F70C1
:1013900080618093E0010E940409C6010E943C071D
:1013A0008091E001F80185838F2D61960FB6F89446
:1013B000DEBF0FBECDBFDF91CF911F910F91FF9088
:1013C000EF90DF90CF90BF90AF900895AB2829F0B9
:1013D000842F85238F3F09F027C180E0F82FF1701B
:1013E000DF2E80FF3CC08091A9012091AA0136E048
:1013F000821315C04D875E878D859E850E94B50836
:10140000292F22952F702230F0F0243018F59F708C
:10141000F1F0F8019581907FD1F4D12C1EC090E0BD
:10142000389FF001399FF00D1124E555FE4F618181
:10143000651306C06081641303C062816E110FC022
:1014400001968770D5CF9F7011F0882331F3805EAD
:10145000883018F3C8010E943C07FD2CA5CFEE2070
:1014600009F4A2CF8091E00181608093E001F12C2A
:101470009BCF251306C0941304C0F801EE2009F495
:1014800087C0C8010E94A907882319F1EE2009F13D
:101490008091E001803270F02091DB013091DC011D
:1014A00038872F831986BB86AA868C87CE0107963C
:1014B0000E943C0786E0F801ABEDB1E001900D928F
:1014C0008A95E1F70E9412090E940409FF24F3940F
:1014D0006BCFC8010E943C07F9CF311113C07A2DA0
:1014E000B98AA88A6E2D89890E94B0078BED91E098
:1014F0000E943C0786E0F60111928A95E9F70E9466
:101500000409B5CF25130FC094130DC0E1100BC013
:10151000F8018583C8010E943C0786E0F60111921C
:101520008A95E9F741CFC8010E94A907882389F26B
:10153000EE2079F28091E001803208F4BBCF209157
:10154000DB013091DC013A8329831B82BD82AC82AE
:101550008E83CE010196ACCF6E177F0708F03EC098
:10156000FE2CEE2009F4B5CF25132AC0941328C011
:101570008091E00180FD1BC0982F907FC1F0F801A1
:101580008583903F31F0982F907F905F8F70892BEB
:101590008583C8010E943C0786E0F801ABEDB1E00D
:1015A00001900D928A95E1F70E940409FDCE86E034
:1015B000F801ABEDB1E001900D928A95E1F7F4CE20
:1015C000C8010E94A907811175CF8091E001816057
:1015D0008093E001C8010E943C07E6CE7A2DB98ACB
:1015E000A88A6E2D89890E94B00786E0F6011192C3
:1015F0008A95E9F7D9CFEE2009F46BCFC8010E9494
:10160000A907F82E882309F464CF86E0F801ABED32
:10161000B1E001900D928A95E1F78BED91E00E9487
:1016200075040E941209C0CF81E08E25D7CE1F938A
:10163000CF93DF93CDB7DEB72C970FB6F894DEBF0C
:101640000FBECDBF4F83588769877A878B879C876A
:10165000CE0107960E947309882369F08A859B85CD
:10166000892B39F04F815885842F85238F3F09F0CE
:1016700071C016E05FC086E0FE013796DE0111966C
:1016800001900D928A95E1F78A859B85892B89F3D4
:101690008F81988589238F3F61F32091AA0130E0E3
:1016A000C9010196877099274091A9014817190629
:1016B00071F40E948A071092AA011092A90186E093
:1016C000EBEDF1E0DF011D928A95E9F7D2CF96E0CC
:1016D000929FD001939FB00D1124A555BE4FFE01DE
:1016E000319601900D929A95E1F78093AA010E949C
:1016F000E308BFCF819FC001112485559E4F0E94F2
:1017000073098823E9F0E091A9011E9FF0011124DB
:10171000E555FE4F408151816281738184819581BD
:101720000E94BF078091A90190E0019687709927D8
:101730008093A9018091A9019091AA018913DACF20
:101740002C960FB6F894DEBF0FBECDBFDF91CF91C0
:101750001F91089569857A858B859C850E94BF07B6
:1017600088CF682F80910201909103010C94D91ABF
:10177000682F80910201909103010C94E41A8091EA
:101780000201909103010C94EF1A8091010285955A
:1017900085958595089580910102877008959091AF
:1017A0000102977081E009F480E00895809124029D
:1017B000089590912402892B8093240208958095A6
:1017C00090912402982390932402089580932402F8
:1017D000089510922402089590912302892B8093FA
:1017E00023020895809590912302982390932302D9
:1017F0000895109223020895809102020895089599
:101800000C94FF0B9091780292FD08C09091020217
:10181000981721F0809302020C94000C0895809197
:101820000202882329F01092020280E00C94000C3E
:101830000895CF93DF93E0910201F091030180912D
:1018400024028083E0910201F09103018081909154
:101850002302892B808390910202992381F0E091E9
:101860000201F09103018081892B80838091020124
:10187000909103010E94451A81110E940F0CC091A2
:101880000201D091030140E250E061EE71E0CE012F
:101890000E94AB23892B69F080E2FE01A1EEB1E04A
:1018A00001900D928A95E1F7CE01DF91CF910C94D2
:1018B000F119DF91CF91089508950C945C0C9091EB
:1018C000780292FD10C098E0899F90011124622B4C
:1018D000609301020E94FF07809101028595859522
:1018E00085950C945D0C0C94FF071092010280E02A
:1018F0000C945D0C909101028095892380930102E4
:10190000282F277091F4282F082E000C330B9217E4
:10191000130659F09091780292FD07C08595859540
:1019200085950E940A080C94750C08959091780290
:1019300092FB222720F9281769F080FB92F99093F7
:10194000780280917702909178020E94E10C82E007
:101950000C947A0C08958091780282FB882780F994
:1019600091E089270C94960C81E00C94960C80E011
:101970000C94960C6FEF7FEF90E080E00C94E423E2
:1019800090E080E00E94C023893E9E4F11F40C94A9
:10199000A31380E0089582E090E00C94B82383E0E4
:1019A00090E00C94B823CF9384E090E00E94B82399
:1019B000C82F82E290E00E94B823982F8C2FCF91FD
:1019C0000895CF93C92F682F84E090E00E94C6232A
:1019D0006C2F82E290E0CF910C94C623AB01BC0146
:1019E0008FE090E00C94D823AB01BC0183E190E040
:1019F0000C94D82360E070E0CB010C94F40C60E010
:101A000070E0CB010E94EE0C0C94FA0C69EE7EEFB4
:101A100090E080E00E94E42360E082E090E00E9499
:101A2000C62360E083E090E00E94C6231092A801E4
:101A300060E084E090E00E94C62360E082E290E0F3
:101A40000E94C62360E085E090E00E94C62360E02B
:101A500086E090E00E94C6236FEF87E090E00E944E
:101A6000C62340E050E0BA0188E090E00E94D8230D
:101A700060E08DE090E00E94C62340E050E0BA01B3
:101A800088E190E00E94D82360E087E190E00E9426
:101A9000C62340E050E0BA018CE190E00E94D823D8
:101AA00070E060E080E290E00E94E42340E050E0DB
:101AB000BA0188E190E00E94D82380E00E94BC1324
:101AC0000E94EA130C94FF0C0C94060D682F8EE014
:101AD00090E00C94C6230E949E1B60932E0270938C
:101AE0002F02809330029093310260932A02709308
:101AF0002B0280932C0290932D0208950E949E1B2E
:101B000060932E0270932F028093300290933102E3
:101B100060932602709327028093280290932902F3
:101B2000089585B7806885BF85B7806885BF0895AB
:101B3000089508950C94990D08950C949C0D0E949D
:101B4000910D84E190E10E94D8190E94980D0C94A7
:101B50009A0D81E008950C94A90D089508950E94AE
:101B6000AD0D0C94AE0D0E9431100E941C040C941B
:101B70000D150E94891B0E94F9130E94A3100E9458
:101B8000B30D0E9498180C949D0DDF92EF92FF9276
:101B90000F931F93CF93DF93CDB7DEB72A970FB67E
:101BA000F894DEBF0FBECDBF0E94AE10E82E8111AB
:101BB0000E946B0D80E00E945110182F8091250229
:101BC000D82ED126811709F43DC08091320281FDC3
:101BD0000E945710F12C01E08D2D802371F10E949D
:101BE000AB0D882399F0FE821F82102381E009F457
:101BF00080E088870E94921B8160782F9A8789876E
:101C00004E815F8168858A850E9437048091250214
:101C100008270093250281E0E11001C080E02A96A8
:101C20000FB6F894DEBF0FBECDBFDF91CF911F91ED
:101C30000F91FF90EF90DF900895F394000F85E0EF
:101C4000F812CACF8FEF89838A831B820E94921B6E
:101C50008160782F9D838C8349815A816B818D812E
:101C60000E943704D8CF0E94C50D0E94A918811187
:101C70000E947E0D0E9489120C942C04CF93DF9356
:101C80000E943A0FEC01811521E5920708F042C04D
:101C9000811530E5930708F09DC0883E910530F529
:101CA000803E910508F092C0883A910588F4853A03
:101CB000910508F084C08130910509F487C0009730
:101CC00009F484C0049708F081C0D0E0C0E07EC071
:101CD0008F3B9105D0F7C85AD0E0CC0FDD1FC65B13
:101CE000DE4F0990D881C02DD46470C08115904218
:101CF00050F4C11581E0D80708F068C0C03FD10595
:101D000020F3D06563C0C11590E4D907F0F2DF700D
:101D1000D06A5CC0811525E5920700F5811534E590
:101D2000930708F08BC0811543E5940708F073C052
:101D3000C11582E5D80708F469C0CE0183709927E0
:101D400021E030E002C0220F331F8A95E2F7C695EA
:101D5000C69580E2C89FE001112454C0C11599E5E1
:101D6000D907A8F4C11528E5D20708F06CC0C11541
:101D700036E5D30708F0A9CF8C2F0E94D10FC82FCA
:101D8000D0E0DC2FCC27CC27DF71D0621FC0C1157B
:101D90004AE5D40708F45CC0CE0190568115904204
:101DA00008F093CF8D2F8F710E94D10F90E0982F64
:101DB000882788279F719C012C2BE901E6CFC55A03
:101DC000D0E0C858DE4FC881D0E0D064CE01DF91AA
:101DD000CF910895E4E096958795EA95E1F78370B1
:101DE0002C2F26952695237040E2249F90011124E4
:101DF000382B8C2F8370C1E0D0E002C0CC0FDD1FE8
:101E00008A95E2F7C22BD32BDC68E0CFDC2FCC27FE
:101E1000C16FD06ADBCF8370992721E030E002C028
:101E2000220F331F8A95E2F7C695C69590E2C99FA7
:101E3000E0011124C22BD32BDA68C8CFD82FCC27CE
:101E4000C46FD06AC3CFDC2FCC27C06FD06ABECF9F
:101E50008C2F8F700E94D10F34E0D695C7953A959C
:101E6000E1F7CF709C2FEC01D069B0CF0E94C4176E
:101E70000C943E0E82389105B1F1B0F48133910596
:101E800009F475C048F48932910509F469C08A32B1
:101E9000910509F473C008958533910509F459C07B
:101EA0008933910501F10895833E9105A9F138F434
:101EB000803E9105F9F0823E910549F10895863EF4
:101EC0009105A9F1873E9105C9F1843E910519F567
:101ED0002091780221FF1FC08091770284FD14C0F9
:101EE00087EE90E00895209177022370A1F080EEB4
:101EF00090E008952091770220FD47C0309178024C
:101F000030FF09C024FF44C090E080E004C020916D
:101F1000770222FDF7CF08952091770222FD3BC082
:101F20003091780230FDE3CF24FFF5CFEDCF209143
:101F3000770223FFF0CF24FDE7CFD2CF20917702A5
:101F400023FD2CC03091780231FFEECF84EE90E07B
:101F500008952091770225FFDECF89E290E0089571
:101F60002091770225FFD7CF85E390E00895209157
:101F7000770226FFD0CF8AE290E008952091770281
:101F800026FFC9CF81E390E0089589E390E00895AA
:101F900083EE90E0089582EE90E0089586EE90E062
:101FA00008959091770292FF06C0282F287128305B
:101FB000F9F4877F846093FF06C0282F28712831A9
:101FC000F1F4877E84612091780220FF06C0382FCB
:101FD00038713830D9F4877F816021FF06C0282FFF
:101FE00028712831D1F4877E816194FD877E089520
:101FF000282F24712430F9F68B7F8860DCCF282FBE
:102000002471243101F78B7E8861DDCF382F317147
:10201000313019F78E7F8860E0CF282F2171213170
:1020200021F78E7E8861E1CF80E008950C94BA0C90
:102030000E94AE102FEF86E791E021508040904043
:10204000E1F700C000000E94AE1080E00E94511035
:1020500080FF04C00E9416100C94DD1B08950C94A0
:1020600018100E94C00C811102C00E94640D0E94D1
:10207000CB0C809332020E94D30C90937802809311
:1020800077020E942F100E94CF0C0E94D9078091E6
:10209000A7010C94EC0708950C944B1008950C9430
:1020A0004E10E82FF0E0E658FD4F80810895089526
:1020B000CF93ABE7B1E040E851E061E070E08D9193
:1020C0008F3F91F0E82FE295EF70F0E0C1A18F70A3
:1020D0009B0101C0220F8A95EAF7922F90959C23CD
:1020E00091A382A1822B82A34A175B0741F7CF916C
:1020F0000895CF93DF93AC01A62FB0E085E0689FF1
:10210000F0011124E558FE4F75E081E060E0919107
:102110009F3F81F0C92FC295CF70D0E028A130E059
:102120009F7002C0359527959A95E2F7982F20FD6C
:1021300090E0692B880F715051F7A40FB51F6C9375
:10214000DF91CF9108950E94581010927A02109258
:10215000790281E00E94D4100C94BF021F93CF93A8
:10216000DF930F92CDB7DEB7198260E0CE01019602
:102170000E94791090917902898111E0981301C031
:1021800010E0981380937902212F41E06AE772E012
:1021900089E792E00E94D5100E94C102812F0F9022
:1021A000DF91CF911F9108950895FF920F931F9390
:1021B000CF93DF93F82E092F162FD72FC42F22236A
:1021C00049F081E0809335020E94921B9093340283
:1021D00080933302809135028823A1F080913302ED
:1021E000909134020E94AA1B059760F0EF2DF02F0A
:1021F000A12FBD2FCE0FDF2FD11DEC17FD0741F40E
:1022000010923502DF91CF911F910F91FF900895A9
:1022100081918D93F2CF0E94C51D0E94B90D0C943F
:10222000D11D0E94D51D0E94330E0C94EF1D0E94FB
:10223000321B0E94AC1D0E949F0D0E940B110E9438
:1022400011110E94AF0DFBCF80913C0280FF0DC0A9
:102250006091090170E0660F771F6038710570F5B5
:102260006115710569F1862F089581FF07C060919E
:10227000090184E0689FB0011124EFCF609109014A
:1022800082FD0AC080913B028823A9F020910801B9
:1022900060910901821710F088E0ECCF869FC001A1
:1022A000112433E0880F991F3A95E1F7622F70E00F
:1022B0000E947623D2CF68E070E0D5CF8FE70895F3
:1022C00081E0089580913C0280FF0CC0609105017F
:1022D00070E075956795759567956115710549F17C
:1022E000862F089581FF06C06091050170E0759505
:1022F0006795F3CF6091050182FD0BC090913A0282
:102300009923A1F06091040180910501961738F09E
:10231000682F70E06038710500F38FE70895899F9A
:10232000C001112470E00E947623F4CF61E070E0D8
:10233000D7CF81E00895803F31F40E942411819528
:10234000809340020895813F19F40E942411F8CF30
:10235000823F31F40E942411819580933F020895B9
:10236000833F19F40E942411F8CF893F29F40E9479
:1023700062118093410208958A3F21F40E94621104
:102380008195F7CF8B3F31F40E9462118195809344
:10239000420208958C3F19F40E946211F8CF9CE02C
:1023A000980F953070F4845F990B21E030E001C004
:1023B000220F8A95EAF780913E02822B80933E029B
:1023C00008958D3F31F480913C02816080933C02FE
:1023D00008958E3F21F480913C028260F7CF8F3FB9
:1023E000B9F780913C028460F1CF40913F02803F79
:1023F00059F48091400287FF0DC0109240024111B4
:102400000BC010923B0208C0813F81F480914002D2
:1024100018169CF3442381F080914102909142026E
:10242000892B09F05AC010923A020895823F49F46C
:1024300047FFF0CF10923F02809140028111ECCF14
:10244000E0CF833F19F41416ACF3E4CF909141022E
:10245000893F29F41916F4F610924102DBCF8A3F26
:1024600019F497FFD7CFF8CF909142028B3F29F410
:1024700097FFD0CF10924202CDCF8C3F19F419169E
:10248000CCF3C8CF9CE0980F953090F4845F990B03
:1024900021E030E0B90102C0660F771F8A95E2F7AC
:1024A000CB01809590913E02892380933E02B2CF6A
:1024B0008D3F31F480913C028E7F80933C02AACF05
:1024C0008E3F21F480913C028D7FF7CF8F3F09F042
:1024D000A1CF80913C028B7FF0CF08950E94921B88
:1024E0009C0190913F0280914002982B21F0309303
:1024F0003902209338029091410280914202982B38
:1025000021F030933702209336028DE392E00C9451
:102510000B1AEF92FF920F931F93CF93DF9300D08C
:1025200000D000D0CDB7DEB786E0EDE3F2E0DE010B
:10253000119601900D928A95E1F7E0903F02F0909C
:102540004002009141021091420210923F0210920B
:10255000400210924102109242028E2D8F2991F07A
:1025600080913802909139020E94AA1BAC0190918F
:102570003B02992309F43FC080910A018417150694
:1025800008F447C0802F812B91F080913602909102
:1025900037020E94AA1BAC0190913A02992309F4D8
:1025A00077C0809106018417150608F47FC08091DA
:1025B0003F0290914002892B90914102892B90918A
:1025C0004202892B11F00E946E1286E0FE013196C4
:1025D000ADE3B2E001900D928A95E1F726960FB631
:1025E000F894DEBF0FBECDBFDF91CF911F910F9149
:1025F000FF90EF90089520910B018AE0289F9001B1
:1026000011242417350708F0BDCF9F5F90933B023C
:1026100002C09F3FD1F7EE2059F00E9424119FEF96
:102620001E140CF491E0899F802D112480933F02A9
:10263000FF2059F00E9424119FEF1F140CF491E029
:10264000899F802D11248093400230913F023323D3
:1026500009F498CF20914002222309F493CF45EB4F
:102660003403C0011124992359F090933F0245EBA4
:10267000240390011124332339F03093400282CF98
:1026800081E080933F02F3CF81E0809340027ACFD4
:10269000209107018AE0289F900111242417350713
:1026A00008F085CF9F5F90933A0202C09F3FD1F719
:1026B000002359F00E9462119FEF10160CF491E074
:1026C000899F802D112480934102112359F00E948B
:1026D00062119FEF11160CF491E0899F802D112457
:1026E0008093420230914102332309F460CF20915C
:1026F0004202222309F45BCF45EB3403C0011124CD
:10270000992359F09093410245EB24039001112441
:10271000332339F0309342024ACF81E08093410263
:10272000F3CF81E08093420242CF86E0EDE3F2E016
:10273000DF011D928A95E9F710923B0210923A024E
:1027400010923C02089583E290E00E94B823813207
:1027500089F484E290E00E94B823803159F485E244
:1027600090E00E94B82391E0803109F090E0892F39
:102770008170089580E0FCCFCF93C82F6FEF811157
:1027800061E283E290E00E94C623C1110CC0CFEF4A
:102790006C2F84E290E00E94C6236C2F85E290E0CB
:1027A000CF910C94C623C0E1F3CF089586E290E068
:1027B0000E94B823682F70E090E080E008950895AB
:1027C000CF93C62F0E94DF136C2F86E290E0CF914B
:1027D0000C94C62380E00E94BC1360E070E0CB0143
:1027E0000E94E0130E944F170E94281881E00C9469
:1027F000BC130E94D5130E94D6130E94DF130E94BF
:10280000A313811102C00C94EA130895CF93FB0126
:10281000C281CC2309F19C0122513F452031310571
:1028200020F582510E943818C0E08C2FCF91089576
:1028300081E00E94FF0743E062E081E00E94B6026F
:10284000F3CF81E00E940A0843E062E081E00E9449
:10285000B602EBCF82E0F6CF8031FFE59F0789F328
:1028600081319F45B9F3C1E0E0CF8031EFE59E07AC
:10287000F9F281319F45C9F682E0DBCF2FEFFC01F1
:10288000208308951F93CF93DF93EC01162FE881E7
:10289000E150E33108F050C0F0E0E85FFB4D0C94EC
:1028A0008A23198289E08A830FC08981823099F056
:1028B0008330A1F08130B1F40E949E1B0E949023CE
:1028C0006A837B838C839D83612FCE01DF91CF91BF
:1028D0001F910C94851C0E94D613F0CF80E00E94BB
:1028E0005110E1CF612FCE010E943E14EDCF8981BE
:1028F0008230C1F76A817B818C819D810E94902307
:102900000E94E013E1CF4B816A8189810E942117E7
:102910009827892798279D838C83D6CF2C813D814A
:102920003227232732274B816A8189810E943A17F7
:10293000CBCF0E944F17C8CF8FEF8883C5CF0E949F
:10294000D1178983C1CF0E94D31798278927982749
:102950009A838983B9CF6B8170E089819A81AE01B6
:102960004C5F5F4F9827892798270E94D617ACCFD6
:102970006B8170E089819A81AE014C5F5F4F98272F
:10298000892798270E94FD179FCF0E9428189CCF67
:102990000E941017D6CF6B8170E089819A81AE01B9
:1029A0004C5F5F4F9827892798270E9476178CCF16
:1029B0006B8170E089819A81AE014C5F5F4F9827EF
:1029C000892798270E949B177FCFCF93DF93EC0135
:1029D00097FF0CC0FB018281882341F00E942315E0
:1029E000CE019F770E949A150E94721581E0DF91B7
:1029F000CF91089590917C02923069F48A3048F426
:102A000090E009966AE070E00E947623875A0C9461
:102A10000E058650FCCF0C940B048CE090E00E94D5
:102A2000B82390E0B0E0A0E080937C0290937D0218
:102A3000A0937E02B0937F02089560917C028CE0A7
:102A400090E00C94C6230E94EE19869581708093C5
:102A500081020E94EE19817080937B0280917C023A
:102A6000813039F480918102882319F089E30E9432
:102A70000E050E94D60B809380020E94E90B809184
:102A80007C02813089F0882359F0823091F08430C3
:102A900021F18FE39CE90197F1F700C00000089550
:102AA00082EE0E947A04F5CF88E193E00E94310221
:102AB000F0CF80917B02811103C083E50E940E0557
:102AC00082EE0E947A048FE39CE90197F1F700C03F
:102AD000000087E50E940E05DCCF86EE0E940E0501
:102AE00088E1F8CF80917C02813071F0882341F039
:102AF0008230A9F08430E1F0809180020C94E60BE2
:102B000082EE0E94C804F8CF8CE20E940E058091EC
:102B10008102882389F389E30E940E05EDCF82EEBE
:102B20000E94C80480917B028111E6CF83E5F4CF37
:102B300088E2F2CF0F931F93CF93DF938C01CCE009
:102B4000D0E0C8010C2E02C0969587950A94E2F752
:102B50008F700E94FA142497CC3F8FEFD80789F723
:102B6000DF91CF911F910F9108950F931F93CF93F2
:102B7000DF93EC018B01FB018281882361F00E94CD
:102B8000D60BCE01815E9C458530910520F4809363
:102B90007C020E941D15B801CE01DF91CF911F91DB
:102BA0000F910C94E514CF93DF93EC01FB0182812C
:102BB000882309F433C1C330FDE5DF07C0F5CA3F00
:102BC0009CE5D90730F49E0122503C452431310563
:102BD000B0F50E94D30C9093780280937702C131B4
:102BE0008CE5D80709F4EEC008F069C0C930ECE5FF
:102BF000DE0709F4D5C0C8F5C5308CE5D80709F45F
:102C0000C7C000F5C330ECE5DE0709F4B9C008F031
:102C1000BBC0C230DC4509F4ADC080917702909111
:102C200078020E94E10C0E948A0780E008C0C13649
:102C3000EDE5DE0771F2C53AFDE5DF0751F2DF9100
:102C4000CF910895809177028062C7309CE5D907C3
:102C500009F493C0809177028061C830DC4508F4A4
:102C60008CC080917702806488C0809177028B7FCE
:102C7000CD30FCE5DF0709F480C098F4809177023D
:102C80008E7FCB309CE5D90709F477C0809177021D
:102C90008C60CC30DC4508F470C0809177028D7F69
:102CA0006CC0809177028F7ECF30FCE5DF0709F49E
:102CB00064C008F47BC0809177028F7D5EC0CD3FF9
:102CC0009CE5D90709F47AC050F5C531FCE5DF076A
:102CD00009F486C098F480917702837FC3319CE524
:102CE000D90709F44AC008F471C00E948A0790917C
:102CF0007702892F97FB87F980583FC0CB3FFCE5CF
:102D0000DF0709F449C008F055C08091780281605E
:102D1000CA3FDC4509F081CF809378027ECFC13075
:102D2000EDE5DE0709F468C0A8F4CF3F8CE5D807CD
:102D300009F452C0809178028360C115DD4560F3CB
:102D400080917802982F909591708E7F892B90FBBF
:102D500081F9E2CFC136EDE5DE0709F451C0C53A8D
:102D6000FDE5DF0709F453C0C230DD4509F055CF5A
:102D700080E043C0809177028160809377024DCFDD
:102D8000809177028260F9CF809177028460F5CFDD
:102D9000809177028860F1CF809178028260BCCF09
:102DA0000E948A07809177028068E7CF809177023E
:102DB000877FE3CF809178028E7FAECF80917802BB
:102DC0008D7FAACF809177028F7BD7CF0E948A0711
:102DD000809177028F77D1CF809178028C7F9CCFC2
:102DE0008091770282FB992790F921E0922790FB4E
:102DF00082F990FB83F9C1CF81E00E94660D0DCF6F
:102E000090917702892F8F7E94FF8061B6CF909149
:102E10007702892F8E7F90FF8160AFCF81E00FCF47
:102E200084E008959AE050E0440F551F699F400DDB
:102E3000511D1124899F400D511D1124CA018796EF
:102E400008950F931F93CF93DF930E9412178C0165
:102E50000E94B823C82FD0E0DC2FCC27C8010196F0
:102E60000E94B8239E01282BC901DF91CF911F91A9
:102E70000F9108950F931F93CF93DF93122F032F7A
:102E80000E941217EC01602F0E94C623612FCE0111
:102E90000196DF91CF911F910F910C94C623EF9271
:102EA000FF920F931F93CF93DF938CEAE82E80E07D
:102EB000F82ED0E08701C0E0F801259134914C2F25
:102EC00060E08D2F0E943A170E5F1F4FCF5FC53015
:102ED00099F78AE0E80EF11CDF5FD43059F7DF91F3
:102EE000CF911F910F91FF90EF900895EF92FF9275
:102EF0000F931F93CF93DF93EC018A017C01E60EC1
:102F0000F71ECE018796CE15DF0539F4DF91CF91FC
:102F10001F910F91FF90EF900895C832D10540F4B2
:102F20000E94B823F80180830F5F1F4F2196E9CFDD
:102F3000F8011082F9CFCF92DF92EF92FF920F93B8
:102F40001F93CF93DF937C016A018C01060F171F3B
:102F5000EC01CE018796C017D10749F4DF91CF91DC
:102F60001F910F91FF90EF90DF90CF900895C8329E
:102F7000D10540F4FE01EE19FF09EC0DFD1D608145
:102F80000E94C6232196E5CF462F843038F4711174
:102F900005C0653018F460E00C94211790E080E0E3
:102FA000089580E1089581EB93E00895EF92FF92F8
:102FB0000F931F93CF93DF93EC018A017C01E60E00
:102FC000F71ECE01815B9F4FCE15DF0539F4DF91EF
:102FD000CF911F910F91FF90EF900895C13B23E097
:102FE000D20740F40E94B823F80180830F5F1F4F7F
:102FF0002196E7CFF8011082F9CFCF92DF92EF92BE
:10300000FF920F931F93CF93DF937C016A018C0192
:10301000060F171FEC01CE01815B9F4FC017D10730
:1030200049F4DF91CF911F910F91FF90EF90DF90C6
:10303000CF900895C13B23E0D20740F4FE01EE1982
:10304000FF09EC0DFD1D60810E94C6232196E3CF90
:10305000CF93DF93CFE4D0E060E0CE010E94C6239F
:103060002196C11584E0D807B9F7DF91CF91089573
:10307000DF92EF92FF920F931F93CF93DF9300D0D5
:1030800000D0CDB7DEB7F82E8FE08F1540F08FEF70
:1030900093E00E94B8230FE410E08823C1F00F9062
:1030A0000F900F900F90DF91CF911F910F91FF9094
:1030B000EF90DF900895011584E0180781F3C801AF
:1030C0000E94B823811101C0FA940F5F1F4FF110C5
:1030D000F2CF19821A821B821C82DD24D3947801DC
:1030E0008FEFE81AF80AC8010E94B82389831A8270
:1030F0008823A9F29FEF980F933078F48A83D982BE
:103100000E5F1F4FC7010E94B8238B83882339F2BB
:10311000CE0101960E940804E2CF8701F9CF8FE823
:1031200091E00197F1F700C0000008950C94C301ED
:103130008098889A8198899A0E948F188FB181709F
:10314000799905C090E0892B80934502089592E01B
:10315000FACFE0914502EE0FEE0FE09345024FB13A
:10316000842F81704FB141FB222720F941FF02C01B
:1031700022E030E0822BE82BE0934502EF70F0E094
:10318000E058FE4F808190914402890F8093440261
:1031900020E0843054F0809143028F5F809343029B
:1031A00060E080E00E94961821E0809144028D3F0B
:1031B00054F48091430281508093430261E080E0A7
:1031C0000E94961821E080914402082E000C990B71
:1031D00064E070E00E94762380934402822F089579
:1031E000CF93DF93EB0186319C4511F50E94D60BFE
:1031F0009A81992399F08A7A91E009F490E090936A
:103200004602811109C089E20E94B10B0E94190C8B
:1032100080E0DF91CF91089585E3F6CF809146025B
:10322000811104C089E20E94B80BF0CF85E3FBCF87
:1032300081E0EFCF0F931F93CF93DF93C42FD22F53
:10324000FC0182818823C9F0409349020E94921BAD
:10325000909348028093470280E28C0F883008F0F8
:1032600050C0C77081E001C0880FCA95EAF7DF91AE
:10327000CF911F910F910C941605109149021413D0
:1032800035C080914702909148020E94AA1B883C59
:10329000910560F5C0E2CD0F1D17B9F080E2810FF6
:1032A000883040F4177081E001C0880F1A95EAF762
:1032B0000E941D05C83048F481E09D2F977001C021
:1032C000880F9A95EAF70E941605802F0E940E0536
:1032D000C830B8F4D77081E001C0880FDA95EAF7FA
:1032E000DF91CF911F910F910C941D0580E28C0FFF
:1032F000883038F4C77081E001C0880FCA95EAF7BA
:10330000EFCFDF91CF911F910F9108950F939C0103
:10331000CB01233F4CE5340759F1A8F4283DFCE5E7
:103320003F0701F1293D4CE53407D1F1273D3C45EC
:1033300091F406E221EE41EE67ED7CE50E941A1958
:1033400080E00F910895253FFCE53F07E9F0B0F0DC
:10335000263F3C45F9F0FC018281882339F1109227
:103360004902EFCF07E225EE45EE68ED7CE5E6CFBA
:1033700006E221EE40EE63EF7CE5E0CF07E225EECA
:1033800044EE64EF7CE5DACF06E221EE42EE65EF33
:103390007CE5D4CF07E225EE46EE66EF7CE5CECFA6
:1033A00008E221E045EE69ED7CE5C8CF81E0C9CFB8
:1033B0009093A1018093A001089590934F02809370
:1033C0004E020895E0914E02F0914F02309721F0A5
:1033D0000190F081E02D099480E008950E94E219A7
:1033E0000895E0914E02F0914F02309799F02091AC
:1033F0001801222359F02091770227FF07C0DC0132
:103400002C9111962C93119726E02C930280F38136
:10341000E02D09940895E0914E02F0914F0230970B
:1034200039F022E0DC012C930480F581E02D099431
:10343000089520914C0230914D022817390771F000
:1034400090934D0280934C02E0914E02F0914F0216
:10345000309721F00680F781E02D0994089520919E
:103460004A0230914B022817390771F090934B02B2
:1034700080934A02E0914E02F0914F02309721F082
:103480000084F185E02D09940895FC013296809125
:103490001801882321F0809177029EE187FF96E052
:1034A00080E0915008F4089521912223D1F38F5F99
:1034B000F8CF662301F1209118012223F1F0209129
:1034C000770227FF1AC0462F4695469546954E31FE
:1034D00090F4677021E030E002C0220F331F6A953C
:1034E000E2F7840F911DFC01828190E028233923AB
:1034F00081E0232B69F480E00895FC013296089660
:103500002191261721F0E817F907D1F7F4CF81E0D0
:1035100008959C01FC0132969FEF80E0419146178F
:1035200051F09F3F19F4411101C0982F8F5F8630F1
:10353000A9F79F3F09F40895290F311D97FD3A958A
:10354000F90162830895FC013296089621912613B1
:1035500003C0DF0111971C92E817F907B9F7089526
:10356000E62FE695E695E695EE3168F4E80FF92F3B
:10357000F11D677021E030E001C0220F6A95EAF783
:103580008281822B82830895E62FE695E695E69563
:10359000EE3170F4E80FF92FF11D677021E030E093
:1035A00001C0220F6A95EAF72095828128232283A1
:1035B000089520911801222329F02091770227FDF8
:1035C0000C94B01A0C94891A20911801222329F026
:1035D0002091770227FD0C94C41A0C94A31AFC01C5
:1035E000329680911801882351F08091770287FFED
:1035F00006C08EE1DF011D928A95E9F7089586E005
:10360000F9CF08950C94011B811105C081E08093CE
:1036100050020C94021B82E0FACF83E080935002A8
:103620000C94021B0C94041B81E0809350020C94B8
:10363000021B0C94141B089508950C941C1B0895F0
:1036400008950C941B1B0E941F1B0E94AE100E9429
:10365000201B80E00E94511091E0811101C090E098
:10366000892F089508951F921FB61F9211248F93DA
:103670009F93AF93BF9380915102811113C08091AA
:10368000820290918302A0918402B09185024196BA
:10369000A11DB11D8093820290938302A0938402A6
:1036A000B0938502BF91AF919F918F911F901FBEE4
:1036B0001F90189580918A02843031F10E94320364
:1036C0001092510288E190E020E40FB6F894A8959A
:1036D000809360000FBE2093600083B7817F846079
:1036E00083BF83B7816083BF7894889583B78E7FCB
:1036F00083BF0FB6F894A89580916000886180938D
:103700006000109260000FBE08950E948A070C941A
:10371000360382E084BD93E095BD9AEF97BD809318
:103720006E0008952FB7F8948091820290918302E1
:10373000A0918402B09185022FBF08952FB7F8940D
:10374000609182027091830280918402909185023F
:103750002FBF08959C014FB7F894809182029091F9
:103760008302A0918402B09185024FBF821B930B0C
:10377000089578941F921FB61F9211248F939F93E0
:10378000AF93BF938091820290918302A0918402B3
:10379000B09185020196A11DB11D80938202909384
:1037A0008302A0938402B0938502BF91AF919F9151
:1037B0008F911F901FBE1F90189587E797E79093F2
:1037C00001088093000888E19AE00FB6F894A89564
:1037D000809360000FBE90936000FFCF80917502D0
:1037E000089508959C0184E08093E9009FEF809103
:1037F000E800915085FD06C085ED8A95F1F700003F
:103800009111F5CF8091E80085FF0CC050E040E0B9
:1038100066E070E0C9010E94961E8091E8008E77F4
:103820008093E8000895CF93DF93EC018091180115
:103830008823B1F18091770287FF32C060E284E093
:103840008093E9008FEF9091E800815095FD06C0CC
:1038500095ED9A95F1F700008111F5CF8091E80080
:1038600085FF1BC08091180170E050E040E081119D
:1038700004C050E040E068E070E0CE010E94961E77
:103880008091E8008E778093E80080E2FE01A5E554
:10389000B2E001900D928A95E1F7DF91CF91089502
:1038A00068E081E0CDCF8093520270935402609320
:1038B000530280918A028430F9F48093E9008FEFFB
:1038C0009091E800815095FD06C095ED9A95F1F72D
:1038D00000008111F5CF8091E80085FF0DC050E018
:1038E00040E063E070E082E592E00E94961E8091E5
:1038F000E8008E778093E8000895BC0184E00C9482
:10390000531CBC0183E00C94531CCF93FC01603228
:1039100021F580918A02843001F5C091E900CF70D1
:103920002091EC00922F917020FD90E8C92B82E04D
:103930008093E9008091E80080FF0CC050E040E0F7
:1039400060E270E0CF010E94961E8091E8008E77C1
:103950008093E800CF70C093E900CF9108958091E3
:103960008902811109C00E9475200E94D220809195
:10397000E20084608093E200089510928902089525
:103980000C94141B6091860281E0611101C080E0FB
:103990000C940D1B90918A0281E0943009F080E034
:1039A000609186020C94121B42E061EC81E00E945F
:1039B000F11F42E261EC84E00E94F11F42E261ECFF
:1039C00082E00E94F11F42E260EC83E00E94F11F5E
:1039D00090918A0281E0943009F080E06091860243
:1039E0000C94041B80918C02833009F462C030F483
:1039F0008130D9F1823009F49EC008958A3009F4EB
:103A00008AC08B3009F470C0893009F051C08091B0
:103A10008B02813209F04CC080918F02909190020C
:103A2000009719F0029709F043C08091E800877F62
:103A30008093E8008091E80082FF36C09091F30007
:103A40008091F200029731F48091F100813011F001
:103A5000863021F48091F100809375028091E80016
:103A60008B778093E8000C94252080918B02813A1B
:103A7000F9F48091E800877F8093E80080918F02BD
:103A800090919002892B61F460E285E592E070E00C
:103A90000E94341F8091E8008B778093E80008959E
:103AA00060E090E080E0F3CF80918A028111C2CF84
:103AB000089580918B02813AD9F780918F0290917D
:103AC0009002892BA9F78091E800877F8093E80016
:103AD0008091E80080FFFCCF809118018093F10075
:103AE0008091E8008E77BDCF80918B02813201F703
:103AF00080918F0290919002892BD1F68091E800FD
:103B0000877F8093E8000E94252080918D0280931A
:103B100018010C948A0780918B02813249F68091BA
:103B2000E800877F8093E8000E94252080918E0224
:103B300080937602089580918B02813A09F0B8CF84
:103B40008091E800877F8093E8008091E80080FF03
:103B5000FCCF80917602C2CF84B7877F84BF0FB637
:103B6000F894A8958091600088618093600010921D
:103B700060000FBE80E890E00FB6F894809361007B
:103B8000909361000FBE0C94191B0E9475200E9437
:103B9000D220E2EEF0E080818460808378940C94FF
:103BA0005B238CE091E00C94DD1980918A028530D2
:103BB000A9F480918A02853011F00C94851B0E9433
:103BC0005A1B809188028823A1F30E94231B88231B
:103BD00081F30E94801E0E948A07EBCF0895CF9345
:103BE000DF93CDB7DEB7A0970FB6F894DEBF0FBE58
:103BF000CDBF80918A02843009F583E08093E9008B
:103C00008091E80082FF1AC08091E80090E085FF73
:103C100009C050E040E060E270E0CE0101960E94F1
:103C2000E51E91E08091E8008B778093E80099236E
:103C300029F060E2CE0101960E944214A0960FB6D0
:103C4000F894DEBF0FBECDBFDF91CF9108950C94E5
:103C5000291E292F33272330310521F168F4213023
:103C6000310509F443C02230310509F444C090E025
:103C700080E030E020E026C02132310551F12232CF
:103C80003105A9F76330710590F7FB01EE0FFF1FB7
:103C9000ED56FE4F2081318160577E4FFB018081C0
:103CA00090E010C099278130910581F0009729F0AC
:103CB0000297E9F6E0E7F1E002C0EEEBF1E0849173
:103CC00090E09F01FA01318320830895E8E9F1E053
:103CD000F6CF6330710558F6660F771FFB01E75684
:103CE000FE4F2081318189E090E0ECCF82E190E0CD
:103CF0002DE132E0E7CF8BE590E022EC31E0E2CF3E
:103D000080E189BD82E189BD09B400FEFDCF8091CB
:103D1000D8008F7D8093D8008091E00082608093EE
:103D2000E0008091E00081FDFCCF0895AF92BF924A
:103D3000CF92DF92FF920F931F93CF93DF936C018B
:103D4000EB018A010E944420F82E811123C0011545
:103D5000110539F0F80180819181C81BD90BC80E7B
:103D6000D91EB12CA12C2097A9F08091E80085FDE7
:103D700022C08091E8008E778093E800011511053C
:103D8000A1F0F80180819181A80EB91EB182A082B4
:103D900085E0F82E8F2DDF91CF911F910F91FF902D
:103DA000DF90CF90BF90AF9008950E944420882369
:103DB000D1F2F82EEFCFF60181916F018093F100DF
:103DC0002197FFEFAF1ABF0ACECFAF92BF92CF922B
:103DD000DF92FF920F931F93CF93DF936C01EB0160
:103DE0008A010E944420F82E811123C0011511057B
:103DF00039F0F80180819181C81BD90BC80ED91EFA
:103E0000B12CA12C2097A9F08091E80085FD22C05B
:103E10008091E8008B778093E80001151105A1F0EF
:103E2000F80180819181A80EB91EB182A08285E03F
:103E3000F82E8F2DDF91CF911F910F91FF90DF9082
:103E4000CF90BF90AF9008950E9444208823D1F274
:103E5000F82EEFCF8091F100F60181936F01219749
:103E6000FFEFAF1ABF0ACECFFC0180919102909173
:103E7000920286179707A0F06115710529F49091B9
:103E8000E8009E779093E80090E06115710551F489
:103E9000911108C08091E80082FF34C080E008954D
:103EA000BC01F2CF80918A028823C1F18530C1F133
:103EB0008091E80083FD30C08091E80082FDEACF68
:103EC0008091E80080FFE1CF8091F3002091F20023
:103ED000382F6115710519F02830310558F091E03F
:103EE0002830310509F090E02091E8002E772093EA
:103EF000E800CBCF81918093F100615071092F5F71
:103F00003F4FE7CF80918A02882341F0853041F00E
:103F10008091E80083FFBECF81E0089582E008959C
:103F200083E00895FC01809191029091920286179E
:103F30009707A0F06115710529F48091E8008E774C
:103F40008093E80090E06115710551F4911108C06B
:103F50008091E80082FF35C080E00895BC01F2CF77
:103F600080918A028823C9F18530C9F18091E800E7
:103F700083FD31C08091E80082FDEACF8091E800A6
:103F800080FFE1CF8091F3002091F200382F61157E
:103F9000710519F02830310558F091E028303105CD
:103FA00009F090E08091E8008E778093E800CBCF15
:103FB00084918093F1003196615071092F5F3F4FDA
:103FC000E6CF80918A02882341F0853041F08091CC
:103FD000E80083FFBDCF81E0089582E0089583E08B
:103FE0000895982F973028F08F708093E90081E032
:103FF00008959093E900242F762F50E0981731F020
:104000007091EC002091ED005091F00021FD02C074
:104010009F5FE8CF3091EB003E7F3093EB00309113
:10402000ED003D7F3093ED003091EB003160309337
:10403000EB007093EC002093ED005093F000209182
:10404000EE0027FDE5CF80E0089580918B0287FF89
:1040500013C08091E80082FF06C08091E8008B7752
:104060008093E80004C080918A028111F2CF089504
:1040700080918A028823D9F38091E80080FFF8CFED
:104080008091E8008E77ECCF2091E4003091E5003C
:1040900095E6A9012091EC00822F817020FF06C0D7
:1040A0008091E80080FF06C080E008952091E8003C
:1040B00022FD1AC080918A02882389F0853089F018
:1040C0008091EB0085FD0FC02091E4003091E50068
:1040D00042175307F9F29150E1F684E0089582E027
:1040E000089583E0089581E008950E94E3200E94EE
:1040F000EB20E0EEF0E0808181608083E8EDF0E08D
:1041000080818F77808319BCA7EDB0E08C918E7F82
:104110008C9380818F7E80831092890208950F9303
:104120001F93CF93DF930E94E3200E94EB20C8ED02
:10413000D0E088818F7788838881806888838881B0
:104140008F7D888319BC10928A0210928602109289
:1041500088021092870200EE10E0F80180818B7FC8
:10416000808388818160888342E060E080E00E94F3
:10417000F11FE1EEF0E080818E7F8083E2EEF0E0DF
:10418000808181608083808188608083F801808164
:104190008E7F8083888180618883DF91CF911F919A
:1041A0000F910895E8EDF0E080818F7E8083E7ED48
:1041B000F0E080818160808384E082BF81E0809331
:1041C00089020C948F20E8EDF0E080818E7F80835F
:1041D0001092E20008951092DA001092E100089522
:1041E0001F920F920FB60F9211242F933F934F936C
:1041F0005F936F937F938F939F93AF93BF93EF934F
:10420000FF938091E10082FF0BC08091E20082FF6A
:1042100007C08091E1008B7F8093E1000E945A23C8
:104220008091DA0080FF19C08091D80080FF15C00E
:104230008091DA008E7F8093DA008091D90080FF30
:1042400096C080E189BD82E189BD09B400FEFDCF41
:1042500081E080938A020E94AF1C8091E10080FF80
:1042600019C08091E20080FF15C08091E2008E7F2E
:104270008093E2008091E20080618093E20080916F
:10428000D80080628093D80019BC85E080938A02B0
:104290000E94C21C8091E10084FF2BC08091E2004B
:1042A00084FF27C080E189BD82E189BD89B5982F4F
:1042B000917080FFFBCF8091D8008F7D8093D800D4
:1042C0008091E1008F7E8093E1008091E2008F7EFB
:1042D0008093E2008091E20081608093E20080910F
:1042E0008602882309F449C084E080938A020E94F0
:1042F000CA1C8091E10083FF29C08091E20083FF06
:1043000025C08091E100877F8093E10082E0809367
:104310008A02109286028091E1008E7F8093E100F4
:104320008091E2008E7F8093E2008091E2008061C4
:104330008093E20042E060E080E00E94F11F809103
:10434000F00088608093F0000E94C01CFF91EF9104
:10435000BF91AF919F918F917F916F915F914F919D
:104360003F912F910F900FBE0F901F90189519BC81
:1043700010928A020E94BD1C70CF8091E30087FDDD
:1043800093E090938A02B3CF1F920F920FB60F92D1
:1043900011242F933F934F935F936F937F938F934A
:1043A0009F93AF93BF93CF93DF93EF93FF93D091FE
:1043B000E900DF708091EC00C82FC17080FDC0E87B
:1043C0001092E9008091F000877F8093F00078944C
:1043D0000E9408221092E9008091F000886080938A
:1043E000F000CD2BCF70C093E900FF91EF91DF91EA
:1043F000CF91BF91AF919F918F917F916F915F917D
:104400004F913F912F910F900FBE0F901F901895D5
:104410001F93CF93DF93CDB7DEB7AA970FB6F8946B
:10442000DEBF0FBECDBF8BE892E02091F100FC0112
:104430002193CF01F2E083399F07B9F70E94F21C64
:104440008091E80083FF1EC180918B0290918C02C5
:104450009A3008F017C1E92FF0E0E55EFB4D0C94AF
:104460008A23803899F0823809F00CC180918F023C
:104470008F70873008F006C18093E9008091EB00CF
:1044800085FB882780F91092E90006C08091870299
:1044900090918802911182609091E800977F9093AB
:1044A000E8008093F1001092F1008091E8008E778F
:1044B000E5C0882309F4D3C0823009F0E3C08091BD
:1044C0008D028111D6C080918F028F702FEF280F3F
:1044D000263008F0D7C08093E9002091EB0020FF40
:1044E000C8C0933031F48091EB0080628093EB0080
:1044F000C0C09091EB0090619093EB0021E030E020
:1045000001C0220F8A95EAF72093EA001092EA0090
:104510008091EB008860EACF8111B4C010918D02C8
:104520001F778091E3008078812B8093E300809156
:10453000E800877F8093E8000E9425208091E800B2
:1045400080FFFCCF8091E30080688093E30082E0ED
:10455000111183E080938A0295C08058823008F060
:1045600091C080918D0290918E028C3D23E0920744
:10457000A1F583E08A838AE289834FB7F894DE014C
:10458000139620E03EE051E2E32FF0E05093570015
:10459000E49120FF03C0E295EF703F5FEF708E2F34
:1045A00090E0EA30C0F0C7968D939D932F5F243141
:1045B00059F74FBF8091E800877F8093E8006AE257
:1045C00070E0CE0101960E94341F8091E8008B7745
:1045D0008093E80057C0C096E7CF60918F0270913A
:1045E0009002AE014F5F5F4F0E94271EBC01892BD6
:1045F00009F448C09091E800977F9093E800898182
:104600009A810E94921FE1CF8038E1F58091E80005
:10461000877F8093E800809186028093F10045CFE8
:10462000811130C090918D02923060F58091E80048
:10463000877F8093E800909386020E9425208091D6
:104640008602882311F084E005C08091E30087FD95
:10465000FACF81E080938A020E94D41C13C080911B
:104660008D02813079F481E0933009F080E080930D
:1046700088021092E9008091E800877F8093E8002B
:104680000E9425208091E80083FF0AC08091E80005
:10469000877F8093E8008091EB0080628093EB003D
:1046A000AA960FB6F894DEBF0FBECDBFDF91CF91B3
:1046B0001F9108950895CF9380918A028823A1F0D5
:1046C000C091E900CF709091EC00892F817090FD2E
:1046D00080E8C82B1092E9008091E80083FD0E94D9
:1046E0000822CF70C093E900CF91089597FB072E61
:1046F00016F4009407D077FD09D00E94972307FC99
:1047000005D03EF4909581959F4F089570956195E1
:104710007F4F0895EE0FFF1F0590F491E02D09944F
:104720006927962769277827872778270895AA1B5E
:10473000BB1B51E107C0AA1FBB1FA617B70710F08C
:10474000A61BB70B881F991F5A95A9F780959095BE
:10475000BC01CD010895FB01DC0104C08D910190E5
:10476000801921F441505040C8F7881B990B0895D7
:10477000F999FECF92BD81BDF89A992780B5089529
:10478000A8E1B0E042E050E00C94EC23262FF99928
:10479000FECF92BD81BDF89A019700B4021639F0A0
:1047A0001FBA20BD0FB6F894FA9AF99A0FBE089571
:1047B0000396272F0E94C7230E94C623252F0E94FD
:1047C000C723242F0C94C7230196272F0E94C723A9
:1047D0000C94C623DC01CB01FC01F999FECF06C085
:1047E000F2BDE1BDF89A319600B40D9241505040AF
:1047F000B8F70895F894FFCF620562059305930515
:1048000026064206C205C2054D06B406C306C30607
:1048100051145514771483148E1499149C149C14F9
:104820009C149C149C149F14A314AB14B814C514AA
:10483000C814CB14D81431225922422359224223BE
:0A4840008C22AD2242230423102332
:10484A00C8000302280850011E0A1401EE1B131C9B
:10485A00F21B811C7D1CF11B01E200E900EA00B594
:10486A0000B600B700CD008301CC008A0192019402
:10487A00012102230224022502260227022A02B368
:10488A0000B4006F007000818283E200E900EA0050
:10489A00B500B600B700CD008301CC008A019201B1
:1048AA0094012102230224022502260227022A0257
:1048BA00B300B4006F007000818283673796F5F702
:1048CA0000FF0100010000FFFF0000010001FF00DE
:1048DA004022B607032F025102D401ED010D020056
:00000001FF
