:100000000C94B7020C94D4020C94D4020C94D40235
:100010000C94D4020C94D4020C94D4020C94D40208
:100020000C94D4020C94D4020C94A92B0C94652B40
:100030000C94A62C0C94D4020C94D4020C94D402EC
:100040000C94D4020C94D4020C94D4020C94D402D8
:100050000C94D4020C94822C0C94D4020C94D402F0
:100060000C94D4020C94D4020C94D4020C94D402B8
:100070000C94D4020C94D4020C94D4020C94D402A8
:100080000C94D4020C94D4020C94D4020C94D40298
:100090000C94D4020C94D4020C94D4020C94D40288
:1000A0000C94D4020C94D4020C94D40205010902DD
:1000B000A10185020901A100050919012905150001
:1000C00025019505750181029501750381010501E1
:1000D000093009311581257F950275088106093897
:1000E0001581257F950175088106050C0A380215D2
:1000F00081257F950175088106C0C005010980A191
:1001000001850319012AB700150126B7009501756D
:10011000108100C0050C0901A101850419012AA064
:1001200002150126A002950175108100C005010984
:1001300006A1018506050719E029E71500250195A7
:1001400008750181020507190029EF1500250195A1
:10015000F0750181020508190129059505750191C0
:1001600002950175039101C00660FF0961A10109B3
:1001700062150026FF0095207508810209631500AD
:1001800026FF00952075089102C005010906A1010E
:10019000050719E029E71500250195087501810279
:1001A0009501750881010507190029FF150026FF33
:1001B0000095067508810005081901290595057542
:1001C000019102950175039101C00000000000003B
:1001D000000000000000000000000000000000001F
:1001E00000000000000000000000000000007E0F82
:1001F00000D4FFFFFFC700000078000000000000EF
:1002000000002A2B28000000000000000000000071
:10021000000000000029000000002C1E34202122D4
:1002200024342627252E362D3738271E1F2021223D
:10023000232425263333362E37381F0405060708B6
:10024000090A0B0C0D0E0F101112131415161718A6
:10025000191A1B1C1D2F3130232D350405060708E4
:10026000090A0B0C0D0E0F10111213141516171886
:10027000191A1B1C1D2F3130354CFD377A585A0086
:100280000004E6D6B4460200210116000000742FD7
:10029000E5A3E000C5009F5D003D8889C65436C3D4
:1002A000174FE4EAC894E45AFAFA82876514E6B86C
:1002B0003F76D4625D0547EBF6B42D0EFE69177EDE
:1002C00088EE3D31B99BF283209E3019395AB939F5
:1002D0000384066EA69415F8A6A8D63B43A7F8B9E2
:1002E0004CEF256B842B9A7CB10044B58371F638B2
:1002F0000F81FD55736F649DFAF6682F2CF197A05E
:10030000534AAD5FCCE6C280B2D499B224B465A39F
:10031000573BA3F4CA34F5BCB466AFB2EC457E7C5F
:10032000C5392D6A2C52BE3004C50E98D58B9A85DE
:10033000AEAB95376F1A5B800000A622F8EC3F69E0
:10034000E8D10001BB01C601000036C5DCDCB1C448
:1003500067FB020000000004595A29002B00E1004D
:10036000E0000153010001000100010002530100FF
:100370000100010001000353010001000100010020
:100380000053010001002C044A0D7C0D0000020006
:10039000020028044A0D7C0D0000030001002D041A
:1003A0004A0D7C0D00000400020012044A0D7C0D71
:1003B0006C06050001002E044A0D7C0D00000600AD
:1003C000020014044A0D7C0D0000070002002A04FC
:1003D0004A0D7C0D0000080001002F044A0D7C0D21
:1003E00000000900020016044A0D7C0D47060A00B1
:1003F000020018044A0D7C0D47060B0002001A0487
:100400004A0D7C0D47060C0002001C044A0D7C0DB1
:1004100047060D0002001E044A0D7C0D47060E0023
:10042000020020044A0D7C0D47060F000200220442
:100430004A0D7C0D47061000020024044A0D7C0D75
:1004400047061100020026044A0D7C0D47061200E3
:10045000020030044A0D7C0D00001300020032043B
:100460004A0D7C0D00001400010034044A0D7C0D7F
:100470000000150000000000C4052F15000009024F
:100480005B00030100A0FA09040000010301010060
:100490000921110100012240000705810308000124
:1004A00009040100020300000009211101000122DA
:1004B0002200070582032000010705030320000135
:1004C00009040200010300000009211101000122BA
:1004D000BC00070584032000011201000200000097
:1004E000085241464F0100010203011C03760069D6
:1004F0000061006C003A0066003600340063003290
:100500000062003300630000003803410072007293
:10051000006100790020005000500020005B003195
:1005200000780034005D0020002B00200031002006
:10053000004D006100630072006F00700061006494
:100540000000002403410072007200610079002065
:10055000005000650072006900700068006500725C
:100560000061006C00730000000403090400112402
:100570001FBECFEFDAE0DEBFCDBF11E0A0E0B1E0FB
:10058000E6EBF9E602C005900D92AC37B107D9F75A
:1005900025E0ACE7B1E001C01D92AC32B207E1F753
:1005A0000E94CD2C0C94AE340C940000E8EDF0E0E9
:1005B00080818E7F80831092E2001092DA00109288
:1005C000E100A0EEB0E08C9181608C9380818F7708
:1005D000808319BCA7EDB0E08C918E7F8C938081D5
:1005E0008F7E80831092FB0408952091E400309167
:1005F000E50095E6A9012091EC00822F817020FF93
:1006000006C08091E80080FF06C080E00895209138
:10061000E80022FD1AC080912005882389F08530EA
:1006200089F08091EB0085FD0FC02091E4003091AE
:10063000E50042175307F9F29150E1F684E008957E
:1006400082E0089583E0089581E00895EF92FF929B
:100650000F931F93CF937C018B010E94F502C82F4B
:10066000811117C08091E80085FD0BC08091E800E2
:100670008E778093E8000E94F502882399F3C82FB3
:1006800008C0F70181917F018093F10001501109A9
:1006900049F78C2FCF911F910F91FF90EF90089504
:1006A0008091220587FF13C08091E80082FF06C079
:1006B0008091E8008B778093E80004C0809120054A
:1006C0008111F2CF0895809120058823D9F380917C
:1006D000E80080FFF8CF8091E8008E77ECCF982F6C
:1006E0009093E900242F762F50E0891731F0709114
:1006F000EC002091ED005091F00021FD07C09F5FBC
:10070000973071F78093E90081E008953091EB0014
:100710003E7F3093EB003091ED003D7F3093ED0054
:100720003091EB0031603093EB007093EC0020933C
:10073000ED005093F0002091EE0027FDE0CF80E027
:100740000895CF92DF92EF92FF920F931F93CF9372
:10075000DF93C8EDD0E088818F7E8883E7EDF0E0FD
:1007600080818160808384E082BF81E08093FB048C
:1007700088818E7F888302EE10E0F801108210924B
:10078000DA0081EEC82ED12CF601108288818F7795
:10079000888388818068888388818F7D888319BC5D
:1007A000109220051092210510921F0510921E052F
:1007B00090EEE92EF12CF70180818B7F8083888178
:1007C0008160888342E060E080E00E946F03F60170
:1007D00080818E7F8083F801808181608083808129
:1007E00088608083F70180818E7F8083888180612B
:1007F0008883DF91CF911F910F91FF90EF90DF9051
:10080000CF900895FC0180912805909129058617C5
:100810009707A0F06115710529F49091E8009E7783
:100820009093E80090E06115710551F4911108C0B2
:100830008091E80082FF34C080E00895BC01F2CFCF
:10084000809120058823C1F18530C1F18091E800B5
:1008500083FD30C08091E80082FDEACF8091E800FE
:1008600080FFE1CF8091F3002091F200382F6115D5
:10087000710519F02830310558F091E02830310524
:1008800009F090E02091E8002E772093E800CBCF8C
:1008900081918093F100615071092F5F3F4FE7CF45
:1008A00080912005882341F0853041F08091E80057
:1008B00083FFBECF81E0089582E0089583E008952C
:1008C00008958091FD04089587E797E790930108C4
:1008D0008093000888E19AE00FB6F894A895809379
:1008E00060000FBE90936000FFCF9C014FB7F8945B
:1008F0008091F2049091F304A091F404B091F50476
:100900004FBF821B930B08952FB7F8946091F204A8
:100910007091F3048091F4049091F5042FBF089531
:100920002FB7F8948091F2049091F304A091F4040D
:10093000B091F5042FBF089520911D012223C1F02D
:100940002091F60427FF14C0E62FE695E695E6957C
:10095000EE31F8F4E80FF92FF11D677021E030E077
:1009600001C0220F6A95EAF78281822B8283089563
:10097000FC0132962FEF30E04191641751F02F3F88
:1009800019F4411101C0232F3F5F3630A9F72F3FE3
:1009900009F40895820F911D27FD9A95FC01628349
:1009A00008952091EF043091F0042817390771F071
:1009B0009093F0048093EF04E091ED04F091EE0445
:1009C000309721F00084F185E02D0994089520915D
:1009D000EB043091EC042817390771F09093EC0484
:1009E0008093EB04E091ED04F091EE04309721F058
:1009F0000680F781E02D09940895E091ED04F091CF
:100A0000EE04309721F00190F081E02D099480E010
:100A10000895CF93DF93EC014091070450910804AF
:100A20006091090470910A042FB7F8948091F20440
:100A30009091F304A091F404B091F5042FBF841BAE
:100A4000950BA60BB70B843F9140A105B10518F596
:100A50008091070490910804A0910904B0910A04C0
:100A60008093030490930404A0930504B0930604B8
:100A700084EF91E0A0E0B0E08093FF039093000446
:100A8000A0930104B0930204D0930F04C0930E040A
:100A9000DF91CF9108950E948404609303047093C2
:100AA0000404809305049093060482E390E0A0E0A0
:100AB000B0E0E2CFFC018481862351F49281992336
:100AC000B9F06923808583FF05C081E061110FC003
:100AD00080E00895892F8F7092959F70982B862FB4
:100AE0008F7062956F70682B81E09613F1CF089537
:100AF00081E0FDCF452B39F0682381E06F3F09F09D
:100B000080E08170089581E0FCCFDC016091FB03FF
:100B10008091FC03962F891301C00895292F30E09E
:100B2000F901EE0FFF1FED50FC4F408151814A1734
:100B30005B07A1F487E08A9FA0018B9F500D1124D1
:100B400045545C4F81E0FA0184839613E6CF2F5F12
:100B50003F4F237033272093FB0308952F5F3F4FB0
:100B6000922F9370D8CF1092580310925703EBEB4B
:100B7000F3E08581811102C014821682379683E0EA
:100B8000E33FF807B1F70895AF92BF92CF92DF929B
:100B9000EF92FF920F931F93CF93DF938FEF9FEF0F
:100BA0004430510508F468C04091F60441FB8827A1
:100BB00080F990E0880F991F42FB002700F910E0B0
:100BC000000F111F000F111F802B912B40FBCC2415
:100BD000C0F8D12C8C299D2943FB222720F9C22F54
:100BE000E0E0DE2F53E0CC0FDD1F5A95E1F78C2BB0
:100BF0009D2B44FBAA27A0F9B0E0E4E0AA0FBB1F9D
:100C0000EA95E1F78A2B9B2B45FBEE27E0F9F0E014
:100C1000A5E0EE0FFF1FAA95E1F78E2B9F2B46FB59
:100C2000222720F930E0B6E0220F331FBA95E1F712
:100C3000822B932B47FB222720F930E03695322F69
:100C4000222737952795822B932B2091F704322F5B
:100C50003170F32EF92A26952170B22EBB0CA82EE6
:100C6000BF28C501BB0CAA0BBB0BFB018083918382
:100C7000A283B38390E080E0DF91CF911F910F9129
:100C8000FF90EF90DF90CF90BF90AF900895E2E19A
:100C9000F4E0848195812AE030E0B9010E94F933C3
:100CA00060931801868180931701828580931601D5
:100CB00084858093150186859785B9010E94F93353
:100CC00060931401808980931301828980931201BB
:100CD00084898093110108958091120490911304E6
:100CE00090931A0180931901089581152CE59207BC
:100CF00041F420910F0130911001232B11F490E069
:100D000080E008950E9490049C0190913D028091A2
:100D10003E02982B21F030933A02209339029091B1
:100D20003F0280914002982B21F0309338022093AB
:100D30003702E091ED04F091EE04309749F082E043
:100D400080933B020480F581E02D8BE392E00994CF
:100D5000089590913D02803F59F480913E0287FFB3
:100D60000DC010923E0291110BC01092350208C0C6
:100D7000813F81F480913E0218169CF3992381F003
:100D800080913F0290914002892B09F064C010923B
:100D900034020895823F49F497FFF0CF10923D024C
:100DA00080913E028111ECCFE0CF833F19F41916F8
:100DB000ACF3E4CF20913F02893F29F41216F4F6F8
:100DC00010923F02DBCF8A3F19F427FFD7CFF8CF2D
:100DD000209140028B3F29F427FFD0CF1092400290
:100DE000CDCF8C3F19F41216CCF3C8CF843F31F429
:100DF00080913C028E7F80933C02C0CF853F21F4DE
:100E000080913C028D7FF7CF863F21F480913C0298
:100E10008B7FF1CF873F21F480913C02877FEBCF1E
:100E2000883F21F480913C028F7EE5CF8D3F31F4E5
:100E3000809136028E7F80933602A0CF8E3F21F4C0
:100E4000809136028D7FF7CF8F3F09F097CF809149
:100E500036028B7FF0CF08958091360280FF0CC060
:100E60006091120170E075956795759567956115AC
:100E7000710549F1862F089581FF06C06091120126
:100E800070E075956795F3CF6091120182FD0BC0FC
:100E9000909134029923A1F0609111018091120187
:100EA000961738F0682F70E06038710500F38FE70F
:100EB0000895899FC001112470E00E940D34F4CF81
:100EC00061E070E0D7CF81E00895809136026091B3
:100ED0001A0470911B0480FF16C020911601269FF2
:100EE000C001279F900D1124BC01769567957695DA
:100EF00067956038710508F043C06115710509F404
:100F000041C0862F089581FF0BC020911601269FB6
:100F1000C001279F900D1124BC0176956795E9CFFC
:100F200082FF09C0809116019B01829FB001839FBF
:100F3000700D1124DECF209135022223D1F2909141
:100F4000150180911601482F50E0291748F0CB0178
:100F5000849FB001859F700D949F700D1124C9CF9F
:100F6000289F90011124269FA001279F500D369F96
:100F7000500D1124692F70E0CA010E94F933B9CFD6
:100F80008FE7089581E00895803F31F40E9465075E
:100F9000819580933E020895813F19F40E94650770
:100FA000F8CF823F31F40E946507819580933D021E
:100FB0000895833F19F40E946507F8CF893F29F40B
:100FC0000E942C0780933F0208958A3F21F40E94DB
:100FD0002C078195F7CF8B3F31F40E942C07819528
:100FE0008093400208958C3F19F40E942C07F8CF9B
:100FF000843F31F480913C02816080933C020895EB
:10100000853F21F480913C028260F7CF863F21F436
:1010100080913C028460F1CF873F21F480913C02B3
:101020008860EBCF883F21F480913C028061E5CF5E
:101030008D3F31F4809136028160809336020895AD
:101040008E3F21F4809136028260F7CF8F3FB9F74F
:10105000809136028460F1CF80E00895CF93E7E578
:10106000F1E06CE571E080E041E091919F3F89F013
:10107000A92FA295AF70B0E090962C9130E09F70B0
:1010800002C0359527959A95E2F7942F20FD90E0C0
:10109000892B440F6E177F0741F790911E02C1E024
:1010A000981301C0C0E09817D1F080931E0281E030
:1010B00080931D020E94900490931C0280931B0257
:1010C00080911B0290911C020E947504059758F0B4
:1010D00080911E028093330210921D0204C0809101
:1010E0001D028111EDCF8C2FCF9108959091F604C0
:1010F00092FF06C0282F28712830F9F4877F84607A
:1011000093FF06C0282F28712831F1F4877E84616F
:101110002091F70420FF06C0382F38713830D9F4F9
:10112000877F816021FF06C0282F28712831D1F4E4
:10113000877E816194FD877E0895282F2471243055
:10114000F9F68B7F8860DCCF282F2471243101F7DA
:101150008B7E8861DDCF382F3171313019F78E7F6A
:101160008860E0CF282F2171213121F78E7E8861A0
:10117000E1CFCF93DF93EC0182389105A9F1D8F547
:101180008133910509F496C048F58932910509F437
:101190008AC08A9709F495C0C11521E5D20708F0E5
:1011A000BCC0C11530E5D30708F014C1C83ED10555
:1011B00008F09CC0C03ED10560F5C83AD10508F0E2
:1011C00087C0C53AD10508F0FDC0C130D10509F18D
:1011D0002097F9F0C430D105E0F440C08533910583
:1011E00009F45AC0C997C1F68091F604837089F05A
:1011F000C0EED0E00EC0833E910599F170F4803EC0
:10120000910501F1823E910539F68091F60482FD47
:1012100021C0CE01DF91CF910895863E910561F105
:10122000873E910571F1843E910509F0B5CF80911B
:10123000F70481FFEECF8091F604C7EED0E084FD85
:101240000DC0E7CF8091F60480FD12C19091F704A4
:1012500090FFDFCFC3EED0E084FFDBCFD0E0C0E073
:10126000D8CF8091F60482FD06C19091F70490FDDD
:10127000BFCF84FFCECFF2CF8091F60483FDDDCFC8
:10128000C8CF8091F60483FDF9C09091F70491FFD7
:10129000F0CFC4EED0E0BDCF8091F60485FFB9CF8A
:1012A000C9E2D0E0B6CF8091F60485FFB2CFC5E3A6
:1012B000D0E0AFCF8091F60486FFABCFCAE2D0E09A
:1012C000A8CF8091F60486FFA4CFC1E3D0E0A1CFE0
:1012D000CF3BD10518F6C85AD0E0CC0FDD1FC75D53
:1012E000DE4F0990D881C02DD46493CFC11540E260
:1012F000D40758F4C11581E0D80708F08ACFC03F61
:10130000D10508F4ABCFD06584CFC11590E4D907DF
:1013100008F4A4CFDF70D06A7CCFC11525E5D207D1
:1013200000F5C11534E5D30708F08AC0C11543E5BF
:10133000D40708F071C0C11582E5D80708F467C06A
:10134000CE018370992721E030E002C0220F331FC5
:101350008A95E2F7C695C69580E2C89FE001112400
:1013600052C0C11599E5D907A8F4C11528E5D207DF
:1013700008F06BC0C11536E5D30708F06FCF8C2F8E
:101380000E947608C82FD0E0DC2FCC27CC27DF7155
:10139000D0623FCFC1154AE5D40708F45BC0CE0147
:1013A00090568115904208F059CF8D2F8F710E9471
:1013B000760890E0982F882788279F719C012C2B16
:1013C000E901E6CFC55AD0E0CA5DDE4FC881D0E062
:1013D000D0641FCFCE01E4E096958795EA95E1F7BA
:1013E00083702C2F26952695237040E2249F900130
:1013F0001124382B8C2F8370C1E0D0E002C0CC0FB9
:10140000DD1F8A95E2F7C22BD32BDC6802CFDC2FDD
:10141000CC27C16FD06AFDCECE018370992721E021
:1014200030E002C0220F331F8A95E2F7C695C695B9
:1014300090E2C99FE0011124C22BD32BDA68E9CED8
:10144000DC2FCC27C46FD06AE4CEDC2FCC27C06F52
:10145000D06ADFCE8C2F8F700E94760834E0D6954C
:10146000C7953A95E1F7CF709C2FEC01D069D1CEAA
:10147000C9E3D0E0CECEC2EED0E0CBCEC6EED0E017
:10148000C8CE80911902882331F01092190210926F
:101490001802109217020895CF93C82F8091F70475
:1014A00082FD0CC0809119028C1741F00E949004BB
:1014B0009093180280931702C0931902CF91089558
:1014C000809590912B05982390932B0508958095F6
:1014D00090913203982390933203089590913203B0
:1014E000892B8093320308951092F6011092F50132
:1014F0001092F40108958091140490911504892BA1
:1015000089F00E9490042091170230911802AC01DA
:10151000421B530B81E020911404309115044217B3
:10152000530708F480E0817008958091F3018111E0
:101530001092F301089590911D019923D1F090919B
:10154000F60497FF16C0E82FE695E695E695EE318E
:10155000E0F4F0E0E258FE4F282F277081E090E0A1
:1015600001C0880F2A95EAF78095928189238283AA
:101570000895E0E8F1E09191891303C0DF0111972C
:101580001C9291E0E638F907B1F708952091F20135
:101590009091B101291302C080E0089530E0F90173
:1015A00053E0EE0FFF1F5A95E1F7EE54FE4F5181C5
:1015B000561306C05081581303C05281541304C0FF
:1015C0002F5F3F4F2770E6CF81E008958091F201B1
:1015D0009091B101981301C008958F5F8770FACF81
:1015E0009E3F51F1292F220F220FE22FE90FE80F22
:1015F0009E2F9770E695E695E69583E0E89FF001CB
:101600001124EA55FE4F50E040E080E0219130E0A7
:10161000092E02C0369527950A94E2F721703327E8
:10162000042E01C0220F0A94EAF7822B4F5F5F4F0E
:101630004330510559F7089580E008959E3F71F1B8
:10164000292F220F220FE22FE90FE80F8E2F87702C
:1016500041E001C0440F8A95EAF7E695E695E695E4
:1016600083E0E89FF0011124EA55FE4F30E020E0CE
:1016700070E05191DF011197CB01022E02C09695C7
:1016800087950A94E2F781708195852784238527C1
:101690008C932F5F3F4F2330310559F70895929572
:1016A0009F70963091F058F4925F9F70923058F48A
:1016B000803F19F030F4883E30F481E008959A5F5D
:1016C000F4CF843FD1F380E00895883EB0F3813FAA
:1016D000D1F7F3CF9C013A9521153F4150F5FC011C
:1016E000EE27F170BC0166277270AC01442754707C
:1016F0009C012227387094FF0EC080E1EF2B09F483
:1017000080E0672B09F08062452B09F08064232B71
:1017100089F08068089581E0EF2B09F480E0672B61
:1017200009F08260452B09F08460232B19F0886052
:10173000089580E008958093F8047093FA0460930C
:10174000F904809120058430F9F48093E9008FEF4B
:101750009091E800815095FD06C095ED9A95F1F7BE
:1017600000008111F5CF8091E80085FF0DC050E0A9
:1017700040E063E070E088EF94E00E9426038091EF
:10178000E8008E778093E8000895BC0184E00C9413
:101790009B0BBC0183E00C949B0B9C0184E0809329
:1017A000E9009FEF8091E800915085FD06C085ED2E
:1017B0008A95F1F700009111F5CF8091E80085FF3F
:1017C0000CC050E040E066E070E0C9010E942603D2
:1017D0008091E8008E778093E8000895CF93DF939F
:1017E000EC0180911D018823B1F18091F60487FFFF
:1017F00032C060E284E08093E9008FEF9091E800CE
:10180000815095FD06C095ED9A95F1F70000811184
:10181000F5CF8091E80085FF1BC080911D0170E02D
:1018200050E040E0811104C050E040E068E070E02A
:10183000CE010E9426038091E8008E778093E80015
:1018400080E2FE01AEEFB4E001900D928A95E1F7DF
:10185000DF91CF91089568E081E0CDCF019708F442
:101860000895EFE9FFE03197F1F700C00000F6CFEF
:101870000F931F93CF93DF9302E114E0CBE3D0E00B
:10188000CE010E946434F80181938F012196CF35F7
:10189000D105B1F7CCE8D3E0FE0185919491009792
:1018A00011F0FC0109952C96F4E0C838DF07A1F788
:1018B000DF91CF911F910F9108950F931F93CF93B5
:1018C000DF93823008F561111FC04530E8F4042F22
:1018D00010E0000F111F2AE0829F000D111D11243E
:1018E000C80187960E946434C82FD0E0DC2FCC2733
:1018F000C80188960E9464349E01282BC901DF919B
:10190000CF911F910F91089590E080E0F8CF462F7E
:101910002091300330913103232B91F47E3F39F431
:101920006E3F71F480912E0390912F0308958230C1
:1019300038F4711105C0653018F460E00C945D0C4A
:1019400090E080E00895CF92DF92FF920F931F9373
:10195000CF93DF936C0100912A0580911A02082B26
:10196000C7E0D0E010E0FC2EC8010C2E02C0959517
:1019700087950A94E2F780FD0CC02197A0F7F12C1F
:101980008F2DDF91CF911F910F91FF90DF90CF901E
:101990000895B6018C2F0E94870C0E94B908019708
:1019A00061F3EECFCF93DF93EC010E94A30CBE0155
:1019B0000E94870CDF91CF910C94B908FC018681BD
:1019C0009781009721F00E94B9080C944F0B8081F9
:1019D00091810E94D20CF9CF1F93CF93DF9300D057
:1019E00000D00F92CDB7DEB749835A8389819A819F
:1019F0006623B9F02223A9F00E94A30C182F682FA8
:101A000089819A810E941E0B69817A81812F0F90B2
:101A10000F900F900F900F90DF91CF911F910C942A
:101A2000870C0E94F00A182FEFCFFC01262F868129
:101A30009781009739F4408151816281738184815B
:101A40000C94EC0C089583E290E00E946434853895
:101A500089F484E290E00E9464348F3F59F485E277
:101A600090E00E94643491E08E3E09F090E0892F6E
:101A70008170089580E0FCCFCF9384E090E00E94D5
:101A80006434C82F82E290E00E946434982F8C2F37
:101A9000CF910895DB01FC013296259134914217D4
:101AA000530758F0FC01349665917491A901CD015A
:101AB0000E94443490E080E008958FEF9FEF0895F6
:101AC0000F931F93CF93DF9302E114E0CBE3D0E0B9
:101AD000CE010E946434F80161918F01681719F0FA
:101AE000CE010E9472342196CF35D10589F7DF915E
:101AF000CF911F910F910895DA019C012E5F3F4F06
:101B0000F90145915491F90125913491A217B30738
:101B100058F0FC013496859194910E9444340E94BF
:101B2000600D90E080E008958FEF9FEF0895CF93D0
:101B3000DF93CFE4D1E060E0CE010E9472342196C1
:101B4000C11584E0D807B9F7DF91CF9108950F93BD
:101B50001F93CF93DF938901823020F5611122C05A
:101B6000453000F521153C4531F420910F013091AD
:101B70001001232BB9F0C42FD0E0CC0FDD1F9AE069
:101B8000899FC00DD11D1124612FCE0187960E941F
:101B90007234602FCE018896DF91CF911F910F9103
:101BA0000C947234DF91CF911F910F910895CF93D0
:101BB000C82F6FEF811165E883E290E00E947234D4
:101BC0006FEF84E290E00E9472346FEFC1116EEE0D
:101BD00085E290E0CF910C947234CF93C92F682F97
:101BE00084E090E00E9472346C2F82E290E0CF910A
:101BF0000C9472349B01883070F49AE0899FB00194
:101C00001124615A7F4F4AE050E0C9010E945434C8
:101C100090E080E008958FEF9FEF08958F929F925C
:101C2000AF92BF92CF92DF92EF92FF920F931F93EA
:101C3000CF93DF93CDB7DEB72A970FB6F894DEBF08
:101C40000FBECDBF0BE314E0F12CE12C8FEBC82EBF
:101C50008AE2D82E99EEA92E9AE2B92E28E2822E97
:101C60002AE2922EF801D182C082B382A2829582AA
:101C70008482F58AE48ABE016F5F7F4F8E2D0E94B9
:101C8000FA0D892B29F489859A85F801938B828B2B
:101C9000FFEFEF1AFF0A0A5E1F4F88E0E816F10413
:101CA00009F72A960FB6F894DEBF0FBECDBFDF91BD
:101CB000CF911F910F91FF90EF90DF90CF90BF9049
:101CC000AF909F908F9008958F929F92AF92BF9206
:101CD000CF92DF92EF92FF920F931F93CF93DF93F8
:101CE000CDB7DEB72A970FB6F894DEBF0FBECDBFD3
:101CF00006EB12E084EAC82E82E0D82EEE24EA94A5
:101D0000F12C27E0922E33EAA32E32E0B32E882462
:101D10008394D6010D931D936D014AE050E0B70105
:101D2000CE0101960E945434F8013896DF01892DC6
:101D30001D928A95E9F789819A81D80111969C9321
:101D40008E938F8112968C9312978D8113968C931C
:101D50001397888514968C931497898515968C9380
:101D600015978B819C8117969C938E931697189646
:101D70001C9218978A8587FF4BC01E961C921E9254
:101D80001D9780FF03C0D80118968C9281FF04C074
:101D9000F80190859260908782FF07C0D80118965D
:101DA0009C911897946018969C9383FF04C0F80147
:101DB00090859860908784FF07C0D80118969C9101
:101DC0001897906118969C9385FF04C0F801808550
:101DD00080628087015F1F4FFAE0EF0EF11C8FE4F5
:101DE000E81681E0F80609F094CF2A960FB6F89429
:101DF000DEBF0FBECDBFDF91CF911F910F91FF903E
:101E0000EF90DF90CF90BF90AF909F908F9008950C
:101E1000F801B686A586B5CFCF92DF92EF92FF92FA
:101E20000F931F93CF93DF93CDB7DEB72A970FB6EB
:101E3000F894DEBF0FBECDBFE3E5F2E080E5DF0141
:101E40001D928A95E9F7EBEBF3E088E3DF011D9241
:101E50008A95E9F783E5C82E82E0D82E7F010FEA44
:101E600010E0F701D182C0824AE050E0B801CE0113
:101E700001960E94543488E0FE013196D60101900B
:101E80000D928A95E1F789859A85D70113969C93DF
:101E90008E931297BAE0CB0ED11CE7E0EE0EF11C48
:101EA000065F1F4F0F3F1105E1F62A960FB6F89413
:101EB000DEBF0FBECDBFDF91CF911F910F91FF907D
:101EC000EF90DF90CF900895CF938091320390915F
:101ED0002B05892B80937E0180911902882329F19B
:101EE0008091140490911504892B29F00E947B0A9B
:101EF00081110E94410A80917E0190911902892BE3
:101F000080937E0180911D01882309F446C0809151
:101F1000F60487FF42C08EE1E0E8F1E090E08150F6
:101F200008F03DC091110E94410AC0910B04C09578
:101F300080917E01C82380910C04C82BC0937E0140
:101F400040E250E067EF71E08EE791E00E943734A5
:101F5000892B59F180E2EEE7F1E0A7EFB1E00190C3
:101F60000D928A95E1F7E091ED04F091EE0430973F
:101F7000E1F080911D01882349F08091F60487FFEC
:101F800005C0C0937F0186E080937E010280F381CB
:101F9000E02D8EE791E0CF91099486E0BDCF2191AD
:101FA000222309F4BCCF9F5FBACFCF910895EF925F
:101FB000FF920F931F93CF93DF93EC018A858111DA
:101FC00034C0EB80FC8087E5F81A26E12E9DC00125
:101FD0002F9D900D1124DC01A55CBB4F1496ED9153
:101FE000FC911597309731F054966D917C918F5BF1
:101FF0009B4F099586E18E9D80018F9D100D1124C8
:10200000055C1B4FF80187810E94670AF8018085F3
:102010000E94600A0E94640F188219861B861E8225
:102020001D8210923A0410923904DF91CF911F91D2
:102030000F91FF90EF900895CF93DF93EC01898982
:10204000811118C081E0898B8F810E946E0A809176
:102050002B059885892B80932B050E94640FEA81BC
:10206000FB81309739F06C897D89CE010696DF912E
:10207000CF910994DF91CF91089580911B01877FC3
:1020800080931B0182E00E94600A80911B0184FF03
:1020900006C08F7E80931B0182E00E946E0A8091B1
:1020A0001B0185FF06C08F7D80931B0180E20E948B
:1020B0006E0A0C94640F90E080E00E94E70490E0C8
:1020C00080E00E94D10410922B050E94640F86E0EC
:1020D000EBE3F2E0DF011D928A95E9F710923502F9
:1020E00010923402109236020C94820680932A05D4
:1020F0000C945B1080912A05982F9670963019F4F5
:1021000088600C947610877FFCCF21E030E001C01E
:10211000220F8A95EAF7209580912A0582230C9454
:1021200076109091F601809589238093F601282FEF
:10213000277091F4282F082E000C330B92171306EA
:1021400059F09091F70492FD07C085958595859586
:102150000E9485100C94740A08959091F70492FBE4
:10216000222720F9281769F080FB92F99093F70451
:102170008091F6049091F7040E94ED0D82E00C949A
:102180009110089521E030E001C0220F8A95EAF70E
:1021900080912A05822B0C9476109091F70492FD81
:1021A00010C098E0899F90011124622B6093F60182
:1021B0000E94C2100E9490049093F5018093F40154
:1021C00008950C94C21080931A020C945B10109224
:1021D000320380911D01E0E8F1E0882359F08091FD
:1021E000F60487FF07C08EE1DF011D928A95E9F7AB
:1021F0000C945B1086E0F8CF1F93CF93DF93CDB79D
:10220000DEB7AA970FB6F894DEBF0FBECDBF82E24D
:1022100095E02091F100DC012D93CD01B5E08A32EB
:102220009B07B9F780912305833009F472C0B8F495
:10223000813009F449C0823009F4B3C08091E800CC
:1022400083FF96C280912205909123059A3008F071
:102250008FC2E92FF0E0E055FB4C0C9421348A301A
:1022600009F48EC08B3009F471C0893039F7809140
:102270002205813219F78091260590912705009754
:1022800011F00297D9F68091E800877F8093E800EB
:102290008091E80082FF38C09091F3008091F200B5
:1022A000029731F48091F100813011F0863021F4F1
:1022B0008091F1008093FD048091E8008B778093FA
:1022C000E8000E945003BACF80912205813A09F0BC
:1022D000B5CF8091E800877F8093E8008091260544
:1022E00090912705892B61F460E28EEF94E070E015
:1022F0000E9402048091E8008B778093E8009ECFD3
:1023000060E090E080E0F3CF809120058111C0CFA4
:1023100095CF80912205813A09F090CF80912605D2
:1023200090912705892B09F089CF8091E800877F5C
:102330008093E8008091E80080FFFCCF80911D0130
:102340008093F1008091E8008E77B9CF80912205CB
:10235000813209F073CF8091260590912705892B52
:1023600009F06CCF8091E800877F8093E8000E949D
:1023700050038091240580931D010E94E7105ECFD9
:1023800080912205813209F059CF8091E800877F42
:102390008093E8000E945003809125058093FC04FF
:1023A0004DCF80912205813A09F048CF8091E80015
:1023B000877F8093E8008091E80080FFFCCF8091C8
:1023C000FC04BECF803899F0823809F0D1C18091E9
:1023D00026058F70873008F0CBC18093E90080918B
:1023E000EB0085FB882780F91092E90006C08091F8
:1023F0001E0590911F05911182609091E800977FD2
:102400009093E8008093F1001092F1008091E80031
:102410008E77AAC1882309F498C1823009F0A8C137
:102420008091240581119BC1809126058F702FEF2B
:10243000280F263008F09CC18093E9002091EB0022
:1024400020FF8DC1933031F48091EB008062809346
:10245000EB0085C19091EB0090619093EB0021E03F
:1024600030E001C0220F8A95EAF72093EA0010922B
:10247000EA008091EB008860EACF811179C1109168
:1024800024051F778091E3008078812B8093E300FF
:102490008091E800877F8093E8000E94500380913C
:1024A000E80080FFFCCF8091E30080688093E30028
:1024B00082E0111183E0809320055AC18058823058
:1024C00008F056C120912405309125052C3DE3E00C
:1024D0003E07A1F583E08A838AE289834FB7F894A7
:1024E000DE01139620E03EE051E2E32FF0E050934E
:1024F0005700E49120FF03C0E295EF703F5FEF705B
:102500008E2F90E0EA30C0F0C7968D939D932F5F99
:10251000243159F74FBF8091E800877F8093E8000E
:102520006AE270E0CE0101960E9402048091E80008
:102530008B778093E8001CC1C096E7CF8091260579
:1025400090912705432F55274330510509F44AC080
:1025500078F54130510509F485C08BE590E0EEE750
:10256000F4E04230510509F003C12091E800277FD3
:102570002093E800209128053091290582179307C0
:1025800008F49C0140E02115310509F070C04111AB
:102590006EC08091E80082FDC9CF8091200588231C
:1025A00029F2853019F28091E80083FFF2CFBECF87
:1025B0004132510509F447C04232510509F0D8C0F3
:1025C0008330910508F0D4C0FC01EE0FFF1FE159E4
:1025D000FE4F0190F081E02D84599E4FDC018C91DB
:1025E00090E01DC0332721303105E9F02115310578
:1025F00079F022303105F9F02330310509F0B8C007
:10260000EBEEF4E0E4918E2F90E0EBEEF4E007C007
:10261000E9E6F5E0E4918E2F90E0E9E6F5E0009739
:1026200009F4A6C0A2CFE3E4F5E0E4918E2F90E098
:10263000E3E4F5E0F4CFE9E0F5E0E4918E2F90E0FB
:10264000E9E0F5E0ECCF8330910508F091C0880F08
:10265000991FFC01EB58FE4F0190F081E02D89E0BD
:1026600090E083CF82E190E0E9EDF4E07ECF8091CD
:102670002005882309F45ACF853009F457CF80917B
:10268000E80083FD53CF8091E80082FD82CF8091E6
:10269000E80080FF78CF9091F3008091F20021153F
:1026A000310519F08830910550F041E0089709F0A4
:1026B00040E08091E8008E778093E80064CF4491F9
:1026C0004093F1003196215031090196E8CF8038CE
:1026D00009F04EC08091E800877F8093E8008091E8
:1026E00021058093F10092CE811142C01091240502
:1026F0001230F0F58091E800877F8093E800109316
:1027000021050E945003112311F084E005C080913F
:10271000E30087FDFACF81E08093200542E061EC81
:1027200081E00E946F0342E261EC84E00E946F034B
:1027300042E261EC82E00E946F0342E260EC83E0DF
:102740000E946F038091200513C080912405813081
:1027500079F481E0933009F080E080931F051092B6
:10276000E9008091E800877F8093E8000E94500391
:102770008091E80083FF0AC08091E800877F809302
:10278000E8008091EB0080628093EB00AA960FB680
:10279000F894DEBF0FBECDBFDF91CF911F9108959A
:1027A000E2E1F4E0128E138E8FEA90E09183808351
:1027B00025E0248F88E893E1938382838AE090E088
:1027C0009583848344E150E05783468368E070E05A
:1027D00071876087938782874EE150E055874487F1
:1027E0009787868740E550E0518B408B738B628BD7
:1027F00068E270E0758B648B62E370E0778B668BC8
:1028000068EC70E0718F608F158E978F868F51A363
:1028100040A322A30E94600D0E94E7101092F704CB
:102820001092F60490E080E00E94ED0D0C94380CBC
:10283000CF92DF92EF92FF920F931F93CF93DF938C
:10284000CDB7DEB76E970FB6F894DEBF0FBECDBF23
:10285000C0900F01D090100181E090E090931001A2
:1028600080930F019AE5E92E93E0F92E10E0F7012D
:1028700025913491412F60E080E00E94A70D82E015
:10288000E80EF11C1F5F153091F784E6E82E83E017
:10289000F82E10E0F70125913491412F60E081E09E
:1028A0000E94A70DE2E0EE0EF11C1F5F153091F7BC
:1028B0000E94D0131A8219821C821B821E821D82E2
:1028C00018861F8288EC90E09A8789870FE510E0D0
:1028D0004AE050E0B801CE0101960E949634065FAE
:1028E0001F4F0F3A1105A1F77E01FBE0EF0EF11C1F
:1028F0008AE0F70111928A95E9F74AE050E0B801C1
:10290000C7010E949634065F1F4F0F3F1105A9F7BC
:102910007E01F5E1EF0EF11C8AE0F70111928A9534
:10292000E9F78FEF9FEF9A8F898F87E08E8F4AE0CC
:1029300050E0B801C7010E949634065F1F4F0F3464
:10294000F1E01F07A1F7D0921001C0920F016E961F
:102950000FB6F894DEBF0FBECDBFDF91CF911F91B0
:102960000F91FF90EF90DF90CF90089580E00E944C
:10297000D70D60E086E290E00E9472340E94181445
:102980000E94970D81E00C94D70D69EE7EEF90E0E8
:1029900080E00E94903460E082E090E00E94723417
:1029A00060E083E090E00E94723410921A0260E0CE
:1029B00084E090E00E94723460E082E290E00E9445
:1029C000723460E085E090E00E94723460E086E05E
:1029D00090E00E9472346FEF87E090E00E947234C2
:1029E00040E050E0BA0188E090E00E94843460E06A
:1029F0008DE090E00E94723440E050E0BA0188E13E
:102A000090E00E94843460E087E190E00E9472349C
:102A100040E050E0BA018CE190E00E94843470E024
:102A200060E080E290E00E94903440E050E0BA0123
:102A300088E190E00E94843480E00E94D70D0E94DB
:102A4000B61440E050E0BA018FE090E00E94843478
:102A500040E050E0BA0183E190E00C948434CF92DE
:102A6000DF92EF92FF928FEF9FEF4430510508F411
:102A70006AC0FB01C080D180E280F3800E94E71031
:102A80008091F604C0FA80F9B701A60176956795A2
:102A90005795479540FB81F9B701A60122E076954D
:102AA0006795579547952A95D1F740FB82F9B7016D
:102AB000A60133E076956795579547953A95D1F7F6
:102AC00040FB83F9B701A601E4E076956795579539
:102AD0004795EA95D1F740FB84F9B701A601F5E0E7
:102AE0007695679557954795FA95D1F740FB85F907
:102AF000B701A601A6E07695679557954795AA95E3
:102B0000D1F740FB86F9B701A601B7E07695679546
:102B100057954795BA95D1F740FB87F98093F6040E
:102B20008091F704D0FA80F9D1FACC24C0F8C0FA29
:102B300081F98093F7048091F6049091F7040E9444
:102B4000ED0D90E080E0FF90EF90DF90CF90089542
:102B5000882321F00E94600A0C94640F0895882352
:102B600039F090912B05982B90932B050C94640FC2
:102B70000895882321F00E94670A0C94640F089539
:102B8000882321F00E946E0A0C94640F0895882314
:102B900061F19CEF980F913A20F40E949B0A0C94EB
:102BA000640F90E2980F983050F4877091E001C064
:102BB000990F8A95EAF7892F0E94670AF0CF9BE563
:102BC000980F933020F490E080E00C94E70498E5AF
:102BD000980F973120F490E080E00C94D104803F6E
:102BE00020F00E94A9060C9482060895FF920F938C
:102BF0001F93CF93DF93F82E0091100410911104CE
:102C00000115110509F449C010920F0410920E0429
:102C100010920B0410920C04D8011696CD91DC9101
:102C20009E013A9521153F4108F4D07ED1E0C111B3
:102C300001C0D0E0D8011996ED91FC911A97309718
:102C400031F01B966D917C9180E00995D823DD23AE
:102C500039F08CEF8C0F813A38F58C2F0E949B0A4B
:102C6000FF2099F0E0911004F0911104808584FD1B
:102C70000CC080910D04882341F0808191819C01DA
:102C800021503109253A3D45A8F00E94640F109269
:102C900011041092100410920D04C801DF91CF911D
:102CA0001F910F91FF9008950E94640F8C2F0E9436
:102CB000C715D6CF0E940905E8CFCF93DF93EC016B
:102CC0000E94C715CE010E946A0B9E01205E310949
:102CD0002830310510F0CD2B21F4DF91CF910C94E9
:102CE000B915DF91CF910C94A815CF93C82F8823E5
:102CF00009F468C08CEF8C0F813AA8F580911D0112
:102D0000882301F18091F60487FF1CC0EC2FE69523
:102D1000E695E695F0E0E258FE4F828190E04C2F78
:102D2000477021E030E002C0220F331F4A95E2F7DE
:102D300082239323892B79F08C2F0E949B0A0E9477
:102D4000640F09C0E0E8F1E08191C817A9F381E0C0
:102D5000E638F807C9F76C2F8EE791E00E949C04D3
:102D6000CF910C94640F80E28C0F883048F4C770C8
:102D700081E001C0880FCA95EAF70E946E0AF0CF81
:102D8000EBE5EC0FE33040F4F0E0EA5DFE4F8081CC
:102D900090E0CF910C94E704E8E5EC0FE73150F4B4
:102DA000F0E0EE0FFF1FE75DFE4F80819181CF9134
:102DB0000C94D104C03F30F08C2F0E94C407CF91F7
:102DC0000C948206CF9108951F93CF93DF93182F11
:102DD000C0913204D0913304893321F0C091300482
:102DE000D0913104812F0E947516209731F4812FE4
:102DF000DF91CF911F910C94C7158FE99FE0019748
:102E0000F1F700C000002197F0CF0F931F93CF93ED
:102E1000DF93C42FD22FFC0182818823A1F040933D
:102E200038040E9490049093370480933604C7704E
:102E300081E001C0880FCA95EAF7DF91CF911F9119
:102E40000F910C94C01510913804141339C080915F
:102E50003604909137040E94750420912A04309121
:102E60002B048217930760F5C0E2CD0F1D17B9F050
:102E700080E2810F883040F4177081E001C0880F34
:102E80001A95EAF70E94B915C83048F481E09D2FE1
:102E9000977001C0880F9A95EAF70E94C015802F9D
:102EA0000E94E416C83098F4D77081E001C0880F02
:102EB000DA95EAF7DF91CF911F910F910C94B91534
:102EC000C77081E001C0880FCA95EAF7F3CFDF91A0
:102ED000CF911F910F910895DF92EF92FF920F9380
:102EE0001F93CF93DF93E82FF0E0E650FE4FD4908E
:102EF000282F26952695269530E0F901E651FE4FBC
:102F00000491877010E0082E02C0159507950A9469
:102F1000E2F701701127F901E652FE4FE490F12C1F
:102F2000082E02C0F594E7940A94E2F791E0E922B2
:102F3000FF24F901E653FE4FC491D0E002C0D595BD
:102F4000C7958A95E2F7C170DD270115110519F0C3
:102F500081EE0E947516E114F10419F086EE0E94CC
:102F600075168D2D0E94E416EF2819F086EE0E944A
:102F7000C715012B19F081EE0E94C715CD2B51F01A
:102F80008CE2DF91CF911F910F91FF90EF90DF9036
:102F90000C94E416DF91CF911F910F91FF90EF9069
:102FA000DF9008951F93CF93DF93EC011AE088819F
:102FB000882309F43EC08130C9F599818A81913016
:102FC00029F422960E94E4162196F1CF923021F442
:102FD00022960E947516F8CF933021F422960E9413
:102FE000C715F2CF943011F02196EECF229630E043
:102FF00020E0AE014F5F5F4F8053990B8A309105FF
:1030000050F02150310900F38FE99FE00197F1F76B
:1030100000C00000F6CF129FB001139F700D112465
:103020009C01260F371F8981EA01E3CF0E946C17AC
:10303000CBCFDF91CF911F910895CF93DF93EC0118
:103040000E946A0B9E01205E31092830310510F084
:10305000209739F40E94C0158C2FDF91CF910C94EA
:1030600075160E94AF15F8CF662329F020912B0525
:10307000226020932B059C013056211540E2340735
:1030800020F0305E2115304108F499270C941D186A
:10309000DF92EF92FF920F931F93CF93DF937C0108
:1030A0008B01D42E80911B0182FF8CC0C0915503EF
:1030B000D0915603CE15DF0521F0E114F10409F09B
:1030C00081C080911B018B7F80931B0181FD73C0A8
:1030D0008091530390915403A801481B590B81E040
:1030E0002091190130911A014217530708F480E02A
:1030F0008170F82E80911B01F0FA81F980931B01F9
:10310000FE0183E0F695E7958A95E1F7EE71FF27DA
:10311000ED5CFC4F20813181AE014F70552781E07D
:1031200090E002C0880F991F4A95E2F7FF2009F44A
:1031300044C0822B932B918380838091320381FF43
:1031400008C080911B01806180931B0182E00E9476
:10315000670A8091320385FF08C080911B0180625D
:1031600080931B0180E20E94670A6F2DCE010E94AE
:103170003418DD2031F080912D0485FF02C086FFD8
:103180003BC080913004909131040E942E0C8091BC
:103190005503909156039C013056211540E23407A7
:1031A00020F0305E2115304108F499270E945D1609
:1031B0000E943D101DC081E09BCF80959095822399
:1031C0009323B9CFC701992797013056211540E2C3
:1031D000340728F0305E2115304108F0C7010E9405
:1031E0005D1680915503909156038E159F0501F34E
:1031F0001093540300935303DF91CF911F910F91CC
:10320000FF90EF90DF9008952F923F924F925F9240
:103210006F927F928F929F92AF92BF92CF92DF92E6
:10322000EF92FF920F931F93CF93DF9300D000D0C4
:1032300000D00F92CDB7DEB77C01DC0113964D9123
:103240005C91149711966C9111978C910E947A055C
:103250008111CBC061E0C7010E94150D8C01F701FF
:103260008281811161C0D70112968C9181119BC01E
:103270000031FFE51F0709F473C101312FE5120783
:1032800009F472C16801E7E5DE1AFFEFCF16D10439
:1032900009F060F569E472E08C2D0E94FA0D892B2B
:1032A00029F586E18C9DF0018D9DF00D1124E55CE2
:1032B000FB4F8681813009F059C18091490290917C
:1032C0004A02892B99F080914B0290914C02892BF4
:1032D00069F080914D0290914E0220914F02309101
:1032E0005002822B932B892B09F44AC1F70152809B
:1032F000552009F457C10F35FDE51F0709F44EC1EC
:1033000000362DE5120751F00E353DE5130709F0A3
:1033100049C180910001882309F440C11092000145
:1033200080E00E94F61551C080910D0190910E0130
:10333000019609F498CFABE3CA2EA4E0DA2EB12CA3
:10334000A12C9924939480910D0190910E018A15DE
:103350009B050CF488CFF60186818823E9F08185EE
:1033600092850817190739F48091390490913A042D
:103370000817190789F0D6011F969C921F971C9673
:103380001C930E931B97C6010E941C10C601069643
:103390000E94D70F10922B05BFEFAB1ABB0AE6E1D4
:1033A000CE0ED11CD0CFC80182519F45409710F05E
:1033B0000C94EF228FEF93E00E946434FEEEDF2E38
:1033C000D00E0FE411E08823A9F18091F6018770F7
:1033D00061F0D70112968C91882339F08091F7041F
:1033E00082FD03C082E00E94911027960FB6F894E8
:1033F000DEBF0FBECDBFDF91CF911F910F91FF9028
:10340000EF90DF90CF90BF90AF909F908F907F9084
:103410006F905F904F903F902F9008950115F4E0CA
:103420001F0799F2C8010E946434811101C0DA9427
:103430000F5F1F4FD110F2CF19821A821B821C829C
:1034400099249A9468012FEFC21AD20AC8010E94E7
:10345000643489831A82882309F4B7CF813009F054
:1034600073C0580132E0A30EB11CC6010E9464343F
:10347000C82E8A83882309F4A8CFC5010E9464342A
:10348000D82E8FEF8C0D833068F4580143E0A40EE2
:10349000B11CDB82DD2021F0CE0101960E94D21703
:1034A0008501D0CF8BEF8C0D833030F5C8010396AA
:1034B000DB825C01DD20A1F3580154E0A50EB11CB4
:1034C0000E9464348C83882359F38B819C818130E2
:1034D000AFEF9A0710F0982F8827B6E0CB1631F09F
:1034E000E7E0CE1631F00E94AF2ADACF0E947F2AA1
:1034F000D7CF0E94F929D4CFF4E0CF12D1CF580111
:1035000024E0A20EB11CC80103960E946434DD20A1
:1035100009F45BCF882309F458CF8150990B989E0A
:103520009001999E300D11244D2D4150550BCA012B
:10353000820F931F019708F4B3CFAFE9BFE0119753
:10354000F1F700C00000F6CFCE0101960E94D2171D
:103550005601A6CF81E00E94C2100E947A1035CF9A
:1035600081E00E948510F9CF82E0FBCF823009F024
:10357000BDCE80914D0290914E02892B09F4B6CEBA
:1035800026E12C9DC0012D9D900D1124855C9B4F43
:10359000DC0150961C920E941C10A8CE81E0809302
:1035A000000113CF80910001882309F4BCC64801B3
:1035B00040EE841A9108409019028091F301482A44
:1035C00080913203482A58E08516910408F086C09D
:1035D00098012770332781E090E001C0880F2A9579
:1035E000EAF7552009F477C0482AD7018D919C91BC
:1035F0000E94F00A21E030E0390102C0660C771C1D
:103600008A95E2F7E0911004F0911104FF83EE83B4
:1036100020909E0130909F011D822D81E22FF0E0CD
:10362000EE0FFF1FEC55FD4FC080D180C114D104B7
:1036300009F4C0C7411005C0D60112968C918111C2
:1036400089C0F601838190E086219721892B09F4B6
:1036500081C08085982F977009F487E0F8E08F1675
:10366000910408F055C0552009F44EC0869581702C
:10367000882309F46FC0D601AD90BC900A151B05D4
:1036800019F4552009F466C0EE81FF81CE16DF06DD
:1036900009F460C0D6011D96ED91FC91309721F0A0
:1036A0008081882309F456C0642DC6010E945A0502
:1036B000882309F44FC00A151B0509F0D1C701156D
:1036C000110509F4D2C75110D2C7A214B30409F0EE
:1036D00041C0512CCCC78095482287CF552009F492
:1036E00052C710939F0100939E010E94840460932F
:1036F0000704709308048093090490930A041092BD
:103700000F0410920E0471CF82FB882780F9B0CF8E
:10371000552001F18170ACCF0E94C715C6C7049730
:10372000813A910558F46A2D8EE791E00E949C043D
:10373000552009F4F8C50E94640F47CE0E94640F1B
:103740008FE39CE90197F1F700C000008A2D0E94E9
:103750007516EECF9D819F5F9D835FCFFC01208119
:1037600031810217130709F0D7C55110D7C5109240
:103770000D0480E031C7882309F424C6FA01818949
:10378000882309F41FC6C5018F5B9B4F0E94D70F8A
:1037900019C682EE0E94751658C688E193E00E9411
:1037A0001D1888E193E00E945D164FC68091A1012B
:1037B000811103C083E50E94E41682EE0E94751613
:1037C0008FE39CE90197F1F700C0000087E50E94B4
:1037D000E4163BC686EE0E94E41688E1F8CF8650D8
:1037E00059C696EF980F963020F0805D0E946C17B6
:1037F00053C6895AFBCF82EE0E94C71563C68CE27E
:103800000E94E4168091A201882309F45BC689E333
:103810000E94E41657C682EE0E94C7158091A1014E
:10382000811150C683E5F4CF88E2F2CF80911B016D
:10383000816080931B0178C680911B018E7F8093ED
:103840001B010E943D1070C680911B018F7E013EBE
:10385000110531F0053E1105C9F480911B018F7DE2
:1038600080931B0180911B0180FF6DC6D7011296CA
:103870008C910832110528F50E31110508F074C03D
:103880000430110580F581115AC65DC6C8019056F5
:10389000811540E2940720F0905E8115904110F769
:1038A00080911B0182FF4FC680912F0481FD4BC682
:1038B00025E232E040E0B60190E080E00E94481846
:1038C00042C60933110558F40D32110518F40B32B4
:1038D0001105C9F690912D0492FDD5CF08C004368C
:1038E0001105C1F3D0CF90912D0494FDCCCF882346
:1038F00009F4A1C09091320380911902282F292B3D
:10390000322F3D7FB1F11092560310925503309142
:103910002D0431FD2EC0F80143E0F695E7954A9558
:10392000E1F7EE71FF27ED5CFC4F98012F70332714
:1039300081E090E002C0880F991F2A95E2F78095F8
:10394000909520813181822393239183808360E04D
:10395000C8010E943418809119028D7F0E944C0A80
:1039600082E00E94911031CD90912D0493FD8BCF78
:10397000BECF38E0F701A5E2B2E001900D923A9592
:10398000E1F7109227021092290210922802A090CB
:103990005503B09056030A151B05B1F530912D045F
:1039A00035FF32C040911B0141FB992490F841FF43
:1039B00002C036FF29C04091530350915403B60111
:1039C000641B750B40912A0450912B0464177507F2
:1039D000D8F491FF08C080911B01806180931B0186
:1039E00082E00E94670A8091320385FF08C08091BF
:1039F0001B01806280931B0180E20E94670A692D8F
:103A0000C5010E943418E1CC90911B0121FB91F972
:103A100090931B018D7F0E944C0A109356030093D4
:103A20005503D0925403C092530380911B018460CC
:103A300080931B0195CF970140E0B601C8010E9419
:103A40004818C3CC053F4CE5140709F462C008F4DC
:103A50005AC0063F8CE5180709F461C0D7011296D9
:103A60003C91332309F4CAC5109238040330BDE5F4
:103A70001B0708F060C00A3FECE51E0730F4C801E0
:103A800082509C45449708F060C00E943C0D909382
:103A9000F7048093F60401313CE5130709F465C18E
:103AA00008F0E2C009305CE5150709F44CC108F0E4
:103AB000AFC005309CE5190709F43DC108F095C079
:103AC0000330BCE51B0709F42CC108F030C180911C
:103AD000F604816002301C4509F426C18091F60489
:103AE0009091F7040E94ED0D0E94E7106ECC07E262
:103AF00025EE45EE68ED7CE541C506E221EE40EE9F
:103B000063EF7CE53BC507E225EE44EE64EF7CE520
:103B100035C506E221EE42EE65EF7CE52FC507E2F2
:103B200025EE46EE66EF7CE529C508E221E045EE8C
:103B300069ED7CE523C50136FDE51F0709F4A5CF36
:103B4000053A2DE5120709F4A0CF06318CE51807D8
:103B500009F458C50A358DE5180709F45CC108F069
:103B600038C10115ACE51A0709F445C10E3D1C45E5
:103B700009F44EC1F70186819781009709F44FC17E
:103B80000E94B908182F092FF701D280C580C2946E
:103B90003FE0C3228091F6018770C1F0AD2CDD209B
:103BA000B1F0892F807F803421F080E2810F88304E
:103BB00068F08091F70482FD09C082E00E949110B4
:103BC0008091F6018770AA24A3948111A12C902ED4
:103BD00092942FE09222FBE0F91508F4ADC1E92D93
:103BE000F0E0E654FB4C0C9421348091F6048062A2
:103BF00007302CE5120709F497C08091F604806124
:103C000008301C4508F490C08091F60480648CC094
:103C10008091F6048B7F0D304CE5140709F484C0C5
:103C200080F40B308CE5180709F493C08091F604FA
:103C30008C600C301C4508F477C08091F6048D7FB1
:103C400073C08091F6048F7E0F30ACE51A0709F43B
:103C50006BC08091F604877F00311C4508F464C076
:103C60008091F6048F7D60C00D3FECE51E0709F4DE
:103C700078C050F505312CE5120709F480C098F49E
:103C80008091F604837F03314CE5140709F44CC09E
:103C900008F46FC00E94E7109091F604892F97FBFB
:103CA00087F9805841C00B3F8CE5180709F447C0DD
:103CB00008F053C08091F70481600A3F1C4509F069
:103CC0000DCF8093F7040ACF0130BDE51B0709F43F
:103CD00062C0B8F48091F7048C7F0F3FFCE51F07AA
:103CE00081F38091F704836001151D4550F38091A5
:103CF000F704982F909591708E7F892B90FB81F916
:103D0000E0CF01363DE5130709F44BC0053A4DE518
:103D1000140709F44DC002301D4509F0DFCE60E004
:103D20003BC08091F60482608093F604D7CE8091E8
:103D3000F6048460F9CF8091F6048860F5CF809115
:103D4000F7048260BECF0E94E7108091F60480687D
:103D5000EBCF8091F6048E7FE7CF8091F7048E7FC2
:103D6000B0CF8091F7048D7FACCF8091F6048F7B2C
:103D7000DBCF0E94E7108091F6048F77D5CF80913A
:103D8000F60482FB992790F921E0922790FB82F9B3
:103D900090FB83F9C9CF61E08EE090E00E9472341D
:103DA0009DCE9091F604892F8F7E94FF8061BCCFC9
:103DB0009091F604892F8E7F90FF8160B5CF80911E
:103DC000A301811104C089E20E949B0AB4CC85E35F
:103DD000FBCF0B35EDE51E0701F10C351D4509F054
:103DE000C9CE8091F70482FB882780F991E089276A
:103DF0000E94AD10BFCE0E94E7102FEF34E34CE0DD
:103E0000215030404040E1F700C000000E946404AF
:103E10000E94C514DACA81E0EBCF80E0E9CF82814D
:103E200000811181882369F0C8010E94A30CD82E5B
:103E3000682FC8010E941E0BB8018D2D0E94870CAF
:103E40009FCEC8010E94F00AD82EF6CF202F2F70E7
:103E5000B22E802F807F19F0B29490EFB922DD202E
:103E6000A9F0BB2059F080E2810F883010F01111C9
:103E700007C08B2D0E946E0A0E94640F812F5AC0CA
:103E800080912B05B82AB0922B05F6CF812F0E9486
:103E9000C715BB2009F450C080E2810F883010F0B4
:103EA000111104C08B2D0E94670A03C08B2D0E9444
:103EB000600A0E94640F40C0302F3F70B32E802FE5
:103EC000807F803219F0B29480EFB822112321F163
:103ED000113009F4A4C0DD2009F4ADC0CC2009F4F0
:103EE0007DC020E0D7014C9111965C9111971296FC
:103EF0006C91129713967C91139714968C910E9453
:103F0000EC0C80912F0481FDB9CFF701858180FFF2
:103F1000B5CF8F70858362C08091F70482FF40C067
:103F2000DD20C1F1BB2029F08B2D0E946E0A0E947A
:103F3000640F80E00E947516A92DA850BB0B149742
:103F400010F40E94FD04812F902F0E944F0B8111CD
:103F5000C4C11092A5011092A401AA20B1F08091D1
:103F6000F60180FD12C0D70112961C9285958595A9
:103F700085950E94C210C7010E9404198091F60124
:103F80008595859585950E94851060E0C7010E9402
:103F9000150D2BCA80E00E94C715BB2069F282CFA5
:103FA000DD2001F1C11004C0809119028B2917C0D6
:103FB00041E0C41206C0809119028B290E944C0A6C
:103FC000BBCF80912E04823078F3C812EDCF0E94CF
:103FD000410A8091F301B812B092F3018B2D0E9437
:103FE000C015AACFC11006C00E94410A8B2D0E94A5
:103FF000B915A2CF80912E0451E0C5120BC08230BA
:1040000008F49ACF809132038B2109F495CF0E9456
:10401000950AEACF823040F3C812E6CF8DCF809167
:104020003404DD2021F08C1508F486CFD7CFC816D4
:1040300008F082CFDBCFCC20C9F28091320490917E
:104040003304193321F080913004909131040E949F
:104050002E0C812F0E94C7156FCF802F86958695D5
:10406000837069F0813009F067CF812F902F9370B2
:10407000D11002C090E080E00E94D1045DCF812F7A
:10408000902F9370D11002C090E080E00E94E7046E
:1040900053CF812FDD2029F00E94C4070E948206A1
:1040A0004BCF0E94A906FACF802F837091F5D110D3
:1040B00043CF412F429546954770440F440F812FBF
:1040C0008F70042E01C0880F0A94EAF7212F207107
:1040D00014FF07C02FE030E001C0220F4A95EAF735
:1040E0002095302F369536953370323069F050F484
:1040F00040911A02313029F0822B84230E94E31070
:104100001BCF842B822BFACF282B80911A02822777
:10411000F5CF8695DD2011F0802F8170882309F47A
:104120000BCF412F429546954770440F440F812F86
:104130008F70042E01C0880F0A94EAF7212F207196
:1041400014FF07C02FE030E001C0220F4A95EAF7C4
:104150002095302F369536953370323069F050F413
:1041600040912A05313029F0822B84230E94761059
:10417000E3CE842B822BFACF282B80912A0582272D
:10418000F5CFF02FFF70BF2EDD2029F08F2F0E947A
:10419000C210812F24CF812F0E94B9158B2D0E9430
:1041A0008510CACE123F89F160F4103FB9F0113F7B
:1041B00081F0DD2009F48CC0C11060CE802F8F719A
:1041C00028C0133F49F1143FA1F78091F70482FF03
:1041D0002FC0802F8F71DD2011F31BC0809134041C
:1041E000DD2079F0C81608F0A7CE202F2F7181E0CE
:1041F00090E001C0880F2A95EAF790912A05892757
:10420000B5CF8C1508F498CEF0CF802F8F71D110D8
:10421000C6CF0E94C21090CE80E0DD2009F4A6CF68
:1042200081E0902F9F7101C0880F9A95EAF79ECF89
:1042300080912E048230A0F18091F301DD20F1F015
:104240000E94670A8091F6018770843041F40E94D1
:10425000740A802F8F710E948510A12C6DCE8091E1
:104260002E04C816D0F7202F2F71B22E822F0E9455
:10427000C21063E08B2D0E94CD10EFCF0E946E0A1A
:1042800080912E04C81640F00E94740A0E94950A7C
:1042900064E0802F8F71EFCF81E00E949110DDCF1D
:1042A000DD2059F0302F3F71B32E832F0E94C210B2
:1042B00063E08B2D0E94CD103FCE81E00E949110D3
:1042C00041E04C1508F038CE82E00E94911034CEC7
:1042D000C110B3CE802F8F7162CFDD2019F0C110D5
:1042E00038CE3BCEC11035CE20E0F7014081518160
:1042F0006281738184810E94EC0C80912F0483FF82
:1043000028CE8091A4019091A501029709F021CEB9
:10431000812F0E94E4161DCE552029F0DC0118964D
:104320008C9185FF26CAC80197558F3F910511F0E2
:1043300008F048C020910D0130910E01281739076F
:1043400024F490930E0180930D01F701228136E150
:10435000389F5001399FB00C1124A501455C5B4F7B
:104360006A01DA0150962C935097928116968C919F
:104370001697992309F4FFC91A961C930E9319975F
:104380008F5F16968C930E949004F601968785871E
:1043900080911902878380912B0590913203892B9C
:1043A00080870190F081E02D309741F0D60154963E
:1043B0006D917C91C5018F5B9B4F099510933A04D9
:1043C00000933904D70112968C91882369F0C801B3
:1043D000815E9C45059740F46FE1600F60931F027A
:1043E0008CE090E00E94723417FF70C0F701828168
:1043F000882309F46BC00E94FD0486958170809328
:10440000A2010E94FD0481708093A10180911F028E
:10441000813039F48091A201882319F089E30E9448
:10442000E416809132038093A001109232038091B0
:104430001F02813009F4B1C9882309F4AAC9823066
:1044400009F4B4C9843009F4C5C9AFE3BCE91197D4
:10445000F1F700C000005801E894B7F85CE0C52E01
:10446000D12C6AE0862E912CC5010C2C02C09695A9
:1044700087950A94E2F78F7090911F02923009F0AD
:10448000B0C98A3008F0ABC990E00996B4010E9427
:104490000D34875A0E94E416B4E0CB1AD108ECEF31
:1044A000CE16EFEFDE0601F780911F02813009F48E
:1044B000A6C9882309F49FC9823009F4ACC98430A5
:1044C00009F4B2C98091A0018093320380912D0438
:1044D00080FF39C00E9490046C01D70112968C9124
:1044E000882309F4B1C980911B0182FF08C025E22D
:1044F00032E040E0B60190E080E00E9448180B31C5
:10450000BCE51B0709F492C90C31ECE51E0709F460
:1045100093C990911B01892F8E7F90FF81600A3192
:10452000FCE51F0709F48BC9C8019056811520E2EC
:10453000920728F0905E8115904108F093C910927F
:10454000560310925503033FBCE51B0709F4D5CA77
:1045500008F078CA083DFCE51F0709F4C8CA093D00
:104560002CE5120709F4E1CA073D3CE5130709F001
:1045700075CA06E221EE41EE67ED7CE5C7010E94B7
:1045800005170C94E51980919E0190919F010817E1
:10459000190781F410929F0110929E011092070456
:1045A000109208041092090410920A0410920F0449
:1045B00010920E048091100490911104009709F458
:1045C000B2CEA8E08A16910408F0C8C8642D0E94F3
:1045D0005A058111A8CE81E00E94F615A4CE0031C3
:1045E0003FE5130711F40C94AA1A01314FE51407A3
:1045F00011F00C94761982E00C94AB1A06311C452C
:1046000009F0B8CA80913203982F9A7A20912C042D
:1046100020FF04C0482F447409F090E021FF04C03B
:10462000482F417109F090E022FF04C0482F4878DC
:1046300009F090E023FF03C0827209F090E0332379
:1046400009F4BDCB81E0911101C080E08093A3010A
:1046500069E2911165E38EE791E00E949C046BC8CA
:10466000A114B10409F031C8512CB12CA12C80E067
:104670000E94F615D0921104C092100481E080933C
:104680000D04F601858180930B0451100EC0AB28F8
:1046900061F0F601808191819C0124503109213A19
:1046A000310508F039C80E949B0AD6011696AD90D4
:1046B000BC90C5019A9581159F4110F4E0EEBE2291
:1046C00077247394C5010197853A9D4508F0712CB4
:1046D000D6011996ED91FC911A97309731F01B96FF
:1046E0006D917C9181E009957822772081F0F60127
:1046F000868197810E946A0B80930C04C501F8E0C3
:104700008F16910410F00C948F1B0E9409050E94D3
:10471000640F0C94981BCF92DF92EF92FF920F934D
:104720001F93CF93DF938091AE01807F31F480910E
:10473000AB01C091F20181110BC0DF91CF911F91AC
:104740000F91FF90EF90DF90CF9008952196C77062
:104750008091B1018C1789F3F090A901E090AA0132
:10476000C090AC01D090AD01A6016E2D8F2D0E949E
:104770007A05D0E08111EACF8E0183E0000F111F8E
:104780008A95E1F7F801EE54FE4F81818E11DECF5C
:1047900080818F11DBCF82818111D8CFE380F480BB
:1047A000EC18FD0860E089EA91E00E94150D809107
:1047B0002A0490912B04E816F90640F68091AE0188
:1047C0008F7080618093AE01F801E954FE4F8081C3
:1047D0008F708061808389EA91E00E940419DF91E3
:1047E000CF911F910F91FF90EF90DF90CF900C949D
:1047F000E60A3F924F925F926F927F928F929F92C2
:10480000AF92BF92CF92DF92EF92FF920F931F93DE
:10481000CF93DF93CDB7DEB765970FB6F894DEBFC1
:104820000FBECDBF8C0185E0F801DE0151960190ED
:104830000D928A95E1F7D8014C9011965C901197F2
:104840001296EC9012971396CD90DC9060E089EA76
:1048500091E00E94150D89EAA82E81E0B82E809083
:10486000AC019090AD01A4016091AA018091A901D1
:104870000E947A058111CAC1F090AB01F601E819D6
:10488000F9094F0160E0FF2009F46DC1C5010E94E4
:10489000150D60902A0470902B043090AE018614A0
:1048A000970408F013C14091AC015091AD01B09054
:1048B000A901A090AA01832D807F6A2D09F0ADC0C7
:1048C0008B2D0E947A05FE2C81113BC0D8011196D8
:1048D0008C9111978A1135C08C918B1132C0209127
:1048E000AF013091B00116968D919C912817390730
:1048F00041F5E11026C0832D8F7080618093AE0159
:1049000089EA91E00E9404198091AE01F801858343
:104910008F2D65960FB6F894DEBF0FBECDBFDF9129
:10492000CF911F910F91FF90EF90DF90CF90BF90AC
:10493000AF909F908F907F906F905F904F903F903F
:104940000895F4EF6F16F1E07F0620F480912F04B4
:1049500080FF21C0A601652D842D0E947A0581115A
:1049600018C081E08E2580FF16C04E2D652D842D48
:104970000E94C60A882379F089EA91E00E9404190E
:1049800088E0E9EAF1E0DF011D928A95E9F7F12C70
:10499000BFCF80E0E8CFA601652D842D0E947A0567
:1049A000811124C081E08E25B82FB170CB2E80FFFD
:1049B0002BC04E2D652D842D0E94C60AD82E811144
:1049C00023C0498A5A8A89899A890E94D20C292F40
:1049D00022952F70223060F0243088F49F7061F0AF
:1049E000F8019581907F41F4FD2C92CF80E0DCCFDF
:1049F0009F7011F08823C1F3805E8830A8F3C8014E
:104A00000E940419DC2CF0CFEE2009F481CF8091B4
:104A1000AE0181608093AE01BACF8B2D0E947A05E2
:104A2000811124C0D80111968C9111978A111EC052
:104A30008C918B111BC02091AF013091B001169663
:104A40008D919C9117972817390781F4E1100EC0BA
:104A500015963C92C8010E94041988E0F801A9EA61
:104A6000B1E001900D928A95E1F752CFC8010E9402
:104A7000DE0C882339F1EE2029F18091AE018032DD
:104A8000A0F02091A9013091AA013A8729871B86BD
:104A9000DD86CC868E878091AF019091B001988B96
:104AA0008F87CE0109960E94041988E0F801A9EACF
:104AB000B1E001900D928A95E1F70E948B23FF24CB
:104AC000F39426CFC8010E940419F9CF832D807F6B
:104AD00009F452CF9090A9018090AA014091AC01B5
:104AE0005091AD01682D892D0E947A0581111CC05D
:104AF000F8018181881118C08081891115C0209129
:104B0000AF013091B001868197812817390761F490
:104B1000E1100AC03582C8010E94041988E0D5015D
:104B20001D928A95E9F7F4CEC8010E94DE0C882315
:104B300049F2EE2039F28091AE01803208F4B5CF0F
:104B40002091A9013091AA013A8329831B82DD8239
:104B5000CC828E838091AF019091B00198878F8332
:104B6000CE010196A0CF89EA91E00E94150D8091B7
:104B70002A0490912B048816990680F6FE2CEE20CC
:104B800009F4A0CFE090A901D090AA014091AC0116
:104B90005091AD016D2D8E2D0E947A05811128C096
:104BA000F80181818D1124C080818E1121C0209156
:104BB000AF013091B0018681978128173907C1F480
:104BC00080912F0482FD49CF9091AE0190FD45CF99
:104BD000907F09F442CF8091AE018583903F09F424
:104BE00039CF982F907F905F8F70892B858332CF3C
:104BF000C8010E94DE0C811158CF8091AE01816006
:104C00008093AE01C8010E94041982CEEE2009F4FF
:104C100059CFC8010E94DE0CF82E882309F452CF28
:104C200088E0F801A9EAB1E001900D928A95E1F7D8
:104C30008091A9019091AA010E94D20C0E948B231D
:104C400067CECF93DF93CDB7DEB760970FB6F894FA
:104C5000DEBF0FBECDBF29873A874B875C876D8744
:104C60007E878F87988BCE0109960E94F923811148
:104C70002FC088E0FE013996DE01119601900D9259
:104C80008A95E1F74C855D856A8589850E947A055C
:104C900081111EC0A091B101B0E0CD0101968770D5
:104CA00099272091F2012817190609F193E0AA0F1C
:104CB000BB1F9A95E1F7AE54BE4F98E0FE013196C6
:104CC00001900D929A95E1F78093B1010E94E60A56
:104CD0008091F2019091B101891317C060960FB6CF
:104CE000F894DEBF0FBECDBFDF91CF9108950E9433
:104CF000E7101092B1011092F20188E0E9EAF1E0C8
:104D0000DF011D928A95E9F7E3CFB8E08B9FC001E0
:104D100011248E549E4F0E94F9238823F9F280912A
:104D2000F20190E00196877099278093F201D0CF2D
:104D3000EF92FF920F931F93CF93DF9380915A03CB
:104D4000882361F0C09159038CE0F82E80915A03BA
:104D5000C81758F010925A0310925903DF91CF915F
:104D60001F910F91FF90EF900895EE24E394EC0EC5
:104D7000E09259030C2F10E0CF9DE0011124C55A99
:104D8000DC4F4B815C81698188810E947A058111A9
:104D90001DC08E819F81892B21F48885998501967C
:104DA00051F4288139814A815B816C817D818E81BA
:104DB0009F810E942126F09EF001F19EF00D1124AA
:104DC000E55AFC4F1482138210922B05CE2DBECFD4
:104DD0001092FE031092FD0310921C018091FC03BF
:104DE0008093FB030E94B3050C9498263F924F9248
:104DF0005F926F927F928F929F92AF92BF92CF926B
:104E0000DF92EF92FF920F931F93CF93DF93C091A6
:104E1000FB0397E0892E01E010E02CE0322E3EEFFC
:104E2000932E442443948091FC038C1315C00E945C
:104E30009826DF91CF911F910F91FF90EF90DF9017
:104E4000CF90BF90AF909F908F907F906F905F902A
:104E50004F903F900C94B305D0E0FE01EE0FFF1F82
:104E6000ED50FC4F80819181889ED001899EB00DCC
:104E70001124A554BC4F14962C911497211157C09E
:104E800050905A03EBE5F3E030E020E0712C5D0137
:104E9000251508F04AC0E284F384D501CD90DC905A
:104EA0006FEF7FEF612C462D50E0DA01AA0FBB1F98
:104EB000AC0DBD1D0D90BC91A02D109731F0EA16E0
:104EC000FB0609F4BA016394EECF6F3F7607A1F1B8
:104ED000D80102C0AA0FBB1F6A95E2F77A2AB8016F
:104EE00002C0660F771F6A94E2F7AB014150510987
:104EF00074161506F9F4329EF001339EF00D11245C
:104F0000E55AFC4F889ED001899EB00D1124A5540E
:104F1000BC4F12962D913C91139737832683908234
:104F200091829187808715964C920E9485052196E3
:104F3000C37079CF148213822F5F3F4F3C96A8CF66
:104F40002F923F924F925F926F927F928F929F9299
:104F5000AF92BF92CF92DF92EF92FF920F931F9387
:104F6000CF93DF93CDB7DEB769970FB6F894DEBF66
:104F70000FBECDBF942F498B252F5A8B6B8B7C8B0B
:104F80008D8B4C895D89622F892F0E947A05811152
:104F900009C08091A4019091A50101969093A5016B
:104FA0008093A4018B89811110922B051D861E868A
:104FB0001F86188A85E0FE017196DE011996019020
:104FC0000D928A95E1F78091F70482FD1EC08091D1
:104FD000140490911504892BC1F00E949004209133
:104FE000F4013091F501821B930B20911404309150
:104FF00015048217930720F08091F60182FFF5C116
:105000000E947B0A81110E94410A4C855D856A8558
:1050100089850E947A05811111C061E0CE0109964F
:105020000E94150D6C018B8527EFC2162CE5D20668
:1050300081F4882321F181E080931C0129853A8540
:105040004B855C856D857E858F8598890E9421269C
:10505000C5C038EFC3163CE5D30629F4882379F0A0
:105060000E94E826EBCF49EFC4164CE5D40639F48C
:10507000882329F080911C018111F2CFDCCF0BEB4A
:1050800013E0512CB12CA12C22242394312C2EEF8F
:10509000422EF8014081518188248A94982C20E086
:1050A000822F90E0FC01EE0FFF1FE40FF51F6081DF
:1050B00071816115710531F0C616D70609F44C01EE
:1050C0002F5FEECFF12CFFEF8F169F0609F448C03B
:1050D000F8014481F0901C018F2D411180E0F82FE0
:1050E000F170FF2EF801E58086819B85992309F4F4
:1050F0000CC1FF2009F409C16090280470902904B4
:10510000E11012C0A10101C0440F8A94EAF7842B78
:10511000868380915703909158038615970520F454
:105120007092580360925703C10102C0880F991F03
:105130002A95E2F70197F80126812817190681F4CC
:105140008091FD039091FE03009709F460C00E94D6
:1051500075046816790608F05AC021E0F801248326
:105160005F28FFEFAF1ABF0A095F1F4F28E0A216A2
:10517000B10409F08ECF8B85882309F421C1552015
:1051800009F41EC10E9490049093FE038093FD03D6
:1051900080915A03883010F591E0980F90935A034C
:1051A00098E0FE013996DE01119601900D929A95D4
:1051B000E1F73CE0839FC0011124855A9C4F28E011
:1051C000FE013196DC0101900D922A95E1F72FEF57
:1051D0003FEFFC0131872087D386C28669960FB6E0
:1051E000F894DEBF0FBECDBFDF91CF911F910F911D
:1051F000FF90EF90DF90CF90BF90AF909F908F90F7
:105200007F906F905F904F903F902F900895809186
:10521000FB035091FC03982FF0E0E0E0851314C0ED
:105220009093FB03E017F10709F49ACF90E0FC019B
:10523000EE0FFF1FED50FC4FB182A08201968370EC
:1052400099278093FC038CCF682E712CF301EE0F0D
:10525000FF1FED50FC4F2081318147E0429FD0017C
:10526000439FB00D1124A554BC4F6D917C911197B3
:10527000798F688F40E020E030E0E32FF0E0EE0F20
:10528000FF1F688D798DE60FF71F80809180811454
:105290009104E1F0F8010190F081E02DFF8BEE8B9D
:1052A00020E005C08616970609F44F2D2F5FE22FE8
:1052B000F0E0EE0FFF1F6E897F89E60FF71F608118
:1052C00071816115710571F73F5FD7CF4423D1F02C
:1052D000F801231708F0FD0121E024830E171F07B2
:1052E00021F49093FB03F42E3BCF981305C0AE1727
:1052F000BF0711F49F5F937093012F5F3F4F822F81
:1053000083708CCFF0E0E0E0F7CF90E0E1101FC0B9
:10531000B10102C0660F771F2A95E2F79B01215069
:1053200031098217930731F4442309F447C0C501BA
:105330000E948505C10101C0880F8A94EAF7982F61
:105340009095F801868189238683FE2C09CF9C01E4
:10535000082C02C0359527950A94E2F7A9014170FF
:105360005527BC016150710986239723892B11F5BC
:10537000452B01F1F80182819381892BC1F01B82B9
:105380001C821D821E8249824A820E949004816092
:10539000582F9D838C83F801828193818F83988716
:1053A00029813A814B816D817E810E942126F801FD
:1053B0001582C0CFF22FF170EF2EBCCFEF2CBACFF9
:1053C0009091FB038091FC03981731F00E94F62620
:1053D000552009F433CE02CF0E9498261092FE0386
:1053E0001092FD030E94B305F3CF82E00E9491105A
:1053F00007CECF93DF9300D000D00F92CDB7DEB7AA
:1054000090932F0380932E03811520E2920748F496
:105410000F900F900F900F900F90DF91CF910C9401
:105420005D168EEF89838A831B820E9490048160BF
:10543000782F9D838C8349815A816B818D810F9058
:105440000F900F900F900F90DF91CF910C94A027A9
:105450000F931F93CF93DF938C01EB0169E472E00C
:105460008C2F0E94FA0D892BA1F480913004909129
:1054700031040E942E0CDD27CF5BDD4F8881F801BF
:1054800010821882833009F148F4813059F082305B
:1054900081F0DF91CF911F910F9108958430D1F069
:1054A0008530B9F78091490290914A02009789F3BB
:1054B00006C080914B0290914C02009799F3DF91C6
:1054C000CF911F910F910C94F92980914D029091E9
:1054D0004E02F3CF80914F0290915002009779F7DE
:1054E0002091490230914A0280914B0290914C02E6
:1054F00021153105D9F2009711F7C901E0CFCF93FB
:10550000DF9300D000D00F92CDB7DEB790932F037A
:1055100080932E03811520E2920748F40F900F909C
:105520000F900F900F90DF91CF910C941D188EEF7C
:1055300089838A8381E08B830E9490048160782F25
:105540009D838C8349815A816B818D810F900F904F
:105550000F900F900F90DF91CF910C94A027CF93D5
:10556000DF93EC010E947F2A8091300490913104F6
:105570000E942E0CCE01DF91CF910C94F9290F934C
:105580001F93CF93DF938C01862F69E472E00E9412
:10559000FA0D892BC9F4C0914902D0914A02209793
:1055A00099F0F8018081833069F4CE010E94AF2A1E
:1055B000CE010E94AF2ACE01DF91CF911F910F91B2
:1055C0000C94AF2A8430B8F7DF91CF911F910F91DF
:1055D00008950F931F93CF93DF938C01EB0169E440
:1055E00072E08C2F0E94FA0D892B09F064C0FE0135
:1055F000FF27D8018C91EF5BFD4F8130D9F41996CC
:105600009C911997992311F080830CC01A969C9154
:105610009923D1F382E0808380914B0290914C02D8
:105620000097D9F48091490290914A02009709F4B9
:1056300042C013C08230E9F519968C9119978111F7
:105640002DC01A968C9181110EC083E080838091C9
:105650004D0290914E02009719F1DF91CF911F9169
:105660000F910C947F2A84E0808380914F02909167
:105670005002009791F78091490290914A02009759
:10568000F9F00E94AF2A80914B0290914C02009752
:1056900021F78091490290914A02DFCF85E0808313
:1056A0008091490290914A02009729F00E94AF2A06
:1056B000F0CF86E08083DF91CF911F910F91089505
:1056C00080914B0290914C02B1CF1F920F920FB676
:1056D0000F9211242F933F934F935F936F937F9378
:1056E0008F939F93AF93BF93CF93DF93EF93FF93EA
:1056F000D091E900DF708091EC00C82FC17080FD6F
:10570000C0E81092E9008091F000877F8093F0005C
:1057100078940E94FC101092E9008091F00088605B
:105720008093F000CD2BCF70C093E900FF91EF91F3
:10573000DF91CF91BF91AF919F918F917F916F91A9
:105740005F914F913F912F910F900FBE0F901F903F
:1057500018951F920F920FB60F9211242F933F931B
:105760004F935F936F937F938F939F93AF93BF9369
:10577000EF93FF938091E10082FF09C08091E200E6
:1057800082FF05C08091E1008B7F8093E1008091D2
:10579000DA0080FF24C08091D80080FF20C0809173
:1057A000DA008E7F8093DA008091D90080FF9DC05F
:1057B00080E189BD82E189BD09B400FEFDCF81E0B1
:1057C000809320058091FB04811109C00E94D602BC
:1057D0000E94A1038091E20084608093E2008091A6
:1057E000E10080FF17C08091E20080FF13C080912C
:1057F000E2008E7F8093E2008091E20080618093DE
:10580000E2008091D80080628093D80019BC85E0C6
:10581000809320058091E10084FF2BC08091E200FD
:1058200084FF27C080E189BD82E189BD89B5982FB9
:10583000917080FFFBCF8091D8008F7D8093D8003E
:105840008091E1008F7E8093E1008091E2008F7E65
:105850008093E2008091E20081608093E200809179
:105860002105882309F447C084E0809320058091B6
:1058700020058091E10083FF27C08091E20083FF33
:1058800023C08091E100877F8093E10082E08093D4
:105890002005109221058091E1008E7F8093E10028
:1058A0008091E2008E7F8093E2008091E20080612F
:1058B0008093E20042E060E080E00E946F0380910C
:1058C000F00088608093F000FF91EF91BF91AF915D
:1058D0009F918F917F916F915F914F913F912F9108
:1058E0000F900FBE0F901F90189519BC10922005B5
:1058F0001092FB0474CF8091E30087FD93E09093B6
:105900002005B5CF78941F921FB61F9211248F9354
:105910009F93AF93BF938091F2049091F304A09171
:10592000F404B091F5040196A11DB11D8093F20419
:105930009093F304A093F404B093F504BF91AF9156
:105940009F918F911F901FBE1F9018951F921FB699
:105950001F9211248F939F93AF93BF938091F10473
:10596000811113C08091F2049091F304A091F4048A
:10597000B091F5044196A11DB11D8093F20490935E
:10598000F304A093F404B093F504BF91AF919F91F9
:105990008F911F901FBE1F901895CDB7DEB7E4976B
:1059A0000FB6F894DEBF0FBECDBF84B7877F84BF2C
:1059B0000FB6F894A895809160008861809360008C
:1059C000109260000FBE80E890E00FB6F8948093CC
:1059D0006100909361000FBE85B7806885BF85B771
:1059E000806885BF8CE298E090937D0180937C0174
:1059F0000E940E0E0E940C0F0E94640E0E94380C32
:105A00000E94D6020E94A1038091E20084608093EC
:105A1000E2007894809120058823A1F01091E9009C
:105A20001F709091EC00892F817090FD80E8182BF9
:105A30001092E9008091E80083FD0E94FC101F7025
:105A40001093E90082E084BD93E095BD9AEF97BD85
:105A500080936E000E94230D811102C00E94B61433
:105A6000A7E5B1E04CE551E021E030E08D918F3FBA
:105A700091F0E82FE295EF70F0E011A18F70B9017D
:105A800001C0660F8A95EAF7962F9095912391A30E
:105A900082A1862B82A34A175B0741F7109233023B
:105AA00010921E0290E080E00E946C34893E9E4F6E
:105AB00021F40E94230D811102C00E94C51482E0CE
:105AC00090E00E946434809323020E943C0D9093E6
:105AD000F7048093F6040E942E083FEF46E781E02A
