:100000000C94A4020C94C1020C94C1020C94C10281
:100010000C94C1020C94C1020C94C1020C94C10254
:100020000C94C1020C94C1020C94BC2B0C94782B40
:100030000C94B92C0C94C1020C94C1020C94C10212
:100040000C94C1020C94C1020C94C1020C94C10224
:100050000C94C1020C94952C0C94C1020C94C10216
:100060000C94C1020C94C1020C94C1020C94C10204
:100070000C94C1020C94C1020C94C1020C94C102F4
:100080000C94C1020C94C1020C94C1020C94C102E4
:100090000C94C1020C94C1020C94C1020C94C102D4
:1000A0000C94C1020C94C1020C94C1020501090216
:1000B000A10185020901A100050919012905150001
:1000C00025019505750181029501750381010501E1
:1000D000093009311581257F950275088106093897
:1000E0001581257F950175088106050C0A380215D2
:1000F00081257F950175088106C0C005010980A191
:1001000001850319012AB700150126B7009501756D
:10011000108100C0050C0901A101850419012AA064
:1001200002150126A002950175108100C005010984
:1001300006A1018506050719E029E71500250195A7
:1001400008750181020507190029EF1500250195A1
:10015000F0750181020508190129059505750191C0
:1001600002950175039101C00660FF0961A10109B3
:1001700062150026FF0095207508810209631500AD
:1001800026FF00952075089102C005010906A1010E
:10019000050719E029E71500250195087501810279
:1001A0009501750881010507190029FF150026FF33
:1001B0000095067508810005081901290595057542
:1001C000019102950175039101C00000000000003B
:1001D000000000000000000000000000000000001F
:1001E00000000000000000000000000000007E0F82
:1001F00000D4FFFFFFC700000078000000000000EF
:1002000000002A2B28000000000000000000000071
:10021000000000000029000000002C1E34202122D4
:1002200024342627252E362D3738271E1F2021223D
:10023000232425263333362E37381F0405060708B6
:10024000090A0B0C0D0E0F101112131415161718A6
:10025000191A1B1C1D2F3130232D350405060708E4
:10026000090A0B0C0D0E0F10111213141516171886
:10027000191A1B1C1D2F3130354CFD377A585A0086
:100280000004E6D6B4460200210116000000742FD7
:10029000E5A3E000C5009F5D003D8889C65436C3D4
:1002A000174FE4EAC894E45AFAFA82876514E6B86C
:1002B0003F76D4625D0547EBF6B42D0EFE69177EDE
:1002C00088EE3D31B99BF283209E3019395AB939F5
:1002D0000384066EA69415F8A6A8D63B43A7F8B9E2
:1002E0004CEF256B842B9A7CB10044B58371F638B2
:1002F0000F81FD55736F649DFAF6682F2CF197A05E
:10030000534AAD5FCCE6C280B2D499B224B465A39F
:10031000573BA3F4CA34F5BCB466AFB2EC457E7C5F
:10032000C5392D6A2C52BE3004C50E98D58B9A85DE
:10033000AEAB95376F1A5B800000A622F8EC3F69E0
:10034000E8D10001BB01C601000036C5DCDCB1C448
:1003500067FB020000000004595A1D001B00290021
:1003600035000153AC00AE00AB00A8000153010002
:1003700001002E045F0D910D0000020002002A040E
:100380005F0D910D0000030001002F045F0D910D22
:1003900000000400020014045F0D910D81060500A9
:1003A000010030045F0D910D0000060002001604EC
:1003B0005F0D910D0000070002002C045F0D910DF0
:1003C00000000800010031045F0D910D00000900DC
:1003D000020018045F0D910D5C060A0002001A0469
:1003E0005F0D910D5C060B0002001C045F0D910D6A
:1003F0005C060C0002001E045F0D910D5C060D00F2
:10040000020020045F0D910D5C060E000200220424
:100410005F0D910D5C060F00020024045F0D910D2D
:100420005C061000020026045F0D910D5C061100B1
:10043000020028045F0D910D5C06120002003204D8
:100440005F0D910D00001300020034045F0D910D4B
:1004500000001400010036045F0D910D000015002E
:1004600000000000D9054215000009025B000301ED
:1004700000A0FA0904000001030101000921110193
:100480000001224000070581030800010904010062
:1004900002030000000921110100012222000705CA
:1004A0008203200001070503032000010904020064
:1004B000010300000009211101000122BC00070511
:1004C000840320000112010002000000085241468E
:1004D0004F0100010203011C037600690061006CFA
:1004E000003A0066003600340063003200620033D8
:1004F000006300000026035B003100780034005DDB
:100500000020002B002000310020004D006100631E
:100510000072006F0070006100640000002403415D
:1005200000720072006100790020005000650072C6
:10053000006900700068006500720061006C007363
:10054000000000040309040011241FBECFEFDAE00D
:10055000DEBFCDBF11E0A0E0B1E0E4EEFAE602C0FC
:1005600005900D92AA37B107D9F725E0AAE7B1E0C7
:1005700001C01D92AE32B207E1F70E94E02C0C944C
:1005800045350C940000E8EDF0E080818E7F80839B
:100590001092E2001092DA001092E100A0EEB0E0BA
:1005A0008C9181608C9380818F77808319BCA7EDBB
:1005B000B0E08C918E7F8C9380818F7E80831092AF
:1005C000FD0408952091E4003091E50095E6A9012D
:1005D0002091EC00822F817020FF06C08091E800FE
:1005E00080FF06C080E008952091E80022FD1AC037
:1005F00080912B05882389F0853089F08091EB006C
:1006000085FD0FC02091E4003091E50042175307AB
:10061000F9F29150E1F684E0089582E0089583E0D4
:10062000089581E00895EF92FF920F931F93CF9367
:100630007C018B010E94E202C82F811117C08091BA
:10064000E80085FD0BC08091E8008E778093E8007C
:100650000E94E202882399F3C82F08C0F701819114
:100660007F018093F1000150110949F78C2FCF9140
:100670001F910F91FF90EF900895CF93FC0180910F
:100680002B05843001F5C091E900CF702091EC007A
:10069000922F917020FD90E8C92B82E08093E900B1
:1006A0008091E80080FF0CC050E040E060E270E024
:1006B000CF010E9413038091E8008E778093E800B9
:1006C000CF70C093E900CF9108958091230587FFF3
:1006D00013C08091E80082FF06C08091E8008B770C
:1006E0008093E80004C080912B058111F2CF08951A
:1006F00080912B058823D9F38091E80080FFF8CF03
:100700008091E8008E77ECCF982F9093E900242F0A
:10071000762F50E0891731F07091EC002091ED00B8
:100720005091F00021FD07C09F5F973071F78093D3
:10073000E90081E008953091EB003E7F3093EB00BB
:100740003091ED003D7F3093ED003091EB00316052
:100750003093EB007093EC002093ED005093F00089
:100760002091EE0027FDE0CF80E00895CF92DF9248
:10077000EF92FF920F931F93CF93DF93C8EDD0E0DA
:1007800088818F7E8883E7EDF0E0808181608083BF
:1007900084E082BF81E08093FD0488818E7F88831E
:1007A00002EE10E0F80110821092DA0081EEC82EFD
:1007B000D12CF601108288818F77888388818068A8
:1007C000888388818F7D888319BC10922B051092B5
:1007D0002205109221051092200590EEE92EF12CB1
:1007E000F70180818B7F808388818160888342E0EC
:1007F00060E080E00E948403F60180818E7F808328
:10080000F801808181608083808188608083F70126
:1008100080818E7F8083888180618883DF91CF9102
:100820001F910F91FF90EF90DF90CF900895FC0102
:100830008091290590912A0586179707A0F06115E8
:10084000710529F49091E8009E779093E80090E07C
:100850006115710551F4911108C08091E80082FF83
:1008600034C080E00895BC01F2CF80912B0588232D
:10087000C1F18530C1F18091E80083FD30C08091E5
:10088000E80082FDEACF8091E80080FFE1CF80910F
:10089000F3002091F200382F6115710519F028300E
:1008A000310558F091E02830310509F090E02091B1
:1008B000E8002E772093E800CBCF81918093F10060
:1008C000615071092F5F3F4FE7CF80912B0588233F
:1008D00041F0853041F08091E80083FFBECF81E098
:1008E000089582E0089583E0089508958091FF04BB
:1008F000089587E797E7909301088093000888E1BF
:100900009AE00FB6F894A895809360000FBE90937C
:100910006000FFCF9C014FB7F8948091F404909150
:10092000F504A091F604B091F7044FBF821B930B1E
:1009300008952FB7F8946091F4047091F5048091B4
:10094000F6049091F7042FBF08952FB7F894809183
:10095000F4049091F504A091F604B091F7042FBF30
:10096000089520911B012223C1F02091F80427FF54
:1009700014C0E62FE695E695E695EE31F8F4E80F1B
:10098000F92FF11D677021E030E001C0220F6A9558
:10099000EAF78281822B82830895FC0132962FEF41
:1009A00030E04191641751F02F3F19F4411101C01B
:1009B000232F3F5F3630A9F72F3F09F40895820FA8
:1009C000911D27FD9A95FC01628308952091F10401
:1009D0003091F2042817390771F09093F204809354
:1009E000F104E091EF04F091F004309721F00084DD
:1009F000F185E02D099408952091ED043091EE04E5
:100A00002817390771F09093EE048093ED04E0917C
:100A1000EF04F091F004309721F00680F781E02D8B
:100A200009940895E091EF04F091F004309721F0DB
:100A30000190F081E02D099480E00895CF93DF9339
:100A4000EC014091090450910A0460910B047091EB
:100A50000C042FB7F8948091F4049091F504A091C0
:100A6000F604B091F7042FBF841B950BA60BB70BB0
:100A7000843F9140A105B10518F58091090490913A
:100A80000A04A0910B04B0910C0480930504909388
:100A90000604A0930704B093080484EF91E0A0E05B
:100AA000B0E08093010490930204A0930304B093F8
:100AB0000404D0931104C0931004DF91CF910895E2
:100AC0000E949904609305047093060480930704C0
:100AD0009093080482E390E0A0E0B0E0E2CFFC0154
:100AE0008481862351F492819923B9F0692380850A
:100AF00083FF05C081E061110FC080E00895892F58
:100B00008F7092959F70982B862F8F7062956F7063
:100B1000682B81E09613F1CF089581E0FDCF452B3E
:100B200039F0682381E06F3F09F080E0817008951B
:100B300081E0FCCFDC016091FD038091FE03962FE4
:100B4000891301C00895292F30E0F901EE0FFF1F2E
:100B5000EB50FC4F408151814A175B07A1F487E0BD
:100B60008A9FA0018B9F500D112443545C4F81E05C
:100B7000FA0184839613E6CF2F5F3F4F237033270C
:100B80002093FD0308952F5F3F4F922F9370D8CF8E
:100B900010925A0310925903EDEBF3E08581811115
:100BA00002C014821682379683E0E53FF807B1F75A
:100BB0000895AF92BF92CF92DF92EF92FF920F9380
:100BC0001F93CF93DF938FEF9FEF4430510508F4CD
:100BD00068C04091F80441FB882780F990E0880FB5
:100BE000991F42FB002700F910E0000F111F000FB2
:100BF000111F802B912B40FBCC24C0F8D12C8C29C9
:100C00009D2943FB222720F9C22FE0E0DE2F53E08D
:100C1000CC0FDD1F5A95E1F78C2B9D2B44FBAA27A7
:100C2000A0F9B0E0E4E0AA0FBB1FEA95E1F78A2B38
:100C30009B2B45FBEE27E0F9F0E0A5E0EE0FFF1F50
:100C4000AA95E1F78E2B9F2B46FB222720F930E057
:100C5000B6E0220F331FBA95E1F7822B932B47FBA7
:100C6000222720F930E03695322F22273795279515
:100C7000822B932B2091F904322F3170F32EF92A15
:100C800026952170B22EBB0CA82EBF28C501BB0C27
:100C9000AA0BBB0BFB0180839183A283B38390E0FB
:100CA00080E0DF91CF911F910F91FF90EF90DF9047
:100CB000CF90BF90AF900895E4E1F4E084819581F6
:100CC0002AE030E0B9010E949034609316018681D9
:100CD000809315018285809314018485809313018C
:100CE00086859785B9010E949034609312018089AE
:100CF00080931101828980931001848980930F0170
:100D00000895809114049091150490931801809394
:100D10001701089581152CE5920741F420912E03C7
:100D200030912F03232B11F490E080E008950E946E
:100D3000A5049C0190913D0280913E02982B21F0E8
:100D400030933A022093390290913F028091400201
:100D5000982B21F03093380220933702E091EF0472
:100D6000F091F004309749F082E080933B020480D8
:100D7000F581E02D8BE392E00994089590913D0276
:100D8000803F59F480913E0287FF0DC010923E02D1
:100D900091110BC01092350208C0813F81F48091FF
:100DA0003E0218169CF3992381F080913F029091A6
:100DB0004002892B09F064C0109234020895823FEA
:100DC00049F497FFF0CF10923D0280913E028111CD
:100DD000ECCFE0CF833F19F41916ACF3E4CF2091A8
:100DE0003F02893F29F41216F4F610923F02DBCF3E
:100DF0008A3F19F427FFD7CFF8CF209140028B3FCD
:100E000029F427FFD0CF10924002CDCF8C3F19F4A8
:100E10001216CCF3C8CF843F31F480913C028E7F10
:100E200080933C02C0CF853F21F480913C028D7FAE
:100E3000F7CF863F21F480913C028B7FF1CF873F33
:100E400021F480913C02877FEBCF883F21F4809191
:100E50003C028F7EE5CF8D3F31F4809136028E7F4C
:100E600080933602A0CF8E3F21F4809136028D7F91
:100E7000F7CF8F3F09F097CF809136028B7FF0CF6D
:100E800008958091360280FF0CC06091100170E0DF
:100E900075956795759567956115710549F1862F6B
:100EA000089581FF06C06091100170E07595679507
:100EB000F3CF6091100182FD0BC090913402992311
:100EC000A1F060910F0180911001961738F0682F02
:100ED00070E06038710500F38FE70895899FC001C5
:100EE000112470E00E94A434F4CF61E070E0D7CF09
:100EF00081E008958091360260911C0470911D0478
:100F000080FF16C020911401269FC001279F900DDD
:100F10001124BC01769567957695679560387105C3
:100F200008F043C06115710509F441C0862F08958A
:100F300081FF0BC020911401269FC001279F900DB7
:100F40001124BC0176956795E9CF82FF09C0809195
:100F500014019B01829FB001839F700D1124DECF8D
:100F6000209135022223D1F2909113018091140136
:100F7000482F50E0291748F0CB01849FB001859F8E
:100F8000700D949F700D1124C9CF289F90011124DA
:100F9000269FA001279F500D369F500D1124692FC9
:100FA00070E0CA010E949034B9CF8FE7089581E0C4
:100FB0000895803F31F40E947A07819580933E0224
:100FC0000895813F19F40E947A07F8CF823F31F4E7
:100FD0000E947A07819580933D020895833F19F41A
:100FE0000E947A07F8CF893F29F40E944107809335
:100FF0003F0208958A3F21F40E9441078195F7CF6F
:101000008B3F31F40E9441078195809340020895FF
:101010008C3F19F40E944107F8CF843F31F480914E
:101020003C02816080933C020895853F21F48091C9
:101030003C028260F7CF863F21F480913C028460BD
:10104000F1CF873F21F480913C028860EBCF883F4D
:1010500021F480913C028061E5CF8D3F31F4809195
:10106000360281608093360208958E3F21F480918C
:1010700036028260F7CF8F3FB9F7809136028460E5
:10108000F1CF80E00895CF93E5E5F1E06AE571E006
:1010900080E041E091919F3F89F0A92FA295AF7028
:1010A000B0E090962C9130E09F7002C03595279566
:1010B0009A95E2F7942F20FD90E0892B440F6E174C
:1010C0007F0741F790911C02C1E0981301C0C0E076
:1010D0009817D1F080931C0281E080931B020E943C
:1010E000A50490931A02809319028091190290919D
:1010F0001A020E948A04059758F080911C0280937E
:10110000330210921B0204C080911B028111EDCFAB
:101110008C2FCF9108959091F80492FF06C0282F4C
:1011200028712830F9F4877F846093FF06C0282F48
:1011300028712831F1F4877E84612091F90420FF21
:1011400006C0382F38713830D9F4877F816021FF8D
:1011500006C0282F28712831D1F4877E816194FD43
:10116000877E0895282F24712430F9F68B7F8860BC
:10117000DCCF282F2471243101F78B7E8861DDCFED
:10118000382F3171313019F78E7F8860E0CF282FEA
:101190002171213121F78E7E8861E1CFCF93DF93DA
:1011A000EC0182389105A9F1D8F58133910509F454
:1011B00096C048F58932910509F48AC08A9709F4E6
:1011C00095C0C11521E5D20708F0BCC0C11530E5B6
:1011D000D30708F014C1C83ED10508F09CC0C03E3A
:1011E000D10560F5C83AD10508F087C0C53AD105E8
:1011F00008F0FDC0C130D10509F12097F9F0C430E5
:10120000D105E0F440C08533910509F45AC0C9976F
:10121000C1F68091F804837089F0C0EED0E00EC072
:10122000833E910599F170F4803E910501F1823E73
:10123000910539F68091F80482FD21C0CE01DF913D
:10124000CF910895863E910561F1873E910571F138
:10125000843E910509F0B5CF8091F90481FFEECF6E
:101260008091F804C7EED0E084FD0DC0E7CF8091F7
:10127000F80480FD12C19091F90490FFDFCFC3EE16
:10128000D0E084FFDBCFD0E0C0E0D8CF8091F8047D
:1012900082FD06C19091F90490FDBFCF84FFCECFAF
:1012A000F2CF8091F80483FDDDCFC8CF8091F804A0
:1012B00083FDF9C09091F90491FFF0CFC4EED0E026
:1012C000BDCF8091F80485FFB9CFC9E2D0E0B6CF99
:1012D0008091F80485FFB2CFC5E3D0E0AFCF809115
:1012E000F80486FFABCFCAE2D0E0A8CF8091F80423
:1012F00086FFA4CFC1E3D0E0A1CFCF3BD10518F644
:10130000C85AD0E0CC0FDD1FC95DDE4F0990D881EF
:10131000C02DD46493CFC11540E2D40758F4C11551
:1013200081E0D80708F08ACFC03FD10508F4ABCFE1
:10133000D06584CFC11590E4D90708F4A4CFDF703D
:10134000D06A7CCFC11525E5D20700F5C11534E57B
:10135000D30708F08AC0C11543E5D40708F071C06F
:10136000C11582E5D80708F467C0CE0183709927BC
:1013700021E030E002C0220F331F8A95E2F7C695C4
:10138000C69580E2C89FE001112452C0C11599E5BD
:10139000D907A8F4C11528E5D20708F06BC0C1151C
:1013A00036E5D30708F06FCF8C2F0E948B08C82F2B
:1013B000D0E0DC2FCC27CC27DF71D0623FCFC11526
:1013C0004AE5D40708F45BC0CE01905681159042DF
:1013D00008F059CF8D2F8F710E948B0890E0982FC5
:1013E000882788279F719C012C2BE901E6CFC55ADD
:1013F000D0E0CC5DDE4FC881D0E0D0641FCFCE01FD
:10140000E4E096958795EA95E1F783702C2F269571
:101410002695237040E2249F90011124382B8C2FB5
:101420008370C1E0D0E002C0CC0FDD1F8A95E2F7E7
:10143000C22BD32BDC6802CFDC2FCC27C16FD06A44
:10144000FDCECE018370992721E030E002C0220F4B
:10145000331F8A95E2F7C695C69590E2C99FE001D1
:101460001124C22BD32BDA68E9CEDC2FCC27C46F32
:10147000D06AE4CEDC2FCC27C06FD06ADFCE8C2FB1
:101480008F700E948B0834E0D695C7953A95E1F7A6
:10149000CF709C2FEC01D069D1CEC9E3D0E0CECE85
:1014A000C2EED0E0CBCEC6EED0E0C8CE809117021F
:1014B000882331F010921702109216021092150232
:1014C0000895CF93C82F8091F90482FD0CC08091BC
:1014D00017028C1741F00E94A50490931602809386
:1014E0001502C0931702CF910895809590912D0514
:1014F000982390932D050895809590913403982317
:1015000090933403089590913403892B809334038E
:1015100008951092F4011092F3011092F2010895CF
:101520008091160490911704892B89F00E94A504DC
:101530002091150230911602AC01421B530B81E041
:1015400020911604309117044217530708F480E0E5
:10155000817008958091F10181111092F101089537
:1015600090911B019923D1F09091F80497FF16C038
:10157000E82FE695E695E695EE31E0F4F0E0E458E4
:10158000FE4F282F277081E090E001C0880F2A9538
:10159000EAF780959281892382830895EEE7F1E04E
:1015A0009191891303C0DF0111971C9291E0E438F7
:1015B000F907B1F708952091F0019091AF01291337
:1015C00002C080E0089530E0F90153E0EE0FFF1F04
:1015D0005A95E1F7E055FE4F5181561306C05081F0
:1015E000581303C05281541304C02F5F3F4F27701C
:1015F000E6CF81E008958091F0019091AF019813BA
:1016000001C008958F5F8770FACF9E3F51F1292F57
:10161000220F220FE22FE90FE80F9E2F9770E69519
:10162000E695E69583E0E89FF0011124EC55FE4F26
:1016300050E040E080E0219130E0092E02C0369574
:1016400027950A94E2F721703327042E01C0220F58
:101650000A94EAF7822B4F5F5F4F4330510559F7E9
:10166000089580E008959E3F71F1292F220F220FE7
:10167000E22FE90FE80F8E2F877041E001C0440F81
:101680008A95EAF7E695E695E69583E0E89FF0010E
:101690001124EC55FE4F30E020E070E05191DF0165
:1016A0001197CB01022E02C0969587950A94E2F716
:1016B000817081958527842385278C932F5F3F4FE9
:1016C0002330310559F7089592959F70963091F027
:1016D00058F4925F9F70923058F4803F19F030F4C4
:1016E000883E30F481E008959A5FF4CF843FD1F3CF
:1016F00080E00895883EB0F3813FD1F7F3CF9C019D
:101700003A9521153F4150F5FC01EE27F170BC01DF
:1017100066277270AC01442754709C0122273870F0
:1017200094FF0EC080E1EF2B09F480E0672B09F0F5
:101730008062452B09F08064232B89F0806808952E
:1017400081E0EF2B09F480E0672B09F08260452BE4
:1017500009F08460232B19F08860089580E00895D3
:101760008093FA047093FC046093FB0480912B0532
:101770008430F9F48093E9008FEF9091E800815074
:1017800095FD06C095ED9A95F1F700008111F5CF12
:101790008091E80085FF0DC050E040E063E070E01C
:1017A0008AEF94E00E9413038091E8008E77809383
:1017B000E8000895BC0184E00C94B00BBC0183E008
:1017C0000C94B00B9C0184E08093E9009FEF809122
:1017D000E800915085FD06C085ED8A95F1F700007F
:1017E0009111F5CF8091E80085FF0CC050E040E0FA
:1017F00066E070E0C9010E9413038091E8008E77D3
:101800008093E8000895CF93DF93EC0180911B0152
:101810008823B1F18091F80487FF32C060E284E050
:101820008093E9008FEF9091E800815095FD06C00C
:1018300095ED9A95F1F700008111F5CF8091E800C0
:1018400085FF1BC080911B0170E050E040E08111DA
:1018500004C050E040E068E070E0CE010E94130355
:101860008091E8008E778093E80080E2FE01A0E09E
:10187000B5E001900D928A95E1F7DF91CF9108953F
:1018800068E081E0CDCF019708F40895EFE9FFE02B
:101890003197F1F700C00000F6CF0F931F93CF935D
:1018A000DF9304E114E0CFE4D0E0CE010E94FB34EA
:1018B000F80181938F012196C337D105B1F7C8E7AD
:1018C000D3E0FE0185919491009711F0FC010995F8
:1018D0002C96F4E0C437DF07A1F7DF91CF911F9179
:1018E0000F9108950F931F93CF93DF93843008F5E2
:1018F00061111FC04530E8F4042F10E0000F111FE4
:101900002AE0829F000D111D1124C80187960E94B4
:10191000FB34C82FD0E0DC2FCC27C80188960E946A
:10192000FB349E01282BC901DF91CF911F910F91AC
:10193000089590E080E0F8CF462F20913203309157
:101940003303232B91F47E3F39F46E3F71F4809181
:101950003003909131030895843038F4711105C03B
:10196000653018F460E00C94720C90E080E008950B
:10197000CF92DF92FF920F931F93CF93DF936C016F
:1019800000912C0580911802082BC7E0D0E010E0F0
:10199000FC2EC8010C2E02C0959587950A94E2F79B
:1019A00080FD0CC02197A0F7F12C8F2DDF91CF91F6
:1019B0001F910F91FF90DF90CF900895B6018C2F6B
:1019C0000E949C0C0E94CE08019761F3EECFCF934A
:1019D000DF93EC010E94B80CBE010E949C0CDF91C9
:1019E000CF910C94CE08FC0186819781009721F05D
:1019F0000E94CE080C94640B808191810E94E70CB8
:101A0000F9CF1F93CF93DF9300D000D00F92CDB7C3
:101A1000DEB749835A8389819A816623B9F02223EC
:101A2000A9F00E94B80C182F682F89819A810E9412
:101A3000330B69817A81812F0F900F900F900F9057
:101A40000F90DF91CF911F910C949C0C0E94050B7D
:101A5000182FEFCFFC01262F86819781009739F44C
:101A6000408151816281738184810C94010D0895BC
:101A700083E290E00E94FB348B3089F484E290E0B2
:101A80000E94FB348B3F59F485E290E00E94FB34C6
:101A900091E0883F09F090E0892F8170089580E0FF
:101AA000FCCFCF9384E090E00E94FB34C82F82E209
:101AB00090E00E94FB34982F8C2FCF910895DB018A
:101AC000FC013296259134914217530758F0FC01DE
:101AD000349665917491A901CD010E94DB3490E0A8
:101AE00080E008958FEF9FEF08950F931F93CF939A
:101AF000DF9304E114E0CFE4D0E0CE010E94FB3498
:101B0000F80161918F01681719F0CE010E94093523
:101B10002196C337D10589F7DF91CF911F910F919E
:101B20000895DA019C012E5F3F4FF90145915491D0
:101B3000F90125913491A217B30758F0FC013496AE
:101B4000859194910E94DB340E94750D90E080E0B5
:101B500008958FEF9FEF0895CF93DF93C3E6D1E011
:101B600060E0CE010E9409352196C11584E0D807B6
:101B7000B9F7DF91CF9108950F931F93CF93DF9320
:101B80008901843020F5611122C0453000F521150E
:101B90003C4531F420912E0330912F03232BB9F0D3
:101BA000C42FD0E0CC0FDD1F9AE0899FC00DD11D5E
:101BB0001124612FCE0187960E940935602FCE0136
:101BC0008896DF91CF911F910F910C940935DF9189
:101BD000CF911F910F910895CF93C82F6FEF81116F
:101BE0006BE083E290E00E9409356FEFC1116BEF6B
:101BF00084E290E00E9409356FEFC11168EF85E241
:101C000090E0CF910C940935CF93C92F682F84E0D1
:101C100090E00E9409356C2F82E290E0CF910C9405
:101C200009359B01883070F49AE0899FB001112436
:101C30006D587F4F4AE050E0C9010E94EB3490E0BC
:101C400080E008958FEF9FEF08958F929F92AF925B
:101C5000BF92CF92DF92EF92FF920F931F93CF9399
:101C6000DF93CDB7DEB72A970FB6F894DEBF0FBE6D
:101C7000CDBF0DE314E0F12CE12C82EDC82E8AE2F9
:101C8000D82E9CEFA92E9AE2B92E2BE3822E2AE2BF
:101C9000922EF801D182C082B382A2829582848280
:101CA000F58AE48ABE016F5F7F4F8E2D0E94110E70
:101CB000892B29F489859A85F801938B828BFFEF14
:101CC000EF1AFF0A0A5E1F4F88E0E816F10409F7D1
:101CD0002A960FB6F894DEBF0FBECDBFDF91CF912D
:101CE0001F910F91FF90EF90DF90CF90BF90AF903A
:101CF0009F908F9008958F929F92AF92BF92CF92B4
:101D0000DF92EF92FF920F931F93CF93DF93CDB7A4
:101D1000DEB72A970FB6F894DEBF0FBECDBF06EB35
:101D200012E084EAC82E82E0D82E93E1E92EFF2447
:101D3000F39427E0922E33EAA32E32E0B32E8824C8
:101D40008394D6010D931D936D014AE050E0B701D5
:101D5000CE0101960E94EB34F8013896DF01892DFF
:101D60001D928A95E9F789819A81D80111969C93F1
:101D70008E938F8112968C9312978D8113968C93EC
:101D80001397888514968C931497898515968C9350
:101D900015978B819C8117969C938E931697189616
:101DA0001C9218978A8587FF4BC01E961C921E9224
:101DB0001D9780FF03C0D80118968C9281FF04C044
:101DC000F80190859260908782FF07C0D80118962D
:101DD0009C911897946018969C9383FF04C0F80117
:101DE00090859860908784FF07C0D80118969C91D1
:101DF0001897906118969C9385FF04C0F801808520
:101E000080628087015F1F4FFAE0EF0EF11C83E6CE
:101E1000E81681E0F80609F094CF2A960FB6F894F8
:101E2000DEBF0FBECDBFDF91CF911F910F91FF900D
:101E3000EF90DF90CF90BF90AF909F908F900895DC
:101E4000F801B686A586B5CFCF92DF92EF92FF92CA
:101E50000F931F93CF93DF93CDB7DEB72A970FB6BB
:101E6000F894DEBF0FBECDBFE3E5F2E080E5DF0111
:101E70001D928A95E9F7EDEBF3E088E3DF011D920F
:101E80008A95E9F783E5C82E82E0D82E7F0103EC1E
:101E900010E0F701D182C0824AE050E0B801CE01E3
:101EA00001960E94EB3488E0FE013196D601019044
:101EB0000D928A95E1F789859A85D70113969C93AF
:101EC0008E931297BAE0CB0ED11CE7E0EE0EF11C18
:101ED000065F1F4F0331F1E01F07D9F62A960FB6B0
:101EE000F894DEBF0FBECDBFDF91CF911F910F9150
:101EF000FF90EF90DF90CF900895CF9380913403BF
:101F000090912D05892B80937C0180911702882365
:101F100029F18091160490911704892B29F00E94D1
:101F2000900A81110E94560A80917C0190911702BB
:101F3000892B80937C0180911B01882309F446C082
:101F40008091F80487FF42C08EE1EEE7F1E090E077
:101F5000815008F03DC091110E94560AC0910D04B5
:101F6000C09580917C01C82380910E04C82BC0933A
:101F70007C0140E250E065EF71E08CE791E00E9467
:101F8000CE34892B59F180E2ECE7F1E0A5EFB1E026
:101F900001900D928A95E1F7E091EF04F091F00441
:101FA0003097E1F080911B01882349F08091F8047B
:101FB00087FF05C0C0937D0186E080937C0102808D
:101FC000F381E02D8CE791E0CF91099486E0BDCFBD
:101FD0002191222309F4BCCF9F5FBACFCF910895FE
:101FE000EF92FF920F931F93CF93DF93EC018A85BB
:101FF000811134C0EB80FC8087E5F81A26E12E9D24
:10200000C0012F9D900D1124DC01A35CBB4F1496E1
:10201000ED91FC911597309731F054966D917C912C
:102020008D5B9B4F099586E18E9D80018F9D100DE4
:102030001124035C1B4FF80187810E947C0AF80180
:1020400080850E94750A0E947D0F188219861B8662
:102050001E821D8210923C0410923B04DF91CF91AE
:102060001F910F91FF90EF900895CF93DF93EC01B4
:102070008989811118C081E0898B8F810E94830A30
:1020800080912D059885892B80932D050E947D0FC9
:10209000EA81FB81309739F06C897D89CE01069603
:1020A000DF91CF910994DF91CF910895809119012B
:1020B000877F8093190182E00E94750A809119013F
:1020C00084FF06C08F7E8093190182E00E94830AFC
:1020D0008091190185FF06C08F7D8093190180E2F0
:1020E0000E94830A0C947D0F90E080E00E94FC0423
:1020F00090E080E00E94E60410922D050E947D0F82
:1021000086E0EBE3F2E0DF011D928A95E9F7109299
:10211000350210923402109236020C949706809386
:102120002C050C94741080912C05982F9670963085
:1021300019F488600C948F10877FFCCF21E030E089
:1021400001C0220F8A95EAF7209580912C05822301
:102150000C948F109091F401809589238093F40161
:10216000282F277091F4282F082E000C330B92177C
:10217000130659F09091F90492FD07C08595859555
:1021800085950E949E100C94890A08959091F904F7
:1021900092FB222720F9281769F080FB92F990938F
:1021A000F9048091F8049091F9040E94040E82E0F1
:1021B0000C94AA10089521E030E001C0220F8A9506
:1021C000EAF780912C05822B0C948F109091F904E2
:1021D00092FD10C098E0899F90011124622B6093BA
:1021E000F4010E94DB100E94A5049093F3018093F8
:1021F000F20108950C94DB10809318020C94741073
:102200001092340380911B01EEE7F1E0882359F02E
:102210008091F80487FF07C08EE1DF011D928A9547
:10222000E9F70C94741086E0F8CF1F93CF93DF93F7
:10223000CDB7DEB7AA970FB6F894DEBF0FBECDBFFD
:1022400083E295E02091F100DC012D93CD01B5E012
:102250008B329B07B9F780912405833009F472C053
:10226000B8F4813009F449C0823009F4B3C08091D8
:10227000E80083FF96C280912305909124059A304F
:1022800008F08FC2E92FF0E0E95BFA4C0C94B83407
:102290008A3009F48EC08B3009F471C0893039F767
:1022A00080912305813219F78091270590912805A7
:1022B000009711F00297D9F68091E800877F80930C
:1022C000E8008091E80082FF38C09091F30080918F
:1022D000F200029731F48091F100813011F08630E4
:1022E00021F48091F1008093FF048091E8008B77C6
:1022F0008093E8000E946503BACF80912305813A5C
:1023000009F0B5CF8091E800877F8093E800809145
:10231000270590912805892B61F460E280E095E023
:1023200070E00E9417048091E8008B778093E800AA
:102330009ECF60E090E080E0F3CF80912B0581118B
:10234000C0CF95CF80912305813A09F090CF80913D
:10235000270590912805892B09F089CF8091E80005
:10236000877F8093E8008091E80080FFFCCF809118
:102370001B018093F1008091E8008E77B9CF8091A6
:102380002305813209F073CF8091270590912805AC
:10239000892B09F06CCF8091E800877F8093E8005B
:1023A0000E9465038091250580931B010E94001106
:1023B0005ECF80912305813209F059CF8091E800EA
:1023C000877F8093E8000E946503809126058093B3
:1023D000FE044DCF80912305813A09F048CF8091CA
:1023E000E800877F8093E8008091E80080FFFCCFC1
:1023F0008091FE04BECF803899F0823809F0D1C1B7
:10240000809127058F70873008F0CBC18093E90059
:102410008091EB0085FB882780F91092E90006C0C7
:102420008091200590912105911182609091E800A2
:10243000977F9093E8008093F1001092F1008091D3
:10244000E8008E77AAC1882309F498C1823009F088
:10245000A8C18091250581119BC1809127058F70AE
:102460002FEF280F263008F09CC18093E9002091BF
:10247000EB0020FF8DC1933031F48091EB0080623E
:102480008093EB0085C19091EB0090619093EB00FD
:1024900021E030E001C0220F8A95EAF72093EA009C
:1024A0001092EA008091EB008860EACF811179C137
:1024B000109125051F778091E3008078812B809310
:1024C000E3008091E800877F8093E8000E94650325
:1024D0008091E80080FFFCCF8091E30080688093CA
:1024E000E30082E0111183E080932B055AC18058EC
:1024F000823008F056C120912505309126052C3DEB
:10250000E3E03E07A1F583E08A838AE289834FB73F
:10251000F894DE01139620E03EE051E2E32FF0E074
:1025200050935700E49120FF03C0E295EF703F5FA6
:10253000EF708E2F90E0EA30C0F0C7968D939D9398
:102540002F5F243159F74FBF8091E800877F809338
:10255000E8006AE270E0CE0101960E9417048091C3
:10256000E8008B778093E8001CC1C096E7CF80918C
:10257000270590912805432F55274330510509F42D
:102580004AC078F54130510509F485C08BE590E0EB
:10259000EAE6F4E04230510509F003C12091E80079
:1025A000277F2093E8002091290530912A05821782
:1025B000930708F49C0140E02115310509F070C033
:1025C00041116EC08091E80082FDC9CF80912B053A
:1025D000882329F2853019F28091E80083FFF2CF39
:1025E000BECF4132510509F447C04232510509F0CE
:1025F000D8C08330910508F0D4C0FC01EE0FFF1F56
:10260000E359FE4F0190F081E02D86599E4FDC0189
:102610008C9190E01DC0332721303105E9F0211560
:10262000310579F022303105F9F02330310509F018
:10263000B8C0E7EDF4E0E4918E2F90E0E7EDF4E030
:1026400007C0E3E4F5E0E4918E2F90E0E3E4F5E0E9
:10265000009709F4A6C0A2CFEDE1F5E0E4918E2F3A
:1026600090E0EDE1F5E0F4CFE5EFF4E0E4918E2FBA
:1026700090E0E5EFF4E0ECCF8330910508F091C0F5
:10268000880F991FFC01ED58FE4F0190F081E02D5D
:1026900089E090E083CF82E190E0E5ECF4E07ECF4A
:1026A00080912B05882309F45ACF853009F457CF40
:1026B0008091E80083FD53CF8091E80082FD82CFB6
:1026C0008091E80080FF78CF9091F3008091F20034
:1026D0002115310519F08830910550F041E0089737
:1026E00009F040E08091E8008E778093E80064CFA5
:1026F00044914093F1003196215031090196E8CF81
:10270000803809F04EC08091E800877F8093E80010
:10271000809122058093F10092CE811142C01091E8
:1027200025051230F0F58091E800877F8093E8005E
:10273000109322050E946503112311F084E005C067
:102740008091E30087FDFACF81E080932B0542E082
:1027500061EC81E00E94840342E261EC84E00E942B
:10276000840342E261EC82E00E94840342E260EC76
:1027700083E00E94840380912B0513C0809125057E
:10278000813079F481E0933009F080E08093210575
:102790001092E9008091E800877F8093E8000E9412
:1027A00065038091E80083FF0AC08091E800877F7D
:1027B0008093E8008091EB0080628093EB00AA9602
:1027C0000FB6F894DEBF0FBECDBFDF91CF911F9142
:1027D0000895E4E1F4E0128E138E8FEA90E0918385
:1027E000808325E0248F88E893E1938382838AE0C5
:1027F00090E09583848344E150E05783468368E00A
:1028000070E071876087938782874EE150E055873B
:1028100044879787868740E550E0518B408B738BC8
:10282000628B68E270E0758B648B62E370E0778B9B
:10283000668B68EC70E0718F608F158E978F868F36
:1028400051A340A322A30E94750D0E940011109273
:10285000F9041092F80490E080E00E94040E0C94B9
:102860004D0CAF92BF92CF92DF92EF92FF920F93F7
:102870001F93CF93DF93CDB7DEB76E970FB6F89463
:10288000DEBF0FBECDBFA0902E03B0902F0381E01E
:1028900090E090932F0380932E038AE5C82E83E067
:1028A000D82E00E0760110E0F70125913491412FF8
:1028B00060E0802F0E94BC0D82E0E80EF11C1F5FDB
:1028C000153091F7EAE0CE0ED11C0F5F043051F7BE
:1028D0000E94E9131A8219821C821B821E821D82A9
:1028E00018861F8288EC90E09A87898703E710E0BA
:1028F0004AE050E0B801CE0101960E942D35065FF6
:102900001F4F033C1105A1F77E01FBE0EF0EF11C08
:102910008AE0F70111928A95E9F74AE050E0B801A0
:10292000C7010E942D35065F1F4F0331F1E01F07DD
:10293000A1F77E0185E1E80EF11C8AE0F701119212
:102940008A95E9F78FEF9FEF9A8F898F87E08E8FB7
:102950004AE050E0B801C7010E942D35065F1F4FC5
:102960000336F1E01F07A1F7B0922F03A0922E03C8
:102970006E960FB6F894DEBF0FBECDBFDF91CF913C
:102980001F910F91FF90EF90DF90CF90BF90AF908D
:10299000089580E00E94EC0D60E086E290E00E94E5
:1029A00009350E9431140E94AC0D81E00C94EC0DAD
:1029B00069EE7EEF90E080E00E94273560E082E0E3
:1029C00090E00E94093560E083E090E00E940935C4
:1029D0001092180260E084E090E00E94093560E007
:1029E00082E290E00E94093560E085E090E00E947C
:1029F000093560E086E090E00E9409356FEF87E0DE
:102A000090E00E94093540E050E0BA0188E090E093
:102A10000E941B3560E08DE090E00E94093540E0A7
:102A200050E0BA0188E190E00E941B3560E087E148
:102A300090E00E94093540E050E0BA018CE190E05E
:102A40000E941B3570E060E080E290E00E94273534
:102A500040E050E0BA0188E190E00E941B3580E040
:102A60000E94EC0D0E94C91440E050E0BA018FE0D2
:102A700090E00E941B3540E050E0BA0183E190E015
:102A80000C941B35CF92DF92EF92FF928FEF9FEF66
:102A90004430510508F46AC0FB01C080D180E28057
:102AA000F3800E9400118091F804C0FA80F9B70108
:102AB000A601769567955795479540FB81F9B70133
:102AC000A60122E076956795579547952A95D1F707
:102AD00040FB82F9B701A60133E0769567955795DB
:102AE00047953A95D1F740FB83F9B701A601E4E099
:102AF0007695679557954795EA95D1F740FB84F908
:102B0000B701A601F5E07695679557954795FA9533
:102B1000D1F740FB85F9B701A601A6E07695679548
:102B200057954795AA95D1F740FB86F9B701A601BD
:102B3000B7E07695679557954795BA95D1F740FBDD
:102B400087F98093F8048091F904D0FA80F9D1FADA
:102B5000CC24C0F8C0FA81F98093F9048091F8047C
:102B60009091F9040E94040E90E080E0FF90EF90B5
:102B7000DF90CF900895882321F00E94750A0C946D
:102B80007D0F0895882339F090912D05982B90930F
:102B90002D050C947D0F0895882321F00E947C0A56
:102BA0000C947D0F0895882321F00E94830A0C94D1
:102BB0007D0F0895882361F19CEF980F913A20F4DE
:102BC0000E94B00A0C947D0F90E2980F983050F458
:102BD000877091E001C0990F8A95EAF7892F0E94CA
:102BE0007C0AF0CF9BE5980F933020F490E080E0D2
:102BF0000C94FC0498E5980F973120F490E080E065
:102C00000C94E604803F20F00E94BE060C949706C8
:102C10000895FF920F931F93CF93DF93F82E0091A7
:102C20001204109113040115110509F449C0109202
:102C300011041092100410920D0410920E04D80189
:102C40001696CD91DC919E013A9521153F4108F4ED
:102C5000D07ED1E0C11101C0D0E0D8011996ED912C
:102C6000FC911A97309731F01B966D917C9180E022
:102C70000995D823DD2339F08CEF8C0F813A38F594
:102C80008C2F0E94B00AFF2099F0E0911204F0917D
:102C90001304808584FD0CC080910F04882341F0CB
:102CA000808191819C0121503109253A3D45A8F050
:102CB0000E947D0F109213041092120410920F04C0
:102CC000C801DF91CF911F910F91FF9008950E944D
:102CD0007D0F8C2F0E94DA15D6CF0E941E05E8CFFB
:102CE000CF93DF93EC010E94DA15CE010E947F0B97
:102CF0009E01205E31092830310510F0CD2B21F4E2
:102D0000DF91CF910C94CC15DF91CF910C94BB1532
:102D1000CF93C82F882309F468C08CEF8C0F813AB9
:102D2000A8F580911B01882301F18091F80487FFA9
:102D30001CC0EC2FE695E695E695F0E0E458FE4FD2
:102D4000828190E04C2F477021E030E002C0220FDA
:102D5000331F4A95E2F782239323892B79F08C2F36
:102D60000E94B00A0E947D0F09C0EEE7F1E0819158
:102D7000C817A9F381E0E438F807C9F76C2F8CE78E
:102D800091E00E94B104CF910C947D0F80E28C0FF2
:102D9000883048F4C77081E001C0880FCA95EAF70F
:102DA0000E94830AF0CFEBE5EC0FE33040F4F0E053
:102DB000EC5DFE4F808190E0CF910C94FC04E8E53F
:102DC000EC0FE73150F4F0E0EE0FFF1FE95DFE4F2E
:102DD00080819181CF910C94E604C03F30F08C2F1C
:102DE0000E94D907CF910C949706CF9108951F9315
:102DF000CF93DF93182FC0913404D09135048933D9
:102E000021F0C0913204D0913304812F0E948816A2
:102E1000209731F4812FDF91CF911F910C94DA1517
:102E20008FE99FE00197F1F700C000002197F0CFF4
:102E30000F931F93CF93DF93C42FD22FFC01828176
:102E40008823A1F040933A040E94A504909339048A
:102E500080933804C77081E001C0880FCA95EAF7F3
:102E6000DF91CF911F910F910C94D31510913A04DB
:102E7000141339C080913804909139040E948A0457
:102E800020912C0430912D048217930760F5C0E245
:102E9000CD0F1D17B9F080E2810F883040F4177014
:102EA00081E001C0880F1A95EAF70E94CC15C8305E
:102EB00048F481E09D2F977001C0880F9A95EAF73A
:102EC0000E94D315802F0E94F716C83098F4D7704F
:102ED00081E001C0880FDA95EAF7DF91CF911F9169
:102EE0000F910C94CC15C77081E001C0880FCA9572
:102EF000EAF7F3CFDF91CF911F910F910895DF9201
:102F0000EF92FF920F931F93CF93DF93E82FF0E0A0
:102F1000E650FE4FD490282F26952695269530E032
:102F2000F901E651FE4F0491877010E0082E02C0AF
:102F3000159507950A94E2F701701127F901E652F9
:102F4000FE4FE490F12C082E02C0F594E7940A9409
:102F5000E2F791E0E922FF24F901E653FE4FC49124
:102F6000D0E002C0D595C7958A95E2F7C170DD27FC
:102F70000115110519F081EE0E948816E114F10483
:102F800019F086EE0E9488168D2D0E94F716EF2804
:102F900019F086EE0E94DA15012B19F081EE0E94DD
:102FA000DA15CD2B51F08CE2DF91CF911F910F916B
:102FB000FF90EF90DF900C94F716DF91CF911F9167
:102FC0000F91FF90EF90DF9008951F93CF93DF93C1
:102FD000EC011AE08881882309F43EC08130C9F5EC
:102FE00099818A81913029F422960E94F7162196C0
:102FF000F1CF923021F422960E948816F8CF9330B8
:1030000021F422960E94DA15F2CF943011F0219625
:10301000EECF229630E020E0AE014F5F5F4F80534D
:10302000990B8A30910550F02150310900F38FE956
:103030009FE00197F1F700C00000F6CF129FB001AA
:10304000139F700D11249C01260F371F8981EA01FF
:10305000E3CF0E947F17CBCFDF91CF911F910895CF
:10306000CF93DF93EC010E947F0B9E01205E31091C
:103070002830310510F0209739F40E94D3158C2F99
:10308000DF91CF910C9488160E94C215F8CF662369
:1030900029F020912D05226020932D059C013056AA
:1030A000211540E2340720F0305E2115304108F44C
:1030B00099270C943018DF92EF92FF920F931F9391
:1030C000CF93DF937C018B01D42E8091190182FF75
:1030D0008CC0C0915703D0915803CE15DF0521F065
:1030E000E114F10409F081C0809119018B7F809374
:1030F000190181FD73C08091550390915603A80179
:10310000481B590B81E0209117013091180142179B
:10311000530708F480E08170F82E80911901F0FACD
:1031200081F980931901FE0183E0F695E7958A9570
:10313000E1F7EE71FF27EB5CFC4F20813181AE019E
:103140004F70552781E090E002C0880F991F4A9583
:10315000E2F7FF2009F444C0822B932B91838083F4
:103160008091340381FF08C08091190180618093B0
:10317000190182E00E947C0A8091340385FF08C017
:103180008091190180628093190180E20E947C0A7B
:103190006F2DCE010E944718DD2031F080912F0461
:1031A00085FF02C086FF3BC08091320490913304BA
:1031B0000E94430C80915703909158039C01305614
:1031C000211540E2340720F0305E2115304108F42B
:1031D00099270E9470160E9456101DC081E09BCF57
:1031E0008095909582239323B9CFC70199279701A2
:1031F0003056211540E2340728F0305E2115304169
:1032000008F0C7010E9470168091570390915803EF
:103210008E159F0501F31093560300935503DF911C
:10322000CF911F910F91FF90EF90DF9008952F9213
:103230003F924F925F926F927F928F929F92AF9246
:10324000BF92CF92DF92EF92FF920F931F93CF9393
:10325000DF9300D000D000D00F92CDB7DEB77C0155
:10326000DC0113964D915C91149711966C91119716
:103270008C910E948F058111CBC061E0C7010E9433
:103280002A0D8C01F7018281811161C0D70112964C
:103290008C9181119BC00031FFE51F0709F473C1B8
:1032A00001312FE5120709F472C16801E7E5DE1A62
:1032B000FFEFCF16D10409F060F569E472E08C2DC0
:1032C0000E94110E892B29F586E18C9DF0018D9DC0
:1032D000F00D1124E35CFB4F8681813009F059C168
:1032E0008091490290914A02892B99F080914B027A
:1032F00090914C02892B69F080914D0290914E0281
:1033000020914F0230915002822B932B892B09F48C
:103310004AC1F7015280552009F457C10F35FDE528
:103320001F0709F44EC100362DE5120751F00E3586
:103330003DE5130709F049C180910001882309F494
:1033400040C11092000180E00E94091651C0809196
:103350000D0190910E01019609F498CFADE3CA2EAC
:10336000A4E0DA2EB12CA12C9924939480910D0124
:1033700090910E018A159B050CF488CFF601868189
:103380008823E9F0818592850817190739F480911F
:103390003B0490913C040817190789F0D6011F9649
:1033A0009C921F971C961C930E931B97C6010E941C
:1033B0003510C60106960E94F00F10922D05BFEF42
:1033C000AB1ABB0AE6E1CE0ED11CD0CFC8018251A8
:1033D0009F45409710F00C9402238FEF93E00E94DA
:1033E000FB34FEEEDF2ED00E03E611E08823A9F1B8
:1033F0008091F401877061F0D70112968C91882337
:1034000039F08091F90482FD03C082E00E94AA1085
:1034100027960FB6F894DEBF0FBECDBFDF91CF91D8
:103420001F910F91FF90EF90DF90CF90BF90AF90E2
:103430009F908F907F906F905F904F903F902F90D4
:1034400008950115F4E01F0799F2C8010E94FB34AA
:10345000811101C0DA940F5F1F4FD110F2CF198292
:103460001A821B821C8299249A9468012FEFC21A37
:10347000D20AC8010E94FB3489831A82882309F486
:10348000B7CF813009F073C0580132E0A30EB11CF0
:10349000C6010E94FB34C82E8A83882309F4A8CF72
:1034A000C5010E94FB34D82E8FEF8C0D833068F459
:1034B000580143E0A40EB11CDB82DD2021F0CE01D7
:1034C00001960E94E5178501D0CF8BEF8C0D8330DC
:1034D00030F5C8010396DB825C01DD20A1F35801C1
:1034E00054E0A50EB11C0E94FB348C83882359F351
:1034F0008B819C818130AFEF9A0710F0982F88273D
:10350000B6E0CB1631F0E7E0CE1631F00E94C22AC9
:10351000DACF0E94922AD7CF0E940C2AD4CFF4E0AF
:10352000CF12D1CF580124E0A20EB11CC8010396DE
:103530000E94FB34DD2009F45BCF882309F458CFC7
:103540008150990B989E9001999E300D11244D2D1C
:103550004150550BCA01820F931F019708F4B3CF56
:10356000AFE9BFE01197F1F700C00000F6CFCE0140
:1035700001960E94E5175601A6CF81E00E94DB105C
:103580000E94931035CF81E00E949E10F9CF82E017
:10359000FBCF823009F0BDCE80914D0290914E025A
:1035A000892B09F4B6CE26E12C9DC0012D9D900DEE
:1035B0001124835C9B4FDC0150961C920E943510B5
:1035C000A8CE81E08093000113CF80910001882371
:1035D00009F4BCC6480140EE841A910840901702D5
:1035E0008091F101482A80913403482A58E08516D9
:1035F000910408F086C098012770332781E090E09D
:1036000001C0880F2A95EAF7552009F477C0482AA7
:10361000D7018D919C910E94050B21E030E039018A
:1036200002C0660C771C8A95E2F7E0911204F091D3
:103630001304FF83EE8320909C0130909D011D8236
:103640002D81E22FF0E0EE0FFF1FEC55FD4FC08003
:10365000D180C114D10409F4C0C7411005C0D601FE
:1036600012968C91811189C0F601838190E08621A8
:103670009721892B09F481C08085982F977009F4D0
:1036800087E0F8E08F16910408F055C0552009F442
:103690004EC086958170882309F46FC0D601AD9025
:1036A000BC900A151B0519F4552009F466C0EE817B
:1036B000FF81CE16DF0609F460C0D6011D96ED919C
:1036C000FC91309721F08081882309F456C0642D45
:1036D000C6010E946F05882309F44FC00A151B0517
:1036E00009F0D1C70115110509F4D2C75110D2C78D
:1036F000A214B30409F041C0512CCCC780954822D4
:1037000087CF552009F452C710939D0100939C0167
:103710000E9499046093090470930A0480930B0437
:1037200090930C04109211041092100471CF82FB3C
:10373000882780F9B0CF552001F18170ACCF0E946D
:10374000DA15C6C70497813A910558F46A2D8CE7BB
:1037500091E00E94B104552009F4F8C50E947D0F44
:1037600047CE0E947D0F8FE39CE90197F1F700C0DF
:1037700000008A2D0E948816EECF9D819F5F9D8359
:103780005FCFFC01208131810217130709F0D7C5F3
:103790005110D7C510920F0480E031C7882309F477
:1037A00024C6FA018189882309F41FC6C5018D5BEF
:1037B0009B4F0E94F00F19C682EE0E94881658C6D1
:1037C00088E193E00E94301888E193E00E9470162F
:1037D0004FC680919F01811103C083E50E94F716B7
:1037E00082EE0E9488168FE39CE90197F1F700C0F2
:1037F000000087E50E94F7163BC686EE0E94F7168A
:1038000088E1F8CF865059C696EF980F963020F091
:10381000805D0E947F1753C6895AFBCF82EE0E94BB
:10382000DA1563C68CE20E94F7168091A001882306
:1038300009F45BC689E30E94F71657C682EE0E9420
:10384000DA1580919F01811150C683E5F4CF88E29B
:10385000F2CF8091190181608093190178C680911F
:1038600019018E7F809319010E94561070C68091B5
:1038700019018F7E013E110531F0053E1105C9F495
:10388000809119018F7D809319018091190180FF2A
:103890006DC6D70112968C910832110528F50E31AC
:1038A000110508F074C00430110580F581115AC665
:1038B0005DC6C8019056811540E2940720F0905EE5
:1038C0008115904110F78091190182FF4FC68091B8
:1038D000310481FD4BC623E232E040E0B60190E0C6
:1038E00080E00E945B1842C60933110558F40D327E
:1038F000110518F40B321105C9F690912F0492FDB1
:10390000D5CF08C004361105C1F3D0CF90912F0454
:1039100094FDCCCF882309F4A1C090913403809109
:103920001702282F292B322F3D7FB1F11092580317
:103930001092570330912F0431FD2EC0F80143E05F
:10394000F695E7954A95E1F7EE71FF27EB5CFC4FA2
:1039500098012F70332781E090E002C0880F991FF3
:103960002A95E2F7809590952081318182239323D7
:103970009183808360E0C8010E94471880911702FC
:103980008D7F0E94610A82E00E94AA1031CD909141
:103990002F0493FD8BCFBECF38E0F701A3E2B2E056
:1039A00001900D923A95E1F71092250210922702AC
:1039B00010922602A0905703B09058030A151B05D9
:1039C000B1F530912F0435FF32C04091190141FB10
:1039D000992490F841FF02C036FF29C04091550359
:1039E00050915603B601641B750B40912C04509105
:1039F0002D0464177507D8F491FF08C08091190150
:103A000080618093190182E00E947C0A80913403D6
:103A100085FF08C08091190180628093190180E2BE
:103A20000E947C0A692DC5010E944718E1CC909143
:103A3000190121FB91F9909319018D7F0E94610A70
:103A40001093580300935703D0925603C092550326
:103A50008091190184608093190195CF970140E00E
:103A6000B601C8010E945B18C3CC053F4CE51407A2
:103A700009F462C008F45AC0063F8CE5180709F43F
:103A800061C0D70112963C91332309F4CAC5109244
:103A90003A040330BDE51B0708F060C00A3FECE5BF
:103AA0001E0730F4C80182509C45449708F060C05E
:103AB0000E94510D9093F9048093F80401313CE584
:103AC000130709F465C108F0E2C009305CE5150789
:103AD00009F44CC108F0AFC005309CE5190709F4A2
:103AE0003DC108F095C00330BCE51B0709F42CC1AB
:103AF00008F030C18091F804816002301C4509F45F
:103B000026C18091F8049091F9040E94040E0E944D
:103B100000116ECC07E225EE45EE68ED7CE541C56F
:103B200006E221EE40EE63EF7CE53BC507E225EEC1
:103B300044EE64EF7CE535C506E221EE42EE65EF2A
:103B40007CE52FC507E225EE46EE66EF7CE529C54C
:103B500008E221E045EE69ED7CE523C50136FDE58F
:103B60001F0709F4A5CF053A2DE5120709F4A0CFE8
:103B700006318CE5180709F458C50A358DE5180794
:103B800009F45CC108F038C10115ACE51A0709F465
:103B900045C10E3D1C4509F44EC1F7018681978150
:103BA000009709F44FC10E94CE08182F092FF70182
:103BB000D280C580C2943FE0C3228091F401877017
:103BC000C1F0AD2CDD20B1F0892F807F803421F051
:103BD00080E2810F883068F08091F90482FD09C08D
:103BE00082E00E94AA108091F4018770AA24A39415
:103BF0008111A12C902E92942FE09222FBE0F915D6
:103C000008F4ADC1E92DF0E0EF5AFA4C0C94B83449
:103C10008091F804806207302CE5120709F497C000
:103C20008091F804806108301C4508F490C08091B0
:103C3000F80480648CC08091F8048B7F0D304CE5D3
:103C4000140709F484C080F40B308CE5180709F4DC
:103C500093C08091F8048C600C301C4508F477C048
:103C60008091F8048D7F73C08091F8048F7E0F30AF
:103C7000ACE51A0709F46BC08091F804877F003126
:103C80001C4508F464C08091F8048F7D60C00D3F2E
:103C9000ECE51E0709F478C050F505312CE5120754
:103CA00009F480C098F48091F804837F03314CE5D7
:103CB000140709F44CC008F46FC00E9400119091E1
:103CC000F804892F97FB87F9805841C00B3F8CE59A
:103CD000180709F447C008F053C08091F9048160C7
:103CE0000A3F1C4509F00DCF8093F9040ACF01303B
:103CF000BDE51B0709F462C0B8F48091F9048C7F1C
:103D00000F3FFCE51F0781F38091F90483600115E3
:103D10001D4550F38091F904982F909591708E7FF6
:103D2000892B90FB81F9E0CF01363DE5130709F4BB
:103D30004BC0053A4DE5140709F44DC002301D454E
:103D400009F0DFCE60E03BC08091F8048260809390
:103D5000F804D7CE8091F8048460F9CF8091F804FC
:103D60008860F5CF8091F9048260BECF0E94001177
:103D70008091F8048068EBCF8091F8048E7FE7CFC4
:103D80008091F9048E7FB0CF8091F9048D7FACCF04
:103D90008091F8048F7BDBCF0E9400118091F804A2
:103DA0008F77D5CF8091F80482FB992790F921E095
:103DB000922790FB82F990FB83F9C9CF61E08EE0F6
:103DC00090E00E9409359DCE9091F804892F8F7E56
:103DD00094FF8061BCCF9091F804892F8E7F90FF73
:103DE0008160B5CF8091A101811104C089E20E9458
:103DF000B00AB4CC85E3FBCF0B35EDE51E0701F12E
:103E00000C351D4509F0C9CE8091F90482FB882745
:103E100080F991E089270E94C610BFCE0E94001150
:103E20002FEF34E34CE0215030404040E1F700C038
:103E300000000E9479040E94D814DACA81E0EBCF16
:103E400080E0E9CF828100811181882369F0C80177
:103E50000E94B80CD82E682FC8010E94330BB801FD
:103E60008D2D0E949C0C9FCEC8010E94050BD82E60
:103E7000F6CF202F2F70B22E802F807F19F0B294B2
:103E800090EFB922DD20A9F0BB2059F080E2810F2C
:103E9000883010F0111107C08B2D0E94830A0E94F8
:103EA0007D0F812F5AC080912D05B82AB0922D0523
:103EB000F6CF812F0E94DA15BB2009F450C080E2B2
:103EC000810F883010F0111104C08B2D0E947C0AE4
:103ED00003C08B2D0E94750A0E947D0F40C0302FB9
:103EE0003F70B32E802F807F803219F0B29480EF24
:103EF000B822112321F1113009F4A4C0DD2009F406
:103F0000ADC0CC2009F47DC020E0D7014C911196C2
:103F10005C91119712966C91129713967C9113975E
:103F200014968C910E94010D8091310481FDB9CFCE
:103F3000F701858180FFB5CF8F70858362C0809146
:103F4000F90482FF40C0DD20C1F1BB2029F08B2D98
:103F50000E94830A0E947D0F80E00E948816A92D8E
:103F6000A850BB0B149710F40E941205812F902FBC
:103F70000E94640B8111C4C11092A3011092A2018E
:103F8000AA20B1F08091F40180FD12C0D7011296F1
:103F90001C928595859585950E94DB10C7010E942E
:103FA00017198091F4018595859585950E949E103D
:103FB00060E0C7010E942A0D2BCA80E00E94DA153A
:103FC000BB2069F282CFDD2001F1C11004C08091D5
:103FD00017028B2917C041E0C41206C08091170256
:103FE0008B290E94610ABBCF80913004823078F324
:103FF000C812EDCF0E94560A8091F101B812B0921A
:10400000F1018B2D0E94D315AACFC11006C00E94CA
:10401000560A8B2D0E94CC15A2CF8091300451E01E
:10402000C5120BC0823008F49ACF809134038B21E3
:1040300009F495CF0E94AA0AEACF823040F3C81251
:10404000E6CF8DCF80913604DD2021F08C1508F469
:1040500086CFD7CFC81608F082CFDBCFCC20C9F2ED
:104060008091340490913504193321F08091320409
:10407000909133040E94430C812F0E94DA156FCF78
:10408000802F86958695837069F0813009F067CF1F
:10409000812F902F9370D11002C090E080E00E9499
:1040A000E6045DCF812F902F9370D11002C090E075
:1040B00080E00E94FC0453CF812FDD2029F00E9474
:1040C000D9070E9497064BCF0E94BE06FACF802FD9
:1040D000837091F5D11043CF412F4295469547709B
:1040E000440F440F812F8F70042E01C0880F0A9453
:1040F000EAF7212F207114FF07C02FE030E001C044
:10410000220F4A95EAF72095302F36953695337071
:10411000323069F050F440911802313029F0822B8E
:1041200084230E94FC101BCF842B822BFACF282BD8
:10413000809118028227F5CF8695DD2011F0802F1F
:104140008170882309F40BCF412F42954695477023
:10415000440F440F812F8F70042E01C0880F0A94E2
:10416000EAF7212F207114FF07C02FE030E001C0D3
:10417000220F4A95EAF72095302F36953695337001
:10418000323069F050F440912C05313029F0822B07
:1041900084230E948F10E3CE842B822BFACF282B0E
:1041A00080912C058227F5CFF02FFF70BF2EDD20E8
:1041B00029F08F2F0E94DB10812F24CF812F0E94A6
:1041C000CC158B2D0E949E10CACE123F89F160F44F
:1041D000103FB9F0113F81F0DD2009F48CC0C1100F
:1041E00060CE802F8F7128C0133F49F1143FA1F793
:1041F0008091F90482FF2FC0802F8F71DD2011F391
:104200001BC080913604DD2079F0C81608F0A7CED7
:10421000202F2F7181E090E001C0880F2A95EAF7E6
:1042200090912C058927B5CF8C1508F498CEF0CF46
:10423000802F8F71D110C6CF0E94DB1090CE80E00E
:10424000DD2009F4A6CF81E0902F9F7101C0880F77
:104250009A95EAF79ECF809130048230A0F1809148
:10426000F101DD20F1F00E947C0A8091F401877059
:10427000843041F40E94890A802F8F710E949E1021
:10428000A12C6DCE80913004C816D0F7202F2F714D
:10429000B22E822F0E94DB1063E08B2D0E94E6106D
:1042A000EFCF0E94830A80913004C81640F00E942C
:1042B000890A0E94AA0A64E0802F8F71EFCF81E003
:1042C0000E94AA10DDCFDD2059F0302F3F71B32EB0
:1042D000832F0E94DB1063E08B2D0E94E6103FCEFF
:1042E00081E00E94AA1041E04C1508F038CE82E02F
:1042F0000E94AA1034CEC110B3CE802F8F7162CF2E
:10430000DD2019F0C11038CE3BCEC11035CE20E0F3
:10431000F701408151816281738184810E94010D86
:104320008091310483FF28CE8091A2019091A30156
:10433000029709F021CE812F0E94F7161DCE55203D
:1043400029F0DC0118968C9185FF26CAC801975583
:104350008F3F910511F008F048C020910D01309178
:104360000E012817390724F490930E0180930D0154
:10437000F701228136E1389F5001399FB00C11249A
:10438000A501435C5B4F6A01DA0150962C9350976C
:10439000928116968C911697992309F4FFC91A9663
:1043A0001C930E9319978F5F16968C930E94A50409
:1043B000F6019687858780911702878380912D0566
:1043C00090913403892B80870190F081E02D309704
:1043D00041F0D60154966D917C91C5018D5B9B4F48
:1043E000099510933C0400933B04D70112968C91DD
:1043F000882369F0C801815E9C45059740F46FE110
:10440000600F60931D028CE090E00E94093517FF59
:1044100070C0F7018281882309F46BC00E941205E5
:10442000869581708093A0010E941205817080930F
:104430009F0180911D02813039F48091A001882371
:1044400019F089E30E94F7168091340380939E014E
:104450001092340380911D02813009F4B1C9882380
:1044600009F4AAC9823009F4B4C9843009F4C5C971
:10447000AFE3BCE91197F1F700C000005801E894E0
:10448000B7F85CE0C52ED12C6AE0862E912CC501D0
:104490000C2C02C0969587950A94E2F78F70909144
:1044A0001D02923009F0B0C98A3008F0ABC990E023
:1044B0000996B4010E94A434875A0E94F716B4E00A
:1044C000CB1AD108ECEFCE16EFEFDE0601F78091A4
:1044D0001D02813009F4A6C9882309F49FC98230DE
:1044E00009F4ACC9843009F4B2C980919E0180936B
:1044F000340380912F0480FF39C00E94A5046C0111
:10450000D70112968C91882309F4B1C980911901C1
:1045100082FF08C023E232E040E0B60190E080E094
:104520000E945B180B31BCE51B0709F492C90C31E2
:10453000ECE51E0709F493C990911901892F8E7F2C
:1045400090FF81600A31FCE51F0709F48BC9C8019F
:104550009056811520E2920728F0905E81159041D7
:1045600008F093C91092580310925703033FBCE51B
:104570001B0709F4D5CA08F078CA083DFCE51F07F7
:1045800009F4C8CA093D2CE5120709F4E1CA073D40
:104590003CE5130709F075CA06E221EE41EE67ED2E
:1045A0007CE5C7010E9418170C94F81980919C01B2
:1045B00090919D010817190781F410929D011092A6
:1045C0009C011092090410920A0410920B0410929C
:1045D0000C04109211041092100480911204909116
:1045E0001304009709F4B2CEA8E08A16910408F0EB
:1045F000C8C8642D0E946F058111A8CE81E00E9479
:104600000916A4CE00313FE5130711F40C94BD1A2E
:1046100001314FE5140711F00C94891982E00C94D4
:10462000BE1A06311C4509F0B8CA80913403982F90
:104630009A7A20912E0420FF04C0482F447409F078
:1046400090E021FF04C0482F417109F090E022FF63
:1046500004C0482F487809F090E023FF03C082721D
:1046600009F090E0332309F4BDCB81E0911101C042
:1046700080E08093A10169E2911165E38CE791E00C
:104680000E94B1046BC8A114B10409F031C8512CC7
:10469000B12CA12C80E00E940916D0921304C09284
:1046A000120481E080930F04F601858180930D044C
:1046B00051100EC0AB2861F0F601808191819C0100
:1046C00024503109213A310508F039C80E94B00A56
:1046D000D6011696AD90BC90C5019A9581159F4163
:1046E00010F4E0EEBE2277247394C5010197853A59
:1046F0009D4508F0712CD6011996ED91FC911A9701
:10470000309731F01B966D917C9181E0099578226C
:10471000772081F0F601868197810E947F0B80933C
:104720000E04C501F8E08F16910410F00C94A21B42
:104730000E941E050E947D0F0C94AB1BCF92DF924E
:10474000EF92FF920F931F93CF93DF938091AC0171
:10475000807F31F48091A901C091F00181110BC0DB
:10476000DF91CF911F910F91FF90EF90DF90CF904D
:1047700008952196C7708091AF018C1789F3F0904E
:10478000A701E090A801C090AA01D090AB01A601BA
:104790006E2D8F2D0E948F05D0E08111EACF8E0102
:1047A00083E0000F111F8A95E1F7F801E055FE4FF5
:1047B00081818E11DECF80818F11DBCF82818111CB
:1047C000D8CFE380F480EC18FD0860E087EA91E040
:1047D0000E942A0D80912C0490912D04E816F90670
:1047E00040F68091AC018F7080618093AC01F8013C
:1047F000EB54FE4F80818F708061808387EA91E067
:104800000E941719DF91CF911F910F91FF90EF90A8
:10481000DF90CF900C94FB0A3F924F925F926F9281
:104820007F928F929F92AF92BF92CF92DF92EF9240
:10483000FF920F931F93CF93DF93CDB7DEB76597AA
:104840000FB6F894DEBF0FBECDBF8C0185E0F80136
:10485000DE01519601900D928A95E1F7D8014C90B6
:1048600011965C9011971296EC9012971396CD903A
:10487000DC9060E087EA91E00E942A0D87EAA82E8A
:1048800081E0B82E8090AA019090AB01A4016091C4
:10489000A8018091A7010E948F058111CAC1F090E3
:1048A000A901F601E819F9094F0160E0FF2009F4B8
:1048B0006DC1C5010E942A0D60902C0470902D04DA
:1048C0003090AC018614970408F013C14091AA01FE
:1048D0005091AB01B090A701A090A801832D807FDB
:1048E0006A2D09F0ADC08B2D0E948F05FE2C811121
:1048F0003BC0D80111968C9111978A1135C08C91CB
:104900008B1132C02091AD013091AE0116968D9180
:104910009C912817390741F5E11026C0832D8F702F
:1049200080618093AC0187EA91E00E941719809121
:10493000AC01F80185838F2D65960FB6F894DEBF24
:104940000FBECDBFDF91CF911F910F91FF90EF90E0
:10495000DF90CF90BF90AF909F908F907F906F909F
:104960005F904F903F900895F4EF6F16F1E07F064F
:1049700020F48091310480FF21C0A601652D842D93
:104980000E948F05811118C081E08E2580FF16C01E
:104990004E2D652D842D0E94DB0A882379F087EA4D
:1049A00091E00E94171988E0E7EAF1E0DF011D922B
:1049B0008A95E9F7F12CBFCF80E0E8CFA601652DFD
:1049C000842D0E948F05811124C081E08E25B82F8F
:1049D000B170CB2E80FF2BC04E2D652D842D0E94F3
:1049E000DB0AD82E811123C0498A5A8A89899A897B
:1049F0000E94E70C292F22952F70223060F024307E
:104A000088F49F7061F0F8019581907F41F4FD2C4E
:104A100092CF80E0DCCF9F7011F08823C1F3805EDD
:104A20008830A8F3C8010E941719DC2CF0CFEE20C3
:104A300009F481CF8091AC0181608093AC01BACF41
:104A40008B2D0E948F05811124C0D80111968C9165
:104A500011978A111EC08C918B111BC02091AD0142
:104A60003091AE0116968D919C91179728173907B2
:104A700081F4E1100EC015963C92C8010E941719EE
:104A800088E0F801A7EAB1E001900D928A95E1F77C
:104A900052CFC8010E94F30C882339F1EE2029F18E
:104AA0008091AC018032A0F02091A7013091A80143
:104AB0003A8729871B86DD86CC868E878091AD015B
:104AC0009091AE01988B8F87CE0109960E9417199D
:104AD00088E0F801A7EAB1E001900D928A95E1F72C
:104AE0000E949E23FF24F39426CFC8010E94171929
:104AF000F9CF832D807F09F452CF9090A701809049
:104B0000A8014091AA015091AB01682D892D0E9406
:104B10008F0581111CC0F8018181881118C0808126
:104B2000891115C02091AD013091AE018681978128
:104B30002817390761F4E1100AC03582C8010E94C4
:104B4000171988E0D5011D928A95E9F7F4CEC801BE
:104B50000E94F30C882349F2EE2039F28091AC01D7
:104B6000803208F4B5CF2091A7013091A8013A8393
:104B700029831B82DD82CC828E838091AD0190914E
:104B8000AE0198878F83CE010196A0CF87EA91E08E
:104B90000E942A0D80912C0490912D04881699066C
:104BA00080F6FE2CEE2009F4A0CFE090A701D09073
:104BB000A8014091AA015091AB016D2D8E2D0E944C
:104BC0008F05811128C0F80181818D1124C0808159
:104BD0008E1121C02091AD013091AE018681978167
:104BE00028173907C1F48091310482FD49CF909193
:104BF000AC0190FD45CF907F09F442CF8091AC018C
:104C00008583903F09F439CF982F907F905F8F7004
:104C1000892B858332CFC8010E94F30C811158CFB4
:104C20008091AC0181608093AC01C8010E9417198A
:104C300082CEEE2009F459CFC8010E94F30CF82E61
:104C4000882309F452CF88E0F801A7EAB1E0019087
:104C50000D928A95E1F78091A7019091A8010E9499
:104C6000E70C0E949E2367CECF93DF93CDB7DEB7CC
:104C700060970FB6F894DEBF0FBECDBF29873A8785
:104C80004B875C876D877E878F87988BCE010996CF
:104C90000E940C2481112FC088E0FE013996DE01AC
:104CA000119601900D928A95E1F74C855D856A8594
:104CB00089850E948F0581111EC0A091AF01B0E0CF
:104CC000CD010196877099272091F00128171906C8
:104CD00009F193E0AA0FBB1F9A95E1F7A055BE4FCB
:104CE00098E0FE01319601900D929A95E1F780933C
:104CF000AF010E94FB0A8091F0019091AF018913EE
:104D000017C060960FB6F894DEBF0FBECDBFDF911F
:104D1000CF9108950E9400111092AF011092F001FE
:104D200088E0E7EAF1E0DF011D928A95E9F7E3CF39
:104D3000B8E08B9FC001112480559E4F0E940C2427
:104D40008823F9F28091F00190E00196877099270D
:104D50008093F001D0CFEF92FF920F931F93CF93E8
:104D6000DF9380915C03882361F0C0915B038CE04A
:104D7000F82E80915C03C81758F010925C031092D3
:104D80005B03DF91CF911F910F91FF90EF900895FA
:104D9000EE24E394EC0EE0925B030C2F10E0CF9D29
:104DA000E0011124C35ADC4F4B815C816981888109
:104DB0000E948F0581111DC08E819F81892B21F456
:104DC00088859985019651F4288139814A815B81D2
:104DD0006C817D818E819F810E943426F09EF0013E
:104DE000F19EF00D1124E35AFC4F148213821092AD
:104DF0002D05CE2DBECF109200041092FF0310920D
:104E00001A018091FE038093FD030E94C8050C9453
:104E1000AB263F924F925F926F927F928F929F92BA
:104E2000AF92BF92CF92DF92EF92FF920F931F93B8
:104E3000CF93DF93C091FD0397E0892E01E010E04E
:104E40002CE0322E3EEF932E442443948091FE03B7
:104E50008C1315C00E94AB26DF91CF911F910F914B
:104E6000FF90EF90DF90CF90BF90AF909F908F908A
:104E70007F906F905F904F903F900C94C805D0E06A
:104E8000FE01EE0FFF1FEB50FC4F80819181889E49
:104E9000D001899EB00D1124A354BC4F14962C91BF
:104EA0001497211157C050905C03EDE5F3E030E01A
:104EB00020E0712C5D01251508F04AC0E284F384DE
:104EC000D501CD90DC906FEF7FEF612C462D50E047
:104ED000DA01AA0FBB1FAC0DBD1D0D90BC91A02D1A
:104EE000109731F0EA16FB0609F4BA016394EECF8D
:104EF0006F3F7607A1F1D80102C0AA0FBB1F6A95C8
:104F0000E2F77A2AB80102C0660F771F6A94E2F7C7
:104F1000AB014150510974161506F9F4329EF001A7
:104F2000339EF00D1124E35AFC4F889ED001899ED8
:104F3000B00D1124A354BC4F12962D913C911397A0
:104F400037832683908291829187808715964C9231
:104F50000E949A052196C37079CF148213822F5F25
:104F60003F4F3C96A8CF2F923F924F925F926F9205
:104F70007F928F929F92AF92BF92CF92DF92EF92E9
:104F8000FF920F931F93CF93DF93CDB7DEB769974F
:104F90000FB6F894DEBF0FBECDBF942F498B252FDF
:104FA0005A8B6B8B7C8B8D8B4C895D89622F892F03
:104FB0000E948F05811109C08091A2019091A301E7
:104FC00001969093A3018093A2018B898111109285
:104FD0002D051D861E861F86188A85E0FE017196A6
:104FE000DE01199601900D928A95E1F78091F904FE
:104FF00082FD1EC08091160490911704892BC1F088
:105000000E94A5042091F2013091F301821B930BC1
:1050100020911604309117048217930720F0809195
:10502000F40182FFF5C10E94900A81110E94560A84
:105030004C855D856A8589850E948F05811111C027
:1050400061E0CE0109960E942A0D6C018B8527EF45
:10505000C2162CE5D20681F4882321F181E08093E9
:105060001A0129853A854B855C856D857E858F85FE
:1050700098890E943426C5C038EFC3163CE5D30694
:1050800029F4882379F00E94FB26EBCF49EFC41660
:105090004CE5D40639F4882329F080911A01811156
:1050A000F2CFDCCF0DEB13E0512CB12CA12C22243C
:1050B0002394312C2EEF422EF80140815181882417
:1050C0008A94982C20E0822F90E0FC01EE0FFF1FC5
:1050D000E40FF51F608171816115710531F0C6160D
:1050E000D70609F44C012F5FEECFF12CFFEF8F169E
:1050F0009F0609F448C0F8014481F0901A018F2DF1
:10510000411180E0F82FF170FF2EF801E5808681D3
:105110009B85992309F40CC1FF2009F409C1609013
:105120002A0470902B04E11012C0A10101C0440FA9
:105130008A94EAF7842B86838091590390915A03CD
:105140008615970520F470925A0360925903C101A5
:1051500002C0880F991F2A95E2F70197F80126816E
:105160002817190681F48091FF039091000400979D
:1051700009F460C00E948A046816790608F05AC0D3
:1051800021E0F80124835F28FFEFAF1ABF0A095F0F
:105190001F4F28E0A216B10409F08ECF8B8588231B
:1051A00009F421C1552009F41EC10E94A504909361
:1051B00000048093FF0380915C03883010F591E038
:1051C000980F90935C0398E0FE013996DE011196EA
:1051D00001900D929A95E1F73CE0839FC001112464
:1051E000835A9C4F28E0FE013196DC0101900D921C
:1051F0002A95E1F72FEF3FEFFC0131872087D38617
:10520000C28669960FB6F894DEBF0FBECDBFDF91A0
:10521000CF911F910F91FF90EF90DF90CF90BF90B3
:10522000AF909F908F907F906F905F904F903F9046
:105230002F9008958091FD035091FE03982FF0E088
:10524000E0E0851314C09093FD03E017F10709F423
:105250009ACF90E0FC01EE0FFF1FEB50FC4FB182A4
:10526000A0820196837099278093FE038CCF682ECD
:10527000712CF301EE0FFF1FEB50FC4F20813181A9
:1052800047E0429FD001439FB00D1124A354BC4F6F
:105290006D917C911197798F688F40E020E030E02C
:1052A000E32FF0E0EE0FFF1F688D798DE60FF71FFB
:1052B0008080918081149104E1F0F8010190F081E7
:1052C000E02DFF8BEE8B20E005C08616970609F4D3
:1052D0004F2D2F5FE22FF0E0EE0FFF1F6E897F89C9
:1052E000E60FF71F608171816115710571F73F5FEE
:1052F000D7CF4423D1F0F801231708F0FD0121E0B6
:1053000024830E171F0721F49093FD03F42E3BCF47
:10531000981305C0AE17BF0711F49F5F93709301F8
:105320002F5F3F4F822F83708CCFF0E0E0E0F7CF0C
:1053300090E0E1101FC0B10102C0660F771F2A95EF
:10534000E2F79B01215031098217930731F444237E
:1053500009F447C0C5010E949A05C10101C0880F28
:105360008A94EAF7982F9095F8018681892386839D
:10537000FE2C09CF9C01082C02C0359527950A9474
:10538000E2F7A90141705527BC01615071098623DC
:105390009723892B11F5452B01F1F8018281938127
:1053A000892BC1F01B821C821D821E8249824A8287
:1053B0000E94A5048160582F9D838C83F80182810F
:1053C00093818F83988729813A814B816D817E817A
:1053D0000E943426F8011582C0CFF22FF170EF2E13
:1053E000BCCFEF2CBACF9091FD038091FE039817AC
:1053F00031F00E940927552009F433CE02CF0E94D4
:10540000AB26109200041092FF030E94C805F3CF50
:1054100082E00E94AA1007CECF93DF9300D000D085
:105420000F92CDB7DEB7909331038093300381158F
:1054300020E2920748F40F900F900F900F900F907A
:10544000DF91CF910C9470168EEF89838A831B8233
:105450000E94A5048160782F9D838C8349815A81A5
:105460006B818D810F900F900F900F900F90DF91B7
:10547000CF910C94B3270F931F93CF93DF938C019D
:10548000EB0169E472E08C2F0E94110E892BA1F4CC
:1054900080913204909133040E94430CDD27CF5B4E
:1054A000DD4F8881F80110821882833009F148F4B9
:1054B000813059F0823081F0DF91CF911F910F91AF
:1054C00008958430D1F08530B9F7809149029091E8
:1054D0004A02009789F306C080914B0290914C02DA
:1054E000009799F3DF91CF911F910F910C940C2AA3
:1054F00080914D0290914E02F3CF80914F02909196
:105500005002009779F72091490230914A02809128
:105510004B0290914C0221153105D9F2009711F7F9
:10552000C901E0CFCF93DF9300D000D00F92CDB769
:10553000DEB79093310380933003811520E2920708
:1055400048F40F900F900F900F900F90DF91CF9134
:105550000C9430188EEF89838A8381E08B830E94BC
:10556000A5048160782F9D838C8349815A816B814A
:105570008D810F900F900F900F900F90DF91CF9132
:105580000C94B327CF93DF93EC010E94922A809171
:105590003204909133040E94430CCE01DF91CF91ED
:1055A0000C940C2A0F931F93CF93DF938C01862FBB
:1055B00069E472E00E94110E892BC9F4C09149027E
:1055C000D0914A02209799F0F8018081833069F4E4
:1055D000CE010E94C22ACE010E94C22ACE01DF91D2
:1055E000CF911F910F910C94C22A8430B8F7DF91AC
:1055F000CF911F910F9108950F931F93CF93DF9336
:105600008C01EB0169E472E08C2F0E94110E892B52
:1056100009F064C0FE01FF27D8018C91EF5BFD4FBC
:105620008130D9F419969C911997992311F08083B0
:105630000CC01A969C919923D1F382E080838091CB
:105640004B0290914C020097D9F4809149029091BD
:105650004A02009709F442C013C08230E9F5199656
:105660008C91199781112DC01A968C9181110EC0C1
:1056700083E0808380914D0290914E02009719F152
:10568000DF91CF911F910F910C94922A84E0808337
:1056900080914F0290915002009791F780914902BA
:1056A00090914A020097F9F00E94C22A80914B0221
:1056B00090914C02009721F78091490290914A0203
:1056C000DFCF85E080838091490290914A02009764
:1056D00029F00E94C22AF0CF86E08083DF91CF912B
:1056E0001F910F91089580914B0290914C02B1CF80
:1056F0001F920F920FB60F9211242F933F934F9347
:105700005F936F937F938F939F93AF93BF93CF9349
:10571000DF93EF93FF93D091E900DF708091EC006D
:10572000C82FC17080FDC0E81092E9008091F000A0
:10573000877F8093F00078940E9415111092E90001
:105740008091F00088608093F000CD2BCF70C093E3
:10575000E900FF91EF91DF91CF91BF91AF919F91C0
:105760008F917F916F915F914F913F912F910F900A
:105770000FBE0F901F9018951F920F920FB60F92A9
:1057800011242F933F934F935F936F937F938F9346
:105790009F93AF93BF93EF93FF938091E10082FFBC
:1057A00009C08091E20082FF05C08091E1008B7FFB
:1057B0008093E1008091DA0080FF24C08091D800BE
:1057C00080FF20C08091DA008E7F8093DA00809184
:1057D000D90080FF9DC080E189BD82E189BD09B407
:1057E00000FEFDCF81E080932B058091FD048111A7
:1057F00009C00E94C3020E94B6038091E200846047
:105800008093E2008091E10080FF17C08091E20068
:1058100080FF13C08091E2008E7F8093E200809130
:10582000E20080618093E2008091D80080628093E2
:10583000D80019BC85E080932B058091E10084FF9E
:105840002BC08091E20084FF27C080E189BD82E106
:1058500089BD89B5982F917080FFFBCF8091D800CA
:105860008F7D8093D8008091E1008F7E8093E1004E
:105870008091E2008F7E8093E2008091E20081605F
:105880008093E20080912205882309F447C084E0D8
:1058900080932B0580912B058091E10083FF27C029
:1058A0008091E20083FF23C08091E100877F809395
:1058B000E10082E080932B05109222058091E100A7
:1058C0008E7F8093E1008091E2008E7F8093E200E2
:1058D0008091E20080618093E20042E060E080E03D
:1058E0000E9484038091F00088608093F000FF9113
:1058F000EF91BF91AF919F918F917F916F915F9148
:105900004F913F912F910F900FBE0F901F901895C0
:1059100019BC10922B051092FD0474CF8091E30006
:1059200087FD93E090932B05B5CF78941F921FB617
:105930001F9211248F939F93AF93BF938091F40490
:105940009091F504A091F604B091F7040196A11D81
:10595000B11D8093F4049093F504A093F604B093E2
:10596000F704BF91AF919F918F911F901FBE1F9021
:1059700018951F921FB61F9211248F939F93AF9378
:10598000BF938091F304811113C08091F40490912E
:10599000F504A091F604B091F7044196A11DB11D44
:1059A0008093F4049093F504A093F604B093F70465
:1059B000BF91AF919F918F911F901FBE1F9018951F
:1059C000CDB7DEB7E8970FB6F894DEBF0FBECDBFF8
:1059D00084B7877F84BF0FB6F894A8958091600044
:1059E000886180936000109260000FBE80E890E0B4
:1059F0000FB6F89480936100909361000FBE85B755
:105A0000806885BF85B7806885BF81E498E0909302
:105A10007B0180937A010E94250E0E94240F0E9430
:105A20007B0E0E944D0C0E94C3020E94B60380911F
:105A3000E20084608093E200789480912B058823B3
:105A4000A1F01091E9001F709091EC00892F8170F6
:105A500090FD80E8182B1092E9008091E80083FD0A
:105A60000E9415111F701093E90082E084BD93E03D
:105A700095BD9AEF97BD80936E000E94380D8111FD
:105A800002C00E94C914A5E5B1E04AE551E021E059
:105A900030E08D918F3F91F0E82FE295EF70F0E0CC
:105AA00011A18F70B90101C0660F8A95EAF7962F90
:105AB0009095912391A382A1862B82A34A175B071D
:105AC00041F71092330210921C0290E080E00E9495
:105AD0000335893E9E4F21F40E94380D811102C08A
