:100000000C94B3020C94FA020C94FA020C94FA02C7
:100010000C94FA020C94FA020C94FA020C94FA0270
:100020000C94FA020C94FA020C9420230C94F323FF
:100030000C944B1D0C94FA020C94FA020C94FA02E4
:100040000C94FA020C94FA020C94FA020C94FA0240
:100050000C94FA020C94B61D0C94FA020C94FA0259
:100060000C94FA020C94FA020C94FA020C94FA0220
:100070000C94FA020C94FA020C94FA020C94FA0210
:100080000C94FA020C94FA020C94FA020C94FA0200
:100090000C94FA020C94FA020C94FA020C94FA02F0
:1000A0000C94FA020C94FA020C94FA0229001E0035
:1000B0001F0020002100220023002400250026002C
:1000C00027002D002E002A004C004A002B001400AF
:1000D0001A000800150017001C0018000C00120080
:1000E00013002F003000310000004D0039000400E3
:1000F0001600070009000A000B000D000E000F009B
:10010000330034000100280000004B00E100010032
:100110001D001B000600190005001100100036002C
:1001200037003800E500520000004E00E000E30018
:10013000E2000000000000002C00000000000000B1
:10014000E60001515000510000004F00005C3A00F1
:100150003B003C003D003E003F00400041004200AB
:1001600043004400450001000100010001000100BE
:100170000100010001000100010001000100010077
:100180000100010001000100000001000100010068
:100190000100010001000100010001000100010057
:1001A0000100010001000100000001000100010048
:1001B0000100010001000100010001000100010037
:1001C0000100010001000100000001000100010028
:1001D000010000000000000001000000000000001D
:1001E0000100010001000100000001000100010008
:1001F00001000100010001000100010001000100F7
:1002000001000100010001000100010001000100E6
:1002100001000100010001000100010001000100D6
:1002200001000100010001000000010001000100C7
:1002300001000100010001000100010001000100B6
:1002400001000100010001000000010001000100A7
:100250000100010001000100010001000100010096
:100260000100010001000100000001000100010087
:10027000010000000000000001000000000000007C
:100280000100010001000100000001000100010067
:100290000100010001000100010001000100010056
:1002A0000100010001000100010001000100010046
:1002B0000100010001000100010001000100010036
:1002C0000100010001000100000001000100010027
:1002D0000100010001000100010001000100010016
:1002E0000100010001000100000001000100010007
:1002F00001000100010001000100010001000100F6
:1003000001000100010001000000010001000100E6
:1003100001000000000000000100000000000000DB
:1003200001000100010001000000010000000000C8
:10033000000000002A2B2800000000000000000040
:100340000000000000000029000000002C1E3420E6
:10035000212224342627252E362D3738271E1F200C
:100360002122232425263333362E37381F04050651
:100370000708090A0B0C0D0E0F1011121314151695
:100380001718191A1B1C1D2F3130232D3504050693
:100390000708090A0B0C0D0E0F1011121314151675
:1003A0001718191A1B1C1D2F3130354C0000000086
:1003B000000000000000000000000000000000003D
:1003C000000000000000000000000000000000002D
:1003D0007E0F00D4FFFFFFC7000000781803630002
:1003E00063006400360035002F00610074006D006A
:1003F00065006C00000020036300610062006C0077
:1004000065006300610072006400650073006900AC
:1004100067006E00730000000403090409025B001A
:10042000030100A0FA0904000001030101000921F1
:10043000110100012240000705810308000A090498
:100440000100020300000009211101000122220025
:1004500007058203200001070503032000010904AA
:1004600002000103000000092111010001227B00AC
:100470000705840320000A1201100100000008FF94
:100480002109AA0100010200010660FF0961A10122
:100490000962150026FF0095207508810209631581
:1004A0000026FF00952075089102C005010902A1F0
:1004B0000185020901A10005091901290815002576
:1004C0000195087501810205010930093115812561
:1004D0007F95027508810609381581257F9501757C
:1004E000088106050C0A38021581257F95017508DB
:1004F0008106C0C005010980A101850319012AB741
:1005000000150126B700950175108100C0050C0982
:1005100001A101850419012AA002150126A0029556
:100520000175108100C005010906A101050719E048
:1005300029E71500250195087501810295017508C7
:1005400081010507190029FF150026FF0095067592
:100550000881000508190129059505750191029585
:100560000175039101C011241FBECFEFDAE0DEBF99
:10057000CDBF04B603FE27C080917C0290917D021E
:10058000A0917E02B0917F028730904BA740B04B84
:10059000D1F410927C0210927D0210927E02109291
:1005A0007F0214BE84B7877F84BF0FB6F894A895E6
:1005B00080916000886180936000109260000FBE9F
:1005C000E0E0F8E3099511E0A0E0B1E0E8EFFCE439
:1005D00002C005900D92AA39B107D9F722E0AAE925
:1005E000B1E001C01D92AC37B207E1F70E94E41FF1
:1005F0000C941F260C940000879A089561FD02C098
:100600008F9A08958F98089581E0089581E0089564
:100610000C94060308950C940A031F93CF93DF9361
:1006200000D000D00F92CDB7DEB749835A836B83D9
:100630003091C90189819A8131111DC06623B9F0B9
:100640002223A9F00E949E1A182F682F89819A816F
:100650000E944A1A69817A81812F0F900F900F9022
:100660000F900F90DF91CF911F910C94410D0E943C
:10067000761A182FEFCF0E949E1A69817A81EDCFEA
:10068000FC01262F408151816281738184810C9409
:100690000D03CF93DF93D82FC92F60E00E94400352
:1006A0006D2F7C2FDF91CF910C940B038F929F9233
:1006B000AF92BF92CF92DF92EF92FF920F931F9370
:1006C000CF93DF9300D000D0CDB7DEB76B017C01B4
:1006D00081E090E0A0E0B0E04C015D0104C0880C36
:1006E000991CAA1CBB1C4A95D2F7B501A4014C0168
:1006F0005D0104C0880C991CAA1CBB1C2A95D2F76A
:10070000482959296A297B2904C0880F991FAA1FE3
:10071000BB1F0A95D2F78A019B010C211D212E21B6
:100720003F210417150726073707F9F49C01AD018F
:100730002C293D294E295F2929833A834B835C83E9
:1007400069817A818B819C810F900F900F900F901F
:10075000DF91CF911F910F91FF90EF90DF90CF909D
:10076000BF90AF909F908F90089580959095A095A1
:10077000B0954C015D018C209D20AE20BF20898268
:100780009A82AB82BC82DCCF0F93CF93DF9300D0F1
:1007900000D0CDB7DEB7262F042F40913402509100
:1007A0003502609136027091370249835A836B8318
:1007B0007C83482F69817A818B819C810E945603BA
:1007C0000F900F900F900F90DF91CF910F910C949D
:1007D00004190E94051E0E94F51B811102C00E948F
:1007E000991C0E942E050C9435070C943807089527
:1007F0000E9402150E94F7032FEF84E39CE0215032
:1008000080409040E1F700C000000C94DA1D0F9387
:100810001F93CF93DF93EC0161E00E9440038C01B2
:10082000BE010E943A0B882359F1BE01C8010E9403
:100830000803882329F1BE01C8010E94760E88238F
:10084000F9F0BE01C8010E94CB0E8823C9F0BE0199
:10085000C8010E94A30F882399F08A81882339F068
:1008600001158CE5180751F00F3D1C4579F0CE01BC
:10087000DF91CF911F910F910C9404030E94F80314
:1008800080E0DF91CF911F910F9108950E94991CF4
:10089000F7CFDF92EF92FF920F931F93CF93DF93E7
:1008A000E82FF0E0E45DFC4FD490282F26952695A4
:1008B000269530E0F901E453FC4F0491877010E075
:1008C000082E02C0159507950A94E2F701701127CA
:1008D000F901E454FC4FE490F12C082E02C0F59489
:1008E000E7940A94E2F791E0E922FF24F901E45544
:1008F000FC4FC491D0E002C0D595C7958A95E2F728
:10090000C170DD270115110519F081EE0E94431118
:10091000E114F10419F086EE0E9443118D2D0E941E
:100920004112EF2819F086EE0E94D411012B19F024
:1009300081EE0E94D411CD2B51F08CE2DF91CF914A
:100940001F910F91FF90EF90DF900C944112DF9177
:10095000CF911F910F91FF90EF90DF900895EF924C
:10096000FF920F931F93CF93DF93EC01162F0AE0B2
:100970008881882309F456C0813009F050C08981EC
:100980008130A1F47E0182E0E80EF11C8A810E9490
:100990004112E7012196812F882351F3EFE9FFE00F
:1009A0003197F1F700C000008150F6CF823041F45A
:1009B0007E01E2E0EE0EF11C8A810E944311E9CF34
:1009C000833041F47E01F2E0EF0EF11C8A810E9437
:1009D000D411DFCF843011F02196DCCF2A8122960A
:1009E00080E090E0AE014F5F5F4F2053330B2A3021
:1009F000310550F0009771F2EFE9FFE03197F1F720
:100A000000C000000197F6CF089FB001099F700D4C
:100A10001124C901860F971F2981EA01E3CF0E94A3
:100A20004904B8CFDF91CF911F910F91FF90EF90C4
:100A3000089560E00C94AF0408950C941C0581E0C7
:100A40000895CF93C82F0E941F05882319F0C1FD78
:100A500003C08E9ACF9108958E98FCCF869A8E9A75
:100A60000895CF93C82F0E941D058C2FCF910C9411
:100A7000210590E080E008950895FC01EE0FFF1F2E
:100A8000E452FC4F859194910895CF93DF930E9497
:100A9000410D0E945906EC01811520E5920708F0EE
:100AA00043C0811530E4930708F0B2C0803E910541
:100AB000E8F4803C910508F0A0C0883A910578F4EC
:100AC000853A910508F08BC08130910521F004979B
:100AD000813A910540F4CE01DF91CF9108958F3B8B
:100AE000910509F07FC0D0E0C0E0F5CFC11580E2EC
:100AF000D80770F4CF3FD10509F068F7C83ED1059B
:100B000050F3CE018D5E9109D065439720F3EBCF72
:100B1000CE01C11520E3D20708F475C09927D3FD93
:100B200074C0EC01D06CD7CF811535E5930760F523
:100B3000C11584E5D80708F09EC0C11523E5D2078A
:100B400078F4C11532E5D30708F082C0C11581E5FC
:100B5000D80708F460C0DC2FCC27C16FD06ABBCFA8
:100B60009E012370332781E090E002C0880F991F17
:100B70002A95E2F7C695C69520E2C29FE0011124AE
:100B8000C82BD92BDA68A7CF81153AE59307B0F4C3
:100B9000C11589E5D80708F07EC0C11526E5D20742
:100BA00008F46EC0CE0198558F3F910511F008F002
:100BB0009ACFDC2FCC27C06FD06A8DCF905681158D
:100BC000904208F090CF8D2F8F710E94F10690E037
:100BD000982F882788279F718C2BEC015AC0A497E7
:100BE000D06479CFC85AD0E0CC0FDD1FC75EDE4F8E
:100BF0000990D881C02DD4646ECF805C91090E9489
:100C00003D05EC0168CF9F70FACFEC01D86C63CF43
:100C1000DF70D06A60CF9E0174E0369527957A9593
:100C2000E1F723708C2F86958695837030E2839F41
:100C3000C0011124922BC37021E030E002C0220FCA
:100C4000331FCA95E2F7822B932BEC01DC6843CF6C
:100C50009E012370332781E090E002C0880F991F26
:100C60002A95E2F7C695C69520E2C29FE0011124BD
:100C7000C82BD92BEBCFDC2FCC27C46FD06A2BCF5E
:100C80008C2F0E94F106C82FD0E0DC2FCC27CC2778
:100C9000DF71D06220CF8C2F8F700E94F10634E07C
:100CA000D695C7953A95E1F7CF709C2FEC01D069A6
:100CB00012CF803E910599F1C8F48133910509F472
:100CC00076C048F48932910509F46AC08A329105E8
:100CD00009F474C0089589339105D1F082389105E3
:100CE000B9F08533910509F454C00895843E910507
:100CF00099F138F4823E9105F9F0833E910509F1AE
:100D00000895863E910599F1873E9105B9F10895C0
:100D100020916D022370A1F080EE90E00895209163
:100D20006D0220FD52C030916E0230FF09C024FFD9
:100D30004FC090E080E004C020916D0222FDF7CF0B
:100D4000089520916D0222FD46C030916E0230FD63
:100D5000E3CF24FFF5CFEDCF20916E0221FFF0CF3E
:100D600080916D0284FDE5CF87EE90E0089520919B
:100D70006D0223FFE5CF24FDDCCFF6CF20916D027D
:100D800023FD2CC030916E0231FFE3CF84EE90E062
:100D9000089520916D0225FFD3CF89E290E0089558
:100DA00020916D0225FFCCCF85E390E0089520913E
:100DB0006D0226FFC5CF8AE290E0089520916D0272
:100DC00026FFBECF81E390E0089589E390E0089587
:100DD00083EE90E0089582EE90E0089586EE90E034
:100DE000089590916D0292FF06C0282F2871283037
:100DF000F9F4877F846093FF06C0282F287128317B
:100E0000F1F4877E846120916E0220FF06C0382FA6
:100E100038713830D9F4877F816021FF06C0282FD0
:100E200028712831D1F4877E816194FD877E0895F1
:100E3000282F24712430F9F68B7F8860DCCF282F8F
:100E40002471243101F78B7E8861DDCF382F317119
:100E5000313019F78E7F8860E0CF282F2171213142
:100E600021F78E7E8861E1CF08950C9434070895B0
:100E70000C943707E82FF0E0EE0FFF1FE15AFD4F0B
:100E8000808191810895089580EA8A95F1F7089507
:100E900000C008950C944407F894E82FE295EF7091
:100EA000F0E041A18F7021E030E0B90102C0660F8F
:100EB000771F8A95E2F7CB01962F9095942391A303
:100EC00092A1892B82A3789408950F931F93CF93B7
:100ED000DF9380EF0E944C0786EC0E944C0781E96B
:100EE0000E944C0780E30E944C0787E60E944C0753
:100EF000C7E4D1E007E511E089910E944C070C1787
:100F00001D07D1F78AE0E5E5F2E0DF01982F1D9299
:100F10009A95E9F7EFE5F2E0DF011D928A95E9F78E
:100F200085E00E941D08DF91CF911F910F910C94D5
:100F3000E903AF92BF92CF92DF92EF92FF920F93AD
:100F40001F93CF93DF9307E511E0C5E5D2E0C12CF5
:100F5000D12CEE24E394F12CF80181918F01F894C7
:100F6000E82FE295EF70F0E021A18F70A70102C099
:100F7000440F551F8A95E2F7CA01922F982B91A32F
:100F800092A18095892382A378940E944807E7E480
:100F9000F1E030E020E0B12CA12C4191A42FA295EA
:100FA000AF70A05EB0E08C9190E04F7002C095955C
:100FB00087954A95E2F780FD3BC0C701022E02C02B
:100FC000880F991F0A94E2F7A82AB92A2F5F3F4F8A
:100FD0002031310511F7F801319780810E944C07CB
:100FE00054E0C5120E944A0788819981A816B90663
:100FF00011F1B982A88281E0D82AC394229685E0B3
:10100000C812AACF2D2D45E06FE572E085E592E08C
:101010000E941E080E94F5038D2DDF91CF911F9134
:101020000F91FF90EF90DF90CF90BF90AF90089519
:1010300080E090E0C9CF80E0DFCF0895FF920F936A
:101040001F93CF93DF93F82E092F162FD72FC42F7E
:10105000222349F081E080939E010E947B1D9093A2
:101060009D0180939C0180919E018823A1F0809135
:101070009C0190919D010E94A71D069760F0EF2DA5
:10108000F02FA12FBD2F90E080E0D0E08C179D07BE
:1010900044F010929E01DF91CF911F910F91FF902C
:1010A0000895219131912D933D930196EFCF809139
:1010B000A50180FF12C06091050185E0689FB00125
:1010C0001124759567957595679560387105A8F534
:1010D00061157105A1F1862F089581FF09C0609106
:1010E000050185E0689FB001112475956795EDCFE6
:1010F0006091050182FD0AC02091A4012223D1F054
:101100009091040160910501291728F085E0689FFE
:10111000B0011124DACF269F9001112485E0829F2F
:10112000A001839F500D1124692F70E0CA010E9415
:10113000A825CBCF65E070E0CECF8FE7089581E0A2
:1011400008958091A50180FF0CC06091010170E0BD
:1011500075956795759567956115710549F1862FA8
:10116000089581FF06C06091010170E07595679553
:10117000F3CF6091010182FD0BC09091A3019923EF
:10118000A1F06091000180910101961738F0682F5D
:1011900070E06038710500F38FE70895899FC00102
:1011A000112470E00E94A825F4CF61E070E0D7CF51
:1011B00081E00895E3E1E80FE331E0F5F0E0EF5D71
:1011C000F94D0C94BC250E94570881958093A90184
:1011D00008950E945708FACF0E945708819580937E
:1011E000A80108950E945708FACF0E94A108809391
:1011F000AA0108950E94A1088195F9CF0E94A10833
:1012000081958093AB0108950E94A108FACF815F78
:10121000990B21E030E001C0220F8A95EAF7809116
:10122000A701822B8093A70108958091A501816079
:101230008093A50108958091A5018260F9CF8091E6
:10124000A5018460F5CF4091A8018D3E59F48091AD
:10125000A90187FF0DC01092A90141110BC0109286
:10126000A40108C08E3E81F48091A90118169CF358
:10127000442381F08091AA019091AB01892B09F060
:101280005AC01092A30108958F3E49F447FFF0CF52
:101290001092A8018091A9018111ECCFE0CF803F8D
:1012A00019F41416ACF3E4CF9091AA01893F29F404
:1012B0001916F4F61092AA01DBCF8A3F19F497FFB2
:1012C000D7CFF8CF9091AB018B3F29F497FFD0CFC8
:1012D0001092AB01CDCF8C3F19F41916CCF3C8CFC7
:1012E0009FE0980F983090F4815F990B21E030E0F7
:1012F000B90102C0660F771F8A95E2F7CB0180958E
:101300009091A70189238093A701B2CF8D3F31F43B
:101310008091A5018E7F8093A501AACF8E3F21F4F5
:101320008091A5018D7FF7CF8F3F09F0A1CF8091EC
:10133000A5018B7FF0CF08950E947B1D2091A8010D
:101340003091A901232B21F08093A1019093A20158
:101350002091AA013091AB01232B21F080939F01B2
:101360009093A00186EA91E00C94EE0FCF92DF9269
:10137000EF92FF920F931F93CF93DF9300D000D093
:1013800000D0CDB7DEB726E0E6EAF1E0CE01019667
:10139000DC0101900D922A95E1F7C090A801D09050
:1013A000A901E090AA01F090AB011092A80110925F
:1013B000A9011092AA011092AB012C2D2D298C01AC
:1013C00091F08091A1019091A2010E94A71D9C0122
:1013D0008091A401882309F440C0909106019217DE
:1013E000130608F448C08E2D8F2991F080919F013B
:1013F0009091A0010E94A71D9C018091A3018823C8
:1014000009F478C0909102019217130608F480C085
:101410008091A8019091A901892B9091AA01892B13
:101420009091AB01892B11F00E949C0986E0F80194
:10143000A6EAB1E001900D928A95E1F726960FB6E3
:10144000F894DEBF0FBECDBFDF91CF911F910F91FA
:10145000FF90EF90DF90CF900895409107019AE0C0
:10146000499FA00111244217530708F0BCCF8F5F9A
:101470008093A40102C08F3FD1F7CC2059F00E9485
:1014800057089FEF1C140CF491E0899F802D1124C4
:101490008093A801DD2059F00E9457089FEF1D148A
:1014A0000CF491E0899F802D11248093A901309143
:1014B000A801332309F497CF2091A901222309F42D
:1014C00092CF45EB3403C0011124992359F0909336
:1014D000A80145EB240390011124332339F0309304
:1014E000A90181CF81E08093A801F3CF81E08093AF
:1014F000A90179CF409103019AE0499FA0011124ED
:101500004217530708F084CF8F5F8093A30102C076
:101510008F3FD1F7EE2059F00E94A1089FEF1E14D3
:101520000CF491E0899F802D11248093AA01FF2063
:1015300059F00E94A1089FEF1F140CF491E0899FBD
:10154000802D11248093AB013091AA012091AB0131
:10155000332309F45DCF222309F45ACF45EB34033A
:10156000C0011124992359F09093AA0145EB24035B
:1015700090011124332339F03093AB0149CF81E03E
:101580008093AA01F3CF81E08093AB0141CF86E045
:10159000E6EAF1E0DF011D928A95E9F71092A401D5
:1015A0001092A3011092A501089582E290E00E949A
:1015B000DD25823289F483E290E00E94DD258430CB
:1015C00059F484E290E00E94DD2591E0813109F038
:1015D00090E0892F8170089580E0FCCFCF93C82FD1
:1015E0006FEF811162E282E290E00E94EB256FEFE3
:1015F000C11164E083E290E00E94EB256FEFC1111E
:1016000061E184E290E0CF910C94EB2580E00E94B0
:10161000EE0A0C94EF1B0895CF93DF9300D000D017
:10162000CDB7DEB785E290E00E94DD25282F30E0BF
:1016300050E040E0CA01B9010F900F900F900F9059
:10164000DF91CF91089585E290E00C94EB250E9404
:101650000B0B0E94D50A81110CC060E070E0CB0139
:101660000E94230B0E94C30C0E949A0D81E00C94EF
:10167000EE0A0895CF939C01FB01C281CC2301F1B6
:1016800082519F45409720F58EEE820F0E94AA0D51
:10169000C0E08C2FCF91089581E00E943A1943E079
:1016A00062E081E00E94C403F3CF81E00E946B19E5
:1016B00043E062E081E00E94C403EBCF82E0F6CF1A
:1016C00080319F4591F321313F45C1F3C1E0E1CF26
:1016D0002031EFE53E0701F382E021313F45E9F299
:1016E000D8CF2FEFFC0120830895EF92FF920F9344
:1016F0001F93CF93DF93CDB7DEB72E970FB6F89435
:10170000DEBF0FBECDBF8D839E83162FAD81BE8100
:10171000EC91E150E33108F094C0F0E0EC5CF94D5D
:101720000C94BC25ED81FE81118289E08283612FBA
:101730008D819E812E960FB6F894DEBF0FBECDBF71
:10174000DF91CF911F910F91FF90EF900C94DE1ECF
:10175000AD81BE8111968C91823099F0833011F168
:10176000813081F50E94871D0E94C2256F83788792
:1017700089879A87ED81FE81628373838483958351
:10178000D6CF0E940C0B0E94C2256B877C878D8769
:101790009E87AD81BE8112966D937D938D939C93B0
:1017A0001597C5CFED80FE8000E0802F0E943A079C
:1017B000F701928383830F5FF2E0EF0EF11C053097
:1017C000A1F7B5CF612F8D819E810E94710BAFCFA4
:1017D000AD81BE8111968C911197823099F7129646
:1017E0008D919D910D90BC91A02D89839A83AB839F
:1017F000BC83BC01CD010E94C2250E94230B97CF60
:10180000ED81FE814381628181810E94950C982740
:1018100089279827AD81BE8115969C938E93149746
:1018200086CFED81FE81248135813227232732271F
:101830004381628181810E94AE0C79CF0E94C30CEA
:1018400076CF8FEFAD81BE818C9371CF0E944E0D0C
:10185000ED81FE8181836BCF0E94500D98278927EF
:101860009827AD81BE8112969C938E9311975FCF7E
:10187000ED81FE81638170E081819281AF014C5FD7
:101880005F4F9827892798270E94530D50CFAD812D
:10189000BE8113966C91139770E011968D919C9177
:1018A0001297AD014C5F5F4F9827892798270E94B8
:1018B000770D3DCF0E949A0D3ACF0E94820CC8CF7F
:1018C000AD81BE8113966C91139770E011968D9146
:1018D0009C911297AD014C5F5F4F982789279827FD
:1018E0000E94FC0C24CFED81FE81638170E0818138
:1018F0009281AF014C5F5F4F9827892798270E94FC
:101900001F0D15CF84E0089590E2699FB001112466
:1019100050E0440F551F640F751F90EA899F600DBA
:10192000711D1124CB01869608950F931F93CF93B9
:10193000DF930E94840C8C010E94DD25C82FD0E02B
:10194000DC2FCC27C80101960E94DD259E01282BA3
:10195000C901DF91CF911F910F9108950F931F93AC
:10196000CF93DF93122F032F0E94840CEC01602F82
:101970000E94EB25612FCE010196DF91CF911F913F
:101980000F910C94EB25AF92BF92CF92DF92FF9212
:101990000F931F93CF93DF93B12CA12C00E065012F
:1019A00010E013C0FE01259134914F2D612F802F3F
:1019B0000E94AE0C2296F39480E1F812F3CF80E1FE
:1019C000C80ED11C1F5F153039F0E601CC0FDD1FAA
:1019D000C455DF4FF12CE6CF0F5F80E5A80EB11C98
:1019E0000430E9F6DF91CF911F910F91FF90DF90C6
:1019F000CF90BF90AF900895EF92FF920F931F93F7
:101A0000CF93DF938C01EA017A01E60EF71EC8013D
:101A10008696CE15DF0539F4DF91CF911F910F9196
:101A2000FF90EF900895003822E0120730F40E94F2
:101A3000DD2589930F5F1F4FEACF80E0FACFEF9249
:101A4000FF920F931F93CF93DF938C01EA017A01EA
:101A5000E60EF71EC8018696CE15DF0539F4DF9134
:101A6000CF911F910F91FF90EF900895003822E0E1
:101A7000120718F468810E94EB2521960F5F1F4F13
:101A8000E9CF462F672F843030F4753020F4403191
:101A900010F40C94950C90E080E0089580E1089596
:101AA0008AE591E00895EF92FF920F931F93CF93F1
:101AB000DF938C01EA017A01E60EF71EC8018A5510
:101AC0009D4FCE15DF0539F4DF91CF911F910F9116
:101AD000FF90EF9008950A3521E0120730F40E943C
:101AE000DD2589930F5F1F4FE9CF80E0FACFEF929A
:101AF000FF920F931F93CF93DF938C01EA017A013A
:101B0000E60EF71EC8018A559D4FCE15DF0539F444
:101B1000DF91CF911F910F91FF90EF9008950A35BB
:101B200021E0120718F468810E94EB2521960F5FCF
:101B30001F4FE8CFCF93DF93C6EAD2E060E0CE013B
:101B40000E94EB252196C11584E0D807B9F7DF91F3
:101B5000CF910895DF92EF92FF920F931F93CF934F
:101B6000DF9300D000D0CDB7DEB7F82E8FE08F1511
:101B700040F08FEF93E00E94DD2506EA12E0882313
:101B8000C1F00F900F900F900F90DF91CF911F91A8
:101B90000F91FF90EF90DF900895011584E01807F2
:101BA00081F3C8010E94DD25811101C0FA940F5F05
:101BB0001F4FF110F2CF8091150190911601A09165
:101BC0001701B091180189839A83AB83BC83DD240C
:101BD000D39478018FEFE81AF80AC8010E94DD2536
:101BE00089831A82882369F29FEF980F933080F4DB
:101BF0008A83D9820E5F1F4FC7010E94DD258B8328
:101C0000882309F4BECFCE0101960E941905E1CFC9
:101C10008701F9CF0F931F93CF93DF93C42FD22F58
:101C2000FC0182818823C9F04093AE010E947B1D94
:101C30009093AD018093AC0180E28C0F883008F066
:101C400050C0C77081E001C0880FCA95EAF7DF91E4
:101C5000CF911F910F910C9449121091AE01141362
:101C600035C08091AC019091AD010E94A71D883CC8
:101C7000910560F5C0E2CD0F1D17B9F080E2810F2C
:101C8000883040F4177081E001C0880F1A95EAF798
:101C90000E945012C83048F481E09D2F977001C017
:101CA000880F9A95EAF70E944912802F0E944112EC
:101CB000C830B8F4D77081E001C0880FDA95EAF730
:101CC000DF91CF911F910F910C94501280E28C0FF5
:101CD000883038F4C77081E001C0880FCA95EAF7F0
:101CE000EFCFDF91CF911F910F9108950F939C013A
:101CF000CB01243F4CE53407A1F190F4293DFCE5EC
:101D00003F0749F12A3D4CE53407E9F1283D3C45C0
:101D1000C1F0FC0182818823E1F11092AE0119C06B
:101D2000263FFCE53F0719F1273F4CE5340729F131
:101D3000253F3C4571F707E225EE44EE65EF7CE573
:101D400005C006E221EE41EE68ED7CE50E940A0E38
:101D500080E00F91089507E225EE45EE69ED7CE500
:101D6000F5CF06E221EE40EE64EF7CE5EFCF06E230
:101D700021EE42EE66EF7CE5E9CF07E225EE46EE86
:101D800067EF7CE5E3CF08E221E045EE6AED7CE514
:101D9000DDCF81E0DECFCF93DF93EC01FB018281C9
:101DA000882309F4CEC0C631FCE5DF07E0F4C23079
:101DB0009CE5D907F0F00E94081C90936E02809376
:101DC0006D02C631ECE5DE0720F5C230FCE5DF0729
:101DD00098F480916D0290916E020E94161C0E94F0
:101DE000021580E006C09E012B5F3C45293031057D
:101DF00010F3DF91CF910895FE01E350FC458091EF
:101E00006D028160E331F105B0F4E95BF94D0C94AA
:101E1000BC25CE018B5F9C450997D8F6FE01EC5F8F
:101E2000FC45E830F10590F4E65AF94D0C94BC25D8
:101E300080916D02826080936D02CBCF80916D02A4
:101E40008460F9CF80916D028860F5CF80916E0239
:101E5000816080936E02BDCF80916E028260F9CF67
:101E600080916D028061E7CF80916D028062E3CF47
:101E700080916D028064DFCF0E94021580916D0217
:101E80008068D9CF80916D028C60D5CF80916E0231
:101E90008360DFCF80916D028E7FCDCF80916D0208
:101EA0008D7FC9CF80916D028B7FC5CF80916D02F0
:101EB000877FC1CF80916E028E7FCBCF80916E02E3
:101EC0008D7FC7CF80916D028F7EB5CF80916D02DF
:101ED0008F7DB1CF80916D028F7BADCF0E940215B7
:101EE00080916D028F77A7CF80916D02837FA3CF02
:101EF00080916E028C7FADCF80916D0282FB99271D
:101F000090F921E0922790FB82F990FB83F993CF1F
:101F100080916E02982F909591708E7F892B90FB07
:101F200081F997CF0E94021590916D02892F97FB3E
:101F300087F9805880CF81E00E949B1C4ACF80E0C7
:101F4000FBCF81E056CFCF93DF93EB0186319C45E9
:101F500039F50E943B1B982F91718A7A911180E08C
:101F60009A81992399F091E0811101C090E09093BA
:101F7000AF01811109C089E20E94161B0E948A1BD1
:101F800080E0DF91CF91089585E3F6CF8091AF0196
:101F9000811104C089E20E941D1BF0CF85E3FBCFB5
:101FA00081E0EFCF9093B5018093B4010895E09163
:101FB000B401F091B501309721F00190F081E02D4E
:101FC000099480E00895E091B401F091B501309753
:101FD00021F00280F381E02D09940895DC01E09165
:101FE000B401F091B501309739F082E08C93048010
:101FF000F581E02DCD01099408952091B201309131
:10200000B3012817390771F09093B3018093B2019F
:10201000E091B401F091B501309721F00680F7818D
:10202000E02D099408952091B0013091B101281755
:10203000390771F09093B1018093B001E091B40140
:10204000F091B501309721F00084F185E02D0994DD
:1020500008950E94871D6093C5017093C601809307
:10206000C7019093C8016093C1017093C20180932E
:10207000C3019093C401089585B7806885BF85B773
:10208000806885BF0895089508950C9444100E94B7
:102090003C108DEE9BE10E94FE1D0E9443100C94AB
:1020A000FC0281E008950C945110089508950E9457
:1020B000721D0E9465070E94270B0E941C1E0C9433
:1020C00045108F929F92AF92BF92CF92DF92EF9284
:1020D000FF920F931F93CF93DF9300D000D00F9206
:1020E000CDB7DEB70E9455100E9456100E94990786
:1020F00081110E94291057EB852E51E0952E10E09A
:1021000000E0A02E802F0E943A077C01F401C190CC
:10211000D1904F01C816D90609F45BC080914902DD
:1021200081FD0E944307C6018E259F25B12CCC243A
:10213000C394D12C9C012C213D21232B09F443C0B5
:102140000E9453108823A9F0B982AA82EC20FD20B6
:1021500081E0EF2809F480E08B830E947B1D816081
:10216000782F9D838C8349815A816B81892F0E94AE
:102170001211000F111FF801E954FE4F8081918167
:102180008C259D25918380830E94B6090E94D70FDC
:102190009091B6018917A1F10E94D70F8093B601E3
:1021A0000F900F900F900F900F90DF91CF911F9194
:1021B0000F91FF90EF90DF90CF90BF90AF909F90E6
:1021C0008F900C943105B394CC0CDD1CF0E1BF1260
:1021D000B1CF0F5F1F4F0530110509F092CF8FEF80
:1021E00089838A831B820E947B1D8160782F9D8357
:1021F0008C8349815A816B81892F0E941211C4CF2F
:102200000F900F900F900F900F90DF91CF911F9133
:102210000F91FF90EF90DF90CF90BF90AF909F9085
:102220008F900895CF93DF93CDB7DEB72B970FB67E
:10223000F894DEBF0FBECDBF4F83588769877A877A
:102240008B8761110E945D1B1E8285E0FE0137961F
:10225000DE01119601900D928A95E1F749815A812C
:102260006B817C818D819E812B960FB6F894DEBFA9
:102270000FBECDBFDF91CF910C946017FC01808120
:1022800091810C94E01ACF93C82F882309F48AC057
:102290008238C1F40E94D70F81FD84C089E30E9477
:1022A000161B0E948A1B2FEF31EE84E02150304034
:1022B0008040E1F700C0000089E30E941D1BCF9120
:1022C0000C948A1B8338A1F40E94D70F80FD6AC04A
:1022D00083E50E94161B0E948A1B9FEF21EE34E0CB
:1022E000915020403040E1F700C0000083E5E5CF89
:1022F0008438A1F40E94D70F82FD54C087E40E9465
:10230000161B0E948A1B8FEF91EE24E081509040B3
:102310002040E1F700C0000087E4CFCF8CEF8C0FA6
:10232000813A90F46C2F80910801909109010E94EC
:10233000B21C882329F08C2F0E941D1B0E948A1B2F
:102340008C2F0E94161BBBCF80E28C0F883048F484
:10235000C77081E001C0880FCA95EAF70E943E1B52
:10236000AECF8BE58C0F833038F42C2F2452330BF7
:10237000C901CF910C94FD0FE8E5EC0FE73150F463
:10238000F0E0EE0FFF1FE45AFE4F80819181CF9164
:102390000C941310CD3E30F08C2F0E94DA08CF91B0
:1023A0000C949C09CF910895882309F452C0823877
:1023B00071F40E94D70F81FF4CC089E30E94161B65
:1023C0000E948A1B89E30E941D1B0C948A1B833880
:1023D00059F40E94D70F80FF3CC083E50E94161B72
:1023E0000E948A1B83E5EFCF843859F40E94D70FEF
:1023F00082FF2FC087E40E94161B0E948A1B87E47D
:10240000E2CF9CEF980F913AF0F290E2980F98305B
:1024100050F4877091E001C0990F8A95EAF7892FEF
:102420000E94441BD2CF9BE5980F933020F490E09C
:1024300080E00C94FD0F98E5980F973120F490E020
:1024400080E00C9413108D3E20F00E9423090C9420
:102450009C0908951F93CF93DF93182FEB010E94DF
:102460004311209731F4812FDF91CF911F910C946C
:10247000D4118FE99FE00197F1F700C00000219788
:10248000F0CF70E060E0893311F460E570E00C9407
:102490002A12882321F00E943E1B0C948A1B089567
:1024A000882321F00E94441B0C948A1B0895AF924C
:1024B000BF92CF92DF92EF92FF920F931F93CF9331
:1024C000DF9300D000D00F92CDB7DEB76C016D83E3
:1024D0007983FC011281058102950F700E94341BE3
:1024E000E82E8823A1F0E12E112389F08981807FD5
:1024F000803429F08D81805EE12C883040F082E0CC
:102500000E94D51B0E94341B91E0E82EE926A98089
:10251000A2949FE0A922B12CF501EE59F94D0C943B
:10252000BC2509810F70F981F07F11F00295007FC1
:102530001123B1F0002361F08D81805E883018F0A6
:102540001D81111109C0802F0E943E1B0E948A1B11
:102550008D810E94431115C0802F0E944F1BF6CF22
:102560008D810E94D411002361F08D81805E8830BE
:1025700018F01D81111133C0802F0E94441B0E944E
:102580008A1B98E0A91AB108E4E0AE16B10420F461
:102590000E94D70F0E943105EE2009F4CEC10E949F
:1025A000301B80FDCAC1F60112820E942A1B0E94C4
:1025B0003A19C6010E94C4140E942A1B0F900F9062
:1025C0000F900F900F90DF91CF911F910F91FF907F
:1025D000EF90DF90CF90BF90AF900C946B19802F4D
:1025E0000E94551BCCCF29812F70F22E3981307F6C
:1025F000303219F0F29480EFF8228D81882369F04F
:10260000813049F1112391F1002351F1F6018581C7
:1026100080FF9ECF8F70858323C0112381F001112D
:1026200006C00E94711B8F290E944912AACF013057
:10263000C1F70E94711B8F290E94771BA2CF011145
:1026400006C00E94801B8F2D0E9450129ACF01302D
:1026500009F497CFF6CF112329F0063008F091CF77
:102660008F2DE2CF053008F08CCFEDCF002359F34A
:102670000D81093349F41FEF27EE33E0115020405C
:102680003040E1F700C000008D810E94D41179CF65
:10269000898186958695837069F0813009F071CFC4
:1026A0008D8199819370111102C090E080E00E94A9
:1026B000131067CF8D8199819370111102C090E042
:1026C00080E00E94FD0F5DCF8D81112329F00E94D3
:1026D000DA080E949C0955CF0E942309FACF89810C
:1026E000837009F050C011114CCF2D812295269591
:1026F0002770220F220F4D814F7050E070E060E094
:10270000022E04C0440F551F661F771F0A94D2F78C
:102710000D8180E090E0DC0104FF0FC08FE090E0CD
:10272000A0E0B0E004C0880F991FAA1FBB1F2A9524
:10273000D2F780959095A095B0951981169516952C
:1027400013701D838C019D01042B152B262B372B19
:1027500009831A832B833C831D8169817A818B8154
:102760009C81123051F0133059F0113019F00E9451
:10277000B21807CF0E948A1804CF0E94DA1801CF3E
:102780000E948818FECE112309F448C0098100FF79
:10279000F8CE2D81229526952770220F220F4D818C
:1027A0004F7050E070E060E0022E04C0440F551FEF
:1027B000661F771F0A94D2F70D8180E090E0DC015C
:1027C00004FF0FC08FE090E0A0E0B0E004C0880FED
:1027D000991FAA1FBB1F2A95D2F780959095A095A7
:1027E000B09519811695169513701D838C019D0166
:1027F000042B152B262B372B09831A832B833C8321
:102800001D8169817A818B819C81123071F0133036
:1028100079F0113039F00E94F919B3CE198111FF06
:10282000B0CEB7CF0E94D119ACCE0E94211AA9CE4A
:102830000E940419A6CE09810F700983112329F083
:10284000802F0E943A198D81EFCE8D810E94501207
:1028500089810E946B1995CE2D81223FA1F160F4F0
:10286000203FE1F0213F41F1112309F445C001115E
:102870006FCE89818F7124C03D81333F49F1343F50
:1028800099F7112379F109810F710983802F0E9433
:102890003A1963E089810E94C01B73CE112341F075
:1028A000053008F06ECE89818F710E94A01969CE23
:1028B000063008F066CEF7CF89818F71112349F277
:1028C0000E943A195ECE89818F711123C9F3C1CF5D
:1028D000112329F089818F710E94151952CE0E940F
:1028E00010194FCE81E00E94D51B023008F449CE6A
:1028F00082E00E94D51B45CE002361F01D81193373
:1029000009F0C2CE2FEF37EE83E0215030408040F7
:10291000E1F7B8CE89818F719CCF49814F706D816D
:10292000C6010E9439050E94FA172BCE49814F70CB
:102930006D81C6010E943C0524CE0F900F900F9030
:102940000F900F90DF91CF911F910F91FF90EF901B
:10295000DF90CF90BF90AF9008950F931F93CF93C8
:10296000DF93EC01688179818A810E94EC1A8C01E5
:102970000E94491A0E948718B801CE01DF91CF91B9
:102980001F910F910C945712CF93DF93EC01988114
:1029900089812B813C81232B19F089238F3F59F4A6
:1029A000DF91CF910895CE010E94AD14CE01DF9149
:1029B000CF910C944903CE010E9407048111F3CFFB
:1029C0000E94341B882361F38A81882349F382E0C3
:1029D000DF91CF910C94D51B90E080E00E94FD0F19
:1029E00090E080E00E9413100E945D1B0E946E1B0D
:1029F0000E948A1B0E94C70A0C949C090E94241BF7
:102A00000C94EC140E944C1B0C94FE14282F892F5C
:102A100082958F70903C80F48A30B0F4843020F43A
:102A2000823090F480E008958630E1F781E0283E1E
:102A300088F0213FB9F70EC08C3011F08F3091F73C
:102A400093FB882780F9089581E0203F39F018F43E
:102A5000283E40F70895243F29F7FCCF08950E94AF
:102A6000E01A0C940615CF93DF9300D000D00F929C
:102A7000CDB7DEB70F900F900F900F900F90DF91B2
:102A8000CF910895CF93DF9300D000D000D0CDB781
:102A9000DEB726960FB6F894DEBF0FBECDBFDF912E
:102AA000CF9108951F93CF93DF93E091CA0116E071
:102AB0008091CB018E1304C0DF91CF911F910895B7
:102AC000CE2FD0E01E9FF0011124E453FE4F408131
:102AD000518162817381848195810E944215219682
:102AE000EC2FE770E5CF4091FC015091FD01609122
:102AF000FE017091FF0180910002909101020C94FF
:102B000042151F93CF93DF9380910102807FA9F438
:102B10008091FE01882389F08091CA01C091CB0188
:102B20007091FC016091FD01A091FF01B091000244
:102B3000D62FD72316E0C81304C0DF91CF911F9181
:102B4000089590E0109711F0DF3F19F40196877017
:102B5000F2CF189F9001199F300D1124F901E45311
:102B6000FE4F41816413F2CF40814713EFCF428182
:102B70004111ECCF438154814A1B5B0B483C51050A
:102B800028F7809101028F70806180930102F90122
:102B9000EF52FE4F80818F70806180838CEF91E0D7
:102BA0000E94C414DF91CF911F910C945215AF92E3
:102BB000BF92CF92DF92EF92FF920F931F93CF932A
:102BC000DF93CDB7DEB72B970FB6F894DEBF0FBEFD
:102BD000CDBF8C0185E0F801DE01179601900D92C2
:102BE0008A95E1F7F801E28030812181C380D480A9
:102BF0008CEFA82E81E0B82E9091FC014091FD0150
:102C00006091FF01709100026115710529F0892F13
:102C100084238F3F09F041C1EE2009F44DC18F811B
:102C200098850E942F15F82E882309F445C186E067
:102C3000F801ACEFB1E001900D928A95E1F78CEFCD
:102C400091E00E943E110E94811524C180910102F1
:102C5000582F507F683C710508F07AC05111B5C0FB
:102C6000FE2C241324C0931322C0E11020C08F70C7
:102C70008061809301020E9473158CEF91E00E94A5
:102C8000C41480910102F80185838F2D2B960FB615
:102C9000F894DEBF0FBECDBFDF91CF911F910F9192
:102CA000FF90EF90DF90CF90BF90AF900895CD2828
:102CB00029F0822F83238F3F09F084C080E0F82F12
:102CC000F170DF2EE091CA014091CB0156E080FD0A
:102CD0001CC0EE20D1F2809101028160809301023C
:102CE000F12CD3CF8E2F90E05E9FF0011124E4539E
:102CF000FE4F6181261306C06081361303C06281D6
:102D00006E11E7CF0196E82FE770E413EBCF8F81C8
:102D100098850E94E01A292F22952F70903260F03A
:102D2000225F2F70223078F49F7051F0F801958166
:102D3000907F31F4D12C0AC09F7011F08823D1F319
:102D4000805E8830B8F3C8010E94C414FD2C9DCF6A
:102D500051116EC04F81588569857A858B850E9497
:102D600033158CEF91E00E94C41486E0F5011192B6
:102D70008A95E9F70E947315B3CF86E0F801ACEFAE
:102D8000B1E001900D928A95E1F77FCF8F81988510
:102D90000E942F1581113DC08091010281608093B6
:102DA0000102C8010E94C41470CF4F815885698503
:102DB0007A858B850E94331586E0F50111928A95FC
:102DC000E9F768C081E08E257ACF241306C09313FB
:102DD00004C0F801EE2009F451C08F8198850E944B
:102DE0002F15882309F468C0EE2009F465C080918E
:102DF0000102803270F02091FC013091FD013A8394
:102E000029831B82DD82CC828E83CE0101960E94B3
:102E1000C41486E0F801ACEFB1E001900D928A9500
:102E2000E1F70E9481150E947315FF24F3942DCFC2
:102E30002413D3CF9313D1CFE110CFCFF8018583E3
:102E4000C8010E94C41486E0F50111928A95E9F741
:102E50001CCF24139BCF931399CF8091010280FD47
:102E60008CCF982F907F09F488CFF8018583903F0D
:102E700031F0982F907F905F8F70892B8583C801E8
:102E80000E94C41486E0F801ACEFB1E001900D920D
:102E90008A95E1F70E947315F8CEF090FE01F601D5
:102EA000E61BF70BBF01F110D1CE683C710508F0AD
:102EB0007CCFFE2CE110CDCFC8010E94C414B5CF49
:102EC0001F93CF93DF93CDB7DEB72C970FB6F8944F
:102ED000DEBF0FBECDBF4F83588769877A878B8748
:102EE0009C87CE0107960E94D715882369F08A85B2
:102EF0009B85892B39F058854F81852F84238F3FFF
:102F000009F071C016E05FC086E0FE013796DE0171
:102F1000119601900D928A95E1F78F819885209105
:102F2000CB014091CA016A857B85672B59F38923C0
:102F30008F3F41F330E0C901019687709927481708
:102F4000190671F40E9402151092CB011092CA0169
:102F500086E0ECEFF1E0DF011D928A95E9F7D2CF30
:102F600096E0929FD001939FB00D1124A453BE4FC1
:102F7000FE01319601900D929A95E1F78093CB0175
:102F80000E945215BFCF819FC001112484539E4FD0
:102F90000E94D7158823E9F0E091CA011E9FF00135
:102FA0001124E453FE4F40815181628173818481F9
:102FB00095810E9442158091CA0190E00196877028
:102FC00099278093CA018091CA019091CB018913FE
:102FD000DACF2C960FB6F894DEBF0FBECDBFDF91CF
:102FE000CF911F91089569857A858B859C850E9474
:102FF000421588CFEF92FF920F931F93CF93DF93E9
:103000008C01892B89F0F12CEE24E394E8012196C0
:10301000F8018491843709F458C0A0F4823009F48F
:103020003FC048F48130D1F0DF91CF911F910F91D3
:10303000FF90EF9008959CEF980F9037A8F70E94AB
:1030400043110AC0853709F44EC09CE7980F9037AA
:1030500058F78F770E94D4118E0116C00E5F1F4F54
:10306000FE01849190E2980F983060F48770FE2DF5
:1030700001C0FF0F8A95EAF78F2F0E94601B0E9404
:103080008A1B02C00E9443118F2D882309F4BECFF2
:10309000EFE9FFE03197F1F700C000008150F5CF74
:1030A0000E5F1F4FFE01849190E2980F983050F40C
:1030B0008770FE2D01C0FF0F8A95EAF78F2F0E94BF
:1030C000661BDDCF0E94D411DFCF0E5F1F4FFE01C4
:1030D000C491CC23C9F28FE99FE00197F1F700C0BA
:1030E0000000C150F6CF0E5F1F4FFE01F490CCCF11
:1030F00008950C9478180E947918609338027093A0
:10310000390280933A0290933B020C94EC14089598
:103110000C947B18CF93DF9300D000D0CDB7DEB7EF
:1031200069837A838B839C838091380290913902E2
:10313000A0913A02B0913B0229813A814B815C8196
:10314000282B392B4A2B5B2B29833A834B835C83B7
:10315000CA01B9010F900F900F900F90DF91CF919E
:103160000C947B18CF93DF9300D000D0CDB7DEB79F
:1031700069837A838B839C83809138029091390292
:10318000A0913A02B0913B0229813A814B815C8146
:10319000282339234A235B2329833A834B835C8387
:1031A000CA01B9010F900F900F900F90DF91CF914E
:1031B0000C947B18CF93DF9300D000D0CDB7DEB74F
:1031C00069837A838B839C83809138029091390242
:1031D000A0913A02B0913B0229813A814B815C81F6
:1031E000282739274A275B2729833A834B835C8327
:1031F000CA01B9010F900F900F900F90DF91CF91FE
:103200000C947B180C94FE020E9402196093340205
:103210007093350280933602909337020C94EC142D
:1032200060E070E0CB010C9404190F931F93CF93CF
:10323000DF9300D000D0CDB7DEB741E050E060E0D2
:1032400070E08A019B0104C0000F111F221F331F71
:103250008A95D2F709831A832B833C83C901B8016D
:103260000F900F900F900F90DF91CF911F910F91C2
:103270000C9404190F931F93CF93DF9300D000D0C9
:10328000CDB7DEB741E050E060E070E004C0440F2D
:10329000551F661F771F8A95D2F78091340290914F
:1032A0003502A0913602B09137028A019B01082BAA
:1032B000192B2A2B3B2B09831A832B833C83C901AF
:1032C000B8010F900F900F900F90DF91CF911F9149
:1032D0000F910C9404190F931F93CF93DF9300D099
:1032E00000D0CDB7DEB741E050E060E070E004C050
:1032F000440F551F661F771F8A95D2F7409550954A
:10330000609570958091340290913502A0913602BB
:10331000B09137028A019B01082319232A233B23FA
:1033200009831A832B833C83C901B8010F900F9046
:103330000F900F90DF91CF911F910F910C94041972
:103340000F931F93CF93DF9300D000D0CDB7DEB79C
:1033500041E050E060E070E004C0440F551F661F7C
:10336000771F8A95D2F78091340290913502A0910F
:103370003602B09137028A019B01082719272A27B4
:103380003B2709831A832B833C83C901B8010F9023
:103390000F900F900F90DF91CF911F910F910C9490
:1033A0000419CF93DF9300D000D0CDB7DEB7698387
:1033B0007A838B839C838091340290913502A09113
:1033C0003602B091370229813A814B815C81282BEA
:1033D000392B4A2B5B2B29833A834B835C83CA01AD
:1033E000B9010F900F900F900F90DF91CF910C9437
:1033F0000419CF93DF9300D000D0CDB7DEB7698337
:103400007A838B839C838091340290913502A091C2
:103410003602B091370229813A814B815C812823A1
:1034200039234A235B2329833A834B835C83CA0174
:10343000B9010F900F900F900F90DF91CF910C94E6
:103440000419CF93DF9300D000D0CDB7DEB76983E6
:103450007A838B839C838091340290913502A09172
:103460003602B091370229813A814B815C8128274D
:1034700039274A275B2729833A834B835C83CA0118
:10348000B9010F900F900F900F90DF91CF910C9496
:10349000041908959295907FE92FE80F877041E015
:1034A00001C0440F8A95EAF7E695E695E69585E032
:1034B000E89FF0011124EE5FFD4F30E020E070E066
:1034C0005191DF011197CB01022E02C0969587958D
:1034D0000A94E2F7817081958527842385278C9350
:1034E0002F5F3F4F2530310559F70895E92FE295B9
:1034F000E07FE80F982F9770E695E695E69585E0D2
:10350000E89FF0011124EE5FFD4F50E040E080E0C5
:10351000219130E0092E02C0369527950A94E2F7F2
:1035200021703327042E01C0220F0A94EAF7822B60
:103530004F5F5F4F4530510559F70895BF92CF92C5
:10354000DF92EF92FF920F931F93CF93DF938C0143
:10355000C0903402D0903502E0903602F0903702ED
:103560008091380290913902A0913A02B0913B02C9
:10357000C82AD92AEA2AFB2ACFE1D0E0BC2ED701FB
:10358000C6010C2E04C0B695A795979587950A9409
:10359000D2F780FD0EC0219788F7B12C8B2DDF91DB
:1035A000CF911F910F91FF90EF90DF90CF90BF9040
:1035B0000895B8018C2F0E944505019761F3EECF65
:1035C000CF93DF93D82FC92F0E949E1A6D2F7C2F87
:1035D000DF91CF910C9445051F93CF93DF93162F66
:1035E000D72F9091C901992339F0862F972FDF911A
:1035F000CF911F910C94E01A882391F0862F972F7A
:103600000E949E1AC82F682F812F9D2F0E944A1A50
:10361000612F7D2F8C2FDF91CF911F910C94450549
:10362000862F972F0E94761AC82FF2CF682F80918D
:103630000801909109010C94EC1C682F80910801FD
:10364000909109010C94EE1C809108019091090160
:103650000C94F01C80913C02859585958595089584
:1036600080913C028770089590913C02977081E0B0
:1036700009F480E0089580914802089590914802ED
:10368000982B909348020895982F90958091480226
:1036900089238093480208951092480208959091DA
:1036A0004702982B909347020895982F9095809108
:1036B0004702892380934702089510924702089594
:1036C00090914602982B909346020895982F9095DA
:1036D0008091460289238093460208951092460203
:1036E000089580913D02089508950C94741B909163
:1036F0003D02981721F080933D020C94751B0895AC
:1037000080913D02882329F010923D0280E00C94C4
:10371000751B0895E0910801F0910901809148021C
:103720008083E0910801F091090180819091470226
:10373000892B8083E0910801F091090180819091AB
:103740004602892B808390913D02992381F0E0917C
:103750000801F09109018081892B80838091080103
:10376000909109010E94A01C81110E94801B8091F0
:103770000801909109010C94E30F08950C94BD1B6E
:1037800098E0899F90011124622B60933C020E9473
:103790003A1980913C028595859585950C94BE1BC0
:1037A00010923C0280E00C94BE1B90913C028095EC
:1037B000892380933C02282F277071F4282F082E2C
:1037C000000C330B9217130639F085958595859576
:1037D0000E946B190C94D01B089580E008956FEF40
:1037E0007FEF90E080E00C94092690E080E00E945A
:1037F000E5259C0181E02B3E3E4F09F080E00895D5
:1038000082E090E00C94DD2583E090E00C94DD25CF
:10381000CF9384E090E00E94DD25C82F81E290E004
:103820000E94DD25982F8C2FCF910895CF93682F7C
:10383000C92F84E090E00E94EB256C2F81E290E09C
:10384000CF910C94EB25AB01BC018FE090E00C9480
:10385000FD25AB01BC0183E190E00C94FD2560E007
:1038600070E0CB010C94291C60E070E0CB010E9459
:10387000231C0C942F1C6BEE7EEF90E080E00E94E6
:10388000092660E082E090E00E94EB2560E083E0A2
:1038900090E00E94EB2510923802109239021092AB
:1038A0003A0210923B0260E084E090E00E94EB2537
:1038B00060E081E290E00E94EB2560E085E090E02E
:1038C0000E94EB2560E086E090E00E94EB256FEF20
:1038D00087E090E00E94EB2540E050E0BA0188E0EC
:1038E00090E00E94FD2560E08DE090E00E94EB25D5
:1038F00040E050E0BA0188E190E00E94FD2560E0E0
:1039000087E190E00E94EB2540E050E0BA018CE1B5
:1039100090E00E94FD2560E080E290E00E94EB25AF
:1039200040E050E0BA0188E190E00E94FD250C944F
:10393000341C0C943B1C682F8EE090E00C94EB251B
:10394000AC019C012E5F3F4F485F5F4F80E0241722
:10395000350709F40895F90191919F019923B9F36D
:103960008F5FF5CF9C01662351F0FC013296285FF2
:103970003F4F8191861729F0E217F307D1F780E0D6
:10398000089581E008959C01FC0132968FEF90E04C
:103990004191461751F08F3F19F4411101C0892F11
:1039A0009F5F9630A9F78F3F09F40895280F311DC6
:1039B00087FD3A95F901628308959C01FC013296D6
:1039C000285F3F4F8191861303C0DF0111971C923E
:1039D000E217F307B9F708950C94C31C0C94DD1C8F
:1039E000FC01329686E0DF011D928A95E9F7089581
:1039F000089508950C94F91C80917302843049F164
:103A00000E94FA1C80E00E94310510924A0288E16F
:103A100090E020E40FB6F894A895809360000FBE64
:103A20002093600083B7817F846083BF83B7816008
:103A300083BF7894889583B78E7F83BF0FB6F89441
:103A4000A89580916000886180936000109260006A
:103A50000FBE08950895CF930E94F81C0E94990705
:103A60000E942A1DC0E08C2F0E943A07892B31F456
:103A7000CF5FC530C1F780E0CF91089581E0FCCFE2
:103A800008950C94401D0E9402150E94D70F0E94B9
:103A900031050C94411D1F921FB61F9211248F9364
:103AA0009F93AF93BF9380914A02811113C080917D
:103AB000690290916A02A0916B02B0916C024196EA
:103AC000A11DB11D8093690290936A02A0936B02BD
:103AD000B0936C02BF91AF919F918F911F901FBEC9
:103AE0001F90189582E084BD93E095BD9AEF97BD35
:103AF00080936E0008952FB7F89480916902909199
:103B00006A02A0916B02B0916C022FBF0895CF930F
:103B1000DF9300D000D0CDB7DEB78FB7F8942091F7
:103B2000690230916A0240916B0250916C022983C4
:103B30003A834B835C838FBF69817A818B819C81BF
:103B40000F900F900F900F90DF91CF9108959C01EF
:103B50004FB7F8948091690290916A02A0916B022C
:103B6000B0916C024FBF821B930B089578941F9203
:103B70001FB61F9211248F939F93AF93BF93809191
:103B8000690290916A02A0916B02B0916C02019659
:103B9000A11DB11D8093690290936A02A0936B02EC
:103BA000B0936C02BF91AF919F918F911F901FBEF8
:103BB0001F90189581E08093E00080E28093D80008
:103BC0001092C9008FE19EE40197F1F700C0000058
:103BD00087E090EBDC0180937C0290937D02A093C0
:103BE0007E02B0937F0288E19CE00FB6F894A8951E
:103BF000809360000FBE90936000FFCF90939B0175
:103C000080939A0108950C94060B0E9499072FEF58
:103C100086E791E0215080409040E1F700C000002D
:103C20000E94990780E00E943A0780FF04C00E942A
:103C3000031E0C94DA1D0895CF93DF9300D000D0BB
:103C4000CDB7DEB70E94F51B811102C00E94991CFE
:103C50000E94001C809349020E94081C90936E02EF
:103C600080936D020E94041C282F30E050E040E059
:103C7000CA01B9010E9488188091340290913502DE
:103C8000A0913602B091370289839A83AB83BC83BB
:103C9000BC01CD010F900F900F900F90DF91CF914D
:103CA0000C940219809153020895CF93DF9300D0B2
:103CB0000F92CDB7DEB790917302943011F58983DE
:103CC0006A837B839093E9008FEF9091E8008150A5
:103CD00095FD06C095ED9A95F1F700008111F5CF9D
:103CE0008091E80085FF0DC050E040E063E070E0A7
:103CF000CE0101960E94CE208091E8008E778093BD
:103D0000E8000F900F900F90DF91CF910895BC01C4
:103D100084E00C94551EBC0183E00C94551E24E0F5
:103D20002093E9002FEF3091E800215035FD06C0C7
:103D300035ED3A95F1F700002111F5CF2091E8001B
:103D400025FF0BC050E040E066E070E00E94CE200E
:103D50008091E8008E778093E8000895CF93DF93F9
:103D6000D82FC92F81E08093E9008FEF9091E80070
:103D7000815095FD06C095ED9A95F1F700008111EF
:103D8000F5CF8091E80085FF16C050E040E068E084
:103D900070E08D2F9C2F0E94CE208091E8008E77BE
:103DA0008093E80088E0ED2FFC2FABE4B2E00190B7
:103DB0000D928A95E1F7DF91CF910895CF9360320C
:103DC00011F5209173022430F1F42091E900C091A3
:103DD000EC00C795CC27C7952F70C22B22E020930B
:103DE000E9002091E80020FF0BC050E040E060E2D5
:103DF00070E00E94CE208091E8008E778093E800EA
:103E0000CF70C093E900CF91089580917202811123
:103E100009C00E94A5220E9402238091E2008460D2
:103E20008093E20008951092720208950895089513
:103E3000089542E061EC81E00E94212242E261ECBF
:103E400084E00E94212242E261EC82E00E94212271
:103E500042E260EC83E00C9421228091750289306B
:103E600089F148F4823009F49EC0833009F459C0C6
:103E7000813041F008958A3009F485C08B3009F40F
:103E80006BC0089580917402813A09F049C0809115
:103E9000E800877F8093E800809178029091790212
:103EA000892B61F468E08BE492E070E00E946C2161
:103EB0008091E8008B778093E800089560E090E0BF
:103EC00080E0F3CF80917402813251F580917802C5
:103ED000909179028D7F892B19F58091E800877F79
:103EE0008093E8008091E80082FF16C09091F30073
:103EF0008091F200029729F48091F1008B7F81304C
:103F000021F48091F100809353028091E8008B7737
:103F10008093E8000C945522809173028111E2CFC6
:103F2000089580917402813AD9F780917802909136
:103F30007902892BA9F78091E800877F8093E800B8
:103F40008091E80080FFFCCF809114018093F10004
:103F50008091E8008E77DCCF80917402813201F786
:103F60008091780290917902892BD1F68091E800B6
:103F7000877F8093E8000E9455228091760280938B
:103F800014010C94021580917402813249F68091DB
:103F9000E800877F8093E8000E9455228091770295
:103FA00080935402089580917402813A09F0B8CF49
:103FB0008091E800877F8093E8008091E80080FF8F
:103FC000FCCF80915402C2CFCDB7DEB7A0970FB619
:103FD000F894DEBF0FBECDBF84B7877F84BF0FB616
:103FE000F894A89580916000886180936000109299
:103FF00060000FBE80E890E00FB6F89480936100F7
:10400000909361000FBE0E9447100E94A5220E945B
:1040100002238091E20084608093E20078940E9401
:104020008E250E9457108AE091E00E94D20F13E083
:10403000809173028530C9F00E94611080917302F3
:104040008430D1F00E9455100E945610F1CF0E948A
:10405000FC1C80917102882341F00E942B1D882353
:1040600021F00E94B8200E940215809173028530D1
:1040700071F30E94431DE0CF1093E9008091E800A6
:1040800082FFE0CF8091E80090E085FF09C050E01A
:1040900040E060E270E0CE0101960E941D2191E0B7
:1040A0008091E8008B778093E800992359F260E2D1
:1040B000CE0101960E94750BC5CF0C945F20FC01C8
:1040C000CB01DA012F2F332723303105D1F070F4E3
:1040D0002130310509F447C02230310569F48BE500
:1040E00090E02CE134E02D933C930895213231058A
:1040F000E9F02232310539F190E080E030E020E053
:10410000F2CFCF019927E13059F08230910559F073
:10411000E8E1F4E0892B81F7849190E09F01E3CFFF
:10412000E6EFF3E0F9CFECEDF3E0F6CF63307105A5
:1041300018F7880F991FFC01ED56FE4F2081318141
:1041400089E090E0D0CF63307105B0F6FB01EE0F4F
:10415000FF1FE357FE4F2081318186579E4FFC01A0
:10416000808190E0C0CF82E190E027E734E0BBCFD0
:1041700080E189BD82E189BD09B400FEFDCF809157
:10418000D8008F7D8093D8008091E000826080937A
:10419000E0008091E00081FDFCCF0895AF92BF92D6
:1041A000CF92DF92FF920F931F93CF93DF936C0117
:1041B000EB018A010E947422F82E811123C001159F
:1041C000110539F0F80180819181C81BD90BC80E07
:1041D000D91EB12CA12C2097A9F08091E80085FD73
:1041E00022C08091E8008E778093E80001151105C8
:1041F000A1F0F801808191818A0D9B1D91838083BC
:1042000085E0F82E8F2DDF91CF911F910F91FF90B8
:10421000DF90CF90BF90AF9008950E9474228823C2
:10422000D1F2F82EEFCFF60181916F018093F1006A
:104230002197FFEFAF1ABF0ACECFAF92BF92CF92B6
:10424000DF92FF920F931F93CF93DF936C01EB01EB
:104250008A010E947422F82E811123C001151105D4
:1042600039F0F80180819181C81BD90BC80ED91E85
:10427000B12CA12C2097A9F08091E80085FD22C0E7
:104280008091E8008B778093E80001151105A1F07B
:10429000F801808191818A0D9B1D9183808385E047
:1042A000F82E8F2DDF91CF911F910F91FF90DF900E
:1042B000CF90BF90AF9008950E9474228823D1F2CE
:1042C000F82EEFCF8091F100F60181936F012197D5
:1042D000FFEFAF1ABF0ACECFFC01CB0120917A02CB
:1042E00030917B022617370790F0009729F4209130
:1042F000E8002E772093E80040E0009751F4411148
:1043000008C08091E80082FF31C080E00895C901B3
:10431000F3CF209173022223A9F12530A9F1209136
:10432000E80023FD2DC02091E80022FDEACF209176
:10433000E80020FFE2CF3091F3002091F2000097D7
:1043400019F02830310558F041E02830310509F0E6
:1043500040E02091E8002E772093E800CECF4191F5
:104360004093F10001972F5F3F4FE9CF8091730297
:10437000882341F0853041F08091E80083FFC1CF70
:1043800081E0089582E0089583E00895FC01CB0167
:1043900020917A0230917B022617370790F0009720
:1043A00029F42091E8002E772093E80040E0009760
:1043B00051F4411108C08091E80082FF32C080E0D2
:1043C0000895C901F3CF209173022223B1F1253062
:1043D000B1F12091E80023FD2EC02091E80022FDDC
:1043E000EACF2091E80020FFE2CF3091F300209146
:1043F000F200009719F02830310558F041E02830DC
:10440000310509F040E02091E8002E772093E80084
:10441000CECF44914093F100319601972F5F3F4FEB
:10442000E8CF80917302882341F0853041F080917C
:10443000E80083FFC0CF81E0089582E0089583E023
:104440000895982F973028F08F708093E90081E0CD
:1044500008959093E900242F762F50E0981731F0BB
:104460007091EC002091ED005091F00021FD02C010
:104470009F5FE8CF3091EB003E7F3093EB003091AF
:10448000ED003D7F3093ED003091EB0031603093D3
:10449000EB007093EC002093ED005093F00020911E
:1044A000EE0027FDE5CF80E008958091740287FF3C
:1044B00013C08091E80082FF06C08091E8008B77EE
:1044C0008093E80004C0809173028111F2CF0895B7
:1044D000809173028823D9F38091E80080FFF8CFA0
:1044E0008091E8008E77ECCF2091E4003091E500D8
:1044F00095E6A9012091EC00822F817020FF06C073
:104500008091E80080FF06C080E008952091E800D7
:1045100022FD1AC080917302882389F0853089F0CA
:104520008091EB0085FD0FC02091E4003091E50003
:1045300042175307F9F29150E1F684E0089582E0C2
:10454000089583E0089581E008950E9413230E9456
:104550001B23E0EEF0E0808181608083E8EDF0E0F5
:1045600080818F77808319BCA7EDB0E08C918E7F1E
:104570008C9380818F7E80831092720208950F93B6
:104580001F93CF93DF930E9413230E941B23C8ED38
:10459000D0E088818F77888388818068888388814C
:1045A0008F7D888319BC1092730210926F02109253
:1045B00071021092700200EE10E0F80180818B7F92
:1045C000808388818160888342E060E080E00E948F
:1045D0002122E1EEF0E080818E7F8083E2EEF0E048
:1045E000808181608083808188608083F801808100
:1045F0008E7F8083888180618883DF91CF911F9136
:104600000F910895E8EDF0E080818F7E8083E7EDE3
:10461000F0E080818160808384E082BF81E08093CC
:1046200072020C94BF22E8EDF0E080818E7F8083DF
:104630001092E20008951092DA001092E1000895BD
:104640001F920F920FB60F9211242F933F934F9307
:104650005F936F937F938F939F93AF93BF93EF93EA
:10466000FF938091E10082FF0BC08091E20082FF06
:1046700007C08091E1008B7F8093E1000E948D252F
:104680008091DA0080FF19C08091D80080FF15C0AA
:104690008091DA008E7F8093DA008091D90080FFCC
:1046A00094C080E189BD82E189BD09B400FEFDCFDF
:1046B00081E0809373020E94051F8091E10080FFDA
:1046C00019C08091E20080FF15C08091E2008E7FCA
:1046D0008093E2008091E20080618093E20080910B
:1046E000D80080628093D80019BC85E08093730263
:1046F0000E94171F8091E10084FF29C08091E20091
:1047000084FF25C080E189BD82E189BD09B400FE36
:10471000FDCF8091D8008F7D8093D8008091E100FB
:104720008F7E8093E1008091E2008F7E8093E20093
:104730008091E20081608093E20080916F02882383
:1047400009F449C084E0809373020E94181F80918D
:10475000E10083FF29C08091E20083FF25C08091A2
:10476000E100877F8093E10082E0809373021092E2
:104770006F028091E1008E7F8093E1008091E200E2
:104780008E7F8093E2008091E20080618093E2005E
:1047900042E060E080E00E9421228091F000886089
:1047A0008093F0000E94161FFF91EF91BF91AF918F
:1047B0009F918F917F916F915F914F913F912F9139
:1047C0000F900FBE0F901F90189519BC1092730296
:1047D0000E94131F72CF8091E30087FD02C081E029
:1047E000B2CF83E0B0CF1F920F920FB60F92112479
:1047F000FF920F931F932F933F934F935F936F936A
:104800007F938F939F93AF93BF93CF93DF93EF9358
:10481000FF9309EE10E0F8018081C091EC00C7958C
:10482000CC27C7958F70FC2EF82A1082C0EFD0E0FD
:104830008881877F888378940E943C24F8011082C5
:10484000888188608883CF2DCF70C083FF91EF91DE
:10485000DF91CF91BF91AF919F918F917F916F9198
:104860005F914F913F912F911F910F91FF900F906A
:104870000FBE0F901F9018951F93CF93DF93CDB766
:10488000DEB7AA970FB6F894DEBF0FBECDBF84E7A0
:1048900092E0FC0101962091F100208322E08C3708
:1048A0009207B9F70E942D1F8091E80083FF1DC178
:1048B00080917402909175029A3008F016C1E92F28
:1048C000F0E0EE58F94D0C94BC25803899F0823810
:1048D00009F00BC1809178028F70873008F005C114
:1048E0008093E9008091EB0085FB882780F9109286
:1048F000E90006C08091700290917102911182606E
:104900009091E800977F9093E8008093F1001092D7
:10491000F1008091E8008E77E4C0882309F4D2C0CA
:10492000823009F0E2C0809176028111D5C0809179
:1049300078028F702FEF280F263008F0D6C08093B2
:10494000E9002091EB0020FFC7C0933031F4809143
:10495000EB0080628093EB00BFC09091EB00906110
:104960009093EB0021E030E001C0220F8A95EAF736
:104970002093EA001092EA008091EB008860EACF71
:104980008111B3C0109176021F778091E300807887
:10499000812B8093E3008091E800877F8093E8007B
:1049A0000E9455228091E80080FFFCCF8091E300B7
:1049B00080688093E30082E0111183E080937302AA
:1049C00094C08058823008F090C080917602909117
:1049D00077028C3D23E0920799F583E08A838AE28F
:1049E00089834FB7F894DE01139620E03EE051E250
:1049F000E32FF0E050935700849120FF03C082958D
:104A00008F703F5F8F708A30C8F0895C90E08D9323
:104A10009D932F5F243161F74FBF8091E800877F1E
:104A20008093E8006AE270E0CE0101960E946C215A
:104A30008091E8008B778093E80057C0805DE6CFD7
:104A40006091780270917902AE014F5F5F4F0E94D2
:104A50005D20BC01892B09F448C08091E800877F64
:104A60008093E80089819A810E94C621E1CF803835
:104A7000E1F58091E800877F8093E80080916F02E4
:104A80008093F10046CF811130C090917602923030
:104A900060F58091E800877F8093E80090936F0233
:104AA0000E94552280916F02882311F084E005C096
:104AB0008091E30087FDFACF81E0809373020E942A
:104AC000191F13C080917602813079F481E0933010
:104AD00009F080E0809371021092E9008091E80073
:104AE000877F8093E8000E9455228091E80083FF31
:104AF0000AC08091E800877F8093E8008091EB00F6
:104B000080628093EB00AA960FB6F894DEBF0FBECA
:104B1000CDBFDF91CF911F9108950895CF938091DC
:104B20007302882399F08091E900C091EC00C79549
:104B3000CC27C7958F70C82B1092E9008091E800B0
:104B400083FD0E943C24CF70C093E900CF9108956B
:104B500097FB072E16F4009407D077FD09D00E942A
:104B6000C92507FC05D03EF4909581959F4F089587
:104B7000709561957F4F0895EE0FFF1F0590F4919A
:104B8000E02D0994692796276927782787277827B2
:104B90000895AA1BBB1B51E107C0AA1FBB1FA61784
:104BA000B70710F0A61BB70B881F991F5A95A9F7D6
:104BB00080959095BC01CD010895F999FECF92BDE5
:104BC00081BDF89A992780B50895A8E1B0E042E048
:104BD00050E00C941126262FF999FECF92BD81BD8D
:104BE000F89A019700B4021639F01FBA20BD0FB62B
:104BF000F894FA9AF99A0FBE08950396272F0E9407
:104C0000EC250E94EB25252F0E94EC25242F0C94E7
:104C1000EC250196272F0E94EC250C94EB25DC0156
:104C2000CB01FC01F999FECF06C0F2BDE1BDF89AB7
:104C3000319600B40D9241505040B8F70895F89461
:104C4000FFCFE308E908EC08F2080709070907099C
:104C500007090709070907090709F508FA08FE08FF
:104C6000040915091B091F09920BA80BE80B000C7E
:104C7000110C1E0C210C210C210C210C210C260CDA
:104C80002C0C380C470C5A0C5D0C600C730C180F74
:104C90001E0F220F300F340F380F3C0F420F4A0FF8
:104CA0004E0F520F560F620F660F6A0F6E0F740F82
:104CB000920F7C0F2C0F5A0F5E0F460F780F880F44
:104CC0009B0F9F0F91129112F312F312481364136A
:104CD000C112C1126F131B142C142C148D14C11289
:104CE000C112961465248D2475258D247525C02444
:084CF000E12475253725432559
:104CF8002808641E140A321E3E02521EAE1E8F1E63
:104D08008B1E871E0100000000E200E900EA00B5E2
:104D180000B600B700CD008301CC008A019201944F
:104D2800012102230224022502260227022A02B3B5
:104D380000B4006F007000F1F4F5313233949293AF
:104D480095969734353666F0C6913067E200E900EB
:104D5800EA00B500B600B700CD008301CC008A0197
:104D6800920194012102230224022502260227022D
:104D78002A02B300B4006F00700040227B26058928
:0A4D880004AB042E04470467040086
:00000001FF
