:100000000C948F040C94C7040C94C7040C94C7047C
:100010000C94C7040C94C7040C94C7040C94C70434
:100020000C94C7040C94C7040C94FD260C94B926B8
:100030000C94FA270C94C7040C94C7040C94C704BE
:100040000C94C7040C94C7040C94C7040C94C70404
:100050000C94C7040C94D6270C94C7040C94C704C2
:100060000C94C7040C94C7040C94C7040C94C704E4
:100070000C94C7040C94C7040C94C7040C94C704D4
:100080000C94C7040C94C7040C94C7040C94C704C4
:100090000C94C7040C94C7040C94C7040C94C704B4
:1000A0000C94C7040C94C7040C94C70405010902FE
:1000B000A10185020901A100050919012905150001
:1000C00025019505750181029501750381010501E1
:1000D000093009311581257F950275088106093897
:1000E0001581257F950175088106050C0A380215D2
:1000F00081257F950175088106C0C005010980A191
:1001000001850319012AB700150126B7009501756D
:10011000108100C0050C0901A101850419012AA064
:1001200002150126A002950175108100C005010984
:1001300006A1018506050719E029E71500250195A7
:1001400008750181020507190029EF1500250195A1
:10015000F0750181020508190129059505750191C0
:1001600002950175039101C00660FF0961A10109B3
:1001700062150026FF0095207508810209631500AD
:1001800026FF00952075089102C005010906A1010E
:10019000050719E029E71500250195087501810279
:1001A0009501750881010507190029FF150026FF33
:1001B0000095067508810005081901290595057542
:1001C000019102950175039101C00000000000003B
:1001D000000000000000000000000000000000001F
:1001E00000000000000000000000000000007E0F82
:1001F00000D4FFFFFFC700000078000000000000EF
:1002000000002A2B28000000000000000000000071
:10021000000000000029000000002C1E34202122D4
:1002200024342627252E362D3738271E1F2021223D
:10023000232425263333362E37381F0405060708B6
:10024000090A0B0C0D0E0F101112131415161718A6
:10025000191A1B1C1D2F3130232D350405060708E4
:10026000090A0B0C0D0E0F10111213141516171886
:10027000191A1B1C1D2F3130354CFD377A585A0086
:100280000004E6D6B4460200210116000000742FD7
:10029000E5A3E00623021A5D003D8889C65436C3F3
:1002A000174FE4F0023D5EE22A6E9882487A647D40
:1002B0008543EFF27095217D95F1A66E84A0FF3302
:1002C0002FC4DE639556D48CCFBA090D86F32684ED
:1002D000464642D137E5BDCF5B42736CB94E8D3196
:1002E000E839E2D7E954849A4050D77252E79292A3
:1002F0001F6D973346DB84C64D9C77E01141BACB26
:100300006E3690E55E0E7EA7A5F2DADEC677FF6F49
:1003100026BBBA7F3462F3A64883D829E216EACB1B
:10032000FAA04A9A221022FD84155135398C7DA6F7
:100330002DD0C06EFF6082CF8881738CDA53A7AA5C
:100340006796BBD74443D45B41D1C12E64695D5EDF
:100350001EDD3CE6062B66551DD53E935527D2156E
:10036000CDF52F35C2796FB51B57A956F90A6FC95C
:100370008497F23F00E8C0F0894306895D738BDE05
:100380003B24554CB950E348C44722D52483E5614A
:100390002F4A4994422548087131746BDC369AF72C
:1003A000C0B67ADA50E3AF7DE53161D1C80E2EA434
:1003B000B3D368A9A45672F7CEDDCC56443519756F
:1003C000A62DDDAE685C6917484B667252567DA952
:1003D000824012A7A6DA4F16129039A27C97E44EFB
:1003E0001E040613E501E2D2F704A87201B8EB95EA
:1003F000CA49C3A18E5474485338F3E0F19AFAC045
:10040000FB2102A1E7EE7749E7E5FE62C2EB8EB978
:10041000E03811027EA1F006BAF152613C420B7045
:100420005AB4B68804F9E00A876E869596F375E2A9
:10043000393A2BF59E08FBD19636FDA5604B681323
:1004400026509176111CFD37DA9F77AF553FD417B0
:10045000906F41525DF8CF0DD2C0DE1FB9D21DBAE8
:10046000671D677810F0C6FC40C9029EFBDA384C65
:100470002CD2CE51046FF1E6AF03967666DEC20C45
:10048000D7D43C989317EE9AFCA2EB17EA1CA45A17
:10049000CCB106742C8329036764E06960B3DC1770
:1004A0001ABC7B3A68547C09E9F8601E491E2E6626
:1004B00025177900000078FD64A56315CF28000199
:1004C000B604A40C000043F55531B1C467FB02002B
:1004D00000000004595A29001E001F0020002100BE
:1004E0002200230024002500260027002D002E00D6
:1004F0002A004C004A002B0014001A0008001500C6
:1005000017001C0018000C00120013002F00300010
:10051000310000004D0039000400160007000900FA
:100520000A000B000D000E000F0033003400010024
:10053000280000004B00E10001001D001B00060028
:100540001900050011001000360037003800E500E2
:10055000520000004E00E000E300E2000000000056
:1005600000002C00000000000000E60001515000D7
:10057000510000004F00005C3A003B003C003D0091
:100580003E003F004000410042004300440045005F
:100590000100010001000100010001000100010053
:1005A0000100010001000100010001000100010043
:1005B0000100000001000100010001000100010034
:1005C0000100010001000100010001000100010023
:1005D0000100000001000100010001000100010014
:1005E0000100010001000100010001000100010003
:1005F00001000000010001000100010000000000F6
:1006000000000100000000000000010001000100E6
:1006100001000000010001000100010001000100D3
:1006200001000100010001000100010001000100C2
:1006300001000100010001000100010001000100B2
:1006400001000100010001000100010001000100A2
:100650000100000001000100010001000100010093
:100660000100010001000100010001000100010082
:100670000100000001000100010001000100010073
:100680000100010001000100010001000100010062
:100690000100000001000100010001000000000055
:1006A0000000010000000000000001000100010046
:1006B0000100000001000100010001000100010033
:1006C0000100010001000100010001000100010022
:1006D0000100010001000100010001000100010012
:1006E0000100010001000100010001000100010002
:1006F00001000000010001000100010001000100F3
:1007000001000100010001000100010001000100E1
:1007100001000000010001000100010001000100D2
:1007200001000100010001000100010001000100C1
:1007300001000000010001000100010000000000B4
:1007400000000100000000000000010001000100A5
:1007500001000000010001000100AC02790EAC0EA6
:10076000000002000200A802790EAC0E0000030097
:100770000100AD02790EAC0E0000040002009202EE
:10078000790EAC0E7A0705000100AE02790EAC0EB0
:100790000000060002009402790EAC0E0000070073
:1007A0000200AA02790EAC0E000008000100AF02A0
:1007B000790EAC0E0000090002009602790EAC0E14
:1007C00055070A0002009802790EAC0E55070B007F
:1007D00002009A02790EAC0E55070C0002009C0232
:1007E000790EAC0E55070D0002009E02790EAC0E7C
:1007F00055070E000200A002790EAC0E55070F003F
:100800000200A202790EAC0E550710000200A402ED
:10081000790EAC0E550711000200A602790EAC0E3F
:10082000550712000200B002790EAC0E0000130052
:100830000200B202790EAC0E000014000100B402F6
:10084000790EAC0E0000150000000000D206C215A3
:10085000000009025B00030100A0FA090400000186
:100860000301010009211101000122400007058157
:10087000030800010904010002030000000921111E
:100880000100012222000705820320000107050361
:1008900003200001090402000103000000092111E6
:1008A00001000122BC0007058403200001120100A1
:1008B0000200000008FF2109AA0100010203011C37
:1008C000037600690061006C003A0066003600346F
:1008D000006300320062003300630000001803630D
:1008E0000063006400360035002F00610074006D65
:1008F0000065006C00000020036300610062006C72
:1009000000650063006100720064006500730069A7
:100910000067006E00730000000403090400112446
:100920001FBECFEFDAE0DEBFCDBF04B603FE18C0B6
:100930008091AC039091AD03A091AE03B091AF0351
:100940008730904BA740B04B59F41092AC031092F3
:10095000AD031092AE031092AF03E0E0F8E3099507
:1009600011E0A0E0B1E0E6E0F0E602C005900D92F3
:10097000A837B107D9F723E0A8E7B1E001C01D927D
:10098000AC3AB207E1F70E9421280C94DD2F0C94B9
:100990000000E8EDF0E080818E7F80831092E2001D
:1009A0001092DA001092E100A0EEB0E08C9181602C
:1009B0008C9380818F77808319BCA7EDB0E08C91F8
:1009C0008E7F8C9380818F7E808310927B0308952D
:1009D0002091E4003091E50095E6A9012091EC001A
:1009E000822F817020FF06C08091E80080FF06C042
:1009F00080E008952091E80022FD1AC08091A903AB
:100A0000882389F0853089F08091EB0085FD0FC047
:100A10002091E4003091E50042175307F9F291501C
:100A2000E1F684E0089582E0089583E0089581E08E
:100A30000895EF92FF920F931F93CF937C018B0148
:100A40000E94E804C82F811117C08091E80085FD3D
:100A50000BC08091E8008E778093E8000E94E80444
:100A6000882399F3C82F08C0F70181917F018093F3
:100A7000F1000150110949F78C2FCF911F910F916F
:100A8000FF90EF900895CF93FC018091A9038430EB
:100A900001F5C091E900CF702091EC00922F917088
:100AA00020FD90E8C92B82E08093E9008091E80066
:100AB00080FF0CC050E040E060E270E0CF010E9497
:100AC00019058091E8008E778093E800CF70C0937D
:100AD000E900CF9108958091A10387FF13C0809111
:100AE000E80082FF06C08091E8008B778093E800E1
:100AF00004C08091A9038111F2CF08958091A903C8
:100B00008823D9F38091E80080FFF8CF8091E80036
:100B10008E77ECCF982F9093E900242F762F50E01A
:100B2000891731F07091EC002091ED005091F000A8
:100B300021FD07C09F5F973071F78093E90081E046
:100B400008953091EB003E7F3093EB003091ED0043
:100B50003D7F3093ED003091EB0031603093EB003E
:100B60007093EC002093ED005093F0002091EE0084
:100B700027FDE0CF80E00895CF92DF92EF92FF92C1
:100B80000F931F93CF93DF93C8EDD0E088818F7EC2
:100B90008883E7EDF0E080818160808384E082BF1C
:100BA00081E080937B0388818E7F888302EE10E052
:100BB000F80110821092DA0081EEC82ED12CF601D5
:100BC000108288818F778883888180688883888174
:100BD0008F7D888319BC1092A9031092A0031092F4
:100BE0009F0310929E0390EEE92EF12CF701808175
:100BF0008B7F808388818160888342E060E080E031
:100C00000E948A05F60180818E7F8083F8018081B1
:100C100081608083808188608083F70180818E7FFE
:100C20008083888180618883DF91CF911F910F91AC
:100C3000FF90EF90DF90CF900895FC018091A70383
:100C40009091A80386179707A0F06115710529F404
:100C50009091E8009E779093E80090E0611571050F
:100C600051F4911108C08091E80082FF34C080E007
:100C70000895BC01F2CF8091A9038823C1F185308A
:100C8000C1F18091E80083FD30C08091E80082FDD1
:100C9000EACF8091E80080FFE1CF8091F3002091BE
:100CA000F200382F6115710519F02830310558F020
:100CB00091E02830310509F090E02091E8002E778E
:100CC0002093E800CBCF81918093F10061507109AE
:100CD0002F5F3F4FE7CF8091A903882341F08530F4
:100CE00041F08091E80083FFBECF81E0089582E06B
:100CF000089583E00895089580917D0308959C01EF
:100D00004FB7F8948091720390917303A09174038C
:100D1000B09175034FBF821B930B08952FB7F894C2
:100D20008091720390917303A0917403B091750345
:100D30002FBF089520916F03309170032817390752
:100D400071F09093700380936F03E0916D03F091C5
:100D50006E03309721F00084F185E02D0994089509
:100D600020916B0330916C032817390771F0909331
:100D70006C0380936B03E0916D03F0916E033097E9
:100D800021F00680F781E02D09940895E0916D032C
:100D9000F0916E03309721F00190F081E02D0994DD
:100DA00080E00895AF92BF92CF92DF92EF92FF92D0
:100DB0000F931F93CF93DF938FEF9FEF4430510535
:100DC00008F468C04091760341FB882780F990E0E1
:100DD000880F991F42FB002700F910E0000F111F38
:100DE000000F111F802B912B40FBCC24C0F8D12C7D
:100DF0008C299D2943FB222720F9C22FE0E0DE2F1A
:100E000053E0CC0FDD1F5A95E1F78C2B9D2B44FB53
:100E1000AA27A0F9B0E0E4E0AA0FBB1FEA95E1F72A
:100E20008A2B9B2B45FBEE27E0F9F0E0A5E0EE0FC7
:100E3000FF1FAA95E1F78E2B9F2B46FB222720F957
:100E400030E0B6E0220F331FBA95E1F7822B932BE7
:100E500047FB222720F930E03695322F222737959D
:100E60002795822B932B20917703322F3170F32E0D
:100E7000F92A26952170B22EBB0CA82EBF28C501D9
:100E8000BB0CAA0BBB0BFB0180839183A283B383B2
:100E900090E080E0DF91CF911F910F91FF90EF9054
:100EA000DF90CF90BF90AF900895E2E9F2E08481A7
:100EB00095812AE030E0B9010E94282F6093150146
:100EC00086818093140182858093130184858093A9
:100ED000120186859785B9010E94282F6093110120
:100EE000808980931001828980930F018489809387
:100EF0000E010895809192029091930290931701B0
:100F00008093160108950E948E069C0190915102D3
:100F100080915202982B21F030934E0220934D0283
:100F20009091530280915402982B21F030934C02FF
:100F300020934B02E0916D03F0916E03309749F0DE
:100F400082E080934F020480F581E02D8FE492E0EF
:100F50000994089590915102803F59F48091520272
:100F600087FF0DC01092520291110BC010924902DE
:100F700008C0813F81F48091520218169CF3992396
:100F800081F08091530290915402892B09F064C042
:100F9000109248020895823F49F497FFF0CF1092D3
:100FA0005102809152028111ECCFE0CF833F19F4BE
:100FB0001916ACF3E4CF20915302893F29F412169D
:100FC000F4F610925302DBCF8A3F19F427FFD7CFF4
:100FD000F8CF209154028B3F29F427FFD0CF1092F5
:100FE0005402CDCF8C3F19F41216CCF3C8CF843FF6
:100FF00031F4809150028E7F80935002C0CF853FA4
:1010000021F4809150028D7FF7CF863F21F48091AB
:1010100050028B7FF1CF873F21F480915002877F70
:10102000EBCF883F21F4809150028F7EE5CF8D3F3A
:1010300031F480914A028E7F80934A02A0CF8E3F86
:1010400021F480914A028D7FF7CF8F3F09F097CF2F
:1010500080914A028B7FF0CF089580914A0280FFF1
:101060000CC060910F0170E0759567957595679557
:101070006115710549F1862F089581FF06C06091C1
:101080000F0170E075956795F3CF60910F0182FDB8
:101090000BC0909148029923A1F060910E018091BC
:1010A0000F01961738F0682F70E06038710500F373
:1010B0008FE70895899FC001112470E00E943C2FA2
:1010C000F4CF61E070E0D7CF81E0089580914A02CB
:1010D00060919A0270919B0280FF16C020911301CB
:1010E000269FC001279F900D1124BC01769567951E
:1010F000769567956038710508F043C061157105F4
:1011000009F441C0862F089581FF0BC0209113017F
:10111000269FC001279F900D1124BC0176956795ED
:10112000E9CF82FF09C0809113019B01829FB0012A
:10113000839F700D1124DECF209149022223D1F22A
:101140009091120180911301482F50E0291748F027
:10115000CB01849FB001859F700D949F700D112469
:10116000C9CF289F90011124269FA001279F500DD1
:10117000369F500D1124692F70E0CA010E94282F5C
:10118000B9CF8FE7089581E00895803F31F40E9440
:1011900066088195809352020895813F19F40E9458
:1011A0006608F8CF823F31F40E94660881958093EB
:1011B00051020895833F19F40E946608F8CF893FD1
:1011C00029F40E942D088093530208958A3F21F448
:1011D0000E942D088195F7CF8B3F31F40E942D0896
:1011E00081958093540208958C3F19F40E942D0834
:1011F000F8CF843F31F48091500281608093500297
:101200000895853F21F4809150028260F7CF863F98
:1012100021F4809150028460F1CF873F21F48091C6
:1012200050028860EBCF883F21F4809150028061AA
:10123000E5CF8D3F31F480914A02816080934A026C
:1012400008958E3F21F480914A028260F7CF8F3F4C
:10125000B9F780914A028460F1CF80E00895F89454
:10126000E82FE295EF70F0E031A1282F2F7081E098
:1012700090E001C0880F2A95EAF7982F9095932364
:1012800091A392A1892B82A37894089590917603DB
:1012900092FF06C0282F28712830F9F4877F8460D8
:1012A00093FF06C0282F28712831F1F4877E8461CE
:1012B0002091770320FF06C0382F38713830D9F4D9
:1012C000877F816021FF06C0282F28712831D1F443
:1012D000877E816194FD877E0895282F24712430B4
:1012E000F9F68B7F8860DCCF282F2471243101F739
:1012F0008B7E8861DDCF382F3171313019F78E7FC9
:101300008860E0CF282F2171213121F78E7E8861FE
:10131000E1CFCF93DF93EC0182389105A9F1D8F5A5
:101320008133910509F496C048F58932910509F495
:101330008AC08A9709F495C0C11521E5D20708F043
:10134000BCC0C11530E5D30708F014C1C83ED105B3
:1013500008F09CC0C03ED10560F5C83AD10508F040
:1013600087C0C53AD10508F0FDC0C130D10509F1EB
:101370002097F9F0C430D105E0F440C085339105E1
:1013800009F45AC0C997C1F680917603837089F039
:10139000C0EED0E00EC0833E910599F170F4803E1E
:1013A000910501F1823E910539F68091760382FD27
:1013B00021C0CE01DF91CF910895863E910561F164
:1013C000873E910571F1843E910509F0B5CF80917A
:1013D000770381FFEECF80917603C7EED0E084FDE6
:1013E0000DC0E7CF8091760380FD12C19091770305
:1013F00090FFDFCFC3EED0E084FFDBCFD0E0C0E0D2
:10140000D8CF8091760382FD06C19091770390FD3D
:10141000BFCF84FFCECFF2CF8091760383FDDDCFA7
:10142000C8CF8091760383FDF9C09091770391FF37
:10143000F0CFC4EED0E0BDCF8091760385FFB9CF69
:10144000C9E2D0E0B6CF8091760385FFB2CFC5E385
:10145000D0E0AFCF8091760386FFABCFCAE2D0E079
:10146000A8CF8091760386FFA4CFC1E3D0E0A1CFBF
:10147000CF3BD10518F6C85AD0E0CC0FDD1FCB5DAD
:10148000DE4F0990D881C02DD46493CFC11540E2BE
:10149000D40758F4C11581E0D80708F08ACFC03FBF
:1014A000D10508F4ABCFD06584CFC11590E4D9073E
:1014B00008F4A4CFDF70D06A7CCFC11525E5D20730
:1014C00000F5C11534E5D30708F08AC0C11543E51E
:1014D000D40708F071C0C11582E5D80708F467C0C9
:1014E000CE018370992721E030E002C0220F331F24
:1014F0008A95E2F7C695C69580E2C89FE00111245F
:1015000052C0C11599E5D907A8F4C11528E5D2073D
:1015100008F06BC0C11536E5D30708F06FCF8C2FEC
:101520000E944609C82FD0E0DC2FCC27CC27DF71E2
:10153000D0623FCFC1154AE5D40708F45BC0CE01A5
:1015400090568115904208F059CF8D2F8F710E94CF
:10155000460990E0982F882788279F719C012C2BA3
:10156000E901E6CFC55AD0E0CE5DDE4FC881D0E0BC
:10157000D0641FCFCE01E4E096958795EA95E1F718
:1015800083702C2F26952695237040E2249F90018E
:101590001124382B8C2F8370C1E0D0E002C0CC0F17
:1015A000DD1F8A95E2F7C22BD32BDC6802CFDC2F3C
:1015B000CC27C16FD06AFDCECE018370992721E080
:1015C00030E002C0220F331F8A95E2F7C695C69518
:1015D00090E2C99FE0011124C22BD32BDA68E9CE37
:1015E000DC2FCC27C46FD06AE4CEDC2FCC27C06FB1
:1015F000D06ADFCE8C2F8F700E94460934E0D695DA
:10160000C7953A95E1F7CF709C2FEC01D069D1CE08
:10161000C9E3D0E0CECEC2EED0E0CBCEC6EED0E075
:10162000C8CE80911902882331F0109219021092CD
:101630001802109217020895CF93C82F8091770354
:1016400082FD0CC0809119028C1741F00E948E0619
:101650009093180280931702C0931902CF910895B6
:1016600080959091AA0398239093AA03089580955A
:1016700090916D02982390936D02089590916D0260
:10168000892B80936D0208951092F6011092F50156
:101690001092F40108958091940290919502892B03
:1016A00089F00E948E062091170230911802AC0139
:1016B000421B530B81E02091940230919502421716
:1016C000530708F480E0817008958091F30181113F
:1016D0001092F3010895909119019923D1F09091FE
:1016E000760397FF16C0E82FE695E695E695EE316E
:1016F000E0F4F0E0E658FE4F282F277081E090E0FC
:1017000001C0880F2A95EAF7809592818923828308
:101710000895ECE7F1E09191891303C0DF0111977F
:101720001C9291E0E238F907B1F708959091190100
:101730009923C1F09091760397FF14C0E82FE695A6
:10174000E695E695EE31F8F4F0E0E658FE4F877046
:1017500021E030E001C0220F8A95EAF78281822BD6
:1017600082830895ACE7B1E0EFEF90E02D9182170E
:1017700051F0EF3F19F4211101C0E92F9F5F96301E
:10178000A9F7EF3F09F408950E2E000CFF0BE65861
:10179000FE4FE6CF2091F2019091C10156E029134E
:1017A00002C080E0089530E0529FF001539FF00D99
:1017B0001124EE53FE4F7181761306C070817813A9
:1017C00003C07281741304C02F5F3F4F2770E7CFAF
:1017D00081E00895452B39F0682381E06F3F09F0DF
:1017E00080E08170089581E0FCCF8091F2019091BA
:1017F000C101981301C008958F5F8770FACF9E3F93
:1018000041F19295907FE92FE80F9E2F9770E69512
:10181000E695E69583E0E89FF0011124E356FE4F3C
:1018200050E040E080E0219130E0092E02C0369582
:1018300027950A94E2F721703327042E01C0220F66
:101840000A94EAF7822B4F5F5F4F4330510559F7F7
:10185000089580E008959E3F61F19295907FE92F71
:10186000E80F8E2F877041E001C0440F8A95EAF798
:10187000E695E695E69583E0E89FF0011124E356AE
:10188000FE4F30E020E070E05191DF011197CB0175
:10189000022E02C0969587950A94E2F78170819591
:1018A0008527842385278C932F5F3F4F2330310575
:1018B00059F7089592959F70963091F058F4925F81
:1018C0009F70923058F4803F19F030F4883E30F425
:1018D00081E008959A5FF4CF843FD1F380E00895CA
:1018E000883EB0F3813FD1F7F3CF81FD02C08E9ADD
:1018F00008958E9808959C013A9521153F4150F521
:10190000FC01EE27F170BC0166277270AC01442720
:1019100054709C012227387094FF0EC080E1EF2B99
:1019200009F480E0672B09F08062452B09F08064A0
:10193000232B89F08068089581E0EF2B09F480E083
:10194000672B09F08260452B09F08460232B19F086
:101950008860089580E008958093780370937A03F7
:10196000609379038091A9038430F9F48093E900AE
:101970008FEF9091E800815095FD06C095ED9A9506
:10198000F1F700008111F5CF8091E80085FF0DC0CF
:1019900050E040E063E070E088E793E00E941905C2
:1019A0008091E8008E778093E8000895BC0184E080
:1019B0000C94AC0CBC0183E00C94AC0C9C0184E056
:1019C0008093E9009FEF8091E800915085FD06C06B
:1019D00085ED8A95F1F700009111F5CF8091E8002F
:1019E00085FF0CC050E040E066E070E0C9010E9455
:1019F00019058091E8008E778093E8000895CF93D1
:101A0000DF93EC01809119018823B1F18091760375
:101A100087FF32C060E284E08093E9008FEF90910D
:101A2000E800815095FD06C095ED9A95F1F700000C
:101A30008111F5CF8091E80085FF1BC080911901CD
:101A400070E050E040E0811104C050E040E068E008
:101A500070E0CE010E9419058091E8008E77809396
:101A6000E80080E2FE01AEE7B3E001900D928A95B6
:101A7000E1F7DF91CF91089568E081E0CDCF81E07B
:101A80008093E00080E28093D8001092C9008FE13B
:101A90009EE40197F1F700C0000087E090EBDC01C5
:101AA0008093AC039093AD03A093AE03B093AF03C8
:101AB00088E19CE00FB6F894A895809360000FBE73
:101AC00090936000FFCF019708F40895EFE9FFE0DD
:101AD0003197F1F700C00000F6CF0F931F93CF931B
:101AE000DF9302E912E0C7EAD2E0CE010E94932F11
:101AF000F80181938F012196CB3CF2E0DF07A9F733
:101B0000C0E6D7E0FE0185919491009711F0FC01A9
:101B100009952C96F8E0CC35DF07A1F7DF91CF913E
:101B20001F910F9108950F931F93CF93DF938430EC
:101B300030F5653020F5403110F520E2629F8001DC
:101B4000112450E0440F551F040F151F30EA839FE6
:101B5000000D111D1124C80187960E94932FC82FD4
:101B6000D0E0DC2FCC27C80188960E94932F9E01DD
:101B7000282BC901DF91CF911F910F91089590E01B
:101B800080E0F8CF462F20916B0230916C02232B1E
:101B900091F47E3F39F46E3F71F480916902909127
:101BA0006A020895843038F4753028F4603118F4EE
:101BB000672F0C94930D90E080E00895CF92DF9210
:101BC000FF920F931F93CF93DF936C010091AB03B0
:101BD00080911A02082BC7E0D0E010E0FC2EC8016B
:101BE0000C2E02C0959587950A94E2F780FD0CC0F3
:101BF0002197A0F7F12C8F2DDF91CF911F910F919D
:101C0000FF90DF90CF900895B6018C2F0E94C20DF7
:101C10000E948909019761F3EECFCF93DF93EC0126
:101C20000E94DE0DBE010E94C20DDF91CF910C9487
:101C30008909FC01808191810E940D0E0C945A0C3F
:101C40001F93CF93DF9300D000D00F92CDB7DEB7B4
:101C500049835A8389819A816623B9F02223A9F0A6
:101C60000E94DE0D182F682F89819A810E942B0C0B
:101C700069817A81812F0F900F900F900F900F90B4
:101C8000DF91CF911F910C94C20D0E94FF0B182F72
:101C9000EFCFFC01262F40815181628173818481C5
:101CA0000C94200E83E290E00E94932F8E3E89F4E4
:101CB00084E290E00E94932F883159F485E290E00D
:101CC0000E94932F91E0813609F090E0892F817076
:101CD000089580E0FCCFCF9384E090E00E94932FA2
:101CE000C82F82E290E00E94932F982F8C2FCF91E3
:101CF0000895DB01FC013296259134914217530778
:101D000058F0FC01349665917491A901CD010E94AF
:101D1000732F90E080E008958FEF9FEF08950F9369
:101D20001F93CF93DF9302E912E0C7EAD2E0CE011E
:101D30000E94932FF80161918F01681719F0CE016D
:101D40000E94A12F2196CB3CF2E0DF0781F7DF91C3
:101D5000CF911F910F910895DA019C012E5F3F4FA3
:101D6000F90145915491F90125913491A217B307D6
:101D700058F0FC013496859194910E94732F0E9433
:101D80008F0E90E080E008958FEF9FEF0895CF933E
:101D9000DF93CBE1D3E060E0CE010E94A12F21963A
:101DA000C11584E0D807B9F7DF91CF9108950F935B
:101DB0001F93CF93DF938901843048F5653038F560
:101DC000403128F521153C4531F4209167023091CE
:101DD0006802232BE1F090E2699FE001112450E0BA
:101DE000440F551FC40FD51F90EA899FC00DD11D08
:101DF0001124612FCE0187960E94A12F602FCE0162
:101E00008896DF91CF911F910F910C94A12FDF91B4
:101E1000CF911F910F910895CF93C82F6FEF81112C
:101E20006EEE83E290E00E94A12F6FEFC11168E196
:101E300084E290E00E94A12F6FEFC11161E685E27C
:101E400090E0CF910C94A12FCF93C92F682F84E0FD
:101E500090E00E94A12F6C2F82E290E0CF910C9431
:101E6000A12F9B01883070F49AE0899FB001112462
:101E700065537D4F4AE050E0C9010E94832F90E0F6
:101E800080E008958FEF9FEF08958F929F92AF9219
:101E9000BF92CF92DF92EF92FF920F931F93CF9357
:101EA000DF93CDB7DEB72A970FB6F894DEBF0FBE2B
:101EB000CDBF0BEB12E0F12CE12C83E1C82E86E2C2
:101EC000D82E9DE3A92E96E2B92E2CE7822E25E28C
:101ED000922EF801D182C082B382A282958284823E
:101EE000F58AE48ABE016F5F7F4F8E2D0E94310F0D
:101EF000892B29F489859A85F801938B828BFFEFD2
:101F0000EF1AFF0A0A5E1F4F88E0E816F10409F78E
:101F10002A960FB6F894DEBF0FBECDBFDF91CF91EA
:101F20001F910F91FF90EF90DF90CF90BF90AF90F7
:101F30009F908F9008954F925F926F927F928F92B1
:101F40009F92AF92BF92CF92DF92EF92FF920F9348
:101F50001F93CF93DF93CDB7DEB72A970FB6F894D0
:101F6000DEBF0FBECDBF8E010F5F1F4F8AE0F801AD
:101F700011928A95E9F793E5E92E91E0F92E68012F
:101F800028E5422E21E0522E66246394712C48E607
:101F9000842E41E0942EF70181917F018F3F09F457
:101FA00045C0F894E82FE295EF70F0E021A18F7022
:101FB000A30102C0440F551F8A95E2F7CA01922F70
:101FC000982B91A392A18095892382A3789400C035
:101FD000E8E5F1E021E030E0B12CA12C41914F3F48
:101FE00009F47EC0A42FA295AF70B0E090968C91BA
:101FF00090E04F7002C0959587954A95E2F780FD75
:102000006FC0C901A82AB92A220F331F8E169F0656
:1020100029F7F701319780818F3F11F00E942F0936
:1020200050EA5A95F1F7F601B182A082F2E0CF0EA4
:10203000D11C4E145F0409F0AECF4AE050E0B80165
:102040008EE192E00E94662FFF24F394009709F43A
:10205000F12C892B09F447C08AE0F801AEE1B2E027
:1020600001900D928A95E1F781E080931D020E9414
:102070008E0690931C0280931B0280911B0290910C
:102080001C020E947F06059790F180911E0290919C
:102090001F0290933F0280933E0280912002909114
:1020A00021029093410280934002809122029091FC
:1020B00023029093430280934202809124029091E4
:1020C00025029093450280934402809126029091CC
:1020D0002702909347028093460210921D0207C088
:1020E00090E080E08FCF80911D028111C6CF8F2DAF
:1020F0002A960FB6F894DEBF0FBECDBFDF91CF9109
:102100001F910F91FF90EF90DF90CF90BF90AF9015
:102110009F908F907F906F905F904F9008958091E7
:102120006D029091AA03892B80937A018091190204
:10213000882319F18091940290919502892B29F0BE
:102140000E944B0B81110E94110B80917A0190919A
:102150001902892B80937A01809119018823D9F182
:102160008091760387FF37C08EE1ECE7F1E090E0E5
:10217000815098F591110E94110B40E250E067EFF9
:1021800071E08AE791E00E94662F892B59F180E285
:10219000EAE7F1E0A7EFB1E001900D928A95E1F74F
:1021A000E0916D03F0916E033097E1F08091190199
:1021B000882359F08091760387FF07C080917A01C8
:1021C00080937B0186E080937A010280F381E02D89
:1021D0008AE791E0099486E0C8CF2191222341F259
:1021E0009F5FC6CF0895EF92FF920F931F93CF93F7
:1021F000DF93EC018A85811134C0EB80FC8087E598
:10220000F81A26E12E9DC0012F9D900D1124DC01AE
:10221000A554BD4F1496ED91FC911597309731F070
:1022200054966D917C918F539D4F099586E18E9DBB
:1022300080018F9D100D112405541D4FF8018781D9
:102240000E94370BF80180850E94300B0E948F108E
:10225000188219861B861E821D821092BA02109265
:10226000B902DF91CF911F910F91FF90EF900895E8
:10227000CF93DF93EC018989811118C081E0898BAC
:102280008F810E943E0B8091AA039885892B8093B1
:10229000AA030E948F10EA81FB81309739F06C8984
:1022A0007D89CE010696DF91CF910994DF91CF9180
:1022B000089580911801877F8093180182E00E9421
:1022C000300B8091180184FF06C08F7E8093180127
:1022D00082E00E943E0B8091180185FF06C08F7D31
:1022E0008093180180E20E943E0B0C948F1090E0C6
:1022F00080E00E94B00690E080E00E949A06109272
:10230000AA030E948F1086E0EFE4F2E0DF011D9245
:102310008A95E9F7109249021092480210924A02F7
:102320000C94830781FD05C08F9A8093AB030C94B6
:1023300077118F98FACF8091AB03982F96709630D3
:1023400019F488600C949211877FFCCF21E030E073
:1023500001C0220F8A95EAF720958091AB03822372
:102360000C9492119091F601809589238093F60147
:10237000282F277091F4282F082E000C330B92176A
:10238000130659F09091770392FD07C085958595C6
:1023900085950E94A6110C94440B089590917703A3
:1023A00092FB222720F9281769F080FB92F990937D
:1023B000770380917603909177030E94240F82E047
:1023C0000C94B211089521E030E001C0220F8A95EB
:1023D000EAF78091AB03822B0C94921190917703D2
:1023E00092FD10C098E0899F90011124622B6093A8
:1023F000F6010E94E3110E948E069093F5018093EE
:10240000F40108950C94E31180931A020C9477114F
:1024100010926D0280911901ECE7F1E0882359F0E8
:102420008091760387FF07C08EE1DF011D928A95B8
:10243000E9F70C94771186E0F8CF1F93CF93DF93E1
:10244000CDB7DEB7AA970FB6F894DEBF0FBECDBFEB
:1024500081EA93E02091F100DC012D93CD01B3E0FE
:10246000893A9B07B9F78091A203833009F472C0BF
:10247000B8F4813009F449C0823009F4B3C08091C6
:10248000E80083FF96C28091A1039091A2039A3045
:1024900008F08FC2E92FF0E0E152F04D0C94502F7C
:1024A0008A3009F48EC08B3009F471C0893039F755
:1024B0008091A103813219F78091A5039091A60321
:1024C000009711F00297D9F68091E800877F8093FA
:1024D000E8008091E80082FF38C09091F30080917D
:1024E000F200029731F48091F100813011F08630D2
:1024F00021F48091F10080937D038091E8008B7737
:102500008093E8000E946B05BACF8091A103813AC5
:1025100009F0B5CF8091E800877F8093E800809133
:10252000A5039091A603892B61F460E28EE793E006
:1025300070E00E941D068091E8008B778093E80090
:102540009ECF60E090E080E0F3CF8091A9038111FD
:10255000C0CF95CF8091A103813A09F090CF8091AF
:10256000A5039091A603892B09F089CF8091E800FB
:10257000877F8093E8008091E80080FFFCCF809106
:1025800019018093F1008091E8008E77B9CF809196
:10259000A103813209F073CF8091A5039091A60326
:1025A000892B09F06CCF8091E800877F8093E80049
:1025B0000E946B058091A303809319010E94081269
:1025C0005ECF8091A103813209F059CF8091E8005C
:1025D000877F8093E8000E946B058091A40380931D
:1025E0007C034DCF8091A103813A09F048CF8091BF
:1025F000E800877F8093E8008091E80080FFFCCFAF
:1026000080917C03BECF803899F0823809F0D1C127
:102610008091A5038F70873008F0CBC18093E900CB
:102620008091EB0085FB882780F91092E90006C0B5
:1026300080919E0390919F03911182609091E80098
:10264000977F9093E8008093F1001092F1008091C1
:10265000E8008E77AAC1882309F498C1823009F076
:10266000A8C18091A30381119BC18091A5038F70A4
:102670002FEF280F263008F09CC18093E9002091AD
:10268000EB0020FF8DC1933031F48091EB0080622C
:102690008093EB0085C19091EB0090619093EB00EB
:1026A00021E030E001C0220F8A95EAF72093EA008A
:1026B0001092EA008091EB008860EACF811179C125
:1026C0001091A3031F778091E3008078812B809382
:1026D000E3008091E800877F8093E8000E946B050B
:1026E0008091E80080FFFCCF8091E30080688093B8
:1026F000E30082E0111183E08093A9035AC180585E
:10270000823008F056C12091A3033091A4032C3DE0
:10271000E3E03E07A1F583E08A838AE289834FB72D
:10272000F894DE01139620E03EE051E2E32FF0E062
:1027300050935700E49120FF03C0E295EF703F5F94
:10274000EF708E2F90E0EA30C0F0C7968D939D9386
:102750002F5F243159F74FBF8091E800877F809326
:10276000E8006AE270E0CE0101960E941D068091A9
:10277000E8008B778093E8001CC1C096E7CF80917A
:10278000A5039091A603432F55274330510509F423
:102790004AC078F54130510509F485C08BE590E0D9
:1027A000E2E5F8E04230510509F003C12091E8006C
:1027B000277F2093E8002091A7033091A803821778
:1027C000930708F49C0140E02115310509F070C021
:1027D00041116EC08091E80082FDC9CF8091A903AC
:1027E000882329F2853019F28091E80083FFF2CF27
:1027F000BECF4132510509F447C04232510509F0BC
:10280000D8C08330910508F0D4C0FC01EE0FFF1F43
:10281000E559FE4F0190F081E02D88599E4FDC0173
:102820008C9190E01DC0332721303105E9F021154E
:10283000310579F022303105F9F02330310509F006
:10284000B8C0EFEBF8E0E4918E2F90E0EFEBF8E00A
:1028500007C0E9E1F9E0E4918E2F90E0E9E1F9E0C9
:10286000009709F4A6C0A2CFE7EFF8E0E4918E2F1D
:1028700090E0E7EFF8E0F4CFEDEDF8E0E4918E2F93
:1028800090E0EDEDF8E0ECCF8330910508F091C0D9
:10289000880F991FFC01EF58FE4F0190F081E02D49
:1028A00089E090E083CF82E190E0EDEAF8E07ECF2E
:1028B0008091A903882309F45ACF853009F457CFB2
:1028C0008091E80083FD53CF8091E80082FD82CFA4
:1028D0008091E80080FF78CF9091F3008091F20022
:1028E0002115310519F08830910550F041E0089725
:1028F00009F040E08091E8008E778093E80064CF93
:1029000044914093F1003196215031090196E8CF6E
:10291000803809F04EC08091E800877F8093E800FE
:102920008091A0038093F10092CE811142C010915A
:10293000A3031230F0F58091E800877F8093E800D0
:102940001093A0030E946B05112311F084E005C0D1
:102950008091E30087FDFACF81E08093A90342E0F4
:1029600061EC81E00E948A0542E261EC84E00E9411
:102970008A0542E261EC82E00E948A0542E260EC54
:1029800083E00E948A058091A90313C08091A3036C
:10299000813079F481E0933009F080E080939F03E7
:1029A0001092E9008091E800877F8093E8000E9400
:1029B0006B058091E80083FF0AC08091E800877F63
:1029C0008093E8008091EB0080628093EB00AA96F0
:1029D0000FB6F894DEBF0FBECDBFDF91CF911F9130
:1029E0000895E2E9F2E0128E138E8FEA90E091836F
:1029F000808325E0248F88E893E1938382838AE0B3
:102A000090E09583848344E150E05783468368E0F7
:102A100070E071876087938782874EE150E0558729
:102A200044879787868740E550E0518B408B738BB6
:102A3000628B68E270E0758B648B62E370E0778B89
:102A4000668B68EC70E0718F608F158E978F868F24
:102A500051A340A322A30E948F0E0E94081210923D
:102A600077031092760390E080E00E94240F0C948C
:102A70006D0D7F928F929F92AF92BF92CF92DF9215
:102A8000EF92FF920F931F93CF93DF93CDB7DEB7F3
:102A90002A970FB6F894DEBF0FBECDBFA090670295
:102AA000B090680281E090E09093680280936702A2
:102AB00086EDC82E84E0D82E00E0760110E015C027
:102AC000F40125913491472D612F802F0E94D70E5C
:102AD00082E0880E911C739480E17812F1CF80E23D
:102AE000E80EF11C1F5F153019F04701712CE8CF7B
:102AF0000F5F80EAC80ED11C0430F9F60E94F11471
:102B00001A8219821C821B821E821D8218861F82D5
:102B100088EC90E09A8789870BEC12E04AE050E05D
:102B2000B801CE0101960E94C52F065F1F4F0B31E1
:102B300083E0180799F7B0926802A09267022A967C
:102B40000FB6F894DEBF0FBECDBFDF91CF911F91BE
:102B50000F91FF90EF90DF90CF90BF90AF909F903C
:102B60008F907F90089580E00E940C0F60E086E2D5
:102B700090E00E94A12F0E9439150E94C70E81E0AB
:102B80000C940C0FCF92DF92EF92FF928FEF9FEF9A
:102B90004430510508F46AC0FB01C080D180E28056
:102BA000F3800E94081280917603C0FA80F9B70181
:102BB000A601769567955795479540FB81F9B70132
:102BC000A60122E076956795579547952A95D1F706
:102BD00040FB82F9B701A60133E0769567955795DA
:102BE00047953A95D1F740FB83F9B701A601E4E098
:102BF0007695679557954795EA95D1F740FB84F907
:102C0000B701A601F5E07695679557954795FA9532
:102C1000D1F740FB85F9B701A601A6E07695679547
:102C200057954795AA95D1F740FB86F9B701A601BC
:102C3000B7E07695679557954795BA95D1F740FBDC
:102C400087F98093760380917703D0FA80F9D1FADF
:102C5000CC24C0F8C0FA81F9809377038091760381
:102C6000909177030E94240F90E080E0FF90EF9016
:102C7000DF90CF900895882321F00E94300B0C94B0
:102C80008F100895882339F09091AA03982B909380
:102C9000AA030C948F100895882321F00E94370B0B
:102CA0000C948F100895882321F00E943E0B0C9401
:102CB0008F100895882309F452C0823871F40E945D
:102CC000C60681FF4CC089E30E94960B0E948F10BC
:102CD00089E30E946B0B0C948F10833859F40E9487
:102CE000C60680FF3CC083E50E94960B0E948F10B1
:102CF00083E5EFCF843859F40E94C60682FF2FC0C7
:102D000087E40E94960B0E948F1087E4E2CF9CEF2D
:102D1000980F913AF0F290E2980F983050F4877043
:102D200091E001C0990F8A95EAF7892F0E94370B2D
:102D3000D2CF9BE5980F933020F490E080E00C9484
:102D4000B00698E5980F973120F490E080E00C945D
:102D50009A06803F20F00E94AA070C9483070895EA
:102D6000CF93DF93EC010E945A16CE010E947B0C98
:102D70009E01205E31092830310510F0CD2B21F461
:102D8000DF91CF910C944C16DF91CF910C943B16B0
:102D9000CF93C82F882309F4AAC08238C1F40E94B7
:102DA000C60681FDA4C089E30E94960B0E948F1085
:102DB0002FEF81EE94E0215080409040E1F700C079
:102DC000000089E30E946B0BCF910C948F10833825
:102DD000A1F40E94C60680FD8AC083E50E94960B7E
:102DE0000E948F102FEF81EE94E0215080409040A0
:102DF000E1F700C0000083E5E5CF8438A1F40E942C
:102E0000C60682FD74C087E40E94960B0E948F1054
:102E10002FEF81EE94E0215080409040E1F700C018
:102E2000000087E4CFCF8CEF8C0F813A88F580913A
:102E30001901882301F18091760387FF1CC0EC2FD4
:102E4000E695E695E695F0E0E658FE4F828190E043
:102E50004C2F477021E030E002C0220F331F4A950B
:102E6000E2F782239323892B79F08C2F0E946B0B3E
:102E70000E948F1009C0ECE7F1E08191C817A9F317
:102E800021E0E238F207C9F78C2F0E94960B9CCF05
:102E900080E28C0F883048F4C77081E001C0880F51
:102EA000CA95EAF70E943E0B8FCFEBE5EC0FE330BB
:102EB00040F4F0E0EE5DFE4F808190E0CF910C9405
:102EC000B006E8E5EC0FE73150F4F0E0EE0FFF1F3D
:102ED000EB5DFE4F80819181CF910C949A06C03FAB
:102EE00030F08C2F0E94C508CF910C948307CF91AE
:102EF00008951F93CF93DF93182FC091B202D09102
:102F0000B302893321F0C091B002D091B102812F78
:102F10000E94C816209731F4812FDF91CF911F9125
:102F20000C945A168FE99FE00197F1F700C000005A
:102F30002197F0CF0F931F93CF93DF93C42FD22FFE
:102F4000FC0182818823A1F04093B8020E948E0682
:102F50009093B7028093B602C77081E001C0880FDA
:102F6000CA95EAF7DF91CF911F910F910C945316F8
:102F70001091B802141339C08091B6029091B70233
:102F80000E947F062091AA023091AB02821793071C
:102F900060F5C0E2CD0F1D17B9F080E2810F8830D7
:102FA00040F4177081E001C0880F1A95EAF70E947B
:102FB0004C16C83048F481E09D2F977001C0880FEF
:102FC0009A95EAF70E945316802F0E947917C8300D
:102FD00098F4D77081E001C0880FDA95EAF7DF91A5
:102FE000CF911F910F910C944C16C77081E001C0D6
:102FF000880FCA95EAF7F3CFDF91CF911F910F9118
:103000000895AF92BF92CF92DF92EF92FF920F930B
:103010001F93CF93DF93EC018AE0A82E288122230F
:1030200009F48CC02130C9F599818A81913021F44D
:1030300022960E94791705C0923029F422960E94A8
:10304000C8162196EBCF933021F422960E945A168F
:10305000F8CF943011F02196F4CF229630E020E0A2
:10306000AE014F5F5F4F8053990B8A30910550F04E
:103070002150310930F38FE99FE00197F1F700C04B
:103080000000F6CFA29EB001A39E700D11249C01FA
:10309000260F371F8981EA01E3CFE22FF0E0E650E7
:1030A000FE4FB490822F86958695869590E0FC0120
:1030B000E651FE4FE4902770F12C022E02C0F594E9
:1030C000E7940A94E2F731E0E322FF24FC01E652A0
:1030D000FE4FC490D12C022E02C0D594C7940A94FE
:1030E000E2F731E0C322DD24FC01E653FE4F0491F8
:1030F00010E002C0159507952A95E2F70170112797
:10310000E114F10419F081EE0E94C816C114D10433
:1031100019F086EE0E94C8168B2D0E947917CD28D3
:1031200019F086EE0E945A16EF2819F081EE0E94DF
:103130005A16012B09F485CF8CE27BCFDF91CF911A
:103140001F910F91FF90EF90DF90CF90BF90AF90C5
:103150000895CF93DF93EC010E947B0C9E01205ECB
:1031600031092830310510F0209739F40E945316A8
:103170008C2FDF91CF910C94C8160E944216F8CF85
:10318000662329F02091AA0322602093AA039C01C0
:103190003056211540E2340720F0305E21153041D1
:1031A00008F499270C94A918DF92EF92FF920F93DD
:1031B0001F93CF93DF937C018B01D42E8091180154
:1031C00082FF8CC0C0919002D0919102CE15DF0594
:1031D00021F0E114F10409F081C0809118018B7F86
:1031E0008093180181FD73C080918E0290918F02AF
:1031F000A801481B590B81E020911601309117015D
:103200004217530708F480E08170F82E809118016E
:10321000F0FA81F980931801FE0183E0F695E795B5
:103220008A95E1F7EE71FF27E259FD4F2081318148
:10323000AE014F70552781E090E002C0880F991FC2
:103240004A95E2F7FF2009F444C0822B932B918327
:10325000808380916D0281FF08C080911801806198
:103260008093180182E00E94370B80916D0285FFE8
:1032700008C08091180180628093180180E20E944A
:10328000370B6F2DCE010E94C018DD2031F08091E8
:10329000AD0285FF02C086FF3BC08091B0029091D5
:1032A000B1020E94630D80919002909191029C0165
:1032B0003056211540E2340720F0305E21153041B0
:1032C00008F499270E94B0160E9459111DC081E090
:1032D0009BCF8095909582239323B9CFC7019927DF
:1032E00097013056211540E2340728F0305E211551
:1032F000304108F0C7010E94B01680919002909171
:1033000091028E159F0501F310938F0200938E0298
:10331000DF91CF911F910F91FF90EF90DF90089573
:1033200069EE7EEF90E080E00E94BF2F60E082E0D7
:1033300090E00E94A12F60E083E090E00E94A12F26
:1033400010921A0260E084E090E00E94A12F60E0F9
:1033500082E290E00E94A12F60E085E090E00E9470
:10336000A12F60E086E090E00E94A12F6FEF87E040
:1033700090E00E94A12F40E050E0BA0188E090E088
:103380000E94B32F60E08DE090E00E94A12F40E00A
:1033900050E0BA0188E190E00E94B32F60E087E13D
:1033A00090E00E94A12F40E050E0BA018CE190E053
:1033B0000E94B32F70E060E080E290E00E94BF2F97
:1033C00040E050E0BA0188E190E00E94B32F80E035
:1033D0000E940C0F0E94B31540E050E0BA018FE04C
:1033E00090E00E94B32F40E050E0BA0183E190E00A
:1033F0000C94B32F8F929F92AF92BF92CF92DF9295
:10340000EF92FF920F931F93CF93DF9300D000D0E2
:10341000CDB7DEB77C01DC0113964D915C9114971A
:1034200011966C9111978C910E94EA0B8111E1C069
:1034300061E0C7010E94490E8C01F7018281811170
:1034400077C0D70112968C918111B1C00031FFE590
:103450001F0709F481C101312FE5120709F480C16A
:103460006801E7E5DE1A882309F47CC1FFEFCF1677
:10347000D10409F008F4A8C18091AD0280FF39C0E1
:103480000E948E066C01D70112968C91882309F454
:1034900018C28091180182FF08C023E332E040E0A7
:1034A000B60190E080E00E94D4180B31BCE51B0708
:1034B00009F4F9C10C31ECE51E0709F4FAC1909149
:1034C0001801892F8E7F90FF81600A31FCE51F076C
:1034D00009F4F2C1C8019056811520E2920728F044
:1034E000905E8115904108F0FAC1109291021092FD
:1034F0009002033FBCE51B0709F43CC308F0DFC2A0
:10350000083DFCE51F0709F42FC3093D2CE5120710
:1035100009F448C3073D3CE5130709F0DCC206E2A5
:1035200021EE41EE67ED7CE5C7010E949A1751C07C
:1035300080910C0190910D01019609F482CF7BEBF3
:10354000C72E72E0D72EB12CA12C99249394809190
:103550000C0190910D018A159B050CF472CFF601B8
:1035600086818823E9F0818592850817190739F447
:103570008091B9029091BA020817190789F0D60113
:103580001F969C921F971C961C930E931B97C60127
:103590000E943811C60106960E94F3101092AA03E9
:1035A000BFEFAB1ABB0AE6E1CE0ED11CD0CF98011B
:1035B00022513F452031310508F000C78FEF93E0DD
:1035C0000E94932F6EEED62ED00E0BE113E08823CF
:1035D00069F18091F601877061F0D70112968C91A4
:1035E000882339F08091770382FD03C082E00E9436
:1035F000B2110F900F900F900F90DF91CF911F910C
:103600000F91FF90EF90DF90CF90BF90AF909F9081
:103610008F9008950115F4E01F07D9F2C8010E94A8
:10362000932F811101C0DA940F5F1F4FD110F2CF99
:1036300019821A821B821C8299249A9468012FEFA6
:10364000C21AD20AC8010E94932F89831A82882342
:1036500009F4BFCF813009F073C0580132E0A30EE6
:10366000B11CC6010E94932FC82E8A83882309F4B7
:10367000B0CFC5010E94932FD82E8FEF8C0D8330D1
:1036800068F4580143E0A40EB11CDB82DD2021F078
:10369000CE0101960E9401188501D0CF8BEF8C0DD1
:1036A000833030F5C8010396DB825C01DD20A1F395
:1036B000580154E0A50EB11C0E94932F8C838823DF
:1036C00059F38B819C818130AFEF9A0710F0982FCE
:1036D0008827B6E0CB1631F0E7E0CE1631F00E9435
:1036E0000326DACF0E94D325D7CF0E944D25D4CF11
:1036F000F4E0CF12D1CF580124E0A20EB11CC801D2
:1037000003960E94932FDD2009F463CF882309F4E8
:1037100060CF8150990B989E9001999E300D112495
:103720004D2D4150550BCA01820F931F019708F48C
:10373000B3CFAFE9BFE01197F1F700C00000F6CFBB
:10374000CE0101960E9401185601A6CF81E00E9489
:10375000E3110E949B113DCF81E00E94A611F9CF99
:1037600082E0FBCF2FEFC216D10411F008F084CE17
:103770006DE572E08C2D0E94310F892B29F586E1D1
:103780008C9DF0018D9DF00D1124E554FD4F868137
:10379000813009F062C080915D0290915E02892BB8
:1037A00099F080915F0290916002892B69F080917D
:1037B0006102909162022091630230916402822B37
:1037C000932B892B09F453C080910C0190910D012A
:1037D0008C159D0524F4D0920D01C0920C01F701C7
:1037E000828196E19C9D50019D9DB00C1124950114
:1037F00025543D4F6901D90150968C935097928181
:1038000016968C911697992309F43FC01A961C932B
:103810000E9319978F5F16968C930E948E06F60171
:10382000968785878091190287838091AA0390915A
:103830006D02892B80870190F081E02D309741F057
:10384000D60154966D917C91C5018F539D4F09957A
:103850001093BA020093B9020FCE823009F0B4CFB0
:103860008091610290916202892B09F4ADCF26E12B
:103870002C9DC0012D9D900D112485549D4FDC0180
:1038800050961C920E9438119FCF882309F4F4CDE2
:10389000F9018189882309F4EFCDC5018F539D4F2C
:1038A0000E94F310E9CD8091180181608093180186
:1038B00011CE809118018E7F809318010E945911BA
:1038C00009CE809118018F7E013E110531F0053E31
:1038D0001105C9F4809118018F7D809318018091A2
:1038E000180180FF06CED70112968C91083211057F
:1038F00028F50E31110508F074C00430110580F56B
:103900008111F3CDF6CDC8019056811540E29407A0
:1039100020F0905E8115904110F78091180182FF90
:10392000E8CD8091AF0281FDE4CD23E332E040E0B9
:10393000B60190E080E00E94D418DBCD0933110578
:1039400058F40D32110518F40B321105C9F6909197
:10395000AD0292FDD5CF08C004361105C1F3D0CF1A
:103960009091AD0294FDCCCF882309F4A1C0909131
:103970006D0280911902282F292B322F3D7FB1F142
:1039800010929102109290023091AD0231FD2EC042
:10399000F80143E0F695E7954A95E1F7EE71FF27C8
:1039A000E259FD4F98012F70332781E090E002C06B
:1039B000880F991F2A95E2F7809590952081318193
:1039C000822393239183808360E0C8010E94C01802
:1039D000809119028D7F0E941C0B82E00E94B2111F
:1039E000F8CD9091AD0293FD8BCFBECF36E0F701BD
:1039F000A3E3B2E001900D923A95E1F710923502FF
:103A00001092370210923602A0909002B09091026C
:103A10000A151B05B1F53091AD0235FF32C040915A
:103A2000180141FB992490F841FF02C036FF29C0DC
:103A300040918E0250918F02B601641B750B40912C
:103A4000AA025091AB0264177507D8F491FF08C021
:103A50008091180180618093180182E00E94370BE9
:103A600080916D0285FF08C080911801806280936B
:103A7000180180E20E94370B692DC5010E94C01811
:103A8000A8CD9091180121FB91F9909318018D7F99
:103A90000E941C0B1093910200939002D0928F020F
:103AA000C0928E028091180184608093180195CF96
:103AB000970140E0B601C8010E94D4188ACD053FA5
:103AC0004CE5140709F462C008F45AC0063F8CE5BF
:103AD000180709F461C0D70112963C91332309F409
:103AE00079C41092B8020330BDE51B0708F060C02E
:103AF0000A3FECE51E0730F4C80182509C4544970C
:103B000008F060C00E946B0E909377038093760359
:103B100001313CE5130709F476C108F0F3C0093020
:103B20005CE5150709F45DC108F0C0C005309CE5EF
:103B3000190709F44EC108F0A6C00330BCE51B0705
:103B400009F43DC108F041C18091760381600230E3
:103B50001C4509F437C180917603909177030E9448
:103B6000240F0E94081235CD07E225EE45EE68EDE0
:103B70007CE5DACC06E221EE40EE63EF7CE5D4CCC6
:103B800007E225EE44EE64EF7CE5CECC06E221EEC2
:103B900042EE65EF7CE5C8CC07E225EE46EE66EF27
:103BA0007CE5C2CC08E221E045EE69ED7CE5BCCCC9
:103BB0000136FDE51F0709F4A5CF053A2DE51207EB
:103BC00009F4A0CF06318CE5180709F407C40A35BB
:103BD0008DE5180709F46DC108F049C10115ACE580
:103BE0001A0709F456C10E3D1C4509F45FC1F701DF
:103BF000828100811181882309F45FC1C8010E947C
:103C0000DE0DD82E682FC8010E942B0CB8018D2D17
:103C10000E94C20D0E948909182F092F882ED701F2
:103C20001296DC9012971596CC90C2943FE0C32276
:103C30008091F6018770C1F0AD2CDD20B1F0892FA5
:103C4000807F803421F080E2810F883068F080919D
:103C5000770382FD09C082E00E94B2118091F601D3
:103C60008770AA24A3948111A12C902E92942FE006
:103C70009222BBE0B91508F49CC1E92DF0E0E751B0
:103C8000F04D0C94502F80917603806207302CE524
:103C9000120709F497C080917603806108301C45B3
:103CA00008F490C08091760380648CC08091760384
:103CB0008B7F0D304CE5140709F484C080F40B3081
:103CC0008CE5180709F493C0809176038C600C3062
:103CD0001C4508F477C0809176038D7F73C0809176
:103CE00076038F7E0F30ACE51A0709F46BC0809124
:103CF0007603877F00311C4508F464C08091760309
:103D00008F7D60C00D3FECE51E0709F478C050F5CB
:103D100005312CE5120709F480C098F480917603F0
:103D2000837F03314CE5140709F44CC008F46FC0DD
:103D30000E94081290917603892F97FB87F980588B
:103D400041C00B3F8CE5180709F447C008F053C089
:103D50008091770381600A3F1C4509F0FCCE809377
:103D60007703F9CE0130BDE51B0709F462C0B8F452
:103D7000809177038C7F0F3FFCE51F0781F38091D3
:103D80007703836001151D4550F380917703982FC9
:103D9000909591708E7F892B90FB81F9E0CF013651
:103DA0003DE5130709F44BC0053A4DE5140709F446
:103DB0004DC002301D4509F0CECE60E03BC0809181
:103DC0007603826080937603C6CE8091760384600A
:103DD000F9CF809176038860F5CF80917703826078
:103DE000BECF0E940812809176038068EBCF80914D
:103DF00076038E7FE7CF809177038E7FB0CF80915F
:103E000077038D7FACCF809176038F7BDBCF0E94D1
:103E10000812809176038F77D5CF8091760382FB4D
:103E2000992790F921E0922790FB82F990FB83F982
:103E3000C9CF61E08EE090E00E94A12F8CCE9091DE
:103E40007603892F8F7E94FF8061BCCF909176039B
:103E5000892F8E7F90FF8160B5CF80919A0181116B
:103E600004C089E20E946B0BE4C285E3FBCF0B35F3
:103E7000EDE51E0701F10C351D4509F0B8CE809126
:103E8000770382FB882780F991E089270E94CE1171
:103E9000AECE0E9408122FEF34E34CE021503040A8
:103EA0004040E1F700C000000E943F0D0E949019C1
:103EB00090CB81E0EBCF80E0E9CFC8010E94FF0BFF
:103EC000D82EA4CEE02FEF70BE2E802F807F19F069
:103ED000B29490EFB922DD20A9F0BB2059F080E226
:103EE000810F883010F0811007C08B2D0E943E0B8F
:103EF0000E948F10812F5BC08091AA03B82AB092D4
:103F0000AA03F6CF812F0E945A16BB2009F451C094
:103F100080E2810F883010F0811004C08B2D0E9448
:103F2000370B03C08B2D0E94300B0E948F1041C0B5
:103F3000F02FFF70BF2E802F807F803219F0B29457
:103F400080EFB822882029F121E0821609F4A6C06A
:103F5000DD2009F4AFC0CC2009F47FC020E0D701F8
:103F60004C9111965C91119712966C911297139641
:103F70007C91139714968C910E94200E8091AF0231
:103F800081FDB8CFF701858180FFB4CF8F70858325
:103F900064C08091770382FF42C0DD20D1F1BB2055
:103FA00029F08B2D0E943E0B0E948F1080E00E9412
:103FB000C816292D2850330B2430310520F40E94D7
:103FC000C6060E94750C812F902F0E945A0C8111F9
:103FD000CFC110929C0110929B01AA20A9F0809160
:103FE000F60180FD11C0F7011282859585958595B2
:103FF0000E94E311C7010E94FA198091F60185958C
:10400000859585950E94A61160E0C7010E94490E22
:10401000F0CA80E00E945A16BB2059F27FCFDD2003
:1040200001F1C11004C0809119028B2917C031E041
:10403000C31206C0809119028B290E941C0BB9CFB4
:104040008091AE02823078F3C812EDCF0E94110B3E
:104050008091F301B812B092F3018B2D0E94531698
:10406000A8CFC11006C00E94110B8B2D0E944C16C8
:10407000A0CF8091AE0241E0C4120BC0823008F4A0
:1040800098CF80916D028B2109F493CF0E94650B2C
:10409000EACF823040F38C11E6CF8BCF8091B4020F
:1040A000DD2021F08C1508F484CFD7CFC81608F096
:1040B00080CFDBCFCC20C9F2F9E38F1251C18091C0
:1040C000B2029091B3020E94630D812F0E945A1692
:1040D00070CF802F86958695837069F0813009F0C6
:1040E00068CF812F902F9370D11002C090E080E0B4
:1040F0000E949A065ECF812F902F9370D11002C03C
:1041000090E080E00E94B00654CF812FDD2029F09E
:104110000E94C5080E9483074CCF0E94AA07FACFCD
:10412000802F837091F5D11044CF412F4295469551
:104130004770440F440F812F8F70042E01C0880FE9
:104140000A94EAF7212F207114FF07C02FE030E016
:1041500001C0220F4A95EAF72095302F3695369503
:104160003370323069F050F440911A02313029F046
:10417000822B84230E9404121CCF842B822BFACF23
:10418000282B80911A028227F5CF8695DD2011F029
:10419000802F8170882309F40CCF412F42954695DA
:1041A0004770440F440F812F8F70042E01C0880F79
:1041B0000A94EAF7212F207114FF07C02FE030E0A6
:1041C00001C0220F4A95EAF72095302F3695369593
:1041D0003370323069F050F44091AB03313029F044
:1041E000822B84230E949211E4CE842B822BFACF5F
:1041F000282B8091AB038227F5CF202F2F70B22E72
:10420000DD2029F0822F0E94E311812F27CF812FFB
:104210000E944C168B2D0E94A611CBCE812F32EF1F
:104220008316B1F1381570F040EF8416D1F051EFDC
:10423000851691F0DD2009F48EC0C1105BCE802F71
:104240008F712AC093EF891651F1A4EF8A12F2CF31
:104250008091770382FF2FC0802F8F71DD20D9F2EC
:104260001BC08091B402DD2079F0C81608F0A1CE01
:10427000202F2F7181E090E001C0880F2A95EAF786
:104280009091AB038927AECF8C1508F492CEF0CF76
:10429000802F8F71D110BFCF0E94E3118ACE80E0B2
:1042A000DD2009F49FCF81E0902F9F7101C0880F1E
:1042B0009A95EAF797CF8091AE028230A0F1809173
:1042C000F301DD20F1F00E94370B8091F601877039
:1042D000843041F40E94440B802F8F710E94A611FC
:1042E000A12C67CE8091AE02C816D0F7B02FBF7157
:1042F000BB2E8B2F0E94E31163E08B2D0E94EE11E9
:10430000EFCF0E943E0B8091AE02C81640F00E9493
:10431000440B0E94650B64E0802F8F71EFCF81E02A
:104320000E94B211DDCFDD2059F0E02FEF71BE2EDB
:104330008E2F0E94E31163E08B2D0E94EE1139CE87
:1043400081E00E94B211F1E0FC1508F032CE82E06B
:104350000E94B2112ECECC2041F0893309F4AFCEA9
:104360008091B0029091B102AECE802F8F7153CF69
:10437000DD2019F0C1102DCE30CEC1102ACE20E0A4
:10438000D7014C9111965C91119712966C911297EE
:1043900013967C91139714968C910E94200E809115
:1043A000AF0283FF16CE80919B0190919C010297F2
:1043B00009F00FCE812F0E9479170BCE00313FE517
:1043C000130709F4C3C901314FE5140709F048C8C0
:1043D00082E0BDC906311C4509F009CC80916D020F
:1043E000982F9A7A2091AC0220FF04C0482F447481
:1043F00009F090E021FF04C0482F417109F090E0DE
:1044000022FF04C0482F487809F090E023FF03C042
:10441000827209F090E0332309F41FCD81E09111FD
:1044200001C080E080939A0189E2911185E30E94A6
:10443000960B0E948F10CDC8BF92CF92DF92EF9261
:10444000FF920F931F93CF93DF938091C001807FE2
:1044500061F48091BD01882341F0C091F20186E0B2
:10446000B82E8091C1018C130AC0DF91CF911F91AA
:104470000F91FF90EF90DF90CF90BF900895F09054
:10448000BB01E090BC01C090BE01D090BF01A6016D
:104490006E2D8F2D0E94EA0BD0E081113DC0BC9E95
:1044A0008001BD9E100D1124F801EE53FE4F818155
:1044B0008E1132C080818F112FC0828181112CC05A
:1044C000E380F480EC18FD0860E08BEB91E00E9443
:1044D000490E8091AA029091AB02E816F906E0F429
:1044E0008091C0018F7080618093C001F801E95311
:1044F000FE4F80818F70806180838BEB91E00E9402
:10450000FA19DF91CF911F910F91FF90EF90DF90FB
:10451000CF90BF900C94F50B2196C770A2CF3F921D
:104520004F925F926F927F928F929F92AF92BF92C3
:10453000CF92DF92EF92FF920F931F93CF93DF936F
:10454000CDB7DEB761970FB6F894DEBF0FBECDBF13
:104550008C0185E0F801DE011D9601900D928A958F
:10456000E1F7D8014C9011965C9011971296EC905F
:1045700012971396CD90DC9060E08BEB91E00E9457
:10458000490E8BEBA82E81E0B82E8090BE01909052
:10459000BF01A4016091BC018091BB010E94EA0BA4
:1045A000811197C1F090BD01F601E819F9094F0199
:1045B00060E0FF2009F443C1C5010E94490E6090EC
:1045C000AA027090AB023090C0018614970408F0E4
:1045D000F8C04091BE015091BF01B090BB01A090C6
:1045E000BC01832D807F6A2D09F0A3C08B2D0E9412
:1045F000EA0BFE2C811131C0D80111968C911197D4
:104600008A112BC08C918B1128C0E11026C0832DFC
:104610008F7080618093C0018BEB91E00E94FA194A
:104620008091C001F80185838F2D61960FB6F894B3
:10463000DEBF0FBECDBFDF91CF911F910F91FF90D5
:10464000EF90DF90CF90BF90AF909F908F907F9032
:104650006F905F904F903F900895F4EF6F16F1E0E8
:104660007F0620F48091AF0280FF21C0A601652D56
:10467000842D0E94EA0B811118C081E08E2580FFF5
:1046800016C04E2D652D842D0E94CA0B882379F00B
:104690008BEB91E00E94FA1986E0EBEBF1E0DF0191
:1046A0001D928A95E9F7F12CBFCF80E0E8CFA601F3
:1046B000652D842D0E94EA0B811124C081E08E2596
:1046C000B82FB170CB2E80FF2BC04E2D652D842DC1
:1046D0000E94CA0BD82E811123C04D865E868D851F
:1046E0009E850E940D0E292F22952F70223060F09A
:1046F000243088F49F7061F0F8019581907F41F437
:10470000FD2C92CF80E0DCCF9F7011F08823C1F3A5
:10471000805E8830A8F3C8010E94FA19DC2CF0CF23
:10472000EE2009F481CF8091C00181608093C001A7
:10473000BACF8B2D0E94EA0B811119C0D8011196B6
:104740008C9111978A1113C08C918B1110C0E110BC
:104750000EC015963C92C8010E94FA1986E0F80135
:10476000ABEBB1E001900D928A95E1F75DCFC80106
:104770000E94190E882309F1EE20F9F08091C00102
:10478000803270F02091BB013091BC0138872F83BB
:104790001986DB86CA868C87CE0107960E94FA1995
:1047A00086E0F801ABEBB1E001900D928A95E1F75C
:1047B0000E941C22FF24F39437CFC8010E94FA19EB
:1047C000F9CF832D807F09F463CF9090BB01809057
:1047D000BC014091BE015091BF01682D892D0E94FE
:1047E000EA0B811113C0F801818188110FC080810B
:1047F00089110CC0E1100AC03582C8010E94FA1963
:1048000086E0D5011D928A95E9F70ECFC8010E9476
:10481000190E882391F2EE2081F28091C00180323E
:1048200008F4BECF2091BB013091BC013A832983AB
:104830001B82DD82CC828E83CE010196AFCF8BEBC3
:1048400091E00E94490E8091AA029091AB028816D5
:104850009906B0F6FE2CEE2009F4AFCFE090BB0134
:10486000D090BC014091BE015091BF016D2D8E2DA5
:104870000E94EA0B81111FC0F80181818D111BC0BC
:1048800080818E1118C08091AF0282FD67CF909118
:10489000C00190FD63CF907F09F460CF8091C0018B
:1048A0008583903F09F457CF982F907F905F8F704A
:1048B000892B858350CFC8010E94190E811170CFBA
:1048C0008091C00181608093C001C8010E94FA19E3
:1048D000ABCEEE2009F471CFC8010E94190EF82E5C
:1048E000882309F46ACF86E0F801ABEBB1E00190D0
:1048F0000D928A95E1F78091BB019091BC010E94D5
:104900000D0E0E941C2290CE1F93CF93DF93CDB744
:10491000DEB767970FB6F894DEBF0FBECDBF942FFA
:104920004B8B252F5C8B6D8B7E8B8F8B4E895F899C
:10493000622F892F0E94EA0B811109C080919B018F
:1049400090919C01019690939C0180939B018D898D
:1049500081111092AA031A8A198A85E0FE017396C2
:10496000DE011D9601900D928A95E1F78091770303
:1049700082FD1EC08091940290919502892BC1F016
:104980000E948E062091F4013091F501821B930B59
:1049900020919402309195028217930720F0809124
:1049A000F60182FF76C00E944B0B81110E94110B11
:1049B00086E0FE013D96DE01179601900D928A95E4
:1049C000E1F7CE0107960E948F22811111C086E087
:1049D000FE013796DE01119601900D928A95E1F75E
:1049E0004A855B8568858F810E94EA0B882389F060
:1049F00016E08091F2019091C101891337C067964A
:104A00000FB6F894DEBF0FBECDBFDF91CF911F91DF
:104A100008952091C10130E0C9010196877099275E
:104A20004091F2014817190699F096E0929FD00143
:104A3000939FB00D1124AE53BE4FFE0131960190ED
:104A40000D929A95E1F78093C1010E94F50BD0CFAA
:104A50000E9408121092C1011092F20186E0EBEB65
:104A6000F1E0DF011D928A95E9F7C2CF819FC00175
:104A700011248E539E4F0E948F22882309F4BFCFAA
:104A80008091F20190E00196877099278093F2015E
:104A9000B0CF82E00E94B21186CFCF93DF9300D0D7
:104AA00000D00F92CDB7DEB790936A02809369026F
:104AB000811520E2920748F40F900F900F900F900D
:104AC0000F90DF91CF910C94B0168EEF89838A837B
:104AD0001B820E948E068160782F9D838C83498182
:104AE0005A816B818D810F900F900F900F900F90D6
:104AF000DF91CF910C9484240F931F93CF93DF9376
:104B00008C01EB016DE572E08C2F0E94310F892B37
:104B1000A1F48091B0029091B1020E94630DDD2753
:104B2000CB5ADD4F8881F80110821882833009F159
:104B300048F4813059F0823081F0DF91CF911F919C
:104B40000F9108958430D1F08530B9F780915D02DE
:104B500090915E02009789F306C080915F02909168
:104B60006002009799F3DF91CF911F910F910C9400
:104B70004D258091610290916202F3CF8091630292
:104B800090916402009779F720915D0230915E0266
:104B900080915F029091600221153105D9F2009752
:104BA00011F7C901E0CFCF93DF9300D000D00F926F
:104BB000CDB7DEB790936A0280936902811520E237
:104BC000920748F40F900F900F900F900F90DF9185
:104BD000CF910C94A9188EEF89838A8381E08B830F
:104BE0000E948E068160782F9D838C8349815A8133
:104BF0006B818D810F900F900F900F900F90DF9130
:104C0000CF910C948424CF93DF93EC010E94D325A1
:104C10008091B0029091B1020E94630DCE01DF91AC
:104C2000CF910C944D250F931F93CF93DF938C015D
:104C3000862F6DE572E00E94310F892BC9F4C09177
:104C40005D02D0915E02209799F0F8018081833057
:104C500069F4CE010E940326CE010E940326CE01F4
:104C6000DF91CF911F910F910C9403268430B8F7F8
:104C7000DF91CF911F910F9108950F931F93CF93C1
:104C8000DF938C01EB016DE572E08C2F0E94310FF8
:104C9000892B09F064C0FE01FF27D8018C91EB5AE3
:104CA000FD4F8130D9F419969C911997992311F0F1
:104CB00080830CC01A969C919923D1F382E0808363
:104CC00080915F02909160020097D9F480915D021B
:104CD00090915E02009709F442C013C08230E9F55A
:104CE00019968C91199781112DC01A968C9181116A
:104CF0000EC083E0808380916102909162020097F0
:104D000019F1DF91CF911F910F910C94D32584E07D
:104D100080838091630290916402009791F7809163
:104D20005D0290915E020097F9F00E940326809147
:104D30005F0290916002009721F780915D0290914F
:104D40005E02DFCF85E0808380915D0290915E02FC
:104D5000009729F00E940326F0CF86E08083DF9140
:104D6000CF911F910F91089580915F029091600201
:104D7000B1CF1F920F920FB60F9211242F933F9332
:104D80004F935F936F937F938F939F93AF93BF9353
:104D9000CF93DF93EF93FF93D091E900DF70809181
:104DA000EC00C82FC17080FDC0E81092E90080912E
:104DB000F000877F8093F00078940E941D1210927B
:104DC000E9008091F00088608093F000CD2BCF70D7
:104DD000C093E900FF91EF91DF91CF91BF91AF9127
:104DE0009F918F917F916F915F914F913F912F9103
:104DF0000F900FBE0F901F9018951F920F920FB635
:104E00000F9211242F933F934F935F936F937F9350
:104E10008F939F93AF93BF93EF93FF938091E100A4
:104E200082FF09C08091E20082FF05C08091E1000D
:104E30008B7F8093E1008091DA0080FF24C0809115
:104E4000D80080FF20C08091DA008E7F8093DA0046
:104E50008091D90080FF9DC080E189BD82E189BD3C
:104E600009B400FEFDCF81E08093A90380917B030C
:104E7000811109C00E94C9040E94BC058091E20012
:104E800084608093E2008091E10080FF17C08091F0
:104E9000E20080FF13C08091E2008E7F8093E200E9
:104EA0008091E20080618093E2008091D80080626E
:104EB0008093D80019BC85E08093A9038091E1001C
:104EC00084FF2BC08091E20084FF27C080E189BD70
:104ED00082E189BD89B5982F917080FFFBCF8091C9
:104EE000D8008F7D8093D8008091E1008F7E8093E1
:104EF000E1008091E2008F7E8093E2008091E200E9
:104F000081608093E2008091A003882309F447C068
:104F100084E08093A9038091A9038091E10083FF3D
:104F200027C08091E20083FF23C08091E100877F4A
:104F30008093E10082E08093A9031092A003809106
:104F4000E1008E7F8093E1008091E2008E7F80936C
:104F5000E2008091E20080618093E20042E060E044
:104F600080E00E948A058091F00088608093F000C4
:104F7000FF91EF91BF91AF919F918F917F916F9131
:104F80005F914F913F912F910F900FBE0F901F9007
:104F9000189519BC1092A90310927B0374CF8091CD
:104FA000E30087FD93E09093A903B5CF78941F9217
:104FB0001FB61F9211248F939F93AF93BF9380913D
:104FC000720390917303A0917403B09175030196DD
:104FD000A11DB11D8093720390937303A09374037A
:104FE000B0937503BF91AF919F918F911F901FBE9A
:104FF0001F9018951F921FB61F9211248F939F9395
:10500000AF93BF9380917103811113C0809172039C
:1050100090917303A0917403B09175034196A11D03
:10502000B11D8093720390937303A0937403B093A4
:105030007503BF91AF919F918F911F901FBE1F90DD
:105040001895CDB7DEB7E4970FB6F894DEBF0FBE64
:10505000CDBF84B7877F84BF0FB6F894A8958091A1
:105060006000886180936000109260000FBE80E84D
:1050700090E00FB6F89480936100909361000FBEAA
:1050800085B7806885BF85B7806885BF8DE299E068
:1050900090937901809378010E94450F0E946D0DD5
:1050A000879A0E94C9040E94BC058091E200846036
:1050B0008093E20078948091A9038823A1F0109155
:1050C000E9001F709091EC00892F817090FD80E8BD
:1050D000182B1092E9008091E80083FD0E941D12B8
:1050E0001F701093E90082E084BD93E095BD9AEFB4
:1050F00097BD80936E000E94520E811102C00E94E3
:10510000B31503E511E0E8E5EE2EE1E0FE2ED8014F
:105110008D918D018F3F11F00E942F09E016F1064D
:10512000B1F708E511E078E6E72E71E0F72EF80117
:1051300081918F018F3F11F00E942F09E016F10637
:10514000B1F78AE0EEE3F2E0DF01282F1D922A9505
:10515000E9F7EEE1F2E0DF011D928A95E9F790E0D0
:1051600080E00E949B2F893E9E4F21F40E94520EA8
:10517000811102C00E94901982E090E00E94932F5A
:10518000809328020E946B0E90937703809376039E
:105190000E949B0FEFEFF6E721E0E150F040204046
:1051A000E1F700C000000E949B0F80913E0280FF4B
:1051B00008C06FEF7FEF90E080E00E94BF2F0E9459
:1051C0003F0D83E090E00E94932F0E940412809193
:1051D000AB0381FDD8C08F9A869A8E9A80E091E0C9
:1051E00090936E0380936D038E010F5F1F4F80912C
:1051F000A90350E1E52E62E1F62E853009F402C1E3
:105200000E949B0F882359F08FB7F8944091720346
:105210005091730360917403709175038FBFAEE377
:10522000B2E0E9E2F2E0F12CE12C7E2D8D919D912E
:10523000219131912817390709F4F6C02827392719
:1052400060E0CC24C394D12CA9014C215D21452BD5
:1052500009F4E4C06BA77CA79C012C213D2191E0BF
:10526000232B09F490E09DA70E948E068160782F81
:105270009FA78EA74BA55CA56DA58FA50E94842432
:10528000F701EE0FFF1FE75DFD4F80819181C8267A
:10529000D926D182C08280910C0190910D01F12C10
:1052A000E6E1EE2E019609F007C18091AD0280FD86
:1052B0000DC186E0EFE4F2E0D80101900D928A95ED
:1052C000E1F7C0905102D0905202E0905302F0906A
:1052D00054021092510210925202109253021092F4
:1052E00054028C2D8D2909F41BC180914D0290919F
:1052F0004E020E947F06AC0190914902992309F465
:1053000005C1809114018417150608F009C19F3F5B
:1053100019F09F5F90934902CC2059F00E946608D3
:105320009FEF1C140CF491E0899F802D1124809331
:105330005102DD2059F00E9466089FEF1D140CF405
:1053400091E0899F802D1124809352023091510267
:10535000332309F4E5C020915202222309F4E0C06E
:1053600045EB3403C0011124992309F429C190931A
:10537000510245EB240390011124332309F424C185
:1053800030935202CDC08F9827CF8091A9038430EB
:1053900039F180E00E94750C1092710388E190E071
:1053A000A0E40FB6F894A895809360000FBEA09378
:1053B000600083B7817F846083BF83B7816083BFD0
:1053C0007894889583B78E7F83BF0FB6F894A8959D
:1053D00080916000886180936000109260000FBE31
:1053E00080919F03882371F00E949B0FEEE3F2E00F
:1053F00081919191892B09F0DFC428E432E02E17C6
:105400003F07B1F78091A903853009F4BECF0E9410
:1054100008120E94C6060E94750CF2CE6F5FCC0C7B
:10542000DD1C603109F010CF3FEFE31AF30A45E0CD
:10543000E416F10409F0F9CE8FEF88AB89AB1AAA14
:105440000E948E068160782F9CAB8BAB48A959A92E
:105450006AA98CA90E9484241ECFE89EF001E99ECF
:10546000F00D1124E554FD4FC288D388C114D10436
:1054700021F4C090AA02D090AB02E89EF001E99E10
:10548000F00D1124E554FD4F86818823A1F0858518
:1054900096850E947F06C816D90668F4FE9C6001B6
:1054A0001124C60185549D4F0E943811C6018F53A7
:1054B0009D4F0E94F310F3948F2D90E020910C01EA
:1054C00030910D012817390744F6EFCE809118016D
:1054D00082FFEFCE0E948E0620918E0230918F02C5
:1054E000AC01421B530B209116013091170142175A
:1054F000530708F4DECE23E332E041E0BC018091A3
:105500009002909191020E94D418D3CE209115015F
:10551000BAE02B9F900111242417350708F4F9CE27
:105520008E2D8F2909F45EC080914B0290914C0220
:105530000E947F06AC0190914802992309F448C06B
:10554000809110018417150608F04CC09F3F19F098
:105550009F5F90934802EE2059F00E942D089FEF24
:105560001E140CF491E0899F802D11248093530226
:10557000FF2059F00E942D089FEF1F140CF491E0BA
:10558000899F802D1124809354023091530233233C
:1055900049F120915402222329F145EB3403C00143
:1055A0001124992309F47BC09093530245EB240303
:1055B00090011124332309F476C03093540212C0B1
:1055C00081E080935102D5CE81E080935202A8CF32
:1055D000209111018AE0289F90011124241735079A
:1055E00008F4B6CF8091510290915202892B90918C
:1055F0005302892B90915402892B11F00E9483074A
:1056000086E0F801AFE4B2E001900D928A95E1F7EF
:105610000E94C60690913902891721F080933902C1
:105620000E94750C8091A903843009F0E0CD83E0DD
:105630008093E9008091E80082FFD9CD8091E80055
:1056400090E085FF09C00E94E80470E2C72ED12CCB
:1056500078018823A9F191E08091E8008B7780930D
:10566000E800992309F4C3CDE0906B02F0906C023E
:105670008981E114F10491F18E3F09F0BBC08A8168
:10568000833020F08550833008F0B4C0EA81EE30DA
:1056900008F0B0C0F0E0EB50F04D0C94502F81E0DA
:1056A0008093530283CF81E0809354029BCF8091FB
:1056B000F100D7018D937D01B1E0CB1AD10859F2E9
:1056C0008091E80085FDF3CF8091E8008B7780938F
:1056D000E8000E94E804882399F3BDCF8C3009F4D8
:1056E000E9C048F5843009F4CCC050F4823009F4A4
:1056F00067C008F0B7C0813009F45EC08FEF81C386
:10570000863009F4D4C008F4C7C08B30B9F7809153
:10571000670290916802892B09F46CC0C8010E944D
:105720004305FFEF21EE34E0F15020403040E1F737
:1057300000C0000044CD803109F4EBC088F58E3004
:1057400009F4BEC008F4B9C0809167029091680264
:10575000892B09F44FC0EC80F12C3DE1E316F104F4
:1057600008F048C0CA80DB80DC24CD24DC2458014A
:10577000E00EF11EC601855E9C4FEA14FB04D1F1D8
:1057800045EEC416D10428F4D50114966C910E94FC
:10579000A12FBFEFAB1ABB0AEFEFCE1ADE0AEACF9A
:1057A000823109F4BBC008F4B7C0833109F4DFC00B
:1057B0008E3F09F0A3CF6ACF1A8289E08B831AC08B
:1057C0008A81823009F43CC38330C1F0813009F012
:1057D00095CF2FB7F8946091720370917303809105
:1057E0007403909175032FBF0E94562F6B837C83A7
:1057F0008D839E83C8010E944305F9CC8091670286
:1058000090916802892BB1F380913E0290913F0202
:105810009827892798279C838B83809140029091B9
:1058200041029827892798279E838D838091420281
:105830009091430298278927982798878F83809192
:105840004402909145029827892798279A8789874B
:1058500080914602909147029827892798279C8734
:105860008B87C8CF8A81823009F048CF6B817C81D9
:105870008D819E810E94562F86E290E00E94A12F8A
:10588000B9CF4C816B818A810E94930D982789271B
:1058900098279E838D83AECF2D813E81322723278B
:1058A00032274C816B818A810E94D70EA3CF0E9440
:1058B0003915A0CF80E18A839DCF1A8285EE7ECFF5
:1058C000EC80F12CEDE1EE16F10408F093CFCA80E4
:1058D000DB80DC24CD24DC245801E00EF11EC6015F
:1058E000855E9C4FAE14BF0409F484CFF5EECF164D
:1058F000D10460F40E94932FD50114968C93FFEF8E
:10590000CF1ADF0A2FEFA21AB20AE9CFF5011482EB
:10591000F6CF0E94C70E6ECF84E0CDCFEC80F12C85
:10592000FDE1EF16F10408F065CFCA80DB80DC24CE
:10593000CD24DC245801E00EF11EC6018796AE147A
:10594000BF0409F457CF20E8C21622E0D20660F463
:105950000E94932FD50114968C93FFEFCF1ADF0A84
:105960002FEFA21AB20AE9CFF5011482F6CFCC804C
:10597000D12C3DE1C316D10408F03CCFEA80FB8076
:10598000FE24EF24FE2440E8E41642E0F40608F08A
:1059900031CF80E892E08E199F098C159D0508F49F
:1059A00029CF370187E2680E711C809167029091C0
:1059B000680227014C0C5D1C892BA1F5570191E071
:1059C000A922BB24E0FE0DC0C70186960E94932F3A
:1059D0009D8189279827892781159C4511F48FEF90
:1059E0008D83460140FE17C0B1E08B1A910865E037
:1059F000262E312C2C0E3D1E280C391CC3018C0D7B
:105A00009D1D0E94932FF101908181159C4519F4F1
:105A10008FEFD1018C93F801EA0DFB1D2FEFA81435
:105A2000B90410F068011CC09481858181159C45E2
:105A300011F42483258332E0A30EB11C3296EFCFFC
:105A400040E8E41642E0F40628F4D60114966C917E
:105A50000E94A12FBFEFCB1ADB0AEFEFEE1AFE0A6E
:105A6000C70187964E145F0459F7C4CE88E0EAE177
:105A7000F1E0DE01919601900D928A95E1F780E2C6
:105A8000D8011D928A95E9F785E0898388E0FE01B7
:105A9000B196DE01159601900D928A95E1F7AACE96
:105AA0008CE5898382E08A831B821C82A3CE8C8151
:105AB000682F70E0762F66278B81860F972F911DB8
:105AC000092E000CAA0BBB0B55E0880F991FAA1FCB
:105AD000BB1F5A95D1F7AC01BD01405E5F4F6F4FC0
