:100000000C94D1020C9409030C9409030C94090379
:100010000C9409030C9409030C9409030C94090330
:100020000C9409030C9409030C949D210C947122E7
:100030000C94CD1B0C9409030C9409030C94090334
:100040000C9409030C9409030C9409030C94090300
:100050000C9409030C94531C0C9409030C9409038D
:100060000C9409030C9409030C9409030C940903E0
:100070000C9409030C9409030C9409030C940903D0
:100080000C9409030C9409030C9409030C940903C0
:100090000C9409030C9409030C9409030C940903B0
:1000A0000C9409030C9409030C94090329001E0005
:1000B0001F0020002100220023002400250026002C
:1000C00027002D002E002A004C004A002B001400AF
:1000D0001A000800150017001C0018000C00120080
:1000E00013002F003000310000004D0039000400E3
:1000F0001600070009000A000B000D000E000F009B
:10010000330034000100280000004B00E100010032
:100110001D001B000600190005001100100036002C
:1001200037003800E500520000004E00E000E30018
:10013000E2000000000000002C00000000000000B1
:10014000E60001515000510000004F00005C3A00F1
:100150003B003C003D003E003F00400041004200AB
:1001600043004400450001000100010001000100BE
:100170000100010001000100010001000100010077
:100180000100010001000100000001000100010068
:100190000100010001000100010001000100010057
:1001A0000100010001000100000001000100010048
:1001B0000100010001000100010001000100010037
:1001C0000100010001000100000001000100010028
:1001D000010000000000000001000000000000001D
:1001E0000100010001000100000001000100010008
:1001F00001000100010001000100010001000100F7
:1002000001000100010001000100010001000100E6
:1002100001000100010001000100010001000100D6
:1002200001000100010001000000010001000100C7
:1002300001000100010001000100010001000100B6
:1002400001000100010001000000010001000100A7
:100250000100010001000100010001000100010096
:100260000100010001000100000001000100010087
:10027000010000000000000001000000000000007C
:100280000100010001000100000001000100010067
:100290000100010001000100010001000100010056
:1002A0000100010001000100010001000100010046
:1002B0000100010001000100010001000100010036
:1002C0000100010001000100000001000100010027
:1002D0000100010001000100010001000100010016
:1002E0000100010001000100000001000100010007
:1002F00001000100010001000100010001000100F6
:1003000001000100010001000000010001000100E6
:1003100001000000000000000100000000000000DB
:1003200001000100010001000000010000000000C8
:10033000000000002A2B2800000000000000000040
:100340000000000000000029000000002C1E3420E6
:10035000212224342627252E362D3738271E1F200C
:100360002122232425263333362E37381F04050651
:100370000708090A0B0C0D0E0F1011121314151695
:100380001718191A1B1C1D2F3130232D3504050693
:100390000708090A0B0C0D0E0F1011121314151675
:1003A0001718191A1B1C1D2F3130354C0000000086
:1003B000000000000000000000000000000000003D
:1003C000000000000000000000000000000000002D
:1003D0007E0F00D4FFFFFFC7000000781803630002
:1003E00063006400360035002F00610074006D006A
:1003F00065006C00000020036300610062006C0077
:1004000065006300610072006400650073006900AC
:1004100067006E00730000000403090409025B001A
:10042000030100A0FA0904000001030101000921F1
:1004300011010001224000070581030800010904A1
:100440000100020300000009211101000122220025
:1004500007058203200001070503032000010904AA
:100460000200010300000009211101000122B60071
:10047000070584032000011201000200000008FFAC
:100480002109AA0100010200010660FF0961A10122
:100490000962150026FF0095207508810209631581
:1004A0000026FF00952075089102C005010902A1F0
:1004B0000185020901A10005091901290815002576
:1004C0000195087501810205010930093115812561
:1004D0007F95027508810609381581257F9501757C
:1004E000088106050C0A38021581257F95017508DB
:1004F0008106C0C005010980A101850319012AB741
:1005000000150126B700950175108100C0050C0982
:1005100001A101850419012AA002150126A0029556
:100520000175108100C005010906A10185060507B6
:1005300019E029E7150025019508750181020507D5
:10054000190029EF1500250195F0750181020508B4
:100550001901290595057501910295017503910110
:10056000C005010906A101050719E029E7150025C5
:10057000019508750181029501750881010507192A
:100580000029FF150026FF00950675088100050863
:1005900019012905950575019102950175039101D0
:1005A000C00011241FBECFEFDAE0DEBFCDBF04B61E
:1005B00003FE18C08091BB029091BC02A091BD02C5
:1005C000B091BE028730904BA740B04B59F41092C7
:1005D000BB021092BC021092BD021092BE02E0E07B
:1005E000F8E3099511E0A0E0B1E0E4EAF9E402C023
:1005F00005900D92A03AB107D9F722E0A0EAB1E048
:1006000001C01D92AB3BB207E1F70E94D2120C94DD
:10061000A7240C940000879A089581FD02C08F9A48
:1006200008958F98089581E0089581E008950C94CD
:10063000150308950C9419031F93CF93DF9300D0F3
:1006400000D00F92CDB7DEB749835A836B833091C8
:10065000A30189819A8131111DC06623B9F022233B
:10066000A9F00E94A709182F682F89819A810E94FA
:10067000540969817A81812F0F900F900F900F900C
:100680000F90DF91CF911F910C94B7180E948009B1
:10069000182FEFCF0E94A70969817A81EDCFFC0165
:1006A000262F408151816281738184810C941C03C7
:1006B00081E00895CF93DF93EC0160E00E944F0347
:1006C000BE01DF91CF910C941A03E1E0F0E0DF016D
:1006D00002C0AA0FBB1F6A95E2F7BD01DF0102C08D
:1006E000AA0FBB1F4A95E2F76A2B01C0EE0F2A95AD
:1006F000EAF7962F9823961302C08E2B0895E09563
:100700008E230895242F462F682F8091C2010E94C6
:1007100065030C9411090C9473110C9476110895CF
:100720000E94AF080E948F032FEF84E39CE02150CA
:1007300080409040E1F700C000000C94771C0F93BC
:100740001F93CF93DF938C0161E00E944F03EC0174
:10075000B8010E94C1158823D9F1B801CE010E94C9
:1007600017038823A9F1B801CE010E941D1A88231E
:1007700079F1B801CE010E94B116882349F1B80180
:10078000CE010E948219882319F1F8018281882301
:1007900061F0CA35FDE5DF0721F170F4C115ECE524
:1007A000DE07A1F0CE3DDC45C9F0C801DF91CF9155
:1007B0001F910F910C941303CB358DE5D807A1F051
:1007C000CC35DD4591F70E94C70DEFCF0E94900315
:1007D00080E0DF91CF911F910F9108950E94800ECC
:1007E000F7CF0E94D00DE1CF0E94D30DDECF0E9443
:1007F000B11B0C94ED040E94F0040C94B51BDF9225
:10080000EF92FF920F931F93CF93DF93E82FF0E0C7
:10081000E45DFC4FD490282F26952695269530E050
:10082000F901E453FC4F0491877010E0082E02C0D8
:10083000159507950A94E2F701701127F901E45420
:10084000FC4FE490F12C082E02C0F594E7940A9432
:10085000E2F791E0E922FF24F901E455FC4FC4914D
:10086000D0E002C0D595C7958A95E2F7C170DD2723
:100870000115110519F081EE0E944205E114F10401
:1008800019F086EE0E9442058D2D0E944106EF2848
:1008900019F086EE0E94D405012B19F081EE0E941A
:1008A000D405CD2B51F08CE2DF91CF911F910F91A8
:1008B000FF90EF90DF900C944106DF91CF911F9154
:1008C0000F91FF90EF90DF900895EF92FF920F93BA
:1008D0001F93CF93DF93EC01162F0AE088818823C2
:1008E00009F454C0813009F04EC08981813099F4F7
:1008F0007E0122E0E20EF11C8A810E944106E7019E
:100900002196812F815050F3EFE9FFE03197F1F705
:1009100000C00000F7CF823041F47E0182E0E80E93
:10092000F11C8A810E944205EACF833041F47E01A6
:10093000E2E0EE0EF11C8A810E94D405E0CF843003
:1009400011F02196DDCF2A81229690E080E0AE0161
:100950004F5F5F4F2053330B2A30310548F001972A
:1009600078F2EFE9FFE03197F1F700C00000F7CF30
:10097000089FB001099F700D1124C901860F971FB0
:100980002981EA01E4CF0E94FF03BACFDF91CF9122
:100990001F910F91FF90EF90089560E00C94650413
:1009A00008950C94D00481E00895CF93C82F0E943D
:1009B000D304882319F0C1FD03C08E9ACF91089506
:1009C0008E98FCCF869A8E9A0895CF93C82F0E9456
:1009D000D1048C2FCF910C94D50480E00C94E504C5
:1009E0000E94791A0C94E5040E94791A9091A20150
:1009F000981721F08093A2010C94E5040895CF93F9
:100A0000DF93CDB7DEB72B970FB6F894DEBF0FBEDE
:100A1000CDBF4F83588769877A878B8761110E9482
:100A2000150D1E821D8285E0FE013796DE011196AE
:100A300001900D928A95E1F78C819D81892B89F433
:100A400049815A816B817C818D819E810E94360C07
:100A50002B960FB6F894DEBF0FBECDBFDF91CF91BE
:100A6000089589819A8189238F3F51F3CE010196A0
:100A70000E9458038111E4CFEBCFFC01808191816A
:100A80000C94D409CF93C82F882309F48BC08238E3
:100A9000C1F40E94791A81FD85C089E30E94D00CBF
:100AA0000E94350D2FEF81EE94E021508040904060
:100AB000E1F700C0000089E30E94D70CCF910C94AD
:100AC000350D8338A1F40E94791A80FD6BC083E54F
:100AD0000E94D00C0E94350D2FEF81EE94E0215042
:100AE00080409040E1F700C0000083E5E5CF843806
:100AF000A1F40E94791A82FD55C087E40E94D00CAF
:100B00000E94350D2FEF81EE94E0215080409040FF
:100B1000E1F700C0000087E4CFCF8CEF8C0F813A63
:100B200090F46C2F80910201909103010E94ED1AC4
:100B3000882329F08C2F0E94D70C0E94350D8C2F12
:100B40000E94D00CBBCF80E28C0F883048F4C77075
:100B500081E001C0880FCA95EAF70E94F80CAECF79
:100B6000EBE5EC0FE33040F4F0E0E95BFE4F808111
:100B700090E0CF910C94AD1AE8E5EC0FE73150F41A
:100B8000F0E0EE0FFF1FE75EFE4F80819181CF9175
:100B90000C94C31AC03F30F08C2F0E945613CF9193
:100BA0000C942914CF910895882309F452C08238F7
:100BB00071F40E94791A81FF4CC089E30E94D00C25
:100BC0000E94350D89E30E94D70C0C94350D8338B3
:100BD00059F40E94791A80FF3CC083E50E94D00C32
:100BE0000E94350D83E5EFCF843859F40E94791ABD
:100BF00082FF2FC087E40E94D00C0E94350D87E44D
:100C0000E2CF9CEF980F913AF0F290E2980F983073
:100C100050F4877091E001C0990F8A95EAF7892F07
:100C20000E94FE0CD2CF9BE5980F933020F490E009
:100C300080E00C94AD1A98E5980F973120F490E07D
:100C400080E00C94C31A803F20F00E94B0130C94F3
:100C5000291408951F93CF93DF93182FEB010E945F
:100C60004205209731F4812FDF91CF911F910C9491
:100C7000D4058FE99FE00197F1F700C000002197AC
:100C8000F0CF70E060E0893311F460E570E00C941F
:100C90002A06882321F00E94F80C0C94350D089543
:100CA000882321F00E94FE0C0C94350D0895BF920C
:100CB000CF92DF92EF92FF920F931F93CF93DF9328
:100CC0006C01D62FC72FFC011281F580F2949FE0B2
:100CD000F9220E94EE0CE82E8823B9F0E12E1123B0
:100CE000A1F08C2F807F803421F080E28D0F88303E
:100CF000D0F08091950282FD16C082E00E94960D90
:100D00000E94EE0C91E0E82EE926BC2EB2948FE012
:100D1000B822FBE0FB1508F468C0EB2DF0E0E755C6
:100D2000FB4D0C943724E12CF0CF0C2F0F70C07FBB
:100D300011F00295007F112399F0002359F080E211
:100D40008D0F883010F0D11107C0802F0E94F80C51
:100D50000E94350D8D2F41C0802F0E94080DF8CFC5
:100D60008D2F0E94D405002309F43FC080E28D0F2F
:100D7000883010F0D11104C0802F0E94FE0C03C0F7
:100D8000802F0E940E0D0E94350D2FC00C2F0F706A
:100D9000C07FC03211F00295007FDD2381F0D13099
:100DA00009F469C0112309F473C0FF2009F469C074
:100DB000F601858180FFCECF8F70858362C08091E0
:100DC000950282FF38C0112359F0002329F0802FAB
:100DD0000E94F80C0E94350D80E00E94420505C07B
:100DE00080E00E94D4050111C7CFEB2DE850FF0B26
:100DF000349720F40E94791A0E94E504EE2009F449
:100E00004DC10E94EA0C80FD49C1F60112820E9488
:100E1000E40C0E942209C6010E946F080E94E40CA3
:100E2000DF91CF911F910F91FF90EF90DF90CF90C6
:100E3000BF900C942D09112389F0F11006C00E9477
:100E4000180D802B0E944906D0CF21E0F212F7CF77
:100E50000E94180D802B0E941E0DC7CFF11006C0F6
:100E60000E942B0D802F0E945006BFCF31E0F31659
:100E700009F4BBCFF5CF112331F085E08F1508F4CD
:100E8000B4CF802FDFCF94E09F1508F4AECFEACF28
:100E9000FF2041F3D93349F4FFEF27EE33E0F1505F
:100EA00020403040E1F700C000008D2F0E94D405A3
:100EB0009CCF8C2F86958695837069F0813009F0E0
:100EC00094CF8D2F9C2F9370111102C090E080E081
:100ED0000E94C31A8ACF8D2F9C2F9370111102C0CC
:100EE00090E080E00E94AD1A80CF8D2F112329F071
:100EF0000E9456130E94291478CF0E94B013FACF93
:100F00008C2F837079F5111170CF4D2F4295469536
:100F10004770440F440F8D2F8F70042E01C0880F2F
:100F20000A94EAF72D2F2071D4FF07C02FE030E09C
:100F300001C0220F4A95EAF72095C695C695C37061
:100F4000822BC23049F058F4C13019F00E940509D3
:100F50004CCF0E94000949CF0E940A0946CF0E9447
:100F6000FE0843CF8695112311F08C2F81708823C2
:100F700009F43BCF4D2F429546954770440F440FDF
:100F80008D2F8F70042E01C0880F0A94EAF72D2F41
:100F90002071D4FF07C02FE030E001C0220F4A9536
:100FA000EAF72095C695C695C370822BC23049F0EA
:100FB00058F4C13019F00E94490917CF0E94440922
:100FC00014CF0E944E0911CF0E9411090ECFCF708D
:100FD000112329F08C2F0E9422098D2F33CF8D2FC2
:100FE0000E9450068C2F0E942D09FFCED23F51F156
:100FF00060F4D03FB9F0D13F81F0112309F449C02A
:10100000F110A8CE8C2F8F7121C0D33F11F1D43FA6
:10101000A1F78091950282FF26C08C2F8F7111233A
:1010200011F314C0112349F084E08F1508F4DDCECC
:101030008C2F8F710E943909D8CE95E09F1508F446
:10104000D4CEF6CF8C2F8F711111CDCF0E942209F3
:10105000CCCE112329F08C2F8F710E941A09C5CE96
:101060000E941709C2CE112349F0CF718C2F0E9424
:10107000220963E08C2F0E947B0DB7CE81E00E9495
:10108000960DE1E0EF1508F0B0CE82E00E94960DDB
:10109000ACCEF110FFCE8C2F8F71A5CFDF91CF9109
:1010A0001F910F91FF90EF90DF90CF90BF90089528
:1010B0000F931F93CF93DF93EC01688179818A812D
:1010C0000E94DE098C010E9453090E94FD08B801AC
:1010D000CE01DF91CF911F910F910C945706CF93C2
:1010E000DF93EC018B819C81892B29F08881998188
:1010F00089238F3F59F4DF91CF910895CE010E944B
:101100005808CE01DF91CF910C945A03CE010E9472
:101110009F038111F3CF0E94EE0C882361F38A8133
:10112000882349F38091950282FDE5CF82E0DF912B
:10113000CF910C94960D90E080E00E94AD1A90E063
:1011400080E00E94C31A0E94150D0E94350D0E9476
:1011500050150C9429140E94DE0C0C949B080E94DC
:10116000050D0C94AB0892959F70963091F058F451
:10117000925F9F70923058F4803F19F030F4883EAF
:1011800030F481E008959A5FF4CF843FD1F380E09A
:101190000895883EB0F3813FD1F7F3CFFC01808101
:1011A00091810E94D4090C94B308CF93DF9300D0AF
:1011B00000D00F92CDB7DEB70F900F900F900F9029
:1011C0000F90DF91CF910895CF93DF9300D000D09F
:1011D00000D0CDB7DEB726960FB6F894DEBF0FBEAF
:1011E000CDBFDF91CF91089508950C94F4080E942B
:1011F000F5088093C3010C949B0808950C94F7089C
:101200009091C301892B0C94F7089091C301892315
:101210000C94F7089091C30189270C94F7080C945B
:101220000D030E940F098093C2010C949B0880E07B
:101230000C94110991E001C0990F8A95EAF7892F62
:101240000C94110921E030E001C0220F8A95EAF7E1
:101250008091C201822B0C94110921E030E001C081
:10126000220F8A95EAF720958091C20182230C947F
:10127000110921E030E001C0220F8A95EAF7809140
:10128000C20182270C9411099091C201892B0C9400
:1012900011099091C20189230C9411099091C20106
:1012A00089270C94110908959295907F890F982FA2
:1012B000977041E001C0440F9A95EAF786958695AC
:1012C000869593E0899FF0011124EC55FE4F30E0A4
:1012D00020E070E05191DF011197CB01022E02C096
:1012E000969587950A94E2F78170819585278423E6
:1012F00085278C932F5F3F4F2330310559F7089591
:101300009295907F890F982F9770869586958695F0
:1013100023E0829FF0011124EC55FE4F50E040E0A5
:1013200080E0219130E0092E02C0369527950A947D
:10133000E2F721703327042E01C0220F0A94EAF746
:10134000822B4F5F5F4F4330510559F70895CF927D
:10135000DF92FF920F931F93CF93DF936C01009165
:10136000C2018091C301082BC7E0D0E010E0FC2E41
:10137000C8010C2E02C0959587950A94E2F780FD6E
:101380000CC02197A0F7F12C8F2DDF91CF911F91E9
:101390000F91FF90DF90CF900895B6018C2F0E949F
:1013A0005D10019771F3F0CFCF93DF93EC010E94B2
:1013B000A709BE01DF91CF910C945D101F93CF93CD
:1013C000DF93EB019091A301992331F0CB01DF91E1
:1013D000CF911F910C94D409882379F0CB010E94FE
:1013E000A709182F682FCE010E945409BE01812F32
:1013F000DF91CF911F910C945D10CB010E94800969
:10140000182FF4CF1F93CF93DF93C091C40116E040
:101410008091C5018C1304C0DF91CF911F91089575
:10142000D0E01C9FF0011D9FF00D1124EA53FE4FE8
:101430004081518162817381848195810E94E40899
:101440002196C770E5CF4091F6015091F701609168
:10145000F8017091F9018091FA019091FB010C94CF
:10146000E408FF920F931F93CF93DF938091FB01CA
:10147000807FD1F48091F8018823B1F08091C4017C
:101480001091C5016091F6017091F701A091F901E9
:10149000B091FA01062F0723C0910001D0910101FC
:1014A00096E0F92E181306C0DF91CF911F910F918E
:1014B000FF90089590E0109711F00F3F19F40196F6
:1014C0008770F0CFF89E9001F99E300D1124F9013C
:1014D000EA53FE4F41814713F2CF40814613EFCFCD
:1014E00042814111ECCF438154814A1B5B0B4C1765
:1014F0005D0728F78091FB018F7080618093FB016D
:10150000F901E553FE4F80818F708061808386EF03
:1015100091E00E946F08DF91CF911F910F91FF9092
:101520000C94020AAF92BF92CF92DF92EF92FF9299
:101530000F931F93CF93DF93CDB7DEB761970FB6AD
:10154000F894DEBF0FBECDBF8C0185E0F801DE014F
:101550001D9601900D928A95E1F7F801E28086EFE1
:10156000C82E81E0D82E6091F9017091FA016115C1
:10157000710509F45FC19091F6012091F701892F5F
:1015800082238F3F09F456C140815181A380B480EA
:10159000F090F801F501E61BF70BBF01E0910001A7
:1015A000F0910101FF2009F4F6C08091FB01382F72
:1015B000307F6E177F0708F0AFC0311179C0FE2C65
:1015C000251323C0941321C0E1101FC08F708061C8
:1015D0008093FB010E94230AC6010E946F0880913C
:1015E000FB01F80185838F2D61960FB6F894DEBF5D
:1015F0000FBECDBFDF91CF911F910F91FF90EF9064
:10160000DF90CF90BF90AF900895AB2829F0842F42
:1016100085238F3F09F027C180E0F82FF170DF2E7E
:1016200080FF3CC08091C4012091C50136E0821347
:1016300015C04D875E878D859E850E94D409292F10
:1016400022952F702230F0F0243018F59F70F1F0C1
:10165000F8019581907FD1F4D12C1EC090E0389F85
:10166000F001399FF00D1124EA53FE4F618165139B
:1016700006C06081641303C062816E110FC00196C1
:101680008770D5CF9F7011F0882331F3805E88304A
:1016900018F3C8010E946F08FD2CA5CFEE2009F4B5
:1016A000A2CF8091FB0181608093FB01F12C9BCF45
:1016B000251306C0941304C0F801EE2009F487C076
:1016C000C8010E94CE08882319F1EE2009F180910B
:1016D000FB01803270F02091F6013091F7013887DC
:1016E0002F831986BB86AA868C87CE0107960E9417
:1016F0006F0886E0F801A6EFB1E001900D928A959F
:10170000E1F70E94310A0E94230AFF24F3946BCF71
:10171000C8010E946F08F9CF311113C07A2DB98A20
:10172000A88A6E2D89890E94D50886EF91E00E94D3
:101730006F0886E0F60111928A95E9F70E94230A64
:10174000B5CF25130FC094130DC0E1100BC0F801E5
:101750008583C8010E946F0886E0F60111928A9580
:10176000E9F741CFC8010E94CE08882389F2EE2014
:1017700079F28091FB01803208F4BBCF2091F60111
:101780003091F7013A8329831B82BD82AC828E831C
:10179000CE010196ACCF6E177F0708F03EC0FE2C3D
:1017A000EE2009F4B5CF25132AC0941328C08091E8
:1017B000FB0180FD1BC0982F907FC1F0F80185834D
:1017C000903F31F0982F907F905F8F70892B8583A9
:1017D000C8010E946F0886E0F801A6EFB1E0019011
:1017E0000D928A95E1F70E94230AFDCE86E0F8016A
:1017F000A6EFB1E001900D928A95E1F7F4CEC80111
:101800000E94CE08811175CF8091FB018160809389
:10181000FB01C8010E946F08E6CE7A2DB98AA88A1A
:101820006E2D89890E94D50886E0F60111928A956D
:10183000E9F7D9CFEE2009F46BCFC8010E94CE089A
:10184000F82E882309F464CF86E0F801A6EFB1E012
:1018500001900D928A95E1F786EF91E00E943D0597
:101860000E94310AC0CF81E08E25D7CE1F93CF933F
:10187000DF93CDB7DEB72C970FB6F894DEBF0FBE5F
:10188000CDBF4F83588769877A878B879C87CE0126
:1018900007960E94920A882369F08A859B85892B86
:1018A00039F04F815885842F85238F3F09F071C00F
:1018B00016E05FC086E0FE013796DE0111960190CA
:1018C0000D928A95E1F78A859B85892B89F38F8113
:1018D000988589238F3F61F32091C50130E0C901CC
:1018E0000196877099274091C4014817190671F431
:1018F0000E94AF081092C5011092C40186E0E6EF85
:10190000F1E0DF011D928A95E9F7D2CF96E0929F30
:10191000D001939FB00D1124AA53BE4FFE01319602
:1019200001900D929A95E1F78093C5010E94020AF9
:10193000BFCF819FC00111248A539E4F0E94920AFB
:101940008823E9F0E091C4011E9FF0011124EA53BD
:10195000FE4F4081518162817381848195810E9413
:10196000E4088091C40190E00196877099278093E4
:10197000C4018091C4019091C5018913DACF2C96DE
:101980000FB6F894DEBF0FBECDBFDF91CF911F9190
:10199000089569857A858B859C850E94E40888CFA7
:1019A000682F80910201909103010C946D1B682FA8
:1019B00080910201909103010C94781B80910201A7
:1019C000909103010C94831B80911C028595859551
:1019D0008595089580911C028770089590911C024E
:1019E000977081E009F480E0089580913F020895A6
:1019F00090913F02892B80933F02089580959091AA
:101A00003F02982390933F02089510923F02089559
:101A100090913E02892B80933E020895809590918B
:101A20003E02982390933E02089510923E0208953C
:101A300080911D02089508950C941B0D90919502BC
:101A400092FD08C090911D02981721F080931D020D
:101A50000C941C0D089580911D02882329F010928A
:101A60001D0280E00C941C0D0895CF93DF93E0914C
:101A70000201F091030180913F028083E091020115
:101A8000F0910301808190913E02892B8083909197
:101A90001D02992381F0E0910201F0910301808100
:101AA000892B808380910201909103010E94D91AB1
:101AB00081110E942B0DC0910201D091030140E2DF
:101AC00050E06CEF71E0CE010E945824892B69F040
:101AD00080E2FE01ACEFB1E001900D928A95E1F752
:101AE000CE01DF91CF910C94851ADF91CF910895AB
:101AF00008950C94780D9091950292FD10C098E095
:101B0000899F90011124622B60931C020E9422097C
:101B100080911C028595859585950C94790D0C9482
:101B2000220910921C0280E00C94790D90911C0205
:101B30008095892380931C02282F277091F4282FE9
:101B4000082E000C330B9217130659F09091950252
:101B500092FD07C08595859585950E942D090C9469
:101B6000910D08959091950292FB222720F9281754
:101B700069F080FB92F99093950280919402909184
:101B800095020E94FD0D82E00C94960D08958091BF
:101B9000950282FB882780F991E089270C94B20D89
:101BA00081E00C94B20D80E00C94B20D6FEF7FEFEA
:101BB00090E080E00C94912490E080E00E946D24FD
:101BC000893E9E4F11F40C945E1580E0089582E0EA
:101BD00090E00C94652483E090E00C946524CF930E
:101BE00084E090E00E946524C82F82E290E00E9489
:101BF0006524982F8C2FCF910895CF93C92F682FEC
:101C000084E090E00E9473246C2F82E290E0CF91F8
:101C10000C947324AB01BC018FE090E00C948524FC
:101C2000AB01BC0183E190E00C94852460E070E09E
:101C3000CB010C94100E60E070E0CB010E940A0E04
:101C40000C94160E69EE7EEF90E080E00E949124E5
:101C500060E082E090E00E94732460E083E090E026
:101C60000E9473241092C30160E084E090E00E941F
:101C7000732460E082E290E00E94732460E085E0DB
:101C800090E00E94732460E086E090E00E9473245C
:101C90006FEF87E090E00E94732440E050E0BA01CB
:101CA00088E090E00E94852460E08DE090E00E9452
:101CB000732440E050E0BA0188E190E00E9485245E
:101CC00060E087E190E00E94732440E050E0BA01B8
:101CD0008CE190E00E94852470E060E080E290E07A
:101CE0000E94912440E050E0BA0188E190E00E9417
:101CF000852480E00E9477150E94A5150C941B0E88
:101D00000C94220E682F8EE090E00C9473240E94B5
:101D1000381C60934E0270934F0280935002909350
:101D2000510260934A0270934B0280934C0290934D
:101D30004D02089585B7806885BF85B7806885BFE7
:101D40000895089508950C94A20E0E949A0E8BE3B4
:101D500091E10E946F1A0E94A10E0C940B0381E086
:101D600008950C94AF0E089508950E94B30E0C943C
:101D7000B40E0E9458110C94E2040E94231C0E948D
:101D8000B4150E942C120E94B90E0C94A30E6F92EF
:101D90007F928F929F92AF92BF92CF92DF92EF92FB
:101DA000FF920F931F93CF93DF93CDB7DEB72A97A0
:101DB0000FB6F894DEBF0FBECDBF0E944112682E51
:101DC00081110E94870E20E4E22E22E0F22E10E024
:101DD00000E0812F0E9478114C01F701A080B180B2
:101DE000A816B906D1F18091520281FD0E9481119D
:101DF000A824B924712CCC24C394D12CC5018C21E6
:101E00009D21892B21F10E94B10E8823B1F07E82A1
:101E10001F8321E0C4018C219D21892B09F420E03E
:101E200028870E942C1C8160782F9A8789874E8191
:101E30005F8168858A850E94FF04F7018081918116
:101E40008C259D25918380830F5F0C30F8F473946B
:101E5000CC0CDD1CF0E17F12D1CF1F5F82E0E80ED9
:101E6000F11C153009F0B5CF011110C08FEF898337
:101E70008A831B820E942C1C8160782F9D838C8317
:101E800049815A816B818D810E94FF0481E061103C
:101E900001C080E02A960FB6F894DEBF0FBECDBF1A
:101EA000DF91CF911F910F91FF90EF90DF90CF9036
:101EB000BF90AF909F908F907F906F9008950E94F9
:101EC000C70E0E9444140C94F404CF93DF930E9435
:101ED0006110EC01811521E5920708F042C08115DF
:101EE00030E5930708F09DC0883E910530F5803EAF
:101EF000910508F092C0883A910588F4853A9105D9
:101F000008F084C08130910509F487C0009709F476
:101F100084C0049708F081C0D0E0C0E07EC08F3B51
:101F20009105D0F7C85AD0E0CC0FDD1FC65BDE4F5D
:101F30000990D881C02DD46470C08115904250F4AE
:101F4000C11581E0D80708F068C0C03FD10520F373
:101F5000D06563C0C11590E4D907F0F2DF70D06A94
:101F60005CC0811525E5920700F5811534E59307DE
:101F700008F08BC0811543E5940708F073C0C115C4
:101F800082E5D80708F469C0CE018370992721E063
:101F900030E002C0220F331F8A95E2F7C695C6953E
:101FA00080E2C89FE001112454C0C11599E5D9070A
:101FB000A8F4C11528E5D20708F06CC0C11536E5B4
:101FC000D30708F0A9CF8C2F0E94F810C82FD0E0BB
:101FD000DC2FCC27CC27DF71D0621FC0C1154AE5AA
:101FE000D40708F45CC0CE0190568115904208F0E9
:101FF00093CF8D2F8F710E94F81090E0982F882733
:1020000088279F719C012C2BE901E6CFC55AD0E0AF
:10201000C858DE4FC881D0E0D064CE01DF91CF91A7
:102020000895E4E096958795EA95E1F783702C2F63
:1020300026952695237040E2249F90011124382B89
:102040008C2F8370C1E0D0E002C0CC0FDD1F8A95D9
:10205000E2F7C22BD32BDC68E0CFDC2FCC27C16F9B
:10206000D06ADBCF8370992721E030E002C0220FD5
:10207000331F8A95E2F7C695C69590E2C99FE001A5
:102080001124C22BD32BDA68C8CFD82FCC27C46F2A
:10209000D06AC3CFDC2FCC27C06FD06ABECF8C2FC5
:1020A0008F700E94F81034E0D695C7953A95E1F705
:1020B000CF709C2FEC01D069B0CF0E94B7180C9460
:1020C000650F82389105B1F1B0F48133910509F4BF
:1020D00075C048F48932910509F469C08A329105C6
:1020E00009F473C008958533910509F459C0893303
:1020F000910501F10895833E9105A9F138F4803EE0
:102100009105F9F0823E910549F10895863E9105C9
:10211000A9F1873E9105C9F1843E910519F52091F9
:10212000950221FF1FC08091940284FD14C087EEA8
:1021300090E00895209194022370A1F080EE90E049
:1021400008952091940220FD47C03091950230FF00
:1021500009C024FF44C090E080E004C020919402B4
:1021600022FDF7CF08952091940222FD3BC03091CB
:10217000950230FDE3CF24FFF5CFEDCF20919402FF
:1021800023FFF0CF24FDE7CFD2CF2091940223FD8F
:102190002CC03091950231FFEECF84EE90E008958F
:1021A0002091940225FFDECF89E290E008952091EE
:1021B000940225FFD7CF85E390E008952091940203
:1021C00026FFD0CF8AE290E008952091940226FF66
:1021D000C9CF81E390E0089589E390E0089583EE0C
:1021E00090E0089582EE90E0089586EE90E00895E4
:1021F0009091940292FF06C0282F28712830F9F49C
:10220000877F846093FF06C0282F28712831F1F45E
:10221000877E84612091950220FF06C0382F387197
:102220003830D9F4877F816021FF06C0282F2871BC
:102230002831D1F4877E816194FD877E0895282F0F
:1022400024712430F9F68B7F8860DCCF282F24712D
:10225000243101F78B7E8861DDCF382F3171313029
:1022600019F78E7F8860E0CF282F2171213121F767
:102270008E7E8861E1CF80E008950C94D60D0E9497
:1022800041122FEF86E791E0215080409040E1F726
:1022900000C000000E94411280E00E94781180FF7F
:1022A00004C00E943D110C94771C08950C943F11BA
:1022B0000E94DC0D811102C00E94800E0E94E70D79
:1022C000809352020E94EF0D9093950280939402A6
:1022D0000E9456110E94EB0D0E94FE088091C201DF
:1022E0000C940F0908950C94721108950C947511B3
:1022F000E82FF0E0EE0FFF1FE056FD4F8081918147
:102300000895089580EA8A95F1F7089500C0089528
:102310000C948211F894E82FE295EF70F0E031A16F
:10232000282F2F7081E090E001C0880F2A95EAF7EE
:10233000982F9095932391A392A1892B82A37894AF
:102340000895CF93DF93CBE8D1E089918F3F11F0CF
:102350000E948A1181E0C039D807B9F7CBE7D1E0F4
:1023600089918F3F11F00E948A1181E0CB38D80704
:10237000B9F7DF91CF910895AF92BF92DF92EF92BC
:10238000FF920F931F93CF93DF938C01D62EC62F0E
:10239000D0E0CE0185579E4F7C01FC0120812F3F6C
:1023A00009F44DC0F894E22FE295EF70F0E031A10E
:1023B0002F7081E090E001C0880F2A95EAF7932FF3
:1023C000982B91A392A18095892382A378940E944F
:1023D0008611EBE7F1E04BE851E021E030E0B12C71
:1023E000A12C61916F3FA9F1A62FA295AF70B0E02B
:1023F00090968C9190E06F7002C0959587956A9544
:10240000E2F780FD26C0C901A82AB92A220F331F8E
:102410004E175F0731F7F70180818F3F11F00E945F
:102420008A1161E0A114B10409F460E08D2D0E94CD
:102430008811CC0FDD1FC00FD11FB982A882DF9198
:10244000CF911F910F91FF90EF90DF90BF90AF90D1
:10245000089590E080E0D8CF0E94A1118AE0E0EAE0
:10246000F2E0DF01982F1D929A95E9F7E6E9F2E094
:10247000DF011D928A95E9F785E00E948C120C9489
:102480008B03FF920F931F93CF93DF93CDB7DEB7EC
:102490002A970FB6F894DEBF0FBECDBF8E010F5F37
:1024A0001F4F8AE0F80111928A95E9F7F12C6F2D00
:1024B000C8010E94BC11F394F5E0FF12F8CF4AE086
:1024C00050E0B80186E992E00E945824FF24F3947A
:1024D000009709F4F12C892B41F08AE0F801A6E974
:1024E000B2E001900D928A95E1F72F2D45E060EA68
:1024F00072E086E992E00E948D120E948D038F2D7A
:102500002A960FB6F894DEBF0FBECDBFDF91CF91F4
:102510001F910F91FF9008950895FF920F931F93BD
:10252000CF93DF93F82E092F162FD72FC42F2223F6
:1025300049F081E0809355020E942C1C9093540234
:1025400080935302809155028823A1F08091530219
:10255000909154020E94441C059760F0EF2DF02FDB
:10256000A12FBD2F90E080E0D0E08C179D0744F0B4
:1025700010925502DF91CF911F910F91FF90089516
:10258000219131912D933D930196EFCF0E94721EC0
:102590000E94BD0E0C947E1E0E94821E0E945F0F40
:1025A0000C949C1E0E94CC1B0E94591E0E94A50EDA
:1025B0000E94C6120E94CC120E94B50EFBCF8091E1
:1025C0005C0280FF0DC06091090170E0660F771F0B
:1025D0006038710570F56115710569F1862F0895F0
:1025E00081FF07C06091090184E0689FB001112458
:1025F000EFCF6091090182FD0AC080915B028823C0
:10260000A9F02091080160910901821710F088E07B
:10261000ECCF869FC001112433E0880F991F3A95B3
:10262000E1F7622F70E00E942324D2CF68E070E0CF
:10263000D5CF8FE7089581E0089580915C0280FFF7
:102640000CC06091050170E075956795759567956B
:102650006115710549F1862F089581FF06C06091CB
:10266000050170E075956795F3CF6091050182FDD6
:102670000BC090915A029923A1F0609104018091BE
:102680000501961738F0682F70E06038710500F387
:102690008FE70895899FC001112470E00E942324D0
:1026A000F4CF61E070E0D7CF81E00895803F31F44E
:1026B0000E94DF128195809360020895813F19F492
:1026C0000E94DF12F8CF823F31F40E94DF12819521
:1026D00080935F020895833F19F40E94DF12F8CFC0
:1026E000893F29F40E941D138093610208958A3F57
:1026F00021F40E941D138195F7CF8B3F31F40E9486
:102700001D1381958093620208958C3F19F40E94F5
:102710001D13F8CF9CE0980F953070F4845F990BEF
:1027200021E030E001C0220F8A95EAF780915E0235
:10273000822B80935E0208958D3F31F480915C027C
:10274000816080935C0208958E3F21F480915C0249
:102750008260F7CF8F3FB9F780915C028460F1CF40
:1027600040915F02803F59F48091600287FF0DC065
:102770001092600241110BC010925B0208C0813FB1
:1027800081F48091600218169CF3442381F08091BB
:10279000610290916202892B09F05AC010925A028C
:1027A0000895823F49F447FFF0CF10925F02809175
:1027B00060028111ECCFE0CF833F19F41416ACF323
:1027C000E4CF90916102893F29F41916F4F6109232
:1027D0006102DBCF8A3F19F497FFD7CFF8CF9091F2
:1027E00062028B3F29F497FFD0CF10926202CDCFC7
:1027F0008C3F19F41916CCF3C8CF9CE0980F953094
:1028000090F4845F990B21E030E0B90102C0660FBB
:10281000771F8A95E2F7CB01809590915E0289231C
:1028200080935E02B2CF8D3F31F480915C028E7F47
:1028300080935C02AACF8E3F21F480915C028D7F51
:10284000F7CF8F3F09F0A1CF80915C028B7FF0CF53
:1028500008950E942C1C9C0190915F02809160025F
:10286000982B21F0309359022093580290916102E5
:1028700080916202982B21F03093570220935602E8
:102880008DE592E00C949F1AEF92FF920F931F93A5
:10289000CF93DF9300D000D000D0CDB7DEB786E075
:1028A000EDE5F2E0DE01119601900D928A95E1F7D7
:1028B000E0905F02F090600200916102109162026C
:1028C00010925F02109260021092610210926202F6
:1028D0008E2D8F2991F080915802909159020E947B
:1028E000441CAC0190915B02992309F43FC0809194
:1028F0000A018417150608F447C0802F812B91F038
:1029000080915602909157020E94441CAC01909114
:102910005A02992309F477C080910601841715069D
:1029200008F47FC080915F0290916002892B9091A2
:102930006102892B90916202892B11F00E94291467
:1029400086E0FE013196ADE5B2E001900D928A95E8
:10295000E1F726960FB6F894DEBF0FBECDBFDF912C
:10296000CF911F910F91FF90EF90089520910B014F
:102970008AE0289F900111242417350708F0BDCF65
:102980009F5F90935B0202C09F3FD1F7EE2059F00A
:102990000E94DF129FEF1E140CF491E0899F802D9E
:1029A000112480935F02FF2059F00E94DF129FEFF5
:1029B0001F140CF491E0899F802D112480936002F4
:1029C00030915F02332309F498CF209160022223D3
:1029D00009F493CF45EB3403C0011124992359F036
:1029E00090935F0245EB240390011124332339F0C7
:1029F0003093600282CF81E080935F02F3CF81E069
:102A0000809360027ACF209107018AE0289F90018D
:102A100011242417350708F085CF9F5F90935A0241
:102A200002C09F3FD1F7002359F00E941D139FEF72
:102A300010160CF491E0899F802D1124809361027F
:102A4000112359F00E941D139FEF11160CF491E011
:102A5000899F802D1124809362023091610233237B
:102A600009F460CF20916202222309F45BCF45EB89
:102A70003403C0011124992359F09093610245EB6E
:102A8000240390011124332339F0309362024ACF9A
:102A900081E080936102F3CF81E08093620242CFB4
:102AA00086E0EDE5F2E0DF011D928A95E9F71092EC
:102AB0005B0210925A0210925C02089583E290E049
:102AC0000E946524813289F484E290E00E946524AA
:102AD000803159F485E290E00E94652491E08031D4
:102AE00009F090E0892F8170089580E0FCCFCF93AA
:102AF000C82F6FEF811161E283E290E00E9473249E
:102B0000C1110CC0CFEF6C2F84E290E00E947324BF
:102B10006C2F85E290E0CF910C947324C0E1F3CF49
:102B2000089586E290E00E946524682F70E090E0AE
:102B300080E008950895CF93C62F0E949A156C2FB8
:102B400086E290E0CF910C94732480E00E94771588
:102B500060E070E0CB010E949B150E942F180E943C
:102B60001B1981E00C9477150E9490150E94911515
:102B70000E949A150E945E15811102C00C94A51541
:102B80000895CF93FB01C281CC2309F19C0122510E
:102B90003F452031310520F582510E942B19C0E0BC
:102BA0008C2FCF91089581E00E94220943E062E0DA
:102BB00081E00E948203F3CF81E00E942D0943E06F
:102BC00062E081E00E948203EBCF82E0F6CF8031A9
:102BD000FFE59F0789F381319F45B9F3C1E0E0CF5D
:102BE0008031EFE59E07F9F281319F45C9F682E019
:102BF000DBCF2FEFFC0120830895EF92FF920F931C
:102C00001F93CF93DF93EC01062FE881E150E3316E
:102C100008F05EC0F0E0EB54FB4D0C9437241982B1
:102C200089E08A83602FCE01DF91CF911F910F91B0
:102C3000FF90EF900C94321D8981823069F08330CF
:102C400071F08130D9F40E94381C0E943D246A83BF
:102C50007B838C839D83E6CF0E949115F6CF7E0106
:102C600010E0812F0E947811F701928383831F5F08
:102C7000F2E0EF0EF11C1530A1F7D4CF602FCE019A
:102C80000E94F915CFCF89818230C1F76A817B819B
:102C90008C819D810E943D240E949B15C3CF4B8156
:102CA0006A8189810E9401189827892798279D8326
:102CB0008C83B8CF2C813D813227232732274B814B
:102CC0006A8189810E941A18ADCF0E942F18AACF5D
:102CD0008FEF8883A7CF0E94C4188983A3CF0E9457
:102CE000C6189827892798279A8389839BCF6B8159
:102CF00070E089819A81AE014C5F5F4F98278927E8
:102D000098270E94C9188ECF6B8170E089819A81C3
:102D1000AE014C5F5F4F9827892798270E94F018D3
:102D200081CF0E941B197ECF0E94EE17D6CF6B81F8
:102D300070E089819A81AE014C5F5F4F98278927A7
:102D400098270E9467186ECF6B8170E089819A8105
:102D5000AE014C5F5F4F9827892798270E948D18F6
:102D600061CFCF93DF93EC01FB018281882309F4CB
:102D700033C1C330FDE5DF07C0F5CA3F9CE5D90785
:102D800030F49E0122503C4524313105B0F50E94BB
:102D9000EF0D9093950280939402C1318CE5D80792
:102DA00009F4EEC008F069C0C930ECE5DE0709F4AB
:102DB000D5C0C8F5C5308CE5D80709F4C7C000F503
:102DC000C330ECE5DE0709F4B9C008F0BBC0C2307F
:102DD000DC4509F4ADC080919402909195020E9467
:102DE000FD0D0E94AF0880E008C0C136EDE5DE07AA
:102DF00071F2C53AFDE5DF0751F2DF91CF910895F9
:102E0000809194028062C7309CE5D90709F493C091
:102E1000809194028061C830DC4508F48CC08091B8
:102E20009402806488C0809194028B7FCD30FCE551
:102E3000DF0709F480C098F4809194028E7FCB3034
:102E40009CE5D90709F477C0809194028C60CC305E
:102E5000DC4508F470C0809194028D7F6CC0809135
:102E600094028F7ECF30FCE5DF0709F464C008F4DC
:102E70007BC0809194028F7D5EC0CD3F9CE5D907D9
:102E800009F47AC050F5C531FCE5DF0709F486C0C6
:102E900098F480919402837FC3319CE5D90709F4AB
:102EA0004AC008F471C00E94AF0890919402892F23
:102EB00097FB87F980583FC0CB3FFCE5DF0709F45B
:102EC00049C008F055C0809195028160CA3FDC4539
:102ED00009F081CF809395027ECFC130EDE5DE070A
:102EE00009F468C0A8F4CF3F8CE5D80709F452C0B4
:102EF000809195028360C115DD4560F38091950254
:102F0000982F909591708E7F892B90FB81F9E2CF5D
:102F1000C136EDE5DE0709F451C0C53AFDE5DF072E
:102F200009F453C0C230DD4509F055CF80E043C0FD
:102F3000809194028160809394024DCF809194029D
:102F40008260F9CF809194028460F5CF80919402E1
:102F50008860F1CF809195028260BCCF0E94AF085B
:102F6000809194028068E7CF80919402877FE3CFBD
:102F7000809195028E7FAECF809195028D7FAACFF2
:102F8000809194028F7BD7CF0E94AF0880919402EA
:102F90008F77D1CF809195028C7F9CCF80919402C6
:102FA00082FB992790F921E0922790FB82F990FB10
:102FB00083F9C1CF81E00E94820E0DCF90919402DF
:102FC000892F8F7E94FF8061B6CF90919402892FD4
:102FD0008E7F90FF8160AFCF81E00FCF84E00895B6
:102FE00090E2699FB001112450E0440F551F640F17
:102FF000751F90EA899F600D711D1124CB01879682
:1030000008950F931F93CF93DF930E94F0178C01C5
:103010000E946524C82FD0E0DC2FCC27C801019680
:103020000E9465249E01282BC901DF91CF911F9139
:103030000F9108950F931F93CF93DF93122F032FB8
:103040000E94F017EC01602F0E947324612FCE01C3
:103050000196DF91CF911F910F910C947324AF9241
:10306000BF92CF92DF92EF92FF921F93CF93DF93A5
:103070008CEAC82E80E0D82ED0E07601C0E014C0E3
:10308000F50125913491412F6C2F8D2F0E941A1834
:1030900082E0A80EB11C1F5F103191F780E2E80EAC
:1030A000F11CCF5FC53019F0570110E0E9CFDF5FA9
:1030B00080EAC80ED11CD43001F7DF91CF911F9167
:1030C000FF90EF90DF90CF90BF90AF900895EF9278
:1030D000FF920F931F93CF93DF93EC018A017C0142
:1030E000E60EF71ECE018796CE15DF0539F4DF9187
:1030F000CF911F910F91FF90EF900895C03822E07B
:10310000D20740F40E946524F80180830F5F1F4FAF
:103110002196E8CFF8011082F9CFCF92DF92EF929B
:10312000FF920F931F93CF93DF937C016A018C0171
:10313000060F171FEC01CE018796C017D10749F47F
:10314000DF91CF911F910F91FF90EF90DF90CF9083
:103150000895C03822E0D20740F4FE01EE19FF09BD
:10316000EC0DFD1D60810E9473242196E4CF462F53
:10317000843038F4753028F4603118F4672F0C94DB
:10318000011890E080E0089580E1089589E591E0DC
:103190000895EF92FF920F931F93CF93DF93EC016B
:1031A0008A017C01E60EF71ECE0189559D4FCE1592
:1031B000DF0539F4DF91CF911F910F91FF90EF90D0
:1031C0000895C93521E0D20740F40E946524F80132
:1031D00080830F5F1F4F2196E7CFF8011082F9CF50
:1031E000CF92DF92EF92FF920F931F93CF93DF93D3
:1031F0007C016A018C01060F171FEC01CE01895575
:103200009D4FC017D10749F4DF91CF911F910F91C6
:10321000FF90EF90DF90CF900895C93521E0D2075D
:1032200040F4FE01EE19FF09EC0DFD1D60810E94C6
:1032300073242196E3CFCF93DF93C7EAD2E060E017
:10324000CE010E9473242196C11584E0D807B9F7F6
:10325000DF91CF910895DF92EF92FF920F931F932A
:10326000CF93DF9300D000D0CDB7DEB7F82E8FE03C
:103270008F1540F08FEF93E00E94652407EA12E07B
:103280008823C1F00F900F900F900F90DF91CF9196
:103290001F910F91FF90EF90DF900895011584E04A
:1032A000180781F3C8010E946524811101C0FA94B6
:1032B0000F5F1F4FF110F2CF19821A821B821C82FE
:1032C000DD24D39478018FEFE81AF80AC8010E9430
:1032D000652489831A828823A9F29FEF980F93307F
:1032E00078F48A83D9820E5F1F4FC7010E9465243C
:1032F0008B83882339F2CE0101960E94CD04E2CF60
:103300008701F9CFCF93DF93EB0186319C4539F5E7
:103310000E94F50C982F91718A7A911180E09A8120
:10332000992399F091E0811101C090E0909363029C
:10333000811109C089E20E94D00C0E94350D80E005
:10334000DF91CF91089585E3F6CF809163028111DB
:1033500004C089E20E94D70CF0CF85E3FBCF81E067
:10336000EFCF0F931F93CF93DF93C42FD22FFC0186
:1033700082818823C9F0409366020E942C1C90939E
:1033800065028093640280E28C0F883008F050C0A0
:10339000C77081E001C0880FCA95EAF7DF91CF912D
:1033A0001F910F910C94490610916602141335C0B9
:1033B00080916402909165020E94441C883C9105B2
:1033C00060F5C0E2CD0F1D17B9F080E2810F8830A3
:1033D00040F4177081E001C0880F1A95EAF70E9447
:1033E0005006C83048F481E09D2F977001C0880FC7
:1033F0009A95EAF70E944906802F0E944106C8303C
:10340000B8F4D77081E001C0880FDA95EAF7DF9150
:10341000CF911F910F910C94500680E28C0F883051
:1034200038F4C77081E001C0880FCA95EAF7EFCF82
:10343000DF91CF911F910F9108950F939C01CB01C4
:10344000233F4CE5340759F1A8F4283DFCE53F073C
:1034500001F1293D4CE53407D1F1273D3C4591F47C
:1034600006E221EE41EE67ED7CE50E94B11980E0B5
:103470000F910895253FFCE53F07E9F0B0F0263FA6
:103480003C45F9F0FC018281882339F110926602F3
:10349000EFCF07E225EE45EE68ED7CE5E6CF06E2EC
:1034A00021EE40EE63EF7CE5E0CF07E225EE44EE4F
:1034B00064EF7CE5DACF06E221EE42EE65EF7CE5D3
:1034C000D4CF07E225EE46EE66EF7CE5CECF08E2EC
:1034D00021E045EE69ED7CE5C8CF81E0C9CF90934E
:1034E000A1018093A001089590936C0280936B02D8
:1034F0000895E0916B02F0916C02309721F00190F9
:10350000F081E02D099480E00895E0916B02F09144
:103510006C02309799F020911801222359F02091E4
:10352000940227FF07C0DC012C9111962C93119770
:1035300026E02C930280F381E02D09940895E09118
:103540006B02F0916C02309739F022E0DC012C9391
:103550000480F581E02D099408952091690230914D
:103560006A022817390771F090936A028093690202
:10357000E0916B02F0916C02309721F00680F781A8
:10358000E02D099408952091670230916802281770
:10359000390771F09093680280936702E0916B02A3
:1035A000F0916C02309721F00084F185E02D0994B0
:1035B0000895FC01329680911801882321F08091B2
:1035C00094029EE187FF96E080E0915008F4089510
:1035D00021912223D1F38F5FF8CF662301F120914F
:1035E00018012223F1F02091940227FF1AC0462FE0
:1035F0004695469546954E3190F4677021E030E04F
:1036000002C0220F331F6A95E2F7840F911DFC015F
:10361000828190E02823392381E0232B69F480E024
:103620000895FC01329608962191261721F0E8179B
:10363000F907D1F7F4CF81E008959C01FC0132969F
:103640009FEF80E04191461751F09F3F19F44111DF
:1036500001C0982F8F5F8630A9F79F3F09F4089526
:10366000290F311D97FD3A95F90162830895FC01F8
:10367000329608962191261303C0DF0111971C9200
:10368000E817F907B9F70895E62FE695E695E69568
:10369000EE3168F4E80FF92FF11D677021E030E09A
:1036A00001C0220F6A95EAF78281822B82830895F6
:1036B000E62FE695E695E695EE3170F4E80FF92FE2
:1036C000F11D677021E030E001C0220F6A95EAF732
:1036D0002095828128232283089520911801222396
:1036E00029F02091940227FD0C94441B0C941D1B7F
:1036F00020911801222329F02091940227FD0C9497
:10370000581B0C94371BFC013296809118018823BA
:1037100051F08091940287FF06C08EE1DF011D9277
:103720008A95E9F7089586E0F9CF08950C94951BE2
:10373000811105C081E080936D020C94961B82E09C
:10374000FACF83E080936D020C94961B0C94981B27
:1037500081E080936D020C94961B0C94A81B089535
:1037600008950C94B01B089508950C94AF1BCF934B
:103770000E94B31B0E9441120E94B41BC0E08C2F18
:103780000E947811892B31F4CF5FC530C1F780E0FA
:10379000CF91089581E0FCCF08951F921FB61F922C
:1037A00011248F939F93AF93BF9380916E028111E9
:1037B00013C08091AA029091AB02A091AC02B0918B
:1037C000AD024196A11DB11D8093AA029093AB0258
:1037D000A093AC02B093AD02BF91AF919F918F9136
:1037E0001F901FBE1F9018958091B202843031F156
:1037F0000E94F70310926E0288E190E020E40FB679
:10380000F894A895809360000FBE2093600083B762
:10381000817F846083BF83B7816083BF78948895FC
:1038200083B78E7F83BF0FB6F894A8958091600010
:10383000886180936000109260000FBE08950E941E
:10384000AF080C94FB0382E084BD93E095BD9AEF32
:1038500097BD80936E0008952FB7F8948091AA02C7
:103860009091AB02A091AC02B091AD022FBF089530
:103870002FB7F8946091AA027091AB028091AC02CC
:103880009091AD022FBF08959C014FB7F89480919D
:10389000AA029091AB02A091AC02B091AD024FBFD1
:1038A000821B930B089578941F921FB61F921124C8
:1038B0008F939F93AF93BF938091AA029091AB0295
:1038C000A091AC02B091AD020196A11DB11D8093F3
:1038D000AA029093AB02A093AC02B093AD02BF9149
:1038E000AF919F918F911F901FBE1F90189581E0FF
:1038F0008093E00080E28093D8001092C9008FE1AD
:103900009EE40197F1F700C0000087E090EBDC0136
:103910008093BB029093BC02A093BD02B093BE0201
:1039200088E19CE00FB6F894A895809360000FBEE4
:1039300090936000FFCF80919202089508959C01BA
:1039400084E08093E9009FEF8091E800915085FD2D
:1039500006C085ED8A95F1F700009111F5CF8091B1
:10396000E80085FF0CC050E040E066E070E0C9016F
:103970000E94431F8091E8008E778093E8000895AD
:10398000CF93DF93EC01809118018823B1F18091EE
:10399000940287FF32C060E284E08093E9008FEFF9
:1039A0009091E800815095FD06C095ED9A95F1F74C
:1039B00000008111F5CF8091E80085FF1BC0809148
:1039C000180170E050E040E0811104C050E040E098
:1039D00068E070E0CE010E94431F8091E8008E777E
:1039E0008093E80080E2FE01A2E7B2E001900D9230
:1039F0008A95E1F7DF91CF91089568E081E0CDCF1E
:103A000080936F0270937102609370028091B20292
:103A10008430F9F48093E9008FEF9091E8008150B1
:103A200095FD06C095ED9A95F1F700008111F5CF4F
:103A30008091E80085FF0DC050E040E063E070E059
:103A40008FE692E00E94431F8091E8008E7780937A
:103A5000E8000895BC0184E00C94001DBC0183E0E3
:103A60000C94001DCF93FC01603221F58091B202CD
:103A7000843001F5C091E900CF702091EC00922FC5
:103A8000917020FD90E8C92B82E08093E90080913D
:103A9000E80080FF0CC050E040E060E270E0CF0141
:103AA0000E94431F8091E8008E778093E800CF70DA
:103AB000C093E900CF9108958091B102811109C0AE
:103AC0000E9422210E947F218091E20084608093E5
:103AD000E20008951092B10208950C94A81B609121
:103AE000AE0281E0611101C080E00C94A11B9091B5
:103AF000B20281E0943009F080E06091AE020C9453
:103B0000A61B42E061EC81E00E949E2042E261EC53
:103B100084E00E949E2042E261EC82E00E949E20AE
:103B200042E260EC83E00E949E209091B20281E02C
:103B3000943009F080E06091AE020C94981B809163
:103B4000B402833009F462C030F48130D9F182309C
:103B500009F49EC008958A3009F48AC08B3009F4B4
:103B600070C0893009F051C08091B302813209F0F0
:103B70004CC08091B7029091B802009719F002975B
:103B800009F043C08091E800877F8093E80080912E
:103B9000E80082FF36C09091F3008091F200029716
:103BA00031F48091F100813011F0863021F4809160
:103BB000F100809392028091E8008B778093E80077
:103BC0000C94D2208091B302813AF9F48091E800FC
:103BD000877F8093E8008091B7029091B802892B8B
:103BE00061F460E282E792E070E00E94E11F809160
:103BF000E8008B778093E800089560E090E080E033
:103C0000F3CF8091B2028111C2CF08958091B302A7
:103C1000813AD9F78091B7029091B802892BA9F720
:103C20008091E800877F8093E8008091E80080FF22
:103C3000FCCF809118018093F1008091E8008E778D
:103C4000BDCF8091B302813201F78091B70290918C
:103C5000B802892BD1F68091E800877F8093E80035
:103C60000E94D2208091B502809318010C94AF0875
:103C70008091B302813249F68091E800877F80937A
:103C8000E8000E94D2208091B602809393020895AA
:103C90008091B302813A09F0B8CF8091E800877F24
:103CA0008093E8008091E80080FFFCCF8091930230
:103CB000C2CF84B7877F84BF0FB6F894A895809150
:103CC0006000886180936000109260000FBE80E801
:103CD00090E00FB6F89480936100909361000FBE5E
:103CE0000C94AD1B0E9422210E947F21E2EEF0E0A5
:103CF00080818460808378940C9408248CE091E027
:103D00000C94741A8091B2028530A9F48091B202A9
:103D1000853011F00C941F1C0E94F41B8091B0029E
:103D20008823A1F30E94B71B882381F30E942D1FD3
:103D30000E94AF08EBCF0895CF93DF93CDB7DEB7E6
:103D4000A0970FB6F894DEBF0FBECDBF8091B20230
:103D5000843009F583E08093E9008091E80082FFD8
:103D60001AC08091E80090E085FF09C050E040E073
:103D700060E270E0CE0101960E94921F91E0809176
:103D8000E8008B778093E800992329F060E2CE0168
:103D900001960E94FD15A0960FB6F894DEBF0FBEE7
:103DA000CDBFDF91CF9108950C94D61E292F3327D4
:103DB0002330310521F168F42130310509F443C085
:103DC0002230310509F444C090E080E030E020E08A
:103DD00026C02132310551F122323105A9F7633075
:103DE000710590F7FB01EE0FFF1FED56FE4F20818E
:103DF000318160577E4FFB01808190E010C0992790
:103E00008130910581F0009729F00297E9F6ECEDF9
:103E1000F3E002C0E8E1F4E0849190E09F01FA0150
:103E2000318320830895E6EFF3E0F6CF6330710528
:103E300058F6660F771FFB01E756FE4F2081318150
:103E400089E090E0ECCF82E190E027E734E0E7CF33
:103E50008BE590E02CE134E0E2CF80E189BD82E1A6
:103E600089BD09B400FEFDCF8091D8008F7D80937D
:103E7000D8008091E00082608093E0008091E000B3
:103E800081FDFCCF0895AF92BF92CF92DF92FF9257
:103E90000F931F93CF93DF936C01EB018A010E9474
:103EA000F120F82E811123C00115110539F0F80118
:103EB00080819181C81BD90BC80ED91EB12CA12CB1
:103EC0002097A9F08091E80085FD22C08091E8004C
:103ED0008E778093E80001151105A1F0F80180812B
:103EE0009181A80EB91EB182A08285E0F82E8F2D97
:103EF000DF91CF911F910F91FF90DF90CF90BF90F6
:103F0000AF9008950E94F1208823D1F2F82EEFCFD0
:103F1000F60181916F018093F1002197FFEFAF1AB5
:103F2000BF0ACECFAF92BF92CF92DF92FF920F9394
:103F30001F93CF93DF936C01EB018A010E94F12064
:103F4000F82E811123C00115110539F0F801808187
:103F50009181C81BD90BC80ED91EB12CA12C20975A
:103F6000A9F08091E80085FD22C08091E8008B7760
:103F70008093E80001151105A1F0F801808191817D
:103F8000A80EB91EB182A08285E0F82E8F2DDF9198
:103F9000CF911F910F91FF90DF90CF90BF90AF9086
:103FA00008950E94F1208823D1F2F82EEFCF80915E
:103FB000F100F60181936F012197FFEFAF1ABF0A5D
:103FC000CECFFC018091B9029091BA028617970773
:103FD000A0F06115710529F49091E8009E77909307
:103FE000E80090E06115710551F4911108C08091CD
:103FF000E80082FF34C080E00895BC01F2CF8091D8
:10400000B2028823C1F18530C1F18091E80083FDBF
:1040100030C08091E80082FDEACF8091E80080FF07
:10402000E1CF8091F3002091F200382F61157105E6
:1040300019F02830310558F091E02830310509F0A9
:1040400090E02091E8002E772093E800CBCF81917B
:104050008093F100615071092F5F3F4FE7CF80914E
:10406000B202882341F0853041F08091E80083FF5F
:10407000BECF81E0089582E0089583E00895FC01B9
:104080008091B9029091BA0286179707A0F0611546
:10409000710529F48091E8008E778093E80090E024
:1040A0006115710551F4911108C08091E80082FFFB
:1040B00035C080E00895BC01F2CF8091B202882320
:1040C000C9F18530C9F18091E80083FD31C080914C
:1040D000E80082FDEACF8091E80080FFE1CF809187
:1040E000F3002091F200382F6115710519F0283086
:1040F000310558F091E02830310509F090E08091C9
:10410000E8008E778093E800CBCF84918093F10014
:104110003196615071092F5F3F4FE6CF8091B20217
:10412000882341F0853041F08091E80083FFBDCFC6
:1041300081E0089582E0089583E00895982F9730F4
:1041400028F08F708093E90081E008959093E90052
:10415000242F762F50E0981731F07091EC002091C9
:10416000ED005091F00021FD02C09F5FE8CF30913B
:10417000EB003E7F3093EB003091ED003D7F3093BC
:10418000ED003091EB0031603093EB007093EC0068
:104190002093ED005093F0002091EE0027FDE5CF35
:1041A00080E008958091B30287FF13C08091E800FA
:1041B00082FF06C08091E8008B778093E80004C0FE
:1041C0008091B2028111F2CF08958091B2028823CA
:1041D000D9F38091E80080FFF8CF8091E8008E77D6
:1041E000ECCF2091E4003091E50095E6A901209103
:1041F000EC00822F817020FF06C08091E80080FFD4
:1042000006C080E008952091E80022FD1AC0809148
:10421000B202882389F0853089F08091EB0085FD1A
:104220000FC02091E4003091E50042175307F9F2E6
:104230009150E1F684E0089582E0089583E00895C6
:1042400081E008950E9490210E949821E0EEF0E024
:10425000808181608083E8EDF0E080818F778083CA
:1042600019BCA7EDB0E08C918E7F8C9380818F7EFE
:1042700080831092B10208950F931F93CF93DF9321
:104280000E9490210E949821C8EDD0E088818F770C
:10429000888388818068888388818F7D888319BC22
:1042A0001092B2021092AE021092B0021092AF02BF
:1042B00000EE10E0F80180818B7F8083888181602F
:1042C000888342E060E080E00E949E20E1EEF0E022
:1042D00080818E7F8083E2EEF0E080818160808348
:1042E000808188608083F80180818E7F80838881CF
:1042F00080618883DF91CF911F910F910895E8ED40
:10430000F0E080818F7E8083E7EDF0E08081816046
:10431000808384E082BF81E08093B1020C943C21D1
:10432000E8EDF0E080818E7F80831092E2000895B6
:104330001092DA001092E10008951F920F920FB6CA
:104340000F9211242F933F934F935F936F937F931B
:104350008F939F93AF93BF93EF93FF938091E1006F
:1043600082FF0BC08091E20082FF07C08091E100D4
:104370008B7F8093E1000E9407248091DA0080FF08
:1043800019C08091D80080FF15C08091DA008E7F1F
:104390008093DA008091D90080FF96C080E189BDCA
:1043A00082E189BD09B400FEFDCF81E08093B202B5
:1043B0000E945C1D8091E10080FF19C08091E200A5
:1043C00080FF15C08091E2008E7F8093E200809193
:1043D000E20080618093E2008091D8008062809347
:1043E000D80019BC85E08093B2020E946F1D8091B5
:1043F000E10084FF2BC08091E20084FF27C080E1B0
:1044000089BD82E189BD89B5982F917080FFFBCF6E
:104410008091D8008F7D8093D8008091E1008F7EBD
:104420008093E1008091E2008F7E8093E200809192
:10443000E20081608093E2008091AE02882309F45B
:1044400049C084E08093B2020E94771D8091E10010
:1044500083FF29C08091E20083FF25C08091E100A5
:10446000877F8093E10082E08093B2021092AE02D7
:104470008091E1008E7F8093E1008091E2008E7F49
:104480008093E2008091E20080618093E20042E04C
:1044900060E080E00E949E208091F0008860809320
:1044A000F0000E946D1DFF91EF91BF91AF919F9120
:1044B0008F917F916F915F914F913F912F910F90CD
:1044C0000FBE0F901F90189519BC1092B2020E9457
:1044D0006A1D70CF8091E30087FD93E09093B20254
:1044E000B3CF1F920F920FB60F9211242F933F93C9
:1044F0004F935F936F937F938F939F93AF93BF93EC
:10450000CF93DF93EF93FF93D091E900DF70809119
:10451000EC00C82FC17080FDC0E81092E9008091C6
:10452000F000877F8093F00078940E94B52210926B
:10453000E9008091F00088608093F000CD2BCF706F
:10454000C093E900FF91EF91DF91CF91BF91AF91BF
:104550009F918F917F916F915F914F913F912F919B
:104560000F900FBE0F901F9018951F93CF93DF935E
:10457000CDB7DEB7AA970FB6F894DEBF0FBECDBF9A
:1045800083EB92E02091F100FC012193CF01F2E056
:104590008B3B9F07B9F70E949F1D8091E80083FF26
:1045A0001EC18091B3029091B4029A3008F017C1F5
:1045B000E92FF0E0E853FB4D0C943724803899F054
:1045C000823809F00CC18091B7028F70873008F0F3
:1045D00006C18093E9008091EB0085FB882780F974
:1045E0001092E90006C08091AF029091B002911143
:1045F00082609091E800977F9093E8008093F100AB
:104600001092F1008091E8008E77E5C0882309F4CC
:10461000D3C0823009F0E3C08091B5028111D6C0C9
:104620008091B7028F702FEF280F263008F0D7C087
:104630008093E9002091EB0020FFC8C0933031F453
:104640008091EB0080628093EB00C0C09091EB0002
:1046500090619093EB0021E030E001C0220F8A9539
:10466000EAF72093EA001092EA008091EB0088605C
:10467000EACF8111B4C01091B5021F778091E30099
:104680008078812B8093E3008091E800877F80937E
:10469000E8000E94D2208091E80080FFFCCF80914A
:1046A000E30080688093E30082E0111183E080934F
:1046B000B20295C08058823008F091C08091B50256
:1046C0009091B6028C3D23E09207A1F583E08A83A6
:1046D0008AE289834FB7F894DE01139620E03EE02A
:1046E00051E2E32FF0E050935700E49120FF03C024
:1046F000E295EF703F5FEF708E2F90E0EA30C0F0F0
:10470000C7968D939D932F5F243159F74FBF8091AA
:10471000E800877F8093E8006AE270E0CE010196AE
:104720000E94E11F8091E8008B778093E80057C0DA
:10473000C096E7CF6091B7027091B802AE014F5FAB
:104740005F4F0E94D41EBC01892B09F448C0909190
:10475000E800977F9093E80089819A810E943F202A
:10476000E1CF8038E1F58091E800877F8093E80011
:104770008091AE028093F10045CF811130C09091BD
:10478000B502923060F58091E800877F8093E80061
:104790009093AE020E94D2208091AE02882311F045
:1047A00084E005C08091E30087FDFACF81E080932B
:1047B000B2020E94811D13C08091B502813079F44C
:1047C00081E0933009F080E08093B0021092E9001C
:1047D0008091E800877F8093E8000E94D22080913A
:1047E000E80083FF0AC08091E800877F8093E8009B
:1047F0008091EB0080628093EB00AA960FB6F8944C
:10480000DEBF0FBECDBFDF91CF911F9108950895F8
:10481000CF938091B2028823A1F0C091E900CF70BC
:104820009091EC00892F817090FD80E8C82B109248
:10483000E9008091E80083FD0E94B522CF70C0930B
:10484000E900CF91089597FB072E16F4009407D046
:1048500077FD09D00E94442407FC05D03EF49095D2
:1048600081959F4F0895709561957F4F0895EE0F44
:10487000FF1F0590F491E02D099469279627692779
:104880007827872778270895AA1BBB1B51E107C00B
:10489000AA1FBB1FA617B70710F0A61BB70B881FD0
:1048A000991F5A95A9F780959095BC01CD0108955F
:1048B000FB01DC0104C08D910190801921F441506D
:1048C0005040C8F7881B990B0895F999FECF92BD07
:1048D00081BDF89A992780B50895A8E1B0E042E03B
:1048E00050E00C949924262FF999FECF92BD81BDFA
:1048F000F89A019700B4021639F01FBA20BD0FB61E
:10490000F894FA9AF99A0FBE08950396272F0E94F9
:1049100074240E947324252F0E947424242F0C9445
:1049200074240196272F0E9474240C947324DC01B4
:10493000CB01FC01F999FECF06C0F2BDE1BDF89AAA
:10494000319600B40D9241505040B8F70895F89454
:10495000FFCF95069506C606C60659077507F506E4
:10496000F5068007E707F607F6070F161C1643162D
:104970004F165A1665166816681668166816681671
:104980006B166F1677168416911694169716A41642
:10499000DE220623EF230623EF2339235A23EF23B6
:0449A000B123BD235F
:1049A400C8001E02280850011E0A14019B1CC01CCA
:1049B4009F1C2E1D2A1D9E1C01E200E900EA00B581
:1049C40000B600B700CD008301CC008A01920194A7
:1049D400012102230224022502260227022A02B30D
:1049E40000B4006F007000818283E200E900EA00F5
:1049F400B500B600B700CD008301CC008A01920156
:104A040094012102230224022502260227022A02FB
:104A1400B300B4006F007000818283F1F4F5313289
:104A24003394929395969734353666F0C6913067F1
:104A34004022B661058904AB042E044704670400D0
:00000001FF
