:100000000C948F040C94C7040C94C7040C94C7047C
:100010000C94C7040C94C7040C94C7040C94C70434
:100020000C94C7040C94C7040C94312E0C94ED2D41
:100030000C942E2F0C94C7040C94C7040C94C70482
:100040000C94C7040C94C7040C94C7040C94C70404
:100050000C94C7040C940A2F0C94C7040C94C70486
:100060000C94C7040C94C7040C94C7040C94C704E4
:100070000C94C7040C94C7040C94C7040C94C704D4
:100080000C94C7040C94C7040C94C7040C94C704C4
:100090000C94C7040C94C7040C94C7040C94C704B4
:1000A0000C94C7040C94C7040C94C70405010902FE
:1000B000A10185020901A100050919012905150001
:1000C00025019505750181029501750381010501E1
:1000D000093009311581257F950275088106093897
:1000E0001581257F950175088106050C0A380215D2
:1000F00081257F950175088106C0C005010980A191
:1001000001850319012AB700150126B7009501756D
:10011000108100C0050C0901A101850419012AA064
:1001200002150126A002950175108100C005010984
:1001300006A1018506050719E029E71500250195A7
:1001400008750181020507190029EF1500250195A1
:10015000F0750181020508190129059505750191C0
:1001600002950175039101C00660FF0961A10109B3
:1001700062150026FF0095207508810209631500AD
:1001800026FF00952075089102C005010906A1010E
:10019000050719E029E71500250195087501810279
:1001A0009501750881010507190029FF150026FF33
:1001B0000095067508810005081901290595057542
:1001C000019102950175039101C00000000000003B
:1001D000000000000000000000000000000000001F
:1001E00000000000000000000000000000007E0F82
:1001F00000D4FFFFFFC700000078000000000000EF
:1002000000002A2B28000000000000000000000071
:10021000000000000029000000002C1E34202122D4
:1002200024342627252E362D3738271E1F2021223D
:10023000232425263333362E37381F0405060708B6
:10024000090A0B0C0D0E0F101112131415161718A6
:10025000191A1B1C1D2F3130232D350405060708E4
:10026000090A0B0C0D0E0F10111213141516171886
:10027000191A1B1C1D2F3130354CFD377A585A0086
:100280000004E6D6B4460200210116000000742FD7
:10029000E5A3E00623021A5D003D8889C65436C3F3
:1002A000174FE4F0023D5EE22A6E9882487A647D40
:1002B0008543EFF27095217D95F1A66E84A0FF3302
:1002C0002FC4DE639556D48CCFBA090D86F32684ED
:1002D000464642D137E5BDCF5B42736CB94E8D3196
:1002E000E839E2D7E954849A4050D77252E79292A3
:1002F0001F6D973346DB84C64D9C77E01141BACB26
:100300006E3690E55E0E7EA7A5F2DADEC677FF6F49
:1003100026BBBA7F3462F3A64883D829E216EACB1B
:10032000FAA04A9A221022FD84155135398C7DA6F7
:100330002DD0C06EFF6082CF8881738CDA53A7AA5C
:100340006796BBD74443D45B41D1C12E64695D5EDF
:100350001EDD3CE6062B66551DD53E935527D2156E
:10036000CDF52F35C2796FB51B57A956F90A6FC95C
:100370008497F23F00E8C0F0894306895D738BDE05
:100380003B24554CB950E348C44722D52483E5614A
:100390002F4A4994422548087131746BDC369AF72C
:1003A000C0B67ADA50E3AF7DE53161D1C80E2EA434
:1003B000B3D368A9A45672F7CEDDCC56443519756F
:1003C000A62DDDAE685C6917484B667252567DA952
:1003D000824012A7A6DA4F16129039A27C97E44EFB
:1003E0001E040613E501E2D2F704A87201B8EB95EA
:1003F000CA49C3A18E5474485338F3E0F19AFAC045
:10040000FB2102A1E7EE7749E7E5FE62C2EB8EB978
:10041000E03811027EA1F006BAF152613C420B7045
:100420005AB4B68804F9E00A876E869596F375E2A9
:10043000393A2BF59E08FBD19636FDA5604B681323
:1004400026509176111CFD37DA9F77AF553FD417B0
:10045000906F41525DF8CF0DD2C0DE1FB9D21DBAE8
:10046000671D677810F0C6FC40C9029EFBDA384C65
:100470002CD2CE51046FF1E6AF03967666DEC20C45
:10048000D7D43C989317EE9AFCA2EB17EA1CA45A17
:10049000CCB106742C8329036764E06960B3DC1770
:1004A0001ABC7B3A68547C09E9F8601E491E2E6626
:1004B00025177900000078FD64A56315CF28000199
:1004C000B604A40C000043F55531B1C467FB02002B
:1004D00000000004595A29001E001F0020002100BE
:1004E0002200230024002500260027002D002E00D6
:1004F0002A004C004A002B0014001A0008001500C6
:1005000017001C0018000C00120013002F00300010
:10051000310000004D0039000400160007000900FA
:100520000A000B000D000E000F0033003400010024
:10053000280000004B00E10001001D001B00060028
:100540001900050011001000360037003800E500E2
:10055000520000004E00E000E300E2000000000056
:1005600000002C00000000000000E60001515000D7
:10057000510000004F00005C3A003B003C003D0091
:100580003E003F004000410042004300440045005F
:100590000100010001000100010001000100010053
:1005A0000100010001000100010001000100010043
:1005B0000100000001000100010001000100010034
:1005C0000100010001000100010001000100010023
:1005D0000100000001000100010001000100010014
:1005E0000100010001000100010001000100010003
:1005F00001000000010001000100010000000000F6
:1006000000000100000000000000010001000100E6
:1006100001000000010001000100010001000100D3
:1006200001000100010001000100010001000100C2
:1006300001000100010001000100010001000100B2
:1006400001000100010001000100010001000100A2
:100650000100000001000100010001000100010093
:100660000100010001000100010001000100010082
:100670000100000001000100010001000100010073
:100680000100010001000100010001000100010062
:100690000100000001000100010001000000000055
:1006A0000000010000000000000001000100010046
:1006B0000100000001000100010001000100010033
:1006C0000100010001000100010001000100010022
:1006D0000100010001000100010001000100010012
:1006E0000100010001000100010001000100010002
:1006F00001000000010001000100010001000100F3
:1007000001000100010001000100010001000100E1
:1007100001000000010001000100010001000100D2
:1007200001000100010001000100010001000100C1
:1007300001000000010001000100010000000000B4
:1007400000000100000000000000010001000100A5
:10075000010000000100010001001404260F590FE0
:100760000000020002001004260F590F00000300D1
:1007700001001504260F590F000004000200FA03BF
:10078000260F590F1908050001001604260F590FEE
:10079000000006000200FC03260F590F00000700AE
:1007A00002001204260F590F000008000100170470
:1007B000260F590F000009000200FE03260F590FF3
:1007C000F4070A0002000004260F590FF4070B007B
:1007D00002000204260F590FF4070C000200040463
:1007E000260F590FF4070D0002000604260F590FBB
:1007F000F4070E0002000804260F590FF4070F003B
:1008000002000A04260F590FF407100002000C041E
:10081000260F590FF407110002000E04260F590F7E
:10082000F407120002001804260F590F00001300ED
:1008300002001A04260F590F0000140001001C04C6
:10084000260F590F00001500000000007107C417A3
:10085000000009025B00030100A0FA090400000186
:100860000301010009211101000122400007058157
:10087000030800010904010002030000000921111E
:100880000100012222000705820320000107050361
:1008900003200001090402000103000000092111E6
:1008A00001000122BC0007058403200001120100A1
:1008B0000200000008FF2109AA0100010203011C37
:1008C000037600690061006C003A0066003600346F
:1008D000006300320062003300630000001803630D
:1008E0000063006400360035002F00610074006D65
:1008F0000065006C00000020036300610062006C72
:1009000000650063006100720064006500730069A7
:100910000067006E00730000000403090400112446
:100920001FBECFEFDAE0DEBFCDBF04B603FE18C0B6
:100930008091140590911505A0911605B0911705A9
:100940008730904BA740B04B59F410921405109289
:1009500015051092160510921705E0E0F8E30995C9
:1009600011E0A0E0B1E0ECEEFEE602C005900D92D1
:10097000AC37B107D9F725E0ACE7B1E001C01D9273
:10098000A431B207E1F70E94552F0C9449370C941B
:100990000000E8EDF0E080818E7F80831092E2001D
:1009A0001092DA001092E100A0EEB0E08C9181602C
:1009B0008C9380818F77808319BCA7EDB0E08C91F8
:1009C0008E7F8C9380818F7E80831092E3040895C4
:1009D0002091E4003091E50095E6A9012091EC001A
:1009E000822F817020FF06C08091E80080FF06C042
:1009F00080E008952091E80022FD1AC0809108054A
:100A0000882389F0853089F08091EB0085FD0FC047
:100A10002091E4003091E50042175307F9F291501C
:100A2000E1F684E0089582E0089583E0089581E08E
:100A30000895EF92FF920F931F93CF937C018B0148
:100A40000E94E804C82F811117C08091E80085FD3D
:100A50000BC08091E8008E778093E8000E94E80444
:100A6000882399F3C82F08C0F70181917F018093F3
:100A7000F1000150110949F78C2FCF911F910F916F
:100A8000FF90EF90089580910A0587FF13C0809131
:100A9000E80082FF06C08091E8008B778093E80031
:100AA00004C0809108058111F2CF08958091080556
:100AB0008823D9F38091E80080FFF8CF8091E80087
:100AC0008E77ECCF982F9093E900242F762F50E06B
:100AD000891731F07091EC002091ED005091F000F9
:100AE00021FD07C09F5F973071F78093E90081E097
:100AF00008953091EB003E7F3093EB003091ED0094
:100B00003D7F3093ED003091EB0031603093EB008E
:100B10007093EC002093ED005093F0002091EE00D4
:100B200027FDE0CF80E00895CF92DF92EF92FF9211
:100B30000F931F93CF93DF93C8EDD0E088818F7E12
:100B40008883E7EDF0E080818160808384E082BF6C
:100B500081E08093E30488818E7F888302EE10E039
:100B6000F80110821092DA0081EEC82ED12CF60125
:100B7000108288818F7788838881806888838881C4
:100B80008F7D888319BC1092080510920905109278
:100B900007051092060590EEE92EF12CF7018081F1
:100BA0008B7F808388818160888342E060E080E081
:100BB0000E946205F60180818E7F8083F80180812A
:100BC00081608083808188608083F70180818E7F4F
:100BD0008083888180618883DF91CF911F910F91FD
:100BE000FF90EF90DF90CF900895FC018091100569
:100BF0009091110586179707A0F06115710529F4EA
:100C00009091E8009E779093E80090E0611571055F
:100C100051F4911108C08091E80082FF34C080E057
:100C20000895BC01F2CF809108058823C1F1853079
:100C3000C1F18091E80083FD30C08091E80082FD21
:100C4000EACF8091E80080FFE1CF8091F30020910E
:100C5000F200382F6115710519F02830310558F070
:100C600091E02830310509F090E02091E8002E77DE
:100C70002093E800CBCF81918093F10061507109FE
:100C80002F5F3F4FE7CF80910805882341F08530E3
:100C900041F08091E80083FFBECF81E0089582E0BB
:100CA000089583E0089508958091E50408959C01D6
:100CB0004FB7F8948091DA049091DB04A091DC04A2
:100CC000B091DD044FBF821B930B08952FB7F894AA
:100CD0006091DA047091DB048091DC049091DD0472
:100CE0002FBF08952FB7F8948091DA049091DB0418
:100CF000A091DC04B091DD042FBF08952091D704AA
:100D00003091D8042817390771F09093D804809354
:100D1000D704E091D504F091D604309721F00084F7
:100D2000F185E02D099408952091D3043091D404E5
:100D30002817390771F09093D4048093D304E0917D
:100D4000D504F091D604309721F00680F781E02D8C
:100D500009940895E091D504F091D604309721F0DC
:100D60000190F081E02D099480E00895CF93DF9306
:100D7000EC014091EF035091F0036091F103709109
:100D8000F2032FB7F8948091DA049091DB04A091DC
:100D9000DC04B091DD042FBF841B950BA60BB70BB1
:100DA000843F9140A105B10518F58091EF03909122
:100DB000F003A091F103B091F2038093EB039093C1
:100DC000EC03A093ED03B093EE0384EF91E0A0E079
:100DD000B0E08093E7039093E803A093E903B09316
:100DE000EA03D093F703C093F603DF91CF91089500
:100DF0000E9466066093EB037093EC038093ED030F
:100E00009093EE0382E390E0A0E0B0E0E2CFFC013B
:100E10008481862351F492819923B9F069238085D6
:100E200083FF05C081E061110FC080E00895892F24
:100E30008F7092959F70982B862F8F7062956F7030
:100E4000682B81E09613F1CF089581E0FDCF452B0B
:100E500039F0682381E06F3F09F080E081700895E8
:100E600081E0FCCFDC016091E3038091E403962FE5
:100E7000891301C00895292F30E0F901EE0FFF1FFB
:100E8000E552FC4F408151814A175B07A1F487E08E
:100E90008A9FA0018B9F500D112441545C4F81E02B
:100EA000FA0184839613E6CF2F5F3F4F23703327D9
:100EB0002093E30308952F5F3F4F922F9370D8CF75
:100EC00010925C0310925B03EFEBF3E085818111DC
:100ED00002C014821682379683E0EB3DF807B1F723
:100EE0000895AF92BF92CF92DF92EF92FF920F934D
:100EF0001F93CF93DF938FEF9FEF4430510508F49A
:100F000068C04091DE0441FB882780F990E0880F9B
:100F1000991F42FB002700F910E0000F111F000F7E
:100F2000111F802B912B40FBCC24C0F8D12C8C2995
:100F30009D2943FB222720F9C22FE0E0DE2F53E05A
:100F4000CC0FDD1F5A95E1F78C2B9D2B44FBAA2774
:100F5000A0F9B0E0E4E0AA0FBB1FEA95E1F78A2B05
:100F60009B2B45FBEE27E0F9F0E0A5E0EE0FFF1F1D
:100F7000AA95E1F78E2B9F2B46FB222720F930E024
:100F8000B6E0220F331FBA95E1F7822B932B47FB74
:100F9000222720F930E03695322F222737952795E2
:100FA000822B932B2091DF04322F3170F32EF92AFC
:100FB00026952170B22EBB0CA82EBF28C501BB0CF4
:100FC000AA0BBB0BFB0180839183A283B38390E0C8
:100FD00080E0DF91CF911F910F91FF90EF90DF9014
:100FE000CF90BF90AF900895EAEFF3E084819581B0
:100FF0002AE030E0B9010E9494366093180186819E
:101000008093170182858093160184858093150152
:1010100086859785B9010E94943660931401808972
:101020008093130182898093120184898093110136
:1010300008958091FA039091FB0390931A01809395
:101040001901089581152CE5920741F420910F01B3
:1010500030911001232B11F490E080E008950E945C
:1010600072069C019091690280916A02982B21F08E
:10107000309366022093650290916B0280916C021E
:10108000982B21F03093640220936302E091D50401
:10109000F091D604309749F082E080936702048093
:1010A000F581E02D87E692E0099408959091690218
:1010B000803F59F480916A0287FF0DC010926A0246
:1010C00091110BC01092610208C0813F81F48091A0
:1010D0006A0218169CF3992381F080916B0290911B
:1010E0006C02892B09F064C0109260020895823F5F
:1010F00049F497FFF0CF1092690280916A02811142
:10110000ECCFE0CF833F19F41916ACF3E4CF209174
:101110006B02893F29F41216F4F610926B02DBCFB2
:101120008A3F19F427FFD7CFF8CF20916C028B3F6D
:1011300029F427FFD0CF10926C02CDCF8C3F19F449
:101140001216CCF3C8CF843F31F4809168028E7FB1
:1011500080936802C0CF853F21F4809168028D7F23
:10116000F7CF863F21F4809168028B7FF1CF873FD4
:1011700021F480916802877FEBCF883F21F4809132
:1011800068028F7EE5CF8D3F31F4809162028E7FC1
:1011900080936202A0CF8E3F21F4809162028D7F06
:1011A000F7CF8F3F09F097CF809162028B7FF0CF0E
:1011B00008958091620280FF0CC06091120170E07E
:1011C00075956795759567956115710549F1862F38
:1011D000089581FF06C06091120170E075956795D2
:1011E000F3CF6091120182FD0BC0909160029923B0
:1011F000A1F06091110180911201961738F0682FCB
:1012000070E06038710500F38FE70895899FC00191
:10121000112470E00E94A836F4CF61E070E0D7CFCF
:1012200081E008958091620260910204709103044C
:1012300080FF16C020911601269FC001279F900DA8
:101240001124BC0176956795769567956038710590
:1012500008F043C06115710509F441C0862F089557
:1012600081FF0BC020911601269FC001279F900D82
:101270001124BC0176956795E9CF82FF09C0809162
:1012800016019B01829FB001839F700D1124DECF58
:10129000209161022223D1F29091150180911601D3
:1012A000482F50E0291748F0CB01849FB001859F5B
:1012B000700D949F700D1124C9CF289F90011124A7
:1012C000269FA001279F500D369F500D1124692F96
:1012D00070E0CA010E949436B9CF8FE7089581E08B
:1012E0000895803F31F40E941209819580936A022B
:1012F0000895813F19F40E941209F8CF823F31F41A
:101300000E9412098195809369020895833F19F420
:101310000E941209F8CF893F29F40E94D9088093CE
:101320006B0208958A3F21F40E94D9088195F7CF76
:101330008B3F31F40E94D908819580936C02089507
:101340008C3F19F40E94D908F8CF843F31F4809182
:1013500068028160809368020895853F21F480913E
:1013600068028260F7CF863F21F480916802846032
:10137000F1CF873F21F4809168028860EBCF883FEE
:1013800021F4809168028061E5CF8D3F31F4809136
:10139000620281608093620208958E3F21F4809101
:1013A00062028260F7CF8F3FB9F78091620284605A
:1013B000F1CF80E00895F894E82FE295EF70F0E027
:1013C00031A1282F2F7081E090E001C0880F2A956D
:1013D000EAF7982F9095932391A392A1892B82A34A
:1013E000789408959091DE0492FF06C0282F28710A
:1013F0002830F9F4877F846093FF06C0282F287176
:101400002831F1F4877E84612091DF0420FF06C03B
:10141000382F38713830D9F4877F816021FF06C0BA
:10142000282F28712831D1F4877E816194FD877E31
:101430000895282F24712430F9F68B7F8860DCCF43
:10144000282F2471243101F78B7E8861DDCF382F5E
:101450003171313019F78E7F8860E0CF282F2171EC
:10146000213121F78E7E8861E1CFCF93DF93EC01AC
:1014700082389105A9F1D8F58133910509F496C018
:1014800048F58932910509F48AC08A9709F495C014
:10149000C11521E5D20708F0BCC0C11530E5D3075E
:1014A00008F014C1C83ED10508F09CC0C03ED1056B
:1014B00060F5C83AD10508F087C0C53AD10508F0F3
:1014C000FDC0C130D10509F12097F9F0C430D10534
:1014D000E0F440C08533910509F45AC0C997C1F6BC
:1014E0008091DE04837089F0C0EED0E00EC0833EB0
:1014F000910599F170F4803E910501F1823E9105CC
:1015000039F68091DE0482FD21C0CE01DF91CF91BA
:101510000895863E910561F1873E910571F1843E03
:10152000910509F0B5CF8091DF0481FFEECF809166
:10153000DE04C7EED0E084FD0DC0E7CF8091DE046D
:1015400080FD12C19091DF0490FFDFCFC3EED0E0A9
:1015500084FFDBCFD0E0C0E0D8CF8091DE0482FDF5
:1015600006C19091DF0490FDBFCF84FFCECFF2CFB4
:101570008091DE0483FDDDCFC8CF8091DE0483FD42
:10158000F9C09091DF0491FFF0CFC4EED0E0BDCF61
:101590008091DE0485FFB9CFC9E2D0E0B6CF80915B
:1015A000DE0485FFB2CFC5E3D0E0AFCF8091DE048B
:1015B00086FFABCFCAE2D0E0A8CF8091DE0486FFE1
:1015C000A4CFC1E3D0E0A1CFCF3BD10518F6C85AD4
:1015D000D0E0CC0FDD1FC75DDE4F0990D881C02D54
:1015E000D46493CFC11540E2D40758F4C11581E00B
:1015F000D80708F08ACFC03FD10508F4ABCFD0653B
:1016000084CFC11590E4D90708F4A4CFDF70D06A65
:101610007CCFC11525E5D20700F5C11534E5D30708
:1016200008F08AC0C11543E5D40708F071C0C115A0
:1016300082E5D80708F467C0CE018370992721E0BE
:1016400030E002C0220F331F8A95E2F7C695C69597
:1016500080E2C89FE001112452C0C11599E5D90765
:10166000A8F4C11528E5D20708F06BC0C11536E50E
:10167000D30708F06FCF8C2F0E94F209C82FD0E05B
:10168000DC2FCC27CC27DF71D0623FCFC1154AE5D4
:10169000D40708F45BC0CE0190568115904208F043
:1016A00059CF8D2F8F710E94F20990E0982F8827D3
:1016B00088279F719C012C2BE901E6CFC55AD0E009
:1016C000CA5DDE4FC881D0E0D0641FCFCE01E4E018
:1016D00096958795EA95E1F783702C2F26952695A8
:1016E000237040E2249F90011124382B8C2F8370AB
:1016F000C1E0D0E002C0CC0FDD1F8A95E2F7C22B1B
:10170000D32BDC6802CFDC2FCC27C16FD06AFDCE93
:10171000CE018370992721E030E002C0220F331FF1
:101720008A95E2F7C695C69590E2C99FE00111241B
:10173000C22BD32BDA68E9CEDC2FCC27C46FD06A5A
:10174000E4CEDC2FCC27C06FD06ADFCE8C2F8F7019
:101750000E94F20934E0D695C7953A95E1F7CF702B
:101760009C2FEC01D069D1CEC9E3D0E0CECEC2EE41
:10177000D0E0CBCEC6EED0E0C8CE80913102882337
:1017800031F0109231021092300210922F0208951F
:10179000CF93C82F8091DF0482FD0CC0809131026D
:1017A0008C1741F00E9472069093300280932F02B2
:1017B000C0933102CF91089580959091130598239D
:1017C00090931305089580959091360398239093F4
:1017D0003603089590913603892B8093360308953C
:1017E00010920E0210920D0210920C020895809138
:1017F000FC039091FD03892B89F00E9472062091D1
:101800002F0230913002AC01421B530B81E020913A
:10181000FC033091FD034217530708F480E0817008
:10182000089580910B02811110920B0208959091FE
:101830001D019923D1F09091DE0497FF16C0E82F87
:10184000E695E695E695EE31E0F4F0E0E258FE4FDD
:10185000282F277081E090E001C0880F2A95EAF7D1
:1018600080959281892382830895E0E8F1E0919147
:10187000891303C0DF0111971C9291E0E638F90744
:10188000B1F7089590911D019923C1F09091DE0464
:1018900097FF14C0E82FE695E695E695EE31F8F44B
:1018A000F0E0E258FE4F877021E030E001C0220FE7
:1018B0008A95EAF78281822B82830895A0E8B1E0BD
:1018C000EFEF90E02D91821751F0EF3F19F42111C5
:1018D00001C0E92F9F5F9630A9F7EF3F09F4089503
:1018E0000E2E000CFF0BE258FE4FE6CF20910A02AD
:1018F0009091C901291302C080E0089530E0F901F8
:1019000053E0EE0FFF1F5A95E1F7E653FE4F51816A
:10191000561306C05081581303C05281541304C09B
:101920002F5F3F4F2770E6CF81E0089580910A0234
:101930009091C901981301C008958F5F8770FACF05
:101940009E3F41F19295907FE92FE80F9E2F97706F
:10195000E695E695E69583E0E89FF0011124ED55C4
:10196000FE4F50E040E080E0219130E0092E02C0BF
:10197000369527950A94E2F721703327042E01C08B
:10198000220F0A94EAF7822B4F5F5F4F43305105D5
:1019900059F7089580E008959E3F61F19295907FF8
:1019A000E92FE80F8E2F877041E001C0440F8A9520
:1019B000EAF7E695E695E69583E0E89FF0011124C5
:1019C000ED55FE4F30E020E070E05191DF011197BE
:1019D000CB01022E02C0969587950A94E2F781709A
:1019E00081958527842385278C932F5F3F4F233054
:1019F000310559F7089592959F70963091F058F4FB
:101A0000925F9F70923058F4803F19F030F4883E16
:101A100030F481E008959A5FF4CF843FD1F380E001
:101A20000895883EB0F3813FD1F7F3CF81FD02C026
:101A30008E9A08958E9808959C013A9521153F41FC
:101A400050F5FC01EE27F170BC0166277270AC0105
:101A5000442754709C012227387094FF0EC080E107
:101A6000EF2B09F480E0672B09F08062452B09F029
:101A70008064232B89F08068089581E0EF2B09F4BE
:101A800080E0672B09F08260452B09F08460232BEE
:101A900019F08860089580E008958093E0047093C1
:101AA000E2046093E104809108058430F9F48093A6
:101AB000E9008FEF9091E800815095FD06C095ED0B
:101AC0009A95F1F700008111F5CF8091E80085FF2C
:101AD0000DC050E040E063E070E080EE94E00E94D2
:101AE00019058091E8008E778093E8000895BC0185
:101AF00084E00C944D0DBC0183E00C944D0D9C01D1
:101B000084E08093E9009FEF8091E800915085FD8B
:101B100006C085ED8A95F1F700009111F5CF80910F
:101B2000E80085FF0CC050E040E066E070E0C901CD
:101B30000E9419058091E8008E778093E80008954F
:101B4000CF93DF93EC0180911D018823B1F1809147
:101B5000DE0487FF32C060E284E08093E9008FEF0B
:101B60009091E800815095FD06C095ED9A95F1F7AA
:101B700000008111F5CF8091E80085FF1BC08091A6
:101B80001D0170E050E040E0811104C050E040E0F1
:101B900068E070E0CE010E9419058091E8008E7720
:101BA0008093E80080E2FE01A6EEB4E001900D9281
:101BB0008A95E1F7DF91CF91089568E081E0CDCF7C
:101BC00081E08093E00080E28093D8001092C90009
:101BD0008FE19EE40197F1F700C0000087E090EBF1
:101BE000DC018093140590931505A0931605B0931E
:101BF000170588E19CE00FB6F894A89580936000E3
:101C00000FBE90936000FFCF019708F40895EFE9AD
:101C1000FFE03197F1F700C00000F6CF0F931F935C
:101C2000CF93DF930AEF13E0C7E6D1E0CE010E9425
:101C3000FF36F80181938F012196CB38F1E0DF0761
:101C4000A9F7C0E6D7E0FE0185919491009711F0C5
:101C5000FC0109952C96F8E0CC35DF07A1F7DF9160
:101C6000CF911F910F9108950F931F93CF93DF93FF
:101C7000823030F5653020F5403110F520E2629F6A
:101C80008001112450E0440F551F040F151F30EA46
:101C9000839F000D111D1124C80187960E94FF36F5
:101CA000C82FD0E0DC2FCC27C80188960E94FF36D1
:101CB0009E01282BC901DF91CF911F910F910895AB
:101CC00090E080E0F8CF462F209134033091350327
:101CD000232B91F47E3F39F46E3F71F480913203EF
:101CE000909133030895823038F4753028F46031D0
:101CF00018F4672F0C94340E90E080E00895CF9292
:101D0000DF92FF920F931F93CF93DF936C010091AB
:101D1000120580913202082BC7E0D0E010E0FC2EC3
:101D2000C8010C2E02C0959587950A94E2F780FDB4
:101D30000CC02197A0F7F12C8F2DDF91CF911F912F
:101D40000F91FF90DF90CF900895B6018C2F0E94E5
:101D5000630E0E94350A019761F3EECFCF93DF93B4
:101D6000EC010E947F0EBE010E94630EDF91CF91B5
:101D70000C94350AFC0186819781009721F00E941E
:101D8000350A0C94FB0C808191810E94AE0EF9CF34
:101D90001F93CF93DF9300D000D00F92CDB7DEB763
:101DA00049835A8389819A816623B9F02223A9F055
:101DB0000E947F0E182F682F89819A810E94CC0C77
:101DC00069817A81812F0F900F900F900F900F9063
:101DD000DF91CF911F910C94630E0E94A00C182FDD
:101DE000EFCFFC01262F86819781009739F440813F
:101DF00051816281738184810C94C80E089583E2BD
:101E000090E00E94FF36883789F484E290E00E94D7
:101E1000FF36823359F485E290E00E94FF3691E06C
:101E2000833609F090E0892F8170089580E0FCCF1F
:101E3000CF9384E090E00E94FF36C82F82E290E0CA
:101E40000E94FF36982F8C2FCF910895DB01FC0163
:101E50003296259134914217530758F0FC0134967D
:101E600065917491A901CD010E94DF3690E080E078
:101E700008958FEF9FEF08950F931F93CF93DF93F4
:101E80000AEF13E0C7E6D1E0CE010E94FF36F80169
:101E900061918F01681719F0CE010E940D372196CC
:101EA000CB38F1E0DF0781F7DF91CF911F910F91E0
:101EB0000895DA019C012E5F3F4FF901459154913D
:101EC000F90125913491A217B30758F0FC0134961B
:101ED000859194910E94DF360E943C0F90E080E053
:101EE00008958FEF9FEF0895CF93DF93C3E5D2E07E
:101EF00060E0CE010E940D372196C11584E0D8071D
:101F0000B9F7DF91CF9108950F931F93CF93DF938C
:101F10008901823048F5653038F5403128F52115C2
:101F20003C4531F420910F0130911001232BE1F059
:101F300090E2699FE001112450E0440F551FC40F47
:101F4000D51F90EA899FC00DD11D1124612FCE01AC
:101F500087960E940D37602FCE018896DF91CF9132
:101F60001F910F910C940D37DF91CF911F910F911D
:101F70000895CF93C82F6FEF811168E783E290E057
:101F80000E940D376FEFC11162E384E290E00E947E
:101F90000D376FEFC11163E685E290E0CF910C94AD
:101FA0000D37CF93C92F682F84E090E00E940D3742
:101FB0006C2F82E290E0CF910C940D379B0188301A
:101FC00070F49AE0899FB001112465577E4F4AE072
:101FD00050E0C9010E94EF3690E080E008958FEF55
:101FE0009FEF08958F929F92AF92BF92CF92DF9210
:101FF000EF92FF920F931F93CF93DF93CDB7DEB78E
:102000002A970FB6F894DEBF0FBECDBF03E214E0EF
:10201000F12CE12C87E4C82E8DE2D82E91E7A92E71
:102020009DE2B92E20EB822E2CE2922EF801D18275
:10203000C082B382A28295828482F58AE48ABE013C
:102040006F5F7F4F8E2D0E94DE0F892B29F48985CB
:102050009A85F801938B828BFFEFEF1AFF0A0A5ED5
:102060001F4F88E0E816F10409F72A960FB6F89496
:10207000DEBF0FBECDBFDF91CF911F910F91FF90BB
:10208000EF90DF90CF90BF90AF909F908F9008958A
:102090008F929F92AF92BF92CF92DF92EF92FF9278
:1020A0000F931F93CF93DF93CDB7DEB72A970FB669
:1020B000F894DEBF0FBECDBF0AEB12E088EAC82E4F
:1020C00082E0D82E93E0E92E92E0F92E27E0922EBE
:1020D00037EAA32E32E0B32E88248394D6010D93E1
:1020E0001D936D014AE050E0B701CE0101960E94B8
:1020F000EF36F8013896DF01892D1D928A95E9F7B0
:1021000089819A81D80111969C938E938F81129622
:102110008C9312978D8113968C93139788851496C0
:102120008C931497898515968C9315978B819C8138
:1021300017969C938E93169718961C9218978A85DB
:1021400087FF4BC01E961C921E921D9780FF03C0F6
:10215000D80118968C9281FF04C0F8019085926096
:10216000908782FF07C0D80118969C9118979460B9
:1021700018969C9383FF04C0F8019085986090871F
:1021800084FF07C0D80118969C9118979061189603
:102190009C9385FF04C0F801808580628087015F81
:1021A0001F4FFAE0EF0EF11C83E5E81682E0F80617
:1021B00009F094CF2A960FB6F894DEBF0FBECDBFBC
:1021C000DF91CF911F910F91FF90EF90DF90CF9013
:1021D000BF90AF909F908F900895F801B686A58626
:1021E000B5CFCF92DF92EF92FF920F931F93CF93D1
:1021F000DF93CDB7DEB72A970FB6F894DEBF0FBED8
:10220000CDBFEFE7F2E088E2DF011D928A95E9F7A2
:10221000EFEBF3E08CE1DF011D928A95E9F78FE7A0
:10222000C82E82E0D82E7F010BED11E0F701D1829C
:10223000C0824AE050E0B801CE0101960E94EF361C
:1022400088E0FE013196D60101900D928A95E1F762
:1022500089859A85D70113969C938E931297BAE03D
:10226000CB0ED11CE7E0EE0EF11C065F1F4F0330D2
:10227000F2E01F07D9F62A960FB6F894DEBF0FBE1C
:10228000CDBFDF91CF911F910F91FF90EF90DF9025
:10229000CF9008954F925F926F927F928F929F920C
:1022A000AF92BF92CF92DF92EF92FF920F931F9364
:1022B000CF93DF93CDB7DEB72A970FB6F894DEBF82
:1022C0000FBECDBF8E010F5F1F4F8AE0F801119244
:1022D0008A95E9F797E5E92E91E0F92E68012CE55A
:1022E000422E21E0522E66246394712C4CE6842EFB
:1022F00041E0942EF70181917F018F3F09F445C0A1
:10230000F894E82FE295EF70F0E021A18F70A3011F
:1023100002C0440F551F8A95E2F7CA01922F982BED
:1023200091A392A18095892382A3789400C0ECE5C3
:10233000F1E021E030E0B12CA12C41914F3F09F4B4
:102340007EC0A42FA295AF70B0E090968C9190E0E3
:102350004F7002C0959587954A95E2F780FD6FC052
:10236000C901A82AB92A220F331F8E169F0629F702
:10237000F701319780818F3F11F00E94DB0950EA0D
:102380005A95F1F7F601B182A082F2E0CF0ED11C8E
:102390004E145F0409F0AECF4AE050E0B80186E386
:1023A00092E00E94D236FF24F394009709F4F12CB6
:1023B000892B09F447C08AE0F801A6E3B2E0019056
:1023C0000D928A95E1F781E0809335020E947206B2
:1023D00090933402809333028091330290913402BF
:1023E0000E945706059790F180913602909137022E
:1023F000909357028093560280913802909139024F
:10240000909359028093580280913A0290913B0236
:1024100090935B0280935A0280913C0290913D021E
:1024200090935D0280935C0280913E0290913F0206
:1024300090935F0280935E021092350207C090E095
:1024400080E08FCF809135028111C6CF8F2D2A96E3
:102450000FB6F894DEBF0FBECDBFDF91CF911F91B5
:102460000F91FF90EF90DF90CF90BF90AF909F9033
:102470008F907F906F905F904F900895CF93809151
:10248000360390911305892B80937E018091310250
:10249000882329F18091FC039091FD03892B29F079
:1024A0000E94F70B81110E94BD0B80917E019091DB
:1024B0003102892B80937E0180911D01882309F4CC
:1024C00046C08091DE0487FF42C08EE1E0E8F1E083
:1024D00090E0815008F03DC091110E94BD0BC09169
:1024E000F303C09580917E01C8238091F403C82B2B
:1024F000C0937E0140E250E06FE072E08EE791E031
:102500000E94D236892B59F180E2EEE7F1E0AFE08C
:10251000B2E001900D928A95E1F7E091D504F09137
:10252000D6043097E1F080911D01882349F0809115
:10253000DE0487FF05C0C0937F0186E080937E01A3
:102540000280F381E02D8EE791E0CF91099486E03F
:10255000BDCF2191222309F4BCCF9F5FBACFCF9189
:102560000895EF92FF920F931F93CF93DF93EC01A7
:102570008A85811134C0EB80FC8087E5F81A26E15A
:102580002E9DC0012F9D900D1124DC01AD5DBB4F30
:102590001496ED91FC911597309731F054966D910A
:1025A0007C91875D9B4F099586E18E9D80018F9D73
:1025B000100D11240D5D1B4FF80187810E94E30B64
:1025C000F80180850E94DC0B0E943E121882198659
:1025D0001B861E821D821092220410922104DF911C
:1025E000CF911F910F91FF90EF900895CF93DF93BC
:1025F000EC018989811118C081E0898B8F810E944B
:10260000EA0B809113059885892B809313050E940E
:102610003E12EA81FB81309739F06C897D89CE01C9
:102620000696DF91CF910994DF91CF910895809123
:102630001B01877F80931B0182E00E94DC0B80914D
:102640001B0184FF06C08F7E80931B0182E00E94E5
:10265000EA0B80911B0185FF06C08F7D80931B01D3
:1026600080E20E94EA0B0C943E1290E080E00E940F
:10267000940690E080E00E947E06109213050E946E
:102680003E1286E0E7E6F2E0DF011D928A95E9F767
:102690001092610210926002109262020C942F0854
:1026A00081FD05C08F9A809312050C9435138F9885
:1026B000FACF80911205982F9670963019F48860A1
:1026C0000C945013877FFCCF21E030E001C0220F33
:1026D0008A95EAF720958091120582230C94501375
:1026E00090910E028095892380930E02282F2770E7
:1026F00091F4282F082E000C330B9217130659F073
:102700009091DF0492FD07C08595859585950E947F
:1027100064130C94F00B08959091DF0492FB222730
:1027200020F9281769F080FB92F99093DF048091DB
:10273000DE049091DF040E94D10F82E00C947013AC
:10274000089521E030E001C0220F8A95EAF78091D8
:102750001205822B0C9450139091DF0492FD10C04F
:1027600098E0899F90011124622B60930E020E94D1
:10277000A1130E94720690930D0280930C0208959B
:102780000C94A113809332020C94351310923603EB
:1027900080911D01E0E8F1E0882359F08091DE048A
:1027A00087FF07C08EE1DF011D928A95E9F70C943F
:1027B000351386E0F8CF1F93CF93DF93CDB7DEB705
:1027C000AA970FB6F894DEBF0FBECDBF8AE095E0A2
:1027D0002091F100DC012D93CD01B5E082319B0702
:1027E000B9F780910B05833009F472C0B8F48130D9
:1027F00009F449C0823009F4B3C08091E80083FF36
:1028000096C280910A0590910B059A3008F08FC20C
:10281000E92FF0E0E55BF84C0C94BC368A3009F403
:102820008EC08B3009F471C0893039F780910A0568
:10283000813219F780910E0590910F05009711F0E4
:102840000297D9F68091E800877F8093E800809115
:10285000E80082FF38C09091F3008091F200029767
:1028600031F48091F100813011F0863021F48091B3
:10287000F1008093E5048091E8008B778093E80075
:102880000E944305BACF80910A05813A09F0B5CF7D
:102890008091E800877F8093E80080910E059091F9
:1028A0000F05892B61F460E286EE94E070E00E94EF
:1028B000F5058091E8008B778093E8009ECF60E07B
:1028C00090E080E0F3CF809108058111C0CF95CFD3
:1028D00080910A05813A09F090CF80910E05909180
:1028E0000F05892B09F089CF8091E800877F8093BD
:1028F000E8008091E80080FFFCCF80911D0180936B
:10290000F1008091E8008E77B9CF80910A0581327D
:1029100009F073CF80910E0590910F05892B09F076
:102920006CCF8091E800877F8093E8000E94430588
:1029300080910C0580931D010E94C6135ECF80918B
:102940000A05813209F059CF8091E800877F809392
:10295000E8000E94430580910D058093E4044DCF6B
:1029600080910A05813A09F048CF8091E800877F7D
:102970008093E8008091E80080FFFCCF8091E40420
:10298000BECF803899F0823809F0D1C180910E0510
:102990008F70873008F0CBC18093E9008091EB0005
:1029A00085FB882780F91092E90006C08091060512
:1029B00090910705911182609091E800977F909324
:1029C000E8008093F1001092F1008091E8008E778A
:1029D000AAC1882309F498C1823009F0A8C1809166
:1029E0000C0581119BC180910E058F702FEF280F70
:1029F000263008F09CC18093E9002091EB0020FF75
:102A00008DC1933031F48091EB0080628093EB00B4
:102A100085C19091EB0090619093EB0021E030E054
:102A200001C0220F8A95EAF72093EA001092EA008B
:102A30008091EB008860EACF811179C110910C057B
:102A40001F778091E3008078812B8093E300809151
:102A5000E800877F8093E8000E9443058091E800AA
:102A600080FFFCCF8091E30080688093E30082E0E8
:102A7000111183E0809308055AC18058823008F014
:102A800056C120910C0530910D052C3DE3E03E0729
:102A9000A1F583E08A838AE289834FB7F894DE0147
:102AA000139620E03EE051E2E32FF0E05093570010
:102AB000E49120FF03C0E295EF703F5FEF708E2F2F
:102AC00090E0EA30C0F0C7968D939D932F5F24313C
:102AD00059F74FBF8091E800877F8093E8006AE252
:102AE00070E0CE0101960E94F5058091E8008B7799
:102AF0008093E8001CC1C096E7CF80910E059091AD
:102B00000F05432F55274330510509F44AC078F586
:102B10004130510509F485C08BE590E0E2E5F8E02D
:102B20004230510509F003C12091E800277F20932E
:102B3000E80020911005309111058217930708F4E1
:102B40009C0140E02115310509F070C041116EC0B3
:102B50008091E80082FDC9CF80910805882329F281
:102B6000853019F28091E80083FFF2CFBECF413269
:102B7000510509F447C04232510509F0D8C08330ED
:102B8000910508F0D4C0FC01EE0FFF1FE159FE4F84
:102B90000190F081E02D84599E4FDC018C9190E0F2
:102BA0001DC0332721303105E9F02115310579F0B9
:102BB00022303105F9F02330310509F0B8C0EFEBD0
:102BC000F8E0E4918E2F90E0EFEBF8E007C0E9E148
:102BD000F9E0E4918E2F90E0E9E1F9E0009709F443
:102BE000A6C0A2CFE7EFF8E0E4918E2F90E0E7EFE8
:102BF000F8E0F4CFEDEDF8E0E4918E2F90E0EDED0C
:102C0000F8E0ECCF8330910508F091C0880F991F50
:102C1000FC01EB58FE4F0190F081E02D89E090E03F
:102C200083CF82E190E0EDEAF8E07ECF8091080565
:102C3000882309F45ACF853009F457CF8091E800F2
:102C400083FD53CF8091E80082FD82CF8091E80020
:102C500080FF78CF9091F3008091F200211531052B
:102C600019F08830910550F041E0089709F040E0F4
:102C70008091E8008E778093E80064CF4491409380
:102C8000F1003196215031090196E8CF803809F0E2
:102C90004EC08091E800877F8093E800809109050D
:102CA0008093F10092CE811142C010910C05123038
:102CB000F0F58091E800877F8093E8001093090584
:102CC0000E944305112311F084E005C08091E300C8
:102CD00087FDFACF81E08093080542E061EC81E056
:102CE0000E94620542E261EC84E00E94620542E2D9
:102CF00061EC82E00E94620542E260EC83E00E94A7
:102D000062058091080513C080910C05813079F42B
:102D100081E0933009F080E0809307051092E9008C
:102D20008091E800877F8093E8000E9443058091AE
:102D3000E80083FF0AC08091E800877F8093E80065
:102D40008091EB0080628093EB00AA960FB6F89416
:102D5000DEBF0FBECDBFDF91CF911F910895EAEF87
:102D6000F3E0128E138E8FEA90E09183808325E04A
:102D7000248F88E893E1938382838AE090E09583AF
:102D8000848344E150E05783468368E070E07187B4
:102D90006087938782874EE150E055874487978705
:102DA000868740E550E0518B408B738B628B68E2E5
:102DB00070E0758B648B62E370E0778B668B68ECF8
:102DC00070E0718F608F158E978F868F51A340A30F
:102DD00022A30E943C0F0E94C6131092DF0410929F
:102DE000DE0490E080E00E94D10F0C940E0E7F92E2
:102DF0008F929F92AF92BF92CF92DF92EF92FF920B
:102E00000F931F93CF93DF93CDB7DEB76E970FB6B7
:102E1000F894DEBF0FBECDBFE0900F01F09010011F
:102E200081E090E09093100180930F0196EDA92E20
:102E300094E0B92E712C650110E014C0F4012591C5
:102E40003491402F612F872D0E94840F82E0880EDD
:102E5000911C0F5F003191F7E0E2CE0ED11C1F5F95
:102E6000153019F0460100E0E9CFF0EAAF0EB11CD1
:102E700081E0781619F077247394DDCF0E94AF16A5
:102E80001A8219821C821B821E821D8218861F8252
:102E900088EC90E09A8789870BE811E04AE050E0DF
:102EA000B801CE0101960E943137065F1F4F0B3DDE
:102EB000E1E01E0799F78AE0B82E8E01055F1F4FEB
:102EC000F8018B2D11928A95E9F74AE050E06BEDFD
:102ED00071E0C8010E9431374AE050E065EE71E0D0
:102EE000C8010E9431374AE050E06FEE71E0C8013E
:102EF0000E9431374AE050E069EF71E0C8010E945A
:102F000031376E01E5E1CE0ED11CF6011192BA9473
:102F1000E9F78FEF9FEF9A8F898F87E08E8F03E01D
:102F200012E04AE050E0B801C6010E943137065F66
:102F30001F4F0335F2E01F07A1F7F0921001E09256
:102F40000F016E960FB6F894DEBF0FBECDBFDF91B6
:102F5000CF911F910F91FF90EF90DF90CF90BF9096
:102F6000AF909F908F907F90089580E00E94B90F5E
:102F700060E086E290E00E940D370E94F7160E9402
:102F8000740F81E00C94B90FCF92DF92EF92FF9211
:102F90008FEF9FEF4430510508F46AC0FB01C080F9
:102FA000D180E280F3800E94C6138091DE04C0FAD3
:102FB00080F9B701A601769567955795479540FB2F
:102FC00081F9B701A60122E0769567955795479557
:102FD0002A95D1F740FB82F9B701A60133E0769537
:102FE0006795579547953A95D1F740FB83F9B70117
:102FF000A601E4E07695679557954795EA95D1F750
:1030000040FB84F9B701A601F5E0769567955795E1
:103010004795FA95D1F740FB85F9B701A601A6E0DF
:103020007695679557954795AA95D1F740FB86F910
:10303000B701A601B7E07695679557954795BA957C
:10304000D1F740FB87F98093DE048091DF04D0FA4A
:1030500080F9D1FACC24C0F8C0FA81F98093DF045A
:103060008091DE049091DF040E94D10F90E080E017
:10307000FF90EF90DF90CF900895882321F00E9479
:10308000DC0B0C943E120895882339F090911305BF
:10309000982B909313050C943E120895882321F0E9
:1030A0000E94E30B0C943E120895882321F00E94A5
:1030B000EA0B0C943E120895882309F452C082381A
:1030C00071F40E94AA0681FF4CC089E30E94420C61
:1030D0000E943E1289E30E94170C0C943E12833822
:1030E00059F40E94AA0680FF3CC083E50E94420C6E
:1030F0000E943E1283E5EFCF843859F40E94AA065D
:1031000082FF2FC087E40E94420C0E943E1287E497
:10311000E2CF9CEF980F913AF0F290E2980F98303E
:1031200050F4877091E001C0990F8A95EAF7892FD2
:103130000E94E30BD2CF9BE5980F933020F490E0F0
:1031400080E00C94940698E5980F973120F490E075
:1031500080E00C947E06803F20F00E9456080C947C
:103160002F080895FF920F931F93CF93DF93F82EAC
:103170000091F8031091F9030115110509F449C0F4
:103180001092F7031092F6031092F3031092F403D7
:10319000D8011696CD91DC919E013A9521153F41BB
:1031A00008F4D07ED1E0C11101C0D0E0D801199659
:1031B000ED91FC911A97309731F01B966D917C91AF
:1031C00080E00995D823DD2339F08CEF8C0F813A0C
:1031D00038F58C2F0E94170CFF2099F0E091F8032E
:1031E000F091F903808584FD0CC08091F50388235C
:1031F00041F0808191819C0121503109253A3D4562
:10320000A8F00E943E121092F9031092F803109257
:10321000F503C801DF91CF911F910F91FF900895A1
:103220000E943E128C2F0E945C18D6CF0E94B606D8
:10323000E8CFCF93DF93EC010E945C18CE010E948F
:103240001C0D9E01205E31092830310510F0CD2B78
:1032500021F4DF91CF910C944E18DF91CF910C9413
:103260003D18CF93C82F882309F4AAC08238C1F42F
:103270000E94AA0681FDA4C089E30E94420C0E941C
:103280003E122FEF81EE94E0215080409040E1F714
:1032900000C0000089E30E94170CCF910C943E12ED
:1032A0008338A1F40E94AA0680FD8AC083E50E94AB
:1032B000420C0E943E122FEF81EE94E0215080409C
:1032C0009040E1F700C0000083E5E5CF8438A1F429
:1032D0000E94AA0682FD74C087E40E94420C0E94EC
:1032E0003E122FEF81EE94E0215080409040E1F7B4
:1032F00000C0000087E4CFCF8CEF8C0F813A88F5B7
:1033000080911D01882301F18091DE0487FF1CC09C
:10331000EC2FE695E695E695F0E0E258FE4F8281C7
:1033200090E04C2F477021E030E002C0220F331FA5
:103330004A95E2F782239323892B79F08C2F0E9400
:10334000170C0E943E1209C0E0E8F1E08191C81715
:10335000A9F321E0E638F207C9F78C2F0E94420C4E
:103360009CCF80E28C0F883048F4C77081E001C0A8
:10337000880FCA95EAF70E94EA0B8FCFEBE5EC0FB6
:10338000E33040F4F0E0EA5DFE4F808190E0CF91C1
:103390000C949406E8E5EC0FE73150F4F0E0EE0F02
:1033A000FF1FE75DFE4F80819181CF910C947E06D7
:1033B000C03F30F08C2F0E947109CF910C942F08E0
:1033C000CF9108951F93CF93DF93182FC0911A04C4
:1033D000D0911B04893321F0C0911804D0911904B5
:1033E000812F0E943119209731F4812FDF91CF91E5
:1033F0001F910C945C188FE99FE00197F1F700C0D2
:1034000000002197F0CF0F931F93CF93DF93C42F2A
:10341000D22FFC0182818823A1F0409320040E94D6
:10342000720690931F0480931E04C77081E001C050
:10343000880FCA95EAF7DF91CF911F910F910C94F5
:10344000551810912004141339C080911E049091D6
:103450001F040E9457062091120430911304821712
:10346000930760F5C0E2CD0F1D17B9F080E2810F20
:10347000883040F4177081E001C0880F1A95EAF790
:103480000E944E18C83048F481E09D2F977001C00B
:10349000880F9A95EAF70E945518802F0E94E2192A
:1034A000C83098F4D77081E001C0880FDA95EAF748
:1034B000DF91CF911F910F910C944E18C77081E04E
:1034C00001C0880FCA95EAF7F3CFDF91CF911F9122
:1034D0000F910895AF92BF92CF92DF92EF92FF9239
:1034E0000F931F93CF93DF93EC018AE0A82E2881DE
:1034F000222309F48CC02130C9F599818A81913049
:1035000021F422960E94E21905C0923029F42296F5
:103510000E9431192196EBCF933021F422960E941C
:103520005C18F8CF943011F02196F4CF229630E059
:1035300020E0AE014F5F5F4F8053990B8A309105B9
:1035400050F02150310930F38FE99FE00197F1F7F6
:1035500000C00000F6CFA29EB001A39E700D112402
:103560009C01260F371F8981EA01E3CFE22FF0E0AB
:10357000E650FE4FB490822F86958695869590E012
:10358000FC01E651FE4FE4902770F12C022E02C0A0
:10359000F594E7940A94E2F731E0E322FF24FC017A
:1035A000E652FE4FC490D12C022E02C0D594C7948F
:1035B0000A94E2F731E0C322DD24FC01E653FE4F1A
:1035C000049110E002C0159507952A95E2F7017065
:1035D0001127E114F10419F081EE0E943119C11490
:1035E000D10419F086EE0E9431198B2D0E94E21948
:1035F000CD2819F086EE0E945C18EF2819F081EEB4
:103600000E945C18012B09F485CF8CE27BCFDF91FF
:10361000CF911F910F91FF90EF90DF90CF90BF90CF
:10362000AF900895CF93DF93EC010E941C0D9E0193
:10363000205E31092830310510F0209739F40E94BE
:1036400055188C2FDF91CF910C9431190E9444189A
:10365000F8CF662329F020911305226020931305EB
:103660009C013056211540E2340720F0305E2115D0
:10367000304108F499270C94121BDF92EF92FF92CD
:103680000F931F93CF93DF937C018B01D42E8091F6
:103690001B0182FF8CC0C0915903D0915A03CE15F3
:1036A000DF0521F0E114F10409F081C080911B01D4
:1036B0008B7F80931B0181FD73C080915703909194
:1036C0005803A801481B590B81E020911901309142
:1036D0001A014217530708F480E08170F82E809198
:1036E0001B01F0FA81F980931B01FE0183E0F6953E
:1036F000E7958A95E1F7EE71FF27E95CFC4F2081A1
:103700003181AE014F70552781E090E002C0880FF3
:10371000991F4A95E2F7FF2009F444C0822B932BAE
:10372000918380838091360381FF08C080911B01C3
:10373000806180931B0182E00E94E30B809136033D
:1037400085FF08C080911B01806280931B0180E28D
:103750000E94E30B6F2DCE010E94291BDD2031F06A
:103760008091150485FF02C086FF3BC0809118043C
:10377000909119040E94040E8091590390915A036C
:103780009C013056211540E2340720F0305E2115AF
:10379000304108F499270E9419190E9417131DC07F
:1037A00081E09BCF8095909582239323B9CFC70169
:1037B000992797013056211540E2340728F0305EF2
:1037C0002115304108F0C7010E9419198091590351
:1037D00090915A038E159F0501F31093580300939F
:1037E0005703DF91CF911F910F91FF90EF90DF90E2
:1037F000089569EE7EEF90E080E00E942B3760E054
:1038000082E090E00E940D3760E083E090E00E944B
:103810000D371092320260E084E090E00E940D3794
:1038200060E082E290E00E940D3760E085E090E089
:103830000E940D3760E086E090E00E940D376FEF48
:1038400087E090E00E940D3740E050E0BA0188E048
:1038500090E00E941F3760E08DE090E00E940D37FD
:1038600040E050E0BA0188E190E00E941F3760E03C
:1038700087E190E00E940D3740E050E0BA018CE112
:1038800090E00E941F3770E060E080E290E00E94CC
:103890002B3740E050E0BA0188E190E00E941F37EA
:1038A00080E00E94B90F0E94B51740E050E0BA01D5
:1038B0008FE090E00E941F3740E050E0BA0183E1C2
:1038C00090E00C941F372F923F924F925F926F922D
:1038D0007F928F929F92AF92BF92CF92DF92EF92A0
:1038E000FF920F931F93CF93DF9300D000D000D0AF
:1038F0000F92CDB7DEB77C01DC0113964D915C9140
:10390000149711966C9111978C910E942707811141
:10391000CBC061E0C7010E94F10E8C01F7018281EA
:10392000811161C0D70112968C9181119BC0003129
:10393000FFE51F0709F473C101312FE5120709F4F0
:1039400072C16801E7E5DE1AFFEFCF16D10409F076
:1039500060F565E772E08C2D0E94DE0F892B29F55A
:1039600086E18C9DF0018D9DF00D1124ED5DFB4FE6
:103970008681813009F059C180917502909176025B
:10398000892B99F08091770290917802892B69F0C8
:103990008091790290917A0220917B0230917C0291
:1039A000822B932B892B09F44AC1F70152805520B1
:1039B00009F457C10F35FDE51F0709F44EC1003664
:1039C0002DE5120751F00E353DE5130709F049C109
:1039D00080910001882309F440C11092000180E029
:1039E0000E94B21851C080910D0190910E01019674
:1039F00009F498CFE3E2CE2EE4E0DE2EB12CA12C28
:103A00009924939480910D0190910E018A159B0544
:103A10000CF488CFF60186818823E9F081859285B0
:103A20000817190739F4809121049091220408178E
:103A3000190789F0D6011F969C921F971C961C931C
:103A40000E931B97C6010E94F612C60106960E94AD
:103A5000B11210921305BFEFAB1ABB0AE6E1CE0E0E
:103A6000D11CD0CFC80182519F45409710F00C94D3
:103A70007D258FEF93E00E94FF367EEED72ED00E8D
:103A800003E512E08823A9F180910E02877061F0AE
:103A9000D70112968C91882339F08091DF0482FD42
:103AA00003C082E00E94701327960FB6F894DEBF21
:103AB0000FBECDBFDF91CF911F910F91FF90EF907F
:103AC000DF90CF90BF90AF909F908F907F906F903E
:103AD0005F904F903F902F9008950115F4E01F07DD
:103AE00099F2C8010E94FF36811101C0DA940F5F7C
:103AF0001F4FD110F2CF19821A821B821C82992487
:103B00009A9468012FEFC21AD20AC8010E94FF36A8
:103B100089831A82882309F4B7CF813009F073C0F2
:103B2000580132E0A30EB11CC6010E94FF36C82E18
:103B30008A83882309F4A8CFC5010E94FF36D82EB6
:103B40008FEF8C0D833068F4580143E0A40EB11C54
:103B5000DB82DD2021F0CE0101960E946A1A8501E8
:103B6000D0CF8BEF8C0D833030F5C8010396DB820C
:103B70005C01DD20A1F3580154E0A50EB11C0E94A8
:103B8000FF368C83882359F38B819C818130AFEF82
:103B90009A0710F0982F8827B6E0CB1631F0E7E0AF
:103BA000CE1631F00E94372DDACF0E94072DD7CFE5
:103BB0000E94812CD4CFF4E0CF12D1CF580124E061
:103BC000A20EB11CC80103960E94FF36DD2009F445
:103BD0005BCF882309F458CF8150990B989E9001B0
:103BE000999E300D11244D2D4150550BCA01820F65
:103BF000931F019708F4B3CFAFE9BFE01197F1F736
:103C000000C00000F6CFCE0101960E946A1A56014C
:103C1000A6CF81E00E94A1130E94591335CF81E005
:103C20000E946413F9CF82E0FBCF823009F0BDCE51
:103C30008091790290917A02892B09F4B6CE26E11F
:103C40002C9DC0012D9D900D11248D5D9B4FDC019D
:103C500050961C920E94F612A8CE81E0809300013B
:103C600013CF80910001882309F46FC6480140EE0C
:103C7000841A91084090310280910B02482A809169
:103C80003603482A58E08516910408F086C098014A
:103C90002770332781E090E001C0880F2A95EAF76A
:103CA000552009F477C0482AD7018D919C910E9434
:103CB000A00C21E030E0390102C0660C771C8A9527
:103CC000E2F7E091F803F091F903FF83EE8320908F
:103CD0009E0130909F011D822D81E22FF0E0EE0FBA
:103CE000FF1FE855FD4FC080D180C114D10409F4F5
:103CF000EFC6411005C0D60112968C91811187C084
:103D0000F601838190E086219721892B09F47FC0F9
:103D10008085982F977009F487E0F8E08F1691045A
:103D200008F055C0552009F44EC08695817088234F
:103D300009F46DC0D601AD90BC900A151B0519F4AD
:103D4000552009F464C0EE81FF81CE16DF0609F428
:103D50005EC0D6011D96ED91FC91309721F08081D7
:103D6000882309F454C0642DC6010E9407078823E4
:103D700009F44DC00A151B0509F0FCC60115110513
:103D800009F4FDC65110FDC6A214B30409F03FC0EA
:103D9000512CF7C68095482287CF552009F481C65B
:103DA00010939F0100939E010E9466066093EF03AB
:103DB0007093F0038093F1039093F2031092F70352
:103DC0001092F60371CF82FB882780F9B0CF55207F
:103DD000F1F08170ACCF0E945C18F1C60497813A73
:103DE000910548F48A2D0E94420C552009F4ADC576
:103DF0000E943E1249CE0E943E128FE39CE9019739
:103E0000F1F700C000008A2D0E943119EECF9D818C
:103E10009F5F9D8361CFFC012081318102171307D1
:103E200009F08CC551108CC51092F50380E062C674
:103E3000882309F4D9C5FA018189882309F4D4C5F6
:103E4000C501875D9B4F0E94B112CEC580911B01B9
:103E5000816080931B01F6C580911B018E7F80934A
:103E60001B010E941713EEC580911B018F7E013E3E
:103E7000110531F0053E1105C9F480911B018F7DBC
:103E800080931B0180911B0180FFEBC5D701129627
:103E90008C910832110528F50E31110508F074C017
:103EA0000430110580F58111D8C5DBC5C8019056D5
:103EB000811540E2940720F0905E8115904110F743
:103EC00080911B0182FFCDC58091170481FDC9C57A
:103ED0002BE432E040E0B60190E080E00E943D1B20
:103EE000C0C50933110558F40D32110518F40B3211
:103EF0001105C9F69091150492FDD5CF08C004367E
:103F00001105C1F3D0CF9091150494FDCCCF882337
:103F100009F4A1C09091360380913102282F292BFA
:103F2000322F3D7FB1F110925A0310925903309114
:103F3000150431FD2EC0F80143E0F695E7954A954A
:103F4000E1F7EE71FF27E95CFC4F98012F703327F2
:103F500081E090E002C0880F991F2A95E2F78095D2
:103F6000909520813181822393239183808360E027
:103F7000C8010E94291B809131028D7F0E94C80BCD
:103F800082E00E94701380CD9091150493FD8BCF39
:103F9000BECF38E0F701ABE4B2E001900D923A9564
:103FA000E1F710924D0210924F0210924E02A09033
:103FB0005903B0905A030A151B05B1F53091150449
:103FC00035FF32C040911B0141FB992490F841FF1D
:103FD00002C036FF29C04091570350915803B601E3
:103FE000641B750B409112045091130464177507FC
:103FF000D8F491FF08C080911B01806180931B0160
:1040000082E00E94E30B8091360385FF08C0809117
:104010001B01806280931B0180E20E94E30B692DEB
:10402000C5010E94291B30CD90911B0121FB91F904
:1040300090931B018D7F0E94C80B10935A0300932D
:104040005903D0925803C092570380911B0184609A
:1040500080931B0195CF970140E0B601C8010E94F3
:104060003D1B12CD053F4CE5140709F462C008F46E
:104070005AC0063F8CE5180709F461C0D7011296B3
:104080003C91332309F446C5109220040330BDE56A
:104090001B0708F060C00A3FECE51E0730F4C801BA
:1040A00082509C45449708F060C00E94180F90937E
:1040B000DF048093DE0401313CE5130709F465C198
:1040C00008F0E2C009305CE5150709F44CC108F0BE
:1040D000AFC005309CE5190709F43DC108F095C053
:1040E0000330BCE51B0709F42CC108F030C18091F6
:1040F000DE04816002301C4509F426C18091DE0493
:104100009091DF040E94D10F0E94C613BDCC07E23C
:1041100025EE45EE68ED7CE5BFC406E221EE40EEFB
:1041200063EF7CE5B9C407E225EE44EE64EF7CE57D
:10413000B3C406E221EE42EE65EF7CE5ADC407E2D2
:1041400025EE46EE66EF7CE5A7C408E221E045EEE9
:1041500069ED7CE5A1C40136FDE51F0709F4A5CF93
:10416000053A2DE5120709F4A0CF06318CE51807B2
:1041700009F4D4C40A358DE5180709F45CC108F0C8
:1041800038C10115ACE51A0709F445C10E3D1C45BF
:1041900009F44EC1F70186819781009709F44FC158
:1041A0000E94350A182F092FF701D280C580C294CA
:1041B0003FE0C32280910E028770C1F0AD2CDD205C
:1041C000B1F0892F807F803421F080E2810F883028
:1041D00068F08091DF0482FD09C082E00E947013C4
:1041E00080910E028770AA24A3948111A12C902E95
:1041F00092942FE09222FBE0F91508F4ADC1E92D6D
:10420000F0E0EB5AF84C0C94BC368091DE048062EE
:1042100007302CE5120709F497C08091DE04806115
:1042200008301C4508F490C08091DE0480648CC086
:104230008091DE048B7F0D304CE5140709F484C0B7
:1042400080F40B308CE5180709F493C08091DE04EC
:104250008C600C301C4508F477C08091DE048D7FA3
:1042600073C08091DE048F7E0F30ACE51A0709F42D
:104270006BC08091DE04877F00311C4508F464C068
:104280008091DE048F7D60C00D3FECE51E0709F4D0
:1042900078C050F505312CE5120709F480C098F478
:1042A0008091DE04837F03314CE5140709F44CC090
:1042B00008F46FC00E94C6139091DE04892F97FB0B
:1042C00087F9805841C00B3F8CE5180709F447C0B7
:1042D00008F053C08091DF0481600A3F1C4509F05B
:1042E0000DCF8093DF040ACF0130BDE51B0709F431
:1042F00062C0B8F48091DF048C7F0F3FFCE51F079C
:1043000081F38091DF04836001151D4550F3809196
:10431000DF04982F909591708E7F892B90FB81F907
:10432000E0CF01363DE5130709F44BC0053A4DE5F2
:10433000140709F44DC002301D4509F0DFCE60E0DE
:104340003BC08091DE0482608093DE04D7CE8091F2
:10435000DE048460F9CF8091DE048860F5CF80911F
:10436000DF048260BECF0E94C6138091DE048068A5
:10437000EBCF8091DE048E7FE7CF8091DF048E7FCC
:10438000B0CF8091DF048D7FACCF8091DE048F7B36
:10439000DBCF0E94C6138091DE048F77D5CF80914A
:1043A000DE0482FB992790F921E0922790FB82F9A5
:1043B00090FB83F9C9CF61E08EE090E00E940D3759
:1043C0009DCE9091DE04892F8F7E94FF8061BCCFBB
:1043D0009091DE04892F8E7F90FF8160B5CF809110
:1043E000A001811104C089E20E94170C01CD85E370
:1043F000FBCF0B35EDE51E0701F10C351D4509F02E
:10440000C9CE8091DF0482FB882780F991E089275B
:104410000E948C13BFCE0E94C6132FEF34E34CE0F2
:10442000215030404040E1F700C000000E94E00D04
:104430000E94F91B29CB81E0EBCF80E0E9CF82819C
:1044400000811181882369F0C8010E947F0ED82E57
:10445000682FC8010E94CC0CB8018D2D0E94630EFC
:104460009FCEC8010E94A00CD82EF6CF202F2F700F
:10447000B22E802F807F19F0B29490EFB922DD2008
:10448000A9F0BB2059F080E2810F883010F01111A3
:1044900007C08B2D0E94EA0B0E943E12812F5AC04A
:1044A00080911305B82AB0921305F6CF812F0E9490
:1044B0005C18BB2009F450C080E2810F883010F0F6
:1044C000111104C08B2D0E94E30B03C08B2D0E94A1
:1044D000DC0B0E943E1240C0302F3F70B32E802F65
:1044E000807F803219F0B29480EFB822112321F13D
:1044F000113009F4A6C0DD2009F4AFC0CC2009F4C6
:104500007FC020E0D7014C9111965C9111971296D3
:104510006C91129713967C91139714968C910E942C
:10452000C80E8091170481FDB9CFF701858180FF06
:10453000B5CF8F70858364C08091DF0482FF42C055
:10454000DD20D1F1BB2029F08B2D0E94EA0B0E94C7
:104550003E1280E00E943119A92DA850BB0B149780
:1045600020F40E94AA060E94160D812F902F0E940F
:10457000FB0C8111C4C11092A2011092A101AA20CA
:10458000B1F080910E0280FD12C0D70112961C92EC
:104590008595859585950E94A113C7010E94631C8E
:1045A00080910E028595859585950E94641360E043
:1045B000C7010E94F10E78CA80E00E945C18BB20FF
:1045C00059F280CFDD2001F1C11004C08091310289
:1045D0008B2917C041E0C41206C0809131028B299B
:1045E0000E94C80BB9CF80911604823078F3C812AC
:1045F000EDCF0E94BD0B80910B02B812B0920B025E
:104600008B2D0E945518A8CFC11006C00E94BD0B6B
:104610008B2D0E944E18A0CF8091160451E0C51238
:104620000BC0823008F498CF809136038B2109F4B7
:1046300093CF0E94110CEACF823040F3C812E6CF2C
:104640008BCF80911C04DD2021F08C1508F484CFE1
:10465000D7CFC81608F080CFDBCFCC20C9F280912D
:104660001A0490911B04193321F080911804909141
:1046700019040E94040E812F0E945C186DCF802FB8
:1046800086958695837069F0813009F065CF812F1A
:10469000902F9370D11002C090E080E00E947E06BF
:1046A0005BCF812F902F9370D11002C090E080E0FB
:1046B0000E94940651CF812FDD2029F00E947109BC
:1046C0000E942F0849CF0E945608FACF802F83708E
:1046D00091F5D11041CF412F429546954770440F37
:1046E000440F812F8F70042E01C0880F0A94EAF7BF
:1046F000212F207114FF07C02FE030E001C0220FEE
:104700004A95EAF72095302F36953695337032303A
:1047100069F050F440913202313029F0822B842329
:104720000E94C21319CF842B822BFACF282B8091A1
:1047300032028227F5CF8695DD2011F0802F81701F
:10474000882309F409CF412F429546954770440FBD
:10475000440F812F8F70042E01C0880F0A94EAF74E
:10476000212F207114FF07C02FE030E001C0220F7D
:104770004A95EAF72095302F3695369533703230CA
:1047800069F050F440911205313029F0822B8423D6
:104790000E945013E1CE842B822BFACF282B8091DC
:1047A00012058227F5CFF02FFF70BF2EDD2029F0F4
:1047B0008F2F0E94A113812F24CF812F0E944E188A
:1047C0008B2D0E946413C8CE123F89F160F4103F14
:1047D000B9F0113F81F0DD2009F48CC0C1105ECE2C
:1047E000802F8F7128C0133F49F1143FA1F78091AA
:1047F000DF0482FF2FC0802F8F71DD2011F31BC0DB
:1048000080911C04DD2079F0C81608F0A5CE202F79
:104810002F7181E090E001C0880F2A95EAF790910E
:1048200012058927B5CF8C1508F496CEF0CF802FCE
:104830008F71D110C6CF0E94A1138ECE80E0DD20F3
:1048400009F4A6CF81E0902F9F7101C0880F9A953F
:10485000EAF79ECF809116048230A0F180910B027E
:10486000DD20F1F00E94E30B80910E02877084300E
:1048700041F40E94F00B802F8F710E946413A12CD1
:104880006BCE80911604C816D0F7202F2F71B22E50
:10489000822F0E94A11363E08B2D0E94AC13EFCFF7
:1048A0000E94EA0B80911604C81640F00E94F00B9B
:1048B0000E94110C64E0802F8F71EFCF81E00E9485
:1048C0007013DDCFDD2059F0302F3F71B32E832FD1
:1048D0000E94A11363E08B2D0E94AC133DCE81E0BA
:1048E0000E94701341E04C1508F036CE82E00E9421
:1048F000701332CEC110B3CE802F8F7162CFDD2006
:1049000019F0C11038CE3BCEC11035CE20E0F701F2
:10491000408151816281738184810E94C80E80919F
:10492000170483FF28CE8091A1019091A2010297E4
:1049300009F021CE812F0E94E2191DCE552029F0C9
:10494000DC0118968C9185FF71CAC80197558F3F7D
:10495000910511F008F048C020910D0130910E0131
:104960002817390724F490930E0180930D01F70165
:10497000228136E1389F5001399FB00C1124A501E6
:104980004D5D5B4F6A01DA0150962C9350979281EE
:1049900016968C911697992309F44ACA1A961C9375
:1049A0000E9319978F5F16968C930E947206F601EC
:1049B0009687858780913102878380911305909136
:1049C0003603892B80870190F081E02D309741F0EC
:1049D000D60154966D917C91C501875D9B4F0995D9
:1049E00010932204009321048091150480FF39C0A4
:1049F0000E9472066C01D70112968C91882309F4EB
:104A000033CA80911B0182FF08C02BE432E040E0F2
:104A1000B60190E080E00E943D1B0B31BCE51B0716
:104A200009F414CA0C31ECE51E0709F415CA90917B
:104A30001B01892F8E7F90FF81600A31FCE51F07E3
:104A400009F40DCAC8019056811520E2920728F09A
:104A5000905E8115904108F015CA10925A03109289
:104A60005903033FBCE51B0709F457CB08F0FACA0A
:104A7000083DFCE51F0709F44ACB093D2CE5120768
:104A800009F463CB073D3CE5130709F0F7CA06E2DA
:104A900021EE41EE67ED7CE5C7010E94031A0C94FC
:104AA000441D80919E0190919F010817190781F480
:104AB00010929F0110929E011092EF031092F0034A
:104AC0001092F1031092F2031092F7031092F60382
:104AD0008091F8039091F903009709F436CFA8E08C
:104AE0008A16910408F097C9642D0E940707811166
:104AF0002CCF81E00E94B21828CF00313FE5130788
:104B000009F487C801314FE5140711F00C94D51C46
:104B100082E080C806311C4509F03CCB8091360309
:104B2000982F9A7A2091140420FF04C0482F4474CF
:104B300009F090E021FF04C0482F417109F090E096
:104B400022FF04C0482F487809F090E023FF03C0FB
:104B5000827209F090E0332309F441CC81E0911195
:104B600001C080E08093A00189E2911185E30E9459
:104B7000420C3EC9A114B10409F006C9512CB12C54
:104B8000A12C80E00E94B218D092F903C092F803E1
:104B900081E08093F503F60185818093F303511042
:104BA0000EC0AB2861F0F601808191819C012450F8
:104BB0003109213A310508F00EC90E94170CD601BF
:104BC0001696AD90BC90C5019A9581159F4110F441
:104BD000E0EEBE2277247394C5010197853A9D4586
:104BE00008F0712CD6011996ED91FC911A97309727
:104BF00031F01B966D917C9181E0099578227720A8
:104C000079F0F601868197810E941C0D8093F40350
:104C1000C501F8E08F16910408F0E0C80E94B606BE
:104C20000E943E12E2C8CF92DF92EF92FF920F9362
:104C30001F93CF93DF938091C601807F31F48091E1
:104C4000C301C0910A0281110BC0DF91CF911F9166
:104C50000F91FF90EF90DF90CF9008952196C7704D
:104C60008091C9018C1789F3F090C101E090C201D5
:104C7000C090C401D090C501A6016E2D8F2D0E9459
:104C80002707D0E08111EACF8E0183E0000F111FCA
:104C90008A95E1F7F801E653FE4F81818E11DECF50
:104CA00080818F11DBCF82818111D8CFE380F480A6
:104CB000EC18FD0860E081EC91E00E94F10E80911B
:104CC000120490911304E816F90640F68091C6018B
:104CD0008F7080618093C601F801E153FE4F80819F
:104CE0008F708061808381EC91E00E94631CDF9172
:104CF000CF911F910F91FF90EF90DF90CF900C9488
:104D0000960C3F924F925F926F927F928F929F92FA
:104D1000AF92BF92CF92DF92EF92FF920F931F93C9
:104D2000CF93DF93CDB7DEB765970FB6F894DEBFAC
:104D30000FBECDBF8C0185E0F801DE0151960190D8
:104D40000D928A95E1F7D8014C9011965C901197DD
:104D50001296EC9012971396CD90DC9060E081EC67
:104D600091E00E94F10E81ECA82E81E0B82E809097
:104D7000C4019090C501A4016091C2018091C1015C
:104D80000E9427078111CAC1F090C301F601E819FA
:104D9000F9094F0160E0FF2009F46DC1C5010E94CF
:104DA000F10E60901204709013043090C6018614C6
:104DB000970408F013C14091C4015091C501B0900F
:104DC000C101A090C201832D807F6A2D09F0ADC082
:104DD0008B2D0E942707FE2C81113BC0D801119614
:104DE0008C9111978A1135C08C918B1132C0209112
:104DF000C7013091C80116968D919C9128173907EB
:104E000041F5E11026C0832D8F7080618093C6012B
:104E100081EC91E00E94631C8091C601F8018583BA
:104E20008F2D65960FB6F894DEBF0FBECDBFDF9114
:104E3000CF911F910F91FF90EF90DF90CF90BF9097
:104E4000AF909F908F907F906F905F904F903F902A
:104E50000895F4EF6F16F1E07F0620F480911704B7
:104E600080FF21C0A601652D842D0E942707811196
:104E700018C081E08E2580FF16C04E2D652D842D33
:104E80000E94760C882379F081EC91E00E94631CEB
:104E900088E0E1ECF1E0DF011D928A95E9F7F12C61
:104EA000BFCF80E0E8CFA601652D842D0E942707A3
:104EB000811124C081E08E25B82FB170CB2E80FFE8
:104EC0002BC04E2D652D842D0E94760CD82E81117D
:104ED00023C0498A5A8A89899A890E94AE0E292F4D
:104EE00022952F70223060F0243088F49F7061F09A
:104EF000F8019581907F41F4FD2C92CF80E0DCCFCA
:104F00009F7011F08823C1F3805E8830A8F3C80138
:104F10000E94631CDC2CF0CFEE2009F481CF80913D
:104F2000C60181608093C601BACF8B2D0E942707EE
:104F3000811124C0D80111968C9111978A111EC03D
:104F40008C918B111BC02091C7013091C80116961E
:104F50008D919C9117972817390781F4E1100EC0A5
:104F600015963C92C8010E94631C88E0F801A1ECF0
:104F7000B1E001900D928A95E1F752CFC8010E94ED
:104F8000BA0E882339F1EE2029F18091C6018032D2
:104F9000A0F02091C1013091C2013A8729871B8678
:104FA000DD86CC868E878091C7019091C801988B51
:104FB0008F87CE0109960E94631C88E0F801A1EC5E
:104FC000B1E001900D928A95E1F70E941326FF242B
:104FD000F39426CFC8010E94631CF9CF832D807FF4
:104FE00009F452CF9090C1018090C2014091C40158
:104FF0005091C501682D892D0E94270781111CC081
:10500000F8018181881118C08081891115C0209113
:10501000C7013091C801868197812817390761F44B
:10502000E1100AC03582C8010E94631C88E0D501E6
:105030001D928A95E9F7F4CEC8010E94BA0E882322
:1050400049F2EE2039F28091C601803208F4B5CFE2
:105050002091C1013091C2013A8329831B82DD82F4
:10506000CC828E838091C7019091C80198878F83ED
:10507000CE010196A0CF81EC91E00E94F10E8091CB
:105080001204909113048816990680F6FE2CEE20E7
:1050900009F4A0CFE090C101D090C2014091C401B9
:1050A0005091C5016D2D8E2D0E942707811128C0BA
:1050B000F80181818D1124C080818E1121C0209141
:1050C000C7013091C8018681978128173907C1F43B
:1050D0008091170482FD49CF9091C60190FD45CF84
:1050E000907F09F442CF8091C6018583903F09F4F7
:1050F00039CF982F907F905F8F70892B858332CF27
:10510000C8010E94BA0E811158CF8091C6018160FA
:105110008093C601C8010E94631C82CEEE2009F470
:1051200059CFC8010E94BA0EF82E882309F452CF35
:1051300088E0F801A1ECB1E001900D928A95E1F7C9
:105140008091C1019091C2010E94AE0E0E9413266F
:1051500067CECF93DF93CDB7DEB760970FB6F894E5
:10516000DEBF0FBECDBF29873A874B875C876D872F
:105170007E878F87988BCE0109960E9481268111A8
:105180002FC088E0FE013996DE01119601900D9244
:105190008A95E1F74C855D856A8589850E94270798
:1051A00081111EC0A091C901B0E0CD0101968770A8
:1051B000992720910A022817190609F193E0AA0FEE
:1051C000BB1F9A95E1F7A653BE4F98E0FE013196BA
:1051D00001900D929A95E1F78093C9010E94960C77
:1051E00080910A029091C901891317C060960FB689
:1051F000F894DEBF0FBECDBFDF91CF9108950E941E
:10520000C6131092C90110920A0288E0E1ECF1E0A5
:10521000DF011D928A95E9F7E3CFB8E08B9FC001CB
:10522000112486539E4F0E9481268823F9F2809193
:105230000A0290E001968770992780930A02D0CFE6
:10524000EF92FF920F931F93CF93DF9380915E03B2
:10525000882361F0C0915D038CE0F82E80915E039D
:10526000C81758F010925E0310925D03DF91CF9142
:105270001F910F91FF90EF900895EE24E394EC0EB0
:10528000E0925D030C2F10E0CF9DE0011124C15A84
:10529000DC4F4B815C81698188810E9427078111E5
:1052A0001DC08E819F81892B21F488859985019667
:1052B00051F4288139814A815B816C817D818E81A5
:1052C0009F810E94A928F09EF001F19EF00D11240B
:1052D000E15AFC4F1482138210921305CE2DBECFDB
:1052E0001092E6031092E50310921C018091E403F2
:1052F0008093E3030E9460070C9420293F924F9211
:105300005F926F927F928F929F92AF92BF92CF9255
:10531000DF92EF92FF920F931F93CF93DF93C09191
:10532000E30397E0892E01E010E02CE0322E3EEFFF
:10533000932E442443948091E4038C1315C00E945F
:105340002029DF91CF911F910F91FF90EF90DF9077
:10535000CF90BF90AF909F908F907F906F905F9015
:105360004F903F900C946007D0E0FE01EE0FFF1FBE
:10537000E552FC4F80819181889ED001899EB00DBD
:105380001124A154BC4F14962C911497211157C08D
:1053900050905E03EFE5F3E030E020E0712C5D011A
:1053A000251508F04AC0E284F384D501CD90DC9045
:1053B0006FEF7FEF612C462D50E0DA01AA0FBB1F83
:1053C000AC0DBD1D0D90BC91A02D109731F0EA16CB
:1053D000FB0609F4BA016394EECF6F3F7607A1F1A3
:1053E000D80102C0AA0FBB1F6A95E2F77A2AB8015A
:1053F00002C0660F771F6A94E2F7AB014150510972
:1054000074161506F9F4329EF001339EF00D112446
:10541000E15AFC4F889ED001899EB00D1124A15401
:10542000BC4F12962D913C9113973783268390821F
:1054300091829187808715964C920E94320721961F
:10544000C37079CF148213822F5F3F4F3C96A8CF51
:105450002F923F924F925F926F927F928F929F9284
:10546000AF92BF92CF92DF92EF92FF920F931F9372
:10547000CF93DF93CDB7DEB769970FB6F894DEBF51
:105480000FBECDBF942F498B252F5A8B6B8B7C8BF6
:105490008D8B4C895D89622F892F0E94270781118E
:1054A00009C08091A1019091A20101969093A2015F
:1054B0008093A1018B898111109213051D861E8690
:1054C0001F86188A85E0FE017196DE01199601900B
:1054D0000D928A95E1F78091DF0482FD1EC08091D4
:1054E000FC039091FD03892BC1F00E94720620916C
:1054F0000C0230910D02821B930B2091FC03309122
:10550000FD038217930720F080910E0282FFF5C100
:105510000E94F70B81110E94BD0B4C855D856A8549
:1055200089850E942707811111C061E0CE0109968B
:105530000E94F10E6C018B8527EFC2162CE5D20676
:1055400081F4882321F181E080931C0129853A852B
:105550004B855C856D857E858F8598890E94A928FD
:10556000C5C038EFC3163CE5D30629F4882379F08B
:105570000E947029EBCF49EFC4164CE5D40639F4EC
:10558000882329F080911C018111F2CFDCCF0FEB31
:1055900013E0512CB12CA12C22242394312C2EEF7A
:1055A000422EF8014081518188248A94982C20E071
:1055B000822F90E0FC01EE0FFF1FE40FF51F6081CA
:1055C00071816115710531F0C616D70609F44C01D9
:1055D0002F5FEECFF12CFFEF8F169F0609F448C026
:1055E000F8014481F0901C018F2D411180E0F82FCB
:1055F000F170FF2EF801E58086819B85992309F4DF
:105600000CC1FF2009F409C16090100470901104CE
:10561000E11012C0A10101C0440F8A94EAF7842B63
:10562000868380915B0390915C038615970520F437
:1056300070925C0360925B03C10102C0880F991FE6
:105640002A95E2F70197F80126812817190681F4B7
:105650008091E5039091E603009709F460C00E94F1
:1056600057066816790608F05AC021E0F80124832D
:105670005F28FFEFAF1ABF0A095F1F4F24E0A21691
:10568000B10409F08ECF8B85882309F421C1552000
:1056900009F41EC10E9472069093E6038093E5030D
:1056A00080915E03883010F591E0980F90935E032F
:1056B00098E0FE013996DE01119601900D929A95BF
:1056C000E1F73CE0839FC0011124815A9C4F28E000
:1056D000FE013196DC0101900D922A95E1F72FEF42
:1056E0003FEFFC0131872087D386C28669960FB6CB
:1056F000F894DEBF0FBECDBFDF91CF911F910F9108
:10570000FF90EF90DF90CF90BF90AF909F908F90E1
:105710007F906F905F904F903F902F900895809171
:10572000E3035091E403982FF0E0E0E0851314C008
:105730009093E303E017F10709F49ACF90E0FC019E
:10574000EE0FFF1FE552FC4FB182A08201968370DD
:1057500099278093E4038CCF682E712CF301EE0F10
:10576000FF1FE552FC4F2081318147E0429FD0016D
:10577000439FB00D1124A154BC4F6D917C911197A2
:10578000798F688F40E020E030E0E32FF0E0EE0F0B
:10579000FF1F688D798DE60FF71F8080918081143F
:1057A0009104E1F0F8010190F081E02DFF8BEE8B88
:1057B00020E005C08616970609F44F2D2F5FE22FD3
:1057C000F0E0EE0FFF1F6E897F89E60FF71F608103
:1057D00071816115710571F73F5FD7CF4423D1F017
:1057E000F801231708F0FD0121E024830E171F079D
:1057F00021F49093E303F42E3BCF981305C0AE172A
:10580000BF0711F49F5F937093012F5F3F4F822F6B
:1058100083708CCFF0E0E0E0F7CF90E0E1101FC0A4
:10582000B10102C0660F771F2A95E2F79B01215054
:1058300031098217930731F4442309F447C0C501A5
:105840000E943207C10101C0880F8A94EAF7982F9D
:105850009095F801868189238683FE2C09CF9C01CF
:10586000082C02C0359527950A94E2F7A9014170EA
:105870005527BC016150710986239723892B11F5A7
:10588000452B01F1F80182819381892BC1F01B82A4
:105890001C821D821E8249824A820E947206816099
:1058A000582F9D838C83F801828193818F83988701
:1058B00029813A814B816D817E810E94A928F8015E
:1058C0001582C0CFF22FF170EF2EBCCFEF2CBACFE4
:1058D0009091E3038091E403981731F00E947E29B0
:1058E000552009F433CE02CF0E9420291092E603FE
:1058F0001092E5030E946007F3CF82E00E947013CC
:1059000007CECF93DF9300D000D00F92CDB7DEB794
:105910009093330380933203811520E2920748F479
:105920000F900F900F900F900F90DF91CF910C94EC
:1059300019198EEF89838A831B820E947206816007
:10594000782F9D838C8349815A816B818D810F9043
:105950000F900F900F900F90DF91CF910C94282A09
:105960000F931F93CF93DF938C01EB0165E772E0F8
:105970008C2F0E94DE0F892BA1F480911804909146
:1059800019040E94040EDD27C359DD4F8881F801F8
:1059900010821882833009F148F4813059F0823046
:1059A00081F0DF91CF911F910F9108958430D1F054
:1059B0008530B9F78091750290917602009789F34E
:1059C00006C08091770290917802009799F3DF9159
:1059D000CF911F910F910C94812C8091790290911D
:1059E0007A02F3CF80917B0290917C02009779F745
:1059F0002091750230917602809177029091780221
:105A000021153105D9F2009711F7C901E0CFCF93E5
:105A1000DF9300D000D00F92CDB7DEB79093330361
:105A200080933203811520E2920748F40F900F9083
:105A30000F900F900F90DF91CF910C94121B8EEF6F
:105A400089838A8381E08B830E9472068160782F2C
:105A50009D838C8349815A816B818D810F900F903A
:105A60000F900F900F90DF91CF910C94282ACF9335
:105A7000DF93EC010E94072D809118049091190486
:105A80000E94040ECE01DF91CF910C94812C0F93D4
:105A90001F93CF93DF938C01862F65E772E00E94FE
:105AA000DE0F892BC9F4C0917502D0917602209740
:105AB00099F0F8018081833069F4CE010E94372D7E
:105AC000CE010E94372DCE01DF91CF911F910F9112
:105AD0000C94372D8430B8F7DF91CF911F910F913F
