:100000000C9483010C94CA010C94CA010C94CA018B
:100010000C94CA010C94CA010C94CA010C94CA0134
:100020000C94CA010C94CA010C946C1D0C94401ED3
:100030000C9466180C94CA010C94CA010C94CA0161
:100040000C94CA010C94CA010C94CA010C94CA0104
:100050000C94CA010C94BD180C94CA010C94CA01EA
:100060000C94CA010C94CA010C94CA010C94CA01E4
:100070000C94CA010C94CA010C94CA010C94CA01D4
:100080000C94CA010C94CA010C94CA010C94CA01C4
:100090000C94CA010C94CA010C94CA010C94CA01B4
:1000A0000C94CA010C94CA010C94CA0129002B00BB
:1000B000E100E000015301000100010001000053D4
:1000C00000000000000000002A2B280000000000B3
:1000D00000000000000000000000002900000000F7
:1000E0002C1E3420212224342627252E362D373865
:1000F000271E1F202122232425263333362E37386E
:100100001F0405060708090A0B0C0D0E0F1011122B
:10011000131415161718191A1B1C1D2F3130232DF7
:10012000350405060708090A0B0C0D0E0F101112F5
:10013000131415161718191A1B1C1D2F3130354CA6
:1001400000000000000000000000000000000000AF
:10015000000000000000000000000000000000009F
:10016000000000007E0F00D4FFFFFFC700000078F2
:1001700026035B003100780034005D0020002B0076
:100180002000310020004D006100630072006F000C
:1001900070006100640000002403410072007200DE
:1001A0006100790020005000650072006900700055
:1001B00068006500720061006C00730000000403B9
:1001C000090409023B00020100A0FA090400000131
:1001D00003010100092111010001224000070581EE
:1001E0000308000A090401000103000000092111AD
:1001F00001000122B6000705820320000A12011047
:1002000001000000085241464F01000102000105B3
:10021000010902A10185020901A1000509190129AD
:1002200008150025019508750181020501093009AD
:10023000311581257F9502750881060938158125BC
:100240007F950175088106050C0A38021581257F06
:10025000950175088106C0C005010980A1018503CB
:1002600019012AB700150126B70095017510810004
:10027000C0050C0901A101850419012AA00215017C
:1002800026A002950175108100C005010906A10193
:100290008505050719E029E7150025019508750171
:1002A00081020507190029EF1500250195F0750158
:1002B000810205081901290595057501910295012D
:1002C00075039101C005010906A101050719E0297F
:1002D000E7150025019508750181029501750881D2
:1002E000010507190029FF150026FF00950675086E
:1002F00081000508190129059505750191029501EF
:1003000075039101C00011241FBECFEFDAE0DEBFFC
:10031000CDBF04B603FE27C08091630290916402B2
:10032000A0916502B09166028730904BA740B04B18
:10033000D1F410926302109264021092650210923E
:10034000660214BE84B7877F84BF0FB6F894A89561
:1003500080916000886180936000109260000FBE01
:10036000E0E0F8E3099511E0A0E0B1E0E8E1F1E4B4
:1003700002C005900D92AC38B107D9F722E0ACE885
:10038000B1E001C01D92A336B207E1F70E94A61AA0
:100390000C9462200C940000811106C089EF611159
:1003A00001C08AEF0C94E70D0895CF93DF939C0171
:1003B0003A9521153F4168F5EC01CC27D170DC015D
:1003C000AA27B270AC01442754709C0122273870D0
:1003D00094FF11C080E1CD2B09F480E0AB2B09F034
:1003E0008062452B09F08064232B09F08068FB01B3
:1003F000DF91CF91099481E0CD2B09F480E0AB2B04
:1004000009F08260452B09F08460232B81F388601A
:10041000EECFDF91CF910895CF93DF93EC01805E13
:100420009109089720F062E570E1209711F46FEED2
:100430007DE0CE010E94D5018C2FDF91CF910C94ED
:10044000530DCF93DF93EC010E94A10DCE01805E8E
:100450009109089720F069E570E1209711F466EFA3
:100460007DE0CE01DF91CF910C94D501CF93DF9346
:10047000EC010E940C02CE01DF91CF910C9421027D
:1004800081E0089581E008950C94420208950C944F
:1004900046021F93CF93DF9300D000D00F92CDB7C9
:1004A000DEB749835A836B833091B90189819A8180
:1004B00031111DC06623B9F02223A9F00E946315F3
:1004C000182F682F89819A810E940C1569817A8181
:1004D000812F0F900F900F900F900F90DF91CF9181
:1004E0001F910C9473030E943A15182FEFCF0E94AE
:1004F000631569817A81EDCFFC01262F40815181FE
:100500006281738184810C944902CF93DF93EC0163
:1005100060E00E947C02BE01DF91CF910C94470203
:100520000E94F9180E94B216811102C00E9456174B
:100530000E941E090C9481050C94840508950E9464
:1005400076100E949E022FEF84E39CE021508040B1
:100550009040E1F700C000000C94E1180F931F9346
:10056000CF93DF93EC0161E00E947C028C01BE011D
:100570000E944402882359F1BE01C8010E94A909C2
:10058000882329F1BE01C8010E94330A8823F9F0AB
:10059000BE01C8010E94850A8823C9F0BE01C801B6
:1005A0000E94A80B882399F08A81882339F00115CD
:1005B0008CE5180751F00F3D1C4579F0CE01DF9115
:1005C000CF911F910F910C9440020E949F0280E0F6
:1005D000DF91CF911F910F9108950E945617F7CF89
:1005E000DF92EF92FF920F931F93CF93DF93E82F49
:1005F000F0E0E054FF4FD490282F269526952695BD
:1006000030E0F901E05AFE4F0491877010E0082EA7
:1006100002C0159507950A94E2F701701127F901B8
:10062000E05BFE4FE490F12C082E02C0F594E794B5
:100630000A94E2F791E0E922FF24F901E05CFE4F21
:10064000C491D0E002C0D595C7958A95E2F7C170F4
:10065000DD270115110519F081EE0E94530DE114FB
:10066000F10419F086EE0E94530D8D2D0E94E70DC6
:10067000EF2819F086EE0E94A10D012B19F081EEF2
:100680000E94A10DCD2B51F08CE2DF91CF911F91F3
:100690000F91FF90EF90DF900C94E70DDF91CF91D9
:1006A0001F910F91FF90EF90DF900895982F9F700A
:1006B0009A50963018F0805D0C94F002895AFCCF65
:1006C00008950C94600381E008950C946303CF9324
:1006D000C82F0E9461038C2FCF910C94650390E08A
:1006E00080E008950895E62F272F280F3327331F22
:1006F000C90125E0289FB001299F700D1124E60F44
:10070000F72FF11DEE0FFF1FE455FF4F85919491D8
:100710000895FC01EE0FFF1FE059FE4F8591949163
:100720000895CF93DF930E9473030E94A604EC0107
:10073000811520E5920708F042C0811530E4930747
:1007400008F0BDC0883E910528F5803E910508F06F
:100750009DC0883A910588F4853A910508F08FC0CC
:100760008130910509F492C0009709F48FC0049775
:1007700008F08CC0D0E0C0E089C08F3B910508F440
:1007800089C0805C9109C03CD105A0F30E94890317
:10079000EC017CC08115904250F4C11581E0D8076E
:1007A00008F074C0CD3ED10528F3D0656FC0C115E7
:1007B00090E3D90708F079C0CE019F70E7CF81158B
:1007C00025E5920758F5811534E5930708F0A6C092
:1007D000811542E5940750F4C11581E5D80708F466
:1007E00071C0DC2FCC27C16FD06A50C0982F96956E
:1007F00096959E0123703327C115D34508F07FC01D
:10080000C1E0D0E002C0CC0FDD1F2A95E2F720E264
:10081000929FC0011124C82BD92B6FC0C11589E547
:10082000D807A8F4C11598E5D90708F07CC0C11510
:1008300026E5D20708F09ECF8C2F0E943D05C82FD9
:10084000D0E0DC2FCC27CC27DF71D0621FC0C115D0
:100850003AE5D30708F46CC0CE019056811590425A
:1008600008F088CF8D2F8F710E943D0590E0982F62
:10087000882788279F719C012C2BE901E6CFC55A58
:10088000D0E0CD5BDE4FC881D0E0D064CE01DF91F7
:10089000CF910895C85AD0E0CC0FDD1FCB5EDE4F5C
:1008A0000990D881C02DD464F1CFCE019927D3FF10
:1008B00003C0EC01D86CEACFEC01D06CE7CFDF705D
:1008C000D06AE4CFCE01E4E096958795EA95E1F70A
:1008D00083702C2F26952695237090E2299F9001F6
:1008E0001124382B8C2F8370C1E0D0E002C0CC0FD4
:1008F000DD1F8A95E2F7C22BD32BDC68C7CFC1E09E
:10090000D0E002C0CC0FDD1F2A95E2F730E2939FC2
:10091000C0011124C82BD92BDA68B8CFD82FCC2727
:10092000C46FD06AB3CFDC2FCC27C06FD06AAECFF4
:100930008C2F8F700E943D0534E0D695C7953A956F
:10094000E1F7CF709C2FEC01D069A0CF82389105E0
:10095000B1F1B0F48133910509F475C048F48932DE
:10096000910509F469C08A32910509F473C00895AC
:100970008533910509F459C08933910501F1089532
:10098000833E9105A9F138F4803E9105F9F0823E4D
:10099000910549F10895863E9105A9F1873E91059B
:1009A000C9F1843E910519F52091550221FF1FC020
:1009B0008091540284FD14C087EE90E00895209148
:1009C00054022370A1F080EE90E00895209154022B
:1009D00020FD47C03091550230FF09C024FF44C0BC
:1009E00090E080E004C02091540222FDF7CF0895EA
:1009F0002091540222FD3BC03091550230FDE3CFDF
:100A000024FFF5CFEDCF2091540223FFF0CF24FD3A
:100A1000E7CFD2CF2091540223FD2CC03091550254
:100A200031FFEECF84EE90E008952091540225FF2F
:100A3000DECF89E290E008952091540225FFD7CFC0
:100A400085E390E008952091540226FFD0CF8AE2FA
:100A500090E008952091540226FFC9CF81E390E0F1
:100A6000089589E390E0089583EE90E0089582EE82
:100A700090E0089586EE90E008959091540292FFE0
:100A800006C0282F28712830F9F4877F846093FFEF
:100A900006C0282F28712831F1F4877E84612091C7
:100AA000550220FF06C0382F38713830D9F4877FBF
:100AB000816021FF06C0282F28712831D1F4877E5C
:100AC000816194FD877E0895282F24712430F9F6E2
:100AD0008B7F8860DCCF282F2471243101F78B7E37
:100AE0008861DDCF382F3171313019F78E7F886002
:100AF000E0CF282F2171213121F78E7E8861E1CF4F
:100B000008950C94800508950C948305E82FF0E077
:100B1000E75BFD4F808108950895A6E4B1E041E0D0
:100B200050E08D918F3F91F0E82FE295EF70F0E06B
:100B300061A18F709A0101C0220F8A95EAF7922F66
:100B40009095962391A382A1822B82A381E0AB345E
:100B5000B80739F7109248021092490281E00E94CA
:100B6000EF050C949002CF93A6E4B1E050E040E092
:100B700030E061E070E02D912F3FA9F0E22FE29587
:100B8000EF70F0E080A190E02F7002C095958795FE
:100B90002A95E2F780FD21C0CB01042E01C0880F09
:100BA0000A94EAF7382B4F5F5F4F4530510519F72C
:100BB00080914802C0E0831719F030934802C1E0E9
:100BC0002C2F41E069E472E088E492E00E94F00595
:100BD0000E949C028C2FCF91089580E0E3CF08956E
:100BE000FF920F931F93CF93DF93F82E092F162FA9
:100BF000D72FC42F222349F081E0809390010E94D7
:100C0000961890938F0180938E0180919001882394
:100C1000A1F080918E0190918F010E94AE180697ED
:100C200060F0EF2DF02FA12FBD2FCE0FDF2FD11DA4
:100C3000EC17FD0741F410929001DF91CF911F91C5
:100C40000F91FF90089581918D93F2CF809197013C
:100C500080FF12C06091050185E0689FB0011124FA
:100C6000759567957595679560387105A8F5611557
:100C70007105A1F1862F089581FF09C060910501DA
:100C800085E0689FB001112475956795EDCF60915F
:100C9000050182FD0AC0809196018823D1F09091D0
:100CA000040160910501891728F085E0689FB00173
:100CB0001124DACF869FB001112485E0869F900130
:100CC000879F300D1124692F70E0C9010E94F21F27
:100CD000CBCF65E070E0CECF8FE7089581E0089537
:100CE0008091970180FF0CC06091010170E07595C3
:100CF0006795759567956115710549F1862F08957A
:100D000081FF06C06091010170E075956795F3CF92
:100D10006091010182FD0BC0909195019923A1F092
:100D20006091000180910101961738F0682F70E002
:100D30006038710500F38FE70895899FC001112481
:100D400070E00E94F21FF4CF61E070E0D7CF81E045
:100D500008958D3E31F40E942606819580939B0173
:100D600008958E3E19F40E942606F8CF8F3E31F486
:100D70000E942606819580939A010895803F19F478
:100D80000E942606F8CF893F29F40E9470068093BE
:100D90009C0108958A3F21F40E9470068195F7CF47
:100DA0008B3F31F40E947006819580939D010895D8
:100DB0008C3F19F40E947006F8CF9FE0980F98308E
:100DC00070F4815F990B21E030E001C0220F8A9519
:100DD000EAF780919901822B8093990108958D3FC4
:100DE00031F48091970181608093970108958E3F3F
:100DF00021F4809197018260F7CF8F3FB9F78091FE
:100E000097018460F1CF40919A018D3E59F4809111
:100E10009B0187FF0DC010929B0141110BC01092E6
:100E2000960108C08E3E81F480919B0118169CF3B8
:100E3000442381F080919C0190919D01892B09F0C0
:100E40005AC01092950108958F3E49F447FFF0CFA4
:100E500010929A0180919B018111ECCFE0CF803FED
:100E600019F41416ACF3E4CF90919C01893F29F456
:100E70001916F4F610929C01DBCF8A3F19F497FF04
:100E8000D7CFF8CF90919D018B3F29F497FFD0CF1A
:100E900010929D01CDCF8C3F19F41916CCF3C8CF19
:100EA0009FE0980F983090F4815F990B21E030E03B
:100EB000B90102C0660F771F8A95E2F7CB018095D2
:100EC00090919901892380939901B2CF8D3F31F49C
:100ED000809197018E7F80939701AACF8E3F21F456
:100EE000809197018D7FF7CF8F3F09F0A1CF80913F
:100EF00097018B7FF0CF08950E9496189C019091E6
:100F00009A0180919B01982B21F0309394012093BA
:100F1000930190919C0180919D01982B21F0309339
:100F200092012093910188E991E00C940A0CEF92D0
:100F3000FF920F931F93CF93DF9300D000D000D088
:100F4000CDB7DEB786E0E8E9F1E0DE011196019069
:100F50000D928A95E1F7E0909A01F0909B01009143
:100F60009C0110919D0110929A0110929B01109288
:100F70009C0110929D018E2D8F2991F080919301FB
:100F8000909194010E94AE18AC0190919601992322
:100F900009F43FC0809106018417150608F447C084
:100FA000802F812B91F080919101909192010E946C
:100FB000AE18AC0190919501992309F477C0809106
:100FC00002018417150608F47FC080919A01909160
:100FD0009B01892B90919C01892B90919D01892BDC
:100FE00011F00E947C0786E0FE013196A8E9B1E08D
:100FF00001900D928A95E1F726960FB6F894DEBF20
:101000000FBECDBFDF91CF911F910F91FF90EF9059
:101010000895209107018AE0289F90011124241748
:10102000350708F0BDCF9F5F9093960102C09F3FA8
:10103000D1F7EE2059F00E9426069FEF1E140CF403
:1010400091E0899F802D112480939A01FF2059F00F
:101050000E9426069FEF1F140CF491E0899F802DBB
:10106000112480939B0130919A01332309F498CF86
:1010700020919B01222309F493CF45EB3403C00157
:101080001124992359F090939A0145EB2403900180
:101090001124332339F030939B0182CF81E0809378
:1010A0009A01F3CF81E080939B017ACF20910301D5
:1010B0008AE0289F900111242417350708F085CF76
:1010C0009F5F9093950102C09F3FD1F7002359F095
:1010D0000E9470069FEF10160CF491E0899F802DFE
:1010E000112480939C01112359F00E9470069FEFF8
:1010F00011160CF491E0899F802D112480939D019D
:1011000030919C01332309F460CF20919D0122236B
:1011100009F45BCF45EB3403C0011124992359F046
:1011200090939C0145EB240390011124332339F063
:1011300030939D014ACF81E080939C01F3CF81E001
:1011400080939D0142CF86E0E8E9F1E0DF011D9246
:101150008A95E9F7109296011092950110929701E5
:1011600008950C94CC018098889A8198899A8FB1BF
:101170008170799905C090E0892B8093A001089532
:1011800092E0FACFE091A001EE0FEE0FE093A00104
:101190004FB1842F81704FB141FB222720F941FFCD
:1011A00002C022E030E0822BE82BE093A001EF7038
:1011B000F0E0E55BFE4F808190919F01890F809365
:1011C0009F0120E0843054F080919E018F5F8093D6
:1011D0009E0160E080E00E94B10821E080919F01C3
:1011E0008D3F54F480919E01815080939E0161E077
:1011F00080E00E94B10821E080919F01082E000C40
:10120000990B64E070E00E94F21F80939F01822F8F
:101210000895CF93DF93EC0197FF0CC0FB0182810F
:10122000882341F00E943409CE019F770E948E09E5
:101230000E946F0981E0DF91CF9108958CE090E0EA
:101240000E94202090E0B0E0A0E080934A029093BA
:101250004B02A0934C02B0934D02089560914A0254
:101260008CE090E00C942E200E94E30B8695817018
:1012700080934F0290914A02913029F4882319F00B
:1012800089E30E94E70D0E94F81580934E020E94A8
:101290000B1680914A02813089F0882359F0823000
:1012A00091F08430B9F08FE39CE90197F1F700C029
:1012B0000000089582EE0E94530DF5CF88E193E07F
:1012C0000E943602F0CF82EE0E94530D87E50E9405
:1012D000E70DE9CF86EE0E94E70D88E1F8CF809117
:1012E0004A02813071F0882341F0823031F084303D
:1012F00099F080914E020C94081682EE0E94A10D86
:10130000F8CF8CE20E94E70D80914F02882389F389
:1013100089E30E94E70DEDCF88E2FBCF0F931F9387
:10132000CF93DF938C01CCE0D0E0C8010C2E02C03B
:10133000969587950A94E2F78F700E94560324973A
:10134000CC3F8FEFD80789F7DF91CF911F910F9195
:1013500008950F931F93CF93DF93EC018B01FB0153
:101360008281882361F00E94F815CE01825E9C453F
:101370008530910520F480934A020E942E09B8011D
:10138000CE01DF91CF911F910F910C9409090F931A
:101390001F93CF93DF93C42FD22FFC018281882328
:1013A000C9F04093A3010E9496189093A2018093E4
:1013B000A10180E28C0F883008F050C0C77081E036
:1013C00001C0880FCA95EAF7DF91CF911F910F9165
:1013D0000C94EF0D1091A301141335C08091A1015D
:1013E0009091A2010E94AE18883C910560F5C0E280
:1013F000CD0F1D17B9F080E2810F883040F41770CF
:1014000081E001C0880F1A95EAF70E94F60DC830F6
:1014100048F481E09D2F977001C0880F9A95EAF7F4
:101420000E94EF0D802F0E94E70DC830B8F4D770EE
:1014300081E001C0880FDA95EAF7DF91CF911F9123
:101440000F910C94F60D80E28C0F883038F4C77041
:1014500081E001C0880FCA95EAF7EFCFDF91CF9105
:101460001F910F9108950F939C01CB01243F4CE5F0
:10147000340759F1A8F4293DFCE53F0701F12A3D65
:101480004CE53407D1F1283D3C4591F406E221EECC
:1014900041EE68ED7CE50E94C70980E00F91089558
:1014A000263FFCE53F07E9F0B0F0273F3C45F9F067
:1014B000FC018281882339F11092A301EFCF07E26A
:1014C00025EE45EE69ED7CE5E6CF06E221EE40EE45
:1014D00064EF7CE5E0CF07E225EE44EE65EF7CE5C6
:1014E000DACF06E221EE42EE66EF7CE5D4CF07E2EA
:1014F00025EE46EE67EF7CE5CECF08E221E045EE33
:101500006AED7CE5C8CF81E0C9CFCF93DF93EC01D2
:10151000FB018281882309F419C1C230FCE5DF0791
:10152000C0F1C6319CE5D90730F09E012B5F3C45E8
:101530002930310570F50E94C516909355028093AD
:101540005402C031ECE5DE0709F4CFC008F05BC0FF
:10155000C8308CE5D80709F4B6C088F5C430ECE58E
:10156000DE0709F4A8C0C0F4C2308CE5D80709F43E
:101570009CC0809154028260C330DC4509F498C05D
:1015800080915402909155020E94D3160E947610C9
:1015900080E0DF91CF910895809154028061C63040
:1015A000ECE5DE0709F484C0809154028860C730FE
:1015B000DC4508F47DC080915402806279C0CC3053
:1015C0008CE5D80709F489C070F4809154028C60CE
:1015D000CA30ECE5DE0709F46BC008F478C08091EE
:1015E00054028E7F65C0CE308CE5D80709F479C0EF
:1015F000809154028B7FCF30DC4508F459C0809134
:1016000054028F7E55C0CC3FECE5DE0709F457C08D
:1016100030F5C3318CE5D80709F46FC078F4C131D7
:10162000ECE5DE0709F465C0C231DC4509F0A8CF5E
:101630000E947610809154028F773AC0C5318CE5B4
:10164000D80709F462C008F476C080915502816021
:10165000CB3FDC4509F094CF8093550291CFC11563
:10166000FDE5DF0709F44DC088F4809155028D7FB8
:10167000CE3F9CE5D90781F3809155028E7FCF3F05
:10168000DC4550F3809155028360E6CFC230FDE522
:10169000DF0709F459C008F444C080E0C330DD45D9
:1016A00009F06ECF0E9458176BCF80915402816071
:1016B0008093540265CF809154028460F9CF809169
:1016C00055028260C9CF809154028064F1CF0E949C
:1016D0007610809154028068EBCF809154028D7F08
:1016E000E7CF80915402877FE3CF809154028F7DB2
:1016F000DFCF809154028F7BDBCF80915402837FB8
:10170000D7CF809155028C7FA7CF8091540282FB66
:10171000992790F921E0922790FB82F990FB83F9B9
:10172000C7CF80915502982F909591708E7F892B0D
:1017300090FB81F991CF0E94761090915402892FED
:1017400097FB87F98058B4CF81E0ACCF81E021CFFF
:10175000CF93DF93EB0186319C4511F50E94F8157C
:101760009A81992399F08A7A91E009F490E0909314
:10177000A401811109C089E20E94D3150E94471675
:1017800080E0DF91CF91089585E3F6CF8091A401A9
:10179000811104C089E20E94DA15F0CF85E3FBCF06
:1017A00081E0EFCF9093AA018093A9010895E09181
:1017B000A901F091AA01309721F00190F081E02D6C
:1017C000099480E00895E091A901F091AA01309771
:1017D00011F480E008950190F081E02D09950895BD
:1017E000E091A901F091AA01309799F0209114019C
:1017F000222359F02091540227FF07C0DC012C91CD
:1018000011962C93119725E02C930280F381E02D03
:1018100009940895E091A901F091AA01309739F057
:1018200022E0DC012C930480F581E02D09940895D9
:101830002091A7013091A8012817390771F09093E2
:10184000A8018093A701E091A901F091AA01309726
:1018500021F00680F781E02D099408952091A501DB
:101860003091A6012817390771F09093A601809353
:10187000A501E091A901F091AA01309721F000841F
:10188000F185E02D099408950E94A2186093B50196
:101890007093B6018093B7019093B8016093B10142
:1018A0007093B2018093B3019093B40108950E94A4
:1018B000A2186093B5017093B6018093B70190931D
:1018C000B8016093AD017093AE018093AF01909326
:1018D000B001089585B7806885BF85B7806885BFEA
:1018E0000895089508950C94710C08950C94750C46
:1018F0000E946A0C8AEA96E10E94F2180E94720C19
:101900000C94730C81E008950C94820C0895089552
:101910000E948D180E948D050E9410190E94B30824
:101920000C94760CEF92FF920F931F93CF93DF935B
:10193000CDB7DEB72A970FB6F894DEBF0FBECDBF86
:101940000E94860C0E94870C0E94B30581110E94A0
:10195000440C80E00E948605182F8091AC01E82E8F
:10196000E126811709F44AC08091240281FD0E947A
:101970008C05F12C01E08E2D8023D9F10E94840C7E
:10198000882399F0FE821F82102381E009F480E011
:1019900088870E9496188160782F9A8789874E8160
:1019A0005F8168858A850E941C0D8091AC010827A3
:1019B0000093AC010E94C20881110E94570C0E9442
:1019C00097070E94D70B9091AB01891741F10E94B4
:1019D000D70B8093AB012A960FB6F894DEBF0FBEEB
:1019E000CDBFDF91CF911F910F91FF90EF900C949D
:1019F0006703F394000F85E0F812BDCF8FEF898362
:101A00008A831B820E9496188160782F9D838C8325
:101A100049815A816B818D810E941C0DCBCF2A9602
:101A20000FB6F894DEBF0FBECDBFDF91CF911F91EF
:101A30000F91FF90EF900895DF92EF92FF920F9336
:101A40001F93CF93DF93CDB7DEB72B970FB6F894E4
:101A5000DEBF0FBECDBF7A878B87F42E052F162FE2
:101A6000E72ED82E61110E941B161E821D827E2D2C
:101A7000EC82DD824F2D502F612F8D2D9E812B9674
:101A80000FB6F894DEBF0FBECDBFDF91CF911F918F
:101A90000F91FF90EF90DF900C94EC12FC0180818D
:101AA00091810C94A515CF93C82F882309F447C0C2
:101AB0008CEF8C0F813AA0F46C2F809108019091EB
:101AC00009010E947117882329F08C2F0E94DA15D2
:101AD0000E9447168C2F0E94D315CF910C94471665
:101AE00080E28C0F883048F4C77081E001C0880F15
:101AF000CA95EAF70E94FB15F0CFEBE5EC0FE33057
:101B000040F4F0E0E757FE4F808190E0CF910C94D5
:101B1000180CE8E5EC0FE73150F4F0E0EE0FFF1F92
:101B2000E55AFE4F80819181CF910C942E0CCD3ED1
:101B300030F08C2F0E94A906CF910C947C07CF9196
:101B40000895882361F19CEF980F913A20F40E9448
:101B5000DA150C94471690E2980F983050F487707D
:101B600091E001C0990F8A95EAF7892F0E9401162A
:101B7000F0CF9BE5980F933020F490E080E00C9438
:101B8000180C98E5980F973120F490E080E00C94C1
:101B90002E0C8D3E20F00E9403070C947C070895C4
:101BA0001F93CF93DF93182FEB010E94530D2097C3
:101BB00031F4812FDF91CF911F910C94A10D8FE90A
:101BC0009FE00197F1F700C000002197F0CF70E08F
:101BD00060E0893311F460E570E00C94D00D882347
:101BE00021F00E94FB150C9447160895882321F0DC
:101BF0000E9401160C9447160895BF92CF92DF926F
:101C0000EF92FF920F931F93CF93DF936C01D62F28
:101C1000C72FFC011281058102950F700E94F115FA
:101C2000E82E8823A1F0E12E112389F08C2F807FEC
:101C3000803429F080E28D0FE12C883040F082E082
:101C40000E9492160E94F11591E0E82EE926BC2E22
:101C5000B2949FE0B922EB2DF0E0EC59FF4D0C94CB
:101C600006200C2F0F70C07F11F00295007F11230A
:101C7000A9F0002359F080E28D0F883010F0D111C7
:101C800009C0802F0E94FB150E9447168D2F0E94CD
:101C9000530D14C0802F0E940E16F6CF8D2F0E9478
:101CA000A10D002359F080E28D0F883010F0D11182
:101CB0002CC0802F0E9401160E9447162B2D285001
:101CC000330B2430310520F40E94D70B0E946703A8
:101CD000EE2009F49EC10E94ED1580FD9AC1F60127
:101CE00012820E94E7150E947014C6010E942A10F9
:101CF0000E94E715DF91CF911F910F91FF90EF9018
:101D0000DF90CF90BF900C949114802F0E941416F6
:101D1000D3CFFC2FFF70FF2EC07FC03219F0F2949A
:101D200080EFF822DD2369F0D13049F1112391F1E0
:101D3000002351F1F601858180FFA8CF8F70858344
:101D400023C0112381F0011106C00E942E168F2995
:101D50000E94EF0DB3CF0130C1F70E942E168F29DC
:101D60000E943416ABCF011106C00E943D168F2D84
:101D70000E94F60DA3CF013009F4A0CFF6CF1123B6
:101D800029F0063008F09ACF8F2DE2CF053008F009
:101D900095CFEDCF002359F3D93349F4FFEF27EE68
:101DA00033E0F15020403040E1F700C000008D2FBB
:101DB0000E94A10D83CF8C2F86958695837069F044
:101DC000813009F07BCF8D2F9C2F9370111102C0B1
:101DD00090E080E00E942E0C71CF8D2F9C2F93708D
:101DE000111102C090E080E00E94180C67CF8D2F87
:101DF000112329F00E94A9060E947C075FCF0E9450
:101E00000307FACF8C2F837009F041C0111156CF10
:101E10004D2F429546954770440F440F0D2F0F707C
:101E200010E030E020E0042E04C0000F111F221F3C
:101E3000331F0A94D2F760E070E0CB01D4FF0FC0EB
:101E40006FE070E080E090E004C0660F771F881FAD
:101E5000991F4A95D2F76095709580959095C69593
:101E6000C695C370602B712B822B932BC23049F027
:101E700058F4C13019F00E94221420CF0E9410148F
:101E80001DCF0E9434141ACF0E940E1417CF8695CE
:101E9000112311F08C2F8170882309F40FCF4D2F5F
:101EA000429546954770440F440F0D2F0F7010E078
:101EB00030E020E0042E04C0000F111F221F331F4A
:101EC0000A94D2F760E070E0CB01D4FF0FC06FE05E
:101ED00070E080E090E004C0660F771F881F991FB4
:101EE0004A95D2F76095709580959095C695C69560
:101EF000C370602B712B822B932BC23049F058F4A6
:101F0000C13019F00E94E714D9CE0E94D514D6CE64
:101F10000E94F914D3CE0E944A14D0CECF70112360
:101F200029F08C2F0E9470148D2F12CF8D2F0E94BC
:101F3000F60D8C2F0E949114C1CED23F89F160F42E
:101F4000D03FC9F0D13F29F1112309F442C001115A
:101F50009DCE8C2F8F7121C0D33F39F1D43FA1F793
:101F6000112369F1CF718C2F0E94701463E08C2FC4
:101F70000E947D16A3CE112341F0053008F09ECEBD
:101F80008C2F8F710E94B41499CE063008F096CE33
:101F9000F7CF8C2F8F71112369F20E9470148ECEAF
:101FA0008C2F8F711123C9F3C5CF112329F08C2FEA
:101FB0008F710E945B1482CE0E9456147FCE81E006
:101FC0000E949216023008F479CE82E00E949216A6
:101FD00075CE002359F0D93309F0E9CE8FEF97EE93
:101FE000E3E081509040E040E1F7DFCE8C2F8F712D
:101FF000A1CF4C2F4F706D2FC6010E946F030E941E
:1020000086135CCE4C2F4F706D2FC6010E94720359
:1020100055CEDF91CF911F910F91FF90EF90DF9000
:10202000CF90BF9008950F931F93CF93DF93EC0150
:10203000688179818A810E94AF158C010E940B15FD
:102040000E940D14B801CE01DF91CF911F910F9125
:102050000C94FD0DCF93DF93EC018B819C81892B38
:1020600029F08881998189238F3F59F4DF91CF919D
:102070000895CE010E941310CE01DF91CF910C94F0
:102080008502CE010E94AE028111F3CF0E94F115AC
:10209000882361F38A81882349F382E0DF91CF911D
:1020A0000C949216882321F00E940E160C94471669
:1020B0000895882321F00E9414160C944716089561
:1020C00090E080E00E94180C90E080E00E942E0CCE
:1020D0000E941B160E942B160E9447160E94A308FE
:1020E0000C947C070E94E1150C9460100E940B1662
:1020F0000C947210E92FE295EF70E250EE3070F41C
:10210000F0E0EC58FF4D0C940620803F19F020F4CD
:10211000883E20F481E00895843FE1F380E0089553
:10212000883EC0F3813FD1F7F5CF93FB882780F934
:1021300008950E94A5150C947A10CF93DF9300D0D8
:1021400000D00F92CDB7DEB70F900F900F900F9089
:102150000F90DF91CF910895CF93DF9300D000D0FF
:1021600000D0CDB7DEB726960FB6F894DEBF0FBE0F
:10217000CDBFDF91CF9108951F93CF93DF93C0918F
:10218000BA0116E08091BB018C1304C0DF91CF919E
:102190001F910895D0E01C9FF0011D9FF00D1124A8
:1021A000E454FE4F40815181628173818481958125
:1021B0000E94AC102196C770E5CF4091EC01509180
:1021C000ED016091EE017091EF018091F00190912D
:1021D000F1010C94AC101F93CF93DF938091F10128
:1021E000807FA9F48091EE01882389F08091BA0163
:1021F000C091BB016091EC017091ED01A091EF01E4
:10220000B091F001D62FD72316E0C81304C0DF9198
:10221000CF911F91089590E0109711F0DF3F19F4CE
:1022200001968770F2CF189F9001199F300D1124ED
:10223000F901E454FE4F41814713F2CF4081461328
:10224000EFCF42814111ECCF438154814A1B5B0B9C
:10225000483C510528F78091F1018F70806180938F
:10226000F101F901EF53FE4F80818F70806180830F
:102270008CEE91E00E942A10DF91CF911F910C9477
:10228000BC10AF92BF92CF92DF92EF92FF920F936A
:102290001F93CF93DF93CDB7DEB761970FB6F89456
:1022A000DEBF0FBECDBF8C0185E0F801DE011D96BB
:1022B00001900D928A95E1F7F80140815181E28009
:1022C0008CEEC82E81E0D82E6091EF017091F00164
:1022D0006115710509F461C19091EC012091ED0146
:1022E000892F82238F3F09F458C1A380B480F090D6
:1022F000EE01F501E61BF70BFF2009F4FCC080910D
:10230000F101382F307FE83CF10508F0B2C03111FF
:1023100079C0FE2C251323C0941321C0E1101FC0E7
:102320008F7080618093F1010E94DD10C6010E94D0
:102330002A108091F101F80185838F2D61960FB6E7
:10234000F894DEBF0FBECDBFDF91CF911F910F91EB
:10235000FF90EF90DF90CF90BF90AF900895AB28A3
:1023600029F0842F85238F3F09F033C180E0F82FB7
:10237000F170DF2E80FF3CC08091BA012091BB013B
:1023800036E0821315C04D875E878D859E850E943D
:10239000A515292F22952F702230F0F0243018F542
:1023A0009F70F1F0F8019581907FD1F4D12C1EC07F
:1023B00090E0389FF001399FF00D1124E454FE4F56
:1023C0006181651306C06081641303C062816E1170
:1023D0000FC001968770D5CF9F7011F0882331F31D
:1023E000805E883018F3C8010E942A10FD2CA5CF0A
:1023F000EE2009F4A2CF8091F10181608093F10178
:10240000F12C9BCF251306C0941304C0F801EE20D5
:1024100009F48DC04D875E878D859E850E94991039
:10242000882319F1EE2009F18091F101803270F0DA
:102430002091EC013091ED0138872F831986BB86FE
:10244000AA868C87CE0107960E942A1086E0F801A2
:10245000ACEEB1E001900D928A95E1F70E94EB108D
:102460000E94DD10FF24F39468CFC8010E942A1057
:10247000F9CF311113C07A2DB98AA88A6E2D8989B6
:102480000E949D108CEE91E00E942A1086E0F601D9
:1024900011928A95E9F70E94DD10B2CF25130FC083
:1024A00094130DC0E1100BC0F8018583C8010E9490
:1024B0002A1086E0F60111928A95E9F73ECF4D8702
:1024C0005E878D859E850E949910882371F2EE208B
:1024D00061F28091F101803208F4B8CF2091EC01D3
:1024E0003091ED013A8329831B82BD82AC828E83B9
:1024F000CE010196A9CFE83CF10508F041C0FE2CC1
:10250000EE2009F4B2CF25132AC0941328C080917D
:10251000F10180FD1BC0982F907FC1F0F8018583E9
:10252000903F31F0982F907F905F8F70892B85833B
:10253000C8010E942A1086E0F801ACEEB1E00190DB
:102540000D928A95E1F70E94DD10F7CE86E0F80142
:10255000ACEEB1E001900D928A95E1F7EECE4D8799
:102560005E878D859E850E94991081116FCF809125
:10257000F10181608093F101C8010E942A10DDCE33
:102580007A2DB98AA88A6E2D89890E949D1086E0CD
:10259000F60111928A95E9F7D6CFEE2009F465CFBE
:1025A0004D875E878D859E850E949910F82E882321
:1025B00009F45BCF86E0F801ACEEB1E001900D923A
:1025C0008A95E1F78CEE91E00E944E0D0E94EB108F
:1025D000BACF81E08E25CBCE1F93CF93DF93CDB7BB
:1025E000DEB72C970FB6F894DEBF0FBECDBF4F837A
:1025F000588769877A878B879C87CE0107960E94C8
:102600004111882369F08A859B85892B39F04F8198
:102610005885842F85238F3F09F071C016E05FC075
:1026200086E0FE013796DE01119601900D928A95A3
:10263000E1F78A859B85892B89F38F81988589238A
:102640008F3F61F32091BB0130E0C9010196877093
:1026500099274091BA014817190671F40E94761023
:102660001092BB011092BA0186E0ECEEF1E0DF01BE
:102670001D928A95E9F7D2CF96E0929FD001939F61
:10268000B00D1124A454BE4FFE01319601900D925D
:102690009A95E1F78093BB010E94BC10BFCF819F48
:1026A000C001112484549E4F0E9441118823E9F0F7
:1026B000E091BA011E9FF0011124E454FE4F4081C5
:1026C000518162817381848195810E94AC108091D7
:1026D000BA0190E00196877099278093BA018091A2
:1026E000BA019091BB018913DACF2C960FB6F894FA
:1026F000DEBF0FBECDBFDF91CF911F9108956985D9
:102700007A858B859C850E94AC1088CFEF92FF92D2
:102710000F931F93CF93DF938C01892B81F0F12CC2
:10272000EE24E394E8012196F8018491843770F453
:10273000843008F05FC08130B1F08230A1F1DF91C8
:10274000CF911F910F91FF90EF900895853709F475
:102750004CC008F43DC09CE7980F903780F78F7706
:102760000E94A10D49C00E5F1F4FFE01849190E2AF
:10277000980F983060F48770FE2D01C0FF0F8A9586
:10278000EAF78F2F0E941E160E94471602C00E9471
:10279000530D8F2D815030F2EFE9FFE03197F1F7C3
:1027A00000C00000F7CF0E5F1F4FFE01849190E242
:1027B000980F983050F48770FE2D01C0FF0F8A9556
:1027C000EAF78F2F0E942416DFCF0E94A10DE1CFE0
:1027D0000E5F1F4FFE01C491C150D8F28FE99FE0F8
:1027E0000197F1F700C00000F7CF0E5F1F4FFE0109
:1027F000F490CFCF0E94530D8E01CBCF08950C944F
:10280000FE130E94FF136093FB017093FC01809301
:10281000FD019093FE010C94601008950C94011436
:102820000F931F930091FB011091FC012091FD017A
:102830003091FE01602B712B822B932B1F910F91F6
:102840000C9401140F931F930091FB011091FC0154
:102850002091FD013091FE01602371238223932397
:102860001F910F910C9401140F931F930091FB0182
:102870001091FC012091FD013091FE01602771272C
:10288000822793271F910F910C9401140C94FE132F
:102890000C9446140E9448146093F7017093F80159
:1028A0008093F9019093FA010C94601060E070E05D
:1028B000CB010C944A140F931F9341E050E060E069
:1028C00070E08A019B0104C0000F111F221F331FFB
:1028D0008A95D2F7C901B8011F910F910C944A143F
:1028E0000F931F9341E050E060E070E004C0440F9C
:1028F000551F661F771F8A95D2F78091F701909137
:10290000F801A091F901B091FA018A019B01082B0D
:10291000192B2A2B3B2BC901B8011F910F910C9445
:102920004A140F931F9341E050E060E070E004C050
:10293000440F551F661F771F8A95D2F7CB01BA0146
:1029400060957095809590950091F7011091F80130
:102950002091F9013091FA0160237123822393239E
:102960001F910F910C944A140F931F9341E050E074
:1029700060E070E004C0440F551F661F771F8A9502
:10298000D2F78091F7019091F801A091F901B091EF
:10299000FA018A019B01082719272A273B27C90129
:1029A000B8011F910F910C944A140F931F9300913B
:1029B000F7011091F8012091F9013091FA01602B93
:1029C000712B822B932B1F910F910C944A140F9310
:1029D0001F930091F7011091F8012091F9013091B6
:1029E000FA0160237123822393231F910F910C948A
:1029F0004A140F931F930091F7011091F801209151
:102A0000F9013091FA0160277127822793271F91DE
:102A10000F910C944A140895E92FEE0FEE0F9E0FBC
:102A2000890F982F977041E001C0440F9A95EAF7FB
:102A300086958695869595E0899FF0011124EE5044
:102A4000FE4F30E020E070E05191DF011197CB01A3
:102A5000022E02C0969587950A94E2F781708195BF
:102A60008527842385278C932F5F3F4F25303105A1
:102A700059F70895E92FEE0FEE0F9E0F890F982F4B
:102A8000977086958695869525E0829FF0011124A2
:102A9000EE50FE4F50E040E080E0219130E0092E02
:102AA00002C0369527950A94E2F721703327042E49
:102AB00001C0220F0A94EAF7822B4F5F5F4F453027
:102AC000510559F70895BF92CF92DF92EF92FF928E
:102AD0000F931F93CF93DF938C01C090F701D09099
:102AE000F801E090F901F090FA018091FB019091DA
:102AF000FC01A091FD01B091FE01C82AD92AEA2A61
:102B0000FB2ACFE1D0E0BC2ED701C6010C2E04C0B9
:102B1000B695A795979587950A94D2F780FD0EC034
:102B2000219788F7B12C8B2DDF91CF911F910F91B9
:102B3000FF90EF90DF90CF90BF900895B8018C2F59
:102B40000E949103019761F3EECFCF93DF93EC01E5
:102B50000E946315BE01DF91CF910C9491031F93E6
:102B6000CF93DF93EB019091B901992331F0CB0121
:102B7000DF91CF911F910C94A515882379F0CB019B
:102B80000E946315182F682FCE010E940C15BE01FC
:102B9000812FDF91CF911F910C949103CB010E9463
:102BA0003A15182FF4CF682F8091080190910901F0
:102BB0000C94F117682F80910801909109010C94F1
:102BC000FC1780910801909109010C9407188091DD
:102BD000FF0185958595859508958091FF01877002
:102BE00008959091FF01977081E009F480E00895C5
:102BF00080912302089590912302892B80932302D0
:102C0000089580959091230298239093230208952C
:102C10008093230208951092230208959091220236
:102C2000892B809322020895809590912202982307
:102C30009093220208951092220208959091210209
:102C4000892B8093210208958095909121029823E9
:102C5000909321020895109221020895809100021C
:102C6000089508950C94311690910002981721F060
:102C7000809300020C9432160895809100028823FC
:102C800029F01092000280E00C9432160895E09131
:102C90000801F0910901809123028083E0910801ED
:102CA000F0910901808190912202892B8083E0912B
:102CB0000801F0910901808190912102892B808384
:102CC00090910002992381F0E0910801F0910901AF
:102CD0008081892B808380910801909109010E9455
:102CE0005D1781110E943D168091080190910901A4
:102CF0000C94F00B08950C947A1698E0899F90013B
:102D00001124622B6093FF010E9470148091FF01D7
:102D10008595859585950C947B161092FF0180E032
:102D20000C947B169091FF01809589238093FF017D
:102D3000282F277071F4282F082E000C330B9217C0
:102D4000130639F08595859585950E9491140C940C
:102D50008D16089580E008956FEF7FEF90E080E09A
:102D60000C944C2090E080E00E94282021E08B3ED3
:102D70009E4F09F020E0822F089582E090E00C94AD
:102D8000202083E090E00C942020CF9384E090E01A
:102D90000E942020C82F81E290E00E942020982FDE
:102DA0008C2FCF910895CF93C92F682F84E090E0A6
:102DB0000E942E206C2F81E290E0CF910C942E2067
:102DC000AB01BC018FE090E00C944020AB01BC0152
:102DD00083E190E00C94402060E070E0CB010C9423
:102DE000E61660E070E0CB010E94E0160C94EC1651
:102DF0006BEE7EEF90E080E00E944C2060E082E08D
:102E000090E00E942E2060E083E090E00E942E205F
:102E10001092FB011092FC011092FD011092FE0134
:102E200060E084E090E00E942E2060E081E290E08B
:102E30000E942E2060E085E090E00E942E2060E05D
:102E400086E090E00E942E206FEF87E090E00E94E5
:102E50002E2040E050E0BA0188E090E00E9440203F
:102E600060E08DE090E00E942E2040E050E0BA014A
:102E700088E190E00E94402060E087E190E00E94BD
:102E80002E2040E050E0BA018CE190E00E9440200A
:102E900060E080E290E00E942E2040E050E0BA0125
:102EA00088E190E00E9440200C94F1160C94F816F2
:102EB000682F8EE090E00C942E20FC0132968091D9
:102EC0001401882321F0809154029EE187FF96E04F
:102ED00080E0915008F4089521912223D1F38F5F6F
:102EE000F8CF662301F1209114012223F1F0209103
:102EF000540227FF1AC0462F4695469546954E31F7
:102F000090F4677021E030E002C0220F331F6A9511
:102F1000E2F7840F911DFC01828190E02823392380
:102F200081E0232B69F480E00895FC013296089635
:102F30002191261721F0E817F907D1F7F4CF81E0A6
:102F400008959C01FC0132969FEF80E04191461765
:102F500051F09F3F19F4411101C0982F8F5F8630C7
:102F6000A9F79F3F09F40895290F311D97FD3A9560
:102F7000F90162830895FC01329608962191261387
:102F800003C0DF0111971C92E817F907B9F70895FC
:102F9000E62FE695E695E695EE3168F4E80FF92F11
:102FA000F11D677021E030E001C0220F6A95EAF759
:102FB0008281822B82830895E62FE695E695E69539
:102FC000EE3170F4E80FF92FF11D677021E030E069
:102FD00001C0220F6A95EAF7209582812823228377
:102FE000089520911401222329F02091540227FDF5
:102FF0000C94C8170C94A11720911401222329F0D6
:103000002091540227FD0C94DC170C94BB17FC0193
:10301000329680911401882351F08091540287FFE9
:1030200006C08EE1DF011D928A95E9F7089586E0DA
:10303000F9CF089508950C941A1880915A0284309B
:1030400049F10E941B1880E00E946703109225023C
:1030500088E190E020E40FB6F894A8958093600092
:103060000FBE2093600083B7817F846083BF83B7E6
:10307000816083BF7894889583B78E7F83BF0FB6B6
:10308000F894A89580916000886180936000109208
:1030900060000FBE089508950E9419180E94B3059C
:1030A0000E944B1880E00E94860591E0811101C0CA
:1030B00090E0892F089508950C945B180E94761073
:1030C0000E94D70B0E9467030C945C181F921FB6D6
:1030D0001F9211248F939F93AF93BF9380912502EA
:1030E000811113C08091500290915102A09152021F
:1030F000B09153024196A11DB11D8093500290934F
:103100005102A0935202B0935302BF91AF919F918D
:103110008F911F901FBE1F90189582E084BD93E091
:1031200095BD9AEF97BD80936E0008952FB7F894E0
:103130008091500290915102A0915202B09153029D
:103140002FBF08952FB7F8946091500270915102EB
:1031500080915202909153022FBF08959C014FB766
:10316000F8948091500290915102A0915202B09136
:1031700053024FBF821B930B089578941F921FB682
:103180001F9211248F939F93AF93BF93809150020E
:1031900090915102A0915202B09153020196A11D4B
:1031A000B11D8093500290935102A0935202B093AC
:1031B0005302BF91AF919F918F911F901FBE1F909F
:1031C000189587E797E7909301088093000888E1B6
:1031D0009AE00FB6F894A895809360000FBE909384
:1031E0006000FFCF90938D0180938C0108950C9423
:1031F000AC160E94B3052FEF86E791E02150804086
:103200009040E1F700C000000E94B30580E00E94FA
:10321000860580FF04C00E94F7180C94E1180895F9
:103220000E94B216811102C00E9456170E94BD165C
:10323000809324020E94C5169093550280935402F5
:103240000E94C116682F70E090E080E00E940E148A
:103250006091F7017091F8018091F9019091FA0164
:103260000C944814809146020895CF93DF9300D0C8
:103270000F92CDB7DEB790915A02943019F5898339
:103280007B836A8382E08093E9008FEF9091E8006E
:10329000815095FD06C095ED9A95F1F700008111DA
:1032A000F5CF8091E80085FF0DC050E040E063E07D
:1032B00070E0CE0101960E94611B8091E8008E773C
:1032C0008093E8000F900F900F90DF91CF910895B9
:1032D000BC0184E00C943519BC0183E00C943519D1
:1032E0009C0182E08093E9009FEF8091E80091507B
:1032F00085FD06C085ED8A95F1F700009111F5CFA7
:103300008091E80085FF0CC050E040E066E070E08E
:10331000C9010E94611B8091E8008E778093E800CC
:103320000895CF93DF93EC01809114018823B1F1CC
:103330008091540287FF32C060E282E08093E9000E
:103340008FEF9091E800815095FD06C095ED9A951C
:10335000F1F700008111F5CF8091E80085FF1BC0D7
:103360008091140170E050E040E0811104C050E011
:1033700040E068E070E0CE010E94611B8091E800AF
:103380008E778093E80080E2FE01A6E2B2E0019031
:103390000D928A95E1F7DF91CF91089568E081E081
:1033A000CDCF80915902811109C00E94F11C0E9469
:1033B0004E1D8091E20084608093E2000895109297
:1033C0005902089508950895089542E061EC81E05E
:1033D0000E946D1C42E261EC82E00C946D1C8091B5
:1033E0005C02833009F45FC030F48130C1F1823077
:1033F00009F49BC008958A3009F487C08B3009F422
:103400006DC0893009F04EC080915B02813209F0B5
:1034100049C080915F0290916002029708F042C01B
:103420008091E800877F8093E8008091E80082FF28
:1034300035C09091F3008091F200029729F48091B9
:10344000F1008B7F813021F48091F100809346025E
:103450008091E8008B778093E8000C94A11C809108
:103460005B02813AF9F48091E800877F8093E8005D
:1034700080915F0290916002892B61F460E286E2A4
:1034800092E070E00E94B01B8091E8008B778093FF
:10349000E800089560E090E080E0F3CF80915A0268
:1034A0008111C3CF089580915B02813AD9F7809151
:1034B0005F0290916002892BA9F78091E800877FD5
:1034C0008093E8008091E80080FFFCCF8091140198
:1034D0008093F1008091E8008E77BDCF80915B02F0
:1034E000813201F780915F0290916002892BD1F6C1
:1034F0008091E800877F8093E8000E94A11C809162
:103500005D02809314010C94761080915B028132ED
:1035100049F68091E800877F8093E8000E94A11C13
:1035200080915E0280934702089580915B02813A08
:1035300009F0B8CF8091E800877F8093E800809100
:10354000E80080FFFCCF80914702C2CF84B7877F1D
:1035500084BF0FB6F894A89580916000886180932D
:103560006000109260000FBE80E890E00FB6F89403
:1035700080936100909361000FBE0E94780C0E94BE
:10358000F11C0E944E1D8091E20084608093E20055
:1035900078940E94D71F0E94880C8AE091E00E94D4
:1035A000D20B80915A028530A9F00E94920C0E94A1
:1035B000860C0E94870CF5CF0E941D18809158023E
:1035C000882341F00E944C18882321F00E944B1B55
:1035D0000E94761080915A02853071F30E945E1825
:1035E000E4CF0C94F31A292F33272330310519F136
:1035F00068F42130310509F444C02230310509F462
:1036000045C090E080E030E020E025C02132310567
:1036100049F122323105A9F780E490E025EC32E04F
:1036200061157105C1F086EB90E02FE032E061306A
:10363000710589F0E6CF99278130910581F00097D7
:1036400029F00297F1F6E0E7F1E002C0EEEBF1E0DD
:10365000849190E09F01FA01318320830895E8E985
:10366000F1E0F6CF89E090E024ED31E061157105DD
:1036700091F389E090E02DEE31E06130710559F36E
:10368000C0CF82E190E02DEF31E0E5CF8BE390E019
:1036900022EC31E0E0CF80E189BD82E189BD09B44F
:1036A00000FEFDCF8091D8008F7D8093D80080915F
:1036B000E00082608093E0008091E00081FDFCCF1B
:1036C0000895AF92BF92CF92DF92FF920F931F9314
:1036D000CF93DF936C01EB018A010E94C01CF82E8E
:1036E000811123C00115110539F0F8018081918104
:1036F000C81BD90BC80ED91EB12CA12C2097A9F03C
:103700008091E80085FD22C08091E8008E7780934B
:10371000E80001151105A1F0F80180819181A80E42
:10372000B91EB182A08285E0F82E8F2DDF91CF9156
:103730001F910F91FF90DF90CF90BF90AF900895B1
:103740000E94C01C8823D1F2F82EEFCFF6018191A0
:103750006F018093F1002197FFEFAF1ABF0ACECF20
:10376000FC01809161029091620286179707A0F098
:103770006115710529F49091E8009E779093E80017
:1037800090E06115710551F4911108C08091E80035
:1037900082FF34C080E00895BC01F2CF80915A02CC
:1037A0008823C1F18530C1F18091E80083FD30C0EC
:1037B0008091E80082FDEACF8091E80080FFE1CFB0
:1037C0008091F3002091F200382F6115710519F0F6
:1037D0002830310558F091E02830310509F090E0AB
:1037E0002091E8002E772093E800CBCF8191809341
:1037F000F100615071092F5F3F4FE7CF80915A026E
:10380000882341F0853041F08091E80083FFBECFEE
:1038100081E0089582E0089583E00895FC0180919D
:1038200061029091620286179707A0F061157105F9
:1038300029F48091E8008E778093E80090E061158C
:10384000710551F4911108C08091E80082FF35C0E4
:1038500080E00895BC01F2CF80915A028823C9F11B
:103860008530C9F18091E80083FD31C08091E80086
:1038700082FDEACF8091E80080FFE1CF8091F300E4
:103880002091F200382F6115710519F028303105AB
:1038900058F091E02830310509F090E08091E8007F
:1038A0008E778093E800CBCF84918093F10031969E
:1038B000615071092F5F3F4FE6CF80915A028823F4
:1038C00041F0853041F08091E80083FFBDCF81E079
:1038D000089582E0089583E00895982F973028F0A6
:1038E0008F708093E90081E008959093E900242F80
:1038F000762F50E0981731F07091EC002091ED0098
:103900005091F00021FD02C09F5FE8CF3091EB00A5
:103910003E7F3093EB003091ED003D7F3093ED0022
:103920003091EB0031603093EB007093EC0020930A
:10393000ED005093F0002091EE0027FDE5CF80E0F0
:10394000089580915B0287FF13C08091E80082FF99
:1039500006C08091E8008B778093E80004C08091D6
:103960005A028111F2CF089580915A028823D9F327
:103970008091E80080FFF8CF8091E8008E77ECCF4F
:103980002091E4003091E50095E6A9012091EC003A
:10399000822F817020FF06C08091E80080FF06C062
:1039A00080E008952091E80022FD1AC080915A021B
:1039B000882389F0853089F08091EB0085FD0FC068
:1039C0002091E4003091E50042175307F9F291503D
:1039D000E1F684E0089582E0089583E0089581E0AF
:1039E00008950E945F1D0E94671DE0EEF0E0808157
:1039F00081608083E8EDF0E080818F77808319BC5F
:103A0000A7EDB0E08C918E7F8C9380818F7E808338
:103A10001092590208950F931F93CF93DF930E9442
:103A20005F1D0E94671DC8EDD0E088818F77888375
:103A300088818068888388818F7D888319BC1092F3
:103A40005A0210925602109258021092570200EE3B
:103A500010E0F80180818B7F80838881816088837A
:103A600042E060E080E00E946D1CE1EEF0E08081C9
:103A70008E7F8083E2EEF0E08081816080838081B0
:103A800088608083F80180818E7F80838881806157
:103A90008883DF91CF911F910F910895E8EDF0E0B9
:103AA00080818F7E8083E7EDF0E08081816080837C
:103AB00084E082BF81E0809359020C940B1DE8EDF5
:103AC000F0E080818E7F80831092E2000895109252
:103AD000DA001092E10008951F920F920FB60F9234
:103AE00011242F933F934F935F936F937F938F9303
:103AF0009F93AF93BF93EF93FF938091E10082FF79
:103B00000BC08091E20082FF07C08091E1008B7FB3
:103B10008093E1000E94D61F8091DA0080FF19C0D7
:103B20008091D80080FF15C08091DA008E7F80934D
:103B3000DA008091D90080FF96C080E189BD82E1E2
:103B400089BD09B400FEFDCF81E080935A020E9436
:103B5000D1198091E10080FF19C08091E20080FFBF
:103B600015C08091E2008E7F8093E2008091E20098
:103B700080618093E2008091D80080628093D800B9
:103B800019BC85E080935A020E94E3198091E100FC
:103B900084FF2BC08091E20084FF27C080E189BDB3
:103BA00082E189BD89B5982F917080FFFBCF80910C
:103BB000D8008F7D8093D8008091E1008F7E809324
:103BC000E1008091E2008F7E8093E2008091E2002C
:103BD00081608093E20080915602882309F449C0F5
:103BE00084E080935A020E94E4198091E10083FFEF
:103BF00029C08091E20083FF25C08091E100877F8A
:103C00008093E10082E080935A02109256028091E4
:103C1000E1008E7F8093E1008091E2008E7F8093AF
:103C2000E2008091E20080618093E20042E060E087
:103C300080E00E946D1C8091F00088608093F0000D
:103C40000E94E219FF91EF91BF91AF919F918F91E7
:103C50007F916F915F914F913F912F910F900FBE88
:103C60000F901F90189519BC10925A020E94DF19EC
:103C700070CF8091E30087FD93E090935A02B3CF19
:103C80001F920F920FB60F9211242F933F934F93D1
:103C90005F936F937F938F939F93AF93BF93CF93D4
:103CA000DF93EF93FF93D091E900DF708091EC00F8
:103CB000C82FC17080FDC0E81092E9008091F0002B
:103CC000877F8093F00078940E94841E1092E90010
:103CD0008091F00088608093F000CD2BCF70C0936E
:103CE000E900FF91EF91DF91CF91BF91AF919F914B
:103CF0008F917F916F915F914F913F912F910F9095
:103D00000FBE0F901F9018951F93CF93DF93CDB7E1
:103D1000DEB7AA970FB6F894DEBF0FBECDBF8BE516
:103D200092E02091F100FC012193CF01F2E0833673
:103D30009F07B9F70E94EF198091E80083FF1EC129
:103D400080915B0290915C029A3008F017C1E92FD4
:103D5000F0E0EE57FF4D0C940620803899F0823841
:103D600009F00CC180915F028F70873008F006C1A6
:103D70008093E9008091EB0085FB882780F9109201
:103D8000E90006C08091570290915802911182601B
:103D90009091E800977F9093E8008093F100109253
:103DA000F1008091E8008E77E5C0882309F4D3C044
:103DB000823009F0E3C080915D028111D6C080910C
:103DC0005F028F702FEF280F263008F0D7C0809346
:103DD000E9002091EB0020FFC8C0933031F48091BE
:103DE000EB0080628093EB00C0C09091EB0090618B
:103DF0009093EB0021E030E001C0220F8A95EAF7B2
:103E00002093EA001092EA008091EB008860EACFEC
:103E10008111B4C010915D021F778091E30080781A
:103E2000812B8093E3008091E800877F8093E800F6
:103E30000E94A11C8091E80080FFFCCF8091E300EC
:103E400080688093E30082E0111183E080935A023E
:103E500095C08058823008F091C080915D029091A9
:103E60005E028C3D23E09207A1F583E08A838AE21B
:103E700089834FB7F894DE01139620E03EE051E2CB
:103E8000E32FF0E050935700E49120FF03C0E29548
:103E9000EF703F5FEF708E2F90E0EA30C0F0C79672
:103EA0008D939D932F5F243159F74FBF8091E80088
:103EB000877F8093E8006AE270E0CE0101960E945D
:103EC000B01B8091E8008B778093E80057C0C096C4
:103ED000E7CF60915F0270916002AE014F5F5F4F6C
:103EE0000E94F11ABC01892B09F448C09091E800A6
:103EF000977F9093E80089819A810E940E1CE1CF00
:103F00008038E1F58091E800877F8093E800809118
:103F100056028093F10045CF811130C090915D022F
:103F2000923060F58091E800877F8093E80090935D
:103F300056020E94A11C80915602882311F084E051
:103F400005C08091E30087FDFACF81E080935A029B
:103F50000E94E51913C080915D02813079F481E0FF
:103F6000933009F080E0809358021092E90080912C
:103F7000E800877F8093E8000E94A11C8091E80000
:103F800083FF0AC08091E800877F8093E8008091DA
:103F9000EB0080628093EB00AA960FB6F894DEBF28
:103FA0000FBECDBFDF91CF911F9108950895CF939C
:103FB00080915A028823A1F0C091E900CF709091BE
:103FC000EC00892F817090FD80E8C82B1092E900E9
:103FD0008091E80083FD0E94841ECF70C093E900A9
:103FE000CF91089597FB072E16F4009407D077FD24
:103FF00009D00E940C2007FC05D03EF490958195D5
:104000009F4F0895709561957F4F0895EE0FFF1FA4
:104010000590F491E02D0994AA1BBB1B51E107C048
:10402000AA1FBB1FA617B70710F0A61BB70B881F48
:10403000991F5A95A9F780959095BC01CD010895D7
:10404000F999FECF92BD81BDF89A992780B5089560
:10405000A8E1B0E042E050E00C945420262FF999FA
:10406000FECF92BD81BDF89A019700B4021639F0D7
:104070001FBA20BD0FB6F894FA9AF99A0FBE0895A8
:104080000396272F0E942F200E942E20252F0E946A
:104090002F20242F0C942F200196272F0E942F20B1
:1040A0000C942E20DC01CB01FC01F999FECF06C057
:1040B000F2BDE1BDF89A319600B40D9241505040E6
:1040C000B8F70895F894FFCF310E310E890E890E9E
:1040D000DB0EF70E5E0E5E0E020F8E0F9D0F9D0F14
:1040E000F90F5E0E5E0E0210851085108E108E1078
:1040F00090108E108E108E108510851095108E10D9
:104100008E109510AD1ED51EBE1FD51EBE1F081FDA
:08411000291FBE1F801F8C1F38
:104118002808641E140A321E0102321991197019F6
:104128006C19681901E200E900EA00B500B600B7A9
:1041380000CD008301CC008A019201940121022361
:104148000224022502260227022A02B300B4006FC5
:10415800007000818283673796F5F700FF01000140
:104168000000FFFF0000010001FF00E200E900EA93
:1041780000B500B600B700CD008301CC008A0192DB
:104188000194012102230224022502260227022A81
:0C41980002B300B4006F0070008182834D
:00000001FF
