:100000000C94B7010C94FE010C94FE010C94FE01BB
:100010000C94FE010C94FE010C94FE010C94FE0164
:100020000C94FE010C94FE010C94C7210C949B22AD
:100030000C94101C0C94FE010C94FE010C94FE0117
:100040000C94FE010C94FE010C94FE010C94FE0134
:100050000C94FE010C94671C0C94FE010C94FE01A0
:100060000C94FE010C94FE010C94FE010C94FE0114
:100070000C94FE010C94FE010C94FE010C94FE0104
:100080000C94FE010C94FE010C94FE010C94FE01F4
:100090000C94FE010C94FE010C94FE010C94FE01E4
:1000A0000C94FE010C94FE010C94FE011D001B003B
:1000B000290035000153AC00AE00AB00A80001538D
:1000C0000000000000000000000000000000000030
:1000D0000000000000000000000000002A2B2800A3
:1000E00000000000000000000000000000000029E7
:1000F000000000002C1E3420212224342627252E27
:10010000362D3738271E1F2021222324252633335E
:10011000362E37381F0405060708090A0B0C0D0E8A
:100120000F101112131415161718191A1B1C1D2F56
:100130003130232D350405060708090A0B0C0D0E76
:100140000F101112131415161718191A1B1C1D2F36
:100150003130354C000000000000000000000000BD
:10016000000000000000000000000000000000008F
:1001700000000000000000007E0F00D4FFFFFFC75A
:1001800000000078380341007200720061007900BD
:1001900020005000500020005B0031007800340047
:1001A0005D0020002B002000310020004D00610088
:1001B000630072006F00700061006400000024039F
:1001C000410072007200610079002000500065005B
:1001D00072006900700068006500720061006C00C8
:1001E000730000000403090409025B00030100A07E
:1001F000FA090400000103010100092111010001B5
:100200002240000705810308000A090401000203D7
:1002100000000009211101000122220007058203CC
:100220002000010705030320000109040200010367
:1002300000000009211101000122B6000705840316
:1002400020000A12011001000000085241464F012F
:1002500000010200010660FF0961A10109621500A9
:1002600026FF009520750881020963150026FF000E
:10027000952075089102C005010902A101850209B6
:1002800001A1000509190129081500250195087526
:100290000181020501093009311581257F9502751B
:1002A00008810609381581257F95017508810605A5
:1002B0000C0A38021581257F950175088106C0C09A
:1002C00005010980A101850319012AB7001501263E
:1002D000B700950175108100C0050C0901A10185C9
:1002E0000419012AA002150126A0029501751081AA
:1002F00000C005010906A1018505050719E029E7E8
:10030000150025019508750181020507190029EFDF
:100310001500250195F075018102050819012905CF
:10032000950575019102950175039101C0050109BB
:1003300006A101050719E029E715002501950875B3
:100340000181029501750881010507190029FF1532
:100350000026FF009506750881000508190129058A
:10036000950575019102950175039101C000112455
:100370001FBECFEFDAE0DEBFCDBF04B603FE27C05D
:100380008091730290917402A0917502B0917602EF
:100390008730904BA740B04BD1F41092730210926B
:1003A0007402109275021092760214BE84B7877F91
:1003B00084BF0FB6F894A8958091600088618093FF
:1003C0006000109260000FBEE0E0F8E3099511E0D4
:1003D000A0E0B1E0E2E0FAE402C005900D92AC3991
:1003E000B107D9F722E0ACE9B1E001C01D92A33713
:1003F000B207E1F70E94851E0C94C4240C940000FF
:10040000811106C08AEF611101C089EF0C9491112E
:100410000895CF93DF939C013A9521153F4168F5EC
:10042000EC01CC27D170DC01AA27B270AC014427C3
:1004300054709C012227387094FF11C080E1CD2BAD
:1004400009F480E0AB2B09F08062452B09F0806451
:10045000232B09F08068FB01DF91CF91099481E0A3
:10046000CD2B09F480E0AB2B09F08260452B09F01D
:100470008460232B81F38860EECFDF91CF910895C4
:10048000CF93DF93EC01805E9109089720F06CEF29
:1004900073E1209711F469E971E1CE010E9409022C
:1004A0008C2FDF91CF910C94FD10CF93DF93EC0153
:1004B0000E944B11CE01805E9109089720F063E005
:1004C00074E1209711F460EA71E1CE01DF91CF91E0
:1004D0000C940902CF93DF93EC010E944002CE01FD
:1004E000DF91CF910C94550281E0089581E0089549
:1004F0000C94760208950C947A021F93CF93DF93A5
:1005000000D000D00F92CDB7DEB749835A836B83FA
:100510003091C90189819A8131111DC06623B9F0DA
:100520002223A9F00E940D19182F682F89819A8122
:100530000E94B61869817A81812F0F900F900F90D9
:100540000F900F90DF91CF911F910C94E80B0E94B8
:10055000E418182FEFCF0E940D1969817A81EDCF31
:10056000FC01262F408151816281738184810C942A
:100570007D02CF93DF93EC0160E00E94B002BE01E8
:10058000DF91CF910C947B028F929F92AF92BF929A
:10059000CF92DF92EF92FF920F931F936B017C013A
:1005A00081E090E0A0E0B0E04C015D0104C0880C67
:1005B000991CAA1CBB1C4A95D2F7B501A4014C0199
:1005C0005D0104C0880C991CAA1CBB1C2A95D2F79B
:1005D000482959296A297B2904C0880F991FAA1F15
:1005E000BB1F0A95D2F78A019B010C211D212E21E8
:1005F0003F21041715072607370789F48C299D2901
:10060000AE29BF29BC01CD011F910F91FF90EF9042
:10061000DF90CF90BF90AF909F908F90089580957E
:100620009095A095B0958C219D21AE21BF21EACF58
:100630000F93382F262F6091070270910802809146
:10064000090290910A02042F432F0E94C4020F91C5
:100650000C94F4170E94A31C0E945C1A811102C022
:100660000E94001B0E94C60C0C9476060C9479061E
:1006700008950E9420140E9438032FEF84E39CE029
:10068000215080409040E1F700C000000C948B1C8A
:100690000F931F93CF93DF93EC0161E00E94B002B0
:1006A0008C01BE010E94550A882389F1BE01C80150
:1006B0000E947802882359F1BE01C8010E94510DA1
:1006C000882329F1BE01C8010E94DB0D8823F9F0BF
:1006D000BE01C8010E942D0E8823C9F0BE01C801C9
:1006E0000E94500F882399F08A81882339F00115E0
:1006F0008CE5180751F00E3D1C4579F0CE01DF91D5
:10070000CF911F910F910C9474020E94390380E0E5
:10071000DF91CF911F910F9108950E94001BF7CF99
:10072000DF92EF92FF920F931F93CF93DF93E82F07
:10073000F0E0EC52FF4FD490282F26952695269571
:1007400030E0F901EC58FE4F0491877010E0082E5C
:1007500002C0159507950A94E2F701701127F90177
:10076000EC59FE4FE490F12C082E02C0F594E7946A
:100770000A94E2F791E0E922FF24F901EC5AFE4FD6
:10078000C491D0E002C0D595C7958A95E2F7C170B3
:10079000DD270115110519F081EE0E94FD10E1140D
:1007A000F10419F086EE0E94FD108D2D0E9491112A
:1007B000EF2819F086EE0E944B11012B19F081EE03
:1007C0000E944B11CD2B51F08CE2DF91CF911F9104
:1007D0000F91FF90EF90DF900C949111DF91CF91EA
:1007E0001F910F91FF90EF90DF900895EF92FF928D
:1007F0000F931F93CF93DF93EC01162F0AE08881AC
:10080000882309F454C0813009F04EC089818130B9
:1008100099F47E0122E0E20EF11C8A810E9491117E
:10082000E7012196812F815050F3EFE9FFE03197E6
:10083000F1F700C00000F7CF823041F47E0182E082
:10084000E80EF11C8A810E94FD10EACF833041F44A
:100850007E01E2E0EE0EF11C8A810E944B11E0CF96
:10086000843011F02196DDCF2A81229690E080E03D
:10087000AE014F5F5F4F2053330B2A30310548F0F4
:10088000019778F2EFE9FFE03197F1F700C000003F
:10089000F7CF089FB001099F700D1124C901860F81
:1008A000971F2981EA01E4CF0E949003BACFDF911C
:1008B000CF911F910F91FF90EF90089560E00C94FD
:1008C000F603982F9F709A50963018F0805D0C9424
:1008D0009003895AFCCF08950C946B0481E008952D
:1008E0000C946E04CF93C82F0E946C048C2FCF9170
:1008F0000C94700490E080E008950895FC01EE0FE0
:10090000FF1FEC57FE4F859194910895CF93DF938D
:100910000E94E80B0E949B05EC01811520E59207DF
:1009200008F042C0811530E4930708F0BDC0883E4E
:10093000910528F5803E910508F09DC0883A910503
:1009400088F4853A910508F08FC08130910509F44B
:1009500092C0009709F48FC0049708F08CC0D0E0D3
:10096000C0E089C08F3B910508F489C0805C910983
:10097000C03CD105A0F30E947E04EC017CC081152F
:10098000904250F4C11581E0D80708F074C0C03F10
:10099000D10528F3D0656FC0C11590E3D90708F0E1
:1009A00079C0CE019F70E7CF811525E5920758F5F4
:1009B000811534E5930708F0A6C0811542E5940738
:1009C00050F4C11581E5D80708F471C0DC2FCC279D
:1009D000C16FD06A50C0982F969596959E0123704E
:1009E0003327C115D34508F07FC0C1E0D0E002C075
:1009F000CC0FDD1F2A95E2F720E2929FC00111245F
:100A0000C82BD92B6FC0C11589E5D807A8F4C1152B
:100A100098E5D90708F07CC0C11526E5D20708F093
:100A20009ECF8C2F0E943206C82FD0E0DC2FCC271F
:100A3000CC27DF71D0621FC0C1153AE5D30708F497
:100A40006CC0CE0190568115904208F088CF8D2F52
:100A50008F710E94320690E0982F882788279F7117
:100A60009C012C2BE901E6CFC55AD0E0CD5BDE4FCF
:100A7000C881D0E0D064CE01DF91CF910895C85AEB
:100A8000D0E0CC0FDD1FCB5EDE4F0990D881C02DAA
:100A9000D464F1CFCE019927D3FF03C0EC01D86C09
:100AA000EACFEC01D06CE7CFDF70D06AE4CFCE01A3
:100AB000E4E096958795EA95E1F783702C2F2695CB
:100AC0002695237090E2299F90011124382B8C2FBA
:100AD0008370C1E0D0E002C0CC0FDD1F8A95E2F741
:100AE000C22BD32BDC68C7CFC1E0D0E002C0CC0F53
:100AF000DD1F2A95E2F730E2939FC0011124C82B35
:100B0000D92BDA68B8CFD82FCC27C46FD06AB3CF2F
:100B1000DC2FCC27C06FD06AAECF8C2F8F700E9495
:100B2000320634E0D695C7953A95E1F7CF709C2F01
:100B3000EC01D069A0CF82389105B1F1B0F48133D6
:100B4000910509F475C048F48932910509F469C02A
:100B50008A32910509F473C008958533910509F42B
:100B600059C08933910501F10895833E9105A9F19A
:100B700038F4803E9105F9F0823E910549F10895DF
:100B8000863E9105A9F1873E9105C9F1843E910504
:100B900019F52091650221FF1FC08091640284FD38
:100BA00014C087EE90E00895209164022370A1F0B4
:100BB00080EE90E008952091640220FD47C03091BE
:100BC000650230FF09C024FF44C090E080E004C00B
:100BD0002091640222FDF7CF08952091640222FD46
:100BE0003BC03091650230FDE3CF24FFF5CFEDCF60
:100BF0002091640223FFF0CF24FDE7CFD2CF2091D4
:100C0000640223FD2CC03091650231FFEECF84EEEB
:100C100090E008952091640225FFDECF89E290E004
:100C200008952091640225FFD7CF85E390E00895D1
:100C30002091640226FFD0CF8AE290E008952091AF
:100C4000640226FFC9CF81E390E0089589E390E034
:100C5000089583EE90E0089582EE90E0089586EE88
:100C600090E008959091640292FF06C0282F2871A9
:100C70002830F9F4877F846093FF06C0282F2871FD
:100C80002831F1F4877E84612091650220FF06C03F
:100C9000382F38713830D9F4877F816021FF06C042
:100CA000282F28712831D1F4877E816194FD877EB9
:100CB0000895282F24712430F9F68B7F8860DCCFCB
:100CC000282F2471243101F78B7E8861DDCF382FE6
:100CD0003171313019F78E7F8860E0CF282F217174
:100CE000213121F78E7E8861E1CF08950C9475063D
:100CF00008950C947806E82FF0E0E75AFD4F8081C4
:100D000008950895A6E4B1E041E050E08D918F3F51
:100D100091F0E82FE295EF70F0E061A18F709A01F9
:100D200001C0220F8A95EAF7922F9095962391A3FE
:100D300082A1822B82A381E0AB34B80739F71092ED
:100D400058021092590281E00E94E4060C942A0392
:100D5000CF93A6E4B1E050E040E030E061E070E025
:100D60002D912F3FA9F0E22FE295EF70F0E080A1E6
:100D700090E02F7002C0959587952A95E2F780FD47
:100D800021C0CB01042E01C0880F0A94EAF7382B4A
:100D90004F5F5F4F4530510519F780915802C0E011
:100DA000831719F030935802C1E02C2F41E069E518
:100DB00072E088E592E00E94E5060E9436038C2FDF
:100DC000CF91089580E0E3CF0895FF920F931F9392
:100DD000CF93DF93F82E092F162FD72FC42F22235E
:100DE00049F081E08093A0010E94401C90939F01F4
:100DF00080939E018091A0018823A1F080919E01A3
:100E000090919F010E94581C069760F0EF2DF02FE3
:100E1000A12FBD2FCE0FDF2FD11DEC17FD0741F401
:100E20001092A001DF91CF911F910F91FF90089533
:100E300081918D93F2CF8091A70180FF12C06091C4
:100E4000050185E0689FB00111247595679575953A
:100E5000679560387105A8F561157105A1F1862FB8
:100E6000089581FF09C06091050185E0689FB00188
:100E7000112475956795EDCF6091050182FD0AC03B
:100E80008091A6018823D1F0909104016091050121
:100E9000891728F085E0689FB0011124DACF869F7A
:100EA000B001112485E0869F9001879F300D1124A9
:100EB000692F70E0C9010E944D24CBCF65E070E03E
:100EC000CECF8FE7089581E008958091A70180FF3C
:100ED0000CC06091010170E07595679575956795F7
:100EE0006115710549F1862F089581FF06C0609153
:100EF000010170E075956795F3CF6091010182FD66
:100F00000BC09091A5019923A1F0609100018091FF
:100F10000101961738F0682F70E06038710500F312
:100F20008FE70895899FC001112470E00E944D242D
:100F3000F4CF61E070E0D7CF81E00895803F31F4D5
:100F40000E941B0781958093AB010895813F19F49E
:100F50000E941B07F8CF823F31F40E941B07819546
:100F60008093AA010895833F19F40E941B07F8CFCC
:100F7000893F29F40E9465078093AC0108958A3F58
:100F800021F40E9465078195F7CF8B3F31F40E94D1
:100F9000650781958093AD0108958C3F19F40E94F7
:100FA0006507F8CF9CE0980F953070F4845F990B3B
:100FB00021E030E001C0220F8A95EAF78091A90173
:100FC000822B8093A90108958D3F31F48091A70170
:100FD00081608093A70108958E3F21F48091A7013D
:100FE0008260F7CF8F3FB9F78091A7018460F1CF7E
:100FF0004091AA01803F59F48091AB0187FF0DC059
:101000001092AB0141110BC01092A60108C0813FA4
:1010100081F48091AB0118169CF3442381F08091F8
:10102000AC019091AD01892B09F05AC01092A50135
:101030000895823F49F447FFF0CF1092AA018091B2
:10104000AB018111ECCFE0CF833F19F41416ACF360
:10105000E4CF9091AC01893F29F41916F4F610926F
:10106000AC01DBCF8A3F19F497FFD7CFF8CF90912F
:10107000AD018B3F29F497FFD0CF1092AD01CDCFBA
:101080008C3F19F41916CCF3C8CF9CE0980F95301B
:1010900090F4845F990B21E030E0B90102C0660F43
:1010A000771F8A95E2F7CB0180959091A90189235A
:1010B0008093A901B2CF8D3F31F48091A7018E7F3B
:1010C0008093A701AACF8E3F21F48091A7018D7F45
:1010D000F7CF8F3F09F0A1CF8091A7018B7FF0CF91
:1010E00008950E94401C9C019091AA018091AB013F
:1010F000982B21F03093A4012093A3019091AC018F
:101100008091AD01982B21F03093A2012093A10191
:1011100088EA91E00C94B20FEF92FF920F931F9325
:10112000CF93DF9300D000D000D0CDB7DEB786E0FC
:10113000E8EAF1E0DE01119601900D928A95E1F75F
:10114000E090AA01F090AB010091AC011091AD01CB
:101150001092AA011092AB011092AC011092AD0155
:101160008E2D8F2991F08091A3019091A4010E946E
:10117000581CAC019091A601992309F43FC08091BD
:1011800006018417150608F447C0802F812B91F0C3
:101190008091A1019091A2010E94581CAC019091F4
:1011A000A501992309F477C08091020184171506DF
:1011B00008F47FC08091AA019091AB01892B909196
:1011C000AC01892B9091AD01892B11F00E9471081F
:1011D00086E0FE013196A8EAB1E001900D928A9571
:1011E000E1F726960FB6F894DEBF0FBECDBFDF91B4
:1011F000CF911F910F91FF90EF90089520910701DB
:101200008AE0289F900111242417350708F0BDCFEC
:101210009F5F9093A60102C09F3FD1F7EE2059F047
:101220000E941B079FEF1E140CF491E0899F802DF4
:1012300011248093AA01FF2059F00E941B079FEF01
:101240001F140CF491E0899F802D11248093AB0131
:101250003091AA01332309F498CF2091AB012223C6
:1012600009F493CF45EB3403C0011124992359F0BD
:101270009093AA0145EB240390011124332339F004
:101280003093AB0182CF81E08093AA01F3CF81E05C
:101290008093AB017ACF209103018AE0289F9001CF
:1012A00011242417350708F085CF9F5F9093A5017F
:1012B00002C09F3FD1F7002359F00E9465079FEFBE
:1012C00010160CF491E0899F802D11248093AC01BD
:1012D000112359F00E9465079FEF11160CF491E05D
:1012E000899F802D11248093AD013091AC0133236F
:1012F00009F460CF2091AD01222309F45BCF45EBC7
:101300003403C0011124992359F09093AC0145EBAB
:10131000240390011124332339F03093AD014ACFD7
:1013200081E08093AC01F3CF81E08093AD0142CFA7
:1013300086E0E8EAF1E0DF011D928A95E9F7109274
:10134000A6011092A5011092A70108950C94000225
:101350008098889A8198899A8FB18170799905C00F
:1013600090E0892B8093B001089592E0FACFE0914C
:10137000B001EE0FEE0FE093B0014FB1842F8170FA
:101380004FB141FB222720F941FF02C022E030E0AB
:10139000822BE82BE093B001EF70F0E0E55BFE4FAD
:1013A00080819091AF01890F8093AF0120E084305C
:1013B00054F08091AE018F5F8093AE0160E080E0D9
:1013C0000E94A60921E08091AF018D3F54F48091E5
:1013D000AE0181508093AE0161E080E00E94A609D9
:1013E00021E08091AF01082E000C990B64E070E0C1
:1013F0000E944D248093AF01822F089582E290E0F5
:101400000E948224813289F483E290E00E94822447
:10141000853059F484E290E00E94822491E0873282
:1014200009F090E0892F8170089580E0FCCFCF9380
:10143000C82F6FEF811161E282E290E00E94902458
:101440006FEFC11165E083E290E00E9490246FEF9E
:10145000C11167E284E290E0CF910C94902480E087
:101460000E94170A0C94561A089585E290E00E9493
:101470008224682F70E090E080E0089585E290E09B
:101480000C9490240E94340A0E94FE0981110CC021
:1014900060E070E0CB010E943E0A0E94730B0E9444
:1014A0004A0C81E00C94170A0895CF93FB01C28186
:1014B000CC2309F19C0122513F452031310520F513
:1014C00082510E945A0CC0E08C2FCF91089581E088
:1014D0000E941A1843E062E081E00E941803F3CFF3
:1014E00081E00E943B1843E062E081E00E94180323
:1014F000EBCF82E0F6CF8031FFE59F0789F38131A2
:101500009F45B9F3C1E0E0CF8031EFE59E07F9F2E6
:1015100081319F45C9F682E0DBCF2FEFFC012083AC
:1015200008951F93CF93DF93EC01162FE881E150CC
:10153000E33108F050C0F0E0EA53FB4D0C94612415
:10154000198289E08A830FC08981823099F08330C3
:10155000A1F08130B1F40E944C1C0E9467246A8380
:101560007B838C839D83612FCE01DF91CF911F916F
:101570000C947A1D0E94350AF0CF80E00E947B0611
:10158000E1CF612FCE010E948D0AEDCF898182309B
:10159000C1F76A817B818C819D810E9467240E94B2
:1015A0003E0AE1CF4B816A8189810E94450B9827D1
:1015B000892798279D838C83D6CF2C813D81322724
:1015C000232732274B816A8189810E945E0BCBCF12
:1015D0000E94730BC8CF8FEF8883C5CF0E94F50B95
:1015E0008983C1CF0E94F70B9827892798279A8370
:1015F0008983B9CF6B8170E089819A81AE014C5F9C
:101600005F4F9827892798270E94FA0BACCF6B81F0
:1016100070E089819A81AE014C5F5F4F98278927DE
:1016200098270E94200C9FCF0E944A0C9CCF0E94BA
:10163000340BD6CF6B8170E089819A81AE014C5F0B
:101640005F4F9827892798270E949A0B8CCF6B8130
:1016500070E089819A81AE014C5F5F4F982789279E
:1016600098270E94BF0B7FCF82E008959AE050E058
:10167000440F551F699F400D511D1124899F400D36
:10168000511D1124CA01869608950F931F93CF937D
:10169000DF930E94360B8C010E948224C82FD0E079
:1016A000DC2FCC27C80101960E9482249E01282BA2
:1016B000C901DF91CF911F910F9108950F931F934F
:1016C000CF93DF93122F032F0E94360BEC01602F74
:1016D0000E949024612FCE010196DF91CF911F913E
:1016E0000F910C9490240F931F93CF930CEA10E06A
:1016F000C0E0F801259134914C2F60E080E00E9419
:101700005E0B0E5F1F4FCF5FC53099F706EB10E001
:10171000C0E0F801259134914C2F60E081E00E94F7
:101720005E0B0E5F1F4FCF5FC53099F7CF911F91B2
:101730000F910895EF92FF920F931F93CF93DF9332
:10174000EC018A017C01E60EF71ECE018696CE15CD
:10175000DF0539F4DF91CF911F910F91FF90EF904A
:101760000895C431D10540F40E948224F801808399
:101770000F5F1F4F2196E9CFF8011082F9CFCF926A
:10178000DF92EF92FF920F931F93CF93DF937C0131
:101790006A018C01060F171FEC01CE018696C01757
:1017A000D10749F4DF91CF911F910F91FF90EF90F6
:1017B000DF90CF900895C431D10540F4FE01EE19B9
:1017C000FF09EC0DFD1D60810E9490242196E5CF5C
:1017D000462F823038F4711105C0653018F460E08E
:1017E0000C94450B90E080E0089580E1089586EC2C
:1017F00093E00895EF92FF920F931F93CF93DF939F
:10180000EC018A017C01E60EF71ECE01CA96CE15C8
:10181000DF0539F4DF91CF911F910F91FF90EF9089
:101820000895C63C23E0D20740F40E948224F801C8
:1018300080830F5F1F4F2196E8CFF8011082F9CF08
:10184000CF92DF92EF92FF920F931F93CF93DF938C
:101850007C016A018C01060F171FEC01CE01CA96AC
:10186000C017D10749F4DF91CF911F910F91FF90DD
:10187000EF90DF90CF900895C63C23E0D20740F46C
:10188000FE01EE19FF09EC0DFD1D60810E94902400
:101890002196E4CFCF93DF93CAE3D0E060E0CE019E
:1018A0000E9490242196C11584E0D807B9F7DF91F2
:1018B000CF910895DF92EF92FF920F931F93CF93F2
:1018C000DF9300D000D0CDB7DEB7F82E8FE08F15B4
:1018D00040F08FEF93E00E9482240AE310E0882317
:1018E000C1F00F900F900F900F90DF91CF911F914B
:1018F0000F91FF90EF90DF900895011584E0180795
:1019000081F3C8010E948224811101C0FA940F5F03
:101910001F4FF110F2CF19821A821B821C82DD2424
:10192000D39478018FEFE81AF80AC8010E94822444
:1019300089831A828823A9F29FEF980F933078F455
:101940008A83D9820E5F1F4FC7010E9482248B8336
:10195000882339F2CE0101960E945E04E2CF87010E
:10196000F9CFCF93DF93EC0197FF0CC0FB0182818D
:10197000882341F00E94DC0CCE019F770E94360D37
:101980000E94170D81E0DF91CF9108958CE090E0E7
:101990000E94822490E0B0E0A0E080935A029093ED
:1019A0005B02A0935C02B0935D02089560915A02BD
:1019B0008CE090E00C9490240E948B0F86958170AF
:1019C00080935F0290915A02913029F4882319F094
:1019D00089E30E9491110E94A21980935E020E94E5
:1019E000B51980915A02813089F0882359F08230EC
:1019F00091F08430B9F08FE39CE90197F1F700C0D2
:101A00000000089582EE0E94FD10F5CF88E193E07A
:101A10000E946A02F0CF82EE0E94FD1087E50E94CC
:101A20009111E9CF86EE0E94911188E1F8CF809163
:101A30005A02813071F0882341F0823031F08430D5
:101A400099F080915E020C94B21982EE0E944B11C3
:101A5000F8CF8CE20E94911180915F02882389F374
:101A600089E30E949111EDCF88E2FBCF0F931F9382
:101A7000CF93DF938C01CCE0D0E0C8010C2E02C0E4
:101A8000969587950A94E2F78F700E9461042497D7
:101A9000CC3F8FEFD80789F7DF91CF911F910F913E
:101AA00008950F931F93CF93DF93EC018B01FB01FC
:101AB0008281882361F00E94A219CE01815E9C453B
:101AC0008530910520F480935A020E94D60CB8010B
:101AD000CE01DF91CF911F910F910C94B10C0F9318
:101AE0001F93CF93DF93C42FD22FFC0182818823D1
:101AF000C9F04093B3010E94401C9093B2018093BF
:101B0000B10180E28C0F883008F050C0C77081E0CE
:101B100001C0880FCA95EAF7DF91CF911F910F910D
:101B20000C9499111091B301141335C08091B10137
:101B30009091B2010E94581C883C910560F5C0E26A
:101B4000CD0F1D17B9F080E2810F883040F4177077
:101B500081E001C0880F1A95EAF70E94A011C830F1
:101B600048F481E09D2F977001C0880F9A95EAF79D
:101B70000E949911802F0E949111C830B8F4D7703B
:101B800081E001C0880FDA95EAF7DF91CF911F91CC
:101B90000F910C94A01180E28C0F883038F4C7703C
:101BA00081E001C0880FCA95EAF7EFCFDF91CF91AE
:101BB0001F910F9108950F939C01CB01233F4CE59A
:101BC000340759F1A8F4283DFCE53F0701F1293D10
:101BD0004CE53407D1F1273D3C4591F406E221EE76
:101BE00041EE67ED7CE50E946F0D80E00F91089556
:101BF000253FFCE53F07E9F0B0F0263F3C45F9F012
:101C0000FC018281882339F11092B301EFCF07E202
:101C100025EE45EE68ED7CE5E6CF06E221EE40EEEE
:101C200063EF7CE5E0CF07E225EE44EE64EF7CE570
:101C3000DACF06E221EE42EE65EF7CE5D4CF07E293
:101C400025EE46EE66EF7CE5CECF08E221E045EEDC
:101C500069ED7CE5C8CF81E0C9CFCF93DF93EC017C
:101C6000FB018281882309F419C1C230FCE5DF073A
:101C7000C0F1C6319CE5D90730F09E012A5F3C4592
:101C80002930310570F50E946F1A90936502809398
:101C90006402C031ECE5DE0709F4CFC008F05BC098
:101CA000C8308CE5D80709F4B6C088F5C430ECE537
:101CB000DE0709F4A8C0C0F4C2308CE5D80709F4E7
:101CC0009CC0809164028260C330DC4509F498C0F6
:101CD00080916402909165020E947D1A0E942014F6
:101CE00080E0DF91CF910895809164028061C630D9
:101CF000ECE5DE0709F484C0809164028860C73097
:101D0000DC4508F47DC080916402806279C0CC30EB
:101D10008CE5D80709F489C070F4809164028C6066
:101D2000CA30ECE5DE0709F46BC008F478C0809196
:101D300064028E7F65C0CE308CE5D80709F479C087
:101D4000809164028B7FCF30DC4508F459C08091CC
:101D500064028F7E55C0CB3FECE5DE0709F457C027
:101D600030F5C3318CE5D80709F46FC078F4C13180
:101D7000ECE5DE0709F465C0C231DC4509F0A8CF07
:101D80000E942014809164028F773AC0C5318CE59F
:101D9000D80709F462C008F476C0809165028160BA
:101DA000CA3FDC4509F094CF8093650291CFCF3FC5
:101DB000FCE5DF0709F44DC088F4809165028D7F52
:101DC000CD3F9CE5D90781F3809165028E7FCE3FA0
:101DD000DC4550F3809165028360E6CFC130FDE5BC
:101DE000DF0709F459C008F444C080E0C230DD4583
:101DF00009F06ECF0E94021B6BCF8091640281605C
:101E00008093640265CF809164028460F9CF8091F1
:101E100065028260C9CF809164028064F1CF0E9424
:101E20002014809164028068EBCF809164028D7FE2
:101E3000E7CF80916402877FE3CF809164028F7D3A
:101E4000DFCF809164028F7BDBCF80916402837F40
:101E5000D7CF809165028C7FA7CF8091640282FBEF
:101E6000992790F921E0922790FB82F990FB83F962
:101E7000C7CF80916502982F909591708E7F892BA6
:101E800090FB81F991CF0E94201490916402892FD8
:101E900097FB87F98058B4CF81E0ACCF81E021CFA8
:101EA000CF93DF93EB0186319C4511F50E94A21977
:101EB0009A81992399F08A7A91E009F490E09093BD
:101EC000B401811109C089E20E947D190E94F119B3
:101ED00080E0DF91CF91089585E3F6CF8091B40142
:101EE000811104C089E20E948419F0CF85E3FBCF01
:101EF00081E0EFCF9093BA018093B9010895E0910A
:101F0000B901F091BA01309721F00190F081E02DF4
:101F1000099480E00895E091B901F091BA013097F9
:101F200011F480E008950190F081E02D0995089565
:101F3000E091B901F091BA01309799F02091140124
:101F4000222359F02091640227FF07C0DC012C9165
:101F500011962C93119725E02C930280F381E02DAC
:101F600009940895E091B901F091BA01309739F0E0
:101F700022E0DC012C930480F581E02D0994089582
:101F80002091B7013091B8012817390771F090936B
:101F9000B8018093B701E091B901F091BA0130978F
:101FA00021F00680F781E02D099408952091B50174
:101FB0003091B6012817390771F09093B6018093DC
:101FC000B501E091B901F091BA01309721F0008498
:101FD000F185E02D099408950E944C1C6093C50181
:101FE0007093C6018093C7019093C8016093C101AB
:101FF0007093C2018093C3019093C40108950E941D
:102000004C1C6093C5017093C6018093C7019093E7
:10201000C8016093BD017093BE018093BF0190938E
:10202000C001089585B7806885BF85B7806885BF82
:102030000895089508950C94191008950C941D1096
:102040000E94121084E59AE10E949C1C0E941A10C2
:102050000C941B1081E008950C942A1008950895A3
:102060000E94371C0E9482060E94420A0E94BA1CEB
:102070000E94A8090C941E10EF92FF920F931F93D9
:10208000CF93DF93CDB7DEB72A970FB6F894DEBFB4
:102090000FBECDBF0E942E100E942F100E94A806D6
:1020A00081110E94EC0F80E00E947B06182F809126
:1020B000BC01E82EE126811709F44AC08091340260
:1020C00081FD0E948106F12C01E08E2D8023D9F143
:1020D0000E942C10882399F0FE821F82102381E039
:1020E00009F480E088870E94401C8160782F9A87DD
:1020F00089874E815F8168858A850E94C61080919C
:10210000BC0108270093BC010E94B70981110E94FD
:10211000FF0F0E948C080E947F0F9091BB018917CE
:1021200041F10E947F0F8093BB012A960FB6F8946D
:10213000DEBF0FBECDBFDF91CF911F910F91FF90FA
:10214000EF900C947204F394000F85E0F812BDCF69
:102150008FEF89838A831B820E94401C8160782FC5
:102160009D838C8349815A816B818D810E94C61029
:10217000CBCF2A960FB6F894DEBF0FBECDBFDF914E
:10218000CF911F910F91FF90EF900895DF92EF9202
:10219000FF920F931F93CF93DF93CDB7DEB72B97AB
:1021A0000FB6F894DEBF0FBECDBF7A878B87F42EB3
:1021B000052F162FE72ED82E61110E94C5191E82F9
:1021C0001D827E2DEC82DD824F2D502F612F8D2DB3
:1021D0009E812B960FB6F894DEBF0FBECDBFDF9168
:1021E000CF911F910F91FF90EF90DF900C94961676
:1021F000FC01808191810C944F19CF93C82F8823C3
:1022000009F447C08CEF8C0F813AA0F46C2F8091B9
:102210000801909109010E941B1B882329F08C2F33
:102220000E9484190E94F1198C2F0E947D19CF9170
:102230000C94F11980E28C0F883048F4C77081E06B
:1022400001C0880FCA95EAF70E94A519F0CFEBE507
:10225000EC0FE33040F4F0E0E757FE4F808190E070
:10226000CF910C94C00FE8E5EC0FE73150F4F0E0AB
:10227000EE0FFF1FE55AFE4F80819181CF910C94A4
:10228000D60FC03F30F08C2F0E949E07CF910C9448
:102290007108CF910895882361F19CEF980F913ACE
:1022A00020F40E9484190C94F11990E2980F983050
:1022B00050F4877091E001C0990F8A95EAF7892F51
:1022C0000E94AB19F0CF9BE5980F933020F490E07B
:1022D00080E00C94C00F98E5980F973120F490E0BF
:1022E00080E00C94D60F803F20F00E94F8070C94F9
:1022F000710808951F93CF93DF93182FEB010E946D
:10230000FD10209731F4812FDF91CF911F910C9414
:102310004B118FE99FE00197F1F700C00000219772
:10232000F0CF70E060E0893311F460E570E00C9468
:102330007A11882321F00E94A5190C94F1190895AF
:10234000882321F00E94AB190C94F1190895BF92D3
:10235000CF92DF92EF92FF920F931F93CF93DF9371
:102360006C01D62FC72FFC011281058102950F70D9
:102370000E949B19E82E8823A1F0E12E112389F0F9
:102380008C2F807F803429F080E28D0FE12C883003
:1023900040F082E00E943C1A0E949B1991E0E82ED6
:1023A000E926BC2EB2949FE0B922EB2DF0E0E75273
:1023B000FB4D0C9461240C2F0F70C07F11F002951F
:1023C000007F1123A9F0002359F080E28D0F88309F
:1023D00010F0D11109C0802F0E94A5190E94F11997
:1023E0008D2F0E94FD1014C0802F0E94B819F6CFC7
:1023F0008D2F0E944B11002359F080E28D0F883001
:1024000010F0D1112CC0802F0E94AB190E94F1193D
:102410002B2D2850330B2430310520F40E947F0FE0
:102420000E947204EE2009F49EC10E94971980FD5B
:102430009AC1F60112820E9491190E941A18C601CF
:102440000E94D4130E949119DF91CF911F910F9197
:10245000FF90EF90DF90CF90BF900C943B18802FAF
:102460000E94BE19D3CFFC2FFF70FF2EC07FC03259
:1024700019F0F29480EFF822DD2369F0D13049F1B0
:10248000112391F1002351F1F601858180FFA8CF3E
:102490008F70858323C0112381F0011106C00E9433
:1024A000D8198F290E949911B3CF0130C1F70E942A
:1024B000D8198F290E94DE19ABCF011106C00E94E6
:1024C000E7198F2D0E94A011A3CF013009F4A0CFEE
:1024D000F6CF112329F0063008F09ACF8F2DE2CFE6
:1024E000053008F095CFEDCF002359F3D93349F4E7
:1024F000FFEF27EE33E0F15020403040E1F700C01D
:1025000000008D2F0E944B1183CF8C2F86958695CE
:10251000837069F0813009F07BCF8D2F9C2F9370F1
:10252000111102C090E080E00E94D60F71CF8D2F74
:102530009C2F9370111102C090E080E00E94C00FA8
:1025400067CF8D2F112329F00E949E070E947108EA
:102550005FCF0E94F807FACF8C2F837009F041C03B
:10256000111156CF4D2F429546954770440F440F99
:102570000D2F0F7010E030E020E0042E04C0000F9B
:10258000111F221F331F0A94D2F760E070E0CB01C5
:10259000D4FF0FC06FE070E080E090E004C0660FF1
:1025A000771F881F991F4A95D2F76095709580957F
:1025B0009095C695C695C370602B712B822B932B7B
:1025C000C23049F058F4C13019F00E94CC1720CF26
:1025D0000E94BA171DCF0E94DE171ACF0E94B817AB
:1025E00017CF8695112311F08C2F8170882309F461
:1025F0000FCF4D2F429546954770440F440F0D2F36
:102600000F7010E030E020E0042E04C0000F111F16
:10261000221F331F0A94D2F760E070E0CB01D4FF91
:102620000FC06FE070E080E090E004C0660F771F9D
:10263000881F991F4A95D2F760957095809590955F
:10264000C695C695C370602B712B822B932BC2301D
:1026500049F058F4C13019F00E949118D9CE0E9467
:102660007F18D6CE0E94A318D3CE0E94F417D0CEE6
:10267000CF70112329F08C2F0E941A188D2F12CFA2
:102680008D2F0E94A0118C2F0E943B18C1CED23FEB
:1026900089F160F4D03FC9F0D13F29F1112309F449
:1026A00042C001119DCE8C2F8F7121C0D33F39F1D3
:1026B000D43FA1F7112369F1CF718C2F0E941A1812
:1026C00063E08C2F0E94271AA3CE112341F005301E
:1026D00008F09ECE8C2F8F710E945E1899CE063026
:1026E00008F096CEF7CF8C2F8F71112369F20E94DC
:1026F0001A188ECE8C2F8F711123C9F3C5CF1123D9
:1027000029F08C2F8F710E94051882CE0E9400182C
:102710007FCE81E00E943C1A023008F479CE82E03C
:102720000E943C1A75CE002359F0D93309F0E9CE46
:102730008FEF97EEE3E081509040E040E1F7DFCE8D
:102740008C2F8F71A1CF4C2F4F706D2FC6010E941F
:102750007A040E9430175CCE4C2F4F706D2FC6014B
:102760000E947D0455CEDF91CF911F910F91FF9074
:10277000EF90DF90CF90BF9008950F931F93CF936A
:10278000DF93EC01688179818A810E9459198C015B
:102790000E94B5180E94B717B801CE01DF91CF9102
:1027A0001F910F910C94A711CF93DF93EC018B81B4
:1027B0009C81892B29F08881998189238F3F59F445
:1027C000DF91CF910895CE010E94BD13CE01DF911C
:1027D000CF910C94B902CE010E9448038111F3CF2E
:1027E0000E949B19882361F38A81882349F382E040
:1027F000DF91CF910C943C1A882321F00E94B819E4
:102800000C94F1190895882321F00E94BE190C94AC
:10281000F119089590E080E00E94C00F90E080E000
:102820000E94D60F0E94C5190E94D5190E94F11965
:102830000E9498090C9471080E948B190C940A1438
:102840000E94B5190C941C14E92FE295EF70E25028
:10285000EE3070F4F0E0E751FB4D0C946124803FC2
:1028600019F020F4883E20F481E00895843FE1F3DC
:1028700080E00895883EC0F3813FD1F7F5CF93FB08
:10288000882780F908950E944F190C942414CF933F
:10289000DF9300D000D00F92CDB7DEB70F900F902E
:1028A0000F900F900F90DF91CF910895CF93DF930A
:1028B00000D000D000D0CDB7DEB726960FB6F89482
:1028C000DEBF0FBECDBFDF91CF9108951F93CF9391
:1028D000DF93C091CA0116E08091CB018C1304C034
:1028E000DF91CF911F910895D0E01C9FF0011D9FB3
:1028F000F00D1124E453FE4F4081518162817381B8
:10290000848195810E9456142196C770E5CF40912D
:10291000FC015091FD016091FE017091FF018091D9
:102920000002909101020C9456141F93CF93DF93F1
:1029300080910102807FA9F48091FE01882389F0B3
:102940008091CA01C091CB016091FC017091FD01A1
:10295000A091FF01B0910002D62FD72316E0C81333
:1029600004C0DF91CF911F91089590E0109711F06E
:10297000DF3F19F401968770F2CF189F9001199FDD
:10298000300D1124F901E453FE4F41814713F2CF7A
:1029900040814613EFCF42814111ECCF43815481F6
:1029A0004A1B5B0B483C510528F7809101028F7050
:1029B000806180930102F901EF52FE4F80818F7098
:1029C000806180838CEF91E00E94D413DF91CF91DE
:1029D0001F910C946614AF92BF92CF92DF92EF9248
:1029E000FF920F931F93CF93DF93CDB7DEB761971D
:1029F0000FB6F894DEBF0FBECDBF8C0185E0F801A5
:102A0000DE011D9601900D928A95E1F7F801408153
:102A10005181E2808CEFC82E81E0D82E6091FF01B9
:102A2000709100026115710509F461C19091FC017A
:102A30002091FD01892F82238F3F09F458C1A38083
:102A4000B480F090FE01F501E61BF70BFF2009F4BE
:102A5000FCC080910102382F307FE83CF10508F07E
:102A6000B2C0311179C0FE2C251323C0941321C0AC
:102A7000E1101FC08F708061809301020E94871453
:102A8000C6010E94D41380910102F80185838F2D25
:102A900061960FB6F894DEBF0FBECDBFDF91CF9128
:102AA0001F910F91FF90EF90DF90CF90BF90AF906C
:102AB0000895AB2829F0842F85238F3F09F033C177
:102AC00080E0F82FF170DF2E80FF3CC08091CA01BA
:102AD0002091CB0136E0821315C04D875E878D852E
:102AE0009E850E944F19292F22952F702230F0F0D9
:102AF000243018F59F70F1F0F8019581907FD1F4A2
:102B0000D12C1EC090E0389FF001399FF00D1124A8
:102B1000E453FE4F6181651306C06081641303C0F6
:102B200062816E110FC001968770D5CF9F7011F032
:102B3000882331F3805E883018F3C8010E94D413D3
:102B4000FD2CA5CFEE2009F4A2CF80910102816077
:102B500080930102F12C9BCF251306C0941304C06F
:102B6000F801EE2009F48DC04D875E878D859E8526
:102B70000E944314882319F1EE2009F1809101028B
:102B8000803270F02091FC013091FD0138872F8355
:102B90001986BB86AA868C87CE0107960E94D4131D
:102BA00086E0F801ACEFB1E001900D928A95E1F773
:102BB0000E9495140E948714FF24F39468CFC801E3
:102BC0000E94D413F9CF311113C07A2DB98AA88A83
:102BD0006E2D89890E9447148CEF91E00E94D413D6
:102BE00086E0F60111928A95E9F70E948714B2CF28
:102BF00025130FC094130DC0E1100BC0F80185839D
:102C0000C8010E94D41386E0F60111928A95E9F773
:102C10003ECF4D875E878D859E850E944314882315
:102C200071F2EE2061F280910102803208F4B8CF97
:102C30002091FC013091FD013A8329831B82BD82E2
:102C4000AC828E83CE010196A9CFE83CF10508F055
:102C500041C0FE2CEE2009F4B2CF25132AC09413F4
:102C600028C08091010280FD1BC0982F907FC1F089
:102C7000F8018583903F31F0982F907F905F8F709F
:102C8000892B8583C8010E94D41386E0F801ACEF3C
:102C9000B1E001900D928A95E1F70E948714F7CE7A
:102CA00086E0F801ACEFB1E001900D928A95E1F772
:102CB000EECE4D875E878D859E850E9443148111DF
:102CC0006FCF80910102816080930102C8010E9450
:102CD000D413DDCE7A2DB98AA88A6E2D89890E94F7
:102CE000471486E0F60111928A95E9F7D6CFEE20D7
:102CF00009F465CF4D875E878D859E850E944314BC
:102D0000F82E882309F45BCF86E0F801ACEFB1E040
:102D100001900D928A95E1F78CEF91E00E94F810F6
:102D20000E949514BACF81E08E25CBCE1F93CF930E
:102D3000DF93CDB7DEB72C970FB6F894DEBF0FBE8A
:102D4000CDBF4F83588769877A878B879C87CE0151
:102D500007960E94EB14882369F08A859B85892B4E
:102D600039F04F815885842F85238F3F09F071C03A
:102D700016E05FC086E0FE013796DE0111960190F5
:102D80000D928A95E1F78A859B85892B89F38F813E
:102D9000988589238F3F61F32091CB0130E0C901F1
:102DA0000196877099274091CA014817190671F456
:102DB0000E9420141092CB011092CA0186E0ECEF21
:102DC000F1E0DF011D928A95E9F7D2CF96E0929F5C
:102DD000D001939FB00D1124A453BE4FFE01319634
:102DE00001900D929A95E1F78093CB010E946614B1
:102DF000BFCF819FC001112484539E4F0E94EB14CA
:102E00008823E9F0E091CA011E9FF0011124E453E8
:102E1000FE4F4081518162817381848195810E943E
:102E200056148091CA0190E001968770992780938B
:102E3000CA018091CA019091CB018913DACF2C96F7
:102E40000FB6F894DEBF0FBECDBFDF91CF911F91BB
:102E5000089569857A858B859C850E94561488CF54
:102E6000EF92FF920F931F93CF93DF938C01892BE7
:102E700081F0F12CEE24E394E8012196F80184918D
:102E8000843770F4843008F05FC08130B1F0823054
:102E9000A1F1DF91CF911F910F91FF90EF900895D5
:102EA000853709F44CC008F43DC09CE7980F903773
:102EB00080F78F770E944B1149C00E5F1F4FFE01B4
:102EC000849190E2980F983060F48770FE2D01C0D5
:102ED000FF0F8A95EAF78F2F0E94C8190E94F119F7
:102EE00002C00E94FD108F2D815030F2EFE9FFE00B
:102EF0003197F1F700C00000F7CF0E5F1F4FFE01C2
:102F0000849190E2980F983050F48770FE2D01C0A4
:102F1000FF0F8A95EAF78F2F0E94CE19DFCF0E940C
:102F20004B11E1CF0E5F1F4FFE01C491C150D8F28B
:102F30008FE99FE00197F1F700C00000F7CF0E5F27
:102F40001F4FFE01F490CFCF0E94FD108E01CBCF1A
:102F500008950C94A8170E94A91760930B02709310
:102F60000C0280930D0290930E020C940A140895A3
:102F70000C94AB170F931F9300910B0210910C024E
:102F800020910D0230910E02602B712B822B932B1E
:102F90001F910F910C94AB170F931F9300910B028D
:102FA00010910C0220910D0230910E0260237123CA
:102FB000822393231F910F910C94AB170F931F93B0
:102FC00000910B0210910C0220910D0230910E0223
:102FD00060277127822793271F910F910C94AB17BD
:102FE0000C94A8170C94F0170E94F2176093070234
:102FF000709308028093090290930A020C940A14B9
:1030000060E070E0CB010C94F4170F931F9341E044
:1030100050E060E070E08A019B0104C0000F111FC6
:10302000221F331F8A95D2F7C901B8011F910F9152
:103030000C94F4170F931F9341E050E060E070E0B0
:1030400004C0440F551F661F771F8A95D2F78091E1
:10305000070290910802A0910902B0910A028A0128
:103060009B01082B192B2A2B3B2BC901B8011F915F
:103070000F910C94F4170F931F9341E050E060E020
:1030800070E004C0440F551F661F771F8A95D2F762
:10309000CB01BA01609570958095909500910702DB
:1030A000109108022091090230910A0260237123D5
:1030B000822393231F910F910C94F4170F931F9366
:1030C00041E050E060E070E004C0440F551F661F0F
:1030D000771F8A95D2F78091070290910802A091FC
:1030E0000902B0910A028A019B01082719272A27A1
:1030F0003B27C901B8011F910F910C94F4170F934E
:103100001F9300910702109108022091090230914B
:103110000A02602B712B822B932B1F910F910C9421
:10312000F4170F931F93009107021091080220914A
:10313000090230910A0260237123822393231F9195
:103140000F910C94F4170F931F93009107021091A5
:1031500008022091090230910A0260277127822714
:1031600093271F910F910C94F4170895E92FEE0FF8
:10317000EE0F9E0F890F982F977041E001C0440F0A
:103180009A95EAF786958695869595E0899FF00150
:103190001124EE5FFD4F30E020E070E05191DF013F
:1031A0001197CB01022E02C0969587950A94E2F7FB
:1031B000817081958527842385278C932F5F3F4FCE
:1031C0002530310559F70895E92FEE0FEE0F9E0FC8
:1031D000890F982F977086958695869525E0829F12
:1031E000F0011124EE5FFD4F50E040E080E02191BE
:1031F00030E0092E02C0369527950A94E2F7217037
:103200003327042E01C0220F0A94EAF7822B4F5F66
:103210005F4F4530510559F70895BF92CF92DF9225
:10322000EF92FF920F931F93CF93DF938C01C09087
:103230000702D0900802E0900902F0900A02809103
:103240000B0290910C02A0910D02B0910E02C82ABF
:10325000D92AEA2AFB2ACFE1D0E0BC2ED701C60149
:103260000C2E04C0B695A795979587950A94D2F72A
:1032700080FD0EC0219788F7B12C8B2DDF91CF9167
:103280001F910F91FF90EF90DF90CF90BF90089526
:10329000B8018C2F0E948604019761F3EECFCF9383
:1032A000DF93EC010E940D19BE01DF91CF910C94C8
:1032B00086041F93CF93DF93EB019091C90199236B
:1032C00031F0CB01DF91CF911F910C944F198823DE
:1032D00079F0CB010E940D19182F682FCE010E94A2
:1032E000B618BE01812FDF91CF911F910C948604F7
:1032F000CB010E94E418182FF4CF682F80910801A9
:10330000909109010C949B1B682F8091080190916A
:1033100009010C94A61B80910801909109010C945D
:10332000B11B80910F0285958595859508958091B3
:103330000F028770089590910F02977081E009F451
:1033400080E0089580913302089590913302892B93
:10335000809333020895809590913302982390933F
:103360003302089580933302089510923302089532
:1033700090913202892B809332020895809590912A
:1033800032029823909332020895109232020895E7
:1033900090913102892B809331020895809590910C
:1033A00031029823909331020895109231020895CA
:1033B00080911002089508950C94DB1990911002E9
:1033C000981721F0809310020C94DC1908958091D5
:1033D0001002882329F01092100280E00C94DC196E
:1033E0000895E0910801F0910901809133028083F2
:1033F000E0910801F0910901808190913202892BBE
:103400008083E0910801F09109018081909131025F
:10341000892B808390911002992381F0E09108011B
:10342000F09109018081892B80838091080190911E
:1034300009010E94071B81110E94E7198091080170
:10344000909109010C94980F08950C94241A98E017
:10345000899F90011124622B60930F020E941A1819
:1034600080910F028595859585950C94251A10926B
:103470000F0280E00C94251A90910F028095892309
:1034800080930F02282F277071F4282F082E000C2C
:10349000330B9217130639F08595859585950E9413
:1034A0003B180C94371A089580E008956FEF7FEF72
:1034B00090E080E00C94AE2490E080E00E948A24AA
:1034C00021E08B3E9E4F09F020E0822F089582E09C
:1034D00090E00C94822483E090E00C948224CF93BB
:1034E00084E090E00E948224C82F81E290E00E9454
:1034F0008224982F8C2FCF910895CF93C92F682FB6
:1035000084E090E00E9490246C2F81E290E0CF91C3
:103510000C949024AB01BC018FE090E00C94A224A9
:10352000AB01BC0183E190E00C94A22460E070E068
:10353000CB010C94901A60E070E0CB010E948A1AD3
:103540000C94961A6BEE7EEF90E080E00E94AE2421
:1035500060E082E090E00E94902460E083E090E0F0
:103560000E94902410920B0210920C0210920D02F5
:1035700010920E0260E084E090E00E94902460E0EF
:1035800081E290E00E94902460E085E090E00E945B
:10359000902460E086E090E00E9490246FEF87E046
:1035A00090E00E94902440E050E0BA0188E090E072
:1035B0000E94A22460E08DE090E00E94902440E010
:1035C00050E0BA0188E190E00E94A22460E087E127
:1035D00090E00E94902440E050E0BA018CE190E03D
:1035E0000E94A22460E080E290E00E94902440E0EB
:1035F00050E0BA0188E190E00E94A2240C949B1A4A
:103600000C94A21A682F8EE090E00C949024FC0198
:10361000329680911401882321F0809164029EE10A
:1036200087FF96E080E0915008F4089521912223CD
:10363000D1F38F5FF8CF662301F12091140122238B
:10364000F1F02091640227FF1AC0462F4695469557
:1036500046954E3190F4677021E030E002C0220FB1
:10366000331F6A95E2F7840F911DFC01828190E07F
:103670002823392381E0232B69F480E00895FC019D
:10368000329608962191261721F0E817F907D1F70D
:10369000F4CF81E008959C01FC0132969FEF80E019
:1036A0004191461751F09F3F19F4411101C0982FE5
:1036B0008F5F8630A9F79F3F09F40895290F311DC8
:1036C00097FD3A95F90162830895FC0132960896B8
:1036D0002191261303C0DF0111971C92E817F90707
:1036E000B9F70895E62FE695E695E695EE3168F48C
:1036F000E80FF92FF11D677021E030E001C0220FC3
:103700006A95EAF78281822B82830895E62FE695F7
:10371000E695E695EE3170F4E80FF92FF11D67702C
:1037200021E030E001C0220F6A95EAF720958281FE
:1037300028232283089520911401222329F0209127
:10374000640227FD0C94721B0C944B1B20911401F6
:10375000222329F02091640227FD0C94861B0C94EF
:10376000651BFC01329680911401882351F08091F1
:10377000640287FF06C08EE1DF011D928A95E9F79A
:10378000089586E0F9CF089508950C94C41B8091A4
:103790006A02843049F10E94C51B80E00E947204D5
:1037A0001092350288E190E020E40FB6F894A895D5
:1037B000809360000FBE2093600083B7817F846098
:1037C00083BF83B7816083BF7894889583B78E7FEA
:1037D00083BF0FB6F894A8958091600088618093AC
:1037E0006000109260000FBE089508950E94C31BF0
:1037F0000E94A8060E94F51B80E00E947B0691E0D3
:10380000811101C090E0892F089508950C94051C42
:103810000E9420140E947F0F0E9472040C94061CC8
:103820001F921FB61F9211248F939F93AF93BF9344
:1038300080913502811113C08091600290916102E4
:10384000A0916202B09163024196A11DB11D8093C7
:10385000600290936102A0936202B0936302BF91F1
:10386000AF919F918F911F901FBE1F90189582E07E
:1038700084BD93E095BD9AEF97BD80936E00089547
:103880002FB7F8948091600290916102A09162023A
:10389000B09163022FBF08952FB7F8946091600232
:1038A0007091610280916202909163022FBF08952E
:1038B0009C014FB7F8948091600290916102A091B1
:1038C0006202B09163024FBF821B930B08957894FC
:1038D0001F921FB61F9211248F939F93AF93BF9394
:1038E0008091600290916102A0916202B0916302A6
:1038F0000196A11DB11D8093600290936102A09377
:103900006202B0936302BF91AF919F918F911F901C
:103910001FBE1F90189587E797E790930108809343
:10392000000888E19AE00FB6F894A89580936000AB
:103930000FBE90936000FFCF90939D0180939C01F8
:1039400008950C942F0A0E94A8062FEF86E791E0B5
:10395000215080409040E1F700C000000E94A8067E
:1039600080E00E947B0680FF04C00E94A11C0C9492
:103970008B1C08950E945C1A811102C00E94001BDA
:103980000E94671A809334020E946F1A9093650216
:10399000809364020E946B1A682F70E090E080E0D0
:1039A0000E94B81760910702709108028091090285
:1039B00090910A020C94F217809156020895CF93C9
:1039C000DF9300D00F92CDB7DEB790916A029430AA
:1039D00011F589837B836A839093E9008FEF90913F
:1039E000E800815095FD06C095ED9A95F1F700002D
:1039F0008111F5CF8091E80085FF0DC050E040E0D7
:103A000063E070E0CE0101960E946D1F8091E80096
:103A10008E778093E8000F900F900F90DF91CF91F9
:103A20000895BC0184E00C94DF1CBC0183E00C947D
:103A3000DF1C9C0184E08093E9009FEF8091E80007
:103A4000915085FD06C085ED8A95F1F70000911132
:103A5000F5CF8091E80085FF0CC050E040E066E0C3
:103A600070E0C9010E946D1F8091E8008E778093FD
:103A7000E8000895CF93DF93EC018091140188232F
:103A8000B1F18091640287FF32C060E284E08093EC
:103A9000E9008FEF9091E800815095FD06C095ED0B
:103AA0009A95F1F700008111F5CF8091E80085FF2C
:103AB0001BC08091140170E050E040E0811104C00F
:103AC00050E040E068E070E0CE010E946D1F809100
:103AD000E8008E778093E80080E2FE01A6E3B2E082
:103AE00001900D928A95E1F7DF91CF91089568E0FA
:103AF00081E0CDCFCF93FC01603221F580916A0245
:103B0000843001F5C091E900CF702091EC00922F34
:103B1000917020FD90E8C92B82E08093E9008091AC
:103B2000E80080FF0CC050E040E060E270E0CF01B0
:103B30000E946D1F8091E8008E778093E800CF701F
:103B4000C093E900CF91089580916902811109C065
:103B50000E944C210E94A9218091E2008460809300
:103B6000E200089510926902089508950895089555
:103B700042E061EC81E00E94C82042E261EC84E016
:103B80000E94C82042E261EC82E00E94C82042E22A
:103B900060EC83E00C94C82080916C02833009F4BF
:103BA00061C030F48130D1F1823009F49DC00895B4
:103BB0008A3009F489C08B3009F46FC0893009F06C
:103BC00050C080916B02813209F04BC080916F022E
:103BD00090917002009719F0029709F042C080910D
:103BE000E800877F8093E8008091E80082FF35C07D
:103BF0009091F3008091F200029729F48091F100F6
:103C00008B7F813021F48091F10080935602809166
:103C1000E8008B778093E8000C94FC2080916B0285
:103C2000813AF9F48091E800877F8093E8008091E1
:103C30006F0290917002892B61F460E286E392E05A
:103C400070E00E940B208091E8008B778093E80061
:103C5000089560E090E080E0F3CF80916A028111E6
:103C6000C3CF089580916B02813AD9F780916F029A
:103C700090917002892BA9F78091E800877F80934B
:103C8000E8008091E80080FFFCCF809114018093D0
:103C9000F1008091E8008E77BDCF80916B02813278
:103CA00001F780916F0290917002892BD1F680917B
:103CB000E800877F8093E8000E94FC2080916D02DD
:103CC000809314010C94201480916B02813249F688
:103CD0008091E800877F8093E8000E94FC2080911B
:103CE0006E0280935702089580916B02813A09F029
:103CF000B8CF8091E800877F8093E8008091E8004A
:103D000080FFFCCF80915702C2CFCDB7DEB7A0971E
:103D10000FB6F894DEBF0FBECDBF84B7877F84BFD8
:103D20000FB6F894A8958091600088618093600038
:103D3000109260000FBE80E890E00FB6F894809378
:103D40006100909361000FBE0E9420100E944C21E0
:103D50000E94A9218091E20084608093E20078941F
:103D60000E9432240E9430108AE091E00E947A0F73
:103D700013E080916A028530C9F00E943C10809166
:103D80006A028430D1F00E942E100E942F10F1CFD1
:103D90000E94C71B80916802882341F00E94F61B95
:103DA000882321F00E94571F0E94201480916A02EC
:103DB000853071F30E94081CE0CF1093E9008091D8
:103DC000E80082FFE0CF8091E80090E085FF09C025
:103DD00050E040E060E270E0CE0101960E94BC1F1E
:103DE00091E08091E8008B778093E800992359F265
:103DF00060E2CE0101960E94910AC5CF0C94001F8B
:103E0000292F33272330310521F168F42130310582
:103E100009F443C02230310509F444C090E080E049
:103E200030E020E026C02132310551F12232310547
:103E3000A9F76330710590F7FB01EE0FFF1FE15703
:103E4000FE4F2081318164577E4FFB01808190E0DD
:103E500010C099278130910581F0009729F00297D1
:103E6000E9F6E4E8F1E002C0E4EEF1E0849190E0EC
:103E70009F01FA01318320830895EEEBF1E0F6CF44
:103E80006330710558F6660F771FFB01EB56FE4F46
:103E90002081318189E090E0ECCF82E190E023E461
:103EA00032E0E7CF8BE590E028EE31E0E2CF80E131
:103EB00089BD82E189BD09B400FEFDCF8091D800A3
:103EC0008F7D8093D8008091E00082608093E00035
:103ED0008091E00081FDFCCF0895AF92BF92CF9218
:103EE000DF92FF920F931F93CF93DF936C01EB014F
:103EF0008A010E941B21F82E811123C00115110592
:103F000039F0F80180819181C81BD90BC80ED91EE8
:103F1000B12CA12C2097A9F08091E80085FD22C04A
:103F20008091E8008E778093E80001151105A1F0DB
:103F3000F80180819181A80EB91EB182A08285E02E
:103F4000F82E8F2DDF91CF911F910F91FF90DF9071
:103F5000CF90BF90AF9008950E941B218823D1F28B
:103F6000F82EEFCFF60181916F018093F100219738
:103F7000FFEFAF1ABF0ACECFAF92BF92CF92DF92C0
:103F8000FF920F931F93CF93DF936C01EB018A0194
:103F90000E941B21F82E811123C00115110539F053
:103FA000F80180819181C81BD90BC80ED91EB12C94
:103FB000A12C2097A9F08091E80085FD22C0809176
:103FC000E8008B778093E80001151105A1F0F80156
:103FD00080819181A80EB91EB182A08285E0F82E61
:103FE0008F2DDF91CF911F910F91FF90DF90CF9098
:103FF000BF90AF9008950E941B218823D1F2F82E24
:10400000EFCF8091F100F60181936F012197FFEFCF
:10401000AF1ABF0ACECFFC0180917102909172025B
:1040200086179707A0F06115710529F49091E800B3
:104030009E779093E80090E06115710551F491111D
:1040400008C08091E80082FF34C080E00895BC0180
:10405000F2CF80916A028823C1F18530C1F180914D
:10406000E80083FD30C08091E80082FDEACF8091B6
:10407000E80080FFE1CF8091F3002091F200382F1B
:104080006115710519F02830310558F091E028309C
:10409000310509F090E02091E8002E772093E800A8
:1040A000CBCF81918093F100615071092F5F3F4F19
:1040B000E7CF80916A02882341F0853041F08091FA
:1040C000E80083FFBECF81E0089582E0089583E099
:1040D0000895FC01809171029091720286179707F2
:1040E000A0F06115710529F48091E8008E77809326
:1040F000E80090E06115710551F4911108C08091BC
:10410000E80082FF35C080E00895BC01F2CF8091C5
:104110006A028823C9F18530C9F18091E80083FDE6
:1041200031C08091E80082FDEACF8091E80080FFF5
:10413000E1CF8091F3002091F200382F61157105D5
:1041400019F02830310558F091E02830310509F098
:1041500090E08091E8008E778093E800CBCF849147
:104160008093F1003196615071092F5F3F4FE6CF88
:1041700080916A02882341F0853041F08091E80007
:1041800083FFBDCF81E0089582E0089583E0089524
:10419000982F973028F08F708093E90081E0089580
:1041A0009093E900242F762F50E0981731F070910A
:1041B000EC002091ED005091F00021FD02C09F5FC6
:1041C000E8CF3091EB003E7F3093EB003091ED0073
:1041D0003D7F3093ED003091EB0031603093EB0088
:1041E0007093EC002093ED005093F0002091EE00CE
:1041F00027FDE5CF80E0089580916B0287FF13C013
:104200008091E80082FF06C08091E8008B77809360
:10421000E80004C080916A028111F2CF0895809174
:104220006A028823D9F38091E80080FFF8CF80915B
:10423000E8008E77ECCF2091E4003091E50095E620
:10424000A9012091EC00822F817020FF06C080918F
:10425000E80080FF06C080E008952091E80022FD7C
:104260001AC080916A02882389F0853089F0809194
:10427000EB0085FD0FC02091E4003091E50042176E
:104280005307F9F29150E1F684E0089582E0089531
:1042900083E0089581E008950E94BA210E94C2211E
:1042A000E0EEF0E0808181608083E8EDF0E08081E5
:1042B0008F77808319BCA7EDB0E08C918E7F8C93B3
:1042C00080818F7E80831092690208950F931F93DF
:1042D000CF93DF930E94BA210E94C221C8EDD0E0A3
:1042E00088818F77888388818068888388818F7DA3
:1042F000888319BC10926A021092660210926802BA
:104300001092670200EE10E0F80180818B7F8083BD
:1043100088818160888342E060E080E00E94C8205C
:10432000E1EEF0E080818E7F8083E2EEF0E080813C
:1043300081608083808188608083F80180818E7FA6
:104340008083888180618883DF91CF911F910F9155
:104350000895E8EDF0E080818F7E8083E7EDF0E066
:1043600080818160808384E082BF81E080936902E4
:104370000C946621E8EDF0E080818E7F80831092BE
:10438000E20008951092DA001092E10008951F9261
:104390000F920FB60F9211242F933F934F935F9379
:1043A0006F937F938F939F93AF93BF93EF93FF93FD
:1043B0008091E10082FF0BC08091E20082FF07C084
:1043C0008091E1008B7F8093E1000E9431248091F5
:1043D000DA0080FF19C08091D80080FF15C080915D
:1043E000DA008E7F8093DA008091D90080FF96C03A
:1043F00080E189BD82E189BD09B400FEFDCF81E085
:1044000080936A020E94A41D8091E10080FF19C080
:104410008091E20080FF15C08091E2008E7F809342
:10442000E2008091E20080618093E2008091D800F8
:1044300080628093D80019BC85E080936A020E9454
:10444000B61D8091E10084FF2BC08091E20084FFC3
:1044500027C080E189BD82E189BD89B5982F91701F
:1044600080FFFBCF8091D8008F7D8093D800809112
:10447000E1008F7E8093E1008091E2008F7E809347
:10448000E2008091E20081608093E2008091660208
:10449000882309F449C084E080936A020E94B71D12
:1044A0008091E10083FF29C08091E20083FF25C055
:1044B0008091E100877F8093E10082E080936A022F
:1044C000109266028091E1008E7F8093E1008091DE
:1044D000E2008E7F8093E2008091E2008061809311
:1044E000E20042E060E080E00E94C8208091F0009D
:1044F00088608093F0000E94B51DFF91EF91BF91FD
:10450000AF919F918F917F916F915F914F913F916B
:104510002F910F900FBE0F901F90189519BC1092FD
:104520006A020E94B21D70CF8091E30087FD93E084
:1045300090936A02B3CF1F920F920FB60F9211247D
:104540002F933F934F935F936F937F938F939F939B
:10455000AF93BF93CF93DF93EF93FF93D091E90095
:10456000DF708091EC00C82FC17080FDC0E8109210
:10457000E9008091F000877F8093F00078940E949A
:10458000DF221092E9008091F00088608093F000B3
:10459000CD2BCF70C093E900FF91EF91DF91CF91C8
:1045A000BF91AF919F918F917F916F915F914F914B
:1045B0003F912F910F900FBE0F901F9018951F9352
:1045C000CF93DF93CDB7DEB7AA970FB6F894DEBFCF
:1045D0000FBECDBF8BE692E02091F100FC0121934C
:1045E000CF01F2E083379F07B9F70E94CC1D80917D
:1045F000E80083FF1EC180916B0290916C029A309B
:1046000008F017C1E92FF0E0E950FB4D0C9461244C
:10461000803899F0823809F00CC180916F028F7058
:10462000873008F006C18093E9008091EB0085FB9C
:10463000882780F91092E90006C080916702909166
:104640006802911182609091E800977F9093E80052
:104650008093F1001092F1008091E8008E77E5C020
:10466000882309F4D3C0823009F0E3C080916D0241
:104670008111D6C080916F028F702FEF280F2630E6
:1046800008F0D7C08093E9002091EB0020FFC8C05C
:10469000933031F48091EB0080628093EB00C0C0D6
:1046A0009091EB0090619093EB0021E030E001C02D
:1046B000220F8A95EAF72093EA001092EA0080918F
:1046C000EB008860EACF8111B4C010916D021F77B2
:1046D0008091E3008078812B8093E3008091E80053
:1046E000877F8093E8000E94FC208091E80080FF93
:1046F000FCCF8091E30080688093E30082E0111199
:1047000083E080936A0295C08058823008F091C09F
:1047100080916D0290916E028C3D23E09207A1F58D
:1047200083E08A838AE289834FB7F894DE01139687
:1047300020E03EE051E2E32FF0E050935700E49197
:1047400020FF03C0E295EF703F5FEF708E2F90E087
:10475000EA30C0F0C7968D939D932F5F243159F7AF
:104760004FBF8091E800877F8093E8006AE270E0A5
:10477000CE0101960E940B208091E8008B778093F8
:10478000E80057C0C096E7CF60916F027091700249
:10479000AE014F5F5F4F0E94FE1EBC01892B09F4E2
:1047A00048C09091E800977F9093E80089819A81B2
:1047B0000E946920E1CF8038E1F58091E800877F91
:1047C0008093E800809166028093F10045CF8111CB
:1047D00030C090916D02923060F58091E800877F43
:1047E0008093E800909366020E94FC20809166020C
:1047F000882311F084E005C08091E30087FDFACFA3
:1048000081E080936A020E94B81D13C080916D02FE
:10481000813079F481E0933009F080E08093680280
:104820001092E9008091E800877F8093E8000E9461
:10483000FC208091E80083FF0AC08091E800877F18
:104840008093E8008091EB0080628093EB00AA9651
:104850000FB6F894DEBF0FBECDBFDF91CF911F9191
:1048600008950895CF9380916A028823A1F0C091A2
:10487000E900CF709091EC00892F817090FD80E865
:10488000C82B1092E9008091E80083FD0E94DF228E
:10489000CF70C093E900CF91089597FB072E16F4CF
:1048A000009407D077FD09D00E946E2407FC05D044
:1048B0003EF4909581959F4F0895709561957F4F37
:1048C0000895EE0FFF1F0590F491E02D09946927DC
:1048D000962769277827872778270895AA1BBB1B67
:1048E00051E107C0AA1FBB1FA617B70710F0A61BF0
:1048F000B70B881F991F5A95A9F780959095BC0111
:10490000CD010895F999FECF92BD81BDF89A9927FE
:1049100080B50895A8E1B0E042E050E00C94B624E0
:10492000262FF999FECF92BD81BDF89A019700B468
:10493000021639F01FBA20BD0FB6F894FA9AF99A08
:104940000FBE08950396272F0E9491240E94902461
:10495000252F0E949124242F0C9491240196272F17
:104960000E9491240C949024DC01CB01FC01F99964
:10497000FECF06C0F2BDE1BDF89A319600B40D92AB
:1049800041505040B8F70895F894FFCFA00AA40A08
:10499000C60AD20ADD0AE80AEB0AEB0AEB0AEB0ABE
:1049A000EB0AEE0AF20AFA0A070B140B170B1A0BA2
:1049B000270BDB11DB11331233128512A1120812FF
:1049C0000812AC12381347134713A3130812081226
:1049D000AC132F142F14381438143A143814381414
:1049E00038142F142F143F14381438143F1408238C
:1049F0003023192430231924632384231924DB232F
:024A0000E723AA
:104A02002808641E140A321E1102DC1C3A1D191DEC
:104A1200151D111D01E200E900EA00B500B600B75C
:104A220000CD008301CC008A01920194012102236E
:104A32000224022502260227022A02B300B4006FD2
:104A4200007000818283673796F5F700FF0100014D
:104A52000000FFFF0000010001FF00E200E900EAA0
:104A620000B500B600B700CD008301CC008A0192E8
:104A72000194012102230224022502260227022A8E
:104A820002B300B4006F0070008182834022B62D11
:0C4A92000355027702FA01130233020000
:00000001FF
