:100000000C9411030C9458030C9458030C9458034B
:100010000C9458030C9458030C9458030C945803F4
:100020000C9458030C9458030C9451240C942525DB
:100030000C94C31E0C9458030C9458030C9458034E
:100040000C9458030C9458030C9458030C945803C4
:100050000C9458030C941A1F0C9458030C945803D6
:100060000C9458030C9458030C9458030C945803A4
:100070000C9458030C9458030C9458030C94580394
:100080000C9458030C9458030C9458030C94580384
:100090000C9458030C945803290000003A003B00CC
:1000A0003C003D003E003F00400041004200430054
:1000B0004400450046004700480035001E001F0070
:1000C0002000210022002300240025002600270014
:1000D0002D002E002A0049004A004B002B0014007E
:1000E0001A000800150017001C0018000C00120070
:1000F00013002F00300031004C004D004E0039003D
:1001000004001600070009000A000B000D000E0095
:100110000F00330034000000280000000000000041
:10012000E1001D001B000600190005001100100071
:100130003600370038000000E500000000005200E3
:100140000000E000E300E200000000002C000000DE
:1001500000000000E600E70076000000E400500028
:1001600051004F00010000000100010001000100EA
:100170000100010001000100010001000100010077
:100180000100010001000100010001000100010067
:100190000100010001000100010001000100010057
:1001A0000100010001000100010001000100010047
:1001B0000100010001000100010001000100010037
:1001C0000100010001000100010001000100010027
:1001D0000100010001000100010001000100010017
:1001E000010000000100000000000000010001000B
:1001F00001000100010001000100010001000100F7
:1002000001000000010000000000010000000100EA
:1002100001000100000000000100000000000000DB
:1002200001000100010000000100010001000100C7
:1002300001000000010001000100010001000100B7
:1002400001000100010001000100010001000100A6
:100250000100010001000100010001000100010096
:100260000100010001000100010001000100010086
:100270000100010001000100010001000100010076
:100280000100010001000100010001000100010066
:100290000100010001000100010001000100010056
:1002A0000100010001000100010001000100000047
:1002B0000100000000000000010001000100010039
:1002C0000100010001000100010001000100000027
:1002D0000100000000000100000001000100010019
:1002E000000000000100000000000000010001000B
:1002F00001000000010001000100010001000000F8
:1003000001000100010001000100010001000100E5
:1003100001000100010001000100010001000100D5
:1003200001000100010001000100010001000100C5
:1003300001000100010001000100010001000100B5
:1003400001000100010001000100010001000100A5
:100350000100010001000100010001000100010095
:100360000100010001000100010001000100010085
:100370000100010001000100010000000100000077
:100380000000000001000100010001000100010067
:100390000100010001000100010000000100000057
:1003A0000000010000000100010001000000000049
:1003B0000100000000000000010001000100000039
:1003C0000100010001000100000000000000000029
:1003D0002A2B2800000000000000000000000000A0
:1003E00000000029000000002C1E342021222434AB
:1003F0002627252E362D3738271E1F20212223247D
:1004000025263333362E37381F0405060708090A18
:100410000B0C0D0E0F101112131415161718191AB4
:100420001B1C1D2F3130232D350405060708090A32
:100430000B0C0D0E0F101112131415161718191A94
:100440001B1C1D2F3130354C000000000000000047
:10045000000000000000000000000000000000009C
:100460000000000000000000000000007E0F00D42B
:10047000FFFFFFC700000078100353006300610016
:1004800072006C006500740000000C034C007500E5
:1004900063006900640000000403090409025B00B2
:1004A000030100A0FA090400000103010100092171
:1004B000110100012240000705810308000A090418
:1004C00001000203000000092111010001222200A5
:1004D000070582032000010705030320000109042A
:1004E0000200010300000009211101000122B600F1
:1004F0000705840320000A120110010000000867AC
:100500007604000100010200010660FF0961A101FB
:100510000962150026FF0095207508810209631500
:100520000026FF00952075089102C005010902A16F
:100530000185020901A100050919012908150025F5
:1005400001950875018102050109300931158125E0
:100550007F95027508810609381581257F950175FB
:10056000088106050C0A38021581257F950175085A
:100570008106C0C005010980A101850319012AB7C0
:1005800000150126B700950175108100C0050C0902
:1005900001A101850419012AA002150126A00295D6
:1005A0000175108100C005010906A1018505050737
:1005B00019E029E715002501950875018102050755
:1005C000190029EF1500250195F075018102050834
:1005D0001901290595057501910295017503910190
:1005E000C005010906A101050719E029E715002545
:1005F00001950875018102950175088101050719AA
:100600000029FF150026FF009506750881000508E2
:10061000190129059505750191029501750391014F
:10062000C00011241FBECFEFD0E1DEBFCDBF04B6A6
:1006300003FE27C08091F5029091F602A091F70287
:10064000B091F8028730904BA740B04BD1F4109294
:10065000F5021092F6021092F7021092F80214BE00
:1006600084B7877F84BF0FB6F894A8958091600007
:10067000886180936000109260000FBEE0E0F8E7B0
:10068000099511E0A0E0B1E0ECE8FFE402C00590BC
:100690000D92A83AB107D9F722E0A8EAB1E001C06B
:1006A0001D92A53FB207E1F70E9410210C944E273E
:1006B0000C94000081E0089581E008950C945C039F
:1006C00008950C9460031F93CF93DF9300D000D064
:1006D0000F92CDB7DEB749835A836B833091E70120
:1006E00089819A8131111DC06623B9F02223A9F0B6
:1006F0000E94981B182F682F89819A810E94441BA1
:1007000069817A81812F0F900F900F900F900F9039
:10071000DF91CF911F910C94250F0E94701B182F11
:10072000EFCF0E94981B69817A81EDCFFC01262FC3
:10073000408151816281738184810C946303CF93E2
:10074000DF93EC0160E00E949603BE01DF91CF9140
:100750000C9461038F929F92AF92BF92CF92DF92DF
:10076000EF92FF920F931F936B017C0181E090E069
:10077000A0E0B0E04C015D0104C0880C991CAA1CEB
:10078000BB1C4A95D2F7B501A4014C015D0104C020
:10079000880C991CAA1CBB1C2A95D2F748295929F8
:1007A0006A297B2904C0880F991FAA1FBB1F0A95BD
:1007B000D2F78A019B010C211D212E213F21041714
:1007C00015072607370789F48C299D29AE29BF29EB
:1007D000BC01CD011F910F91FF90EF90DF90CF9062
:1007E000BF90AF909F908F90089580959095A09521
:1007F000B0958C219D21AE21BF21EACF0F93382FD8
:10080000262F609161027091620280916302909143
:100810006402042F432F0E94AA030F910C94821AA2
:100820000E944A070C946F070C94720708950E9467
:1008300026170E9416042FE78AE196E02150804097
:100840009040E1F700C000000C943E1F0F931F93EF
:10085000CF93DF938C0161E00E949603EC01B80115
:100860000E946C0D8823D9F1B801CE010E945E036D
:100870008823A9F1B801CE010E945C10882379F188
:10088000B801CE010E94AE10882349F1B801CE0113
:100890000E94D111882319F1F8018281882361F027
:1008A000CA35FDE5DF0721F170F4C115ECE5DE077F
:1008B000A1F0CE3DDC45C9F0C801DF91CF911F9179
:1008C0000F910C945A03CB358DE5D807A1F0CC35A8
:1008D000DD4591F70E943F1CEFCF0E94170480E096
:1008E000DF91CF911F910F9108950E94AB1DF7CF1B
:1008F0000E94481CE1CF0E944B1CDECFDF92EF929A
:10090000FF920F931F93CF93DF93E82FF0E0E8530C
:10091000FC4FD490282F26952695269530E0F90196
:10092000E859FB4F0491877010E0082E02C015951E
:1009300007950A94E2F701701127F901E85AFB4F75
:10094000E490F12C082E02C0F594E7940A94E2F7A3
:1009500091E0E922FF24F901E85BFB4FC491D0E06C
:1009600002C0D595C7958A95E2F7C170DD270115BC
:10097000110519F081EE0E94AE13E114F10419F093
:1009800086EE0E94AE138D2D0E94B214EF2819F04E
:1009900086EE0E944514012B19F081EE0E94451449
:1009A000CD2B51F08CE2DF91CF911F910F91FF90F1
:1009B000EF90DF900C94B214DF91CF911F910F91C3
:1009C000FF90EF90DF900895EF92FF920F931F93A7
:1009D000CF93DF93EC01162F0AE08881882309F476
:1009E00054C0813009F04EC08981813099F47E0174
:1009F00022E0E20EF11C8A810E94B214E7012196E6
:100A0000812F815050F3EFECF7E03197F1F700C000
:100A10000000F7CF823041F47E0182E0E80EF11C45
:100A20008A810E94AE13EACF833041F47E01E2E076
:100A3000EE0EF11C8A810E944514E0CF843011F043
:100A40002196DDCF2A81229690E080E0AE014F5FB3
:100A50005F4F2053330B2A30310548F0019778F26D
:100A6000EFECF7E03197F1F700C00000F7CF089FF7
:100A7000B001099F700D1124C901860F971F2981AC
:100A8000EA01E4CF0E947E04BACFDF91CF911F919B
:100A90000F91FF90EF90089560E00C94E4040895A6
:100AA0000C944F0581E008950C945205CF93C82F04
:100AB0000E9450058C2FCF910C945405CF93DF9357
:100AC0000E94250F0E945806EC01811521E592072E
:100AD00008F042C0811530E5930708F09DC0883EBC
:100AE000910530F5803E910508F092C0883A910555
:100AF00088F4853A910508F084C08130910509F4A5
:100B000087C0009709F484C0049708F081C0D0E042
:100B1000C0E07EC08F3B9105D0F7C85AD0E0CC0F23
:100B2000DD1FCB5EDE4F0990D881C02DD46470C02C
:100B30008115904250F4C11581E0D80708F068C0D3
:100B4000C03FD10520F3D06563C0C11590E4D9073B
:100B5000F0F2DF70D06A5CC0811525E5920700F5E0
:100B6000811534E5930708F08BC0811543E59407A0
:100B700008F073C0C11582E5D80708F469C0CE013A
:100B80008370992721E030E002C0220F331F8A953D
:100B9000E2F7C695C69580E2C89FE001112454C0D3
:100BA000C11599E5D907A8F4C11528E5D20708F0C1
:100BB0006CC0C11536E5D30708F0A9CF8C2F0E9471
:100BC000EF06C82FD0E0DC2FCC27CC27DF71D06216
:100BD0001FC0C1154AE5D40708F45CC0CE01905689
:100BE0008115904208F093CF8D2F8F710E94EF06F0
:100BF00090E0982F882788279F719C012C2BE90172
:100C0000E6CFC55AD0E0CD5BDE4FC881D0E0D064DE
:100C1000CE01DF91CF910895E4E096958795EA950E
:100C2000E1F783702C2F26952695237040E2249FB0
:100C300090011124382B8C2F8370C1E0D0E002C0CA
:100C4000CC0FDD1F8A95E2F7C22BD32BDC68E0CFF7
:100C5000DC2FCC27C16FD06ADBCF8370992721E0CE
:100C600030E002C0220F331F8A95E2F7C695C69581
:100C700090E2C99FE0011124C22BD32BDA68C8CFC0
:100C8000D82FCC27C46FD06AC3CFDC2FCC27C06F3E
:100C9000D06ABECF8C2F8F700E94EF0634E0D695BD
:100CA000C7953A95E1F7CF709C2FEC01D069B0CF92
:100CB00082389105B1F1B0F48133910509F475C022
:100CC00048F48932910509F469C08A32910509F422
:100CD00073C008958533910509F459C0893391058E
:100CE00001F10895833E9105A9F138F4803E910504
:100CF000F9F0823E910549F10895863E9105A9F1EA
:100D0000873E9105C9F1843E910519F52091B30202
:100D100021FF1FC08091B20284FD14C087EE90E0D5
:100D200008952091B2022370A1F080EE90E0089522
:100D30002091B20220FD47C03091B30230FF09C0BC
:100D400024FF44C090E080E004C02091B20222FD64
:100D5000F7CF08952091B20222FD3BC03091B3023B
:100D600030FDE3CF24FFF5CFEDCF2091B20223FF7A
:100D7000F0CF24FDE7CFD2CF2091B20223FD2CC0CB
:100D80003091B30231FFEECF84EE90E008952091D0
:100D9000B20225FFDECF89E290E008952091B202F1
:100DA00025FFD7CF85E390E008952091B20226FF7A
:100DB000D0CF8AE290E008952091B20226FFC9CFF9
:100DC00081E390E0089589E390E0089583EE90E058
:100DD000089582EE90E0089586EE90E00895909157
:100DE000B20292FF06C0282F28712830F9F4877FBD
:100DF000846093FF06C0282F28712831F1F4877E84
:100E000084612091B30220FF06C0382F387138303A
:100E1000D9F4877F816021FF06C0282F28712831EF
:100E2000D1F4877E816194FD877E0895282F2471F7
:100E30002430F9F68B7F8860DCCF282F2471243191
:100E400001F78B7E8861DDCF382F3171313019F792
:100E50008E7F8860E0CF282F2171213121F78E7E8F
:100E60008861E1CF0C94460D0E94D8078FE19EE483
:100E70000197F1F700C000000E94D80780E00E94AF
:100E8000740760FF04C00E9432070C943E1F08954F
:100E90000C9434070E94061D811102C00E94AB1DF4
:100EA0000E94111D80938E020E94191D9093B3021F
:100EB0008093B2020E9448070E94151D682F70E0BF
:100EC00090E080E00E94461A609161027091620297
:100ED00080916302909164020C94801A08950C949E
:100EE0006E0708950C94710794E0899FF001112416
:100EF000E453FD4F6081718182819381089508954B
:100F000080E58A95F1F7089500C008950C94800754
:100F1000F894E82FE295EF70F0E031A1282F2F70C0
:100F200081E090E001C0880F2A95EAF7982F90950C
:100F3000932391A392A1892B82A3789408950F9370
:100F40001F93CF93DF9384E30E94880785E30E9479
:100F5000880786E30E94880780E60E94880781EC64
:100F60000E94880780EC0E948807C6E4D1E007E56C
:100F700011E089910E9488070C171D07D1F7E4EB57
:100F8000F2E0ACECB2E011921192119211921D922A
:100F90001D921D921D9282E0EC3CF807A1F786E0BD
:100FA0000E947808DF91CF911F910F910C9410044B
:100FB0004F925F926F927F928F929F92AF92BF9269
:100FC000CF92DF92EF92FF920F931F93CF9307E59B
:100FD00011E034EBE32E32E0F32EC0E0CC24C394D6
:100FE000D12CF80181918F01F894E82FE295EF70F0
:100FF000F0E021A18F70260102C0440C551C8A9597
:10100000E2F7C201922F982B91A392A18095892398
:1010100082A378940E948407A6E4B1E090E080E087
:10102000812C912C54014D91E42FE295EF70F0E06A
:1010300020A130E04F7002C0359527954A95E2F720
:1010400020FD50C0412C512C32014394082E04C085
:10105000440C551C661C771C0A94D2F7B301A201FC
:10106000842A952AA62AB72A019681319105D9F6B4
:10107000F801319780810E9488070E948607F70156
:1010800080819181A281B38188169906AA06BB0648
:1010900069F180829182A282B38281E0C82BF4E060
:1010A000EF0EF11C41E00D35140709F09ACF2C2FFB
:1010B00046E06CEC72E084EB92E00E9479080E94BA
:1010C00014048C2FCF911F910F91FF90EF90DF9020
:1010D000CF90BF90AF909F908F907F906F905F90D8
:1010E0004F90089540E050E0BA01BACF80E0D6CFEB
:1010F0000895FF920F931F93CF93DF93F82ED92F6C
:101100008B01C42F222349F081E08093AC010E941F
:10111000F31E9093AB018093AA018091AC018823C8
:1011200099F08091AA019091AB010E940B1F069744
:1011300058F0EF2DFD2FD80190E080E0D0E08C1723
:101140009D0744F01092AC01DF91CF911F910F9158
:10115000FF90089501911191219131910D931D936B
:101160002D933D930196EBCF833081F128F48130AC
:1011700059F08230D1F00895853009F449C0B8F1B2
:10118000863009F456C0089580910701482F460F14
:101190005527551F4F3F510524F4680F60930701F1
:1011A00008958FEF80930701089580910601482FDD
:1011B000460F5527551F4F3F510524F4680F609384
:1011C000060108958FEF809306010895809105012F
:1011D000482F460F5527551F4F3F510524F4680FE0
:1011E0006093050108958FEF809305010895809124
:1011F0000401482F460F5527551F4F3F510524F432
:10120000680F6093040108958FEF8093040108959F
:1012100080910101482F460F5527551F4F3F51051B
:1012200024F4680F6093010108958FEF809301010A
:10123000089580910001482F460F5527551F4F3FB5
:10124000510524F4680F6093000108958FEF809397
:1012500000010895833011F128F4813049F0823083
:1012600091F00895853081F120F18630C1F1089523
:1012700080910701681720F4861B80930701089569
:1012800010920701089580910601681720F4861BCB
:10129000809306010895109206010895809105013A
:1012A000681720F4861B80930501089510920501AC
:1012B000089580910401681720F4861B809304012F
:1012C000089510920401089580910101681720F497
:1012D000861B809301010895109201010895809169
:1012E0000001681720F4861B809300010895109276
:1012F000000108950F931F9341E050E060E070E01B
:101300008A019B0104C0000F111F221F331F8A9501
:10131000D2F7C901B8010E94461A1F910F910C948F
:101320002617EBEFE80FEF3308F05AC0F0E0E05B70
:10133000F84D0C94EB260E94AB1D81E0089580913E
:101340008E02807F80938E0281E08093AE010895AB
:101350000E941704F2CF90918E02892F8E7F90FF0A
:10136000816080938E0280FDE8CF817F80938E0222
:10137000E4CF90918E02892F8D7F91FF82608093C0
:101380008E0281FFDACF80918E028160EFCF909143
:101390008E02892F8B7F92FF846080938E0282FD64
:1013A000F2CFCBCF90918E02892F877F93FF8860F9
:1013B00080938E0283FDE7CFC0CF0E9426179091C5
:1013C000B202892F97FB87F980588093B202B5CF7C
:1013D00080E00E947A09B1CF8953FBCF8D51F9CFBC
:1013E00080E0089580E008950C94F2098E518A30CF
:1013F00030F4E82FF0E0E35AFE4F8081089580E05A
:101400000895CF93C82F8091AE018130B9F0882321
:1014100031F08230A1F11092AE0180E00DC00E9447
:101420004E1C8232D1F78C2F0E94F20981111BC011
:101430008C2F0E9491098170CF9108950E944E1CBB
:10144000823289F38C2F0E94F40981110AC0C431C1
:1014500099F060F4CB3029F0C03169F782E08093D5
:10146000AE0181E0E8CF81E090E0E5CFC93221F024
:10147000C833B9F380E0DFCF1092AE01FBCFC932A1
:1014800019F188F4C43101F120F4C73081F181E011
:10149000D3CF82EE8C0F8630D0F78C2F0E94F609C6
:1014A0008093AD01F4CFCE3401F140F46AE0CB3447
:1014B00071F78091AD010E94B408E9CFC13579F090
:1014C00061E0C235B1F3E3CF8091AD01882319F01B
:1014D0001092AD01DCCF81E08093AE01ADCF61E031
:1014E0008091AD010E942A09D2CF6AE0F9CF8EE146
:1014F0008093070182E3809306018AE080930501CF
:1015000084E18093040188E08093010188E2809364
:101510000001BDCF8091B50180FF12C0609105012F
:1015200085E0689FB001112475956795759567955D
:1015300060387105A8F561157105A1F1862F089530
:1015400081FF09C06091050185E0689FB001112409
:1015500075956795EDCF6091050182FD0AC0809178
:10156000B4018823D1F0909104016091050189179D
:1015700028F085E0689FB0011124DACF869FB00182
:10158000112485E0869F9001879F300D1124692FDB
:1015900070E0C9010E94D726CBCF65E070E0CECFC6
:1015A0008FE7089581E008958091B50180FF0CC018
:1015B0006091010170E07595679575956795611566
:1015C000710549F1862F089581FF06C060910101E0
:1015D00070E075956795F3CF6091010182FD0BC0B6
:1015E0009091B3019923A1F06091000180910101D4
:1015F000961738F0682F70E06038710500F38FE7B8
:101600000895899FC001112470E00E94D726F4CF6D
:1016100061E070E0D7CF81E00895803F31F40E940F
:101620008A0A81958093B9010895813F19F40E9437
:101630008A0AF8CF823F31F40E948A0A819580930A
:10164000B8010895833F19F40E948A0AF8CF893FB0
:1016500029F40E94D40A8093BA0108958A3F21F4A4
:101660000E94D40A8195F7CF8B3F31F40E94D40AAF
:1016700081958093BB0108958C3F19F40E94D40A90
:10168000F8CF9CE0980F953070F4845F990B21E0BF
:1016900030E001C0220F8A95EAF78091B701822BD2
:1016A0008093B70108958D3F31F48091B501816039
:1016B0008093B50108958E3F21F48091B501826039
:1016C000F7CF8F3FB9F78091B5018460F1CF40919A
:1016D000B801803F59F48091B90187FF0DC0109285
:1016E000B90141110BC01092B40108C0813F81F4CF
:1016F0008091B90118169CF3442381F08091BA01BE
:101700009091BB01892B09F05AC01092B301089542
:10171000823F49F447FFF0CF1092B8018091B901A0
:101720008111ECCFE0CF833F19F41416ACF3E4CF72
:101730009091BA01893F29F41916F4F61092BA0172
:10174000DBCF8A3F19F497FFD7CFF8CF9091BB0139
:101750008B3F29F497FFD0CF1092BB01CDCF8C3FA8
:1017600019F41916CCF3C8CF9CE0980F953090F47B
:10177000845F990B21E030E0B90102C0660F771F4A
:101780008A95E2F7CB0180959091B70189238093E8
:10179000B701B2CF8D3F31F48091B5018E7F809338
:1017A000B501AACF8E3F21F48091B5018D7FF7CF8F
:1017B0008F3F09F0A1CF8091B5018B7FF0CF0895C5
:1017C0000E94F31E9C019091B8018091B901982B61
:1017D00021F03093B2012093B1019091BA01809130
:1017E000BB01982B21F03093B0012093AF0186EB21
:1017F00091E00C942612EF92FF920F931F93CF93D8
:10180000DF9300D000D000D0CDB7DEB786E0E6EBA6
:10181000F1E0DE01119601900D928A95E1F7E090DA
:10182000B801F090B9010091BA011091BB0110927A
:10183000B8011092B9011092BA011092BB018E2D1D
:101840008F2991F08091B1019091B2010E940B1FFC
:10185000AC019091B401992309F43FC08091060135
:101860008417150608F447C0802F812B91F08091D2
:10187000AF019091B0010E940B1FAC019091B30198
:10188000992309F477C0809102018417150608F4A2
:101890007FC08091B8019091B901892B9091BA01D4
:1018A000892B9091BB01892B11F00E94E00B86E0FF
:1018B000FE013196A6EBB1E001900D928A95E1F719
:1018C00026960FB6F894DEBF0FBECDBFDF91CF9145
:1018D0001F910F91FF90EF900895209107018AE0EA
:1018E000289F900111242417350708F0BDCF9F5F72
:1018F0009093B40102C09F3FD1F7EE2059F00E94AF
:101900008A0A9FEF1E140CF491E0899F802D112408
:101910008093B801FF2059F00E948A0A9FEF1F149C
:101920000CF491E0899F802D11248093B9013091AE
:10193000B801332309F498CF2091B901222309F487
:1019400093CF45EB3403C0011124992359F09093B0
:10195000B80145EB240390011124332339F030936F
:10196000B90182CF81E08093B801F3CF81E0809309
:10197000B9017ACF209103018AE0289F90011124B8
:101980002417350708F085CF9F5F9093B30102C0FD
:101990009F3FD1F7002359F00E94D40A9FEF101601
:1019A0000CF491E0899F802D11248093BA011123BA
:1019B00059F00E94D40A9FEF11160CF491E0899F10
:1019C000802D11248093BB013091BA01332309F497
:1019D00060CF2091BB01222309F45BCF45EB340398
:1019E000C0011124992359F09093BA0145EB2403C7
:1019F00090011124332339F03093BB014ACF81E0A9
:101A00008093BA01F3CF81E08093BB0142CF86E09F
:101A1000E6EBF1E0DF011D928A95E9F71092B4013F
:101A20001092B3011092B501089583E290E00E94F4
:101A30000C27813289F484E290E00E940C278830E0
:101A400059F485E290E00E940C2791E0883109F07A
:101A500090E0892F8170089580E0FCCFCF93C82F4C
:101A60006FEF811161E283E290E00E941A276FEF2D
:101A7000C11168E084E290E00E941A276FEFC11163
:101A800068E185E290E0CF910C941A2780E00E94F3
:101A90002E0D0C94001D089586E290E00E940C2704
:101AA000682F70E090E080E0089586E290E00C946A
:101AB0001A270E944B0D0E94150D81110CC060E089
:101AC00070E0CB010E94550D0E949D0E0E94890F6F
:101AD00081E00C942E0D0895CF93FB01C281CC239D
:101AE00009F19C0122513F452031310520F58251F9
:101AF0000E94990FC0E08C2FCF91089581E00E9441
:101B0000A81A43E062E081E00E94FE03F3CF81E087
:101B10000E94C91A43E062E081E00E94FE03EBCF1D
:101B200082E0F6CF8031FFE59F0789F381319F4541
:101B3000B9F3C1E0E0CF8031EFE59E07F9F28131E2
:101B40009F45C9F682E0DBCF2FEFFC01208308958B
:101B5000EF92FF920F931F93CF93DF93EC01E62E4A
:101B6000E881E150E33108F05FC0F0E0E157F84D63
:101B70000C94EB26198289E08A836E2DCE01DF91C9
:101B8000CF911F910F91FF90EF900C9405208981C8
:101B9000823069F0833071F08130E1F40E94FF1EE1
:101BA0000E94F1266A837B838C839D83E6CF0E940B
:101BB0004C0DF6CF8E01F12C8F2D0E947407F80189
:101BC000828373836483F3940D5F1F4FF6E0FF12EB
:101BD000F3CFD3CF6E2DCE010E94A40DCECF89813D
:101BE0008230C1F76A817B818C819D810E94F126C0
:101BF0000E94550DC2CF4B816A8189810E946F0E70
:101C00009827892798279D838C83B7CF2C813D8186
:101C10003227232732274B816A8189810E94880ECF
:101C2000ACCF0E949D0EA9CF8FEF8883A6CF0E94D4
:101C3000320F8983A2CF0E94340F982789279827D3
:101C40009A8389839ACF6B8170E089819A81AE01F2
:101C50004C5F5F4F9827892798270E94370F8DCFB9
:101C60006B8170E089819A81AE014C5F5F4F98274C
:101C7000892798270E945E0F80CF0E94890F7DCF11
:101C80000E945D0ED6CF6B8170E089819A81AE0192
:101C90004C5F5F4F9827892798270E94D50E6DCFFC
:101CA0006B8170E089819A81AE014C5F5F4F98270C
:101CB000892798270E94FB0E60CF84E0089550E0AA
:101CC000440F551F92E2699F400D511D11249CEC59
:101CD000899F400D511D1124CA01879608950F93C5
:101CE0001F93CF93DF930E945F0E8C010E940C27FD
:101CF000C82FD0E0DC2FCC27C80101960E940C270A
:101D00009E01282BC901DF91CF911F910F9108955A
:101D10000F931F93CF93DF93122F032F0E945F0E19
:101D2000EC01602F0E941A27612FCE010196DF91EE
:101D3000CF911F910F910C941A27AF92BF92CF921F
:101D4000DF92EF92FF921F93CF93DF9388E9C82E23
:101D500080E0D82ED0E07601C0E014C0F5012591D6
:101D60003491412F6C2F8D2F0E94880E82E0A80E97
:101D7000B11C1F5F113191F782E2E80EF11CCF5FB9
:101D8000C63019F0570110E0E9CFDF5F8CECC80EC8
:101D9000D11CD43001F7DF91CF911F91FF90EF90CC
:101DA000DF90CF90BF90AF900895EF92FF920F9386
:101DB0001F93CF93DF93EC018A017C01E60EF71E9F
:101DC000CE018796CE15DF0539F4DF91CF911F91B3
:101DD0000F91FF90EF900895C03323E0D20740F4B5
:101DE0000E940C27F80180830F5F1F4F2196E8CFD8
:101DF000F8011082F9CFCF92DF92EF92FF920F930A
:101E00001F93CF93DF937C016A018C01060F171F8C
:101E1000EC01CE018796C017D10749F4DF91CF912D
:101E20001F910F91FF90EF90DF90CF900895C033F6
:101E300023E0D20740F4FE01EE19FF09EC0DFD1D71
:101E400060810E941A272196E4CF462F843038F40F
:101E5000763028F4613118F4672F0C946F0E90E0FF
:101E600080E0089580E1089589EA94E00895EF9272
:101E7000FF920F931F93CF93DF93EC018A017C01B4
:101E8000E60EF71ECE01895A9C4FCE15DF0539F4B8
:101E9000DF91CF911F910F91FF90EF900895C93A74
:101EA00024E0D20740F40E940C27F80180830F5FE2
:101EB0001F4F2196E7CFF8011082F9CFCF92DF9222
:101EC000EF92FF920F931F93CF93DF937C016A01F0
:101ED0008C01060F171FEC01CE01895A9C4FC017C9
:101EE000D10749F4DF91CF911F910F91FF90EF90AF
:101EF000DF90CF900895C93A24E0D20740F4FE0164
:101F0000EE19FF09EC0DFD1D60810E941A27219634
:101F1000E3CFCF93DF93C7E5D3E060E0CE010E942B
:101F20001A272196C11588E0D807B9F7DF91CF911C
:101F30000895DF92EF92FF920F931F93CF93DF9359
:101F400000D000D0CDB7DEB7F82E8FE08F1540F06F
:101F50008FEF97E00E940C2707E513E08823C1F07C
:101F60000F900F900F900F90DF91CF911F910F91D5
:101F7000FF90EF90DF900895011588E0180781F336
:101F8000C8010E940C27811101C0FA940F5F1F4FF6
:101F9000F110F2CF19821A821B821C82DD24D394A5
:101FA00078018FEFE81AF80AC8010E940C2789838C
:101FB0001A828823A9F29FEF980F933078F48A83CE
:101FC000D9820E5F1F4FC7010E940C278B83882385
:101FD00039F2CE0101960E944C05E2CF8701F9CF7C
:101FE0000F931F93CF93DF93C42FD22FFC018281D5
:101FF0008823C9F04093BE010E94F31E9093BD0157
:102000008093BC0180E28C0F883008F050C0C7700C
:1020100081E001C0880FCA95EAF7DF91CF911F9147
:102020000F910C94BA141091BE01141335C0809115
:10203000BC019091BD010E940B1F883C910560F589
:10204000C0E2CD0F1D17B9F080E2810F883040F457
:10205000177081E001C0880F1A95EAF70E94C11439
:10206000C83048F481E09D2F977001C0880F9A9581
:10207000EAF70E94BA14802F0E94B214C830B8F454
:10208000D77081E001C0880FDA95EAF7DF91CF9130
:102090001F910F910C94C11480E28C0F883038F49A
:1020A000C77081E001C0880FCA95EAF7EFCFDF91D2
:1020B000CF911F910F9108950F939C01CB01233F66
:1020C0004CE5340759F1A8F4283DFCE53F0701F140
:1020D000293D4CE53407D1F1273D3C4591F406E21A
:1020E00021EE41EE67ED7CE50E94F00F80E00F915C
:1020F0000895253FFCE53F07E9F0B0F0263F3C4559
:10210000F9F0FC018281882339F11092BE01EFCFF2
:1021100007E225EE45EE68ED7CE5E6CF06E221EE2E
:1021200040EE63EF7CE5E0CF07E225EE44EE64EF9E
:102130007CE5DACF06E221EE42EE65EF7CE5D4CF16
:1021400007E225EE46EE66EF7CE5CECF08E221E021
:1021500045EE69ED7CE5C8CF81E0C9CFCF93DF9331
:10216000EC01FB018281882309F419C1C230FCE52E
:10217000DF07C0F1C6319CE5D90730F09E012A5F28
:102180003C452930310570F50E94191D9093B3022A
:102190008093B202C031ECE5DE0709F4CFC008F04D
:1021A0005BC0C8308CE5D80709F4B6C088F5C430E8
:1021B000ECE5DE0709F4A8C0C0F4C2308CE5D8070E
:1021C00009F49CC08091B2028260C330DC4509F4FE
:1021D00098C08091B2029091B3020E94271D0E9484
:1021E000261780E0DF91CF9108958091B20280613F
:1021F000C630ECE5DE0709F484C08091B202886045
:10220000C730DC4508F47DC08091B202806279C09D
:10221000CC308CE5D80709F489C070F48091B20203
:102220008C60CA30ECE5DE0709F46BC008F478C0B6
:102230008091B2028E7F65C0CE308CE5D80709F45C
:1022400079C08091B2028B7FCF30DC4508F459C051
:102250008091B2028F7E55C0CB3FECE5DE0709F4DA
:1022600057C030F5C3318CE5D80709F46FC078F456
:10227000C131ECE5DE0709F465C0C231DC4509F087
:10228000A8CF0E9426178091B2028F773AC0C5313D
:102290008CE5D80709F462C008F476C08091B302D7
:1022A0008160CA3FDC4509F094CF8093B30291CF9F
:1022B000CF3FFCE5DF0709F44DC088F48091B302FD
:1022C0008D7FCD3F9CE5D90781F38091B3028E7F4E
:1022D000CE3FDC4550F38091B3028360E6CFC1303E
:1022E000FDE5DF0709F459C008F444C080E0C230BE
:1022F000DD4509F06ECF0E94AD1D6BCF8091B2021B
:1023000081608093B20265CF8091B2028460F9CF80
:102310008091B3028260C9CF8091B2028064F1CF14
:102320000E9426178091B2028068EBCF8091B202A2
:102330008D7FE7CF8091B202877FE3CF8091B20299
:102340008F7DDFCF8091B2028F7BDBCF8091B20295
:10235000837FD7CF8091B3028C7FA7CF8091B202C9
:1023600082FB992790F921E0922790FB82F990FB5C
:1023700083F9C7CF8091B302982F909591708E7F8B
:10238000892B90FB81F991CF0E9426179091B20280
:10239000892F97FB87F98058B4CF81E0ACCF81E0DB
:1023A00021CFCF93DF93EB0186319C4511F50E943D
:1023B0004E1C9A81992399F08A7A91E009F490E071
:1023C0009093BF01811109C089E20E94081C0E94FC
:1023D000911C80E0DF91CF91089585E3F6CF809145
:1023E000BF01811104C089E20E940F1CF0CF85E378
:1023F000FBCF81E0EFCF9093C5018093C401089596
:10240000E091C401F091C501309721F00190F08175
:10241000E02D099480E00895E091C401F091C50198
:10242000309799F020911401222359F02091B202A3
:1024300027FF07C0DC012C9111962C93119725E002
:102440002C930280F381E02D09940895E091C4015A
:10245000F091C501309739F022E0DC012C93048023
:10246000F581E02D099408952091C2013091C301B6
:102470002817390771F09093C3018093C201E0914E
:10248000C401F091C501309721F00680F781E02D5D
:10249000099408952091C0013091C101281739078E
:1024A00071F09093C1018093C001E091C401F0915B
:1024B000C501309721F00084F185E02D099408953D
:1024C0000E94FF1E6093E3017093E4018093E50195
:1024D0009093E6016093DF017093E0018093E10146
:1024E0009093E201089585B7806885BF85B78068BD
:1024F00085BF0895089508950C947A1208950C9458
:102500007E120E9473128EEF9CE10E94621F0E9455
:102510007B120C947C1281E008950C948B12089528
:1025200008950E948F120C9490120E94EA1E0E943D
:102530009F070E94590D0C947F124F925F926F92E9
:102540007F928F929F92AF92BF92CF92DF92EF9243
:10255000FF920F931F93CF93DF93CDB7DEB72A97E8
:102560000FB6F894DEBF0FBECDBF0E94D807811111
:102570000E94601257ECA52E51E0B52E10E000E04D
:10258000802E802F0E9474072B013C01F501C19021
:10259000D190E190F1905F01C414D504E604F704F2
:1025A00009F477C080918E0281FD0E947F07D701D8
:1025B000C60184259525A625B725912CC12CD12CA3
:1025C0007601C394AC01BD014C215D216E217F21B8
:1025D000452B462B472B09F454C00E948D128823AB
:1025E000C9F09E828F824C205D206E207F2081E08A
:1025F00045284628472809F480E088870E94F31E72
:102600008160782F9A8789874E815F8168858A8566
:102610000E947713000F111F000F111FF801E953DB
:10262000FE4F80819181A281B3818C259D25AE25AD
:10263000BF2580839183A283B3830E94FB0B0E94FA
:1026400000129091C6018917D9F10E94001280935F
:10265000C6012A960FB6F894DEBF0FBECDBFDF913C
:10266000CF911F910F91FF90EF90DF90CF90BF908F
:10267000AF909F908F907F906F905F904F900C9451
:1026800056059394CC0CDD1CEE1CFF1CF1E19F124F
:1026900099CF0F5F1F4F0630110509F071CF8FEFF3
:1026A00089838A831B820E94F31E8160782F9D8319
:1026B0008C8349815A816B818D810E947713BDCFB4
:1026C0002A960FB6F894DEBF0FBECDBFDF91CF9133
:1026D0001F910F91FF90EF90DF90CF90BF90AF9040
:1026E0009F908F907F906F905F904F900895DF92B2
:1026F000EF92FF920F931F93CF93DF93CDB7DEB787
:102700002B970FB6F894DEBF0FBECDBF7A878B87AD
:10271000F42E052F162FE72ED82E61110E946E1C65
:102720001E821D827E2DEC82DD824F2D502F612F67
:102730008D2D9E812B960FB6F894DEBF0FBECDBFB8
:10274000DF91CF911F910F91FF90EF90DF900C944C
:102750009C19FC01808191810C94DA1BCF93C82FC6
:10276000882309F490C08238C1F40E94001281FDD0
:102770008AC089E30E94081C0E94911C2FEF80E709
:1027800092E0215080409040E1F700C0000089E3D2
:102790000E940F1CCF910C94911C8338A1F40E94CD
:1027A000001280FD70C083E50E94081C0E94911CED
:1027B0002FEF80E792E0215080409040E1F700C089
:1027C000000083E5E5CF8438A1F40E94001282FD69
:1027D0005AC087E40E94081C0E94911C2FEF80E7DA
:1027E00092E0215080409040E1F700C0000087E473
:1027F000CFCF8CEF8C0F813AB8F48C2F0E94010A56
:10280000811141C06C2F80910801909109010E94B3
:10281000C61D882329F08C2F0E940F1C0E94911C3A
:102820008C2F0E94081CB6CF80E28C0F883048F4B1
:10283000C77081E001C0880FCA95EAF70E94511C59
:10284000A9CFEBE5EC0FE33040F4F0E0EB56FE4FA0
:10285000808190E0CF910C943412E8E5EC0FE731E1
:1028600050F4F0E0EE0FFF1FE959FE4F8081918197
:10287000CF910C944A12C03F30F08C2F0E940D0B68
:10288000CF910C94E00BCF910895882309F452C0A6
:10289000823871F40E94001281FF4CC089E30E94CB
:1028A000081C0E94911C89E30E940F1C0C94911C2F
:1028B000833859F40E94001280FF3CC083E50E94D7
:1028C000081C0E94911C83E5EFCF843859F40E94C4
:1028D000001282FF2FC087E40E94081C0E94911CF6
:1028E00087E4E2CF9CEF980F913AF0F290E2980FD4
:1028F000983050F4877091E001C0990F8A95EAF7FB
:10290000892F0E94571CD2CF9BE5980F933020F45B
:1029100090E080E00C94341298E5980F973120F401
:1029200090E080E00C944A12803F20F00E94670BF8
:102930000C94E00B08951F93CF93DF93182FEB01B6
:102940000E94AE13209731F4812FDF91CF911F9118
:102950000C9445148FEC97E00197F1F700C000004C
:102960002197F0CF70E060E0893311F460E570E00A
:102970000C949B14882321F00E94511C0C94911CF0
:102980000895882321F00E94571C0C94911C0895EF
:10299000BF92CF92DF92EF92FF920F931F93CF934C
:1029A000DF936C01D62FC72FFC01128105810295A0
:1029B0000F700E94261CE82E8823A1F0E12E11231F
:1029C00089F08C2F807F803429F080E28D0FE12CFC
:1029D000883040F082E00E94E21C0E94261C91E0B8
:1029E000E82EE926BC2EB2949FE0B922FBE0FB154D
:1029F00098F1EB2DF0E0EE55F84D0C94EB260C2FF2
:102A00000F70C07F11F00295007F1123A9F0002301
:102A100059F080E28D0F883010F0D11109C0802F5D
:102A20000E94511C0E94911C8D2F0E94AE1314C055
:102A3000802F0E94611CF6CF8D2F0E944514002329
:102A400059F080E28D0F883010F0D1112CC0802F0A
:102A50000E94571C0E94911C2B2D2850330B2430B0
:102A6000310520F40E9400120E945605EE2009F460
:102A70008EC10E94221C80FD8AC1F60112820E9432
:102A80001C1C0E94A81AC6010E94E8160E941C1C69
:102A9000DF91CF911F910F91FF90EF90DF90CF903A
:102AA000BF900C94C91A802F0E94671CD3CF2C2F83
:102AB0002F70F22EC07FC03219F0F29480EFF8220E
:102AC000DD2369F0D13049F1112391F1002351F157
:102AD000F601858180FFA8CF8F70858323C01123E5
:102AE00081F0011106C00E94741C8F290E94BA1443
:102AF000B3CF0130C1F70E94741C8F290E947A1C49
:102B0000ABCF011106C00E94871C8F2D0E94C114FB
:102B1000A3CF013009F4A0CFF6CF112329F006305E
:102B200008F09ACF8F2DE2CF053008F095CFEDCF8A
:102B3000002359F3D93349F4FFEF23EF31E0F1508B
:102B400020403040E1F700C000008D2F0E94451466
:102B500083CF8C2F86958695837069F0813009F03C
:102B60007BCF8D2F9C2F9370111102C090E080E0DD
:102B70000E944A1271CF8D2F9C2F9370111102C0A9
:102B800090E080E00E94341267CF8D2F112329F04E
:102B90000E940D0B0E94E00B5FCF0E94670BFACFE3
:102BA0008C2F837009F041C0111156CF4D2F4295E3
:102BB00046954770440F440F0D2F0F7010E030E022
:102BC00020E0042E04C0000F111F221F331F0A949F
:102BD000D2F760E070E0CB01D4FF0FC06FE070E08F
:102BE00080E090E004C0660F771F881F991F4A9508
:102BF000D2F76095709580959095C695C695C370EF
:102C0000602B712B822B932BC23049F058F4C130CA
:102C100019F00E945A1A20CF0E94481A1DCF0E9414
:102C20006C1A1ACF0E94461A17CF8695112311F0FD
:102C30008C2F8170882309F40FCF4D2F4295469534
:102C40004770440F440F0D2F0F7010E030E020E06C
:102C5000042E04C0000F111F221F331F0A94D2F745
:102C600060E070E0CB01D4FF0FC06FE070E080E067
:102C700090E004C0660F771F881F991F4A95D2F70E
:102C80006095709580959095C695C695C370602B9C
:102C9000712B822B932BC23049F058F4C13019F0BC
:102CA0000E941F1BD9CE0E940D1BD6CE0E94311B45
:102CB000D3CE0E94821AD0CECF70112329F08C2F50
:102CC0000E94A81A8D2F12CF8D2F0E94C1148C2F15
:102CD0000E94C91AC1CED23F89F160F4D03FC9F039
:102CE000D13F29F1112309F442C001119DCE8C2F4F
:102CF0008F7121C0D33F39F1D43FA1F7112369F17E
:102D0000CF718C2F0E94A81A63E08C2F0E94C71CE1
:102D1000A3CE112341F0053008F09ECE8C2F8F7189
:102D20000E94EC1A99CE063008F096CEF7CF8C2F81
:102D30008F71112369F20E94A81A8ECE8C2F8F7189
:102D40001123C9F3C5CF112329F08C2F8F710E9455
:102D5000931A82CE0E948E1A7FCE81E00E94E21CDE
:102D6000023008F479CE82E00E94E21C75CE002386
:102D700059F0D93309F0E9CE8FEF93EFE1E08150BC
:102D80009040E040E1F7DFCE8C2F8F71A1CFDF9133
:102D9000CF911F910F91FF90EF90DF90CF90BF9058
:102DA00008950F931F93CF93DF93EC01688179818E
:102DB0008A810E94E41B8C010E94431B0E94451AD9
:102DC000B801CE01DF91CF911F910F910C94C814DF
:102DD000CF93DF93EC018B819C81892B29F0888133
:102DE000998189238F3F59F4DF91CF910895CE01C6
:102DF0000E94D116CE01DF91CF910C949F03CE019A
:102E00000E9426048111F3CF0E94261C882361F3BF
:102E10008A81882349F382E0DF91CF910C94E21CF0
:102E200090E080E00E94341290E080E00E944A121C
:102E30000E946E1C0E94711C0E94911C0E94070D32
:102E40000C94E00B0E94161C0C9410170E945E1C40
:102E50000C942217E92FE295EF70E250EE3070F4F7
:102E6000F0E0E255F84D0C94EB26803F19F020F489
:102E7000883E20F481E00895843FE1F380E00895E6
:102E8000883EC0F3813FD1F7F5CF93FB882780F9C7
:102E900008950E94DA1B0C942A17CF93DF9300D079
:102EA00000D00F92CDB7DEB70F900F900F900F901C
:102EB0000F90DF91CF910895CF93DF9300D000D092
:102EC00000D0CDB7DEB726960FB6F894DEBF0FBEA2
:102ED000CDBFDF91CF9108951F93CF93DF93C09122
:102EE000E80116E08091E9018C1304C0DF91CF91D5
:102EF0001F910895D0E01C9FF0011D9FF00D11243B
:102F0000E651FE4F408151816281738184819581B8
:102F10000E945C172196C770E5CF40911A0250912C
:102F20001B0260911C0270911D0280911E02909103
:102F30001F020C945C171F93CF93DF9380911F02A5
:102F4000807FA9F480911C02882389F08091E80198
:102F5000C091E90160911A0270911B02A0911D02BB
:102F6000B0911E02D62FD72316E0C81304C0DF91FC
:102F7000CF911F91089590E0109711F0DF3F19F461
:102F800001968770F2CF189F9001199F300D112480
:102F9000F901E651FE4F41814713F2CF40814613BC
:102FA000EFCF42814111ECCF438154814A1B5B0B2F
:102FB000483C510528F780911F028F7080618093F3
:102FC0001F02F901E151FE4F80818F708061808383
:102FD0008AE192E00E94E816DF91CF911F910C9454
:102FE0006C17AF92BF92CF92DF92EF92FF920F9346
:102FF0001F93CF93DF93CDB7DEB761970FB6F894E9
:10300000DEBF0FBECDBF8C0185E0F801DE011D964D
:1030100001900D928A95E1F7F80140815181E2809B
:103020008AE1C82E82E0D82E60911D0270911E02A6
:103030006115710509F461C190911A0220911B027A
:10304000892F82238F3F09F458C1A380B480F09068
:103050001C02F501E61BF70BFF2009F4FCC0809170
:103060001F02382F307FE83CF10508F0B2C0311163
:1030700079C0FE2C251323C0941321C0E1101FC07A
:103080008F70806180931F020E948D17C6010E947D
:10309000E81680911F02F80185838F2D61960FB687
:1030A000F894DEBF0FBECDBFDF91CF911F910F917E
:1030B000FF90EF90DF90CF90BF90AF900895AB2836
:1030C00029F0842F85238F3F09F033C180E0F82F4A
:1030D000F170DF2E80FF3CC08091E8012091E90172
:1030E00036E0821315C04D875E878D859E850E94D0
:1030F000DA1B292F22952F702230F0F0243018F59A
:103100009F70F1F0F8019581907FD1F4D12C1EC011
:1031100090E0389FF001399FF00D1124E651FE4FE9
:103120006181651306C06081641303C062816E1102
:103130000FC001968770D5CF9F7011F0882331F3AF
:10314000805E883018F3C8010E94E816FD2CA5CFD8
:10315000EE2009F4A2CF80911F02816080931F02AC
:10316000F12C9BCF251306C0941304C0F801EE2068
:1031700009F48DC04D875E878D859E850E94491715
:10318000882319F1EE2009F180911F02803270F03E
:1031900020911A0230911B0238872F831986BB8633
:1031A000AA868C87CE0107960E94E81686E0F80171
:1031B000AAE1B2E001900D928A95E1F70E949B1777
:1031C0000E948D17FF24F39468CFC8010E94E8166F
:1031D000F9CF311113C07A2DB98AA88A6E2D898949
:1031E0000E944D178AE192E00E94E81686E0F601FF
:1031F00011928A95E9F70E948D17B2CF25130FC05F
:1032000094130DC0E1100BC0F8018583C8010E9422
:10321000E81686E0F60111928A95E9F73ECF4D87D0
:103220005E878D859E850E944917882371F2EE2066
:1032300061F280911F02803208F4B8CF20911A0207
:1032400030911B023A8329831B82BD82AC828E831C
:10325000CE010196A9CFE83CF10508F041C0FE2C53
:10326000EE2009F4B2CF25132AC0941328C0809110
:103270001F0280FD1BC0982F907FC1F0F80185834D
:10328000903F31F0982F907F905F8F70892B8583CE
:10329000C8010E94E81686E0F801AAE1B2E00190B8
:1032A0000D928A95E1F70E948D17F7CE86E0F8011E
:1032B000AAE1B2E001900D928A95E1F7EECE4D873A
:1032C0005E878D859E850E94491781116FCF809101
:1032D0001F02816080931F02C8010E94E816DDCEA4
:1032E0007A2DB98AA88A6E2D89890E944D1786E0A9
:1032F000F60111928A95E9F7D6CFEE2009F465CF51
:103300004D875E878D859E850E944917F82E8823FC
:1033100009F45BCF86E0F801AAE1B2E001900D92DA
:103320008A95E1F78AE192E00E94A9130E949B1717
:10333000BACF81E08E25CBCE1F93CF93DF93CDB74D
:10334000DEB72C970FB6F894DEBF0FBECDBF4F830C
:10335000588769877A878B879C87CE0107960E945A
:10336000F117882369F08A859B85892B39F04F8175
:103370005885842F85238F3F09F071C016E05FC008
:1033800086E0FE013796DE01119601900D928A9536
:10339000E1F78A859B85892B89F38F81988589231D
:1033A0008F3F61F32091E90130E0C90101968770F8
:1033B00099274091E8014817190671F40E942617D1
:1033C0001092E9011092E80186E0EAE1F2E0DF0103
:1033D0001D928A95E9F7D2CF96E0929FD001939FF4
:1033E000B00D1124A651BE4FFE01319601900D92F1
:1033F0009A95E1F78093E9010E946C17BFCF819FF6
:10340000C001112486519E4F0E94F1178823E9F0D4
:10341000E091E8011E9FF0011124E651FE4F40812A
:10342000518162817381848195810E945C178091B2
:10343000E80190E00196877099278093E8018091D8
:10344000E8019091E9018913DACF2C960FB6F89430
:10345000DEBF0FBECDBFDF91CF911F91089569856B
:103460007A858B859C850E945C1788CF08950C9483
:10347000361A0E94371A6093650270936602809331
:103480006702909368020C94101708950C94391AEF
:103490000F931F93009165021091660220916702BD
:1034A00030916802602B712B822B932B1F910F910F
:1034B0000C94391A0F931F930091650210916602C4
:1034C0002091670230916802602371238223932345
:1034D0001F910F910C94391A0F931F93009165025D
:1034E000109166022091670230916802602771276F
:1034F000822793271F910F910C94391A0C94361A36
:103500000C947E1A0E94801A60936102709362028A
:1035100080936302909364020C94101760E070E053
:10352000CB010C94821A0F931F9341E050E060E0AE
:1035300070E08A019B0104C0000F111F221F331F7E
:103540008A95D2F7C901B8011F910F910C94821A84
:103550000F931F9341E050E060E070E004C0440F1F
:10356000551F661F771F8A95D2F78091610290914F
:103570006202A0916302B09164028A019B01082B50
:10358000192B2A2B3B2BC901B8011F910F910C94C9
:10359000821A0F931F9341E050E060E070E004C096
:1035A000440F551F661F771F8A95D2F7CB01BA01CA
:1035B00060957095809590950091610210916202DE
:1035C000209163023091640260237123822393234C
:1035D0001F910F910C94821A0F931F9341E050E0BA
:1035E00060E070E004C0440F551F661F771F8A9586
:1035F000D2F78091610290916202A0916302B09132
:1036000064028A019B01082719272A273B27C90141
:10361000B8011F910F910C94821A0F931F93009180
:103620006102109162022091630230916402602B6A
:10363000712B822B932B1F910F910C94821A0F9355
:103640001F930091610210916202209163023091F8
:10365000640260237123822393231F910F910C94A2
:10366000821A0F931F9300916102109162022091C0
:1036700063023091640260277127822793271F918C
:103680000F910C94821A089521E1929F800D1124CC
:10369000982F977041E001C0440F9A95EAF78695FC
:1036A0008695869595E0899FF0011124E05EFD4F97
:1036B00090E080E070E05191DF0111979B01082EAE
:1036C00002C0369527950A94E2F7217021952527A7
:1036D000242325272C9301968530910561F70895C1
:1036E00021E1929F800D1124982F977086958695E1
:1036F000869525E0829FF0011124E05EFD4F50E0A9
:1037000040E080E0219130E0092E02C036952795F7
:103710000A94E2F721703327042E01C0220F0A9485
:10372000EAF7822B4F5F5F4F4530510559F70895F7
:10373000BF92CF92DF92EF92FF920F931F93CF939E
:10374000DF938C01C0906102D0906202E09063022E
:10375000F09064028091650290916602A0916702E8
:10376000B0916802C82AD92AEA2AFB2ACFE1D0E020
:10377000BC2ED701C6010C2E04C0B695A79597950F
:1037800087950A94D2F780FD0EC0219788F7B12C57
:103790008B2DDF91CF911F910F91FF90EF90DF90D4
:1037A000CF90BF900895B8018C2F0E945E050197BD
:1037B00061F3EECFCF93DF93EC010E94981BBE0123
:1037C000DF91CF910C945E051F93CF93DF93EB01B4
:1037D0009091E701992331F0CB01DF91CF911F91B7
:1037E0000C94DA1B882379F0CB010E94981B182FC8
:1037F000682FCE010E94441BBE01812FDF91CF9123
:103800001F910C945E05CB010E94701B182FF4CF02
:10381000682F80910801909109010C94461E682F31
:1038200080910801909109010C94511E809108012A
:10383000909109010C945C1E809169028595859593
:103840008595089580916902877008959091690225
:10385000977081E009F480E008959091B30292FBA3
:10386000222720F9281751F080FB92F99093B30298
:103870008091B2029091B3020C94271D089580911B
:10388000B30282FB882780F991E089270C942D1CD4
:1038900081E00C942D1C80E00C942D1C80918D02F5
:1038A000089590918D02892B80938D0208958095C3
:1038B00090918D02982390938D02089510928D021D
:1038C000089590918C02892B80938C0208958095A5
:1038D00090918C02982390938C02089510928C0200
:1038E000089510928B02089580916A0208950895B8
:1038F0000C94771C9091B30292FD08C090916A02DB
:10390000981721F080936A020C94781C0895809196
:103910006A02882329F010926A0280E00C94781CD5
:103920000895E0910801F091090180918D02808352
:10393000E0910801F0910901808190918C02892B1E
:103940008083E0910801F0910901808190918B02C0
:10395000892B808390916A02992381F0E09108017C
:10396000F09109018081892B8083809108019091D9
:1039700009010E94B21D81110E94871C80910801DB
:10398000909109010C940C1208950C94C41C909110
:10399000B30292FD10C098E0899F90011124622B20
:1039A000609369020E94A81A8091690285958595A5
:1039B00085950C94C51C0C94A81A1092690280E09D
:1039C0000C94C51C909169028095892380936902AB
:1039D000282F277039F4282F082E000C330B92174C
:1039E000130621F49091B30292FF07C08595859547
:1039F00085950E94C91A0C94DD1C089580E00895F5
:103A00006FEF7FEF90E080E00C94382790E080E04B
:103A10000E94142721E08A3E9E4F09F020E0822F69
:103A2000089582E090E00C940C2783E090E00C94E1
:103A30000C27CF9384E090E00E940C27C82F82E2ED
:103A400090E00E940C27982F8C2FCF910895CF9350
:103A5000C92F682F84E090E00E941A276C2F82E221
:103A600090E0CF910C941A27AB01BC018FE090E05D
:103A70000C942C27AB01BC0183E190E00C942C2723
:103A800060E070E0CB010C943A1D60E070E0CB0187
:103A90000E94341D0C94401D6AEE7EEF90E080E0A1
:103AA0000E94382760E082E090E00E941A2760E0E0
:103AB00083E090E00E941A2710926502109266023D
:103AC000109267021092680260E084E090E00E9429
:103AD0001A2760E082E290E00E941A2760E085E009
:103AE00090E00E941A2760E086E090E00E941A278A
:103AF0006FEF87E090E00E941A2740E050E0BA01A3
:103B000088E090E00E942C2760E08DE090E00E9429
:103B10001A2740E050E0BA0188E190E00E942C278B
:103B200060E087E190E00E941A2740E050E0BA018F
:103B30008CE190E00E942C2770E060E080E290E051
:103B40000E94382740E050E0BA0188E190E00E94EE
:103B50002C270C94451D0C944C1D682F8EE090E092
:103B60000C941A27FC01329680911401882321F0CD
:103B70008091B2029EE187FF96E080E0915008F4C8
:103B8000089521912223D1F38F5FF8CF662301F1AD
:103B9000209114012223F1F02091B20227FF1AC0D4
:103BA000462F4695469546954E3190F4677021E034
:103BB00030E002C0220F331F6A95E2F7840F911D97
:103BC000FC01828190E02823392381E0232B69F4D2
:103BD00080E00895FC01329608962191261721F085
:103BE000E817F907D1F7F4CF81E008959C01FC01B3
:103BF00032969FEF80E04191461751F09F3F19F4B4
:103C0000411101C0982F8F5F8630A9F79F3F09F4BB
:103C10000895290F311D97FD3A95F90162830895A2
:103C2000FC01329608962191261303C0DF011197FB
:103C30001C92E817F907B9F70895E62FE695E6957F
:103C4000E695EE3168F4E80FF92FF11D677021E079
:103C500030E001C0220F6A95EAF78281822B8283CD
:103C60000895E62FE695E695E695EE3170F4E80FB7
:103C7000F92FF11D677021E030E001C0220F6A9535
:103C8000EAF7209582812823228308952091140148
:103C9000222329F02091B20227FD0C941D1E0C94C2
:103CA000F61D20911401222329F02091B20227FD54
:103CB0000C94311E0C94101EFC013296809114015C
:103CC000882351F08091B20287FF06C08EE1DF01A8
:103CD0001D928A95E9F7089586E0F9CF0895089531
:103CE0000C946F1E8091EC02843049F10E94701E8A
:103CF00080E00E94560510928F0288E190E020E457
:103D00000FB6F894A895809360000FBE20936000D2
:103D100083B7817F846083BF83B7816083BF7894DA
:103D2000889583B78E7F83BF0FB6F894A89580914E
:103D30006000886180936000109260000FBE08955B
:103D40000895CF930E946E1E0E94D8070E94A01E65
:103D5000C0E08C2F0E947407672B682B692B31F40D
:103D6000CF5FC630B1F780E0CF91089581E0FCCFFE
:103D700008950C94B81E0E9426170E9400120E94FB
:103D800056050C94B91E1F921FB61F9211248F93D3
:103D90009F93AF93BF9380918F02811113C0809145
:103DA000E4029091E502A091E602B091E70241960B
:103DB000A11DB11D8093E4029093E502A093E60259
:103DC000B093E702BF91AF919F918F911F901FBE5B
:103DD0001F90189582E084BD93E095BD9DE797BD47
:103DE00080936E0008952FB7F8948091E40290912B
:103DF000E502A091E602B091E7022FBF08952FB728
:103E0000F8946091E4027091E5028091E60290914D
:103E1000E7022FBF08959C014FB7F8948091E40208
:103E20009091E502A091E602B091E7024FBF821B9C
:103E3000930B089578941F921FB61F9211248F93AD
:103E40009F93AF93BF938091E4029091E502A0917C
:103E5000E602B091E7020196A11DB11D8093E40234
:103E60009093E502A093E602B093E702BF91AF9171
:103E70009F918F911F901FBE1F90189581E0809396
:103E8000E00080E28093D8001092C9008FE097E2B2
:103E90000197F1F700C0000087E090EBDC01809310
:103EA000F5029093F602A093F702B093F80288E12E
:103EB0009CE00FB6F894A895809360000FBE909395
:103EC0006000FFCF9093A9018093A801089580918D
:103ED000B0020895CF93DF9300D00F92CDB7DEB735
:103EE0009091EC02943011F589837B836A839093DF
:103EF000E9008FEF9091E800815095FD06C09AE6A9
:103F00009A95F1F700C08111F5CF8091E80085FF07
:103F10000DC050E040E063E070E0CE0101960E94E9
:103F2000F6218091E8008E778093E8000F900F9043
:103F30000F90DF91CF910895BC0184E00C946A1F2B
:103F4000BC0183E00C946A1F9C0184E08093E9002B
:103F50009FEF8091E800915085FD06C08AE68A9522
:103F6000F1F700C09111F5CF8091E80085FF0CC0FA
:103F700050E040E066E070E0C9010E94F6218091C7
:103F8000E8008E778093E8000895CF93DF93EC01EB
:103F9000809114018823B1F18091B20287FF32C071
:103FA00060E284E08093E9008FEF9091E800815017
:103FB00095FD06C09AE69A95F1F700C08111F5CFFC
:103FC0008091E80085FF1BC08091140170E050E0F3
:103FD00040E0811104C050E040E068E070E0CE01B4
:103FE0000E94F6218091E8008E778093E80080E2BD
:103FF000FE01A0E9B2E001900D928A95E1F7DF9110
:10400000CF91089568E081E0CDCFCF93FC0160327D
:1040100021F58091EC02843001F5C091E900CF7068
:104020002091EC00922F917020FD90E8C92B82E046
:104030008093E9008091E80080FF0CC050E040E0F0
:1040400060E270E0CF010E94F6218091E8008E7757
:104050008093E800CF70C093E900CF9108958091DC
:10406000EB02811109C00E94D3230E943524809164
:10407000E20084608093E20008951092EB020895BC
:1040800008950895089542E061EC81E00E944F2375
:1040900042E261EC84E00E944F2342E261EC82E064
:1040A0000E944F2342E260EC83E00C944F23809106
:1040B000EE02833009F461C030F48130D1F18230F6
:1040C00009F49DC008958A3009F489C08B3009F441
:1040D0006FC0893009F050C08091ED02813209F043
:1040E0004BC08091F1029091F202009719F0029773
:1040F00009F042C08091E800877F8093E8008091BA
:10410000E80082FF35C08091F2009091F3000297A1
:1041100029F48091F1008B7F813021F48091F100AE
:104120008093B0028091E8008B778093E8000C9434
:1041300083238091ED02813AF9F48091E800877F32
:104140008093E8008091F1029091F202892B61F452
:1041500060E280E992E070E00E9494228091E800A1
:104160008B778093E800089560E090E080E0F3CFE3
:104170008091EC028111C3CF08958091ED02813AC4
:10418000D9F78091F1029091F202892BA9F78091E1
:10419000E800877F8093E8008091E80080FFFCCFF3
:1041A000809114018093F1008091E8008E77BDCF5B
:1041B0008091ED02813201F78091F1029091F2023B
:1041C000892BD1F68091E800877F8093E8000E94D8
:1041D00083238091EF02809314010C942617809121
:1041E000ED02813249F68091E800877F8093E800F4
:1041F0000E9483238091F0028093B1020895809100
:10420000ED02813A09F0B8CF8091E800877F809372
:10421000E8008091E80080FFFCCF8091B102C2CF1E
:10422000CDB7DEB7A0970FB6F894DEBF0FBECDBFF7
:1042300084B7877F84BF0FB6F894A89580916000FB
:10424000886180936000109260000FBE80E890E06B
:104250000FB6F89480936100909361000FBE0E94A6
:1042600081120E94D3230E9435248091E200846051
:104270008093E20078940E94BC260E9495128AE006
:1042800091E00E94FB1113E08091EC028530B9F0BF
:104290000E949D128091EC028430C1F00E94911224
:1042A000F3CF0E94721E8091EA02882341F00E949F
:1042B000A11E882321F00E94E0210E9426178091F0
:1042C000EC02853071F30E94BB1EE2CF1093E9002F
:1042D0008091E80082FFE2CF8091E80090E085FFC6
:1042E00009C050E040E060E270E0CE0101960E941B
:1042F000452291E08091E8008B778093E800992334
:1043000069F260E2CE0101960E94A80DC7CF0C941D
:104310008921292F33272330310521F168F42130F9
:10432000310509F443C02230310509F444C090E05E
:1043300080E030E020E026C02132310551F1223208
:104340003105A9F76330710590F7FB01EE0FFF1FF0
:10435000E556FE4F2081318168567E4FFB018081FA
:1043600090E010C099278130910581F0009729F0E5
:104370000297E9F6E8E7F4E002C0E8E9F4E08491A6
:1043800090E09F01FA01318320830895EAE8F4E088
:10439000F6CF6330710558F6660F771FFB01EF55B6
:1043A000FE4F2081318189E090E0ECCF82E190E006
:1043B00027EF34E0E7CF8BE590E02CE934E0E2CF63
:1043C0008CE089BD8EE089BD09B400FEFDCF8091EF
:1043D000D8008F7D8093D8008091E0008260809328
:1043E000E0008091E00081FDFCCF0895AF92BF9284
:1043F000CF92DF92FF920F931F93CF93DF936C01C5
:10440000EB018A010E94A223F82E811123C001151D
:10441000110539F0F80180819181C81BD90BC80EB4
:10442000D91EB12CA12C2097A9F08091E80085FD20
:1044300022C08091E8008E778093E8000115110575
:10444000A1F0F80180819181A80EB91EB182A082ED
:1044500085E0F82E8F2DDF91CF911F910F91FF9066
:10446000DF90CF90BF90AF9008950E94A223882341
:10447000D1F2F82EEFCFF60181916F018093F10018
:104480002197FFEFAF1ABF0ACECFAF92BF92CF9264
:10449000DF92FF920F931F93CF93DF936C01EB0199
:1044A0008A010E94A223F82E811123C00115110553
:1044B00039F0F80180819181C81BD90BC80ED91E33
:1044C000B12CA12C2097A9F08091E80085FD22C095
:1044D0008091E8008B778093E80001151105A1F029
:1044E000F80180819181A80EB91EB182A08285E079
:1044F000F82E8F2DDF91CF911F910F91FF90DF90BC
:10450000CF90BF90AF9008950E94A2238823D1F24C
:10451000F82EEFCF8091F100F60181936F01219782
:10452000FFEFAF1ABF0ACECFFC018091F30290914A
:10453000F40286179707A0F06115710529F4909190
:10454000E8009E779093E80090E06115710551F4C2
:10455000911108C08091E80082FF33C080E0089587
:10456000BC01F2CF8091EC028823B9F18530B9F11A
:104570008091E80083FD2FC08091E80082FDEACFA2
:104580008091E80080FFE1CF2091F2003091F300AC
:104590006115710519F02830310558F091E0283087
:1045A000310509F090E02091E8002E772093E80093
:1045B000CCCF81918093F100615071092F5F3F4F03
:1045C000E7CF8091EC02882341F0853041F0809163
:1045D000E80083FFBFCF81E0089582E0089583E083
:1045E0000895FC018091F3029091F40286179707D9
:1045F000A0F06115710529F48091E8008E77809311
:10460000E80090E06115710551F4911108C08091A6
:10461000E80082FF34C080E00895BC01F2CF8091B1
:10462000EC028823C1F18530C1F18091E80083FD5F
:1046300030C08091E80082FDEACF8091E80080FFE1
:10464000E1CF2091F2003091F3006115710519F06E
:104650002830310558F091E02830310509F090E01C
:104660008091E8008E778093E800CCCF849180938E
:10467000F1003196615071092F5F3F4FE6CF809175
:10468000EC02882341F0853041F08091E80083FFFF
:10469000BECF81E0089582E0089583E00895982FC9
:1046A000973028F08F708093E90081E0089590930F
:1046B000E900242F762F50E0981731F07091EC002C
:1046C0002091ED005091F00021FD02C09F5FE8CFE6
:1046D0003091EB003E7F3093EB003091ED003D7F59
:1046E0003093ED003091EB0031603093EB0070932C
:1046F000EC002093ED005093F0002091EE0027FD98
:10470000E5CF80E008958091ED0287FF13C080918E
:10471000E80082FF06C08091E8008B778093E80074
:1047200004C08091EC028111F2CF08958091EC02D7
:104730008823D9F38091E80080FFF8CF8091E800CA
:104740008E77ECCF2091E4003091E50095E6A90149
:104750002091EC00822F817020FF06C08091E8003C
:1047600080FF06C080E008952091E80022FD1AC075
:104770008091EC02882389F0853089F08091EB00EC
:1047800085FD0FC02091E4003091E50042175307EA
:10479000F9F29150E1F684E0089582E0089583E013
:1047A000089581E008950E9444240E944C24E0EE84
:1047B000F0E0808181608083E8EDF0E080818F7798
:1047C000808319BCA7EDB0E08C918E7F8C938081A3
:1047D0008F7E80831092EB0208950F931F93CF93E7
:1047E000DF930E9444240E944C24C8EDD0E08881CD
:1047F0008F77888388818068888388818F7D88838C
:10480000E7EDF0E080818068808319BC1092EC02B3
:104810001092E8021092EA021092E90200EE10E013
:10482000F80180818B7F808388818160888342E06A
:1048300060E080E00E944F23E1EEF0E080818E7F17
:104840008083E2EEF0E080818160808380818860F7
:104850008083F80180818E7F808388818061888356
:10486000DF91CF911F910F910895E8EDF0E08081E5
:104870008F7E8083E7EDF0E080818160808381E03E
:104880008093EB020C94ED23E8EDF0E080818C7FC7
:1048900080831092E20008951092DA001092E100F5
:1048A00008951F920F920FB60F9211242F933F93EA
:1048B0004F935F936F937F938F939F93AF93BF9328
:1048C000EF93FF938091E10082FF0BC08091E200A3
:1048D00082FF07C08091E1008B7F8093E1000E94FE
:1048E000BB268091DA0080FF19C08091D80080FF3C
:1048F00015C08091DA008E7F8093DA008091D90014
:1049000080FF96C08CE089BD8EE089BD09B400FEB1
:10491000FDCF81E08093EC020E942F208091E10086
:1049200080FF19C08091E20080FF15C08091E200F5
:104930008E7F8093E2008091E20080618093E200AC
:104940008091D80080628093D80019BC85E0809364
:10495000EC020E9441208091E10084FF2BC08091F5
:10496000E20084FF27C08CE089BD8EE089BD89B557
:10497000982F917080FFFBCF8091D8008F7D80931E
:10498000D8008091E1008F7E8093E1008091E20069
:104990008F7E8093E2008091E20081608093E2004C
:1049A0008091E802882309F449C084E08093EC02F6
:1049B0000E9442208091E10083FF29C08091E200A3
:1049C00083FF25C08091E100877F8093E10082E032
:1049D0008093EC021092E8028091E1008E7F809338
:1049E000E1008091E2008E7F8093E2008091E200FE
:1049F00080618093E20042E060E080E00E944F230B
:104A00008091F00088608093F0000E944020FF9128
:104A1000EF91BF91AF919F918F917F916F915F9136
:104A20004F913F912F910F900FBE0F901F901895AF
:104A300019BC1092EC020E943D2070CF8091E300DF
:104A400087FD93E09093EC02B3CF1F920F920FB6C5
:104A50000F9211242F933F934F935F936F937F9304
:104A60008F939F93AF93BF93CF93DF93EF93FF9376
:104A7000D091E900DF708091EC00C82FC17080FDFB
:104A8000C0E81092E9008091F000877F8093F000E9
:104A900078940E9469251092E9008091F000886066
:104AA0008093F000CD2BCF70C093E900FF91EF9180
:104AB000DF91CF91BF91AF919F918F917F916F9136
:104AC0005F914F913F912F910F900FBE0F901F90CC
:104AD00018951F93CF93DF93CDB7DEB7AA970FB684
:104AE000F894DEBF0FBECDBF8DEE92E02091F100B5
:104AF000FC012193CF01F2E0853F9F07B9F70E94A7
:104B000057208091E80083FF1EC18091ED029091B3
:104B1000EE029A3008F017C1E92FF0E0E454F84DA6
:104B20000C94EB26803899F0823809F00CC1809102
:104B3000F1028F70873008F006C18093E900809100
:104B4000EB0085FB882780F91092E90006C0809170
:104B5000E9029091EA02911182609091E800977FBA
:104B60009093E8008093F1001092F1008091E800AA
:104B70008E77E5C0882309F4D3C0823009F0E3C002
:104B80008091EF028111D6C08091F1028F702FEFDA
:104B9000280F263008F0D7C08093E9002091EB0061
:104BA00020FFC8C0933031F48091EB008062809385
:104BB000EB00C0C09091EB0090619093EB0021E07E
:104BC00030E001C0220F8A95EAF72093EA001092A4
:104BD000EA008091EB008860EACF8111B4C01091A7
:104BE000EF021F778091E3008078812B8093E300B0
:104BF0008091E800877F8093E8000E948323809162
:104C0000E80080FFFCCF8091E30080688093E300A0
:104C100082E0111183E08093EC0295C080588230CD
:104C200008F091C08091EF029091F0028C3D23E05A
:104C30009207A1F583E08A838AE289834FB7F894CB
:104C4000DE01139620E03EE051E2E32FF0E05093C6
:104C50005700E49120FF03C0E295EF703F5FEF70D3
:104C60008E2F90E0EA30C0F0C7968D939D932F5F12
:104C7000243159F74FBF8091E800877F8093E80087
:104C80006AE270E0CE0101960E9494228091E800D1
:104C90008B778093E80057C0C096E7CF6091F10210
:104CA0007091F202AE014F5F5F4F0E948721BC01FD
:104CB000892B09F448C09091E800977F9093E80011
:104CC00089819A810E94F122E1CF8038E1F58091BB
:104CD000E800877F8093E8008091E8028093F100EC
:104CE00045CF811130C09091EF02923060F58091F4
:104CF000E800877F8093E8009093E8020E94832376
:104D00008091E802882311F084E005C08091E300DF
:104D100087FDFACF81E08093EC020E94432013C00C
:104D20008091EF02813079F481E0933009F080E0E6
:104D30008093EA021092E9008091E800877F8093D7
:104D4000E8000E9483238091E80083FF0AC08091DD
:104D5000E800877F8093E8008091EB008062809379
:104D6000EB00AA960FB6F894DEBF0FBECDBFDF9161
:104D7000CF911F9108950895CF938091EC028823DD
:104D8000A1F0C091E900CF709091EC00892F817063
:104D900090FD80E8C82B1092E9008091E80083FD27
:104DA0000E946925CF70C093E900CF91089597FBC9
:104DB000072E16F4009407D077FD09D00E94F8263C
:104DC00007FC05D03EF4909581959F4F089570950E
:104DD00061957F4F0895EE0FFF1F0590F491E02D30
:104DE00009946927962769277827872778270895C0
:104DF000AA1BBB1B51E107C0AA1FBB1FA617B70701
:104E000010F0A61BB70B881F991F5A95A9F780951C
:104E10009095BC01CD010895F999FECF92BD81BD59
:104E2000F89A992780B50895A8E1B0E042E050E0F3
:104E30000C944027262FF999FECF92BD81BDF89A98
:104E4000019700B4021639F01FBA20BD0FB6F894CE
:104E5000FA9AF99A0FBE08950396272F0E941B27EE
:104E60000E941A27252F0E941B27242F0C941B27F2
:104E70000196272F0E941B270C941A27DC01CB01D7
:104E8000FC01F999FECF06C0F2BDE1BDF89A31965A
:104E900000B40D9241505040B8F70895F894FFCFF8
:104EA000A8099F09AB099D09F009F0099D09F009BE
:104EB000F009C709F009D209DD09F009F009F00984
:104EC000F0099D09F009F0099D09F009B909F009F7
:104ED000F009EE09EE09EE09EE09EE09EE09EE0918
:104EE000EE09EE09E809F009A8099B09F009F009A3
:104EF000F009F009F009F009F009F009F009F009EA
:104F0000E809F009F0099D09F009EC09EC09EC0940
:104F1000EC09EC09EC09EC09EC09EC09E809BA0D1B
:104F2000C70DEF0DFB0D060E110E140E140E140E10
:104F3000140E140E170E1B0E230E300E3D0E400ED7
:104F4000430E500EFF14FF1457155715A915C5151C
:104F50002C152C15D0155C166B166B1635173517DE
:104F60003E173E1740173E173E173E1735173517A9
:104F700045173E173E1745179225BA25A326BA2591
:0C4F8000A326ED250E26A326652671262B
:104F8C002808641E140A321E6B02671FC51FA41F5B
:104F9C00A01F9C1F01E200E900EA00B500B600B7B3
:104FAC0000CD008301CC008A0192019401210223DF
:104FBC000224022502260227022A02B300B4006F43
:104FCC00007000818283F2F3F4F5F6F7000102031E
:104FDC000405060795969734353660C1C001020367
:104FEC0004050607080900E200E900EA00B500B66E
:104FFC0000B700CD008301CC008A019201940121FD
:10500C0002230224022502260227022A02B300B43C
:10501C00006F0070008182834022B6E10509052BE8
:08502C0005AE04C704E704000F
:00000001FF
