:100000000C949F040C94D7040C94D7040C94D7043C
:100010000C94D7040C94D7040C94D7040C94D704F4
:100020000C94D7040C94D7040C947B3D0C944F3E55
:100030000C9488370C94D7040C94D7040C94D704F0
:100040000C94D7040C94D7040C94D7040C94D704C4
:100050000C94D7040C942A380C94D7040C94D7042D
:100060000C94D7040C94D7040C94D7040C94D704A4
:100070000C94D7040C94D7040C94D7040C94D70494
:100080000C94D7040C94D7040C94D7040C94D70484
:100090000C94D7040C94D704290000003A003B00CC
:1000A0003C003D003E003F00400041004200430054
:1000B0004400450046004700480035001E001F0070
:1000C0002000210022002300240025002600270014
:1000D0002D002E002A0049004A004B002B0014007E
:1000E0001A000800150017001C0018000C00120070
:1000F00013002F00300031004C004D004E0039003D
:1001000004001600070009000A000B000D000E0095
:100110000F00330034000000280000000000000041
:10012000E1001D001B000600190005001100100071
:100130003600370038000000E500000000005200E3
:100140000000E000E300E200000000002C000000DE
:1001500000000000E600E70076000000E400500028
:1001600051004F00010000000100010001000100EA
:100170000100010001000100010001000100010077
:100180000100010001000100010001000100010067
:100190000100010001000100010001000100010057
:1001A0000100010001000100010001000100010047
:1001B0000100010001000100010001000100010037
:1001C0000100010001000100010001000100010027
:1001D0000100010001000100010001000100010017
:1001E000010000000100000000000000010001000B
:1001F00001000100010001000100010001000100F7
:1002000001000000010000000000010000000100EA
:1002100001000100000000000100000000000000DB
:1002200001000100010000000100010001000100C7
:1002300001000000010001000100010001000100B7
:1002400001000100010001000100010001000100A6
:100250000100010001000100010001000100010096
:100260000100010001000100010001000100010086
:100270000100010001000100010001000100010076
:100280000100010001000100010001000100010066
:100290000100010001000100010001000100010056
:1002A0000100010001000100010001000100000047
:1002B0000100000000000000010001000100010039
:1002C0000100010001000100010001000100000027
:1002D0000100000000000100000001000100010019
:1002E000000000000100000000000000010001000B
:1002F00001000000010001000100010001000000F8
:1003000001000100010001000100010001000100E5
:1003100001000100010001000100010001000100D5
:1003200001000100010001000100010001000100C5
:1003300001000100010001000100010001000100B5
:1003400001000100010001000100010001000100A5
:100350000100010001000100010001000100010095
:100360000100010001000100010001000100010085
:100370000100010001000100010000000100000077
:100380000000000001000100010001000100010067
:100390000100010001000100010000000100000057
:1003A0000000010000000100010001000000000049
:1003B0000100000000000000010001000100000039
:1003C0000100010001000100000000000000000029
:1003D0002A2B2800000000000000000000000000A0
:1003E00000000029000000002C1E342021222434AB
:1003F0002627252E362D3738271E1F20212223247D
:1004000025263333362E37381F0405060708090A18
:100410000B0C0D0E0F101112131415161718191AB4
:100420001B1C1D2F3130232D350405060708090A32
:100430000B0C0D0E0F101112131415161718191A94
:100440001B1C1D2F3130354C000000000000000047
:10045000000000000000000000000000000000009C
:100460000000000000000000000000007E0F00D42B
:10047000FFFFFFC700000078FD377A585A000004DC
:10048000E6D6B4460200210116000000742FE5A351
:10049000E0061601BA5D003D8889C65436C3174F81
:1004A000E4E627CAFD6CEA7150F7018369B303568D
:1004B0009D3871AFCB354CD92E971E5B3AF4891C11
:1004C0001F76362F84CA257EAD9C94700C49472038
:1004D000FB6BB281DDDB9FC04DFA4332473948EAFE
:1004E00056258FF01E87DC0841BA326682E2C8A822
:1004F0002B1521DA5F18AB347E8B6655C9893EF027
:10050000D86A5BE1C960820ECB9B7F66DC69E046FE
:1005100027C743FD2467CDC1C49F8391173B2E9EFF
:10052000DB199F75A5174DFF7C18B3DE8026335F5E
:10053000B38036F766FBBED4E12B0C2D2B4678FD3D
:1005400084FE5ACAB66264B07E0EDE8BF7EA0B8C6C
:100550000B75FDFB985B5BADFCC1010FFFB9110191
:100560004C050B3D2163E490F43F0C77A2852911E3
:100570003749C8311F5F845E6593C1FFA70C957D25
:10058000661B9F77434ACC6567C7EA55C7265DF768
:100590004D270069E8AC9BF745985832C6723B116D
:1005A000A836D1AC8792059D9D3E19359C9E382476
:1005B0002A937B8C76721A3E2D6C9A79963E9572B0
:1005C00022AAF983030C07E3E6D0AB58D0EA390A34
:1005D000396C9477E8B35DA70EFB12EC082C9A29CE
:1005E0006B7867E9459689CFEE1B7411709CC355F3
:1005F0000E09235C226C639423C8989AFE95F77EBB
:10060000BD44CAF058FAFF40F1D079260C06BEE48A
:1006100028D08E43DEB359EF82BBD1E46A67C6119E
:10062000BBC25F39CF61A189764CEBD3500C621607
:10063000A0D76D5E09D44FA7313C4081864F7A9098
:10064000D45C5358802DA6EA2224CD6070DCEFCF15
:10065000AF0000003A6F1E66421292560001D603A8
:10066000970C000046711F69B1C467FB02000000CF
:100670000004595A0100010080077226A4260000D8
:10068000020002007C077226A4260000030001007D
:1006900081077226A4260000040002006607722665
:1006A000A4266C260500010082077226A4260000FD
:1006B0000600020068077226A42600000700020058
:1006C0007E077226A4260000080001008307722618
:1006D000A4260000090002006A077226A4264B2502
:1006E0000A0002006C077226A4264B250B000200AC
:1006F0006E077226A4264B250C0002007007722696
:10070000A4264B250D00020072077226A4264B2555
:100710000E00020074077226A4264B250F0002006B
:1007200076077226A4264B25100002007807722651
:10073000A4264B25110002007A077226A4264B2519
:100740001200020084077226A42600001300020093
:1007500086077226A426000014000100880772266E
:10076000A42600001500000000007025F3250000FD
:100770001C037600690061006C003A0066003600D8
:100780003400630032006200330063000000100395
:1007900053006300610072006C006500740000008B
:1007A0000C034C0075006300690064000000040342
:1007B000090409025B00030100A0FA09040000011A
:1007C00003010100092111010001224000070581F8
:1007D00003080001090401000203000000092111BF
:1007E0000100012222000705820320000107050302
:1007F0000320000109040200010300000009211187
:1008000001000122BC000705840320000112010041
:1008100002000000086776040001000102030106DF
:1008200060FF0961A1010962150026FF009520758E
:100830000881020963150026FF00952075089102C2
:10084000C005010902A10185020901A100050919DC
:100850000129051500250195057501810295017590
:100860000381010501093009311581257F95027544
:1008700008810609381581257F95017508810605CF
:100880000C0A38021581257F950175088106C0C0C4
:1008900005010980A101850319012AB70015012668
:1008A000B700950175108100C0050C0901A10185F3
:1008B0000419012AA002150126A0029501751081D4
:1008C00000C005010906A1018506050719E029E711
:1008D000150025019508750181020507190029EF0A
:1008E0001500250195F075018102050819012905FA
:1008F000950575019102950175039101C0050109E6
:1009000006A101050719E029E715002501950875DD
:100910000181029501750881010507190029FF155C
:100920000026FF00950675088100050819012905B4
:10093000950575019102950175039101C00011247F
:100940001FBECFEFD0E1DEBFCDBF04B603FE18C09F
:1009500080919B0790919C07A0919D07B0919E0765
:100960008730904BA740B04B59F410929B071092E0
:100970009C0710929D0710929E07E0E0F8E709950A
:1009800011E0A0E0B1E0E4E4F2E802C005900D92CD
:10099000A23BB107D9F727E0A2EBB1E001C01D925D
:1009A000AB39B207E1F70E9438180C94B6400C94AA
:1009B00000009C013A9521153F4150F5FC01EE27BE
:1009C000F170BC0166277270AC01442754709C0121
:1009D0002227387094FF0EC080E1EF2B09F480E0ED
:1009E000672B09F08062452B09F08064232B89F086
:1009F0008068089581E0EF2B09F480E0672B09F00F
:100A00008260452B09F08460232B19F088600895DB
:100A100080E00895CF93DF93EB010E94D904FE019B
:100A2000DF91CF910994CF93DF93EC01805E910920
:100A3000089720F06AEE78E0209711F46CED78E0EA
:100A4000CE010E940A058C2FDF91CF910C94CC0728
:100A5000CF93DF93EC010E946308CE01805E910981
:100A6000089720F061EF78E0209711F463EE78E0CA
:100A7000CE01DF91CF910C940A0581E0089581E0C9
:100A800008950C943F0508950C9443051F93CF934C
:100A9000DF9300D000D00F92CDB7DEB749835A83E1
:100AA0006B833091B50189819A8131111DC0662314
:100AB000B9F02223A9F00E94F80C182F682F898121
:100AC0009A810E949B0C69817A81812F0F900F90EF
:100AD0000F900F900F90DF91CF911F910C940724EE
:100AE0000E94CB0C182FEFCF0E94F80C69817A81FD
:100AF000EDCFFC01262F86819781009739F4408144
:100B000051816281738184810C9446050895CF934D
:100B1000DF93EC0161E00E947905BE01DF91CF9186
:100B20000C94A22DCF93DF93EC0160E00E94790535
:100B3000BE01DF91CF910C944405E1E0F0E0DF01CC
:100B400002C0AA0FBB1F6A95E2F7BD01DF0102C018
:100B5000AA0FBB1F4A95E2F76A2B01C0EE0F2A9538
:100B6000EAF7962F9823961302C08E2B0895E095EE
:100B70008E230895242F462F682F8091DF010E9435
:100B80009D050C94580C0C9499160C949C16089581
:100B90000E940C090E94C7052FE78AE196E02150C8
:100BA00080409040E1F700C000000C944E380F9355
:100BB0001F93CF93DF93EC018B010E941335B80193
:100BC000CE010E945F1B882309F456C0B801CE01F4
:100BD0000E947F21882309F44FC0B801CE010E94F2
:100BE0004105882309F448C0B801CE010E940232B1
:100BF000882309F441C0B801CE010E9459358823E9
:100C0000D9F1B801CE010E949B2A8823A9F1B8012D
:100C1000CE010E945E34882379F1B801CE010E9492
:100C2000FB27882349F1B801CE010E94A530882313
:100C300019F1F8018281882361F0CA35FDE5DF07EB
:100C400021F170F4C115ECE5DE07A1F0CE3DDC45E5
:100C5000C9F0C801DF91CF911F910F910C943D0510
:100C6000CB358DE5D807A1F0CC35DD4591F70E9455
:100C7000BA12EFCF0E94C80580E0DF91CF911F919B
:100C80000F9108950E947313F7CF0E94C312E1CF12
:100C90000E94C612DECFCF93DF93EC0161E00E9489
:100CA0007905BE01DF91CF910C94D7050E946A3778
:100CB0000C943F070E9442070C946E37DF92EF922C
:100CC000FF920F931F93CF93DF93E82FF0E0E85349
:100CD000FC4FD490282F26952695269530E0F901D3
:100CE000E859FB4F0491877010E0082E02C015955B
:100CF00007950A94E2F701701127F901E85AFB4FB2
:100D0000E490F12C082E02C0F594E7940A94E2F7DF
:100D100091E0E922FF24F901E85BFB4FC491D0E0A8
:100D200002C0D595C7958A95E2F7C170DD270115F8
:100D3000110519F081EE0E94CC07E114F10419F0BD
:100D400086EE0E94CC078D2D0E94D008EF2819F066
:100D500086EE0E946308012B19F081EE0E94630861
:100D6000CD2B51F08CE2DF91CF911F910F91FF902D
:100D7000EF90DF900C94D008DF91CF911F910F91ED
:100D8000FF90EF90DF900895EF92FF920F931F93E3
:100D9000CF93DF93EC01162F0AE08881882309F4B2
:100DA00054C0813009F04EC08981813099F47E01B0
:100DB00022E0E20EF11C8A810E94D008E701219610
:100DC000812F815050F3EFECF7E03197F1F700C03D
:100DD0000000F7CF823041F47E0182E0E80EF11C82
:100DE0008A810E94CC07EACF833041F47E01E2E0A1
:100DF000EE0EF11C8A810E946308E0CF843011F06E
:100E00002196DDCF2A81229690E080E0AE014F5FEF
:100E10005F4F2053330B2A30310548F0019778F2A9
:100E2000EFECF7E03197F1F700C00000F7CF089F33
:100E3000B001099F700D1124C901860F971F2981E8
:100E4000EA01E4CF0E945E06BACFDF91CF911F91F5
:100E50000F91FF90EF90089560E00C94C406089500
:100E60000C942F0781E008950C9432070895CF93D6
:100E7000C82F0E9430078C2FCF910C94340780E04C
:100E80000C9437070E9432360C9437070E94323692
:100E90009091B401981721F08093B4010C94370716
:100EA0000895019708F40895EFECF7E03197F1F712
:100EB00000C00000F6CFCF93DF93CDB7DEB72D97FC
:100EC0000FB6F894DEBF0FBECDBF49875A876B8738
:100ED0007C878D878C859D85892B29F0CA01892384
:100EE0008F3F09F04AC08B8581110E94AC111D8291
:100EF0001E821F82188685E0FE013996DE0111965A
:100F000001900D928A95E1F78091930682FD12C0BF
:100F10008091680790916907892B61F00E946811A0
:100F2000882319F082E00E9489120E9444118111E5
:100F30000E94EF118C819D81892B99F429813A813E
:100F40004B815C816D817E818F8198850E948D109F
:100F50002D960FB6F894DEBF0FBECDBFDF91CF91B7
:100F6000089589819A8189238F3F41F3CE010196AB
:100F70000E9487058111E2CFEBCF8091B60190915D
:100F8000B70101969093B7018093B601ACCFFC01F5
:100F9000808191810C94250DCF93C82F882309F46B
:100FA00090C08238C1F40E94323681FD8AC089E344
:100FB0000E942D110E94FD112FEF80E792E0215039
:100FC00080409040E1F700C0000089E30E943411A6
:100FD000CF910C94FD118338A1F40E94323680FD2C
:100FE00070C083E50E942D110E94FD112FEF80E754
:100FF00092E0215080409040E1F700C0000083E57E
:10100000E5CF8438A1F40E94323682FD5AC087E4CD
:101010000E942D110E94FD112FEF80E792E02150D8
:1010200080409040E1F700C0000087E4CFCF8CEF14
:101030008C0F813AB8F48C2F0E94EA2F811141C0A5
:101040006C2F80910001909101010E94A6368823A7
:1010500029F08C2F0E9434110E94FD118C2F0E94C8
:101060002D11B6CF80E28C0F883048F4C77081E034
:1010700001C0880FCA95EAF70E948C11A9CFEBE551
:10108000EC0FE33040F4F0E0E85AFE4F808190E04E
:10109000CF910C946636E8E5EC0FE73150F4F0E0C0
:1010A000EE0FFF1FE65DFE4F80819181CF910C9482
:1010B0007C36C03F30F08C2F0E94DD18CF910C940D
:1010C000C819CF910895882309F452C0823871F469
:1010D0000E94323681FF4CC089E30E942D110E948C
:1010E000FD1189E30E9434110C94FD11833859F4E9
:1010F0000E94323680FF3CC083E50E942D110E9481
:10110000FD1183E5EFCF843859F40E94323682FF17
:101110002FC087E40E942D110E94FD1187E4E2CFC9
:101120009CEF980F913AF0F290E2980F983050F4BB
:10113000877091E001C0990F8A95EAF7892F0E9484
:101140009211D2CF9BE5980F933020F490E080E08D
:101150000C94663698E5980F973120F490E080E083
:101160000C947C36803F20F00E9445190C94C819DD
:1011700008951F93CF93DF93182FEB010E94CC07A4
:10118000209731F4812FDF91CF911F910C94630848
:101190008FEC97E00197F1F700C000002197F0CFA6
:1011A0006091860770918707893321F060918407E9
:1011B000709185070C94B908882321F00E948C1146
:1011C0000C94FD110895882321F00E9492110C9433
:1011D000FD110895882321F00E949F110C94FD11A8
:1011E0000895882321F00E94A5110C94FD11089503
:1011F00090E080E00E94663690E080E00E947C36BD
:101200000E94AC110E94FD110E94EF1A0C94C819A3
:101210000E943B110C94F8080E9499110C94080943
:1012200092959F70963091F058F4925F9F70923033
:1012300058F4803F19F030F4883E30F481E008958E
:101240009A5FF4CF843FD1F380E00895883EB0F3F5
:10125000813FD1F7F3CFFC0186819781009721F080
:101260000E948E140C941009808191810E94250D9A
:10127000F9CFBF92CF92DF92EF92FF920F931F931D
:10128000CF93DF936C01EB01FC0112810581029584
:101290000F700E948211E82E8823B9F0E12E1123ED
:1012A000A1F08D2F807F803421F080E28C0F883078
:1012B000D0F08091930682FD16C082E00E948912D0
:1012C0000E94821191E0E82EE926BD2EB2942FE013
:1012D000B222FBE0FB1508F47CC0EB2DF0E0E854F3
:1012E000FF4B0C942940E12CF0CF2D2F2F70F22EC4
:1012F0008D2F807F19F0F29490EFF922112399F04D
:10130000FF2059F080E28C0F883010F0C11107C027
:101310008F2D0E948C110E94FD118C2F52C08F2D99
:101320000E949F11F8CF8C2F0E946308FF2009F4C0
:1013300050C080E28C0F883010F0C11104C08F2D96
:101340000E94921103C08F2D0E94A5110E94FD11D1
:1013500040C03D2F3F70F32E8D2F807F803219F0DB
:10136000F29480EFF822CC23F1F0C13009F49BC055
:10137000112309F4A4C0002309F477C020E0F6018A
:10138000408151816281738184810E944605B6014A
:101390000E94B0278111C1CFF601858180FFBDCFAA
:1013A0008F70858362C08091930682FF41C01123B4
:1013B00059F0FF2029F08F2D0E948C110E94FD1101
:1013C00080E00E94CC0705C080E00E946308F11015
:1013D000B6CFEB2DE850FF0B349720F40E94323645
:1013E0000E943707CE010E9410098111ABC11092F3
:1013F000B7011092B601EE2009F4C5C10E94641134
:1014000080FDC1C1F60112820E945E110E94690C2A
:10141000C6010E94EB0B0E945E11DF91CF911F91DC
:101420000F91FF90EF90DF90CF90BF900C94740CD1
:101430001123E9F0011106C00E94BB118F290E94FF
:10144000DC08C7CF013031F40E94BB118F290E9404
:10145000D711BFCF80918207823070F38013ECCF19
:101460000E94EF118F2D0E94C1118F2DE8CF011125
:1014700006C00E94EF118F2D0E94E308AACF809131
:101480008207013059F4823008F4A3CF0E948911F9
:101490008F2109F49ECF0E94CA11EBCF823048F30E
:1014A0000813E7CF96CF80918807112321F080178A
:1014B00008F48FCFDACF081708F08BCFDCCF0023EA
:1014C000D1F28091860790918707C93321F08091EE
:1014D0008407909185070E9451078C2F0E94630812
:1014E00078CF8D2F86958695837061F0813009F0D5
:1014F00070CFCE019370111102C090E080E00E9485
:101500007C3667CFCE019370111102C090E080E06D
:101510000E9466365ECF8C2F112329F00E94DD18C1
:101520000E94C81956CF0E944519FACF8D2F83709B
:1015300081F511114ECF4C2F429546954770440FBF
:10154000440F8C2F8F70042E01C0880F0A94EAF785
:101550002C2F2071C4FF07C02FE030E001C0220F04
:101560004A95EAF720959D2F969596959370822B34
:10157000923049F058F4913019F00E944A0C29CF6A
:101580000E94450C26CF0E944F0C23CF0E94430C93
:1015900020CF8695112311F08D2F8170882309F4B7
:1015A00018CF4C2F429546954770440F440F8C2F0F
:1015B0008F70042E01C0880F0A94EAF72C2F207137
:1015C000C4FF07C02FE030E001C0220F4A95EAF7C0
:1015D00020959D2F969596959370822B923049F089
:1015E00058F4913019F00E94900CF3CE0E948B0CAD
:1015F000F0CE0E94950CEDCE0E94580CEACEFD2F45
:10160000FF70FF2E112329F08F2F0E94690C8C2F61
:1016100016CF8C2F0E94E3088F2D0E94740CD9CE18
:10162000C23F51F160F4C03FB9F0C13F81F01123D6
:1016300009F483C0011171CE8D2F8F7121C0C33F7A
:1016400011F1C43FA1F78091930682FF26C08D2F30
:101650008F71112311F314C080918807112341F079
:10166000081708F0B6CE8D2F8F710E94800CB1CE76
:10167000801708F4AECEF7CF8D2F8F711111CDCF1B
:101680000E94690CA6CE112329F08D2F8F710E9424
:10169000610C9FCE0E945E0C9CCE809182078230AE
:1016A000A8F11123F9F00E9441110E9492110E94A9
:1016B0006411843041F40E9480128D2F8F710E943A
:1016C000740CE12C86CE809182070817D0F72D2F5D
:1016D0002F71F22E822F0E94690C63E08F2D0E94E1
:1016E0006412EFCF0E9441110E948C1180918207F9
:1016F000081740F00E9480120E94CA1164E08D2FEA
:101700008F71EDCF81E00E948912DBCF112359F058
:101710003D2F3F71F32E832F0E94690C63E08F2DC4
:101720000E94641256CE81E00E948912023008F4B1
:1017300050CE82E00E9489124CCE0111C2CE8D2F74
:101740008F716BCF112319F0011151CE54CE0111BD
:101750004ECE20E0F6014081518162817381848107
:101760000E944605B6010E94BB27882309F43FCE9C
:101770008091B6019091B701029709F038CE8C2F75
:101780000E94D00834CEDF91CF911F910F91FF902E
:10179000EF90DF90CF90BF9008950F931F93CF935A
:1017A000DF93EC018E819F81009779F00E948E1467
:1017B0008C010E949A0C0E94420CB801CE01DF916C
:1017C000CF911F910F910C943909688179818A8199
:1017D0000E942F0DEDCFCF93DF93EC018B819C8185
:1017E000892B29F08881998189238F3F59F4DF91D2
:1017F000CF910895CE010E94CD0BCE01DF91CF9104
:101800000C949205CE010E944B068111F3CF0E94E9
:101810008211882361F38A81882349F3809193069A
:1018200082FDE5CF82E0DF91CF910C948912CF93B6
:10183000DF9300D000D00F92CDB7DEB70F900F909E
:101840000F900F900F90DF91CF910895CF93DF937A
:10185000CDB7DEB728970FB6F894DEBF0FBECDBF69
:1018600028960FB6F894DEBF0FBECDBFDF91CF91A3
:10187000089508950C94390C0E943A0C8093E0016D
:101880000C94F80808950C943C0C9091E001892B7D
:101890000C943C0C9091E00189230C943C0C9091A9
:1018A000E00189270C943C0C0C94390C0C94540CDA
:1018B0000E94560C8093DF010C94F80880E00C9491
:1018C000580C91E001C0990F8A95EAF7892F0C9482
:1018D000580C21E030E001C0220F8A95EAF7809190
:1018E000DF01822B0C94580C21E030E001C0220F64
:1018F0008A95EAF720958091DF0182230C94580C99
:1019000021E030E001C0220F8A95EAF78091DF01E3
:1019100082270C94580C9091DF01892B0C94580C61
:101920009091DF0189230C94580C9091DF01892755
:101930000C94580C08959E3F69F1E82F21E1929F85
:10194000E00D11248E2F877041E001C0440F8A956D
:10195000EAF7E695E695E69583E0E89FF001112425
:10196000E854FE4F30E020E070E05191DF01119724
:10197000CB01022E02C0969587950A94E2F78170FA
:1019800081958527842385278C932F5F3F4F2330B4
:10199000310559F708959E3F49F1E82F21E1929FC3
:1019A000E00D11249E2F9770E695E695E69583E06D
:1019B000E89FF0011124E854FE4F50E040E080E041
:1019C000219130E0092E02C0369527950A94E2F75E
:1019D00021703327042E01C0220F0A94EAF7822BCC
:1019E0004F5F5F4F4330510559F7089580E00895E8
:1019F000CF92DF92FF920F931F93CF93DF936C01EF
:101A00000091DF018091E001082BC7E0D0E010E0F9
:101A1000FC2EC8010C2E02C0959587950A94E2F71A
:101A200080FD0CC02197A0F7F12C8F2DDF91CF9175
:101A30001F910F91FF90DF90CF900895B6018C2FEA
:101A40000E948615019771F3F0CFCF93DF93EC01DD
:101A50000E94F80CBE01DF91CF910C9486151F9364
:101A6000CF93DF93EB019091B501992331F0CB0136
:101A7000DF91CF911F910C94250D882379F0CB0134
:101A80000E94F80C182F682FCE010E949B0CBE01FB
:101A9000812FDF91CF911F910C948615CB010E946D
:101AA000CB0C182FF4CFCF93DF93C091E10180913D
:101AB000E2018C1303C0DF91CF910895D0E0FE01C5
:101AC00083E0EE0FFF1F8A95E1F7ED51FE4F208175
:101AD00031814281538164817581868197810E9421
:101AE000260C2196C770E3CF209123023091240267
:101AF00040912502509126026091270270912802A0
:101B00008091290290912A020C94260C2091E101E7
:101B10009091E201291302C080E0089530E0F901BC
:101B200053E0EE0FFF1F5A95E1F7ED51FE4F518143
:101B3000561306C05081581303C05281541304C079
:101B40002F5F3F4F2770E6CF81E00895EF92FF921D
:101B50000F931F93CF93DF9380912802807F31F4FE
:101B600080912502C091E101811119C0DF91CF91CF
:101B70001F910F91FF90EF900895209126023091D0
:101B80002702D0E02115310541F080912302909188
:101B90002402482F49234F3F39F42196C770809182
:101BA000E2018C13EACFE2CF8E0143E0000F111F58
:101BB0004A95E1F7F801ED51FE4F41814913EDCF10
:101BC00090819813EACF82818111E7CFE380F4807E
:101BD000E21AF30A60E083E292E00E94790563E290
:101BE00072E00E94A727E816F906B8F6809128024D
:101BF0008F70806180932802F801E851FE4F808148
:101C00008F708061808383E292E00E94EB0BDF9112
:101C1000CF911F910F91FF90EF900C94530D4F9225
:101C20005F926F927F928F929F92AF92BF92CF926C
:101C3000DF92EF92FF920F931F93CF93DF93CDB775
:101C4000DEB765970FB6F894DEBF0FBECDBF8C012F
:101C500085E0F801DE01519601900D928A95E1F739
:101C6000D8014C9011965C90119712967C90129727
:101C70001396ED90FC9060E083E292E00E9479057B
:101C80006C0183E2882E82E0982E2091260230910A
:101C900027022115310541F0809123029091240201
:101CA00089238F3F09F0E5C171100DC1C8010E9461
:101CB000EB0B7FC063E272E0C6010E94AC2781118A
:101CC0000BC2EF2829F0852D84218F3F09F011C127
:101CD00080E0B82FB170EB2E80FF29C0472D652D15
:101CE000842D0E94860DF82E811121C0498A5A8ABE
:101CF00089899A890E94250D292F22952F702230DB
:101D000050F0243078F49F7051F0F8019581907F65
:101D100031F46F2C1AC19F7011F08823D1F3805ECB
:101D20008830B8F3C8010E94EB0BFE2CF2CF77206D
:101D300009F40BC180912802816080932802612CF4
:101D400004C1892B49F08091230290912402282F0D
:101D500029232F3F09F011C1C8010E942B098823B4
:101D600009F4A4CF772009F4A1CF80912802803212
:101D7000A0F020912302309124023A8729871B8604
:101D8000FD86EC868E878091290290912A02988B9D
:101D90008F87CE0109960E94EB0B88E0F801A3E241
:101DA000B2E001900D928A95E1F70E94A60D0E9483
:101DB000740D66246394C9C0211112C07E2DFD8A62
:101DC000EC8AA201672D8D890E94170C83E292E0B4
:101DD0000E94EB0B88E0F40111928A95E9F79AC111
:101DE0008091260290912702892B49F0809123024D
:101DF00090912402282F29232F3F09F0E6C0C80123
:101E00000E942B09882309F451CF772009F44ECF83
:101E100080912802803208F220912302309124021E
:101E20003A8329831B82FD82EC828E838091290272
:101E300090912A0298878F83CE010196ACCF60E003
:101E400083E292E00E94790563E272E00E94A72794
:101E5000A816B90650F5672C772009F427CF809192
:101E6000260290912702892B49F0809123029091BC
:101E70002402282F29232F3F09F0CDC0C8010E943A
:101E80002B0981118ACF80912802816080932802DA
:101E9000C8010E94EB0B59C088E0F801A3E2B2E050
:101EA00001900D928A95E1F750C07E2DFD8AEC8A53
:101EB000A201672D8D890E94170C88E0F401119210
:101EC0008A95E9F77FC0C8010E942B09682E8823F4
:101ED00009F4ECCE88E0F801A3E2B2E001900D92A3
:101EE0008A95E1F783E292E00E94C7070E94A60D5F
:101EF00069C081E08725EDCE81E08725F6C0D80155
:101F000011962C912913DFC0F80190819813DBC042
:101F10002091290230912A0286819781281739075A
:101F200009F0D1C07110CFC0809128028F708061FC
:101F3000809328020E94740D83E292E00E94EB0BD2
:101F400080912802D80115968C93862D65960FB640
:101F5000F894DEBF0FBECDBFDF91CF911F910F91DF
:101F6000FF90EF90DF90CF90BF90AF909F908F90B9
:101F70007F906F905F904F900895F8012181291311
:101F8000EBCED8019C919813E7CE20912902309195
:101F90002A0216968D919C9117972817390709F0F8
:101FA000DBCE809128027110D7CE15968C93C80194
:101FB0000E94EB0B88E0F801A3E2B2E001900D92E1
:101FC0008A95E1F70E94740DC0CFD80111962C912B
:101FD000291315CFD8019C91981311CF2091290274
:101FE00030912A0216968D919C91179728173907E0
:101FF00009F005CF711003CF8091280215968C93BC
:10200000C8010E94EB0BE3E2F2E088E0DF011D92E1
:102010008A95E9F79ACFF801218129132FCFF8018A
:10202000908198132BCF2091290230912A0286812A
:1020300097812817390709F021CF63E272E0C601C2
:102040000E94B527811128CF8091280280FD24CFDE
:10205000982F907F09F420CFD80115968C9315976F
:10206000903F09F4A4CF982F907F905F8F70892BB9
:102070009CCF609025025701A21AB30A662009F48A
:10208000DECE60E083E292E00E94790563E272E0D6
:102090000E94A72720912802207FA816B90608F0E1
:1020A0008BCE809126029091270221114ACE672C77
:1020B000892B49F08091230290912402282F292313
:1020C0002F3F09F01CCF63E272E0C6010E94A727F0
:1020D000843F914008F4EECDE114F10429F0852D00
:1020E00084218F3F09F008CF80E080FFEACD472DA3
:1020F000652D842D0E94860D882309F4E2CD83E2AC
:1021000092E00E94EB0B88E0E3E2F2E0DF011D9237
:102110008A95E9F70E94740D12CECF93DF93CDB765
:10212000DEB760970FB6F894DEBF0FBECDBF29872C
:102130003A874B875C876D877E878F87988BCE0128
:1021400009960E940F0E8823D1F08C859D85892BDE
:1021500039F029853A85822F83238F3F09F074C097
:102160008091E1019091E201891348C060960FB619
:10217000F894DEBF0FBECDBFDF91CF91089588E008
:10218000FE013996DE01119601900D928A95E1F7D4
:102190008C859D85892B21F389859A8589238F3F9D
:1021A000F9F2A091E201B0E0CD0101968770992784
:1021B0002091E1012817190671F40E940C09109270
:1021C000E2011092E10188E0E3E2F2E0DF011D921A
:1021D0008A95E9F7C5CF93E0AA0FBB1F9A95E1F75F
:1021E000AD51BE4F98E0FE01319601900D929A9547
:1021F000E1F78093E2010E94530DB2CFB8E08B9FCC
:10220000C00111248D519E4F0E940F0E882309F4A6
:10221000ADCFE091E10128E0E29FF0011124ED5102
:10222000FE4F208131814281538164817581868195
:1022300097810E94260C8091E10190E001968770C1
:1022400099278093E1018CCF4B855C856D857E85D8
:102250008F8598890E94260C83CF682F809100017A
:10226000909101010C942637682F80910001909184
:1022700001010C94313780910001909101010C947F
:102280003C378091500208958091680790916907CA
:10229000892B89F00E94E73720914E0230914F023E
:1022A000AC01421B530B81E0209168073091690714
:1022B0004217530708F480E08170089580914D0221
:1022C000859585958595089580914D02877008952F
:1022D0000E94E73720914B0230914C02821B930BF6
:1022E00020916807309169078217930748F0809121
:1022F0004D0282FB882780F991E08927817008953B
:1023000080E0FCCF90914D02977081E009F480E06D
:10231000089580917502089590917502892B80939C
:102320007502089580959091750298239093750297
:102330000895109275020895809174020895909105
:102340007402892B80937402089580959091740291
:1023500098239093740208951092740208958093C4
:102360007302089510927302089580937202089583
:1023700010927202089580915102089508950C946C
:10238000BE1190915002981721F0809350020C9446
:10239000BF11089580915002882329F010925002B5
:1023A00080E00C94BF11089508950C94D411CF933C
:1023B000C82F8091930682FD10C0809151028C1726
:1023C00061F00E94E73790934F0280934E02C093D2
:1023D00051028C2FCF910C94D511CF9108958091FB
:1023E0005102882349F01092510210924F0210922C
:1023F0004E0280E00C94D5110895CF93DF93E091C5
:102400000001F0910101809175028083E09100014B
:10241000F0910101808190917402892B80838091D9
:1024200051028823E9F08091680790916907892B10
:1024300029F00E94441181110E94EF11E0910001E6
:10244000F0910101808190915102892B80838091CC
:102450000001909101010E94923681110E94EF11BA
:10246000E0910001F091010180917202982F909506
:10247000808189238083E0910001F09101018081B6
:1024800090917302892B8083C0910001D09101014A
:1024900040E250E06BE272E0CE010E943F40892BA7
:1024A00069F080E2FE01ABE2B2E001900D928A9504
:1024B000E1F7CE01DF91CF910C943E36DF91CF91C1
:1024C000089508950C9461129091930692FD16C0A0
:1024D00098E0899F90011124622B60934D020E9425
:1024E000690C0E94E73790934C0280934B028091D5
:1024F0004D028595859585950C9462120C94690C16
:1025000010924D0210924C0210924B0280E00C94FB
:10251000621290914D028095892380934D02282F5D
:10252000277091F4282F082E000C330B92171306F6
:1025300059F09091930692FD07C0859585958595F4
:102540000E94740C0C94801208959091930692FB53
:10255000222720F9281769F080FB92F990939306BF
:1025600080919206909193060E94F01282E00C9462
:10257000891208958091930682FB882780F991E063
:1025800089270C94A51281E00C94A51280E00C948C
:10259000A5126FEF7FEF90E080E00C94984090E000
:1025A00080E00E947440893E9E4F11F40C94FD1A05
:1025B00080E0089582E090E00C946C4083E090E02D
:1025C0000C946C40CF9384E090E00E946C40C82F44
:1025D00082E290E00E946C40982F8C2FCF9108955A
:1025E000CF93C92F682F84E090E00E947A406C2F2F
:1025F00082E290E0CF910C947A40AB01BC018FE075
:1026000090E00C948C40AB01BC0183E190E00C9411
:102610008C4060E070E0CB010C94031360E070E04C
:10262000CB010E94FD120C94091369EE7EEF90E03D
:1026300080E00E94984060E082E090E00E947A4052
:1026400060E083E090E00E947A401092E00160E058
:1026500084E090E00E947A4060E082E290E00E9494
:102660007A4060E085E090E00E947A4060E086E099
:1026700090E00E947A406FEF87E090E00E947A40FD
:1026800040E050E0BA0188E090E00E948C4060E0B9
:102690008DE090E00E947A4040E050E0BA0188E18D
:1026A00090E00E948C4060E087E190E00E947A40D8
:1026B00040E050E0BA018CE190E00E948C4070E074
:1026C00060E080E290E00E94984040E050E0BA0173
:1026D00088E190E00E948C4080E00E94161B0E94DE
:1026E000431B0C940E130C941513682F8EE090E08E
:1026F0000C947A400E94F337609392027093930295
:10270000809394029093950260938E0270938F024F
:102710008093900290939102089585B7806885BF59
:1027200085B7806885BF0895089508950C94951322
:1027300008950C9498130E948D1384E696E10E94EC
:1027400028360E94161E0E94BF260E9494130C94E5
:10275000961381E008950C94A913089508950E949A
:10276000AD130C94AE130E947E160C9436070E9493
:10277000DE370E94521B0E9490170E94B3130C94E4
:1027800099133F924F925F926F927F928F929F9296
:10279000AF92BF92CF92DF92EF92FF920F931F936F
:1027A000CF93DF93CDB7DEB72A970FB6F894DEBF8D
:1027B0000FBECDBF0E94A517882E81110E947A13EB
:1027C00056E7A52E52E0B52E10E000E0302E802F07
:1027D0000E94C0162B013C01F501C190D190E190FF
:1027E000F1905F01C414D504E604F70409F46FC046
:1027F0008091960281FD0E94CB16D701C6018425E7
:102800009525A625B725912CC12CD12C7601C394F2
:10281000AC01BD014C215D216E217F21452B462B52
:10282000472B09F44CC00E94AB138823C9F09E8249
:102830003F824C205D206E207F2081E04528462885
:10284000472809F480E088870E94E7378160782F65
:102850009A8789874E815F8168858A850E945B0798
:10286000000F111F000F111FF801EA58FD4F808162
:102870009181A281B3818C259D25AE25BF258083C2
:102880009183A283B38381E0811001C080E02A9606
:102890000FB6F894DEBF0FBECDBFDF91CF911F9171
:1028A0000F91FF90EF90DF90CF90BF90AF909F90EF
:1028B0008F907F906F905F904F903F90089593948A
:1028C000CC0CDD1CEE1CFF1CF1E19F12A1CF0F5FB1
:1028D0001F4F0630110509F079CF8FEF89838A8366
:1028E0001B820E94E7378160782F9D838C8349810A
:1028F0005A816B818D810E945B07C5CF0E94C631D2
:102900000E94B4350E945E2D0C94622A0E94C1136D
:102910000E947E140E94E3190C944607CF93DF9324
:102920000E948A15EC01811521E5920708F042C04A
:10293000811530E5930708F09DC0883E910530F57C
:10294000803E910508F092C0883A910588F4853A56
:10295000910508F084C08130910509F487C0009783
:1029600009F484C0049708F081C0D0E0C0E07EC0C4
:102970008F3B9105D0F7C85AD0E0CC0FDD1FC55A68
:10298000DE4F0990D881C02DD46470C0811590426B
:1029900050F4C11581E0D80708F068C0C03FD105E8
:1029A00020F3D06563C0C11590E4D907F0F2DF7061
:1029B000D06A5CC0811525E5920700F5811534E5E4
:1029C000930708F08BC0811543E5940708F073C0A6
:1029D000C11582E5D80708F469C0CE018370992734
:1029E00021E030E002C0220F331F8A95E2F7C6953E
:1029F000C69580E2C89FE001112454C0C11599E535
:102A0000D907A8F4C11528E5D20708F06CC0C11594
:102A100036E5D30708F0A9CF8C2F0E942116C82FC6
:102A2000D0E0DC2FCC27CC27DF71D0621FC0C115CE
:102A30004AE5D40708F45CC0CE0190568115904257
:102A400008F093CF8D2F8F710E94211690E0982F60
:102A5000882788279F719C012C2BE901E6CFC55A56
:102A6000D0E0C757DE4FC881D0E0D064CE01DF91FF
:102A7000CF910895E4E096958795EA95E1F7837004
:102A80002C2F26952695237040E2249F9001112437
:102A9000382B8C2F8370C1E0D0E002C0CC0FDD1F3B
:102AA0008A95E2F7C22BD32BDC68E0CFDC2FCC2752
:102AB000C16FD06ADBCF8370992721E030E002C07C
:102AC000220F331F8A95E2F7C695C69590E2C99FFB
:102AD000E0011124C22BD32BDA68C8CFD82FCC2722
:102AE000C46FD06AC3CFDC2FCC27C06FD06ABECFF3
:102AF0008C2F8F700E94211634E0D695C7953A9599
:102B0000E1F7CF709C2FEC01D069B0CF0E94072471
:102B10000C948E1482389105B1F1B0F48133910593
:102B200009F475C048F48932910509F469C08A3204
:102B3000910509F473C008958533910509F459C0CE
:102B40008933910501F10895833E9105A9F138F487
:102B5000803E9105F9F0823E910549F10895863E47
:102B60009105A9F1873E9105C9F1843E910519F5BA
:102B70002091930621FF1FC08091920684FD14C00E
:102B800087EE90E00895209192062370A1F080EEE8
:102B900090E008952091920620FD47C03091930661
:102BA00030FF09C024FF44C090E080E004C02091C1
:102BB000920622FDF7CF08952091920622FD3BC098
:102BC0003091930630FDE3CF24FFF5CFEDCF209178
:102BD000920623FFF0CF24FDE7CFD2CF20919206BB
:102BE00023FD2CC03091930631FFEECF84EE90E0B0
:102BF00008952091920625FFDECF89E290E00895A6
:102C00002091920625FFD7CF85E390E0089520918B
:102C1000920626FFD0CF8AE290E008952091920696
:102C200026FFC9CF81E390E0089589E390E00895FD
:102C300083EE90E0089582EE90E0089586EE90E0B5
:102C400008959091920692FF06C0282F287128308F
:102C5000F9F4877F846093FF06C0282F28712831FC
:102C6000F1F4877E84612091930620FF06C0382FFF
:102C700038713830D9F4877F816021FF06C0282F52
:102C800028712831D1F4877E816194FD877E089573
:102C9000282F24712430F9F68B7F8860DCCF282F11
:102CA0002471243101F78B7E8861DDCF382F31719B
:102CB000313019F78E7F8860E0CF282F21712131C4
:102CC00021F78E7E8861E1CF80E008950C94C912CF
:102CD0000E94A5178FE19EE40197F1F700C0000064
:102CE0000E94A51780E00E94C01660FF04C00E94E9
:102CF00066160C944E3808950C9468160E94CF12F4
:102D0000811102C00E9473130E94DA12809396020E
:102D10000E94E21290939306809392060E947C1682
:102D20000E94DE120E94430C8091DF010C94560C2D
:102D300008950C94981608950C949B16962F24E0F1
:102D4000829FF0011124E455F94F41E050E060E02A
:102D500070E004C0440F551F661F771F9A95D2F785
:102D600080819181A281B38184239523A623B723F7
:102D700021E0892B8A2B8B2B09F420E0822F0895E8
:102D800094E0899FF0011124E455F94F608171812D
:102D9000828193810895089580E58A95F1F70895D9
:102DA00000C008950C94CC16F894E82FE295EF70CB
:102DB000F0E031A1282F2F7081E090E001C0880F52
:102DC0002A95EAF7982F9095932391A392A1892BA6
:102DD00082A378940895CF93DF93CDE9D1E08991D0
:102DE0008F3F11F00E94D41681E0C33AD807B9F79B
:102DF000CCE8D1E089918F3F11F00E94D41681E098
:102E0000CD39D807B9F7DF91CF9108954F925F92EE
:102E10006F927F928F929F92AF92BF92DF92EF92CA
:102E2000FF920F931F93CF93DF938C01D62EC62F63
:102E3000D0E0CE0183569E4F7C01FC0120812F3FC4
:102E400009F45EC0F894E22FE295EF70F0E031A152
:102E50002F7081E090E001C0880F2A95EAF7932F48
:102E6000982B91A392A18095892382A378940E94A4
:102E7000D016ECE8F1E02DE931E0412C512C320183
:102E80004394812C912C540181918F3F89F0A82F7C
:102E9000A295AF70B0E090964C9150E08F7002C058
:102EA000559547958A95E2F7D301C20140FF03C0CB
:102EB00080E090E0DC01882A992AAA2ABB2A440CE7
:102EC000551C661C771C2E173F07F1F6F701808111
:102ED0008F3F11F00E94D41661E081149104A10487
:102EE000B10409F460E08D2D0E94D216CC0FDD1FD5
:102EF000CC0FDD1FC00FD11F88829982AA82BB82AE
:102F0000DF91CF911F910F91FF90EF90DF90BF90D5
:102F1000AF909F908F907F906F905F904F900895AB
:102F20000E94EB1688E1ECEAF6E0DF01982F1D9293
:102F30009A95E9F7E4E9F6E0DF011D928A95E9F751
:102F400086E00E94F0170C94C305FF920F931F9325
:102F5000CF93DF93CDB7DEB768970FB6F894DEBF97
:102F60000FBECDBF8E010F5F1F4F88E1F801119298
:102F70008A95E9F7F12C6F2DC8010E940617F3948A
:102F8000F6E0FF12F8CF48E150E0B80184E996E09E
:102F90000E943F40FF24F394009709F4F12C892B01
:102FA00041F088E1F801A4E9B6E001900D928A951C
:102FB000E1F72F2D46E06CEA76E084E996E00E9486
:102FC000F1170E94C5058F2D68960FB6F894DEBFE5
:102FD0000FBECDBFDF91CF911F910F91FF9008954C
:102FE0000895FF920F931F93CF93DF93F82ED92F5D
:102FF0008B01C42F222349F081E0809399020E9423
:10300000E7379093980280939702809199028823E2
:1030100099F080919702909198020E94FF3705974E
:1030200058F0EF2DFD2FD80190E080E0D0E08C1714
:103030009D0744F010929902DF91CF911F910F915B
:10304000FF90089501911191219131910D931D935C
:103050002D933D930196EBCF0E94493A0E94B713FE
:103060000C94553A0E94593A0E9486140C94733A73
:103070000E9487370E94303A0E949B130E942C18AE
:103080000E9432180E94AF13FBCF8091A002609182
:103090006E0770916F0780FF16C020910701269F71
:1030A000C001279F900D1124BC01769567957695F8
:1030B00067956038710508F043C06115710509F422
:1030C00041C0862F089581FF0BC020910701269FE4
:1030D000C001279F900D1124BC0176956795E9CF1B
:1030E00082FF09C0809107019B01829FB001839FED
:1030F000700D1124DECF20919F022223D1F29091F6
:10310000060180910701482F50E0291748F0CB01B4
:10311000849FB001859F700D949F700D1124C9CFBD
:10312000289F90011124269FA001279F500D369FB4
:10313000500D1124692F70E0CA010E940140B9CFDF
:103140008FE7089581E008958091A00280FF0CC070
:103150006091030170E075956795759567956115A8
:10316000710549F1862F089581FF06C06091030122
:1031700070E075956795F3CF6091030182FD0BC0F8
:1031800090919E029923A1F0609102018091030128
:10319000961738F0682F70E06038710500F38FE7FC
:1031A0000895899FC001112470E00E941540F4CF5A
:1031B00061E070E0D7CF81E00895803F31F40E9454
:1031C000451881958093A4020895813F19F40E94C7
:1031D0004518F8CF823F31F40E94451881958093BD
:1031E000A3020895833F19F40E944518F8CF893F40
:1031F00029F40E94A4188093A50208958A3F21F41F
:103200000E94A4188195F7CF8B3F31F40E94A41837
:1032100081958093A60208958C3F19F40E94A4180A
:10322000F8CF843F31F48091A20281608093A202A2
:103230000895853F21F48091A2028260F7CF863FF6
:1032400021F48091A2028460F1CF873F21F4809124
:10325000A2028860EBCF883F21F48091A2028061B6
:10326000E5CF8D3F31F48091A00281608093A00270
:1032700008958E3F21F48091A0028260F7CF8F3FA6
:10328000B9F78091A0028460F1CF9091A302803FB2
:1032900059F48091A40287FF0DC01092A4029111ED
:1032A0000BC010929F0208C0813F81F48091A4025C
:1032B00018169CF3992381F08091A5029091A602A3
:1032C000892B09F064C010929E020895823F49F450
:1032D00097FFF0CF1092A3028091A4028111ECCF4E
:1032E000E0CF833F19F41916ACF3E4CF2091A50287
:1032F000893F29F41216F4F61092A502DBCF8A3F1B
:1033000019F427FFD7CFF8CF2091A6028B3F29F4DD
:1033100027FFD0CF1092A602CDCF8C3F19F4121602
:10332000CCF3C8CF843F31F48091A2028E7F80938A
:10333000A202C0CF853F21F48091A2028D7FF7CFFA
:10334000863F21F48091A2028B7FF1CF873F21F449
:103350008091A202877FEBCF883F21F48091A20267
:103360008F7EE5CF8D3F31F48091A0028E7F8093D8
:10337000A002A0CF8E3F21F48091A0028D7FF7CFD5
:103380008F3F09F097CF8091A0028B7FF0CF0895F7
:103390000E94E7379C019091A3028091A402982B90
:1033A00021F030939D0220939C029091A502809180
:1033B000A602982B21F030939B0220939A0281EA77
:1033C00092E00C945836EF92FF920F931F93CF9395
:1033D000DF9300D000D000D0CDB7DEB786E0E1EAC1
:1033E000F2E0DE01119601900D928A95E1F7E090EE
:1033F000A302F090A4020091A5021091A6021092DF
:10340000A3021092A4021092A5021092A6028E2D81
:103410008F2991F080919C0290919D020E94FF372C
:10342000AC0190919F02992309F43FC0809108015B
:103430008417150608F447C0802F812B91F08091E6
:103440009A0290919B020E94FF37AC0190919E02DC
:10345000992309F477C0809104018417150608F4B4
:103460007FC08091A3029091A402892B9091A50224
:10347000892B9091A602892B11F00E94C81986E031
:10348000FE013196A1EAB2E001900D928A95E1F732
:1034900026960FB6F894DEBF0FBECDBFDF91CF9159
:1034A0001F910F91FF90EF900895209109018AE0FC
:1034B000289F900111242417350708F0BDCF9F5F86
:1034C00090939F0202C09F3FD1F7EE2059F00E94D7
:1034D00045189FEF1E140CF491E0899F802D112454
:1034E0008093A302FF2059F00E9445189FEF1F14FC
:1034F0000CF491E0899F802D11248093A4023091D7
:10350000A302332309F498CF2091A402222309F4C3
:1035100093CF45EB3403C0011124992359F09093C4
:10352000A30245EB240390011124332339F0309397
:10353000A40282CF81E08093A302F3CF81E0809345
:10354000A4027ACF209105018AE0289F90011124DE
:103550002417350708F085CF9F5F90939E0202C025
:103560009F3FD1F7002359F00E94A4189FEF101637
:103570000CF491E0899F802D11248093A5021123E2
:1035800059F00E94A4189FEF11160CF491E0899F46
:10359000802D11248093A6023091A502332309F4D3
:1035A00060CF2091A602222309F45BCF45EB3403C0
:1035B000C0011124992359F09093A50245EB2403EF
:1035C00090011124332339F03093A6024ACF81E0D1
:1035D0008093A502F3CF81E08093A60242CF86E0DC
:1035E000E1EAF2E0DF011D928A95E9F710929F026D
:1035F00010929E021092A002089583E290E00E9431
:103600006C40833189F484E290E00E946C40803900
:1036100059F485E290E00E946C4091E08F3309F00C
:1036200090E0892F8170089580E0FCCFCF93C82F60
:103630006FEF811163E183E290E00E947A406FEFC7
:10364000C11160E984E290E00E947A406FEFC111FD
:103650006FE385E290E0CF910C947A40089586E282
:1036600090E00E946C40682F70E090E080E0089548
:103670000895CF93C62F0E94381B6C2F86E290E0EE
:10368000CF910C947A4080E00E94161B60E070E0BD
:10369000CB010E94391B0E94B3220E947A2481E050
:1036A0000C94161B0E942E1B0E942F1B0E94381B7D
:1036B0000E94FD1A811102C00C94431B0895CF9300
:1036C000FB01C281CC2309F19C0122513F452031ED
:1036D000310520F582510E948A24C0E08C2FCF91C1
:1036E000089581E00E94690C43E062E081E00E945D
:1036F000BA05F3CF81E00E94740C43E062E081E000
:103700000E94BA05EBCF82E0F6CF8031FFE59F073C
:1037100089F381319F45B9F3C1E0E0CF8031EFE516
:103720009E07F9F281319F45C9F682E0DBCF2FEF8A
:10373000FC0120830895EF92FF920F931F93CF9384
:10374000DF93EC01F62E88812091A8053091A90520
:10375000232B79F08E3F09F05CC08981833020F003
:103760008550833008F055C06F2DCE010E941C1E7D
:1037700050C08B3009F4ECC0D0F4843009F48AC016
:1037800060F4823009F44FC008F077C08130F1F165
:103790006F2DCE010E94971B3CC0863009F490C06B
:1037A00008F483C08A30A0F78FEF888332C080315D
:1037B00009F4A6C000F58D3009F489C008F483C06F
:1037C0008E3009F48CC08F3019F78091AA05909142
:1037D000AB05892BF1F06B8170E06D317105C8F498
:1037E00089819A81AE014C5F5F4F9827892798277E
:1037F0000E944F240EC0823109F488C008F483C0AF
:10380000833109F494C08E3F19F6AECF198289E056
:103810008A836F2DCE01DF91CF911F910F91FF9081
:10382000EF900C9409398981823071F0833079F0FE
:10383000813009F0ADCF0E94F3370E942F406A8398
:103840007B838C839D83E5CF0E942F1BF6CF8091D5
:10385000AA059091AB05892BE1F28E01E12C8E2D0A
:103860000E94C016F801828373836483E3940D5F22
:103870001F4FF6E0EF12F3CFCCCF8981823009F0F1
:1038800087CF6A817B818C819D810E942F400E941D
:10389000391BBFCF4B816A8189810E94E021982723
:1038A000892798279D838C83B4CF2C813D81322733
:1038B000232732274B816A8189810E940222A9CF66
:1038C0000E94B322A6CF0E9423248983A2CF0E9404
:1038D00025249827892798279A8389839ACF6B81F3
:1038E00070E06D31710508F094CF89819A81AE0145
:1038F0004C5F5F4F9827892798270E94282489CFFB
:103900000E947A2486CF0E94CE21DFCF6B8170E0A7
:103910006D31710508F07DCF89819A81AE014C5FD0
:103920005F4F9827892798270E944F2372CF6B817A
:1039300070E06D31710508F06CCF89819A81AE011C
:103940004C5F5F4F9827892798270E94752361CF86
:103950008091AA059091AB05892B09F45ACFCE012D
:103960000E9409392FEF80E792E02150804090407B
:10397000E1F700C000000E944E384BCF81152CE5C6
:10398000920741F42091AA053091AB05232B11F445
:1039900090E080E008958F929F92AF92BF92CF9275
:1039A000DF92EF92FF920F931F93CF93DF93CDB7E8
:1039B000DEB72A970FB6F894DEBF0FBECDBF0AE27E
:1039C00014E0F12CE12C85E5C82E81E2D82E99ED8A
:1039D000A92E90E2B92E24E6822E20E2922EF80142
:1039E000D182C082B382A28295828482F58AE48ADF
:1039F000BE016F5F7F4F8E2D0E943B22892B29F4E1
:103A000089859A85F801938B828BFFEFEF1AFF0A65
:103A10000A5E1F4F80E1E816F10409F72A960FB6F7
:103A2000F894DEBF0FBECDBFDF91CF911F910F91F4
:103A3000FF90EF90DF90CF90BF90AF909F908F90CE
:103A40000895CF92DF92EF92FF921F93CF93DF936F
:103A5000CDB7DEB72A970FB6F894DEBF0FBECDBF45
:103A6000E4ECF6E080EADF011D928A95E9F7EAEBE3
:103A7000F3E080E7DF011D928A95E9F784ECC82E18
:103A800086E0D82E7F0110E0F701D182C082BE010E
:103A90006F5F7F4F812F0E946322892B79F488E02A
:103AA000FE013196D60101900D928A95E1F7898544
:103AB0009A85D70113969C938E931297BAE0CB0EFA
:103AC000D11CE7E0EE0EF11C1F5F1031E9F62A96DB
:103AD0000FB6F894DEBF0FBECDBFDF91CF911F911F
:103AE000FF90EF90DF90CF9008959F92AF92BF929A
:103AF000CF92DF92EF92FF920F931F93CF93DF93BA
:103B0000CDB7DEB72A970FB6F894DEBF0FBECDBF94
:103B100009EC12E087EAC82E82E0D82EF12C97E05B
:103B2000E92E9924939429EBA22E23E0B22ED601FC
:103B30000D931D936D01BE016F5F7F4F8F2D0E940E
:103B40008B22892B09F056C0F8013896DF018E2DA3
:103B50001D928A95E9F789819A81D80111969C93E3
:103B60008E938F8112968C9312978D8113968C93DE
:103B70001397888514968C931497898515968C9342
:103B800015978B819C8117969C938E931697189608
:103B90001C9218978A8587FF45C01E961C921E921C
:103BA0001D9780FF03C0D80118969C9281FF04C026
:103BB000F80190859260908782FF07C0D80118961F
:103BC0009C911897946018969C9383FF04C0F80109
:103BD00090859860908784FF07C0D80118969C91C3
:103BE0001897906118969C9385FF04C0F801808512
:103BF00080628087015F1F4FF394F0E1FF1297CF3F
:103C00002A960FB6F894DEBF0FBECDBFDF91CF91DD
:103C10001F910F91FF90EF90DF90CF90BF90AF90EA
:103C20009F900895F801B686A586BBCF0E94CB1C55
:103C30000E94211D0C94751DCF92DF92FF920F936D
:103C40001F93CF93DF93CDB7DEB72A970FB6F894C3
:103C5000DEBF0FBECDBF8C01603269F5DC0111966D
:103C6000EC911197EE3038F5F0E0EC53FF4B0C94EB
:103C7000294088E0E2E2F1E0DE01119601900D9228
:103C80008A95E1F780E2F80111928A95E9F785E0DB
:103C9000D8018C9311961C92119712961C92129730
:103CA00013961C92139788E0FE01319614960190AA
:103CB0000D928A95E1F72A960FB6F894DEBF0FBEF3
:103CC000CDBFDF91CF911F910F91FF90DF90CF90EB
:103CD00008958CEFF801808381E081831282138242
:103CE000EACF13968C911397682F70E0762F662792
:103CF00012968C91860F972F911D092E000CAA0BFE
:103D0000BB0B55E0880F991FAA1FBB1F5A95D1F70F
:103D1000AC01BD01405E5F4F6F4F7F4F48175907A1
:103D20006A077B0740F28C3FE1E09E07A105B105E1
:103D300010F64D3FF1E05F076105710520F04CEF93
:103D400051E060E070E0481B590BBC0168587B4FA4
:103D5000C8010E943640AFCF40E250E06FEF70E004
:103D60000E9455408091AA05D8018C938091A805A6
:103D700011968C93119712961C92129713961C927F
:103D8000139782E014968C9314978DE015968C937C
:103D900092CF81E090E09093A9058093A80582E3FB
:103DA00090E09093A7058093A6050E94E737909333
:103DB000A5058093A4057FCF8091A8059091A905C2
:103DC000892B91F160E080E00E949E16D82E6DE074
:103DD00082E00E949E16F82E8091A4059091A50580
:103DE0000E94FF378536910550F1DD2041F1FF201B
:103DF00031F10E94E7379093A5058093A405809147
:103E0000A6059091A70501979093A7058093A60515
:103E1000892B51F41092A9051092A80581E090E039
:103E20009093AB058093AA058091AA05F801808341
:103E30008091A80581838091A60582833CCF82E38F
:103E400090E09093A7058093A605EECF1092AB0566
:103E50001092AA0530CF40E250E0BC0112968D913D
:103E60009C910E942C2727CFBC016F5F7F4F4FE1B1
:103E700050E0FC01828193810E945E27D8018C93DF
:103E80001ACFBC016C5F7F4F4CE150E0FC01828196
:103E900093810E947827F2CF0E94E4260CCF1296DD
:103EA000EC911297E73008F006CFF0E0EE52FF4BAE
:103EB0000C94294080E2F80111928A95E9F780E19B
:103EC0008C9311968C93119712968C93F4CEFC01DF
:103ED00083813AE0F32E9E012F5F3F4F6901D901A4
:103EE000EF2D1D92EA95E9F7B9010E943B22D80116
:103EF0008D93F60101900D92FA94E1F7DCCE1396C2
:103F0000FC908AE0F8013496DE01119601900D9242
:103F10008A95E1F789819A810E94BE1C9A838983E0
:103F20008B819C810E94BE1C9C838B838D819E8192
:103F30000E94BE1C9E838D838F8198850E94BE1C2B
:103F400098878F83BE016F5F7F4F8F2D0E944F2216
:103F5000F80180830E94CB1CAECE13968C912AE090
:103F6000F22EFE0131966F01DF01EF2D1D92EA95D1
:103F7000E9F7B6010E946322BACF1396FC908AE05B
:103F8000F8013496DE01119601900D928A95E1F7C1
:103F900089859A850E94BE1C9A878987BE016F5FBA
:103FA0007F4F8F2D0E947722F80180830E94211D70
:103FB00082CE13968C919AE0F92EFE0131966F0114
:103FC000DF01EF2D1D92EA95E9F7B6010E948B22E1
:103FD0008ECF1396FC908AE0F8013496DE0111969C
:103FE00001900D928A95E1F78B819C810E94BE1C05
:103FF0009C838B83BE016F5F7F4F8F2D0E949F221A
:10400000F80180830E94751D56CECF93DF9300D0B8
:1040100000D00F92CDB7DEB7909365078093640709
:10402000811520E2920748F40F900F900F900F90A7
:104030000F90DF91CF910C9413058EEF89838A83C3
:1040400081E08B830E94E7378160782F9D838C838A
:1040500049815A816B818D810F900F900F900F9045
:104060000F90DF91CF910C945B07CF93DF9300D03B
:1040700000D00F92CDB7DEB79093650780936407A9
:10408000811520E2920748F40F900F900F900F9047
:104090000F90DF91CF910C9428058EEF89838A834E
:1040A0001B820E94E7378160782F9D838C83498132
:1040B0005A816B818D810F900F900F900F900F9010
:1040C000DF91CF910C945B070F931F93CF93DF93F6
:1040D0008C01EB016AE875E08C2F0E943B22892B52
:1040E000A1F48091840790918507019798F4DD27CA
:1040F000CC56DA4F8881F80110821882833041F162
:1041000080F4813091F08230B9F0DF91CF911F912E
:104110000F910895EFECF7E03197F1F700C0000040
:10412000E4CF8430D1F0853081F780918A05909179
:104130008B05009751F306C080918C0590918D05F9
:10414000009799F3DF91CF911F910F910C94352037
:1041500080918E0590918F05F3CF8091900590917D
:104160009105009779F720918A0530918B05809110
:104170008C0590918D0521153105D9F2009711F725
:10418000C901E0CFCF93DF93EC010E94052080911D
:10419000840790918507019728F4CE01DF91CF9194
:1041A0000C943520EFECF7E03197F1F700C00000F8
:1041B000F2CF0F931F93CF93DF938C01EB016AE84B
:1041C00075E08C2F0E943B22892B09F064C0FE0110
:1041D000FF27D8018C91EC56FA4F8130D9F419960B
:1041E0009C911997992311F080830CC01A969C9189
:1041F0009923D1F382E0808380918C0590918D0585
:104200000097D9F480918A0590918B05009709F465
:1042100042C013C08230E9F519968C91199781112B
:104220002DC01A968C9181110EC083E080838091FD
:104230008E0590918F05009719F1DF91CF911F9115
:104240000F910C94052084E08083809190059091DB
:104250009105009791F780918A0590918B050097C1
:10426000F9F00E94C22080918C0590918D050097F5
:1042700021F780918A0590918B05DFCF85E08083BF
:1042800080918A0590918B05009729F00E94C220A9
:10429000F0CF86E08083DF91CF911F910F91089539
:1042A00080918C0590918D05B1CF0F931F93CF9383
:1042B000DF938C01862F6AE875E00E943B22892BF0
:1042C000C9F4C0918A05D0918B05209799F0F80127
:1042D0008081833069F4CE010E94C220CE010E9409
:1042E000C220CE01DF91CF911F910F910C94C2207B
:1042F0008430B8F7DF91CF911F910F910895CF933C
:10430000DF93FB012281211130C0EC01D755CF3F53
:10431000D10509F050F56AE875E08C2F0E943B2228
:10432000892B19F586E18C9FF0018D9FF00D1124EA
:10433000E65DFB4F86818130E1F480918A059091A2
:104340008B05892B91F080918C0590918D05892B9F
:1043500061F080918E0590918F05209190053091AC
:104360009105822B932B892B61F081E0DF91CF9116
:1043700008958230D1F780918E0590918F05892B19
:10438000A1F326E12C9FC0012D9F900D1124865D85
:104390009B4FFC01108A0E94B034E7CF84E008955F
:1043A00050E0440F551F92E2699F400D511D1124AA
:1043B0009CEC899F400D511D1124CA0187960895D8
:1043C0000F931F93CF93DF938430C8F46630B8F413
:1043D0004131A8F40E94D0218C010E946C40C82F6A
:1043E000D0E0DC2FCC27C80101960E946C409E01D2
:1043F000282BC901DF91CF911F910F91089590E073
:1044000080E0F8CF0F931F93CF93DF93E9018430BF
:10441000E0F46630D0F44131C0F421153C4531F46C
:104420002091AA053091AB05232B79F00E94D02171
:104430008C016D2F0E947A406C2FC8010196DF918C
:10444000CF911F910F910C947A40DF91CF911F91E2
:104450000F9108958432910520F4895A9C4F0C9451
:104460006C4080E008958432910520F4895A9C4F75
:104470000C947A4008959B01803170F49AE0899FF2
:10448000B001112465587C4F4AE050E0C9010E94F8
:104490005C4090E080E008958FEF9FEF08959B01CE
:1044A000803170F49AE0899FB001112465587C4FE7
:1044B0004AE050E0C9010E949E4090E080E00895EB
:1044C0008FEF9FEF08959B01803170F49AE0899FF0
:1044D000B0011124655E7B4F4AE050E0C9010E94A3
:1044E0005C4090E080E008958FEF9FEF08959B017E
:1044F000803170F49AE0899FB0011124655E7B4F92
:104500004AE050E0C9010E949E4090E080E008959A
:104510008FEF9FEF08959B01803170F49AE0899F9F
:10452000B001112465547B4F4AE050E0C9010E945C
:104530005C4090E080E008958FEF9FEF08959B012D
:10454000803170F49AE0899FB001112465547B4F4B
:104550004AE050E0C9010E949E4090E080E008954A
:104560008FEF9FEF08957F928F929F92AF92BF92AD
:10457000CF92DF92EF92FF920F931F93CF93DF932F
:10458000CDB7DEB76E970FB6F894DEBF0FBECDBFC6
:10459000C090AA05D090AB0581E090E09093AB0568
:1045A0008093AA0588E9A82E80E0B82E00E0750166
:1045B00010E015C0F40125913491472D612F802F13
:1045C0000E94022282E0880E911C739491E179127C
:1045D000F1CFE2E2EE0EF11C1F5F163019F0470139
:1045E000712CE8CF0F5FFCECAF0EB11C0430F9F674
:1045F0000E94E4261E8A1D8A188E1F8A1A8E198E22
:104600001C8E1B8E88EC90E09E8F8D8F10E0BE017B
:104610006B5E7F4F812F0E944F221F5F1031B9F7D1
:104620007E018BE0E80EF11C8AE0F70111928A9579
:10463000E9F710E0B701812F0E9477221F5F103148
:10464000C9F7CE0101967C018AE0F70111928A95A3
:10465000E9F78FEF9FEF9E838D8387E08A8710E0D5
:10466000B701812F0E949F221F5F1031C9F7D0929E
:10467000AB05C092AA056E960FB6F894DEBF0FBECA
:10468000CDBFDF91CF911F910F91FF90EF90DF9001
:10469000CF90BF90AF909F908F907F900895EF92B2
:1046A000FF920F931F93CF93DF93EC018A017C015C
:1046B000E60EF71ECE018796CE15DF0539F4DF91A1
:1046C000CF911F910F91FF90EF900895C03323E099
:1046D000D20740F40E946C40F80180830F5F1F4FA7
:1046E0002196E8CFF8011082F9CF4F925F926F9236
:1046F0007F928F929F92AF92BF92CF92DF92EF9272
:10470000FF920F931F93CF93DF93EC017B018A01FC
:1047100080339340D8F480E393E08C1B9D0B861785
:104720009707A0F03E0137E2630E711C8091AA0545
:104730009091AB052E01460E571E892BC1F07E01CC
:10474000C7018796E414F50409F050C0DF91CF91BA
:104750001F910F91FF90EF90DF90CF90BF90AF909F
:104760009F908F907F906F905F904F9008956E0113
:1047700081E0C822DD24C0FF0FC0CE0186960E94D2
:104780006C40F801908189279827892781159C45DD
:1047900019F48FEFF8018083570140FE13C0F1E058
:1047A000AF1AB10848018A0C9B1CC3018E0D9F1DD6
:1047B0000E946C40F401908181159C4519F48FEFA3
:1047C000F4018083F801EC0DFD1D2FEFCA14DB040A
:1047D00008F0B5CF9081818181159C4511F420832B
:1047E000218382E0C80ED11C3296F0CFE0E3EE16B2
:1047F000E3E0FE0640F4F701EC1BFD0BE00FF11FB8
:1048000060810E947A40FFEFEF1AFF0A99CF462F8E
:104810002091A8053091A905232B91F47E3F39F40E
:104820006E3F71F48091640790916507089584301C
:1048300038F4763028F4613118F4672F0C94E021B5
:1048400090E080E0089580E1089585EA92E008957F
:10485000EF92FF920F931F93CF93DF93EC018A01A6
:104860007C01E60EF71ECE01855A9A4FCE15DF0564
:1048700039F4DF91CF911F910F91FF90EF90089540
:10488000C53A22E0D20740F40E946C40F8018083D0
:104890000F5F1F4F2196E7CFF8011082F9CFCF921B
:1048A000DF92EF92FF920F931F93CF93DF937C01E0
:1048B0006A018C01060F171FEC01CE01855A9A4F31
:1048C000C017D10749F4DF91CF911F910F91FF904D
:1048D000EF90DF90CF900895C53A22E0D20740F4E0
:1048E000FE01EE19FF09EC0DFD1D60810E947A406A
:1048F0002196E3CFCF93DF93CBE5D5E060E0CE0107
:104900000E947A402196C11588E0D807B9F7DF9157
:10491000CF910895BF92CF92DF92EF92FF920F93C3
:104920001F93CF93DF9300D000D0CDB7DEB7F82E22
:104930002FE0281740F08FEF97E00E946C400BE5C6
:1049400015E08823D1F00F900F900F900F90DF911A
:10495000CF911F910F91FF90EF90DF90CF90BF907C
:104960000895011548E0140771F3C8010E946C40D6
:10497000811101C0FA940F5F1F4FF110F2CF19821D
:104980001A821B821C82BB24BA9478015FEFE51A5D
:10499000F50AC8010E946C4089831A82882399F223
:1049A000813009F072C0680182E0C80ED11CC701D5
:1049B0000E946C40E82E8A83882329F2C6010E9457
:1049C0006C40F82E8FEF8E0D833068F46801E3E0C1
:1049D000CE0ED11CFB82FF2021F0CE0101960E9459
:1049E0002C078601D2CF8BEF8E0D833030F5C801B6
:1049F0000396FB826C01FF20A1F36801F4E0CF0E67
:104A0000D11C0E946C408C83882359F38B819C813C
:104A100081302FEF920710F0982F882746E0E41698
:104A200031F057E0E51631F00E94C220DACF0E9443
:104A30000520D7CF0E943520D4CF84E0E812D1CF13
:104A40006801E4E0CE0ED11CC80103960E946C40C0
:104A5000FF2009F478CF882309F475CF8150990B92
:104A6000B89E9001B99E300D11244F2D4150550B29
:104A7000CA01820F931F019708F4B3CFEFECF7E060
:104A80003197F1F700C00000F6CFCE0101960E94E9
:104A90002C076701A6CFE6E6F7E0848195812AE03E
:104AA00030E0B9010E940140609309018681809342
:104AB000080182858093070184858093060186859D
:104AC0009785B9010E940140609305018089809318
:104AD00004018289809303018489809302010895EF
:104AE000AF92BF92CF92DF92EF92FF920F931F93FC
:104AF000CF93DF938FEF9FEF4430510508F468C0E8
:104B00004091920641FB882780F990E0880F991F19
:104B100042FB002700F910E0000F111F000F111FCA
:104B2000802B912B40FBCC24C0F8D12C8C299D29C3
:104B300043FB222720F9C22FE0E0DE2F53E0CC0F09
:104B4000DD1F5A95E1F78C2B9D2B44FBAA27A0F97A
:104B5000B0E0E4E0AA0FBB1FEA95E1F78A2B9B2B9C
:104B600045FBEE27E0F9F0E0A5E0EE0FFF1FAA9568
:104B7000E1F78E2B9F2B46FB222720F930E0B6E091
:104B8000220F331FBA95E1F7822B932B47FB222785
:104B900020F930E03695322F222737952795822B42
:104BA000932B20919306322F3170F32EF92A2695FC
:104BB0002170B22EBB0CA82EBF28C501BB0CAA0BBE
:104BC000BB0BFB0180839183A283B38390E080E0E1
:104BD000DF91CF911F910F91FF90EF90DF90CF90D9
:104BE000BF90AF900895CF92DF92EF92FF928FEF38
:104BF0009FEF4430510508F46AC0FB01C080D180AA
:104C0000E280F3800E940C0980919206C0FA80F93C
:104C1000B701A601769567955795479540FB81F9B1
:104C2000B701A60122E076956795579547952A9595
:104C3000D1F740FB82F9B701A60133E0769567957D
:104C4000579547953A95D1F740FB83F9B701A601EF
:104C5000E4E07695679557954795EA95D1F740FB3F
:104C600084F9B701A601F5E07695679557954795C4
:104C7000FA95D1F740FB85F9B701A601A6E0769534
:104C8000679557954795AA95D1F740FB86F9B701E7
:104C9000A601B7E07695679557954795BA95D1F7F0
:104CA00040FB87F98093920680919306D0FA80F9B1
:104CB000D1FACC24C0F8C0FA81F980939306809190
:104CC0009206909193060E94F01290E080E0FF908F
:104CD000EF90DF90CF9008958091660790916707DD
:104CE0000C94962ADB01FC013296259134914217EF
:104CF000530758F0FC01349665917491A901CD01D8
:104D00000E944C4090E080E008958FEF9FEF08955F
:104D10000F931F93CF93DF9306E617E0D0E0C0E038
:104D2000CE010E942A22F80161918F01861719F0A5
:104D3000CE010E9433222196C432D10589F7DF913A
:104D4000CF911F910F910895DA019C012E5F3F4F83
:104D5000F90145915491F90125913491A217B307B6
:104D600058F0FC013496859194910E944C400E9429
:104D7000882690E080E008958FEF9FEF08950F93CD
:104D80001F93CF93DF9306E617E0D0E0C0E0CE019B
:104D90000E942A22F80181938F012196C432D10505
:104DA000B1F7CEE7D6E0FE0185919491009711F01E
:104DB000FC0109952C96F7E0CA37DF07A1F7DF91D0
:104DC000CF911F910F910895E6E6F7E0128E138EB2
:104DD0008FEA90E09183808325E0248F88E893E137
:104DE000938382838AE090E09583848344E150E05A
:104DF0005783468368E070E0718760879387828776
:104E00004EE150E0558744879787868740E550E01C
:104E1000518B408B738B628B68E270E0758B648B77
:104E200062E370E0778B668B68EC70E0718F608F67
:104E3000158E978F868F51A340A322A30E948826A8
:104E40000E940C09109293061092920690E080E066
:104E50000E94F0120C94BF26EF92FF920F931F93C3
:104E6000CF93DF937C01EB018A016FEF70E0CE01FD
:104E70000E94554024E736E0A0E7B7E090E080E0EC
:104E8000AC014E5F5F4F0417150788F0F90165917B
:104E90007491E616F70630F48C0F9D1FFC017183A8
:104EA0006083CA01245F3F4FA217B30749F7DF9120
:104EB000CF911F910F91FF90EF9008959C0184E78F
:104EC00096E0FC01A591B4912A173B0741F00C969E
:104ED000E7E080379E07A9F78FEF9FEF0895FC0169
:104EE00036962591349121153105B1F3F9010994D4
:104EF0000F931F93CF93DF93C4E7D6E0FE01259174
:104F000034918217930741F02C9627E0C037D207DF
:104F1000A9F70FEF1FEF15C0FE01389625913491C8
:104F200021153105B1F3CE01F90109958C01892BC9
:104F300041F4FE013A9685919491009711F0FC019D
:104F40000995C801DF91CF911F910F91089580912C
:104F50007E0790917F07089580918307817008955F
:104F6000809183078695817008958091830782FBE5
:104F7000882780F908958091830783FB882780F92B
:104F8000089580917C0790917D070895883291055E
:104F900038F48E319105E8F40497A0F480E0089588
:104FA0008933910558F48D32910510F48B97B1F740
:104FB0008091810782FB882780F908C0843691059B
:104FC000B9F3ECCF809181078295817091E08927B8
:104FD00008958091810783FB882780F9F7CF80911E
:104FE000810785FB882780F908958091810786FBDA
:104FF000882780F90895CF93DF93EC01FB0182812C
:10500000882309F433C1C330FDE5DF07C0F5CA3F8B
:105010009CE5D90730F49E0122503C4524313105EE
:10502000B0F50E94E2129093930680939206C131EC
:105030008CE5D80709F4EEC008F069C0C930ECE58A
:10504000DE0709F4D5C0C8F5C5308CE5D80709F4EA
:10505000C7C000F5C330ECE5DE0709F4B9C008F0BD
:10506000BBC0C230DC4509F4ADC08091920690917E
:1050700093060E94F0120E940C0980E008C0C1361D
:10508000EDE5DE0771F2C53AFDE5DF0751F2DF918C
:10509000CF910895809192068062C7309CE5D90730
:1050A00009F493C0809192068061C830DC4508F411
:1050B0008CC080919206806488C0809192068B7F1C
:1050C000CD30FCE5DF0709F480C098F480919206AA
:1050D0008E7FCB309CE5D90709F477C0809192068A
:1050E0008C60CC30DC4508F470C0809192068D7FD6
:1050F0006CC0809192068F7ECF30FCE5DF0709F40B
:1051000064C008F47BC0809192068F7D5EC0CD3F65
:105110009CE5D90709F47AC050F5C531FCE5DF07F5
:1051200009F486C098F480919206837FC3319CE590
:10513000D90709F44AC008F471C00E940C09909183
:105140009206892F97FB87F980583FC0CB3FFCE53B
:10515000DF0709F449C008F055C0809193068160CB
:10516000CA3FDC4509F081CF809393067ECFC130E2
:10517000EDE5DE0709F468C0A8F4CF3F8CE5D80759
:1051800009F452C0809193068360C115DD4560F338
:1051900080919306982F909591708E7F892B90FB2C
:1051A00081F9E2CFC136EDE5DE0709F451C0C53A19
:1051B000FDE5DF0709F453C0C230DD4509F055CFE6
:1051C00080E043C0809192068160809392064DCF2B
:1051D000809192068260F9CF809192068460F5CF2B
:1051E000809192068860F1CF809193068260BCCF57
:1051F0000E940C09809192068068E7CF8091920608
:10520000877FE3CF809193068E7FAECF8091930608
:105210008D7FAACF809192068F7BD7CF0E940C09F9
:10522000809192068F77D1CF809193068C7F9CCF0F
:105230008091920682FB992790F921E0922790FBBA
:1052400082F990FB83F9C1CF81E00E9475130DCFE5
:1052500090919206892F8F7E94FF8061B6CF9091B6
:105260009206892F8E7F90FF8160AFCF81E00FCFB4
:1052700080910C01877F80930C0182E00E94A51130
:1052800080910C0184FF06C08F7E80930C0182E028
:105290000E948C1180910C0185FF06C08F7D809348
:1052A0000C0180E20E948C110C94FD11CF93DF93CE
:1052B000EC01662319F082E00E949F11CE01905606
:1052C000811520E2920720F0905E8115904108F44C
:1052D000DD27CE01DF91CF910C9413059C01305650
:1052E000211540E2340720F0305E2115304108F4EA
:1052F00099270C942805FC0123E0F695E7952A955B
:10530000E1F7EE71FF27E455FA4F20813181AC01BE
:105310004F70552781E090E002C0880F991F4A9591
:10532000E2F7662329F0822B932B918380830895E3
:105330008095909582239323F8CFFC0123E0F69586
:10534000E7952A95E1F7EE71FF27E455FA4F8F7044
:10535000992721E030E002C0220F331F8A95E2F73F
:10536000808191812823392381E0232B09F480E077
:105370000895DF92EF92FF920F931F93CF93DF93E5
:10538000EC017B01D42E890180910C0182FF86C043
:105390002091D4053091D5052C173D0719F02097A1
:1053A00009F07CC090910C019B7F90930C0161E00F
:1053B00091FD10C08091D6059091D705A701481B9B
:1053C000590B61E080910D0190910E01481759072A
:1053D00008F460E0617080910C0160FB81F98093BA
:1053E0000C01C9010E947B290E94891181FF08C01C
:1053F00080910C01806180930C0182E00E949211E7
:105400000E94891185FF08C080910C018062809301
:105410000C0180E20E94921160910C01669561700E
:10542000A8018091D4059091D5050E945629D110EC
:1054300014C08091840790918507019740F5609191
:105440000C0166956170A8018091D4059091D505F5
:105450000E946E290E94382930C0B8018091D4057D
:105460009091D5050E94EF27882319F3B801809108
:10547000D4059091D5050E94F5278111DACFDF91EF
:10548000CF911F910F91FF90EF90DF900895EFEC77
:10549000F7E03197F1F700C00000CFCFCE010E94B6
:1054A0009D29A801682FCE010E946E298091D40504
:1054B0009091D5058C179D0769F2F092D705E0927F
:1054C000D605DDCF8091810780FF1EC080910C0141
:1054D00082FF1AC00E94E7372091D6053091D70588
:1054E000AC01421B530B20910D0130910E0142176C
:1054F000530750F02CEC35E041E0BC018091D4051D
:105500009091D5050C94B929089590910C01892F9B
:105510008E7F90FF816080930C010C9438298091DC
:105520000C018E7F80930C010C94382990930E010E
:1055300080930D010895CF92DF92EF92FF920F9327
:105540001F93CF93DF93EC017B018091810780FD56
:105550000BC011E0812FDF91CF911F910F91FF9030
:10556000EF90DF90CF9008950E94E7376C01F7012C
:105570008281882391F180910C0182FF08C02CEC7C
:1055800035E040E0B60190E080E00E94B929CB31DF
:10559000FCE5DF07C9F0CC312CE5D207D9F0CA31E0
:1055A0008CE5D80711F40E94852ACE01905681150A
:1055B000E0E29E0720F0905E81159041E0F41092A9
:1055C000D5051092D405C5CF80910C0181608093E0
:1055D0000C01EBCF0E948F2AE8CF80910C018F7EC7
:1055E000C13ED10531F0C53ED105B9F580910C0120
:1055F0008F7D80930C0180910C0180FFAACFB701B1
:10560000CE010E94C627F7011281882309F4C8C081
:10561000112309F4BEC00E948911182F0E94BB11EA
:10562000812B8D7FB9F11092D5051092D405809110
:10563000810781FD2FC060E0CE010E947B29A70178
:1056400060E0CE010E9456290E94BB118D7F0E940E
:10565000D71182E00E94891272C0CE019056811546
:1056600020E2920720F0905E8115904120F6809113
:105670000C0182FF6ECFB701CE010E94B0278111CD
:1056800068CF2CEC35E040E0B60190E080E00E946D
:10569000B9295FCF88E0F701ACECB5E001900D923D
:1056A0008A95E1F71092CE051092D0051092CF05A1
:1056B0008091D4059091D505C817D90709F04AC043
:1056C000B701CE010E94EF27882309F443C08091DF
:1056D0000C0181FD36C08091D6059091D7058601D9
:1056E000081B190BB7018091D4059091D5050E9434
:1056F000A7270817190770F50E94891181FF08C0B4
:1057000080910C01806180930C0182E00E949211D3
:105710000E94891185FF08C080910C0180628093EE
:105720000C0180E20E94921160910C0166956170FB
:10573000A7018091D4059091D5050E94562910E0CB
:1057400009CFB7018091D4059091D5050E94F52726
:105750008111C1CF0E948911182F0E94BB11812B8A
:1057600090910C0181FB91F990930C010E94BB1167
:105770008D7F0E94D711D093D505C093D405D092C8
:10578000D705C092D60580910C01846080930C01EE
:1057900060CF970140E0B601CE010E94B929DACE70
:1057A00011110DCFD6CE08950F931F93CF93DF9392
:1057B00080914306E091D8051CE081111AC0DF9169
:1057C000CF911F910F91089501E00E0F0093D8051E
:1057D000CE2FD0E0E19FF0011124ED51FA4F8381EB
:1057E0009481892B29F08081918189238F3FF9F45D
:1057F000E02F80914306E81738F310924306109289
:10580000D805DDCF18968D919C918F3F9807E1F0D8
:1058100061E00E94D32B1C9FF0011D9FF00D11240D
:10582000ED51FA4F148213820E94AC11E1CF1C9FFC
:10583000D0011D9FB00D1124AD51BA4F16968D9118
:105840009C911797892BF1F22081318142815381FC
:1058500064817581868197810E948D10DCCF1092C2
:105860004506109244062091100130911101EAEB97
:10587000F3E090E080E02817390709F408954581A6
:10588000411102C01482168201963796F4CFDC01D2
:105890006091E1058091E205962F891301C008957A
:1058A000292F30E0F901EE0FFF1FE752FA4F408138
:1058B00051814A175B07A1F487E08A9FA0018B9F63
:1058C000500D112446545C4F81E0FA0184839613F5
:1058D000E6CF2F5F3F4F237033272093E1050895D4
:1058E0002F5F3F4F922F9370D8CF6F927F929F92EE
:1058F000AF92BF92CF92DF92EF92FF920F931F93DE
:10590000CF93DF93DB0114962C911497211169C07A
:10591000A0904306E3EEF5E030E020E0B12C6624F1
:105920006394712C2A1508F047C0C284D384ED908B
:10593000FC9011976FEF7FEF912C492D50E08A0179
:10594000000F111F0E0D1F1DE8010881198101159F
:10595000110531F0C016D10609F4BA019394EDCFC8
:105960006F3F7607D1F1E30102C0CC0FDD1F6A95CE
:10597000E2F7BC2AB30102C0660F771F9A94E2F7E0
:10598000AB0141505109B416150629F512964D91F7
:105990005C9113976CE0629FF001639FF00D1124FE
:1059A000ED51FA4F578346832EEF20832183918751
:1059B000808721E015962C93DF91CF911F910F9155
:1059C000FF90EF90DF90CF90BF90AF909F907F902F
:1059D0006F900C94472C148213822F5F3F4F3C969C
:1059E000A1CFDF91CF911F910F91FF90EF90DF90AA
:1059F000CF90BF90AF909F907F906F9008951F932E
:105A0000CF93DF93C091E10517E08091E2058C13FD
:105A100007C00E94D42BDF91CF911F910C942F2CA3
:105A2000D0E0FE01EE0FFF1FE752FA4F8081918117
:105A3000189FB001199F700D112466547C4F0E946D
:105A4000752C2196C370E1CF0F931F93CF93DF93F3
:105A5000DC012D913C91119740E090E080E0E82F2F
:105A6000F0E0EE0FFF1FE20FF31FC081D1812097FE
:105A7000B9F0FB010081118190E005C0CE17DF076E
:105A800009F441E09F5FE92FF0E0EE0FFF1FE00F08
:105A9000F11F0190F081E02D309781F78F5FDFCF0C
:105AA000442349F0981708F4DB01CD01DF91CF9131
:105AB0001F910F910895B0E0A0E0F7CF80910F0102
:105AC000882341F18091460690914706009711F195
:105AD0000E94FF3720914406309145062817390768
